:10000300909000E493FE740193AA06F9129C8180F8
:01001300FEEE
:069000009075002A410AF0
:10900600909004E493FF740193900A08CFF0A3EFC5
:10901600F0909002E493FF740193900A06CFF0A3B8
:10902600EFF0D214D26A900A7FE025E0FF900A7E24
:10903600E04F900A00F0900B717420F0900B18E04E
:10904600FEA3E0F5828E837F02129C8590056074F4
:1090560009F0900B18E0FEA3E0F5828E837F0112E3
:0F9066009C8590002A74FFF09000607428F0221F
:1090750090056674A1F09005747460F0900550E059
:1090850054CFF0900AB07490F0A37406F0900AB42F
:109095007497F0A374D0F0900AB67496F0A374F99F
:1090A500F0900AB27491F0A374AAF0900AEE749944
:1090B500F0A374F2F0900AB87497F0A37400F090DE
:1090C5000ABE7497F0A37403F0900B027497F0A393
:1090D5007436F0900AC27491F0A3740FF0900AC42C
:1090E5007491F0A3744DF0900AC67491F0A374A422
:1090F500F0D245129839E4F538F539C268C269C22B
:0A9105006AD2419000607428F02245
:10910F0090002A740FF0900020C083C082E0FF907F
:10911F000B52E0F4FEEF5ED082D083F0900A36E07F
:10912F0030E112900029E04490F0900028E030E503
:0E913F0004E04420F0900008E05403000022F9
:10914D00900007E030E44F900028E04404F0000068
:10915D0000000000000000000000900A36E030E141
:10916D00DF900028E030E5D8900B1AE0FEA3E0F583
:10917D00828E837F14129C85900028E04480F090AD
:10918D000B18E0FEA3E0F5828E837F05129C85907F
:07919D000028E0547FF022DE
:0691A40090002AE4F02215
:1091AA00900B87E0B401069000607428F0129A656B
:1091BA00EF60030296F8E5398538F0129C549694CC
:1091CA001004965E100996942004965E20099694DF
:1091DA004004965E4009927240109362401193A334
:1091EA00402093BB404093F84041942C4042946EF7
:1091FA00404396948004965E800992288010936278
:10920A00801193A3802093BB804093F88041942CD3
:10921A008042946E804394FE8080000096E4E5517B
:10922A0045507009D202F538F5390296E478B0A6AD
:10923A005008A65108A65208A653AF4F0876000850
:10924A00A607900B87E064027033900022745FF0E7
:10925A00A3E4F0A374A0F0A374FFF0900020E4F05C
:10926A00A3F0900560F0801578B0A65608A65708B6
:10927A00A65808A659AF5508760008A60730000474
:10928A007D018002E4FD7F62129902E4FFFE1298DA
:10929A009678AFA60778A706E61870010678A9E6B9
:1092AA001618700116E4FFFE1298B178B0E6FC08B1
:1092BA00E6B50718EEB504147F027E001298B1785D
:1092CA00B2E6FC08E66F7002EE6C600D78AFE678E5
:1092DA00A726F618E436F680CC7F047E001298B1F1
:1092EA008E5E8F5F7F067E001298B18E608F6178E6
:1092FA00B5E66401184678A7700474088002740CF5
:10930A0026F618E436F6E478AFF678AFE6FFC394AB
:10931A000450177E0012989678AFE6FEE42EF58286
:10932A00E4340EF583EFF00680E0900E00E0FD7F56
:10933A0062129902E4FFFE1298B18E5A8F5B7F0285
:10934A007E001298B18E5C8F5D7F047E0012989623
:10935A00900E04EFF00296E4900B87E0B4010DD270
:10936A00417D017F6112997AD269800E900B87E064
:10937A00B40207C241900054E4F0900B00E0FEA34F
:10938A00E0AA06F9129C81900B87E064026003024E
:10939A0096E4900054F00296E4900B87E064016032
:1093AA00030296E4900560F0900E04E0FD7F63806E
:1093BA000E900B87E0B4010F900E01E0FD7F64125E
:1093CA00997AD2680296E4900B87E06402600302FD
:1093DA0096E49000557410F09000587407F0E55424
:1093EA00C3940440030296E47554040296E4900B75
:1093FA0087E0B40114900E02E0FD7F6512997AD2DB
:10940A00699000577453F0800D900B87E0B4020600
:10941A009000577401F0E4900B86F0900B85F002EF
:10942A0096E4900B85E07009900B86F0900B85040A
:10943A00F0900B87E0FFB40115900A8BE0FE900BC9
:10944A0086E0C39E40030296E4D2020296E4EF64E9
:10945A000260030296E49000507403F090005304F3
:10946A00F00296E4900B85E064017035E54FB40292
:10947A000CE53964437004E5386480600FE555B43F
:10948A000214E539B4430FE538B4400A3021FD909F
:10949A000070E04480F0E4900B86F0900B85740233
:1094AA00F0900B87E0FFB40117900A8CE0FE900B56
:1094BA0086E0C39E5005D2020296E4D2150296E4D3
:1094CA00EF640260030296E4900053E054F7F0E080
:1094DA004404F0900020E4F0A3F0900B14E0FEA303
:1094EA00E0F5828E837F047E00129C85E4900B88CF
:1094FA00F00296E4900B87E0FFB4010990006074D3
:10950A0028F00296E4EF640260030296E4900B16D8
:10951A00E0FEA3E0AA06F9129C81EF70030296E42A
:10952A00900B88E0B4011F9000207440F0900B1853
:10953A00E0FEA3E0F5828E837F01129C85900020D5
:10954A007450F0029624900B88E0B4023590002003
:10955A007440F0900B18E0FEA3E0F5828E837F0141
:10956A00129C859000207442F0900B18E0FEA3E054
:10957A00F5828E837F01129C859000207452F0023E
:10958A009624900B88E0B403349000207442F09043
:10959A000B18E0FEA3E0F5828E837F01129C859072
:1095AA0000207443F0900B18E0FEA3E0F5828E834E
:1095BA007F01129C859000207453F0805D900B8887
:1095CA00E0B404349000207443F0900B18E0FEA33A
:1095DA00E0F5828E837F01129C859000207441F011
:1095EA00900B18E0FEA3E0F5828E837F01129C8522
:1095FA009000207451F08022900B88E0B4051B90F3
:10960A0000207440F0900B18E0FEA3E0F5828E83F0
:10961A007F01129C85900020E4F0900B88E0900B6B
:10962A0014B40518E0FEA3E0F5828E837F087E005D
:10963A00129C85900B887401F00296E4E0FEA3E088
:10964A00F5828E837F037E00129C85900B88E0044E
:10965A00F00296E4900B84E070030296E4900051C5
:10966A00E020E576900014E020E56F90005874053C
:10967A00F09000527403F0900055E4F0900053F01B
:10968A00900070F0D203D2028050E4900B83F090E5
:10969A000B84F09000207408F0900B18E0FEA3E011
:1096AA00F5828E837F02129C85900020E4F0900B55
:1096BA0018E0FEA3E0F5828E837F02129C85900556
:1096CA00607409F0900B18E0FEA3E0F5828E837FA8
:1096DA0001129C8590002A74FFF0E53920E702C246
:0E96EA0006900B87E0B401069000607428F033
:0196F800224F
:0796F900E511247A7F002235
:039700007F0022C5
:10970300E5106401702AE511640B7024E513B401BC
:109713001FE512701BE515B40116E51470129009CC
:10972300B1E0900B87B402057401F080037402F07A
:039733007F002292
:10973600304207900025E0547FF030040790002F58
:10974600E054F7F0300509C24190002FE054FBF0D9
:0197560022F0
:10975700900AAFE0C394405020EF64026009EF64C1
:10976700056004EFB4081274E12FF582E4340CF5B8
:1097770083E004F0E4900AAFF0900AAFE0D394409E
:109787004020EF64026009EF64056004EFB408123B
:1097970074E12FF582E4340CF583E014F0E4900AC9
:1097A700AFF0900AAFE0B44013EF64026009EF64D2
:1097B700056004EFB40805E4900AAFF074E22FF5F2
:0997C70082E4340CF583EDF0227C
:1097D0003020031297E830210312980B302402C284
:0897E0002430260312980E222A
:1097E800C220900B86E004F0303808E0D394204083
:1097F80002C238303402C234303502C235302B024E
:03980800C22B224E
:03980B00C2212255
:10980E00302A02C22A302C02C22C302D02C22D3038
:10981E002E02C22E202F03303204C22FC23230301D
:0B982E0002C230303102C231C22622DB
:10983900900C2D747FF0A374FFF0900C2F7404F03A
:10984900900C307401F0900C317440F0900C32F0AF
:10985900900C33F0900C347408F0900C357480F04F
:10986900900C367404F0900C3704F0900C387402A4
:02987900F022DB
:10987B00900E19EDF07B017A0E7919900B06E0FC36
:0B988B00A3E0F5828C837D01029C8528
:1098960078A6E6FC08E62FFFEC3EFE900ACAE0FC3E
:0A98A600A3E0FDF5828C83129C857F
:0198B0002295
:1098B10078A6E6FC08E62FFFEC3EFE900ACCE0FC21
:0A98C100A3E0FDF5828C83129C8564
:0198CB00227A
:1098CC0078ABE6FC08E62FFFEC3EFE900ACAE0FC03
:0A98DC00A3E0FDF5828C83129C8549
:0198E600225F
:1098E70078ABE6FC08E62FFFEC3EFE900ACCE0FCE6
:0A98F700A3E0FDF5828C83129C852E
:019901002243
:1099020078A5EFF6AE0578B6A6067E00900AC8E006
:10991200FCA3E0FDF5828C83129C85900ACCE0FECC
:10992200A3E0F5828E83E4FFFE129C8578A8A6064A
:1099320008A60778A6760008760278B6E660387838
:10994200A8E6FE08E678A726F618EE36F6E6FE0842
:10995200E6FF900ACCE0FCA3E0FDF5828C83129C2A
:109962008578A8A60608A60778A7740226F618E442
:0799720036F678B61680C33B
:0199790022CB
:10997A0078AAEFF6AE0578BAA6067E00900AC8E085
:10998A00FCA3E0FDF5828C83129C85900ACCE0FE54
:10999A00A3E0F5828E83E4FFFE129C8578ADA606CD
:1099AA0008A60778AB760008760278BAE6603878B7
:1099BA00ADE6FE08E678AC26F618EE36F6E6FE08C0
:1099CA00E6FF900ACCE0FCA3E0FDF5828C83129CB2
:1099DA008578ADA60608A60778AC740226F618E4C0
:0799EA0036F678BA1680C3BF
:0199F1002253
:1099F20078AFA607AF0508A607900E00E0FD7F62CC
:109A020012990278AFE675F008A4FFAEF078A7E6E7
:109A12002483FD18E436CD2F08F6ED3E18F678B013
:109A2200E624FE60121460131460141460182404F7
:109A3200701EE4FFFE80137F0180067F0380027F99
:109A4200057E000298B17F077E001298967E002262
:039A5200E4FEFF30
:019A550022EE
:0F9A5600EFD39D4005EF9DFF8004C3ED9FFF22DE
:109A650030687178AAE6FF7E00900AC8E0FCA3E0A2
:109A7500FDF5828C83129C85E478B7F6C378AEE653
:109A8500940318E69400403B78B7E694105034E40C
:109A9500FFFE1298E7C006C0077F027E001298CC31
:109AA500AD07D007D00612987B78B70678AC74035B
:109AB50026F618E436F678AE74FD26F61874FF36E9
:109AC500F680B9C378AEE6940318E694005002C256
:109AD50068029C4C206903029C3EC269D20278AAA6
:109AE500E6FF7E00900AC8E0FCA3E0FDF5828C83CA
:109AF500129C8578AEE618467003029C3BE4FFFE97
:109B05001298E778B8A60608A6077F027E00129885
:109B1500CC78B6A60778B8E630E61678B6E6FF90B4
:109B25000B18E0FCA3E0FDF5828C83129C85029C5A
:109B35001F78B8E654B0FEE48EF0129C549C0F00DA
:109B4500009BEB20009B5680009B86A00000009C9C
:109B55003778B8E6547FF6E418F678B7E6FFC31809
:109B6500965065EF2403FFE433FE1298CC78B7E6F0
:109B750078B926FDE418368D82F583EFF018068056
:109B8500D978B8E6547FF6E418F678B7E6FFC31837
:109B95009650357E00EF78B926FDEE1836FCC3EDFC
:109BA500947EEC94004007EF2403FFEE800778B71E
:109BB500E62403FFE433FE1298CC78B9E678B7269D
:109BC500F8A60778B70680C278B6060606E6FF7ED1
:109BD5000078AC26F618EE36F6C378AEE69FF61892
:109BE500E69EF6029AF878B8E654DFF6E6FE08E651
:109BF500FFC3947EEE940078B6E64005A807F6808C
:109C050007FF78B9E6F8A607801078B6E6FF78B8BA
:109C1500E6FC08E6F5828C83EFF078AC740326F653
:109C250018E436F678AE74FD26F61874FF36F6029B
:109C35009AF8C24580FE7F0122306A10E4FD7F61FB
:0E9C450012997AC26AD269D2027F01227F0090
:019C530022EE
:03000000020014E7
:0C001400787FE4F6D8FD7581C702000378
:109C5400D083D082F8E4937012740193700DA3A39F
:109C640093F8740193F5828883E473740293B5F0D6
:0D9C7400067403936860E9A3A3A3A380D83E
:069C81008A838982E4736E
:00000001FF
