:020000020000FC
:10000000026528020C4B020C64020C91020CA30244
:100010000CF8020D83020E15020E26020E39020E96
:100020004C020E58020E65020E71020E7D020E96F3
:10003000020EC7020EED020FD50200000200000200
:1000400060D3025D640259000261720244D6025913
:10005000AC02000002501A025CA00232A0025FF65D
:100060000256620262A6025AA502639302647B02F0
:100070006492025FBE025130024B840245A290415D
:1000800002E030E505E054FEF022904103E0540F19
:10009000FFBF0807904102E020E706123EC80208B1
:1000A00036123EB5900E41E02402605214603114C5
:1000B000B40B0040030208369000BFF828287302F2
:1000C00001270201AA02083602022F0208360203A3
:1000D000380203580208360207D80207E202082154
:1000E000900E40E064217013900E44E0700D123FBA
:1000F00014123ED0123EAA123F5122020836900E30
:1001000040E064A1701E306104F002082FA263E495
:1001100033FFA262E4332FFFA267E4332F900E4037
:10012000F002082F020836900E40E0247F60101481
:10013000601E2402706A903E00E0900E408058904D
:100140000E44E07008900E40F0A3F080560208368E
:10015000900E44E014601E2481600824FE60282470
:1001600082703A7881E630E0047F0180027F00905F
:100170000E40EF80227881E630E2047F0180027F2A
:1001800000900E40EF80107881E630E4047F01801B
:10019000027F00900E40EFF0E4A3F08006020836E4
:1001A0000208369041037402F022900E40E070196C
:1001B000900E42E0B4010F903E00E054FDF09041FB
:1001C00007E054FBF022020836900E40E064027013
:1001D0005B900E42E07052900E44E0146020248147
:1001E000600824FE602C2482703C7881E654FEF680
:1001F000904101E04402F0E054FEF00203347881C3
:10020000E654FBF6904101E04408F0E054FBF002B4
:1002100003347881E654EFF6904101E04420F0E0A9
:1002200054EFF00203340208360208360208369012
:100230000E40E060030202E4900E42E064026003BC
:100240000202E1900E44E060030202E1A3E07003C9
:100250000202E1E0C3940540030202DE903FF07425
:10026000F3F0900E45E0B4040312C01E903FF0740A
:10027000FF123ED0904102E0544170F8900E45E0EC
:1002800024FE601214601714601C2403704E904208
:10029000017483F080469042017485F0803E904264
:1002A000017407F0803678007C007D017BFF7A4185
:1002B00079107E007F35120FD5306D09903FF074B4
:1002C000F2F012C01E904104E020E1F9123EAA743F
:1002D00035123F5B9042017409F080E980FE02080C
:1002E00036020836900E40E064027045900E42E0FF
:1002F000703C900E44E01460142481600824FE6079
:100300001B248270267881E64401F680277881E6F6
:100310004404F6904101E04404F080187881E644FA
:1003200010F6904101E04410F080090208360208FE
:1003300036020836123ED122123ED1904102E054DC
:100340004170F8900E42E0904100F0904107E05477
:10035000FDF0E4903E04F022306D44909010740162
:10036000F0909016E030E31678A1E6F513125B3EAC
:100370007F0212235B909016E054F7F0801C78A166
:10038000E625E024A2F582E4343EF583E0FEA3E016
:10039000FFBEFF06BFFF03124C1FE4909010F090C9
:1003A0000E43E024FE606D14700302042C24FD60F3
:1003B0001114606024F8700302076A240E600302BF
:1003C00007A8306B15123EE8500B7B1012083E70E8
:1003D00006C26B8002C26B852013306B117A0079E4
:1003E00000123F0C123EAD903E097404800B123E89
:1003F000D9904082E493903E09F0903E0A7412F046
:10040000900E43E0640660030207AB903E0A740A54
:10041000F00207AB903E0B74FFF0A37440F07462DF
:10042000123F36903E0A7420F00207AB306B151273
:100430003EE8500B7B1212083E7006C26B8002C26F
:100440006B852013306B0C123F087404F0A374000A
:10045000F08003123ED9900E42E0120EC7047C00D9
:10046000048A0104A40204C20304EC04051A8005F2
:100470006C8205F98307548600000767123ED99005
:100480004084123F3E9040858059306B0C903E096D
:100490007416F090040202079E904086123F3E9030
:1004A0004087803F306B10900402E02416903E0994
:1004B000F090040302079E904088123F3E904089CE
:1004C0008021306A157A047980123F0C7404F0742C
:1004D00080123F3690048002079E90408A123F3E71
:1004E00090408BE493903E0AF00207AB90040074B6
:1004F00004F0A314F0903E0FE0900402F0903E0E42
:10050000E0900403F0123F087404F0A37400123F5B
:1005100037903E0A7404F00207AB123F65248E60E8
:100520001424FD601724DB601A24187020123E8307
:10053000125ED580117F021263EF800A7F0212479C
:10054000118003121FC3903E20EFF080091250A5C6
:10055000C253123F6C22C253903E20E0B403030208
:1005600050A51250A5903E207405F022123F65243C
:100570008D605024F0604324ED605E24FB604C24C9
:10058000A3606724FE605A24D06003020729900EFE
:1005900047E030E1127E027F007D007B017A047922
:1005A00000120EED0206A9900E45E0903E24F09058
:1005B0000E46E0903E23F00206FA123E8312613DA1
:1005C0000207227F02125E5B020722900E45E09036
:1005D0000401F0126066020722E4FF1237C5020729
:1005E00022123F25125DE00207229000747451F040
:1005F000123F251262EF020722123F00E4903E21D3
:10060000F0A3F0C3903E21E0940250447F84125541
:1006100092EF603C900E45E0FF903E21E0FCA3E0AD
:10062000FD2400F58274043CF583EFF0900E44E065
:10063000FF74012DF58274043CF583EFF012640D14
:10064000903E22E02402F0903E21E03400F080B39E
:10065000C3903E21E09402500302083D7F8512556D
:1006600092EF700302083D1250A5EF700302083D9F
:100670007F81125592EF700302083D123F65248F6F
:10068000700302070724FD700302070E24F3606F56
:1006900024E8700302071524FC700302071F24A836
:1006A000607824CB6003020729900E45E05407F5DB
:1006B00008A3E0F509903E24E0F50A903E23E0F51A
:1006C0000BE4F50C900E45E054F0F50DE030E31628
:1006D000123E9C250BF50BEE350AF50AED3509F5B2
:1006E00009EC3508F508E50D7003750D01903E2005
:1006F0007480F012C006EF30E734123F6C802F1286
:100700003E8312627F801B7F02125E1E80147F0276
:10071000124F01800D1231428008123D7B8003127E
:100720004E71903E20EFF08005123F6C8012903E9B
:1007300020E0B403047F0080027F05903E20EFF0AC
:10074000C253123F001261A4EF600302083D903EC5
:100750002004F022903E20E0900E40F0E4903E20F5
:10076000F090410304F022020836306C38903000DB
:10077000E0640D7030A3E06406702AA3E0B40525A0
:10078000A3E0B4062090300AE0601A903E0B74FF9C
:10079000F0A37441F0A37445123F37900E46E090E9
:1007A0003E0AF08006020836020836900E47E070D6
:1007B00015900E46E0FF903E0AE0D39F4008900E51
:1007C00046E0903E0AF0903E0AE07004123F00229C
:1007D000900E43E0FF0233F5903E04E0900E40F0AF
:1007E000804D123F14F0900E42E0B4011A903E0486
:1007F0007401F0904107E04402123ED0E490900171
:10080000F090900704F022900E42E07012903E04A7
:10081000F0904107E054FD123ED09090018013808B
:1008200015900E44E07006900E40F0800280079014
:1008300041037401F022904101E04401F0227D0166
:100840007C0012C00FEF4E22E4F520900011E06012
:100850000A900010E020E0037F8322900010E05413
:1008600001900401F0900011E0900400F0909016C7
:10087000E05418FFBF1010306D0DE4FFFE122FE0A2
:10088000909016E054EFF02056432057407888E6C9
:10089000600A7987E77886461846601E7F457E4065
:1008A0007D357C747885121BAC600F7F427E497D5C
:1008B0004F7C537885121BAC7002D2567885E66067
:1008C0000C7988E778874618467002D25730675609
:1008D00020585320570330564D205D4A206115A201
:1008E00062E4332401FFE433FE7883E6FDB5070AB2
:1008F000E4B50606789976018025306411903E189B
:10090000E07899B4B0047610801576028011ED1469
:10091000FF7402A807088002C333D8FC7899F678E0
:1009200099E6FF1251B1306B1885131F121CE07B42
:10093000107D017C0012C00FEF4E7002C26B851F4C
:10094000137899E6FFB40127121D647464F0A37450
:100950002BF0206B030209ED900120E064AA6003F4
:100960000209ED7B017A017922903E0B0480593017
:100970006B61900002E07C002416F9EC3400FAA3CD
:10098000E029F9EC3AFA903E0B7401F0A3EAF0A3E7
:10099000E9F0EF5414601B900140E0B4AA147A010E
:1009A0007942903E0B7401F0A37401F0A37442F0FD
:1009B000803B7899E6B40835900120E0B4AA2E7AFD
:1009C000017922903E0B7401F0A37401F0A374220C
:1009D000F0801A90408CE493903E09F07E002482CF
:1009E000F9EE3440FA121D64EAF0A3E9F0E4900055
:1009F00000F07899E6640170372060237888E66417
:100A000005701C18E6B48F1718E6B4931218E6B4F4
:100A1000840DE4F0A3F0903E1CE054FEF0801190B1
:100A200000007405F0A37480F0903E1CE04401F0D7
:100A3000306D117412121D2A74E1F012C01E121DC5
:100A4000A9600122900401E07003020B9990040058
:100A5000E0900001F0900400E02480602224FD700A
:100A600003020B2424836003020B96E4900002121D
:100A70001C327480F0A37483F0752007020C45E4E7
:100A8000900002F0306A227B017A007980903E0B60
:100A900004F0A37400F0A37480F0E4903E09F09099
:100AA0000080E0903E0AF0801C121D647440F0A3A8
:100AB0007482F090408AE493903E09F090408BE479
:100AC00093903E0AF0903E0AE0900003F0E4FF901D
:100AD0003E0AE0FEEFC39E5029121D6C903E09E0D5
:100AE000FD7C00E92DF9EC3AFAEF29F9EC3AFA121B
:100AF0000C4BFD74032FF582E43400F583EDF00F09
:100B000080CD900003E030E010E004F074032EF597
:100B100082E43400F5837420F0900003E02404F5AF
:100B200020020C45E4900002F0A37432F074F2123B
:100B30001C35F0A37405F0A37430F0A37435F0A352
:100B40007438F0A37446F0A37420F0A374F2F07428
:100B500001121CD9740D121C647420F0A3F0A312AE
:100B60001C6474F1F07402121CD97408121DB012C6
:100B70001C35121D78E4A3F0A374F1121C32740822
:100B8000F0A37420F0E4A3121DB0A3F0A3121D780B
:100B9000752036020C457F83229000017480F0A3FB
:100BA0007404F0A37402F0A3741FF0E4A3F0A3F0A4
:100BB000A3F0F51F121D6C851F82758300120C6453
:100BC000FF7408251FF582E43400F583EFF0051F5C
:100BD000E51FB420DF306B6A3055032056033066C2
:100BE00005E4900001F0751F017899E6FFB4010853
:100BF0009000237430F080383066089000237435FC
:100C0000F0802D3065089000237436F08022306427
:100C1000089000237437F08017306311EF900023A1
:100C2000B408057439F080087438F08003E4F51FC7
:100C3000E51F600E9000207438F0A3742EF0A374AA
:100C400030F0752024AF201253E822BB01068982C0
:100C50008A83E0225002E722BBFE02E32289828AD5
:100C600083E49322BB010CE58229F582E5833AF502
:100C700083E0225006E92582F8E622BBFE06E9253C
:100C800082F8E222E58229F582E5833AF583E4934E
:100C900022EF8DF0A4A8F0CF8CF0A428CE8DF0A484
:100CA0002EFE22BC000BBE0029EF8DF084FFADF0BC
:100CB00022E4CCF875F008EF2FFFEE33FEEC33FCA6
:100CC000EE9DEC984005FCEE9DFE0FD5F0E9E4CEDC
:100CD000FD22EDF8F5F0EE8420D21CFEADF075F0AB
:100CE00008EF2FFFED33FD4007985006D5F0F222B4
:100CF000C398FD0FD5F0EA22E88FF0A4CC8BF0A4C6
:100D00002CFCE98EF0A42CFC8AF0EDA42CFCEA8EDD
:100D1000F0A4CDA8F08BF0A42DCC3825F0FDE98F00
:100D2000F0A42CCD35F0FCEB8EF0A4FEA9F0EB8FF7
:100D3000F0A4CFC5F02ECD39FEE43CFCEAA42DCEC4
:100D400035F0FDE43CFC2275F008758200EF2FFFC2
:100D5000EE33FECD33CDCC33CCC58233C5829BED93
:100D60009AEC99E58298400CF582EE9BFEED9AFD97
:100D7000EC99FC0FD5F0D6E4CEFBE4CDFAE4CCF947
:100D8000A88222B800C1B90059BA002DEC8BF084BA
:100D9000CFCECDFCE5F0CBF97818EF2FFFEE33FE88
:100DA000ED33FDEC33FCEB33FB10D703994004EB40
:100DB00099FB0FD8E5E4F9FA227818EF2FFFEE330C
:100DC000FEED33FDEC33FCC933C910D7059BE99A1E
:100DD0004007EC9BFCE99AF90FD8E0E4C9FAE4CCAF
:100DE000FB2275F010EF2FFFEE33FEED33FDCC3319
:100DF000CCC833C810D7079BEC9AE899400AED9B02
:100E0000FDEC9AFCE899F80FD5F0DAE4CDFBE4CCE0
:100E1000FAE4C8F922EB9FF5F0EA9E42F0E99D4220
:100E2000F0E89C45F022E8600FECC313FCED13FDE5
:100E3000EE13FEEF13FFD8F122E8600FEFC333FF8C
:100E4000EE33FEED33FDEC33FCD8F122E6FC08E690
:100E5000FD08E6FE08E6FF22E6FB08E6F908E6FAEA
:100E600008E6CBF822ECF608EDF608EEF608EFF609
:100E700022ECF0A3EDF0A3EEF0A3EFF022D083D0AC
:100E800082E493F608740193F608740293F60874EA
:100E90000393F6740473A8828583F0D083D0821202
:100EA0000EAD120EAD120EAD120EADE473E493A3AF
:100EB000C583C5F0C583C8C582C8F0A3C583C5F086
:100EC000C583C8C582C822D083D082F8E49370124B
:100ED000740193700DA3A393F8740193F582888332
:100EE000E4737402936860EFA3A3A380DFEF4E6006
:100EF00012EF60010EEDBB010B89828A83F0A3DF44
:100F0000FCDEFA2289F05007F709DFFCA9F022BBCA
:100F1000FEFCF309DFFCA9F022E709F608DFFA80FE
:100F200046E709F208DFFA803E88828C83E709F001
:100F3000A3DFFA8032E309F608DFFA806EE309F2F4
:100F400008DFFA806688828C83E309F0A3DFFA80E9
:100F50005A89828A83E0A3F608DFFA804E89828A62
:100F600083E0A3F208DFFA804280D280FA80C68054
:100F7000D4805580F28029801080A680EA809A80F3
:100F8000A880DA80E280CA802988848C8589828A58
:100F900083E493A30586F0A30586DFF5DEF3800BDB
:100FA00089828A83E493A3F608DFF9ECFAA9F0EDCD
:100FB000FB2288848C8589828A83E0A30586F0A33E
:100FC0000586DFF6DEF480E389828A83E493A3F268
:100FD00008DFF980D688F0EF60010E4E60CD88F012
:100FE000ED2402B4040050C3F582EB2402B40400E3
:100FF00050B92323458223900F6973909023E4F026
:10100000A304F090902174E1F074E9F074E1F0E44D
:10101000909001F0E0700302128FE490900FF0784E
:10102000B3764890900704F0909001E024FE70039E
:101030000210CA24F77003021132240224FC400378
:101040000210ED700302112A1470030211BD147016
:10105000030211B0240E60030212741263B29041B5
:1010600002E030E7F9904102E030E0F9E4F512E502
:1010700012905B3693FF74002512F582E4340EF56E
:1010800083E06F60030212760512E512B408E09067
:101090000E407411F0A37422F0A37433F0A37444CF
:1010A000F0A37455F0A37466F0A37477F0A374886A
:1010B000F0E4904102F0A37408F0904102E020E1D6
:1010C000F99090017401F00212741263B29041071A
:1010D000E030E4F990801CE0540FFFBF0FF6E4907D
:1010E0008007F0904107E04420F0021274AF0BAE8D
:1010F0000AAD09AC08C006C007AE0CAF0DAB07AA1D
:1011000006E4F9F8D007D006120D838F0B8E0A8DF6
:10111000098C08AF0BAE0AAD09AC08780A120E268E
:101120008F0B8E0A8D098C0880FE90800B7408F05E
:101130008005E490800BF090800A7410F01263CA6E
:10114000E4F514126373E4F519F513E4908006F0E6
:10115000908005E030E0F990800BE054036005E4F6
:10116000FF1244D60513E513C3940240DE90800AB3
:101170007411F090800774FFF07514021264D47536
:1011800012021262CB12637390800774C0F0E49075
:101190008006F0908005E030E0F990800BE0540389
:1011A00060047F0080027F01909001EFF0021274D2
:1011B00090801AE04401F090800A7411F0E490905D
:1011C00002F09090057430F09090027401F00000ED
:1011D0000000909001E0B40E05E490800AF01263E4
:1011E000CA90800B7404F0908005E030E7F990809D
:1011F0000074FFF0908005E030E7F9E4908000F0A3
:10120000A3F0F0F0F0909001E0B40F05E4908001BD
:10121000F09080007430F0908005E030E7F9908025
:10122000147410F0E4908006F0908005E030E0F94E
:10123000E4908006F0908005E030E0F9908015742D
:1012400055F074AAF09080147410F0E4908022F0AD
:10125000A37405F090801714F090801674C0F0907D
:101260008016E020E0F99080157477F0E4908023F8
:10127000F002E80080FEE4909001F0E0B4780EE423
:10128000FDFF125130124B84E4FF1245A280FE751F
:101290009852758921758DFFD28EE4F58CF58AD22E
:1012A0008C4387807898F67599559090107408F063
:1012B00090900174FFF0125A0090900AE020E70726
:1012C000909000E030E449909016E030E017903FB5
:1012D00088E0B45110A3E0B4460BA3E0B45706A3D2
:1012E000E0645460261247BF126447909016E044B1
:1012F00001F0903F887451F0A37446F0A37457F046
:10130000A37454F0E4909010F080091264478008B0
:101310001247BFE490900FF0E4909010F0023F73FA
:10132000900012E07895F6A3E0F508A3E0F50990A7
:101330000015E0F50AA3E0F50B7889120E7D000098
:101340000000900019E0B45106A3E0900010F09066
:101350000010E0120EC713BA00146501146D0214D8
:101360007B03147E0414E905148106148407148D8C
:101370000814870914900A14930B14960C14A70EE2
:10138000155A1014AA1114AD1214C41315961B1576
:10139000A81C15BE1D15DB1E15F41F15FA2013BD64
:1013A0002113BD2214242314242414E32814E62A30
:1013B00014DA8014E0810000160202579090800B2E
:1013C000E054FC788CF690800AE018F6900011E06A
:1013D00018F690800B7480F0E4900011F0125F8595
:1013E000788AE6900011F0900010E0B42108A3E0A4
:1013F000FF123C6A800E121F41126492900011E0AD
:10140000FF125B887889A607788CE690800BF0182D
:10141000E630E0047F0180027F00900011EFF012BF
:101420005F85803C90801AE05480788CF6E0547F91
:10143000F0900010E0B42408A3E0FF123C6A800E94
:10144000121F41126492900011E0FF125B887889AC
:10145000A60790801AE0FF788CE65480FEEF4EF0ED
:101460007889E6FF22900011E0FF023C6A121F41DA
:10147000126492900011E0FF025B880263D1025770
:10148000ED025455024DE1125F857F032202633362
:1014900002354102584A7895E6FF5470FEEF540732
:1014A0004E90900E0215FE02423E025F4B126462A5
:1014B0007895E67800FC7A0079007E027F00121EA3
:1014C000F17F03227895E6FA79007B01C002C00122
:1014D000121F6BD001D00202159F121DFF025DE0AA
:1014E0000264FB025F10025BD17D00121EE49000DB
:1014F000007478F0A37404F09000037407F0E4F52E
:1015000020AF20124D4FE52075F004A4AEF024105A
:10151000F50DE43EF50CFE7400250DF58274003ED9
:10152000F583E520F07401250DF58274003EF58306
:10153000E509F07402250DF58274003EF583E50A95
:10154000F07403250DF58274003EF583E50BF0057C
:1015500020E520C3947840A9805E900011E0F5203A
:10156000AF201520EF602CAE08AF09E42FFFE43E5A
:10157000FAA9077BFFC002C001121F6BD001D00285
:101580007E027F00120FD5121E5B126258050805FD
:101590000880CD7F0322121F6B7B017A3079007E99
:1015A000027F00120FD58010121F6B7B007A00792A
:1015B000007E017F00120FD51262587F0322900037
:1015C00011E0600BD259908040E04401F08009C2E4
:1015D00059908040E054FEF07F0322900011E0908B
:1015E000800A6006E04402F08004E054FDF0123905
:1015F000007F0322124A4C7F0322E4909012F07F76
:1016000003227F8322C26DC2691261D3E47892F60D
:10161000122C13C259E4908040F090800B7410F0AB
:101620007892E6122C8D90801AE0547FF090800A18
:10163000E04410F090801AE04401F0908005E03022
:10164000E7F9122BE27430F0E4F514908005E030F5
:10165000E7F99080147410F0E4908006F090800513
:10166000E030E0F9908067E030E018E51470110593
:10167000149080007405F0E4122BE774E0F080CB46
:10168000122C0CE4FD7F2E124CBAE4F514902E00BF
:10169000E0B4500DA3E0B45008903EE57403F08030
:1016A00006903EE57401F0902E00E064986004E03E
:1016B000B4450F751401902E02E030E32F4314025D
:1016C000802A902E00E064EC7022751404902E02A3
:1016D000E030E318902E05E05407C39404400D4316
:1016E0001408E05407FFBF0503431410E47894F690
:1016F0007894E6C39478400302184590800B748078
:10170000F0908005E030E7F9122CA4E51430E439BC
:10171000122CD29080147432F0908005E030E7F9FA
:1017200074EF122C767410F0903200E4F0A3F0FE07
:101730007F08FD7B017A327902120EED90800674EB
:1017400084F0908005E030E0F97894E6FF124D4F88
:10175000908005E030E7F9E51430E10690800074F0
:10176000A2F0E51430E30690800074DAF0E4908093
:1017700000F0122C467430F07894E67014908005D6
:10178000E030E70D7892E630E10778947678021839
:1017900045908005E030E7F9E5145403600D908032
:1017A000007405F0E4122C4674E0F0E47891F690B1
:1017B00080147410F0908005E030E7F9E490800622
:1017C000F0908005E030E0F990800BE05403600970
:1017D000E020E15AE4FF1244D6901000E0640D705E
:1017E0004DA3E064067047A3E064057041A3E06484
:1017F00006703BA3E06421600AE064196005E064C0
:1018000025702B90900AE030E40BE030E41B901040
:1018100007E0B4511478007C30122C587E027F000F
:10182000120FD5122199EF7055122C13800C78915C
:10183000E6C394085004060217AF903EE5E07894A2
:1018400026F60216F0789206E6C3940450030216B8
:1018500010122C0C905B0EE493908007F0908005A2
:10186000E030E7F9122CA4908005E030E7F9122B64
:10187000E27430F0908005E030E7F97F0022D26D0D
:1018800090319FE0B45108D2599080407401F01219
:101890003900E4909002F0903192E07004A3E0608F
:1018A0001D90300CE05470909005F0903192E0FE65
:1018B000A3E0FF12490F9090057490F0800A9030D9
:1018C0000CE04401909005F09090027401F090318A
:1018D00021E0B45102D26990901EE04440F012C061
:1018E00000E47883F67F0122903E06E064077003EF
:1018F000A3E0F47042121EF8125A54E51354037F09
:1019000000FEEF2400F974103EFA7B01C002C00112
:1019100078007C147D01D001D0027E01120FD5E445
:10192000FF12235B8E228F23C3E523789E96E52248
:101930001896400D021B18903E06E0F522A3E0F534
:10194000237B14E4FDFCAF23AE2212C00FEF4E70D8
:1019500003021B1890100A121E6E121F8E90101197
:10196000121E6E903E6C120E71901016121E6E902A
:101970003E70120E7190101B121E6E903E78120E69
:1019800071901021121E6E903E7C120E71901026E6
:10199000121E6E121F65901030E024FF925F9010AF
:1019A00034E024FF9264901036E024FF92559010AA
:1019B00038E024FF9266A3E024FF9263A3E024FFB3
:1019C0009265A3E024FF926790103FE024FF925AB3
:1019D000A3E024FF9260A3E024FF925CA3E0903E8A
:1019E00003F0901043E024FF925EA3E024FF926195
:1019F000A3E024FF925DA3E024FF9258A3E024FF1C
:101A00009250A3E024FF9270305A047F0180027F3D
:101A100000909001EFF090102EE0789A46F69090AA
:101A200016E030E104E654EFF630670320642A1232
:101A30001DD4FF903E6C121E3CFBD3120E15400AC3
:101A4000903E6C120E9600000000903E6C121DD766
:101A5000FFEC4D4E4F6002D262305F09909000E083
:101A600030E302C267E4F521E521C378AC9650214A
:101A700075F002E521A42400F582E5F03411F58328
:101A8000E0FEA3E0FF121E89EEF0A3EFF005218037
:101A9000D77D01121B6D7003021B6812465C7D022C
:101AA000121B6D7003021B68901080E0B4FF09A345
:101AB000E0B4FF047FC080027FB0903E18EFF07D5D
:101AC00003121B7B7003021B68901080E0B4FF09B7
:101AD000A3E0B4FF047FC080027FB0903E1AEFF015
:101AE0007D07121B7B7003021B68901080E064AAC4
:101AF0007017A3E0B45512121FAFE0B4A50D903ECD
:101B000011E0B45A06D25B8002D25B903E06E52219
:101B1000F0A3E523F07F0122903E067407F0A37442
:101B2000FFF0E4F52178ACE6FFE521C39F50137880
:101B30009FE6FC08E6FD121E89ECF0A3EDF00521FE
:101B400080E37E00789FE6FC08E6FD120C918E2271
:101B50008F23AB07AA06E4F9F8AE0EAF0FFCFD1217
:101B60000CF8121F8E121F65D25B7F00227B147C43
:101B700000AF23AE2212C00FEF4E227B147C00AFC9
:101B800023AE2212C00FEF4E227F147E007D007B19
:101B9000017A007900020EEDE50D250BFFE50C350D
:101BA0000AFEE43509FDE43508FC788D120E58C3B1
:101BB000020E15E0FCA3E0FDA3E0FEA3E0250BF57B
:101BC0000BEE350AF50AED3509F509EC3508F5088F
:101BD00022788D120E4CEF24FFFFEE34FFFEED3421
:101BE000FFFDEC34FFFC900000020E71FFE02FFFC0
:101BF000E433FE74002FF58274023EF583E064AA9C
:101C000022908017E0250DF50DE4350CF50CFE78DB
:101C100009AF0DE4FCFD120E39788922AF0BAE0A34
:101C2000AD09AC087802120E398F0B8E0A8D098C23
:101C30000822F07403A3F0E4A3F0A322C2547A00B4
:101C400079007E007F009044007400F0A37400F0DF
:101C5000E4904104F022904101E04410F07881E6E4
:101C60004410F622F0A37441F0A3744CF0A3744323
:101C7000F0A3744FF0A37452F0A32274002520F552
:101C800082E43402F583E022A25CE433FF74047E34
:101C900000A8070822E0FCA3E0FDA3E0FEA3E022E9
:101CA000AE0CAF0DE4FCFDFB7A02F9F8120CF878EB
:101CB0008922FF7E00E07C002400F9EC3402FA7BEC
:101CC000012278007C007D0122FF7E00E07C002460
:101CD00000F9EC3403FA7B0122A3F0E4A3F0A32281
:101CE000903105E0F513903E06E0FEA3E0FF22FEF2
:101CF000ED9400FDEC9400FC7889020E65FFE02F66
:101D0000FFE433FE74002FF582740322903E03E05B
:101D1000FEC3EF9E903E02F0541F2274012520F571
:101D200082E43402F583E0240222903E15F0903ED6
:101D3000167401F0903FF0229000027480F0227837
:101D400095760578962278957602789622903E01CF
:101D5000E06401F0909001F022AB0BAA0AA909A857
:101D600008020E15903E0B74FFF0A322903E0BE08C
:101D7000FBA3E0FAA3E0F9227405F0A37408F0A332
:101D8000740FF0227D017B017A0079117E002278A8
:101D90008D120E4C7802020E267889120E58D3024C
:101DA0000E15CEA2E713CE13227880E6FF6402223E
:101DB000F0A37449F0A37445F022789576067896DE
:101DC000227A0479007E047F009044007404F0A31A
:101DD0007400F022903E74E0FCA3E0FDA3E0FEA3BB
:101DE000E022908017E0250DF50DE4350CF50CFE92
:101DF000AF0DE4FCFD7809120E397889020E65906A
:101E00000010E0900074F0900011E0900075F090E8
:101E10000012E0900076F0227DFF7E027F007B01C1
:101E20007A047900020EEDE50D250BFFE50C350A6D
:101E3000FEE43509FDE4903E783508FCE0F8A3E0C7
:101E4000F9A3E0FAA3E022250BF50BEE350AF50A1B
:101E5000ED3509F509EC3508F508227A0079007EA0
:101E6000007F009044007400F0A37400F022E0FCB6
:101E7000A3E0FDA3E0FEA3E0FF22903105E0F5130F
:101E8000903E06E0FEA3E0FF22E52125E024C2F516
:101E900082E4343EF58322E50D250BFFE50C350A7F
:101EA000FEE43509FDE43508FC22F0A261E433A329
:101EB000F0A25DE433A3F0A258E433A3F0A250E40F
:101EC00033A3F0A270E433A3F022F0A266E433A3BC
:101ED000F0A263E433A3F0A265E433A3F0A267E4C5
:101EE00033A3F0227E027F007B017A007900020E8C
:101EF000ED7D017B01020FD5903105E0F513222F16
:101F0000F50BEA3EF50AE93DF509E83CF5082275CE
:101F1000F002EFA42400F582E5F03405F583227485
:101F2000002520F582E43404F58322FFAB0BAA0AD6
:101F3000A909A808C3020E15788D120E58C3020E07
:101F400015900017E0FEA3E0FF22789BE644F6F62A
:101F500022250BFFEE350AFEED3509FDEC22C39478
:101F6000FFEE940722903E74020E7178007C007D93
:101F70000122F582E43402F583229000747451F05A
:101F8000A3222DFDE4338D82F583E493FE22903E5F
:101F900068020E7104F0A264E433A3F0A322903E21
:101FA00018E064B022ED5407FA7401A80208227800
:101FB0009AE64401F6903E1022C3E50B94FFE50A31
:101FC0009407227D00121E1A903E68121DD7FF90C2
:101FD0000400120E7190040474E5F0A37412F0A3CF
:101FE00074A1F07B017A3E796C125CA09004071218
:101FF0000E7190040B74A2F07B017A3E7978125C2A
:10200000A090040C120E7190041074A3F0E4A3F0DD
:10201000A26C33A3F0A374A4F07B017A3E797C1206
:102020005CA0900414120E7190041974A5F07B0149
:102030007A3E7970125CA090041A120E7190041FFF
:102040007401F0A374A6F0A25FE433A3F09004231C
:1020500074A7F0900426121F9474A9F090042B0426
:10206000F0A26DE433A3F090900AE090042DF0907C
:10207000042F74AB121ECAA25CE433900436F0A2A3
:102080005AE433A3F0903E03E0900438121EAA7B7A
:10209000017A3E7974125CA0900500120E719005D1
:1020A0000474B0F0903E19E0900505F0903E1BE0FE
:1020B000900506F0903E18E0900507F0903E1AE07B
:1020C000900508F0A374C0F0789AE6A3F0A374B169
:1020D000F090051004F0789FE6A3F008E6A3F0A3C3
:1020E00074B3F0A26CE433A3F0903E08E0900515C1
:1020F000F0A374B4F0789BE6FFA3F0789CE6FEA30F
:10210000F0A374B5F090052404F0A3EFF0A3EEF073
:1021100090053074B7F0909000E0900531F0900594
:102120003574B8F090054004F0903102E09005411C
:10213000F078A5E6A3F008E6A3F0903105E090055D
:1021400044F0903E06E0900545F0903E07E0900593
:1021500046F09090287401F0E4F000909029E0900F
:102160000550F090902AE0900551F090902BE0906F
:102170000552F090902CE0900553F078F07C057AB1
:102180003179F07E007F10121EF1205306121DC11E
:102190001262587F0322022199903012E078A2F651
:1021A00090800AE0FF903013E0FEEF4E90800AF03E
:1021B0009031F0E0F50EA3E0F50F9031F2E078AC4D
:1021C000F69031F4E0F510A3E0F5119031F6E078E7
:1021D000ADF69031F8E0F5129031FA122BCE903135
:1021E000FC789F122BD09031FE122C61903191E03F
:1021F000909009F09031A7E078A3F6E6700276049B
:102200009031A8E0FF125DA2903194E06003122C9F
:10221000C5122C6C78B17614E4F52378B1E6FF246E
:1022200000F582E43430F583E0640C60030223554A
:1022300074012FF582E43430F583E0FEC4540F12AC
:102240002C8D74022FF582E43430F583E078AFF6FC
:1022500078B1E62403F582E43430F583E078B0F613
:10226000908005E030E7F9E4F521E521C378AF96E9
:10227000502FAF217401A807088002C333D8FCF5A2
:102280002278B0566010908005E030E7F9122C1BE0
:10229000908000F08007122C1B908001F0052180B7
:1022A000C978B1E62401F582E43430F583E0540FB7
:1022B00078AFF6E630E0037F0022E4F521E521C3A4
:1022C00078AF96400302234CE521540725E0241003
:1022D000908014F0908005E030E7F9E4908006F0FB
:1022E000908005E030E0F990800BE05403600CE052
:1022F00030E1037F0022E4FF1244D6908005E030F5
:10230000E10A90800AE020E1037F002205210521F7
:10231000E5215407F5226007E52178AF66709EE558
:10232000227003752208E5227F0025E0FEC006C06A
:1023300007E523122C3BA807FC122C58D007D00627
:10234000120FD5E5222523F5230222BD78B1740CA6
:1023500026F602221B122CE57F01228F25E4F50AC6
:10236000F50BC3E50B789E96E50A18964003022408
:10237000ECE5257019122F9BCEC313CE13D8F92488
:1023800000F5827414122E935E60190224E1122F5C
:102390009BCEC313CE13D8F9122F56122E935E6024
:1023A000030224E17B40E4FDFCAF0BAE0A12C00F38
:1023B000905D02EEF0A3EFF0905D02E0A330E72025
:1023C000122F9BCEC313CE13D8F9122F563EF5838E
:1023D000C083C082122E964ED082D083F00224E1B8
:1023E000C3905D03E094FF905D02E0940740030218
:1023F00024E1E525700CE0B40708A3E0B4FC030277
:10240000250EE525640260030224E1122F341261D7
:1024100072905D00EEF0A3EFF0C3905D01E094FFD9
:10242000905D00E09407400D122F34AD0BAC0A1202
:1024300059000224E1E514C3942540030224D87B0B
:10244000407D027C00AF0BAE0A12C00F903EE2EE60
:10245000F0A3EFF0122F34903EE2E06E7003A3E0A1
:102460006F600E903EE2E064077004A3E064F770D2
:102470002CE514C39419905D00E0FEA3E0FFE51481
:102480005005122FCC8003122FD6F583EEF0A3EF68
:10249000F0122F34AD0BAC0A1259008037E514C38B
:1024A0009419E5145005122FCC8003122FD6F58312
:1024B000E50AF0A3E50BF0122F9BCEC313CE13D881
:1024C000F9122F563EF583C083C082122E964ED04D
:1024D00082D083F0051480097D01AF0BAE0A12C0D3
:1024E00012050BE50B7002050A022362E525601553
:1024F000903102E0B5130E78A5E6FC08E6FD7FFDFD
:102500007E071259007F107A5D7900122FC3AE0A40
:10251000AF0B221264A97899E66401702E903E1CDC
:10252000E030E027AE0CAF0DE4FCFD780B120E3965
:102530007889121BAC7014121C1CE50DAE0C7802CD
:10254000C333CE33CED8F9F50D8E0C121CA0121B5E
:10255000AC60037F842212530D8F1FEF30E70122FE
:10256000788D120E4CD3121D5940093056030226A5
:102570004E7F8A22121B9850037F8A22903E02E0EF
:10258000FF6011904107E030E611121D0C7005123A
:102590001D4D8000904107E054BFF0903E02E044A2
:1025A00040F02064047F0180027F00903E18E0B478
:1025B000B0047E0180027E00EE5F700302266D1281
:1025C0001C888003121DA2D8FBFF7899E66F70016A
:1025D000EE600302266D7889120E7D00000000E493
:1025E000FFFEFDFCC3121D5970647899E6B4041215
:1025F000903E6CE0FCA3E0FDA3E0FEA3E0F50B122F
:102600001C2B903E1EE50CF0A3E50DF0750C00753B
:102610000D0112C0038F1FE51F30E718903E1EE02A
:102620007004A3E06401700FE51F30E0047F0180B7
:10263000027F03227F8922908016E020E0F9903EFD
:102640001FE024FFF50D903E1EE034FFF50C7E0CDC
:102650007F007DFF121B8FE50D450C600D12625847
:10266000E50D150D70F1150C80ED7F032212609DB4
:1026700012C0038F1FE51F30E72D30E01C90410290
:10268000E030E00312007E904104E020E1EF30549E
:1026900003121C3C751F018003751F037889120EFD
:1026A0007D000000008009121C01120E65751F8953
:1026B000AF1F22306530789AE630E02A90000FE0B4
:1026C000248F24FC501D24F2601924ED601524FC95
:1026D00060140424FB500C24A9600824FB6004242B
:1026E0007970037F8222D25290000FE0120EC72829
:1026F0003310283A1127901227EB7127EF7227F336
:102700007327F77427FB75280676280F7728187823
:1027100028217B282A7C27CB8127D68227E1832783
:10272000C19627709727A19927A99A27B19B278837
:102730009C27B99D2799F52750F62758F72778F851
:102740002760F92841FA2768FB2783FF0000284803
:1027500012572E8F1F02284B12529E8F1F02284B9A
:102760001261088F1F02284B12622D8F1F02284B07
:102770001265348F1F02284B121DFF1262EF8F1F4C
:1027800002284B1264BF800B12537B8F1F02284B11
:10279000126311751F0302284B123D7B8F1F022805
:1027A0004B1231428F1F02284B121FC38F1F02286A
:1027B0004B1260668F1F02284B124E718F1F02282A
:1027C0004B7F011237C58F1F02284B121DFF12626B
:1027D0007F8F1F02284B121DFF125ED58F1F02280C
:1027E0004B121DFF12613D8F1F80607F0280197F99
:1027F00002801E7F0280237F028028903E1CE044DE
:1028000002F07F0280267F03125E1E8F1F803C7FB6
:10281000031263EF8F1F80337F03125E5B8F1F8075
:102820002A7F03124F018F1F80217F031247118FD0
:102830001F80181249B08F1F801112486C8F1F80A3
:102840000A1213208F1F8003751F82C252AF1F22EE
:1028500090000FE0F51D7889120E4CEC4D4E4F6044
:102860001290000CE0648060047F0380027F028F7E
:102870001E8003751E017884A61E306D1D30691AF6
:10288000903E15E51DF0E4903E16F0903FF074E2A6
:10289000F012C01E121DA9600122E51D120EC729EB
:1028A0008C0029720329CF04290D1229CF15292F55
:1028B0001A297F1B29991E29512329622528EB28D3
:1028C00028FC2A291E2F29A64329B34529BA4629BF
:1028D000C15129C85229405A29629E29DBA229CF19
:1028E000A329CFBB29D4BE000029E2E51E64026003
:1028F000030229EA1225138F1C0229E7E51E64034F
:1029000060030229EA123A2D8F1C0229E7E51E64B2
:102910000260030229EA1208488F1C0229E7E51E1B
:10292000640160030229EA12650D8F1C0229E7E5A4
:102930001E640260030229EA123B578F1C0229E73A
:10294000E51E640260030229EA1236888F1C022900
:10295000E7E51E640260030229EA1256C88F1C02D2
:1029600029E7E51E640260030229EA1243FE8F1C78
:102970008075E51E6402707212602E8F1C8068E5FF
:102980001E64017065125E988F1C805BE51E6401F9
:1029900070581255FB8F1C804EE51E6401704B125F
:1029A000651B8F1C8041E51E6402703E124AE88F51
:1029B0001C803412653C8F1C802D1258A58F1C8002
:1029C00026125C168F1C801F125C5B8F1C80187592
:1029D0001C038013125CE58F1C800C1262008F1C9C
:1029E00080051226B38F1CAF1C227F82228F2320EA
:1029F00052062053037F0122121EF812C0152051E7
:102A00000312C01B7FFC7E071261728E0A8F0B12AD
:102A10001FB940117E107F007DFF7B017A10790085
:102A2000120EED8021E47891F67891E6C394085077
:102A300015E6FD7C00E62404FBAF0BAE0A12C00FC6
:102A40007891060680E3E523B4FF09750807750948
:102A5000FF022B52905DFDE07891F6E4F01259AC44
:102A60008E088F09BEFF06BFFF037F00227891E624
:102A7000905DFDF0E5237F0025E0FEEF2400F97472
:102A8000103EA801FC7D017B017A0479007E0212D0
:102A90000FD5E47891F67891E6C394084003022BB1
:102AA000522052062053037F01227891E68512F0CE
:102AB00084E5F070057BA0122B787FFC7E07126402
:102AC000929031EEE030E30778917BA2122B787878
:102AD00091E625E02410908014F090800674E0F0D8
:102AE000908005E030E0F97891E624028512F084C8
:102AF000E5F06007E62402540770509080007410DF
:102B0000F0908005E030E7F978A2E6FF20E53C9000
:102B100080007470F09080047401F0908002E0787E
:102B200092F6EF54C06006908003E046F67892E695
:102B300030E0187D01AF09AE0812C0127BC1E4FD80
:102B4000FCAF09AE0812C00F022A547891060602A3
:102B50002A96121FB950097D01AF0BAE0A12C0129E
:102B6000AD09AC087FFC7E07125900903E06E508CF
:102B7000F0A3E509F07F0122E6FD7C00AF09AE0875
:102B800012C00F22AF177E0078A4E6FAFD7C001277
:102B90000C917891E625E02427F582E4343EF58314
:102BA000EEF0A3EFF0E5188AF0A4FFE625E0242775
:102BB000F582E4343EF58322120FD57A0079007E47
:102BC000007F009044007400F0A37400F022789D10
:102BD000E0FEA3E0A60608F6227D017B017E00024E
:102BE0000FD5E4908000F0908001F0F0F0F0F090CC
:102BF000800022F0E512FD7C00AE0AAF0B120CA3A0
:102C0000ECC313ED13FDE5178DF0A42290801AE0BC
:102C100054FEF090800AE05480F02278B1E625213D
:102C2000FFE433FE74042FF58274303EF583E02216
:102C30007B20AD0BAC0AAF09AE082225E0FEE424F0
:102C400000FFEE34A022908001F0F0E50BF0E50AE1
:102C5000F0E509F0908000227D017B017A10790077
:102C60002278A5E0FEA3E0A60608F622908015745F
:102C700055F074AAF022908000F0908001227E022C
:102C80007F007D007B017A007900020EED905B0EE3
:102C900093908007F022908040E0FFA259E433FE39
:102CA000EF4EF02290800074FFF022EA25E02453DA
:102CB000F582E43463F58322E517C313F517E518AD
:102CC000C313F51822E05470FFE054074F90900EA4
:102CD000F022908040E054FEF022EBC31378B2F66D
:102CE00078A406E6229080157477F022908017F081
:102CF00090801674C0227D017B017E00020FD5906A
:102D00004106E0547FFFBF211C7F437E427D537C00
:102D100055900000E0F8A3E0F9A3E0FAA3E0FBC3BC
:102D2000120E156007788476027F82227B017A007A
:102D30007904125CA07885120E657B017A0079080F
:102D4000125CA07889120E657A0079007E00123E2E
:102D5000AA90000DE07883F690000FE0306E3F649B
:102D600012602A7888E6B4051718E6B48F1218E6C0
:102D7000B4930D18E6B48408903E1C7402F08006EB
:102D8000903E1C7407F0306504E4789BF6C26EE454
:102D90007899F678A1E6F5139090077401F0206C0D
:102DA00003022E53A264E433FF903E18E0FEB4B059
:102DB000047D0180027D00ED5F6023A25CE433FFAF
:102DC0007883E6FDB5071220670F7402A805088016
:102DD00002C333D8FCF51C8037751C10803220618B
:102DE00015A262E4332401FDE433FC7883E6FFB5E9
:102DF0000511E4B5040D306305751C088012751CBF
:102E000001800D7402A807088002C333D8FCF51CAA
:102E1000306756205853205703305603305D273013
:102E200064117883E670028025EE64B0603B751C07
:102E30000280367883E6FF7401A807088002C33356
:102E4000D8FCF51C80233064207883E6601B751C59
:102E50000180167883E67008903E08E0F51C800932
:102E6000751C04789CE64404F6E51C7899666005B8
:102E7000AF1C1251B17F0222F58374FFF0A3F0EF73
:102E800025E025E02439F582E4343FF583E075F050
:102E90000AA4223EF583E0FF7C00E50B54072406DC
:102EA000F582EC345BF583E493FEEF227E007DFF38
:102EB0007B01020EEDE52725E02480F582E4343E17
:102EC000F58322E52325E025E02438F582E4343F2C
:102ED000F58322FDEEC313FEEF132400F582745830
:102EE0003EF583E022E52225E025E02460F582E43A
:102EF000345DF583E0FEA3E0227E007DFF7B0102CE
:102F00000EED7D017B017E00020FD525E025E0243A
:102F100036F582E4343FF58322EC25E02400F58287
:102F2000E4345DF5832224EEF582E4343EF583E457
:102F3000F0A3F022905D02E0FEA3E0FF22E522254F
:102F4000E025E02462F582E4345DF583E02224E6A6
:102F5000F582E4343E222400F582745C227C005425
:102F6000072406F582EC345BF583E493227F007B33
:102F700001020EEDE52178A026FFE41836FE222599
:102F8000E025E02439F582E4343FF58322E522256B
:102F9000E025E02463F582E4345D22E50BAE0A7897
:102FA0000322E52125E024A2F582E4343E22789A2A
:102FB000E64420F67EFF7FFF2225E024C2F582E46E
:102FC000343E227E007DFF7B01020EED25E024567B
:102FD000F582E4343F2225E02415F582E4343E22D4
:102FE0008F2178ACE6F515F513C251E4F523E5130E
:102FF000D378A1965003023141151312C0153051F8
:103000000612C02402310BE4F522122F3D65136035
:10301000030230FF122EC3E0F46004052380F5E4C0
:10302000F524E524C39523502A122F3DFFE52412F1
:103030002EC5E0B50719122EE5FFE524122F0BE08F
:10304000FCA3E0B50709ECB50605052202300A0528
:103050002480CF122EE5FFE523122F0BEEF0A3EF15
:10306000F0122EC3E513F0122F8D122E8B2410F9BF
:10307000745D35F0FA7B01C001E523122E8024E651
:10308000F9743E35F0A801FC7D01D0017E007F0A75
:10309000120FD5122F8DF583E075F008A42480F966
:1030A000745D35F0FA7B01C001E523122F7FE075D6
:1030B000F008A4248CF9743F35F0A801FC7D01D000
:1030C000017E007F08120FD5E523122E80122F4EAD
:1030D000122EF2C3950FEE950E5024E523122E808A
:1030E00024E8F582E4343E122EF2FF7D0112C0186E
:1030F000E523122E80122F4EF583EEF0A3EFF0059C
:1031000022E522C39408500302300AE521600FE44F
:10311000F51412C0210514E514C3940840F4781086
:103120007C5D7A3E79E67F70122F0278807C5D7D2F
:10313000017B017A3F798C7E007F38120FD5022FF8
:10314000EE22903E18E064C060037F89222053067F
:10315000121DC11264627B017A047900125CA09096
:103160003E6C120E717B017A047906125CA0903ECF
:1031700078120E717B017A04790B125CA0903E7C70
:10318000120E717B017A04790F125CA0903E7012CE
:103190000E717B017A047940125CA08F0B8E0A8D30
:1031A000098C08900445E0903E0EF0900446E090B3
:1031B0003E0FF0900444E0645170499004FEE064D6
:1031C0004A7028A3E0644E7022FF78ACE6FEEFC39D
:1031D0009E5014121F0FE0FCA3E0FDEF121E8BECBB
:1031E000F0A3EDF00F80E3E4789CF6AF0BAE0AADF0
:1031F00009AC08EC4D4E4F600BAF0BAE0AAD09ACFD
:1032000008121F8EC262A2648267400F903E6C1249
:103210001DD7FFEC4D4E4F6002D262900404E0B423
:103220005103D38001C3925C306703206406A25C23
:10323000A062925C903E78121DD7FF903E70121EE5
:103240003C2FF50BEA3EF50AE93DF509E83CF508A7
:10325000206009903E70121DD7121E47903E6812E2
:103260001DD7C3950BFFEE950AFEED9509FDEC9574
:1032700008FC121F6530671E30641B121DD4FF90BE
:103280003E6C121E3CFBC3EF9BFFEE9AFEED99FDD8
:10329000EC98FC121F657899E6FF1251B17F03226A
:1032A0008F1CE478A4F6908016E020E0F9904104A9
:1032B000E020E1F9121E5B900000120E9655534279
:1032C000537B007A007985125CA0900004120E7185
:1032D000E490000CF090000BF090000AF0900009D0
:1032E000F0900008F0904106740DF0E4904105F074
:1032F000D254904104E030E10A904102E030E0F223
:103300007F0022C2547A0079007E00121E63E4908E
:103310004104F0E51C7002FF22C28CC28DE4F58CE2
:10332000F58AD28C903E02E0FF6024904107E030A5
:10333000E624903E03E0FEC3EF9E903E02F0541F51
:10334000700D903E01E06401F0909001F0800090DB
:103350004107E054BFF0903E02E04440F090410449
:10336000E020E010904102E030E0037F0022308D49
:10337000EC7F002290000FE0701A78A4E6C394015D
:10338000501290000DE0788366700978A40612331D
:10339000E60232B4900011121E6E7891121F3A703C
:1033A0004290000FE0651C703A90000DE078836653
:1033B0007031908016F01233E6121E5BE490801498
:1033C000F0900016E0F50CA3E0F50D7891120E4C8C
:1033D0008F0B8E0A8D098C08121E977891120E653C
:1033E0007F01227F00227B017A007904125CA078A1
:1033F00085120E65228F21903E0AE0FF7003023590
:103400003DD3944040047E408002AE07E4FFEFC30A
:103410009E5031903E0BE0FBA3E0FAA3E0F9903E12
:1034200009E0FD7C00E92DF9EC3AFAEF29F9EC3AD4
:10343000FA120C4BFD74402FF582E4340EF583ED47
:10344000F00F80CA7898E6FF20E606E52164026066
:1034500009EF30E615E521B40710900E567440F0E0
:10346000E4A3F0900E5D74408014E521B40613903F
:103470000E40740AF0A37406F0900E487401F0E454
:10348000A3F0E521B40706900E417407F0E521642E
:10349000016006E52164067030306C1C903000E05D
:1034A000B40D15A3E0B40610A3E0B4050BA3E0B47B
:1034B000060690300AE08001E4900E42F0900E4340
:1034C0007402F0900E477440F0E5216401702B9077
:1034D0000E4AE0B48006A3E06493600AD26C900EBA
:1034E000507403F08007C26CE4900E50F0206D0A17
:1034F000900E4A7434F0A37412F0E5216402600562
:10350000E521B40708903E05E0900E48F090410395
:10351000EEF0904102E020E1F9904102E054216098
:1035200005E054FEF022904102E020E013903E0AB4
:10353000E0C39EF0903E09E02EF00233F7123F0008
:1035400022C26DC269122C6CE4F521E521C3789585
:1035500096501D122BBB126462E521122C3BA8076A
:10356000FC7D017B017E027F00120FD5052180DBEF
:10357000122CE5122BBB1264629001FEE0B44A06E5
:10358000A3E0644E60037F8922900000E090800AEF
:10359000F030E00678A276408004E478A2F67898CD
:1035A000E6B4800790800AE04480F0900002E07862
:1035B000ACF6900004E0F510A3E0F511900006E0F1
:1035C00078ADF6900008E0F51290000A122BCE902C
:1035D000000C789F122C6390000EE0F50EA3E0F52E
:1035E0000F900191E0909009F090019FE0B4510A92
:1035F000D2599080407401F08007C259E490804015
:10360000F0E4909002F0900192E07004A3E0601D5D
:10361000900010E05470909005F0900192E0FEA3AD
:10362000E0FF12490F9090057490F0800A9000100E
:10363000E04401909005F09090027401F0900194A4
:10364000E06003122CC5900011E0FF125DA2900112
:10365000A7E078A3F6E670027604D26D78007C319C
:103660007A0179007FF0122CF6903103122C6190D0
:10367000310FE078A2F6123900903121E0B4510206
:10368000D26912C0007F0322900011E0543FF51F61
:103690007520FF7521807899E66401600302375F29
:1036A000903E1CE020E00302375F1264E8EF604EBA
:1036B000900202E06048A3E0FF900202121BED704E
:1036C0003D900202E02408F520E51FB43F08A3E086
:1036D00024F8F5218028121C7B64AA6010121C7B40
:1036E000651F6009121D1B2520F52080E9121C7B37
:1036F00064AA6007121D1BF52180037520FFE520D9
:10370000B4FF097E007F80121B8D804F900202E083
:103710007E002400F9EE3402FA7B01C002C00112DF
:103720001CC2D001D0027F08120FD5AF217E007CD1
:103730000074002520F9EC3402FA7B01C002C001BC
:1037400078087C007D01D001D002120FD5E521243C
:1037500006900001F074082521F521AF218062E474
:10376000900000F0A37406F0E4A3F0789AE6FB540E
:10377000F960047F8080027F00900003EFF0A312C5
:103780000E9600000000EB78995654066003121D57
:103790003820560330570C7899E6B40106900003A0
:1037A0007480F0306C197899E6FF54186011EF308E
:1037B000E407903E1CE020E3069000037480F07F55
:1037C000081253E8228F217E027F007D00121E1E08
:1037D00090040974F1F0903E68121DD7FF90040A1E
:1037E000120E7190040E7498F0A374E5F0A374F2B5
:1037F000F0903E6C121DD7FF900411120E719004D0
:103800001574F3F0903E70121DD7FF900416120E3F
:103810007190041A74F4F0903E78121DD7FF900452
:103820001B120E7190042074F5F0903E7C121DD78F
:10383000FF900421120E7190042574F6F0121DD42D
:10384000FF900426120E7190042A74F7F0E4A3F09E
:10385000A304F0789AE6541690042EF0A374F8F0BE
:10386000A25FE433A3F0A374F9F0900433121F9421
:1038700074FBF0A255E433A3F0A374FC121ECAA299
:103880005AE43390043FF0A260E433A3F0A25CE476
:1038900033A3F0903E03E0900442F0A25EE433A331
:1038A000121EAA90048074E1F090048504F0E4787C
:1038B000A4F679A4E7C378AC96501778A4E6FF1273
:1038C0001E8BE0FCA3E0FD121F0FECF0A3EDF00651
:1038D00080E0789AE69005FFF0E5216006121DC1B0
:1038E000126258E4FF1229EDEF60127889120E7D02
:1038F00000000000306C03121F4A7F03227F8922E0
:1039000090800AE030E105751702803F90800BE05F
:1039100030E405751772803390800BE030E5057553
:103920001750802790800BE030E305751748801B07
:1039300090800BE030E60575177A800F90800BE0E1
:1039400030E705751780800375172E75180478A267
:10395000E654C06003122CB89031EEE030E348E446
:103960007891F6A3E078B2F6E66018E478A4F678E9
:10397000B2E6FB30E007122B84E02FF006122CDABF
:10398000B408EC9031EDE078B2F6E6605378A476B6
:103990000878B2E6FB30E007122B84E02FF0061225
:1039A0002CDAB410EC8039E478A4F6E512C313FFE6
:1039B00078A4E6C39F5029AF177E00E6FBFD7C008C
:1039C000120C91EB122BACEEF0A3EFF078A4E6FF13
:1039D000E5188FF0A4FEEF122BACE02EF00680CBA2
:1039E000903195E0703F90800BE030E30578B2763F
:1039F000262290800BE030E40578B2763E2290805B
:103A00000BE030E50578B2762A2290800BE030E6B4
:103A10000578B276422290800BE078B230E70376E8
:103A20004622761622903195E078B2F6221264A9E9
:103A30007899E664017027903E1CE030E020AE0CDF
:103A4000780B121C11121BAC7014121C1CE50DAE6D
:103A50000C7802C333CE33CED8F9F50D8E0C121C80
:103A6000A0121BAC60037F842212530D8F1FEF3016
:103A7000E70122121B9850037F8A22306C19789933
:103A8000E6FF64016046EF20E30A30E40A903E1C42
:103A9000E020E3037F8722789AE6600F54066008EF
:103AA000799AE778995660037F8722903E18E06400
:103AB000B0702EA25C121C8B8003121DA2D8FBFFDB
:103AC0007899E67C00B50719ECB50615E50D150DDE
:103AD000AE0C7002150C4E600512646280EE7F031E
:103AE00022903E02E0FF6011904107E030E61112A3
:103AF0001D0C7005121D4D8000904107E054BFF071
:103B0000903E02E04440F012609D12C0068F1FE517
:103B10001F30E72D30E01C904102E030E00312003E
:103B20007E904104E020E1EF305403121C3C751FED
:103B3000018003751F037889120E7D00000000804C
:103B400013121C01120E65751F89E50D450C7004DA
:103B500078847601AF1F22E4F51F7899E6B4010A54
:103B6000903E1CE030E0037F8322900010E0540878
:103B7000131313541F900400F0900011E0543F9071
:103B80000402F0900012E0900403F0900013E09023
:103B90000404F0900014E0900405F07E027F00120F
:103BA0001B8DE4900001F0789AE6FF54F960047EE2
:103BB0008080027E00900002EEF0E4A3F07899E6A7
:103BC000FE5F54066003121D38205603305707EE7F
:103BD000B40103121D38306C167899E6FF54186052
:103BE0000EEF30E407903E1CE020E303121D387511
:103BF0001F04306D11741A121D2A74E0F012C01ED9
:103C0000121DA9600122900402E0900004F09004CB
:103C100002E0604924F8601224C96018242370303F
:103C2000900005740AF0740C80209000057412F066
:103C3000741480169000047408F0A37412F09000BD
:103C400018741CF0A3740AF07420251FF51F800D52
:103C50009000057401F0E4A3F0051F051FE51F1493
:103C6000900000F0AF1F1253E8228F2185132278B5
:103C700095E6F513E52130E0037F8922122C3012FE
:103C8000C00FE4908014F0852123FE7F40FD122CAC
:103C90005A120EED908005E030E7F9E4908006F0CE
:103CA000908017E523F09080167480F0908016E0E5
:103CB000540A60F8908016E030E12D90800BE030DF
:103CC000E1057521EE8007E4FF1244D68F21908034
:103CD00017E0FFC3E5239FFFC3132400F582E434FC
:103CE00010F583E521F080BE908016E020E0F99089
:103CF0004104E020E1F990800BE0900000F090801A
:103D000005E020E12D12647B900001EEF0A3EFF0BE
:103D1000908030E0900007F0908031E0900008F053
:103D2000908032E0900009F0908033E090000AF03B
:103D300080189000017407F0A374FFF07E007F04E8
:103D4000FD7B017A007907120EED900003E508F083
:103D5000A3E509F0900005E50AF0A3E50BF090005B
:103D60000B74AAF0780C7C00122C587E007F401255
:103D70002BB81262588522137F0322205306121D8E
:103D8000C1126462900408E06451701A903E1CE015
:103D900054F7F090040CE06007903E1CE04408F0FB
:103DA000121F4A7F0322C266C263C264C265C26731
:103DB000C25AC25FC260C25EC261C25DC258C25016
:103DC000C270900403E064516008900407E06451FD
:103DD0007045900403E0B45102D264900407E0649B
:103DE000517053D267900400E0B45102D25F900446
:103DF0000EE0B45102D25E90040FE0B45102D260E2
:103E0000900413E0B45104D25D802B900414E0645C
:103E1000517023D258801F900404E0B45104D2663C
:103E20008014900405E0B45104D263800990040624
:103E3000E0B45102D26590040BE0B45102D25A9022
:103E40000409E0B4510DE4903E02F090040AE090C1
:103E50003E03F0305A047F0180027F00909001EF12
:103E6000F0900412E0B45106A2677263926190046C
:103E700015E0B45102D250900416E0B45102D27051
:103E80007F0322900E45E0900074F0900E46E09083
:103E90000075F0900E47E0900076F022903E6CE0C6
:103EA000FCA3E0FDA3E0FEA3E0229044007400F038
:103EB000A37400F02278407C0E7D017B017A0E799C
:103EC000007E007F08120FD5904102E054FEF022E0
:103ED000F0904102E04441F022903E0B74FFF0A3C9
:103EE0007440F0A37482F022851320903105E0F530
:103EF00013903E06E0FEA3E0FFC394FFEE9407227A
:103F0000904102E04451F0227A047900903E0B7413
:103F100001F0A3227881E654EAF6904101E0442AB8
:103F2000F0E054EA22900E45E0900075F0900E46C5
:103F3000E0900076F022A3F0E4903E09F022E493B2
:103F4000903E09F022FF2FFFEE33FEED33FDEC3300
:103F500022E4904104F07880760122904106F0E45A
:103F6000904105F022D253900E44E022903E2074FE
:103F700003F022124F8E903E017401F0904102E056
:103F800030E00312007E7880E6B40118904104E02E
:103F900030E011122CFF7880EFF6BF020712285094
:103FA0007880A6077880E6FF64036004EFB4040518
:103FB00012522D80C77880E6B4050B904101E020B5
:103FC000E4047603801D7880E6FFB4060790410183
:103FD000E030E20BEFB4070B904101E020E40478FD
:103FE0008076047880E6FF30E7071241517880A69A
:103FF00007306F09C26F904107E04401F07880E616
:1040000064017047904107E030E640903E02E0FFD7
:104010006039903E03E0FEC3EF9E903E02F06015D3
:10402000E0541F7007903E01E06401F0904107E00A
:1040300054BFF0800E305A047F0180027F00903E12
:1040400001EFF0903E01E0909001F0904107E020F8
:10405000E40A909017E020E603023F7C1255290203
:104060003F7C0902200001010080320904000002A7
:104070000806500007050102000200070582020041
:1040800002000C121E0422183A286210721C12013F
:104090000110000000408F05809301000102000123
:1040A00004030904180341006C0063006F007200F0
:1040B00020004D006900630072006F0028034D006E
:1040C0006100730073002000530074006F007200E1
:1040D000610067006500200044006500760069000B
:1040E00063006500100336003900390030004600D7
:1040F0003000310047656E65726963205553422078
:10410000466C617368204469736B2020372E373604
:10411000000000000000000000AAAAAAAAAAAAAAF9
:10412000AAEEEEEEEEEEEEEEEEFEFFFFFFFFFFFF7D
:10413000FFFFFFFFFF7FBFDFEFF7FBFDFC7EBFDF71
:10414000EFF7FBFD7E050F0C0001071002020000D7
:1041500000AD07904104E020E1F9ED247FB40F00A9
:10416000400302421690417375F003A4C58325F005
:10417000C583730241A00241A60241AE0241E7029B
:1041800041B60241BD0241C40241CE0241D50241C5
:10419000E00241EE0242160241F902420302420AE3
:1041A000121C567F0522121D3F7626024212121D56
:1041B0003F7620024212121D46763A8055121DBAF1
:1041C0007628804E78957607789676278044121D5B
:1041D0004676048005121D4676FF789776FF803676
:1041E000121D3F7621802B121D3F76248024121D44
:1041F00046760478977601801D121C56121DBA76F9
:1042000029800F121DBA7629800878957603789652
:104210007611E47897F67884E6FCB40207121C560F
:104220007D078017ECB40311904101E04404F0785D
:1042300081E64404F67D0680027D04AF0522122C3F
:104240007E9000027498F0A37401F078A7E6A3F0C2
:1042500008E6A3F008E6A3F008E6A3F0A3744AF08A
:10426000A374E5F0A37412F090900AE090000BF0B4
:10427000A26CE433A3F07898E6A3F0900010744A9F
:10428000F0A3E513F0A251E433A3F0908007E0908F
:104290000013F090900EE0900014F0900020744F06
:1042A000F09000307448F0900040744EF09067FF3A
:1042B000E493900050F090800BE0900100F090901B
:1042C00013E0900101F0A3E519F0908009E090015E
:1042D00003F0908011E0900104F0909012E09001C2
:1042E00005F0908040E0900106F0A37401F0903E4C
:1042F0001CE0900108F09090287401F0E4F0009028
:104300009029E0900110F090902AE0900111F09037
:10431000902BE0900112F090902CE0900113F0129D
:1043200062587F0322909000E030E2037F002290E9
:104330009012E030E0037F0022121605EF7002FFBA
:10434000221218E8E4F513E513C378AC96501DE586
:1043500013122FB9122EF2789FA60608F6E6184619
:10436000600678A1A6138004051380DB90900AE014
:1043700020E707909000E030E411909016E020E5EF
:104380000AE030E20312C0247F0122909016E02060
:10439000E03378ACE62401FFE433FEEF25E0FFEEE6
:1043A00033FE7DFF7B017A3E7980120EED78ACE61C
:1043B00075F002A4FFAEF07DFF7B017A3E79A21278
:1043C0000EED125D25903120E06451602E125B3EAF
:1043D0007F0212235B124C1F909016E054F7F07E80
:1043E000087D007A347900122F6D7F01122FE09042
:1043F0009016E054CFF0E4903E5FF07F012212531C
:104400000D8F1FEF30E7030244D37E007F207D0035
:104410007B017A047900120EED90000FE0F520B4D4
:104420002513900017E05401F52178047C04121D37
:10443000847F04801190001DE05401F52178007CF8
:1044400004121D847F0C120FD5E521701D9004000D
:10445000121C95FFEC4D4E4F700D900404121C95EC
:10446000FFEC4D4E4F60037F84227899E664017023
:1044700033903E1CE0FF5405FEBE010CEF4404F0F7
:10448000903E1DE0700204F0305E19903E1CE0305A
:10449000E012121D8F121BD6900004120E9600001F
:1044A00008008012E520B42511121BD190000412DF
:1044B0000E96000002007F0880167E007F20121BEF
:1044C0008D121BD1900008120E96000002007F2072
:1044D0000253E8AF1F22E519601F90800BE030E126
:1044E000037FEE22908010E0FD90800F7401F09029
:1044F000800FE030E0F9AF0522E490800CF090806E
:104500000BE030E1037FEE2290800DE0F5289080F3
:1045100010E0D378B39640037FEE22908006E054FB
:104520003025E0FDE4FCECC39528507090800CE051
:10453000F9908020E0FE908021E0FBEEF526EBF57F
:104540002794FFE52694034015E5279404E5269477
:1045500004500B74302527F582E434808036C3E59F
:10456000279404E52694045033ED6016C3E52694A1
:10457000024004ED20E622C3E52694025004ED201B
:10458000E517908013E0FEE42527F527EE3526F5A4
:1045900026852782F583E069F00C808A908010E000
:1045A000FF2278AEE66F700302465B78AEA6071274
:1045B000C027EF4E70089090107404F080FE908039
:1045C0000AE054EEF0E4909002F09090057431F01F
:1045D0009090027401F09080147410F0908022F09A
:1045E0009080237405F090801714F090801674C0AA
:1045F000F0908016E020E0F9E4908023F090800AAB
:10460000E0FF903013E05410FEEF4E90800AF078F7
:10461000A2E654C06004E04401F0E4909002F090FF
:104620003192E07004A3E0601D90300CE054709073
:104630009005F0903192E0FEA3E0FF12490F9090B8
:10464000057490F0800A90300CE04401909005F0E1
:104650009090027401F0E4908023F022901000E02A
:1046600064996003024710A3E064076003024710E7
:10467000901003E0FF901002E02F2432FFE4FEFDD3
:10468000EDC39F501074002DF582E43410F583E0E3
:104690002EFE0D80EB74002FF582E43410F583E0DC
:1046A0006E706DD26B306B2390107DE0F4FF901034
:1046B0007CE0B50716E0D394FA4008903E0574FA02
:1046C000F0800890107CE0903E05F090107EE06451
:1046D0003C703DA3E064C37037901081E0640370C8
:1046E0002FFEFD901080E0FFEDC39F501074802DD1
:1046F000F582E43410F583E02EFE0D80E690108004
:10470000E02480F582E43410F583E0B50602D26A35
:10471000228F21121E80121F5E5014851322121E3A
:10472000F8AD217C007B1212C00F8522138003128A
:104730001E18903E19E0900400F0903E1BE090049B
:1047400001F0903E18E0900402F0903E1AE0FB90D9
:104750000403F0A374C0F0A25BE43325E0FE789A72
:10476000E6FD54012E900408F090047EEDF0E6542E
:1047700006FFBF0604E04440F0E521B4020A903E83
:1047800018E0900480F0800AE521B40305900480CD
:10479000EBF0205F0E909000E030E307E49004819E
:1047A000F080069004817401F090048274E5F0A317
:1047B0007412F0205306121DC11262587F0322901A
:1047C0003E057432F0E4789AF60876FF08F6903EDB
:1047D000087480F0C251C26CC26BC26AC264C26704
:1047E000C262C255C266C263C265C26178B376480E
:1047F000C25AC25FC260C250C270C258C25EC25DBD
:10480000C25C903E68120E9600000000903E6C1252
:104810000E9600000000903E70120E960000000000
:10482000903E74120E9600000000903E78120E9694
:1048300000000000903E7C120E9600000000903EAA
:10484000037410F0E4789AF6903E1874C0F0903E2D
:104850001AF0E4903E19F0903E1BF0125957126383
:10486000BF903E5FF09090167438F0222065037F71
:104870008222900013E0641060037F84227A04791E
:1048800000121DC9E4904104F0904104E030E0F9C9
:1048900078847601789AE630E0037F8722E4F52079
:1048A000121F1FE070270520E520B410F3121E80B0
:1048B0007B147D077C0012C00F901080E0B4AA0A20
:1048C000A3E0B45505121E1880357F0322900480A2
:1048D00074AAF0A37455F0900400E0F521E4F520EB
:1048E000121F1FC083C082E0FFE520FDE521121FDB
:1048F00082EF6ED082D083F00520E520B410E17FF6
:10490000071229EDEF6005C25B7F03227F89228EAB
:10491000228F23E4FD79FFFCEC640270030249AFAF
:10492000909003EDF0909004E9F090900B7401F0FA
:1049300090900BE030E0F990900CE0FE90900DE04C
:10494000FBEEF524EBF52590900CE0B52306E4B5DD
:1049500022027C02EC1460250470BDC3E52595237A
:10496000E5249522500DE970047C0180ABE925E037
:10497000F980A5ED25E04401FD7C01809BD3E52570
:104980009523E5249522400FBDFF047C028089ED2C
:1049900025E04401FD80817C02E52565237004E566
:1049A0002465227003024918EDC313FD0249182241
:1049B0002065037F8222900013E0641060037F84EF
:1049C000227A0279007E027F009044007402F0A3F4
:1049D0007400F012646278847601305B037F872272
:1049E000121E80121F5E5061851320121EF87B106C
:1049F0007D077C0012C00F852013900200E0FFE4C9
:104A0000F520E520FDEF121F8274002520121F7291
:104A1000E06EFE74002520F582E43400F583E06E3C
:104A20006011D25B121FAF74A5F0903E11745AF062
:104A30007F87220520E520B410C8E4903E10F09056
:104A40003E11F0789AE654FEF67F0322909016E02D
:104A50004438F078ACE62401FFE433FEEF25E0FFB4
:104A6000EE33FE7DFF7B017A3E7980120EED78AC4D
:104A7000E675F002A4FFAEF07DFF7B017A3E79A2DD
:104A8000120EED903E5F74FFF0E4F513E513C3786A
:104A9000AC96501EE513121E8BE0FEA3E0789FA695
:104AA0000608F6E61846600678A1A61380040513EA
:104AB00080DA125D25125B3E7F0212235B90901616
:104AC000E054F7F0124C1F7E087F007D007B017AD6
:104AD000347900120EED7F01122FE0909016E05411
:104AE000CFF0E4903E5FF022900010E05402F51FFA
:104AF000E47F01FEFDFC7889121BAC70037F8422E9
:104B0000900011E020E107900018E030E73E1264C9
:104B1000E8EF602F900200E06029A3E0900200120D
:104B20001BEC701F900201E0900200121CB2C00248
:104B3000C001121CC2D001D002120FD5900201E0B8
:104B4000FF80327F30121B8B7F308029121B8990AF
:104B500000027401F0A3F09000057414F0A3740136
:104B6000F0E51F25E025E0240A900001F090000AFE
:104B7000E51FF07F141253E87889120E7D000000C3
:104B8000007F032278A1E6F527E527D378AC96507D
:104B90003E122EB5E0F525A3E0F526C394FFE525EA
:104BA00094075027E526AE257803CEC313CE13D83D
:104BB000F9122F563EF583C083C082E0FFE526122E
:104BC0002F5DF4FEEF5ED082D083F0052780BA78A7
:104BD000A1E6F52778ACE6FFE527D39F5040E5270F
:104BE000B50727905DFDE07895F6909006E0FFC34D
:104BF00013905DFDF01259AC78ACE6122EB7EEF0D2
:104C0000A3EFF07895E6905DFDF0122EB5E0FCA3E1
:104C1000E0FDE527122F76125900052780B622788D
:104C2000A1E6F52178ACE6FFE521D39F4003024CD5
:104C3000B9E521122EB7E0FCA3E0F47002ECF470A9
:104C400073E521C39F500BE521122FB9122EF24EAE
:104C50006062122F741261728E228F23C3E5239437
:104C6000FFE522940740211259AC8E228F23122F88
:104C700074AD23AC22125900E521C378AC965028BC
:104C8000122FA2122F2D8020E52178A1667019FD28
:104C9000AF23AE2212C018AD127C00120CA3122F4B
:104CA000A2F583EEF0A3EFF0E521122EB7E522F096
:104CB000A3E523F00521024C24228F2490801AE0E2
:104CC000F930E4155301EF908007E0FCE4F09080A8
:104CD0001AF0908007ECF08005E490801AF0908044
:104CE00005E030E7F9122CA4908005E030E7F99058
:104CF00080007490F0908001EDF000000000000052
:104D0000000000000000E4FC9080047401F090803A
:104D100002E0FDE524FEEC7A002400FFEA3E8F82EB
:104D2000F583EDF090800AE030E01A908003E0FD1A
:104D3000E524FEEC2400FFEA3EFE74082FF582E431
:104D40003EF583EDF00CBC06BF90801AE9F022AB73
:104D500007EB75F00C84FAEB75F00C84ABF0EA709D
:104D60000E90635593C313FE74019313FF800A12D0
:104D70002CABE493FE740193FF7C007D03120C9135
:104D80007D18120CA3EF4401FF903F56EEF0A3EF05
:104D9000F0EBFF7E00903F56E0FCA3E0FD120C918B
:104DA000122CAB7401932FFFE4933EFEEA7C002F9C
:104DB000FFEC3E903F58F0A3EFF0EB906367932A2F
:104DC000F50B903F58E0C394204009E50B75F0C007
:104DD0008485F00B903F59E0F50A903F58E0F509C3
:104DE000227898E630E6047F0080027F80904104BC
:104DF000EFF08513217895E6F5137BA0122C321283
:104E0000C00FE4908014F07402122CEC122BF38586
:104E1000F022F523E5188DF0A425182522F522901F
:104E20008016E020E0F97898E630E6047F00800202
:104E30007F80904104EFF0904104E030E0F9122CC3
:104E4000D29080007485F0908001E523F0E522F097
:104E50009080067484F0908005E030E0F990800046
:104E60007410F0122C96E4908014F08521137F03C7
:104E700022206A037F0322205306121DC11264629E
:104E8000851321121E7A7B117D017C0012C00F85D3
:104E90002113E4F521E52125E0FFE433FE74822FA0
:104EA000F58274023EF583E0FF74002521121F7223
:104EB000EFF00521E521B408DCE4FFF521E52154FC
:104EC000072400121F72E0FE74002521121F23E048
:104ED0006E2FFF0521E521B440E3EF7021900440DF
:104EE000E0789A30E40DE64410F6909016E054FD18
:104EF000F0800BE654EFF6909016E04402F07F034A
:104F0000228F21E521B40209903E19E0D39402508A
:104F10000EE521B4030C903E1BE0D3940240037FC6
:104F20008922205306121DC1126462851322121EAB
:104F30007AAD217C007B1112C00F8522131254C060
:104F4000E52164027024BFB00F903E18E0B4B008B1
:104F5000903E19E004F08005E4903E19F0903E1870
:104F6000EFF0306C26121F4A8021E521B4031CBFEC
:104F7000B00F903E1AE0B4B008903E1BE004F08001
:104F800005E4903E1BF0903E1AEFF07F0322E49080
:104F90004104F0904200E054037013904107E02078
:104FA000E407909017E030E6EA12552980E5904238
:104FB00000E0789830E00476408009768090800A9E
:104FC000E04480F0306C09903FF074D0F012C01EC5
:104FD000E47881F6903E04F090900AE020E7369065
:104FE0009000E020E42F904104E0FF904102E04F68
:104FF00020E013904107E020E407909017E030E6AE
:10500000E512552980E0126447E4909010F09090EA
:1050100016E04401F07880760122C299ED30E61264
:1050200075990D3099FDC29975990A3099FDC2990B
:1050300080087599203099FDC299ED30E01BEF751D
:10504000F00A842430F5993099FDC299EF75F00A81
:1050500084E5F02430F5998032EF54F0C4540FFE0B
:10506000D39409400674372EFE800474302EFE8ED1
:1050700099EF540FFED39409400674372EFE800436
:1050800074302EFE3099FDC2998E993099FDC299E7
:10509000ED30E71075990D3099FDC29975990A3078
:1050A00099FDC29922E4903E21F0A3F0903E21E0C8
:1050B000FCA3E0FDC3EC9402505D904102E054215A
:1050C000600BE054FEF0903E207404805C9041023E
:1050D000E030E007903E207402804E74002DF97499
:1050E000043CFA7B01C002C00178407C0E7D01D0F7
:1050F00001D0027E007F40120FD59041037440F032
:10510000904102E020E1F9903E22E02440F0903E00
:1051100021E03400F08095123F00E4903E20F01230
:1051200061A4EF7008903E2004F07F00227F0122EE
:105130008D20E4FEF521908014E0F522E4F523EFC4
:1051400030E003432310EF5401FDC3EF9DFF908037
:1051500005E030E7F9AA07EAC39520504BEAC3946B
:1051600010EA500625E02410800425E024409080B9
:1051700014F0C3E5209AFFBF01034323209080066B
:10518000E523F0908005E030E0F990800BE05403D7
:10519000600FE4FF1244D6AE07EED3952140028E95
:1051A00021E4F5230A0A80AF908014E522F0AF21B4
:1051B000227899A607EF14604614601524FE601E3D
:1051C00024FC604424F8604C24907060903E688019
:1051D00031306205903E6C8003903E748024903E96
:1051E0006CE0F8A3E0F9A3E0FAA3E0FB903E7412B0
:1051F0003E9FC39BFFEE9AFEED99FDEC98801290C6
:105200003E70123E9FFF801F903E70123E9F123FE5
:1052100045FC8013306706123E9CFF800A903E706A
:10522000123E9F123F45FC788D120E65229080162B
:10523000E020E0F9904104E020E1F97A0079007E75
:10524000007F00123EAA900000120E965553425362
:105250007B007A007985125CA0900004120E717BAD
:10526000007A007989125CA0900008120E71788093
:10527000E6B403047F0080027F0190000CEFF0741D
:105280000D123F5B904104E030E10C904102E030B0
:10529000E0F212007E80ED123EAA123F512212640B
:1052A000A9121E27FBC3120E1550037F8A22903EBF
:1052B0007C121DD7121F2B400A903E1AE0B4B00397
:1052C0007F8922121DD4121F513508FC903E7012A6
:1052D0001E3C121EFF206009903E70121DD7121E48
:1052E0004712C006AB07EB30E7137889120E7D003A
:1052F000000000EB30E0037F01227F0322121DE259
:10530000E50D450C7004788476017F892230702188
:10531000903E18E0B4B01A121C888003121DA2D867
:10532000FBFF7899E67C00B50707ECB506037F859F
:10533000227899E6FF789BE6FE5F6005EFF45E80D9
:1053400033799CE778995660037F8522205F299006
:105350009000E030E310789AE620E71C4480F6786D
:105360009BE644F6800E789AE630E70C547FF67898
:105370009BE644F6F67F86227F0022900010E0F53F
:1053800020A3E0FF1313543FF521E05403F508A3D5
:10539000E0F509A3E0F50BA3E0F50AE52064097048
:1053A0002BE50B6407450A6039121E80121F5E5000
:1053B00014851321121EF87B10AD0BAC0A12C00F1E
:1053C000852113801D7DFF121EE480168513208524
:1053D00021137B10AD0BAC0AAF09AE0812C00F85CC
:1053E00020131262587F03228F22E47F01FEFDFC0E
:1053F0007889121BAC70037F8422AF22E4FCFDFE8F
:10540000121D994031904106E522F0E4904105F0EB
:10541000904104E020E1F97889305602802D120E87
:105420004CC007AF22AB07D007C3EF9BFFEE940041
:10543000121CEF7F0322788CE6904106F0E4904145
:1054400005F0904104E020E1F97889120E7D00001A
:1054500000007F03228513217895E6F513122C3086
:1054600012C00FE4908014F0908005E030E7F9E47A
:10547000908006122BF385F022F523E5188DF0A419
:1054800025182522F522908005E030E0F9126258B7
:10549000126258122CD27405122C76E523F0E52204
:1054A000F090800074E0F09080067404F090800525
:1054B000E030E0F9122C961262588521137F032206
:1054C000900280E0B4FF08A3E0B4FF037FC0229005
:1054D0000480E0F9A3E0FF900280E0FEA3E0FDEF8E
:1054E0006D7040FDEDC39F503D74822DF582E43414
:1054F00004F583E0FC74822DF582E43402F583E048
:10550000FB121FA58002C333D8FC596204121FA5E9
:105510008002C333D8FC5E6203EC6B60037FB02271
:105520000D80C17FB0227FA0229090017401F09085
:10553000801CE0540FFFBF0FF6306D0312C01EE455
:10554000908007F0904107E04420F0000000000048
:105550000000000000306D0312C01E904107E054AF
:10556000DFF0904200E0540360F8904200E030E049
:10557000117898E6B48005E4904100F07898764080
:10558000800478987680E4909001F09080077440D1
:10559000F022AD071261A4EF7006903E2004805106
:1055A000904102E030E506E054FEF080E7904103D0
:1055B000E0540FFFBF0807904102E020E711123EC0
:1055C000C8904101E04401F0903E20740280229096
:1055D0000E03E0B40316900E02E0B5050F900E0125
:1055E000E0B40608900E00E064806009903E2074EC
:1055F00002F07F0022123EB57F012212530DEF70A0
:10560000607899E664017056903E1CE0FE54036495
:1056100001704BEE30E223903E1DE0FEB4010674B3
:1056200002F07F8522EE64027034903E1D7403F018
:10563000903E1CE04402F07F862230600A903E1CBF
:10564000E04402F07F0322903E1DE004F0E0D3949A
:1056500006400BE4F0789BE64401F67F85227F0349
:1056600022228F1AEF75F004A42436F9743F35F026
:10567000FA7B01C002C00178E27C3E7D01D001D0FE
:10568000027E007F04120FD5851A1BE51B602B7567
:10569000F004A4FFAEF02432F9743F3EFA7B01C05F
:1056A0000174362FF9743F3EA801FC7D01D0017EC4
:1056B000007F04120FD5151B80D178367C3F7A3ECF
:1056C00079E27F04122F022212530D8F1FEF20E781
:1056D0005A121B899000037410F09000087402F0B5
:1056E00090000AF0900012F07899E6640170213081
:1056F0005E1E903E1CE030E0179000037408F090AE
:10570000000AF0121D8F900004120E717F0C801899
:10571000788D120E4C900004120E71788D120E4C82
:1057200090000C120E717F140253E8AF1F22126416
:10573000A9121E27FBC3120E1550037F8A22903E2A
:105740007C121DD7121F2B400A903E1AE0B4B00302
:105750007F8922121DD4121F51903E70121E3912E1
:105760001EFF206009903E70121DD7121E4712C006
:1057700003AB07EB30E7137889120E7D00000000C1
:10578000EB30E0037F01227F0322121DE27F89229A
:10579000908007E0F52190800AE0F5221261D31293
:1057A0002C7E90800A7401F0E4F523E523122C8D01
:1057B0007895E6FD7F2E124CBAE52375F010A424EF
:1057C00000F9740035F0A801FC7A2E79007F1012E0
:1057D0002BD90523E523C3940840D0908007E52109
:1057E000F090800AE522F01262587F03227895E655
:1057F000F51312C01578107C5D7A3E79E67F701241
:105800002BD978807C5D7A3F798C7F38122CF6E436
:105810007895F67895E6FFC39407502BEF7F002527
:10582000E0FEEF2400F974503EFA7B01C002C00193
:1058300078007C007D01D001D0027E02122BB812CC
:10584000625878950680CC7F03227895E6FEC3786F
:10585000AC9640037F0322903E02E0FF602490411B
:1058600007E030E624903E03E0FDC3EF9D903E024A
:10587000F0541F700D903E01E06401F0909001F033
:105880008000904107E054BFF0903E02E04440F0B9
:105890008513218E1312C00C852113BF81047F0153
:1058A00080027F0322900010E07004A3E064027085
:1058B00042900011E0FEA3E0FF7038EE70351264F4
:1058C000E8EF602F900204E06029A3E09002041248
:1058D0001BEC701F900205E0900204121CB2C00283
:1058E000C001121CC2D001D002120FD5900205E0F7
:1058F000FF80097E007F40121B8D7F401253E822FB
:105900008C288D2974002FF58274503EF583E5298B
:10591000F0EF30E010E528540FC454F0122ED354A9
:105920000F4DF0800BE528540F122ED354F04DF09C
:10593000E529AE287803CEC313CE13D8F9122F561B
:105940003EF583C083C082E0FFE529122F5DFEEFA4
:105950004ED082D083F022E490800AF07C02126361
:10596000CA908005E030E7F990800074FFF09080E5
:1059700005E030E7F99080007490F0E4A3F0FE9029
:1059800080047401F0908002E0900000F0E0B4FF29
:105990001A0EBE06EAEC5407FEC454F04E90900E68
:1059A000F00CECC3940940B67411F022E4F9905D58
:1059B000FDE0FC905DFEE0FDAF0474002CF582E498
:1059C000345CF583E0F528F46028EDC39408502298
:1059D000ED905B069355287016ED04905DFEF090F7
:1059E0005DFDECF075F008A4FFAEF0EF4DFF220D69
:1059F00080D8E4FD0CEC70C009B902BC122FAE22B5
:105A0000E4903E00F0903E04F07895F608F608F633
:105A1000D26EC26FC254C253C252903E20F0A3F065
:105A2000A3F0C256C257903E10E0B4A50FA3E0B455
:105A30005A0A789AE64401F6D25B8002C25BE4908F
:105A40003E02F0903E1CF0A3F078807601903FF08B
:105A500074FFF022E513C31354FEF524851325903B
:105A60003102E0F513903100E064A0601378A5E600
:105A7000FE08E6FFE5122524FDE433FC7B04801ECE
:105A800075F002E524A42410F582E5F03431F583A5
:105A9000E0FCA3E0FD78A5E6FE08E6FF7B0412C06B
:105AA0000F85251322EF0475F004A4142436F58223
:105AB000F58475833F75853FE0F5F01582E0FC15B0
:105AC00082E0FD1582E0FF1582E00586F01586155F
:105AD000821584E582B436F1E00586F01584E5F0A0
