:020000020000FC
:100000000253C6020B60020B79020BA6020BB80268
:100010000C0D020C98020D2A020D3B020D4E020D32
:1000200061020D6D020D7A020D86020D92020DAB7A
:10003000020DDC020E02020EEA02000002000002C3
:1000400050600211B1023E54024C9D023BC5024574
:100050005002000002400E024BD7023047024EB859
:10006000024823904102E030E505E054FEF0229082
:100070004103E0540FFFBF0807904102E020E7066C
:100080001237FF02078D1237EC900E41E024026018
:100090005214603114B40B00400302078D9000A489
:1000A000F828287302010C02018F02078D02021446
:1000B00002078D02031802033802078D02072F0280
:1000C0000739020778900E40E064217013900E44C7
:1000D000E0700D1238561238071237E112388722B5
:1000E00002078D900E40E064A1701E306104F002A2
:1000F0000786A263E433FFA262E4332FFFA267E422
:10010000332F900E40F002078602078D900E40E0DC
:10011000247F601014601E2402706A905000E090EA
:100120000E408058900E44E07008900E40F0A3F00E
:10013000805602078D900E44E014601E24816008F2
:1001400024FE60282482703A7881E630E0047F0142
:1001500080027F00900E40EF80227881E630E2043A
:100160007F0180027F00900E40EF80107881E630A2
:10017000E4047F0180027F00900E40EFF0E4A3F0E2
:10018000800602078D02078D9041037402F02290D1
:100190000E40E07019900E42E0B4010F905000E064
:1001A00054FDF0904107E054FBF02202078D900EC1
:1001B00040E06402705B900E42E07052900E44E0AA
:1001C0001460202481600824FE602C2482703C7816
:1001D00081E654FEF6904101E04402F0E054FEF066
:1001E0000203147881E654FBF6904101E04408F0E4
:1001F000E054FBF00203147881E654EFF6904101DD
:10020000E04420F0E054EFF002031402078D0207EF
:100210008D02078D900E40E060030202C4900E42F2
:10022000E0640260030202C1900E44E06003020237
:10023000C1A3E070030202C1E0C3940540030202BF
:10024000BE306D0DE0B404097880E64440F612C07B
:1002500024123808904102E0544170F8900E45E0B5
:1002600024FE601214601714601C2403704E904228
:10027000017483F080469042017485F0803E904284
:10028000017407F0803678007C007D017BFF7A37AF
:1002900079937E007F35120EEA306D097880E6444E
:1002A00020F612C024904104E020E1F91237E174F5
:1002B000351238919042017409F080E980FE0207FE
:1002C0008D02078D900E40E064027045900E42E072
:1002D000703C900E44E01460142481600824FE6099
:1002E0001B248270267881E64401F680277881E617
:1002F0004404F6904101E04404F080187881E6441B
:1003000010F6904101E04410F0800902078D0207C9
:100310008D02078D12380822123808904102E054ED
:100320004170F8900E42E0904100F0904107E05497
:10033000FDF0E4905004F022900E43E024FE606350
:1003400014607824FD600A146059240660030206D4
:10035000FF306B1512382A500B7B10120795700670
:10036000C26B8002C26B851F14306B117A0079005A
:1003700012384E1237E49050097404800B12381072
:10038000903705E493905009F090500A7412F09061
:100390000E43E06406600302070290500A740AF0FC
:1003A00002070290500B74FFF0A37436F074E5124C
:1003B000387F90500A7420F0020702306B15123813
:1003C0002A500B7B121207957006C26B8002C26B1B
:1003D000851F14306B0C12384A7404F0A37400F0BB
:1003E0008003123810900E42E0120DDC040B000462
:1003F0001901043202044F03047E0404AC8004FE9D
:1004000082058B8306E986000006FC1238109037BF
:1004100007123878903708805C306B0B9050097465
:1004200016F0900402803D90370912387890370A10
:100430008043306B0F900402E02416905009F09036
:100440000403802090370B12387890370C802630C8
:100450006A1A7A04798012384E7404F07480123863
:100460007F900480E090500AF002070290370D124E
:10047000387890370EE49390500AF0020702900407
:10048000007404F0A314F090500FE0900402F09078
:10049000500EE0900403F012384A7404F0A3740084
:1004A00012388090500A7404F002070212389B241C
:1004B0008E601424FD601724DB601A24187020124B
:1004C00037C812518780117F02125270800A7F0252
:1004D000123EED80031221E9905020EFF0800912C6
:1004E0004099C2531238A222C253905020E0B40364
:1004F000030240991240999050207405F02212385E
:100500009B248D605024F0604324ED605E24FB60EA
:100510004C24A3606724FE605A24D060030206BE08
:10052000900E47E030E1127E027F007D007B017A71
:10053000047900120E0202063B900E45E090502412
:10054000F0900E46E0905023F002068F1237C8124A
:100550004F5F0206B77F02124D170206B7900E4595
:10056000E0900401F0124F280206B7E4FF122BB905
:100570000206B7123867124C5F0206B79000747417
:1005800051F01238671251AA0206B7123842E490AD
:100590005021F0A3F0C3905021E0940250447F8496
:1005A000124624EF603C900E45E0FF905021E0FCA5
:1005B000A3E0FD2400F58274043CF583EFF0900E77
:1005C00044E0FF74012DF58274043CF583EFF012D2
:1005D000528E905022E02402F0905021E03400F03E
:1005E00080B3C3905021E0940250030207947F85AA
:1005F000124624EF7003020794124099EF70030231
:1006000007947F81124624EF700302079412389BEF
:10061000248F700302069C24FD70030206A324F3BA
:10062000607224E870030206AA24FC70030206B478
:1006300024A8607B24CB60030206BE900E45E054E4
:1006400007F508A3E0F509905024E0F50A9050233F
:10065000E0F50BE4F50C900E45E054F0F50DE030BC
:10066000E31990506C12381F250BF50BEE350AF587
:100670000AED3509F509EC3508F508E50D70037547
:100680000D019050207480F012C006EF30E7341254
:1006900038A2802F1237C8125160801B7F02124C83
:1006A000DA80147F02123F81800D122A82800812A4
:1006B00039898003123DB8905020EFF08005123840
:1006C000A28012905020E0B403047F0080027F05D6
:1006D000905020EFF0C253123842125031EF6003B5
:1006E00002079490502004F022905020E0900E4099
:1006F000F0E4905020F090410304F02202078D02B4
:10070000078D900E47E07015900E46E0FF90500A5E
:10071000E0D39F4008900E46E090500AF090500AB7
:10072000E0700412384222900E43E0FF022E1E9029
:100730005004E0900E40F0804D123856F0900E427A
:10074000E0B4011A9050047401F0904107E04402B3
:10075000123807E4909001F090900704F022900E78
:1007600042E07012905004F0904107E054FD1238BE
:100770000790900180138015900E44E07006900E53
:1007800040F0800280079041037401F02290410103
:10079000E04401F0227D017C0012C00FEF4E22E404
:1007A000F51F900011E0600A900010E020E0037F48
:1007B0008322900010E05401900401F0900011E0B9
:1007C000900400F02056432057407888E6600A796C
:1007D00087E77886461846601E7F457E407D357CDB
:1007E0007478851216CF600F7F427E497D4F7C530F
:1007F00078851216CF7002D2567885E6600C79881B
:10080000E778874618467002D25730674220583F33
:10081000205703305639205D36206115A262E4333B
:100820002401FFE433FE7883E6FDB5070AE4B5064C
:1008300006789976018011ED14FF7402A8070880EC
:1008400002C333D8FC7899F67899E6FF12447330E6
:100850006B1885141E1217FE7B107D017C0012C0E0
:100860000FEF4E7002C26B851E147899E6FFB4013B
:10087000271218767452F0A374E5F0206B03020976
:1008800016900120E064AA60030209167B017A0138
:10089000792290500B048059306B61900002E07C0B
:1008A000002416F9EC3400FAA3E029F9EC3AFA90A6
:1008B000500B7401F0A3EAF0A3E9F0EF5414601BAD
:1008C000900140E0B4AA147A01794290500B74016F
:1008D000F0A37401F0A37442F0803B7899E6B40869
:1008E00035900120E0B4AA2E7A01792290500B7441
:1008F00001F0A37401F0A37422F0801A90370FE482
:1009000093905009F07E002405F9EE3437FA12185E
:1009100076EAF0A3E9F0E4900000F07899E664014B
:1009200070372060237888E66405701C18E6B48F61
:100930001718E6B4931218E6B4840DE4F0A3F0900F
:10094000501CE054FEF080119000007405F0A37478
:1009500080F090501CE04401F0900401E07003022C
:100960000AAE900400E0900001F0900400E02480C2
:10097000602224FD7003020A3924836003020AAB5B
:10098000E490000212173E7480F0A37483F0751F88
:1009900007020B5AE4900002F0306A227B017A00D1
:1009A000798090500B04F0A37400F0A37480F0E4FD
:1009B000905009F0900080E090500AF0801C1218CE
:1009C000767437F0A37405F090370DE493905009D6
:1009D000F090370EE49390500AF090500AE09000A7
:1009E00003F0E4FF90500AE0FEEFC39E5029121876
:1009F0007E905009E0FD7C00E92DF9EC3AFAEF29F0
:100A0000F9EC3AFA120B60FD74032FF582E434001E
:100A1000F583EDF00F80CD900003E030E010E004AE
:100A2000F074032EF582E43400F5837420F0900016
:100A300003E02404F51F020B5AE4900002F0A374B3
:100A400032F074F2121741F0A37405F0A37430F081
:100A5000A37435F0A37438F0A37446F0A37420F0A7
:100A6000A374F2F074011217F7740D121785742035
:100A7000F0A3F0A312178574F1F074021217F77443
:100A8000081218BB12174112188AE4A3F0A374F1DC
:100A900012173E7408F0A37420F0E4A31218BBA34D
:100AA000F0A312188A751F36020B5A7F832290001A
:100AB000017480F0A37404F0A37402F0A3741FF017
:100AC000E4A3F0A3F0A3F0F51E12187E851E827534
:100AD0008300120B79FF7408251EF582E43400F5BB
:100AE00083EFF0051EE51EB420DF306B6A3055033E
:100AF000205603306605E4900001F0751E017899D8
:100B0000E6FFB401089000237430F08038306608A6
:100B10009000237435F0802D3065089000237436E2
:100B2000F080223064089000237437F0801730631F
:100B300011EF900023B408057439F080087438F080
:100B40008003E4F51EE51E600E9000207438F0A3CB
:100B5000742EF0A37430F0751F24AF1F1249322297
:100B6000BB010689828A83E0225002E722BBFE0293
:100B7000E32289828A83E49322BB010CE58229F572
:100B800082E5833AF583E0225006E92582F8E622E1
:100B9000BBFE06E92582F8E222E58229F582E5839B
:100BA0003AF583E49322EF8DF0A4A8F0CF8CF0A463
:100BB00028CE8DF0A42EFE22BC000BBE0029EF8DA6
:100BC000F084FFADF022E4CCF875F008EF2FFFEED3
:100BD00033FEEC33FCEE9DEC984005FCEE9DFE0FE1
:100BE000D5F0E9E4CEFD22EDF8F5F0EE8420D21C3C
:100BF000FEADF075F008EF2FFFED33FD4007985084
:100C000006D5F0F222C398FD0FD5F0EA22E88FF066
:100C1000A4CC8BF0A42CFCE98EF0A42CFC8AF0ED83
:100C2000A42CFCEA8EF0A4CDA8F08BF0A42DCC3837
:100C300025F0FDE98FF0A42CCD35F0FCEB8EF0A46F
:100C4000FEA9F0EB8FF0A4CFC5F02ECD39FEE43C29
:100C5000FCEAA42DCE35F0FDE43CFC2275F00875CD
:100C60008200EF2FFFEE33FECD33CDCC33CCC582E7
:100C700033C5829BED9AEC99E58298400CF582EEA3
:100C80009BFEED9AFDEC99FC0FD5F0D6E4CEFBE48B
:100C9000CDFAE4CCF9A88222B800C1B90059BA0053
:100CA0002DEC8BF084CFCECDFCE5F0CBF97818EFAE
:100CB0002FFFEE33FEED33FDEC33FCEB33FB10D7AF
:100CC00003994004EB99FB0FD8E5E4F9FA22781870
:100CD000EF2FFFEE33FEED33FDEC33FCC933C910CB
:100CE000D7059BE99A4007EC9BFCE99AF90FD8E0FD
:100CF000E4C9FAE4CCFB2275F010EF2FFFEE33FECF
:100D0000ED33FDCC33CCC833C810D7079BEC9AE841
:100D100099400AED9BFDEC9AFCE899F80FD5F0DAC2
:100D2000E4CDFBE4CCFAE4C8F922EB9FF5F0EA9EAF
:100D300042F0E99D42F0E89C45F022E8600FECC3E8
:100D400013FCED13FDEE13FEEF13FFD8F122E86064
:100D50000FEFC333FFEE33FEED33FDEC33FCD8F180
:100D600022E6FC08E6FD08E6FE08E6FF22E6FB08B0
:100D7000E6F908E6FA08E6CBF822ECF608EDF60804
:100D8000EEF608EFF622ECF0A3EDF0A3EEF0A3EF01
:100D9000F022D083D082E493F608740193F60874AD
:100DA0000293F608740393F6740473A8828583F0A3
:100DB000D083D082120DC2120DC2120DC2120DC20A
:100DC000E473E493A3C583C5F0C583C8C582C8F0A6
:100DD000A3C583C5F0C583C8C582C822D083D0828D
:100DE000F8E4937012740193700DA3A393F8740147
:100DF00093F5828883E4737402936860EFA3A3A3DE
:100E000080DFEF4E6012EF60010EEDBB010B8982B7
:100E10008A83F0A3DFFCDEFA2289F05007F709DFAE
:100E2000FCA9F022BBFEFCF309DFFCA9F022E709D4
:100E3000F608DFFA8046E709F208DFFA803E88828A
:100E40008C83E709F0A3DFFA8032E309F608DFFAC2
:100E5000806EE309F208DFFA806688828C83E309FA
:100E6000F0A3DFFA805A89828A83E0A3F608DFFACA
:100E7000804E89828A83E0A3F208DFFA804280D222
:100E800080FA80C680D4805580F28029801080A6A8
:100E900080EA809A80A880DA80E280CA80298884EB
:100EA0008C8589828A83E493A30586F0A30586DF77
:100EB000F5DEF3800B89828A83E493A3F608DFF9D9
:100EC000ECFAA9F0EDFB2288848C8589828A83E084
:100ED000A30586F0A30586DFF6DEF480E389828A27
:100EE00083E493A3F208DFF980D688F0EF60010E67
:100EF0004E60CD88F0ED2402B4040050C3F582EBBF
:100F00002402B4040050B92323458223900E7E733B
:100F1000909001E0700302115578B176209090070F
:100F20007401F0909001E024FE7003020FB824F7E2
:100F30007003021075240224FC4003020FDB7003CF
:100F400002106D1470030210181470030210CC24E8
:100F50000E600302114C12521D904102E030E7F97D
:100F6000904102E030E0F9E4F512E512904ABB93BB
:100F7000FF74002512F582E4340EF583E06F600300
:100F800002114EE5120475F011A4FF74402512F50C
:100F900082E4340EF583EFF00512E512B408CBE4D9
:100FA000904102F0A37408F0904102E020E1F99032
:100FB00090017401F002114C12521D904107E03073
:100FC000E4F990801CE0540FFFBF0FF6E490800717
:100FD000F0904107E04420F002114CAF0BAE0AAD97
:100FE00009AC08C006C007AE0CAF0DAB07AA06E4FB
:100FF000F9F8D007D006120C988F0B8E0A8D098C49
:1010000008AF0BAE0AAD09AC08780A120D3B8F0B86
:101010008E0A8D098C0880FEE4909002F090900575
:101020007430F09090027401F000000000E412525D
:101030001290800B7404F01211AA9080147410F0B6
:101040007F0112532C9080157455F074AAF078002B
:101050007CA07D017B017A1079007E047F00120E56
:10106000EA9080157477F002C00002114C90800B5A
:101070007408F08005E490800BF074101252121284
:1010800011AAE4F51412119E6005E4FF123BC50598
:1010900014E514C3940240ED90800A7411F090801E
:1010A0000774FFF075150212538E75120212523238
:1010B0001252C990800774C0F012119E60047F0024
:1010C00080027F01909001EFF002114C125210E467
:1010D000F5151252C97F0212532C90800A7413F036
:1010E00090800774C0F012534112538E9080407468
:1010F00001F012535590803074AAF075120112520B
:10110000321252C99080147404F0125355E4908046
:1011100030F07F0112532C12534112521012538E91
:101120009080147404F0E4908040F0751202125222
:101130003290800BE0540360047F0080027F0190B6
:101140009001EFF090900AE0908000F080FEE49033
:101150009001F080FE759852758921758DFFD28EB1
:10116000E4F58CF58AD28C4387807898F67599558A
:1011700090900174FFF01238A990900AE020E707E0
:10118000909000E030E408E4905014F01251EE909A
:101190009016E04401F0E490900FF00235FA7F01E0
:1011A00012532C90800BE0540322E4F5151252C91F
:1011B000227E057F007A347900123B987E007F8082
:1011C0007D007B017A397980120E02E5145407F50F
:1011D00009E5141313543EF5087895A614905302AC
:1011E000E0F514E4908040F0905300E064A06012B9
:1011F00078A4E6FE08E6FFAD08E5122DFDE433FC19
:10120000801DAF0875F002EFA42410F582E5F034DC
:1012100053F583E0FCA3E0FD78A4E6FE08E6FF7B3F
:101220000412C00FA259E433908040F07895E6F59F
:1012300014AF09EF75F080A42400F9741035F0FAAA
:101240007B01C002C00178007C397D01D001D00251
:101250007E007F80120EEAE4F515123B33123B68E4
:1012600074FFF0A3F0123B33123B7274FFF0A3F053
:10127000123B33123BB174FFF0A3F00515E515B432
:1012800004D8E4F515F50AF50BC3E50B78A296E54D
:101290000A189640030213DB123B85CEC313CE130C
:1012A000D8F9123B47123B155E60030213D07B4016
:1012B000E4FDFCAF0BAE0A12C00F9039A8123B7CC4
:1012C000E0A330E71D123B85CEC313CE13D8F9122D
:1012D0003B47C083C082123B154ED082D083F002C0
:1012E00013D0C39039A9E094FF9039A8E09403404B
:1012F000030213D0E0FEA3E0FF124C9D9039AAEE4A
:10130000F0A3EFF09039AAE0B40311A3E0B4FF0C0E
:101310009039A8123BBB123E540213D0E515C3947A
:101320000440030213C79039AAE0FEA3E0FF12C0F5
:10133000189039ACEEF0A3EFF09039ACE0650E7088
:1013400004A3E0650F702D123B33123B72E50AF0E7
:10135000A3E50BF0123B2B123B68EEF0A3EFF0AFCE
:101360000BAE0A12C0189039AC123B7C123BBB1278
:101370003E548032123B2B123B72EEF0A3EFF01280
:101380003B33123B68E50AF0A3E50BF0123B85CE38
:10139000C313CE13D8F9123B47C083C082123B154A
:1013A0004ED082D083F09039AC123B2E2480F5824F
:1013B000E43439F583123B7C123B2E123BB1EEF044
:1013C000A3EFF0051580097D01AF0BAE0A12C01224
:1013D000050BE50B7002050A02128978A17FFE1247
:1013E000143DC3E50B789E96E50A18965024123BEF
:1013F00085CEC313CE13D8F9123B47C083C08212E7
:101400003B154ED082D083F0050BE50B70D4050A56
:1014100080D0905302E0B5140778A47FFD12143DEC
:101420007E007F087A3979B8123B987E027F007D72
:10143000007B017A3A7900120E027F0122E6FC0855
:10144000E6FD7E03123E5422E4F520F520122039F9
:10145000E4F521F522C3E522789E96E52118964011
:101460000302164D7B40E4FDFCAF22AE2112C00FFB
:10147000EF64FC7003EE64036003021642905006B2
:10148000E521F0A3E522F0121F3F7B14E4FDFC12DE
:10149000C00FEF4E700302164D90100EE064906086
:1014A0000302164DA3E064CA600302164D90100AB1
:1014B000121F2D122012901011121F2D90506C121D
:1014C0000D86901016121F2D905070120D869010E0
:1014D0001B121F2D905078120D86901021121F2D77
:1014E00090507C120D86901026121F2D12201890FD
:1014F0001030E024FF925F901034E024FF9264905B
:101500001036E024FF9255901038E024FF9266A335
:10151000E024FF9263A3E024FF9265A3E024FF92FE
:101520006790103FE024FF925AA3E024FF9260A34B
:10153000E024FF925CA3E0905003F0901043E0247D
:10154000FF925EA3E024FF9261A3E024FF925DA3DB
:10155000E024FF9258A3E024FF9250A3E024FF92DE
:1015600070305A047F0180027F00909001EFF0906C
:10157000102EE0789A46F6909016E030E104E6549A
:10158000EFF6121EA2FF90506C121F0FFBD3120D2C
:101590002A400A90506C120DAB0000000090506C75
:1015A000121EA5FFEC4D4E4F6002D262305F0990D3
:1015B0009000E030E302C267E4F520E520C378AB99
:1015C00096502175F002E520A42400F582E5F03460
:1015D00011F583E0FEA3E0FF121F8AEEF0A3EFF007
:1015E000052080D7121F3F7D011216A2700302163C
:1015F0009D123A60121F3F7D021216A2700302165E
:101600009D901080E0B4FF09A3E0B4FF047FC08088
:10161000027FB0905018EFF0121F3F7B147D037CC7
:101620000012C00FEF4E6075901080E0B4FF09A368
:10163000E0B4FF047FC080027FB090501AEFF07FCB
:1016400001220522E5227002052102145590500660
:101650007403F0A374FFF0E4F52078ABE6FFE52017
:10166000C39F5013789FE6FC08E6FD121F8AECF03A
:10167000A3EDF0052080E37E00789FE6FC08E6FD00
:10168000120BA68E218F22AB07AA06E4F9F8AE0E44
:10169000AF0FFCFD120C0D122012122018D25B7F2E
:1016A00000227B147C0012C00FEF4E227F147E00BC
:1016B0007D007B017A007900020E02E50D250BFF0B
:1016C000E50C350AFEE43509FDE43508FC788D1299
:1016D0000D6DC3020D2A90506CE0F8A3E0F9A3E071
:1016E000FAA3E0FB905074E0FCA3E0FDA3E0FEA3AE
:1016F000E022788D120D61EF24FFFFEE34FFFEED46
:1017000034FFFDEC34FFFC900000020D8690801742
:10171000E0250DF50DE4350CF50CFE7809AF0DE470
:10172000FCFD120D4E788922AF0BAE0AAD09AC0854
:101730007802120D4E8F0B8E0A8D098C0822F074E0
:1017400003A3F0E4A3F0A322FFE02FFFE433FE7431
:10175000002FF58274023EF583E064AA22C2547A17
:101760000079007E007F009044007400F0A37400B4
:10177000F0E4904104F022904101E04410F07881BF
:10178000E64410F622F0A37441F0A3744CF0A37465
:1017900043F0A3744FF0A37452F0A3227400251FEA
:1017A000F582E43402F583E022250BF50BEE350AD1
:1017B000F50AED3509F509EC3508F50822A25CE4D7
:1017C00033FF74047E00A8070822E0FCA3E0FDA319
:1017D000E0FEA3E022AE0CAF0DE4FCFDFB7A02F9C3
:1017E000F8120C0D788922FF7E00E07C002400F9BD
:1017F000EC3403FA7B0122A3F0E4A3F0A32290537C
:1018000005E0F514905006E0FEA3E0FF22FEED9403
:1018100000FDEC9400FC7889020D7AFFE02FFFE4D4
:1018200033FE74002FF5827403227401251FF582A4
:10183000E43402F583E024022278007C007D01225A
:10184000C39BFFEE9AFEED99FDEC98FC22900002FE
:101850007480F022789576057896227895760278CD
:101860009622F0E4904105F0788922AB0BAA0AA9F0
:1018700009A808020D2A90500B74FFF0A322905083
:101880000BE0FBA3E0FAA3E0F9227405F0A37408CF
:10189000F0A3740FF0227D017B017A0079117E00A4
:1018A00022788D120D617802020D3B7889120D6D40
:1018B000D3020D2ACEA2E713CE1322F0A37449F06F
:1018C000A37445F02278957606789622900012E06F
:1018D0007895F6A3E0F508A3E0F509900015E0F58A
:1018E0000AA3E0F50B7889120D9200000000900029
:1018F00010E0120DDC194700194A0119520219654E
:101900000319680419D405196B06196E07197708AD
:10191000197109197A0A197D0B19800C19920E1A7E
:101920004E1019951119981219AF131A8A1B1A9C87
:101930001C1AB21D1ACC1E19CE2819D12A19C5801D
:1019400019CB8100001AE50241A4900011E0FF02CA
:10195000341F900017E0FEA3E0FF12C02190001199
:10196000E0FF024DCE02525202498702431A02435F
:1019700090124FCB7F03220252AC02293B02513915
:101980007895E6FF5470FEEF54074E90900EF07F6E
:101990000322024223024E441253D27895E6780085
:1019A000FC7A0079007E027F00121FB27F0322784A
:1019B00095E6FA79007B01C002C001121FFCD0013C
:1019C000D002021A93121ECD024C5F02537C024ECB
:1019D00009024B087E027F007D007B017A007900BE
:1019E000120E029000007460F0A37404F0900003E3
:1019F00004F0E4F51FAF1F124AC3E51F75F004A4FD
:101A0000AEF02410F50DE43EF50CFE7400250DF546
:101A10008274003EF583E51FF07401250DF5827494
:101A2000003EF583E509F07402250DF58274003E51
:101A3000F583E50AF07403250DF58274003EF58305
:101A4000E50BF0051FE51FC3946040A9805E900080
:101A500011E0F51FAF1F151FEF602CAE08AF09E4B2
:101A60002FFFE43EFAA9077BFFC002C001121FFC52
:101A7000D001D0027E027F00120EEA121F1A12510C
:101A8000120508050880CD7F0322121FFC7B017A16
:101A90005279007E027F00120EEA8010121FFC7B3A
:101AA000007A0079007E017F00120EEA1251127F47
:101AB0000322900011E0600AD2599080407401F036
:101AC0008007C259E4908040F07F0322900011E02B
:101AD00090800A6006E04402F08004E054FDF012B9
:101AE00048DB7F03227F832212321F44019090053E
:101AF000123210905212E0F51390800AE0FF9052DB
:101B000013E0FEEF4E90800AF09053F0E0F50EA344
:101B1000E0F50F9053F2E078ABF69053F4E0F51057
:101B2000A3E0F5119053F6E078ACF69053F8E0F5A9
:101B3000129053FA1231579053FC789F12315990FA
:101B400053FE1231C9905391E0909009F090539454
:101B5000E060031232031231D478827614E4F52265
:101B60007882E6FF2400F582E43452F583E0640CC9
:101B70006003021C9574012FF582E43452F583E072
:101B8000FEC4540F1231ED74022FF582E43452F585
:101B900083E07880F67882E62403F582E43452F517
:101BA00083E07881F6908005E030E7F9E4F520E500
:101BB00020C3788096502AAF207401A807088002BD
:101BC000C333D8FCF52178815678826009123186BA
:101BD000908000F08007123186908001F00520800F
:101BE000CE7882E62401F582E43452F583E0540F86
:101BF0007880F6E630E0037F0022E4F520E520C39C
:101C00007880964003021C8CE520540725E02410C0
:101C1000908014F0908005E030E7F9E4908006F0C1
:101C2000908005E030E0F990800BE05403600CE018
:101C300030E1037F0022E4FF123BC5908005E030D5
:101C4000E10A90800AE020E1037F002205200520C0
:101C5000E5205407F5216007E520788066709EE551
:101C6000217003752108E5217F0025E0FEC006C034
:101C700007E522123199A807FC1231B6D007D00629
:101C8000120EEAE5212522F522021BFD7882740C52
:101C900026F6021B60E5227F0025E0FEEF24FEF51C
:101CA00082749F3EF583E0B4550FEF24FFF58274F4
:101CB0009F3EF583E064AA60037F00221232297FF1
:101CC00001228F222052062053037F0122905305C8
:101CD000E06514600E30510312C0091220397F01F3
:101CE00012C01520510E78A1E6FE08E6FF7D011214
:101CF000C012D2517FFC7E03124C9D8E0A8F0BE5E1
:101D00000BB4FF16E50AB403117E107F007DFF7B44
:101D1000017A107900120E028021E47891F6789110
:101D2000E6C394085015E6FD7C00E62404FBAF0BE7
:101D3000AE0A12C00F7891060680E3E522B4FF09CF
:101D40007508037509FF021E631250608E088F0923
:101D5000BEFF06BFFF037F0022E5227F0025E0FED5
:101D6000EF2400F974103EA801FC7D017B017A0488
:101D700079007E02120EEAE47891F67891E6C39437
:101D8000084003021E632052062053037F0122787D
:101D900091E68512F084E5F07011E6FD7C007BA0F1
:101DA000AF09AE0812C00FE47892F67FFC7E0312F2
:101DB000C0219053EEE030E33D7892E6904A8B9359
:101DC000FF9053EFE05F70030680EE7892E6FFE548
:101DD000178FF0A408A6F008F67892E6FFE5188FB2
:101DE000F0A40826F69080007485F008E690800143
:101DF000F018E6F018067891E625E024109080149B
:101E0000F090800674E0F0908005E030E0F9789181
:101E1000E624028512F084E5F06007E62402540708
:101E2000703A9080007410F0908005E030E7F9E59A
:101E30001320E5289080007470F09080047401F005
:101E4000908003E0FF908002E04F30E00F7BC1E420
:101E5000FDFCAF09AE0812C00F021D4978910606BD
:101E6000021D7BC3E50B94FFE50A940350097D0135
:101E7000AF0BAE0A12C012AD09AC087FFC7E031294
:101E80003E54905006E508F0A3E509F07F01227A60
:101E90000479007E047F009044007404F0A3740071
:101EA000F022905074E0FCA3E0FDA3E0FEA3E0224A
:101EB000908017E0250DF50DE4350CF50CFEAF0D07
:101EC000E4FCFD7809120D4E7889020D7A9000101D
:101ED000E0900074F0900011E0900075F090001216
:101EE000E0900076F022250BF50BEE350AF50AEDB1
:101EF0003509F509EC3508F50822E50D250BFFE558
:101F00000C350AFEE43509FDE49050783508FCE014
:101F1000F8A3E0F9A3E0FAA3E0227A0079007E00BA
:101F20007F009044007400F0A37400F022E0FCA352
:101F3000E0FDA3E0FEA3E0FF22905305E0F514903E
:101F40005006E0FEA3E0FF227D007E027F007B01C1
:101F50007A047900020E02E50D250BFFE50C350A27
:101F6000FEE43509FDE43508FC22F0A261E433A368
:101F7000F0A25DE433A3F0A258E433A3F0A250E44E
:101F800033A3F0A270E433A3F022E52025E024007F
:101F9000F582E43451F58322F0A266E433A3F0A283
:101FA00063E433A3F0A265E433A3F0A267E433A3B0
:101FB000F0227D017B01020EEA2FF50BEA3EF50AC5
:101FC000E93DF509E83CF5082275F002EFA424008C
:101FD000F582E5F03405F58322FFAB0BAA0AA909C7
:101FE000A808C3020D2A788D120D6DC3020D2A2593
:101FF0000BFFEE350AFEED3509FDEC2278007C0082
:102000007D01229000747451F0A322789BE644F67F
:10201000F622905068020D86905074020D8604F0EE
:10202000A264E433A3F0A322905018E064B022ED40
:102030005407FA7401A8020822905305E0F514220F
:102040001253017899E66401702E90501CE030E044
:1020500027AE0CAF0DE4FCFD780B120D4E78891203
:1020600016CF7014121728E50DAE0C7802C333CECC
:1020700033CED8F9F50D8E0C1217D51216CF60039A
:102080007F84221244E28F1EEF30E70122788D1206
:102090000D61D312186B40093056030221847F8AE8
:1020A000221216BB50037F8A22124E7E306930C244
:1020B00069D268905015E0FEB40115905016E0B456
:1020C000010E905017E0B40107789C76FF7F8622BE
:1020D000905017EEF09050157401F0905016F020CB
:1020E00064047F0180027F00905018E0B4B0047E49
:1020F0000180027E00EE5F70030221A31217BD80F3
:10210000031218B4D8FBFF7899E66F7001EE6003F4
:102110000221A37889120D9200000000E4FFFEFD69
:10212000FCC312186B705D7899E6B4040B90506C88
:102130001216E7F50B12173790501EE50CF0A3E5C9
:102140000DF0750C00750D0112C0038F1EE51E30D9
:10215000E71890501EE07004A3E06401700FE51EC4
:1021600030E0047F0180027F03227F892290801665
:10217000E020E0F990501FE024FFF50D90501EE0A4
:1021800034FFF50C7E0C7F007DFF1216B2E50D4585
:102190000C600D125112E50D150D70F1150C80ED4E
:1021A0007F0322124FFE12C0038F1EE51E30E72D63
:1021B00030E01C904102E030E003120063904104E3
:1021C000E020E1EF30540312175D751E01800375A6
:1021D0001E037889120D9200000000800912170D6D
:1021E000120D7A751E89AF1E22121F489050681278
:1021F0001EA5FF900400120D8690040474CAF0A37B
:102200007409F0A374A1F07B017A50796C124BD75A
:10221000900407120D8690040B74A2F07B017A5093
:102220007978124BD790040C120D8690041074A389
:10223000F0E4A3F0A26C33A3F0A374A4F07B017AC2
:1022400050797C124BD7900414120D8690041974A7
:10225000A5F07B017A507970124BD790041A120DB9
:102260008690041F7401F0A374A6F0A25FE433A368
:10227000F090042374A7F090042612201E74A9F095
:1022800090042B04F0A26DE433A3F090900AE09048
:10229000042DF090042F74AB121F98A25CE43390CD
:1022A0000436F0A25AE433A3F0905003E0900438CF
:1022B000121F6A7B017A507974124BD79005001275
:1022C0000D8690050474B0F0905019E0900505F06B
:1022D00090501BE0900506F0905018E0900507F034
:1022E00090501AE0900508F0A374C0F0789AE6A325
:1022F000F0A374B1F090051004F0789FE6A3F00805
:10230000E6A3F0A374B3F0A26CE433A3F0905008FA
:10231000E0900515F0A374B4F0789BE6FFA3F07885
:102320009CE6FEA3F0A374B5F090052404F0A3EF9F
:10233000F0A3EEF090053074B7F0909000E09005B7
:1023400031F090053574B8F090054004F0905302D8
:10235000E0900541F078A4E6A3F008E6A3F09053DE
:1023600005E0900544F0905006E0900545F090504F
:1023700007E0900546F078F07C057A5379F07E000E
:102380007F10121FB2205306121E8F1251127F03AC
:102390002290000FE0FF7889120D6DE8494A4B60EA
:1023A0001290000CE0648060047E0380027E028E46
:1023B0001D8003751D017884A61DEF120DDC24AB72
:1023C0000024910324FC04242C1224FC15244E1A0E
:1023D000249E1B24B81E247023248125240A28242B
:1023E0001B2A243D2F24C54324D24524D94624E06A
:1023F0005124E752245F5A24819E24F5A224FCA391
:1024000024FCBB24EEBD00002501E51D6402600331
:102410000225091220408F1C022506E51D64036079
:1024200003022509122F488F1C022506E51D6402B0
:10243000600302250912079F8F1C022506E51D6413
:1024400001600302250912539E8F1C022506E51D1B
:102450006402600302250912323A8F1C022506E548
:102460001D64026003022509122CEE8F1C02250652
:10247000E51D640260030225091241248F1C022518
:1024800006E51D6402600302250912332D8F1C80AE
:1024900075E51D64027072124EF08F1C8068E51D98
:1024A00064017065124D918F1C805BE51D640170A5
:1024B000581246F48F1C804EE51D6401704B125378
:1024C000B98F1C8041E51D6402703E123C6F8F1C69
:1024D00080341253F38F1C802D1253AC8F1C802636
:1024E000124B4D8F1C801F124B928F1C8018124D67
:1024F000548F1C80111250BA8F1C800A751C0380E7
:102500000512250C8F1CAF1C227F8222D252900014
:1025100019E0B45106A3E0900010F090000FE01213
:102520000DDC266610266D1125C312261E7126228B
:1025300072262673262A74262E7526397626427729
:10254000264B7826547B265D7C25FE812609822633
:10255000148325F49625A39725D49925DC9A25E4A0
:102560009B25BB9C25EC9D25CCF52583F6258BF77B
:1025700025ABF82593F92674FA259BFB25B6FF00B9
:1025800000267B1247C18F1E02267E1244048F1E36
:1025900002267E124F968F1E02267E1250E78F1E55
:1025A00002267E1253DD8F1E02267E121ECD125190
:1025B000AA8F1E02267E125317800B1249D98F1E36
:1025C00002267E1251CC751E0302267E1239898F97
:1025D0001E02267E122A828F1E02267E1221E98F7B
:1025E0001E02267E124F288F1E02267E123DB88FB5
:1025F0001E02267E7F01122BB98F1E02267E121E1E
:10260000CD1251608F1E02267E121ECD1251878F71
:102610001E02267E121ECD124F5F8F1E80607F022B
:1026200080197F02801E7F0280237F0280289050C5
:102630001CE04402F07F0280267F03124CDA8F1EDA
:10264000803C7F031252708F1E80337F03124D1720
:102650008F1E802A7F03123F818F1E80217F0312ED
:102660003EED8F1E80181253F08F1E80111253ED15
:102670008F1E800A1218CC8F1E8003751E82C252D4
:10268000AF1E22C26D12508D90800AE05480F0C2BD
:1026900059E4908040F07892F67892E61231EDE4B9
:1026A0007894F6E47893F6C37402789396333333D0
:1026B00054F890800BF0908005E030E7F912321862
:1026C0007894E6FF124AC3908005E030E7F9E49081
:1026D0008000F0908001F0F0E50BF0E50AF0E509EC
:1026E000F09080007430F07894E67014908005E0EB
:1026F00030E70D7892E630E107789476600227881B
:10270000908005E030E7F9E47891F6908014741039
:10271000F0908005E030E7F9E4908006F0908005C5
:10272000E030E0F990800BE054036009E020E141E3
:10273000E4FF123BC5901000E0640D7034A3E06428
:1027400006702EA3E064057028A3E064067022A33F
:10275000E0B4901D78007C521231B67E027F0012E8
:102760000EEA121AE8EF703B90800AE05480F08085
:102770000B7891E6C39404500306808F789306E6A5
:10278000C3940350030226A7789406E6C3946050CE
:10279000030226A3789206E6C39404500302269906
:1027A0007F0022D26D905392E07004A3E0601C126F
:1027B000321F5470909005F0905392E0FEA3E0FF1A
:1027C000123D17909005746012321090539FE0B440
:1027D0005108D2599080407401F01248DB12C000B9
:1027E000E47883F67F0122904106E0547FFFBF2109
:1027F0001C7F437E427D537C55900000E0F8A3E0AF
:10280000F9A3E0FAA3E0FBC3120D2A6007788476EF
:10281000027F82227B017A007904124BD7788512DD
:102820000D7A7B017A007908124BD77889120D7ADC
:102830007A0079007E001237E190000DE07883F68F
:1028400090000FE0306E3F6412602A7888E6B4058D
:102850001718E6B48F1218E6B4930D18E6B484087E
:1028600090501C7402F0800690501C7407F0306584
:1028700004E4789BF6C26EE47899F678ABE6F5143A
:102880009090077401F0206C03022916A264E433CF
:10289000FF905018E0B4B0047E0180027E00EE5F2D
:1028A0006020A25CE433FF7883E6FEB5070F740274
:1028B000A806088002C333D8FCF51C8037751C10AD
:1028C0008032206115A262E4332401FFE433FE78F4
:1028D00083E6FDB50711E4B5060D306305751C08E8
:1028E0008012751C01800D7402A805088002C33394
:1028F000D8FCF51C3067352058322057033056037A
:10290000305D297883E6FF7401A807088002C3338D
:10291000D8FCF51C80167883E67008905008E0F526
:102920001C8009751C04789CE64404F6E51C789923
:10293000666005AF1C1244737F02221231D4E4F5A5
:1029400020E520C3789596501D1231441253D2E5EC
:1029500020123199A807FC7D017B017E027F0012C5
:102960000EEA052080DB1232291231441253D29034
:1029700001FEE0B44A06A3E0644E60037F89229022
:102980000000E090800AF030E0057513408003E419
:10299000F5137898E6B4800790800AE04480F090C0
:1029A0000002E078ABF6900004E0F510A3E0F5112A
:1029B000900006E078ACF6900008E0F51290000A6E
:1029C00012315790000C789F1231CB90000EE0F539
:1029D0000EA3E0F50F900191E0909009F090019F17
:1029E000E0B45108D2599080407401F0E490900214
:1029F000F0900192E07004A3E0601D900010E0549C
:102A000070909005F0900192E0FEA3E0FF123D1758
:102A10009090057460F0800A900010E0440190905E
:102A200005F0123211900194E0600312320390001D
:102A300011E030E10890800B7408F08014900011D0
:102A4000E030E007E490800BF0800690800B74107B
:102A5000F0D26D78007C537D017B017A0179007E94
:102A6000007FF0120EEA9053031231C990530FE029
:102A7000F5131248DB12C000C25178ABE6F5147FA3
:102A80000322905018E064C060037F89222053061F
:102A9000121E8F1253D27B017A047900124BD79009
:102AA000506C120D867B017A047906124BD7905038
:102AB00078120D867B017A04790B124BD790507CEB
:102AC000120D867B017A04790F124BD79050701249
:102AD0000D867B017A047940124BD78F0B8E0A8DBD
:102AE000098C08900445E090500EF0900446E09068
:102AF000500FF0900444E06451704D9004FEE06487
:102B00004A702CA3E0644E7026FF78ABE6FEEFC35C
:102B10009E5014121FC9E0FCA3E0FDEF121F8CECC5
:102B2000F0A3EDF00F80E38E14C251E4789CF6AF71
:102B30000BAE0AAD09AC08EC4D4E4F600BAF0BAEBF
:102B40000AAD09AC0812201290506C121EA5FFECC1
:102B50004D4E4F6003D38001C39262900404E0B4F1
:102B60005103D38001C3925CA25CA062925C90503E
:102B700078121EA5FF905070121F0F2FF50BEA3E22
:102B8000F50AE93DF509E83CF50820600990507028
:102B9000121EA5121EE6905068121EA5C3950BFFCB
:102BA000EE950AFEED9509FDEC9508FC12201878CB
:102BB00099E6FF1244737F03228F20121F4890046E
:102BC0000974F1F0905068121EA5FF90040A120DCE
:102BD0008690040E7490F0A374CAF0A374F2F0907F
:102BE000506C121EA5FF900411120D8690041574EE
:102BF000F3F0905070121EA5FF900416120D8690EF
:102C0000041A74F4F0905078121EA5FF90041B1261
:102C10000D8690042074F5F090507C121EA5FF9054
:102C20000421120D8690042574F6F0121EA2FF9066
:102C30000426120D8690042A74F7F0E4A3F0A3048E
:102C4000F0789AE6541690042EF0A374F8F0A25F80
:102C5000E433A3F0A374F9F090043312201E74FB44
:102C6000F0A255E433A3F0A374FC121F98A25AE417
:102C70003390043FF0A260E433A3F0A25CE433A3FA
:102C8000F0905003E0900442F0A25EE433A3121FE0
:102C90006A90048074E1F090048504F0E478A3F66F
:102CA00079A3E7C378AB96501778A3E6FF121F8C81
:102CB000E0FCA3E0FD121FC9ECF0A3EDF00680E0FC
:102CC000789AE69005FFF0E5206006121E8F1251FB
:102CD00012E4FF121CC2EF60127889120D920000FC
:102CE0000000306C0312200B7F03227F89229000AA
:102CF00011E0543FF51E751FFF7520807899E6643A
:102D0000016003022DC490501CE020E003022DC49A
:102D1000125369EF604D900202E06047A3E0900219
:102D200002121748703D900202E02408F51FE51ECC
:102D3000B43F08A3E024F8F520802812179C64AA69
:102D4000601012179C651E600912182A251FF51FB6
:102D500080E912179C64AA600712182AF5208003E4
:102D6000751FFFE51FB4FF097E007F801216B0803B
:102D70004F900202E07E002400F9EE3402FA7B015B
:102D8000C002C001121839D001D0027F08120EEA29
:102D9000AF207E007C007400251FF9EC3402FA7B22
:102DA00001C002C00178087C007D01D001D0021270
:102DB0000EEAE5202406900001F074082520F52095
:102DC000AF208056E4900000F0A37406F0E4A3F076
:102DD000789AE6FB54F960047F8080027F009000BF
:102DE00003EFF0A3120DAB00000000EB78995654EE
:102DF00006600312184D20560330570C7899E6B43C
:102E000001069000037480F0306C0D7899E6541838
:102E100060069000037480F07F08124932228F20F0
:102E200090500AE0FF7003022F44D3944040047E88
:102E3000408002AE07E4FFEFC39E503190500BE09C
:102E4000FBA3E0FAA3E0F9905009E0FD7C00E92D36
:102E5000F9EC3AFAEF29F9EC3AFA120B60FD7440FA
:102E60002FF582E4340EF583EDF00F80CA7898E6F2
:102E7000FF20E606E52064026009EF30E615E52054
:102E8000B40710900E567440F0E4A3F0900E5D74F9
:102E9000408014E520B40613900E40740AF0A37429
:102EA00006F0900E487401F0E4A3F0E520B40706A4
:102EB000900E417407F0E52064016005E520B4063A
:102EC0000FE4900E42F0A37402F0900E477440F0AD
:102ED000E5206401702B900E4AE0B48006A3E06404
:102EE00093600AD26C900E507403F08007C26CE4B9
:102EF000900E50F0206D0A900E4A7434F0A37412B4
:102F0000F0E52064026005E520B40708905005E074
:102F1000900E48F0904103EEF0904102E020E1F97C
:102F2000904102E054216005E054FEF022904102FD
:102F3000E020E01390500AE0C39EF0905009E02E8C
:102F4000F0022E20123842221253017899E66401D1
:102F5000702790501CE030E020AE0C780B12171D4B
:102F60001216CF7014121728E50DAE0C7802C33379
:102F7000CE33CED8F9F50D8E0C1217D51216CF60C0
:102F8000037F84221244E28F1EEF30E701221216E3
:102F9000BB50037F8A22306C107899E6FF64016091
:102FA0003EEF541860037F8722789AE6FF600F5443
:102FB000066008799AE778995660037F87229050D7
:102FC00018E064B0702EA25C1217C080031218B40F
:102FD000D8FBFF7899E67C00B50719ECB50615E536
:102FE0000D150DAE0C7002150C4E60051253D280FB
:102FF000EE7F0322124E7E124FFE12C0068F1EE598
:103000001E30E72D30E01C904102E030E00312005A
:1030100063904104E020E1EF30540312175D751E08
:10302000018003751E037889120D92000000008054
:103030001312170D120D7A751E89E50D450C7004DB
:1030400078847601AF1E228F1C908016E020E0F974
:10305000904104E020E1F9121F1A900000120DAB1C
:10306000555342537B007A007985124BD790000468
:10307000120D86E490000CF090000BF090000AF026
:10308000900009F0900008F0904106740DF0E49073
:103090004105F0306806C268905015F0D254904156
:1030A00004E030E10A904102E030E0F27F0022C209
:1030B00054121F1AE4904104F0E51C7002FF22C272
:1030C0008CC28DE4F58CF58AD28C124E7E90410430
:1030D000E020E010904102E030E0037F0022308DDC
:1030E000EC7F0022900011121F2D7891121FE870C2
:1030F0004D90000FE0651C704590000DE0788366F0
:10310000703C908016F07B017A007904124BD778DE
:1031100085120D7A121F1AE4908014F0900016E0C8
:10312000F50CA3E0F50D7891120D618F0B8E0A8DD1
:10313000098C08121F577891120D7A7F01227F00A7
:1031400022120EEA7A0079007E007F00904400741B
:1031500000F0A37400F022789DE0FEA3E0A606082C
:10316000F622F0E512FD7C00AE0AAF0B120BB8ECB4
:10317000C313ED13FDE5178DF0A4227B20AD0BAC3E
:103180000AAF09AE0822E62520FFE433FE74042FBF
:10319000F58274523EF583E02225E0FEE42400FF30
:1031A000EE34A022E0FD75F010EFA42EF582E43598
:1031B000F0F583E582227D017B017A107900227887
:1031C00098E65480904104F02278A4E0FEA3E0A6A3
:1031D0000608F6229080157455F074AAF0227E023B
:1031E0007F007D007B017A007900020E02904A93F5
:1031F00093908007F022E517C313F517E518C31362
:10320000F51822E05470FFE054074F90900EF02222
:10321000F09090027401F02290800074FFF022E49C
:10322000909002F090520CE0229080157477F0227A
:10323000908017F090801674C022E4F51E7899E60D
:10324000B4010A90501CE030E0037F83229000100C
:10325000E05408131313541F900400F0900011E081
:10326000543F900402F0900012E0900403F09000AC
:1032700013E0900404F0900014E0900405F07E0246
:103280007F001216B0E4900001F0789AE6FF54F93E
:1032900060047E8080027E00900002EEF0E4A3F0E5
:1032A0007899E6FE5F5406600312184D20560330ED
:1032B0005707EEB4010312184D306C0A7899E654A2
:1032C00018600312184D751E04900402E09000046B
:1032D000F0900402E0604924F8601224C9601824C8
:1032E000237030900005740AF0740C802090000563
:1032F0007412F0741480169000047408F0A3741211
:10330000F0900018741CF0A3740AF07420251EF5C8
:103310001E800D9000057401F0E4A3F0051E051E4B
:10332000E51E14900000F0AF1E124932221244E252
:103330008F1EEF30E70302341C7E007F207D007B70
:10334000017A047900120E0290000FE0F51FB425F7
:1033500013900017E05401F52078047C04121896AD
:103360007F04801190001DE05401F52078007C045A
:103370001218967F0C120EEAE520701D90040012C0
:1033800017CAFFEC4D4E4F700D9004041217CAFF80
:10339000EC4D4E4F60037F84227899E664017033D0
:1033A00090501CE0FF5405FEBE010CEF4404F09069
:1033B000501DE0700204F0305E1990501CE030E0C7
:1033C000121218A11216F7900004120DAB0000089B
:1033D00000802C7899E6B410143062081216D612C8
:1033E000184080041216E4FF788D120D7AE51FB4A0
:1033F00025111216F2900004120DAB000002007F9E
:103400000880167E007F201216B01216F290000877
:10341000120DAB000002007F20024932AF1E228F46
:10342000208514217895E6F514E52030E0037F89A6
:103430002212317B12C00FE4908014F0852022FE0E
:103440007F40FD1231B8120E02908005E030E7F99E
:10345000E4908006F0908017E522F090801674804A
:10346000F0908016E0540A60F8908016E030E12D6C
:1034700090800BE030E1057520EE8007E4FF123B01
:10348000C58F20908017E0FFC3E5229FFFC3132460
:1034900000F582E43410F583E520F080BE908016BC
:1034A000E020E0F9904104E020E1F990800BE09009
:1034B0000000F012C01E900001EEF0A3EFF09000AB
:1034C00003E508F0A3E509F0900005E50AF0A3E59F
:1034D0000BF0908030E0900007F0908031E0900099
:1034E00008F0908032E0900009F0908033E0900086
:1034F0000AF0A374AAF0780C7C001231B67E007F2B
:10350000401231411251128521147F0322AD0790E0
:103510004104E020E1F9ED247FB40F0040030235BF
:10352000D290352F75F003A4C58325F0C5837302AF
:10353000355C02356202356A0235A3023572023506
:103540007902358002358A02359102359C0235AA0E
:103550000235D20235B50235BF0235C61217777F64
:10356000052212185476260235CE121854762002FF
:1035700035CE12185B763A80551218C57628804EE3
:103580007895760778967627804412185B760480C3
:103590000512185B76FF789776FF803612185476FE
:1035A00021802B1218547624802412185B7604781C
:1035B000977601801D1217771218C57629800F1291
:1035C00018C5762980087895760378967611E47880
:1035D00097F67884E6FCB402071217777D07801708
:1035E000ECB40311904101E04404F07881E6440416
:1035F000F67D0680027D04AF052212475B905001E4
:103600007401F0904102E030E0031200637880E63C
:10361000B40118904104E030E0111227E77880EF00
:10362000F6BF02071223917880A6077880E6FF6430
:10363000036004EFB404051242A080C77880E6B4AA
:10364000050B904101E020E4047603801D7880E6BC
:10365000FFB40607904101E030E20BEFB4070B9096
:103660004101E020E404788076047880E6FF30E7CA
:103670000712350D7880A607306F09C26F90410799
:10368000E04401F07880E66401704A904107E03040
:10369000E643905002E0FF603C905003E0FEC3EF31
:1036A0009E905002F06015E0541F7007905001E0AA
:1036B0006401F0904107E054BFF08011305A047F5C
:1036C0000180027F00905001EFF012C02490500161
:1036D000E0909001F0904107E020E40302360312ED
:1036E000468D0236030902200001010080320904E0
:1036F000000002080650000705010200020007054D
:1037000082020002000C121E0422183A2862107273
:103710001C12010110000000408F05809301000180
:1037200002000104030904180341006C0063006FE8
:1037300000720020004D006900630072006F0028D5
:10374000034D006100730073002000530074006F8C
:10375000007200610067006500200044006500768B
:10376000006900630065001003360039003900303D
:103770000046003000310047656E65726963205570
:10378000534220466C617368204469736B20203774
:103790002E3736000000000000000000AAAAAAAAE6
:1037A000AAAAAAAAEEEEEEEEEEEEEEEEFEFFFFFF06
:1037B000FFFFFFFFFFFFFFFF7FBFDFEFF7FBFDFC1A
:1037C0007EBFDFEFF7FBFD7E900E45E0900074F0CA
:1037D000900E46E0900075F0900E47E0900076F075
:1037E000229044007400F0A37400F02278407C0E14
:1037F0007D017B017A0E79007E007F08120EEA902F
:103800004102E054FEF022F0904102E04441F022F7
:1038100090500B74FFF0A37437F0A37405F022E00E
:10382000FCA3E0FDA3E0FEA3E02285141F90530556
:10383000E0F514905006E0FEA3E0FFC394FFEE9481
:103840000322904102E04451F0227A047900905022
:103850000B7401F0A3227881E654EAF6904101E06E
:10386000442AF0E054EA22900E45E0900075F09072
:103870000E46E0900076F022E493905009F022A3E7
:10388000F0E4905009F022E4904104F07880760151
:1038900022904106F0E4904105F022D253900E446C
:1038A000E0229050207403F022E4905000F09050F9
:1038B00004F0A37432F0E4789AF60876FF08F690E4
:1038C00050087480F0E47895F608F608F6D269C2DC
:1038D00068D26EC26FC254C253C252905020F0A33D
:1038E000F0A3F0C251C26CC26BC26AC264C267C2AA
:1038F00062C255C256C257C266C263C265C26190F7
:10390000900AE0540F78B1F6E670027620C25BC2EE
:103910005AC25FC260C250C270C258C25EC25DC2AB
:103920005C905068120DAB0000000090506C120DBE
:10393000AB00000000905070120DAB000000009032
:103940005074120DAB00000000905078120DAB00C7
:1039500000000090507C120DAB00000000E490507D
:1039600002F0A37410F0E4789AF690501874C0F046
:1039700090501AF0E4905019F090501BF0A3F0A36F
:10398000F0124A2B7880760122205306121E8F12E5
:1039900053D2C266C263C264C265C267C25AC25F02
:1039A000C260C25EC261C25DC258C250C2709004A1
:1039B00003E0B45104D264805A900404E0B451048A
:1039C000D266804F900405E0B45104D263804490E5
:1039D0000406E0B45104D2658039900407E06451D4
:1039E0007031D267900400E0B45102D25F90040EAF
:1039F000E0B45102D25E90040FE0B45102D2609064
:103A00000413E0B45104D25D8009900414E0B45171
:103A100002D25890040BE0B45102D25A900409E04B
:103A2000B4510DE4905002F090040AE0905003F07D
:103A3000305A047F0180027F00909001EFF09004E3
:103A400012E0B45106A26772639261900415E0B46B
:103A50005102D250900416E0B45102D2707F03227A
:103A6000901000E064996003023B14A3E0640760D7
:103A700003023B14901003E0FF901002E02F243269
:103A8000FFE4FEFDEDC39F501074002DF582E43479
:103A900010F583E02EFE0D80EB74002FF582E434E8
:103AA00010F583E06E706DD26B306B2390107DE06B
:103AB000F4FF90107CE0B50716E0D394FA4008902C
:103AC000500574FAF0800890107CE0905005F0905A
:103AD000107EE0643C703DA3E064C37037901081B9
:103AE000E06403702FFEFD901080E0FFEDC39F5057
:103AF0001074802DF582E43410F583E02EFE0D80E5
:103B0000E6901080E02480F582E43410F583E0B57F
:103B10000602D26A22E0FF7C00E50B5407248BF5F5
:103B200082EC344AF583E493FEEF229039AAE0FE5A
:103B3000A3E0FFE51575F00AA422E0FFED5407901D
:103B40004A8B93FEEF6E222400F58274393EF58392
:103B500022EC25E024B8F582E43439F583222400F0
:103B6000F58274383EF583222486F582E43439F5F3
:103B700083222484F582E43439F58322EEF0A3EF26
:103B8000F09039A822E50BAE0A78032274002FF5D5
:103B900082E43439F583E0227DFF7B01020E027E50
:103BA000007F0A020EEA789AE64420F67EFF7FFF45
:103BB000222482F582E43439F58322E0FEA3E0FF7B
:103BC000AD0BAC0A228F23E490800CF090800BE0C8
:103BD00030E1037FEE22908013E0752500F52490FC
:103BE0008010E0F978B1E6FFE9D39F40037FEE2231
:103BF000E9607619908020E0FD908021E0FCED30B6
:103C0000E736EC700A908030123B3A908030F0BC7E
:103C1000010A908031123B3A908031F0BC020A9048
:103C20008032123B3A908032F0BC03C49080331251
:103C30003B3A908033F080B8E52360046D20E6B015
:103C4000ED546075F008A42525FFE52435F0FEEC61
:103C50007A002FFFEA3E8F82F583C083C082123B39
:103C60003AD082D083F0023BF0908010E0FF2290A7
:103C70000010E05402F51EE47F01FEFDFC7889127D
:103C800016CF70037F8422900011E020E10790009E
:103C900018E030E74A125369EF603B900200E060A1
:103CA00035A3E0900200121748702B900201E0FF4C
:103CB0007E00900200E07C002400F9EC3402FA7BE4
:103CC00001C002C001121839D001D002120EEA90D0
:103CD0000201E0FF80327F301216AE7F3080291261
:103CE00016AC9000027401F0A3F09000057414F07B
:103CF000A37401F0E51E25E025E0240A900001F000
:103D000090000AE51EF07F141249327889120D9254
:103D1000000000007F03228E218F22E4FD79FFFC4A
:103D2000EC64027003023DB7909003EDF0909004B4
:103D3000E9F090900B7401F090900BE030E0F99076
:103D4000900CE0FE90900DE0FBEEF523EBF5249057
:103D5000900CE0B52206E4B521027C02EC1460254B
:103D60000470BDC3E5249522E5239521500DE9702B
:103D7000047C0180ABE9C313F980A5ED25E0440183
:103D8000FD7C01809BD3E5249522E5239521400FFE
:103D9000BDFF047C028089ED25E04401FD80817C2B
:103DA00002E52465227004E52365217003023D20AD
:103DB000EDC313FD023D2022206A037F032220531E
:103DC00006121E8F1253D2851420121F397B117DCB
:103DD000017C0012C00F852014E4F520E52025E0C9
:103DE000FFE433FE74822FF58274023EF583E0FF18
:103DF00074002520F582E43402F583EFF00520E518
:103E000020B408D8E4FFF520E52054072400F5820B
:103E1000E43402F583E0FE74002520F582E43404E6
:103E2000F583E06E2FFF0520E520B440DBEF702125
:103E3000900440E0789A30E40DE64410F690901635
:103E4000E054FDF0800BE654EFF6909016E044024B
:103E5000F07F03228C238D24AB07AA0674002BF578
:103E60008274343AF583E524F0EF540325E0FDEB4A
:103E70007802CEC313CE13D8F9123B5EE0FF740371
:103E8000A805088002C333D8FCF45FF0EBAE0278DB
:103E900002CEC313CE13D8F9123B5EC083C082E0BA
:103EA000FCE5237E00A805088005C333CE33CED8B9
:103EB000F94CD082D083F0E524AE237803CEC3132F
:103EC000CE13D8F92400F58274393EF583C083C03F
:103ED00082E0FF7C00E5245407248BF582EC344A11
:103EE000F583E493FEEF4ED082D083F0228F207DC5
:103EF00002124C1C905019E0900400F090501BE00E
:103F0000900401F0905018E0900402F090501AE0F4
:103F1000FB900403F0A374C0F0A25BE43325E0FE41
:103F2000789AE6FD54012E900408F090047EEDF09E
:103F3000E65406FFBF0604E04440F0E520B4020A60
:103F4000905018E0900480F0800AE520B4030590BA
:103F50000480EBF0205F0E909000E030E307E490E7
:103F60000481F080069004817401F090048274CA88
:103F7000F0A37409F0205306121E8F1251127F0312
:103F8000228F20E520B40209905019E0D39402500A
:103F90000EE520B4030C90501BE0D3940240037F45
:103FA0008922205306121E8F1253D2851421121F0C
:103FB00039AD207C007B1112C00F8521141245BB46
:103FC000E52064027024BFB00F905018E0B4B00830
:103FD000905019E004F08005E4905019F0905018CA
:103FE000EFF0306C2612200B8021E520B4031CBFBB
:103FF000B00F90501AE0B4B00890501BE004F0806D
:1040000005E490501BF090501AEFF07F0322C29904
:10401000ED30E61275990D3099FDC29975990A3007
:1040200099FDC29980087599203099FDC299ED30AB
:10403000E01BEF75F00A842430F5993099FDC299A0
:10404000EF75F00A84E5F02430F5998032EF54F0F2
:10405000C4540FFED39409400674372EFE800474B6
:10406000302EFE8E99EF540FFED39409400674371C
:104070002EFE800474302EFE3099FDC2998E993048
:1040800099FDC299ED30E71075990D3099FDC299EF
:1040900075990A3099FDC29922E4905021F0A3F05D
:1040A000905021E0FCA3E0FDC3EC9402505D9041F0
:1040B00002E05421600BE054FEF090502074048024
:1040C0005C904102E030E0079050207402804E7412
:1040D000002DF974043CFA7B01C002C00178407CD9
:1040E0000E7D01D001D0027E007F40120EEA904189
:1040F000037440F0904102E020E1F9905022E02466
:1041000040F0905021E03400F08095123842E49065
:104110005020F0125031EF700890502004F07F00D2
:10412000227F01221244E28F1EEF20E7747899E685
:10413000B410143062081216D612184080041216F9
:10414000E4FF788D120D7A1216AC9000037410F013
:104150009000087402F090000AF0900012F0789934
:10416000E664017021305E1E90501CE030E0179034
:1041700000037408F090000AF01218A190000412D5
:104180000D867F0C8018788D120D61900004120D41
:1041900086788D120D6190000C120D867F140249F5
:1041A00032AF1E22908007E0F52090800AE0F521D2
:1041B00012508D1231DE90800A7401F0E4FFEF128C
:1041C00031ED908005E030E7F9123218908005E07B
:1041D00030E7F99080007490F0E4908001F0FE9058
:1041E00080047401F09080021231A42400F582E56D
:1041F000833400F583EDF09080031231A42408F598
:1042000082E5833400F583EDF00EBE06D20FBF08C1
:10421000AD908007E520F090800AE521F012511260
:104220007F03221231DE9000027490F0A37404F038
:1042300078A6E6A3F008E6A3F008E6A3F008E6A354
:10424000F0A3744AF0A374CAF0A37409F090900A22
:10425000E090000BF0A26CE433A3F07898E6A3F0B2
:10426000900010744AF0A3E514F0A251E433A3F0D7
:10427000908007E0900013F090900EE0900014F012
:10428000900020744FF09000307448F0900040741B
:104290004EF090800BE0900100F01251127F03224B
:1042A000908016E020E0F9904104E020E1F97A00E6
:1042B00079007E007F001237E1900000120DAB55AF
:1042C0005342537B007A007985124BD79000041239
:1042D0000D867B007A007989124BD7900008120D69
:1042E000867880E6B403047F0080027F0190000C92
:1042F000EFF0740D123891306806C268905015F0D6
:10430000904104E030E10C904102E030E0F2120014
:104310006380ED1237E1123887228514207895E604
:10432000F51412317B12C00FE4908014F0908005D8
:10433000E030E7F9E490800612316285F021F52241
:10434000E5188DF0A425182521F521908005E03091
:10435000E0F9125112125112E4908040F090800066
:104360007405F0908001E522F0E521F09080007462
:10437000E0F09080067404F0908005E030E0F9A24F
:1043800059E433908040F01251128520147F0322AB
:104390001231BF8514207895E6F5147BA012317D8B
:1043A00012C00FE4908014F07402123230123162A5
:1043B00085F021F522E5188DF0A425182521F52199
:1043C000908016E020E0F91253D2E4908040F09003
:1043D00080007485F0908001E522F0E521F0908066
:1043E000067484F0908005E030E0F990800074104D
:1043F000F0A259E433908040F0E4908014F08520DE
:10440000147F0322125301121EFAFBC3120D2A500D
:10441000037F8A2290507C121EA5121FD9400A9059
:10442000501AE0B4B0037F8922121EA2121FEF358A
:1044300008FC905070121F0F121FB9206009905095
:1044400070121EA5121EE612C006AB07EB30E71372
:104450007889120D9200000000EB30E0037F01220A
:104460007F0322121EB0E50D450C7004788476019E
:104470007F89227899A607EF14604614601524FE00
:10448000601E24FC604424F86040249070539050D7
:1044900068803130620590506C80039050748024A5
:1044A00090506CE0F8A3E0F9A3E0FAA3E0FB905091
:1044B0007412381FC39BFFEE9AFEED99FDEC9880B5
:1044C0001A90507012381FFF801290507012381FCF
:1044D000FF2FFFEE33FEED33FDEC33FC788D120D34
:1044E0007A22307021905018E0B4B01A1217BD80B3
:1044F000031218B4D8FBFF7899E67C00B50707ECE7
:10450000B506037F85227899E6FF789BE6FE5F601B
:1045100005EFF45E8033799CE778995660037F85D8
:1045200022205F29909000E030E310789AE620E79F
:104530001C4480F6789BE644F6800E789AE630E7D5
:104540000C547FF6789BE644F6F67F86227F0022A5
:10455000E4F99039FDE0FC9039FEE0FDE9FB90398B
:10456000FFE02BFBE433FAAF04ECC39BEA6480F872
:104570007480985039123B8CF519B4FF04E4FD8027
:104580002AEDC394085022ED904A8B93551970166A
:10459000ED049039FEF09039FDECF075F008A4FFC1
:1045A000AEF0EF4DFF220D80D8E4FD0C80AEE4FDAF
:1045B000FC09E9640270A5123BA622900280E0B4D7
:1045C000FF08A3E0B4FF037FC022900480E0F9A3BA
:1045D000E0FF900280E0FEA3E0FDEF6D7040FDED96
:1045E000C39F503D74822DF582E43404F583E0FCD2
:1045F00074822DF582E43402F583E0FB12202F80D3
:1046000002C333D8FC59620412202F8002C333D86E
:10461000FC5E6203EC6B60037FB0220D80C17FB053
:10462000227FA022AD07125031EF70069050200477
:104630008051904102E030E506E054FEF080E790C2
:104640004103E0540FFFBF0807904102E020E7114B
:104650001237FF904101E04401F090502074028035
:1046600022900E03E0B40316900E02E0B5050F9001
:104670000E01E0B40608900E00E0648060099050DE
:10468000207402F07F00221237EC7F01229090010B
:104690007401F090801CE0540FFFBF0FF6306D03E3
:1046A00012C024E4908007F0904107E04420F0001D
:1046B00000000000000000306D0312C02490420092
:1046C000E0540360F8904200E030E0117898E6B4DE
:1046D0008005E4904100F0789876408004789876E0
:1046E00080E4909001F09080077440F0904107E0E2
:1046F00054DFF0221244E2EF70607899E6640170B2
:104700005690501CE0FE54036401704BEE30E223DF
:1047100090501DE0FEB401067402F07F8522EE6425
:1047200002703490501D7403F090501CE04402F06D
:104730007F862230600A90501CE04402F07F032202
:1047400090501DE004F0E0D39406400BE4F0789B19
:10475000E64401F67F85227F032222E4904104F0A3
:10476000904200E05403700C904107E030E4F112F5
:10477000468D80EC904200E0789830E004764080EE
:1047800009768090800AE04480F0E47881F69050C9
:1047900004F090900AE020E723909000E020E41CD1
:1047A000904104E0FF904102E04F20E00C9041076F
:1047B000E030E4EC12468D80E71251EE788076010D
:1047C00022125301121EFAFBC3120D2A50037F8AD4
:1047D0002290507C121EA5121FD9400A90501AE058
:1047E000B4B0037F8922121EA2121FEF90507012E4
:1047F0001F0C121FB9206009905070121EA5121EC6
:10480000E612C003AB07EB30E7137889120D920074
:10481000000000EB30E0037F01227F0322121EB074
:104820007F89228F1AEF75F00AA42480F974393534
:10483000F0FA7B01C002C00178A87C397D01D0016B
:10484000D002123B9F851A1BE51B602775F00AA456
:10485000FFAEF02476F974393EFA7B01C001748012
:104860002FF974393EA801FC7D01D001123B9F1540
:104870001B80D578807C397D017B017A3979A8123B
:104880003B9F22909000E030E2037F002290501284
:10489000E0FEB40111905013E0B4010A905014E00E
:1048A000B401037F0022905014EEF0905012740176
:1048B000F0905013F0122683EF700A905012F0908F
:1048C0005013F0FF2212144878ABE6F514C251E4FD
:1048D000905012F0905013F07F012290800AE03047
:1048E000E105751702801690800BE030E40575171E
:1048F00020800A90800BE05408242EF517751804C8
:10490000E51354C060031231F6905395E0701B908C
:10491000800BE030E30578B0761C2290800BE078C5
:10492000B030E403760E22761622905395E078B0EC
:10493000F6228F21E47F01FEFDFC78891216CF70EC
:10494000037F8422AF21E4FCFDFE1218AB402590CA
:104950004106E5211218623056028021120D61C015
:1049600007AF21AB07D007C3EF9BFFEE94001218EF
:104970000D7F8122788CE6904106121862120D920A
:10498000000000007F03227895E665146010305126
:104990000312C0097895E6F5147F0112C015E4787A
:1049A00095F67895E6FFC39406502BEF7F0025E03F
:1049B000FEEF2400F974343EFA7B01C002C0017896
:1049C000007C007D01D001D0027E021231411251E3
:1049D0001278950680CC7F0322900010E0F51FA38B
:1049E000E0FF1313543FF520E05403F508A3E0F56E
:1049F00009A3E0F50BA3E0F50AE51FB40911E50BE7
:104A00006407450A601FAF0BE4FD124C1C8016853D
:104A1000141F8520147B10AD0BAC0AAF09AE081231
:104A2000C00F851F141251127F0322E490800AF0F8
:104A3000751C021252161253E590800074FFF0129A
:104A400053E5749012522AFF9080047401F0908014
:104A500002E0900000F0E0B4FF1D0FBF06EAE51C85
:104A60005407FFC454F04F90900EF0051CE51CC392
:104A7000940940BF7411F0220002040610121416AB
:104A8000181A1C1E523436383A3C3E0102040810F3
:104A90002040804080102004080102003FC0FF0039
:104AA0007FBFC000403F2F0000FFFFC00080807F1D
:104AB0007F7FFF0001020406081000800600FFAAA5
:104AC000BBCCEEEF75F00C84FEEF75F00C84AFF00C
:104AD000EE904AB393F509EEC39407500FEF904A56
:104AE0009B93F50BEF904AA793F50A22EF5401FE32
:104AF000F404F50BEFC313FD7404A805088002C38A
:104B000033D8FCC39EF50A22125301900015E0FF32
:104B1000124473121F57121FE650037F8A22124F4E
:104B2000FE12C006AB07EB30E7137889120D920036
:104B3000000000EB30E0037F01227F0322121EB051
:104B4000E50D450C7004788476017F892212536943
:104B5000EF6032900300E0602CA3E0900300121895
:104B60001B121756701F900301E09003001217E705
:104B7000C002C001121839D001D002120EEA90030F
:104B800001E0FF80097E007F221216B07F221249C9
:104B90003222125369EF6032900302E0602CA3E0EE
:104BA00090030212181B121756701F900303E09017
:104BB00003021217E7C002C001121839D001D00257
:104BC000120EEA900303E0FF80097E007F24121694
:104BD000B07F2412493222EB700CE7FF09E7FE098F
:104BE000E7FD09E7FC2214701089828A83E0FFA3A5
:104BF000E0FEA3E0FDA3E0FC22BBFE0CE3FF09E323
:104C0000FE09E3FD09E3FC2289828A83E493FF74B1
:104C10000193FE740293FD740393FC228D21AC0773
:104C2000121F3FC394FFEE940350168514221220E6
:104C300039AD047C00E5212410FB12C00F8522143D
:104C4000229002007DFFE5217F0025E0FEEF240099
:104C5000F974003EFA7B01AE83AF82120E022290FD
:104C60000075E06003D38001C3926C900076E09001
:104C70005008F0E0B420037402F0905008E0B44013
:104C8000037404F0205313A26CE433900000F090FE
:104C90005008E0900001F01251127F0322AD07ACE2
:104CA00006ED540325E0FFAB07EDAE047802CEC35A
:104CB00013CE13D8F9123B5EE0FFA803088002C3AD
:104CC00013D8FC5403FE74002DF58274343CF58334
:104CD000E07C002400FFEC3EFE228F20E520B402A1
:104CE00005122028600CE520B4030A90501AE0B4A5
:104CF000B0037F8922122003E520F0125160BF0328
:104D000015E520B402059050188008E520B403068C
:104D100090501A74A0F0228F20E520B402051220D2
:104D200028600CE520B4030A90501AE0B4B0037F69
:104D30008922122003E520F0124F5FBF0315E52002
:104D4000B402059050188008E520B4030690501A6C
:104D500074C0F0227E027F001216B0E4FF7E02FDD6
:104D6000FC1218AB40157889120D61C3EF9400FF57
:104D7000EE940212180D12511280E0788CE69041E8
:104D800006F018E6121864120D92000000007F036E
:104D900022205037900013E05403602FE030E017DA
:104DA0007899E6FF789CE6FE5F6005789BE64FF613
:104DB0007899E6F45E8011789CE6FF789956700B3E
:104DC000E6FE789B46F6EF4E789CF67F03228F2016
:104DD000E52030E0037F89228514217895E6F514DB
:104DE0001231BF7BA012317D12C00FE4908014F00D
:104DF000E520123230F0908016E020E0F99080003B
:104E00007410F08521147F0322125301900015E0E5
:104E1000FF124473121F57121FE650037F8A22129B
:104E20004FFE12C003AB07EB30E7137889120D92E7
:104E300000000000EB30E0037F01227F0322121EFE
:104E4000B07F89221231D4E4F520E520C37895960D
:104E50005026E520123199FAA9077B01C002C00152
:104E600078007C007D01D001D0027E027F001231EB
:104E700041125112052080D21232297F0322905014
:104E800002E0FF6024904107E030E624905003E008
:104E9000FEC3EF9E905002F0541F700D905001E041
:104EA0006401F0909001F08000904107E054BFF061
:104EB000905002E04440F0227D04E4FC123B51E0BB
:104EC000FAA3E06F7002EA6E6025123B51E0FAA38C
:104ED000E0FBBAFF08BBFF05BD0402AD040CBC0437
:104EE000DBBD04027D03ED123B52EEF0A3EFF02296
:104EF0007E007F121216B090000074F0F07895E6F4
:104F0000540F900002F0900007740AF07896E69033
:104F1000000CF07897E6A3F0E47895F67896F678AA
:104F200097F67F1212493222205306121E8F125317
:104F3000D2789AE654F9F6900401E030E604E644AB
:104F400006F6900401E030E106789AE64402F69015
:104F50000401E030E206789AE64404F67F032290EA
:104F60000074E0B45106A3E0F52180037521017DB2
:104F7000FF121F4A20530A121E8F12511278847694
:104F800001E52170037521FFAF21121CC2EF600300
:104F90007F03227F8922125301121EA2121EE612E3
:104FA000C006AB07EB30E7137889120D92000000C2
:104FB00000EB30E0037F01227F0322121EB0E50DDB
:104FC000450C7004788476017F8922900011E0609E
:104FD0001290800AE020E025E04401F043134012E3
:104FE00031F62290800AE030E013E054FEF05313D3
:104FF000BFE51725E0F517E51825E0F518227899A3
:10500000E6FF6402602AEF64806025EFB404059037
:10501000506C80161216E41217A97899E6B40110A4
:1050200090501CE020E0099050701216E71217A96A
:10503000227898E630E6047E0580027E0A904107D9
:105040008012904102E020E014904107E030E7F246
:105050001EEE6006E0547FF080E87F00227F012290
:10506000E4FF123B8CF9F4601CE4FDED904A8B9355
:1050700059700EEF75F008A47C002DFFEC35F0FEA2
:10508000220DBD08E60FBF80D9123BA622E4FFEF38
:10509000C39408502474C0A807088002C313D8FC26
:1050A000908007F0908005E030E7F9123218908088
:1050B00005E030E7F90F0F80D622900010E0900451
:1050C00004F0900013E030E7047F0180027F00903D
:1050D0000405EFF07E007FFF1216B0900007740108
:1050E000F07F8012493222125301121EA2121EE6D4
:1050F00012C003AB07EB30E7137889120D92000062
:105100000000EB30E0037F01227F0322121EB07FFC
:1051100089227898E6B4400DE4904106F09041056C
:105120007402F0800C9041067440F0904105748048
:10513000F0904104E020E1F9227995E7C378AB963D
:1051400040037F0322124E7E8514207895E6F514E5
:1051500012C00C852014BF81047F0180027F0322CE
:10516000900074E0B45106A3E0F52180037521019D
:10517000205306121E8F1253D2AF21121CC2EF60B1
:10518000037F03227F8922900074E0B45106A3E0DC
:10519000F52080037520017D02AF20124C1C2053A6
:1051A00006121E8F1251127F0322900074E0B45138
:1051B0000CA3E0789BF6A3E0789CF6800312200B0A
:1051C000205306121E8F1251127F0322900012E00C
:1051D000FEA3E0FF123D1790900CE0900000F090CD
:1051E000900DE0900001F0121F1A12511222124885
:1051F00083EF7012C26C789BF69050067403F0A394
:1052000074FFF008F622D26C789B76FFE408F62251
:10521000745090800AF09080077440F02290420110
:105220007431F090410274FFF022908000F0E4A30A
:10523000F022AF121512EF600F90800674E0F0902C
:105240008005E020E0EC80F79080007410F01253AD
:10525000E5228514207895E6F5147D01AF09AE08A6
:1052600012C012852014EF60047F0380027F0422A5
:10527000BF0205122028600ABF030A90501AE0B44A
:10528000B0037F8922122003EFF012518722905041
:1052900021E0900E40F0905022E0900E41F09041BD
:1052A000037402F0904102E020E1F922122683EF1C
:1052B00070037F042278ABE6F514C251900011E030
:1052C000B451031214487F0322E4908000F0A3F04D
:1052D000F0E515F0E4F09080007430F01253E5E44E
:1052E000908014F02247656E657269632041757481
:1052F0006F72756E204469736B20202020382E3029
:10530000309000111217CAF50B121737900016E0F3
:10531000F50CA3E0F50D22900012E0B4510D3051D0
:105320000312C009E4789AF67514FF22AE071FEE47
:10533000600EE4908006F0908005E020E0EE80F7BB
:10534000229080007460F0E4A3F0F090800074D0AC
:10535000F01253E5229080427402F090804174FF75
:10536000F0908040E020E1F9228514211217FE7BA5
:10537000117D067C0012C00F85211422900011E0DF
:105380006003D38001C392551251127F03227480AF
:1053900012522AF0E515F0E4F0908014F022125336
:1053A000011216BB50037F8A227F03227E007F40BA
:1053B0001216B07F4012493222900013E030E00311
:1053C0007F84227F0322787FE4F6D8FD7581DF0297
:1053D0000F101231BF904104E030E0F92212511257
:1053E000D26F7F0322908005E030E7F9227F892287
:1053F0007F03227F0322FFFFFFFFFFFFFFFFFFFF6F
:10540000FFFFFFFFFFFFFFFFFFFFFFFFFFFFFFFFAC
:10541000FFFFFFFFFFFFFFFFFFFFFFFFFFFFFFFF9C
:10542000FFFFFFFFFFFFFFFFFFFFFFFFFFFFFFFF8C
:10543000FFFFFFFFFFFFFFFFFFFFFFFFFFFFFFFF7C
:00000001FF