:020000020000FC
:1000000002649A0217800217990217C60217D802D3
:1000100018430218CE0219600219710219840219DC
:10002000970219A30219B00219BC0219C80219E1FA
:10003000021A12021A3E021B2602000002000002EF
:1000400058480242BA0200000200000245050200C0
:1000500000020000024EF6025AFB0240DF025B4043
:1000600002578D02617E0259900200000263ED0288
:100070006404025EB50251180200000259410200F8
:100080000002639C0260CD025F5C02623C02621966
:100090000263D40261A7025D6A023CE80258F102E1
:1000A00025790259DE025215025FC9904102E03003
:1000B000E505E054FEF022904103E0540FFFBF0835
:1000C00007904102E020E706124034020863124024
:1000D00021900E41E02402605214603114B40B00F0
:1000E00040030208639000ECF828287302015402D0
:1000F00001D702086302025C02086302036502037F
:100100008502086302080502080F02084E900E409F
:10011000E064217013900E44E0700D124080124094
:100120003C1240161240BD22020863900E40E0646B
:10013000A1701E306104F002085CA263E433FFA2E8
:1001400062E4332FFFA267E4332F900E40F00208E1
:100150005C020863900E40E0247F601014601E244F
:1001600002706A907200E0900E408058900E44E059
:100170007008900E40F0A3F08056020863900E4481
:10018000E014601E2481600824FE60282482703AF6
:100190007881E630E0047F0180027F00900E40EF1E
:1001A00080227881E630E2047F0180027F00900E99
:1001B00040EF80107881E630E4047F0180027F0008
:1001C000900E40EFF0E4A3F080060208630208639B
:1001D0009041037402F022900E40E07019900E429C
:1001E000E0B4010F907200E054FDF0904107E0543C
:1001F000FBF022020863900E40E06402705B900EF8
:1002000042E07052900E44E0146020248160082483
:10021000FE602C2482703C7881E654FEF690410109
:10022000E04402F0E054FEF00203617881E654FB02
:10023000F6904101E04408F0E054FBF002036178DD
:1002400081E654EFF6904101E04420F0E054EFF0F5
:10025000020361020863020863020863900E40E033
:100260006003020311900E42E06402600302030E79
:10027000900E44E0600302030EA3E0700302030E3D
:10028000E0C39405400302030B903C5074F3F090DC
:100290000E45E0B4040312C01E903C5074FF12409F
:1002A0003C904102E0544170F8900E45E024FE601D
:1002B0001214601714601C2403704E904201748362
:1002C000F080469042017485F0803E9042017407B0
:1002D000F0803678007C007D017BFF7A3979687E7A
:1002E000007F35121B26306D09903C5074F2F012DD
:1002F000C01E904104E020E1F9124016743512400E
:10030000C79042017409F080E980FE020863020888
:1003100063900E40E064027045900E42E0703C90A5
:100320000E44E01460142481600824FE601B2482C3
:1003300070267881E64401F680277881E64404F649
:10034000904101E04404F080187881E64410F69072
:100350004101E04410F080090208630208630208CA
:100360006312403D2212403D904102E0544170F83A
:10037000900E42E0904100F0904107E054FDF0E41F
:10038000907204F022306D449090107401F09090BF
:1003900016E030E31678A1E6F51512C0457F02128B
:1003A000C048909016E054F7F0801C78A1E625E054
:1003B00024A2F582E43472F583E0FEA3E0FFBEFFE1
:1003C00006BFFF0312C03CE4909010F0900E43E093
:1003D00024FE606D14700302045924FD6011146042
:1003E0006024F87003020797240E60030207D530DB
:1003F0006B15124054500B7B1012086B7006C26BC9
:100400008002C26B852115306B117A007900124091
:10041000781240199072097404800B12404590388C
:10042000BEE493907209F090720A7412F0900E4339
:10043000E0640660030207D890720A740AF00207AB
:10044000D890720B74FFF0A37438F0749E1240A21F
:1004500090720A7420F00207D8306B151240545085
:100460000B7B1212086B7006C26B8002C26B852177
:1004700015306B0C1240747404F0A37400F0800308
:10048000124045900E42E0121A1204A90004B7016E
:1004900004D10204EF03051904054780059982067B
:1004A0002683078186000007941240459038C012C9
:1004B00040AA9038C18059306B0C9072097416F0C4
:1004C0009004020207CB9038C21240AA9038C38031
:1004D0003F306B10900402E02416907209F09004F3
:1004E000030207CB9038C41240AA9038C58021304F
:1004F0006A157A0479801240787404F0748012408E
:10050000A29004800207CB9038C61240AA9038C748
:10051000E49390720AF00207D89004007404F0A3E8
:1005200014F090720FE0900402F090720EE09004CC
:1005300003F01240747404F0A374001240A390728C
:100540000A7404F00207D81240D1248E601424FDEE
:10055000601724DB601A24187020123FEF125D2F01
:1005600080117F02126344800A7F0212466B80036F
:10057000122770907220EFF08009124F81C253123F
:1005800040D822C253907220E0B40303024F81127C
:100590004F819072207405F0221240D1248D60505A
:1005A00024F0604324ED605E24FB604C24A360676C
:1005B00024FE605A24D06003020756900E47E030B4
:1005C000E1127E027F007D007B017A047900121A1D
:1005D0003E0206D6900E45E0907224F0900E46E062
:1005E000907223F0020727123FEF12603902074F83
:1005F0007F02125C3C02074F900E45E0900401F030
:10060000125F2502074FE4FF12376402074F1240C2
:1006100091125BC102074F9000747451F012409127
:10062000125DDE02074F12406CE4907221F0A3F0DD
:10063000C3907221E0940250447F84125592EF607F
:100640003C900E45E0FF907221E0FCA3E0FD240009
:10065000F58274043CF583EFF0900E44E0FF7401E2
:100660002DF58274043CF583EFF0126362907222E0
:10067000E02402F0907221E03400F080B3C3907265
:1006800021E09402500302086A7F85125592EF70B0
:100690000302086A124F81EF700302086A7F811219
:1006A0005592EF700302086A1240D1248F70030242
:1006B000073424FD700302073B24F3606F24E870C5
:1006C0000302074224FC700302074C24A86078242C
:1006D000CB6003020756900E45E05407F508A3E0EF
:1006E000F509907224E0F50A907223E0F50BE4F529
:1006F0000C900E45E054F0F50DE030E31612400882
:10070000250BF50BEE350AF50AED3509F509EC3543
:1007100008F508E50D7003750D019072207480F0E6
:1007200012C006EF30E7341240D8802F123FEF128C
:1007300061CE801B7F02125BFF80147F02124DDDB1
:10074000800D1230E78008123BE08003124D4D907F
:100750007220EFF080051240D88012907220E0B431
:1007600003047F0080027F05907220EFF0C25312D5
:10077000406C12609EEF600302086A90722004F0E1
:1007800022907220E0900E40F0E4907220F09041B0
:100790000304F022020863306C38907000E0640DAE
:1007A0007030A3E06406702AA3E0B40525A3E0B48A
:1007B000062090700AE0601A90720B74FFF0A37428
:1007C00039F0A3749D1240A3900E46E090720AF097
:1007D0008006020863020863900E47E07015900ED1
:1007E00046E0FF90720AE0D39F4008900E46E090EA
:1007F000720AF090720AE0700412406C22900E436C
:10080000E0FF02339B907204E0900E40F0804D12A6
:100810004080F0900E42E0B4011A9072047401F02E
:10082000904107E0440212403CE4909001F0909027
:100830000704F022900E42E07012907204F0904192
:1008400007E054FD12403C90900180138015900EFB
:1008500044E07006900E40F08002800790410374DF
:1008600001F022904101E04401F0227D017C001260
:10087000C00FEF4E22C26DC26912612790800974C9
:10088000ACF0E47893F618F6122225C259E4908071
:1008900040F01223161263801222B990800AE044BD
:1008A00010F090801AE04401F0908005E030E7F904
:1008B000E412220DF0F0F0F0F0908005E020E70661
:1008C00078937601800312231DE4F516908005E0ED
:1008D00030E7F99080147410F0E4908006F0908076
:1008E00005E030E0F9908067E030E018E51670111F
:1008F00005167893E670D51222ABF0F01222CE8066
:10090000CB12221EE4FD7F20124445E4F516902010
:1009100000E0B4500DA3E0B450089072E57438F0D4
:1009200080069072E57478F0902000E0649860058D
:10093000E06445701C751601902002E030E3581207
:100940002324D394045005E05407704B43160280CF
:1009500046902000E064EC703E751604902002E0A2
:1009600030E31C122324C3940440144316089080DF
:100970001AE030E00A122324FFBF0503431610904B
:10098000801AE030E011902001E0700BA3E07007C6
:10099000A3E07003431610E47894F69072E5E0FF4C
:1009A0007894E6C39F4003020F3812231690800A02
:1009B000E05490F090800974AC1222B8908005E069
:1009C00030E7F9122276E51630E426908005E03013
:1009D000E7F912220B7410F07E007F087D007B0186
:1009E0007A807980121A3E1222C1908005E030E0B0
:1009F000F97894E6FF124B99908005E030E7F9E52D
:100A00001630E10690800074A2F0E51630E30690FF
:100A1000800074DAF0E412220DF0F0E50BF0E50A44
:100A2000F0E509F07893E6700512231D80079080A9
:100A300005E030E7F97894E67014908005E030E73F
:100A40000D7892E630E10778947678020F387522B7
:100A5000207523007F10122238908005E030E7F9DE
:100A6000E516540360137893E6700E1222ABE50B83
:100A7000F0E50AF0E5091222CE7891761C12232BBC
:100A8000122332908005E030E7F9E4908006F09080
:100A90008005E030E0F97891E6167003020F32909D
:100AA0008005E030E0F9908067E030E003020F322B
:100AB00090800BE020E107908005E030E1181223E0
:100AC00032908005E030E7F9E4908006F0908005F0
:100AD000E020E0C280F7122339E0B40DB9A3E0B4FE
:100AE00006B4122339A3A3E0B405AB122339A3A3A0
:100AF000A3E0640670A0E52324041221226432706E
:100B000095E52324071221226451600A90900AE09F
:100B100030E403020F2FE523240D12212260065436
:100B20007790900EF0E523240E1221226006C31365
:100B3000FF125CF3E523240C122122FF600CE490E9
:100B40009002F0EF122304122340E5232410122117
:100B5000229073F5F012211EB40129AA22A9237B49
:100B600001C002C00178007C707D01D001D0027EFE
:100B7000027F00121B26123CE8EF7003020F32D2F4
:100B80006D020E0912211EFF7003020E09E52324D7
:100B9000111221227005EF64047033AE08AF09AA68
:100BA00022A9237B01C002C00178007C247D01D0F2
:100BB00001D002121B269073F67424F0A37400F087
:100BC000E523241E122122FEA3E0FF1221F41221AC
:100BD0001E6404603EE5232414122122FF125D6A84
:100BE000E523241512212290801A6006E04480F04B
:100BF0008004E0547FF0E52324201221221222F801
:100C0000E5232416122122FB7D10122579EF7003B3
:100C1000020F3212211E64026003020D1390800B3A
:100C2000E020E508E020E604E030E318750B0190D1
:100C3000800BE020E504E030E305750802800B122C
:100C4000232B8009750B02750804750900E5232420
:100C500019122122B40103122201E47891F6E5234E
:100C600024161221221223474003020CFFE52324FD
:100C700017122122FEA3E0FFC39509EE9508500448
:100C80008E088F09AE08AF09C006C0077891E67FCD
:100C90000025E0FEEF2400F974103EFA7B01C0024B
:100CA000E523241A122122FEA3E0AA06F8AC027D55
:100CB00001D002D007D006121B26E523241AF582A4
:100CC000E43522F583E5088509F012182DE5232483
:100CD00017F582E43522F583C083C082C3A3E09573
:100CE00009FF0582D5820215831582E09508D0821E
:100CF000D083F0A3EFF07891E50B26F6020C5EE5C9
:100D000023241912212264016003020DF41222A48B
:100D1000020DF490801AE04480F09080607401F03D
:100D2000E5232417122122908064F0E4908092F051
:100D3000E5232418122122908065F0E47891F6E5ED
:100D400023242212212212234750371222D61221A5
:100D500082908066F01222D6122182FFE6FEE52301
:100D6000241112212275F005A42EF582E435F0F548
:100D700083E5822400F582E5833424F583EFF006D1
:100D800080BDE4F508F50912211E9073FCB4030937
:100D90007410F0A37400F08027E522F0A3E523F09F
:100DA0009073FCE0FEA3E02414F582E43EF583E0BA
:100DB000FEA3E0FF9073FDE02FF09073FCE03EF0A7
:100DC000E47891F6E5232419122122122347501BBF
:100DD0001221D670069073FCE004F01221D6700642
:100DE0009073FCE004F078910680D990806174FFE4
:100DF000F01222B8E523241C122122FEA3E0FF4EAC
:100E00006007AA06A907121A38E523240A1221222C
:100E1000FEA3E0D39413EE94005003020EC4E52326
:100E2000240F12212278916003F68002761CE523BC
:100E30002408122122FF125D6A90800BE020E50851
:100E4000E020E604E030E318750B0190800BE02011
:100E5000E504E030E305750802800B12232B8009BE
:100E6000750B02750804750900E523240912212277
:100E700090801A6006E04480F08004E0547FF07FA8
:100E800005122238E523240A1221221222F8AB0B84
:100E90007D10122579EF701B122332908005E0300F
:100EA000E7F9E4908006F0908005E030E003020A64
:100EB0009680F4AE08AF09A823AC22122215121BAB
:100EC00026020A96306D6B12211E6401705E9071CD
:100ED0009FE0B45108D2599080407401F01234E779
:100EE000E4909002F0907192E07004A3E0601D9095
:100EF000700CE05470909005F0907192E0FEA3E0C9
:100F0000FF124A5C9090057490F0800690700C126D
:100F10002303122340907121E0B45102D2699090D2
:100F20001EE04440F012C000E47883F67F01227F87
:100F3000002278940602099B789206E6C394045036
:100F40000302088812221EE47892F61263809080D1
:100F500005E030E7F9122276908005E030E7F9E409
:100F600012220DF0F0F0F0F07893E6700312231DDA
:100F7000908005E030E7F9789206E6C3940440CB10
:100F80007F0022E4F521900011E0600A900010E05B
:100F900020E0037F8322900010E05401900401F0D0
:100FA000900011E0900400F0909016E05418FFBFFC
:100FB000100F306D0CE4FF12C03F909016E054EF1C
:100FC000F02056432057407888E6600A7987E77812
:100FD00086461846601E7F457E407D357C74788548
:100FE000121F08600F7F427E497D4F7C5378851227
:100FF0001F087002D2567885E6600C7988E77887FA
:101000004618467002D2573067562058532057036F
:1010100030564D205D4A206115A262E4332401FF61
:10102000E433FE7883E6FDB5070AE4B50606789951
:1010300076018025306411907218E07899B4B0047C
:101040007610801576028011ED14FF7402A807084F
:101050008002C333D8FC7899F67899E6FF1251994B
:10106000306B188515201220497B107D017C001201
:10107000C00FEF4E7002C26B8520157899E6FFB461
:1010800001271220C17463F0A374B8F0206B03022F
:101090001127900120E064AA60030211277B017AE6
:1010A00001792290720B048059306B61900002E04C
:1010B0007C002416F9EC3400FAA3E029F9EC3AFAA2
:1010C00090720B7401F0A3EAF0A3E9F0EF541460FE
:1010D0001B900140E0B4AA147A01794290720B741B
:1010E00001F0A37401F0A37442F0803B7899E6B458
:1010F0000835900120E0B4AA2E7A01792290720B73
:101100007401F0A37401F0A37422F0801A9038C81F
:10111000E493907209F07E0024BEF9EE3438FA129E
:1011200020C1EAF0A3E9F0E4900000F07899E664C9
:101130000170372060237888E66405701C18E6B4D7
:101140008F1718E6B4931218E6B4840DE4F0A3F0F8
:1011500090721CE054FEF080119000007405F0A322
:101160007480F090721CE04401F0306D1174121222
:10117000209374E1F012C01E122106600122900437
:1011800001E070030212D3900400E0900001F0909F
:101190000400E02480602224FD700302125E248398
:1011A00060030212D0E4900002121F867480F0A344
:1011B0007483F075210702137FE4900002F0306A17
:1011C000227B017A00798090720B04F0A37400F006
:1011D000A37480F0E4907209F0900080E090720AAD
:1011E000F0801C1220C17438F0A374BEF09038C691
:1011F000E493907209F09038C7E49390720AF090EB
:10120000720AE0900003F0E4FF90720AE0FEEFC380
:101210009E50291220C9907209E0FD7C00E92DF949
:10122000EC3AFAEF29F9EC3AFA121780FD74032F21
:10123000F582E43400F583EDF00F80CD900003E0FB
:1012400030E010E004F074032EF582E43400F583FE
:101250007420F0900003E02404F52102137FE49051
:101260000002F0A37432F074F2121F89F0A3740527
:10127000F0A37430F0A37435F0A37438F0A374466F
:10128000F0A37420F0A374F2F07401122042740DE4
:10129000121FB87420F0A3F0A3121FB874F1F074F9
:1012A00002122042740812210D121F891220D5E467
:1012B000A3F0A374F1121F867408F0A37420F0E465
:1012C000A312210DA3F0A31220D575213602137F9E
:1012D0007F83229000017480F0A37404F0A3740251
:1012E000F0A3741FF0E4A3F0A3F0A3F0F520122004
:1012F000C9852082758300121799FF74082520F58F
:1013000082E43400F583EFF00520E520B420DF30DF
:101310006B6A305503205603306605E4900001F0F7
:101320007520017899E6FFB401089000237430F02D
:1013300080383066089000237435F0802D306508C1
:101340009000237436F080223064089000237437B4
:10135000F08017306311EF900023B408057439F062
:1013600080087438F08003E4F520E520600E9000DA
:10137000207438F0A3742EF0A37430F0752124AFDC
:101380002112545022900012E07895F6A3E0F5085F
:10139000A3E0F509900015E0F50AA3E0F50B7889C4
:1013A0001219C800000000900019E0B45106A3E033
:1013B000900010F0900010E0121A12141F0014E5B3
:1013C0000114ED0214FB0314FE04161C051501069E
:1013D000150407150D0815070915100A15130B1527
:1013E000160C15270E168D10152A11152D1215C362
:1013F0001316C21B16CF1C16E51D17561E176F1F9E
:1014000017752014222114222214A42314A42416B4
:10141000162816192A160D801613810000177D0252
:1014200056C890800BE054FC788CF690800AE01847
:10143000F6900011E018F690001AE0B45108908080
:101440000B7420F0801290001AE090800BB4AA0573
:101450007408F080037440F0E4900011F0125E43D1
:10146000788AE6900011F0900010E0B42108A3E023
:10147000FF122F7A800E1224FB126404900011E0F8
:10148000FF124CBD7889A607788CE690800BF01887
:10149000E630E0047F0180027F00900011EFF0123F
:1014A0005E43803C90801AE05480788CF6E0547F54
:1014B000F0900010E0B42408A3E0FF122F7A800E11
:1014C0001224FB126404900011E0FF124CBD7889D5
:1014D000A60790801AE0FF788CE65480FEEF4EF06D
:1014E0007889E6FF22900011E0FF022F7A1224FB98
:1014F000126404900011E0FF024CBD02632602500A
:101500000C024C2B0245BA125E437F03220262C6D4
:1015100002324B02606E7895E6FF5470FEEF54077E
:101520004E90900E021779023DEF025DA4E508602F
:1015300025E4F521E521C3950B40030215C01223D4
:10154000931263D4E5211224D17B01A807FC0D126C
:101550002461052180DE1263D4E5096056E4F5219B
:10156000122543505B74022FF9EE3400FA7B01C060
:101570000174002FF582E43400F583E07D00FC78EF
:1015800095E6FEED2400FFEE3CFE74012521F58278
:10159000E43400F583E07C002FFFEC3EA907A807A8
:1015A000FC0DD0017E007F01121B2674032521F55E
:1015B0002180AD7895E67800FC7A00790012245DF0
:1015C0007F0322E50945086028E4F52112254350F0
:1015D00039EF1224D1FAA9077B01C002C0017800BB
:1015E0007C000DD001D00212238C1261A70521804E
:1015F000DB7895E6FA79007B01C002C00112257202
:10160000D001D0021224611261A77F03221223D5D8
:10161000025BC102646D025C79025A2A7D001224C9
:10162000EE9000007478F0A37404F0900003740747
:10163000F0E4F521AF21124B99E52175F004A4AE39
:10164000F02410F50DE43EF50CFE7400250DF58236
:1016500074003EF583E521F07401250DF5827400D8
:101660003EF583E509F07402250DF58274003EF520
:1016700083E50AF07403250DF58274003EF583E5D9
:101680000BF00521E521C3947840A9805290001108
:10169000E0F521AF211521EF6025AE08AF09E42F59
:1016A000FFE43EFAA9077BFFC002C001122572D0F9
:1016B00001D00212238C1261A70508050880D47F8F
:1016C000032278007C007A70790012245D80101269
:1016D00025727B007A0079007E017F00121B2612A2
:1016E00061A77F0322900011E0600BD259908040E7
:1016F000E04401F08009C259908040E054FEF0E5DA
:1017000008B45105AF09125D6AE50A64517044E5F9
:101710000B30E00790801AE04480F0E50B30E107E1
:1017200090801AE0547FF0E50B30E20790801AE0D9
:101730004401F0E50B30E30790801AE054FEF0E539
:101740000B30E4057F0112C057E50B30E505E4FFDF
:1017500012C0577F0322900011E090800A6006E0DB
:101760004402F08004E054FDF01234E77F032212BB
:101770005E7C7F0322E4909012F07F03227F83221D
:10178000BB010689828A83E0225002E722BBFE0267
:10179000E32289828A83E49322BB010CE58229F546
:1017A00082E5833AF583E0225006E92582F8E622B5
:1017B000BBFE06E92582F8E222E58229F582E5836F
:1017C0003AF583E49322EF8DF0A4A8F0CF8CF0A437
:1017D00028CE8DF0A42EFE22BC000BBE0029EF8D7A
:1017E000F084FFADF022E4CCF875F008EF2FFFEEA7
:1017F00033FEEC33FCEE9DEC984005FCEE9DFE0FB5
:10180000D5F0E9E4CEFD22EDF8F5F0EE8420D21C0F
:10181000FEADF075F008EF2FFFED33FD4007985057
:1018200006D5F0F222C398FD0FD5F0EA22C5F0F8F4
:10183000A3E028F0C5F0F8E582158270021583E078
:1018400038F022E88FF0A4CC8BF0A42CFCE98EF0C9
:10185000A42CFC8AF0EDA42CFCEA8EF0A4CDA8F018
:101860008BF0A42DCC3825F0FDE98FF0A42CCD35DC
:10187000F0FCEB8EF0A4FEA9F0EB8FF0A4CFC5F046
:101880002ECD39FEE43CFCEAA42DCE35F0FDE43C3F
:10189000FC2275F008758200EF2FFFEE33FECD338A
:1018A000CDCC33CCC58233C5829BED9AEC99E582D1
:1018B00098400CF582EE9BFEED9AFDEC99FC0FD55D
:1018C000F0D6E4CEFBE4CDFAE4CCF9A88222B8004D
:1018D000C1B90059BA002DEC8BF084CFCECDFCE518
:1018E000F0CBF97818EF2FFFEE33FEED33FDEC333C
:1018F000FCEB33FB10D703994004EB99FB0FD8E5C1
:10190000E4F9FA227818EF2FFFEE33FEED33FDEC09
:1019100033FCC933C910D7059BE99A4007EC9BFCFF
:10192000E99AF90FD8E0E4C9FAE4CCFB2275F0108B
:10193000EF2FFFEE33FEED33FDCC33CCC833C810B0
:10194000D7079BEC9AE899400AED9BFDEC9AFCE8DE
:1019500099F80FD5F0DAE4CDFBE4CCFAE4C8F9222B
:10196000EB9FF5F0EA9E42F0E99D42F0E89C45F0DD
:1019700022E8600FECC313FCED13FDEE13FEEF1332
:10198000FFD8F122E8600FEFC333FFEE33FEED33F3
:10199000FDEC33FCD8F122E6FC08E6FD08E6FE0883
:1019A000E6FF22E6FB08E6F908E6FA08E6CBF822AD
:1019B000ECF608EDF608EEF608EFF622ECF0A3EDF3
:1019C000F0A3EEF0A3EFF022D083D082E493F608E8
:1019D000740193F608740293F608740393F6740482
:1019E00073A8828583F0D083D0821219F81219F877
:1019F0001219F81219F8E473E493A3C583C5F0C56E
:101A000083C8C582C8F0A3C583C5F0C583C8C58295
:101A1000C822D083D082F8E4937012740193700DC1
:101A2000A3A393F8740193F5828883E473740293FB
:101A30006860EFA3A3A380DF8A838982E473EF4EFB
:101A40006012EF60010EEDBB010B89828A83F0A367
:101A5000DFFCDEFA2289F05007F709DFFCA9F0224B
:101A6000BBFEFCF309DFFCA9F022E709F608DFFA68
:101A70008046E709F208DFFA803E88828C83E70916
:101A8000F0A3DFFA8032E309F608DFFA806EE3099B
:101A9000F208DFFA806688828C83E309F0A3DFFA1C
:101AA000805A89828A83E0A3F608DFFA804E898211
:101AB0008A83E0A3F208DFFA804280D280FA80C6EF
:101AC00080D4805580F28029801080A680EA809A98
:101AD00080A880DA80E280CA802988848C85898207
:101AE0008A83E493A30586F0A30586DFF5DEF38001
:101AF0000B89828A83E493A3F608DFF9ECFAA9F054
:101B0000EDFB2288848C8589828A83E0A30586F098
:101B1000A30586DFF6DEF480E389828A83E493A35B
:101B2000F208DFF980D688F0EF60010E4E60CD88B4
:101B3000F0ED2402B4040050C3F582EB2402B40497
:101B40000050B92323458223901ABA7390900FE076
:101B50006020909023E4F0A37403F090902DE05463
:101B600007F0E04478F090902174E1F074E9F074AB
:101B7000E1F0E4908008F0908007F0909001E0B4EC
:101B800005069080087480F0E4909001F0E0700306
:101B9000021E34E064057003021E34E490900FF0DE
:101BA00078B3764890900704F0909030E04401F0CC
:101BB000909001E024FE7003021C5224F77003028F
:101BC0001CBA240224FC4003021C757003021CB2E0
:101BD000147003021D46147003021D39240E6003A5
:101BE000021E191262AE904102E030E7F990410204
:101BF000E030E0F9E4F514E5149064AE93FF74006E
:101C00002514F582E4340EF583E06F6003021E1B99
:101C10000514E514B408E0900E407411F0A374228A
:101C2000F0A37433F0A37444F0A37455F0A3746666
:101C3000F0A37477F0A37488F0E4904102F0A374E9
:101C400008F0904102E020E1F99090017401F00267
:101C50001E191262AE904107E030E4F990801CE05A
:101C6000540FFFBF0FF6E4908007F0904107E04467
:101C700020F0021E19AF0BAE0AAD09AC08C006C0B9
:101C800007AE0CAF0DAB07AA06E4F9F8D007D006F3
:101C90001218CE8F0B8E0A8D098C08AF0BAE0AADD1
:101CA00009AC08780A1219718F0B8E0A8D098C08FD
:101CB00080FE90800B7480F08005E490800BF090A3
:101CC000800A7410F09080077440F0E4F5161263F7
:101CD00006E478B4F6F515E4908006F0908005E00F
:101CE00030E0F990800BE054036005E4FF1242BA43
:101CF0000515E515C3940240DE90800A7411F0903A
:101D0000800774FFF07516021264467514021261A2
:101D1000F512630690800774C01262A7908005E0F8
:101D200030E0F990800BE0540360047F0080027F74
:101D300001909001EFF0021E1990801AE04401F02A
:101D400090800A7411F0E4909002F0909005743045
:101D5000F09090027401F000000000909001E0B457
:101D60000E05E490800AF09080077440F090800B9C
:101D70007404F0908005E030E7F990800074FFF083
:101D8000908005E030E7F9E4908000F0A3F0F0F0F7
:101D9000F0909001E0B40F05E4908001F090800095
:101DA0007430F0908005E030E7F974101262A4906E
:101DB0008005E030E0F974141262A4908005E030F0
:101DC000E0F990801474181262A7908005E030E06A
:101DD000F9908014741C1262A7908005E030E0F93D
:101DE0009080157455F074AAF09080147410F0E48B
:101DF000908022F0A37405F09080177408F0908012
:101E00001674C0F0908016E020E0F9908015747789
:101E1000F0E4908023F002D00080FEE4909001F086
:101E2000E0B4780EE4FDFF12511812C04BE4FF122B
:101E3000594180FE759852758921758DFFD28EE4C7
:101E4000F58CF58AD28C4387807898F675995590F1
:101E500090107408F0909030E054FEF0909012E0F2
:101E600030E005E490900FF090900174FFF0125272
:101E700090908008E0B4800690900E7433F09090BB
:101E80000AE020E707909000E030E449909016E0E7
:101E900030E017907388E0B45110A3E0B4460BA370
:101EA000E0B45706A3E06454602612471912625F3B
:101EB000909016E04401F09073887451F0A374463A
:101EC000F0A37457F0A37454F0E4909010F08009DC
:101ED00012625F8008124719E490900FF0E490902E
:101EE00010F00248707F147E007D007B017A00793B
:101EF00000021A3EE50D250BFFE50C350AFEE43520
:101F000009FDE43508FC788D1219A3C3021960E0BD
:101F1000FCA3E0FDA3E0FEA3E0250BF50BEE350AE4
:101F2000F50AED3509F509EC3508F50822FFE02F33
:101F3000FFE433FE74002FF58274023EF583E06403
:101F4000AA22EF24FFFFEE34FFFEED34FFFDEC3458
:101F5000FFFC0219BC908017E0250DF50DE4350C4F
:101F6000F50CFE7809AF0DE4FCFD12198478892286
:101F7000AF0BAE0AAD09AC0878021219848F0B8E34
:101F80000A8D098C0822F07403A3F0E4A3F0A322C5
:101F9000C2547A0079007E007F009044007400F003
:101FA000A37400F0E4904104F022904101E0441059
:101FB000F07881E64410F622F0A37441F0A3744C4B
:101FC000F0A37443F0A3744FF0A37452F0A32274EF
:101FD000002521F582E43402F583E022909002E0AE
:101FE000FF907203E054604480FEEF4E909002F048
:101FF00022A25CE433FF74047E00A8070822E0FC00
:10200000A3E0FDA3E0FEA3E022AE0CAF0DE4FCFDD7
:10201000FB7A02F9F8121843788922FF7E00E07CEF
:10202000002400F9EC3402FA7B012278007C007D68
:102030000122FF7E00E07C002400F9EC3403FA7BEF
:102040000122A3F0E4A3F0A322907105E0F515901E
:102050007206E0FEA3E0FF22FEED9400FDEC94008A
:10206000FC78890219B0FFE02FFFE433FE74002FE3
:10207000F582740322904107E054BFF0907202E0B1
:102080004440F02274012521F582E43402F583E016
:10209000240222907215F09072167401F0903C5058
:1020A000229000027480F022789576057896227846
:1020B000957602789622AB0BAA0AA909A8080219FC
:1020C0006090720B74FFF0A32290720BE0FBA3E010
:1020D000FAA3E0F9227405F0A37408F0A3740FF0DA
:1020E000227D017B017A0079117E0022788D121900
:1020F00097780202197178891219A3D3021960CE58
:10210000A2E713CE13227880E6FF640222F0A374C4
:1021100049F0A37445F02278957606789622E52357
:102120002405F582E43522F583E022121B267A008D
:1021300079007E007F009044007400F0A37400F0EA
:1021400022AF187E0078A4E6FAFD7C001217C6784C
:1021500091E625E02427F582E43472F583EEF0A3BE
:10216000EFF0E5198AF0A4FFE625E02427F582E4E4
:102170003472F583227885E6FFE5252404F582E4B0
:102180003524F583E5822FF582E43583F583E0225B
:102190007895E6F5157BA0AD0BAC0AAF09AE082229
:1021A00075F00CE51BA42415F582E5F03470F58379
:1021B000E0540F22789DE0FEA3E0A60608F622E593
:1021C00014FD7C00AE0AAF0B0217D87E027B017AA9
:1021D000007900021A3E9073FCE0FEA3E0F5828EC7
:1021E00083E0908061F09073FDE004F02285258209
:1021F000852483229073F7E02FF09073F6E03EF091
:10220000229080157455F074AAF02274EF9080002B
:10221000F0908001227D017B017A1079002290806C
:102220001AE054FEF090800AE05480F02225E0FE8F
:10223000E42400FFEE34A0227E007D00AA22A92320
:102240007B01021A3E78A5E0FEA3E0A60608F6226E
:102250007D017B017E00021B2675F00CE51BA4248A
:1022600014F582E5F0347022908040E0FFA259E43A
:1022700033FEEF4EF02290800074FFF022EA25E05A
:1022800024E6F582E43462F58322E518C313F518D9
:10229000E519C313F51922E05470FFE054074F907D
:1022A000900EF0229080157477F0229080007405D3
:1022B000F0E4908001F0F022F090801AE0547FF07A
:1022C000229080907408F09080067489F022F0903B
:1022D000800074E0F022E6FFE5232423F582E43554
:1022E0002222E0FCA3E0FDF5828C83A322EBC31342
:1022F00078B2F678A406E622FEA3E02523FFEE35A9
:1023000022FE22E04401909005F022908017F09088
:10231000801674C0F02290800B7440F022908000F0
:102320007430F022902005E05407227508007509EA
:1023300080229080147420F02285238285228322BB
:102340009090027401F022FF7891E6C39F227A04F4
:1023500079007E047F009044007404F0A37400F0C0
:1023600022907274E0FCA3E0FDA3E0FEA3E02290C3
:102370008017E0250DF50DE4350CF50CFEAF0DE4EE
:10238000FCFD780912198478890219B07E027F0059
:10239000121B267A0079007E007F009044007400B2
:1023A000F0A37400F022E4908014F0900016E0F5A1
:1023B0000CA3E0F50D78911219978F0B8E0A8D09F9
:1023C0008C08E50D250BFFE50C350AFEE43509FD0B
:1023D000E43508FC22900010E0900074F0900011A9
:1023E000E0900075F0900012E0900076F0227DFF02
:1023F0007E027F007B017A047900021A3E250BF5EC
:102400000BEE350AF50AED3509F509EC3508F50846
:1024100022250BFFEE350AFEED3509FDEC3508FCF3
:10242000907270E0F8A3E0F9A3E0FAA3E0229071C3
:1024300005E0F515907206E0FEA3E0FF22F0A26130
:10244000E433A3F0A25DE433A3F0A258E433A3F095
:10245000A250E433A3F0A270E433A3F0227D017B09
:10246000017E027F00021B26900011E0FCA3E0FD2C
:10247000A3E0FEA3E0FF78911219A3C3021960F054
:10248000A266E433A3F0A263E433A3F0A265E433CD
:10249000A3F0A267E433A3F02225E024C2F582E48E
:1024A0003472F583222FF50BEA3EF50AE93DF50972
:1024B000E83CF5082275F002EFA42400F582E5F06F
:1024C0003405F5832274002521F582E43404F58374
:1024D000227D0025E0FC7895E6FEED2400FFEE3C31
:1024E00022FFAB0BAA0AA909A808C30219607E0241
:1024F0007F007B017A007900021A3E900017E0FE0F
:10250000A3E0FF22904106740DF0E4904105F0D263
:102510005422789BE644F6F622C394FFEE940722F9
:10252000907105E0F51522F582E43402F5832290DE
:1025300000747451F0A3222DFDE4338D82F583E401
:1025400093FE22AF217E00C3EF9509EE95082290FD
:10255000000DE07883662204F0A264E433A3F0A3C4
:1025600022907218E064B022ED5407FA7401A802B8
:10257000082278007C007D01228E248F258D268BF9
:10258000277529FF8F828E83E0540F640C60037FD0
:102590000022E47887F61221EDE0540F640C60030A
:1025A00002276DE529B4FF069073F5E0F529E527CC
:1025B000600B7887E6C3952740037F00221221ED48
:1025C000A3E0C4540F1263831221EDA3A3E0540FC0
:1025D0007888F61221EDA3A3A3E0F528908005E00A
:1025E00030E7F9E47885F67985E7C3788896503343
:1025F0007885E6FF7401A807088002C333D8FC7809
:1026000086F6E528566010908005E030E7F9122143
:1026100075908000F08007122175908001F0788518
:102620000680C41221EDA3E0540F7888F6E52770E8
:1026300001F690801AE030E75B1221EDE0C4540F00
:10264000F52875F005A4FFAEF01221F41222E2E0A5
:10265000908064F08D828C83E0908092F09073F68D
:102660001222E2A3E0908065F0ED2404F582E43CC0
:10267000F583E0908063F09073F6E0FCA3E0F582D0
:102680008C83A3A3A3E0908062F0C3E49FFFE49E49
:10269000FE1221F4E47885F67985E7C378889640C0
:1026A00003022758908014E526F0908005E030E77B
:1026B000F9E4908006F0908005E030E0F9908067C2
:1026C000E030E0037F0022908005E030E0F9908068
:1026D00067E030E0037F002290800BE05403600D40
:1026E000E030E109E529600280157F002290800535
:1026F000E030E13590800AE020E12EE529602715E1
:10270000291221EDA3A3E0C4540FF52875F00CA401
:10271000FFC3E49FFFE495F0FEEF2525F525EE3598
:1027200024F5240225AE7F002290800BE020E508EE
:10273000E020E604E030E30C78850678870605267D
:102740000526800E788506067887060674042526F9
:10275000F5267529FF0226987887E66527600E74AE
:102760000C2525F525E43524F5240225967F012244
:102770007D001223F0907268122364FF900400120F
:1027800019BC90040474F1F0A37401F0A374A1F0D7
:102790007B017A72796C125AFB9004071219BC9073
:1027A000040B74A2F07B017A727978125AFB9004C0
:1027B0000C1219BC90041074A3F0E4A3F0A26C33C3
:1027C000A3F0A374A4F07B017A72797C125AFB9077
:1027D00004141219BC90041974A5F07B017A727963
:1027E00070125AFB90041A1219BC90041F7401F065
:1027F000A374A6F0A25FE433A3F090042374A7F0BF
:1028000090042612255774A9F090042B04F0A26DB1
:10281000E433A3F090900AE090042DF090042F741C
:10282000AB12247FA25CE433900436F0A25AE43366
:10283000A3F0907203E090043812243D7B017A7279
:102840007974125AFB9005001219BC90050474B0FB
:10285000F0907219E0900505F090721BE09005066B
:10286000F0907218E0900507F090721AE090050859
:10287000F0A374C0F0789AE6A3F0A374B1F09005C9
:102880001004F0789FE6A3F008E6A3F0A374B3F079
:10289000A26CE433A3F0907208E0900515F0A374E5
:1028A000B4F0789BE6FFA3F0789CE6FEA3F0A37457
:1028B000B5F090052404F0A3EFF0A3EEF0900530FE
:1028C00074B7F0909000E0900531F090053574B841
:1028D000F090054004F0907102E0900541F078A579
:1028E000E6A3F008E6A3F0907105E0900544F090AF
:1028F0007206E0900545F0907207E0900546F09072
:1029000090287401F0E4F000909029E0900550F0D8
:1029100090902AE0900551F090902BE0900552F0B5
:1029200090902CE0900553F078F07C057D017B01C0
:102930007A7179F07E007F10121B26205306122335
:102940004E1261A77F0322306530789AE630E02A84
:1029500090000FE0248F24FC501D24F2601924ED18
:10296000601524FC60140424FB500C24A960082486
:10297000FB6004247970037F8222D25290000FE022
:10298000121A122AC7102ACE112A24122A7F712A5B
:1029900083722A87732A8B742A8F752A9A762AA3C0
:1029A000772AAC782AB57B2ABE7C2A5F812A6A8284
:1029B0002A75832A55962A04972A35992A3D9A2AF8
:1029C000459B2A1C9C2A4D9D2A2DF529E4F629ECCD
:1029D000F72A0CF829F4F92AD5FA29FCFB2A17FF63
:1029E00000002ADC12572B8F20022ADF1254BD8FE1
:1029F00020022ADF1260048F20022ADF1261538F27
:102A000020022ADF1264A68F20022ADF1223D512A9
:102A10005DDE8F20022ADF126431800B1253E38FB8
:102A200020022ADF126282752003022ADF123BE0B5
:102A30008F20022ADF1230E78F20022ADF12277050
:102A40008F20022ADF125F258F20022ADF124D4DD0
:102A50008F20022ADF7F011237648F20022ADF12C3
:102A600023D51261CE8F20022ADF1223D5125D2FCB
:102A70008F20022ADF1223D51260398F2080607FD9
:102A80000280197F02801E7F0280237F02802890AF
:102A9000721CE04402F07F0280267F03125BFF8FEE
:102AA00020803C7F031263448F2080337F03125CBD
:102AB0003C8F20802A7F03124DDD8F2080217F03F1
:102AC00012466B8F2080181249BA8F20801112494C
:102AD000178F20800A1213858F208003752082C2F1
:102AE00052AF202290000FE0F51E7889121997EC62
:102AF0004D4E4F601290000CE0648060047F0380B4
:102B0000027F028F1F8003751F017884A61F306D1E
:102B10001D30691A907215E51EF0E4907216F0905F
:102B20003C5074E2F012C01E122106600122E51E24
:102B3000121A122C20002C06032C63042BA1122C39
:102B400063152BC31A2C131B2C2D1E2BE5232BF6E0
:102B5000252B7F282B902A2BB22F2C3A432C47452C
:102B60002C4E462C55512C5C522BD45A2BF69E2CB5
:102B70006FA22C63A32C63BB2C68BE00002C76E5EF
:102B80001F64026003022C7E122C818F1D022C7B9D
:102B9000E51F64036003022C7E123AD68F1D022CBF
:102BA0007BE51F64026003022C7E120F838F1D02DF
:102BB0002C7BE51F64016003022C7E12647F8F1D55
:102BC000022C7BE51F64026003022C7E1239C38F46
:102BD0001D022C7BE51F64026003022C7E12362747
:102BE0008F1D022C7BE51F64026003022C7E1256AF
:102BF000628F1D022C7BE51F64026003022C7E1293
:102C00003EF48F1D8075E51F64027072125EED8FB9
:102C10001D8068E51F64017065125CB68F1D805BC6
:102C2000E51F640170581255FB8F1D804EE51F642F
:102C300001704B12648D8F1D8041E51F6402703E50
:102C4000124AFD8F1D80341264B68F1D802D1257DD
:102C5000ED8F1D8026125A718F1D801F125AB68F5C
:102C60001D8018751D038013125B818F1D800C124F
:102C700060FA8F1D80051229478F1DAF1D227F82AC
:102C80002212641B7899E66401702E90721CE03069
:102C9000E027AE0CAF0DE4FCFD780B1219847889A7
:102CA000121F087014121F70E50DAE0C7802C333AA
:102CB000CE33CED8F9F50D8E0C122009121F086004
:102CC000037F84221253758F20EF30E70122788D25
:102CD000121997D31220B64009305603022D9C7F5B
:102CE0008A22121EF450037F8A22121FDC122075E2
:102CF0002064047F0180027F00907218E0B4B00469
:102D00007E0180027E00EE5F7003022DBB121FF178
:102D100080031220FFD8FBFF7899E66F7001EE6008
:102D200003022DBB78891219C800000000E4FFFEE1
:102D3000FDFCC31220B670647899E6B40412907258
:102D40006CE0FCA3E0FDA3E0FEA3E0F50B121F7F07
:102D500090721EE50CF0A3E50DF0750C00750D01E9
:102D600012C0038F20E52030E71890721EE0700437
:102D7000A3E06401700FE52030E0047F0180027F52
:102D800003227F8922908016E020E0F990721FE0F4
:102D900024FFF50D90721EE034FFF50C7E0C7F00D1
:102DA0007DFF121EEBE50D450C600D1261A7E50DD0
:102DB000150D70F1150C80ED7F0322125F9312C088
:102DC000038F20E52030E72D30E01C904102E030F9
:102DD000E0031200AB904104E020E1EF3054031215
:102DE0001F90752001800375200378891219C8008F
:102DF0000000008009121F551219B0752089AF20FC
:102E000022904106E0547FFFBF211C7F437E427D1C
:102E1000537C55900000E0F8A3E0F9A3E0FAA3E0AA
:102E2000FBC31219606007788476027F82227B01DF
:102E30007A007904125AFB78851219B07B017A0066
:102E40007908125AFB78891219B07A0079007E004D
:102E500012401690000DE07883F690000FE0306E7F
:102E60003F6412602A7888E6B4051718E6B48F121A
:102E700018E6B4930D18E6B4840890721C7402F03E
:102E8000800690721C7407F0306504E4789BF6C2EB
:102E90006EE47899F678A1E6F5159090077401F044
:102EA000206C03022F55A264E433FF907218E0FEF9
:102EB000B4B0047D0180027D00ED5F6023A25CE47C
:102EC00033FF7883E6FDB5071220670F7402A8056B
:102ED000088002C333D8FCF51D8037751D10803281
:102EE000206115A262E4332401FDE433FC7883E61B
:102EF000FFB50511E4B5040D306305751D0880129A
:102F0000751D01800D7402A807088002C333D8FC28
:102F1000F51D306756205853205703305603305D57
:102F2000273064117883E670028025EE64B0603B40
:102F3000751D0280367883E6FF7401A807088002B9
:102F4000C333D8FCF51D80233064207883E6601BF2
:102F5000751D0180167883E67008907208E0F51DF3
:102F60008009751D04789CE64404F6E51D78996691
:102F70006005AF1D1251997F02228F22851523789B
:102F800095E6F51590800BE020E608E020E504E0EA
:102F900030E34B7B2012219712C00FE52270030211
:102FA0003062E4908014F0FE7F40FD122217121A66
:102FB0003E908005E030E7F9E4908006F0908005CF
:102FC000E030E0F990800BE030E10690100074EE04
:102FD000F07D017F017E00126219152280BDE5227D
:102FE00030E0037F89227B2012219712C00FE490EA
:102FF0008014F0852224FE7F40FD122217121A3E13
:10300000908005E030E7F9E4908006F0908017E5C5
:1030100024F09080167480F0908016E0540A60F8D6
:10302000908016E030E12D90800BE030E1057522B4
:10303000EE8007E4FF1242BA8F22908017E0FFC3B0
:10304000E5249FFFC3132400F582E43410F583E5E3
:1030500022F080BE908016E020E0F9904104E0204C
:10306000E1F990800BE0900000F0908005E020E115
:103070002D1263ED900001EEF0A3EFF0908030E0B0
:10308000900007F0908031E0900008F0908032E0EE
:10309000900009F0908033E090000AF080189000D2
:1030A000017407F0A374FFF07E007F04FD7B017ABA
:1030B000007907121A3E900003E508F0A3E509F035
:1030C000900005E50AF0A3E50BF090000B74AAF060
:1030D000780C7C001222157E007F4012212B126199
:1030E000A78523157F0322907218E064C060037FD8
:1030F000892220530612234E1263D47B017A04796D
:1031000000125AFB90726C1219BC7B017A0479068A
:10311000125AFB9072781219BC7B017A04790B1257
:103120005AFB90727C1219BC7B017A04790F125AF7
:10313000FB9072701219BC7B017A047940125AFB21
:103140008F0B8E0A8D098C08900445E090720EF06A
:10315000900446E090720FF0900444E06451704C8B
:103160009004FEE0644A7028A3E0644E7022FF7869
:10317000ADE6FEEFC39E50141224B5E0FCA3E0FDC3
:10318000EF122499ECF0A3EDF00F80E3E4789CF6C5
:10319000AF0BAE0AAD09AC08EC4D4E4F600EAF0B55
:1031A000AE0AAD09AC089072681219BCC262A26482
:1031B0008267400F90726C122364FFEC4D4E4F609B
:1031C00002D262900404E0B45103D38001C3925C44
:1031D000306703206406A25CA062925C9072781251
:1031E0002364FF1224202FF50BEA3EF50AE93DF592
:1031F00009E83CF5082060099072701223641223DC
:10320000FD907268122364C3950BFFEE950AFEEDE4
:103210009509FDEC9508FC9072741219BC30672179
:1032200030641E122361FF90726C122423FBC3EFE3
:103230009BFFEE9AFEED99FDEC98FC9072741219CA
:10324000BC7899E6FF1251997F0322C26DC26912C0
:103250002201E4F522E522C3789596501D12212E15
:103260001263D4E52212222DA807FC7D017B017E8A
:10327000027F00121B26052280DB1222A412212EBF
:103280001263D49001FEE0B44A06A3E0644E6003EA
:103290007F8922900000E090800AF030E00678A25A
:1032A00076408004E478A2F67898E6B480079080AF
:1032B0000AE04480F0900002E078ADF6900004E06F
:1032C000F512A3E0F513900006E078AEF690000842
:1032D000E0F51490000A1221B490000C789F12229D
:1032E0004790000EE0F510A3E0F5119001EAE0F53B
:1032F0000EA3E0F50F900191E0909009F090019FEE
:10330000E0B4510AD2599080407401F08007C2594C
:10331000E4908040F0E4909002F0900192E070041C
:10332000A3E0601D900010E05470909005F09001B3
:1033300092E0FEA3E0FF124A5C9090057490F0804A
:1033400006900010122303122340900194E06003C2
:10335000122297900011E0FF125D6A9001A7E078B9
:10336000A3F6E670027604D26D78007C717D017B55
:10337000017A0179007E007FF0121B269071031202
:10338000224590710FE078A2F61234E7907121E0A7
:10339000B45102D26912C0007F03228F2290720AB8
:1033A000E0FF70030234E3D3944040047E40800287
:1033B000AE07E4FFEFC39E503190720BE0FBA3E039
:1033C000FAA3E0F9907209E0FD7C00E92DF9EC3AEE
:1033D000FAEF29F9EC3AFA121780FD74402FF582C2
:1033E000E4340EF583EDF00F80CA7898E6FF20E60E
:1033F00006E52264026009EF30E615E522B4071005
:10340000900E567440F0E4A3F0900E5D744080146A
:10341000E522B40613900E40740AF0A37406F090EF
:103420000E487401F0E4A3F0E522B40706900E41C3
:103430007407F0E52264016006E52264067030300E
:103440006C1C907000E0B40D15A3E0B40610A3E06E
:10345000B4050BA3E0B4060690700AE08001E49086
:103460000E42F0900E437402F0900E477440F0E567
:10347000226401702B900E4AE0B48006A3E06493AE
:10348000600AD26C900E507403F08007C26CE49016
:103490000E50F0206D0A900E4A7434F0A37412F0AE
:1034A000E52264026005E522B40708907205E09009
:1034B0000E48F0904103EEF0904102E020E1F990D7
:1034C0004102E054216005E054FEF022904102E008
:1034D00020E01390720AE0C39EF0907209E02EF093
:1034E00002339D12406C2290800AE030E10575188D
:1034F00002803C90800BE030E702800790800BE078
:1035000030E505751848802790800BE030E605759A
:1035100018C8801B90800BE030E40575181E800FE2
:1035200090800BE030E305751810800375182C901F
:10353000800BE020E504E030E305751902800F9070
:10354000800BE030E605E4F519800375190478A2D4
:10355000E654C0600312228A9071EEE030E348E442
:103560007891F6A3E078B2F6E66018E478A4F678ED
:10357000B2E6FB30E007122141E02FF0061222ED07
:10358000B408EC9071EDE078B2F6E6605378A4767A
:103590000878B2E6FB30E007122141E02FF0061276
:1035A00022EDB410EC8039E478A4F6E514C313FFDF
:1035B00078A4E6C39F5029AF187E00E6FBFD7C008F
:1035C0001217C6EB122169EEF0A3EFF078A4E6FF24
:1035D000E5198FF0A4FEEF122169E02EF00680CBF2
:1035E000907195E0703990800BE030E70280109088
:1035F000800BE030E602800790800BE030E5057834
:10360000B276262290800BE030E40578B276122262
:1036100090800BE078B230E3037606227616229093
:103620007195E078B2F622900011E0543FF52075D4
:1036300021FF7522807899E6640160030236FE90CE
:10364000721CE020E0030236FE12645AEF604E90D6
:103650000202E06048A3E0FF900202121F2E703DBC
:10366000900202E02408F521E520B43F08A3E024FD
:10367000F8F5228028121FCF64AA6010121FCF65B0
:103680002060091220842521F52180E9121FCF64D2
:10369000AA6007122084F52280037521FFE521B47A
:1036A000FF097E007F80121EE9804F900202E07EBB
:1036B000002400F9EE3402FA7B01C002C00112209E
:1036C0002BD001D0027F08121B26AF227E007C0087
:1036D00074002521F9EC3402FA7B01C002C00178A4
:1036E000087C007D01D001D002121B26E5222406B1
:1036F000900001F074082522F522AF228062E49048
:103700000000F0A37406F0E4A3F0789AE6FB54F905
:1037100060047F8080027F00900003EFF0A3121905
:10372000E100000000EB789956540660031220A1D6
:1037300020560330570C7899E6B4010690000374C4
:1037400080F0306C197899E6FF54186011EF30E47E
:103750000790721CE020E3069000037480F07F085D
:10376000125450228F227E027F007D001223F4909B
:10377000040974F1F0907268122364FF90040A1235
:1037800019BC90040E7498F0A374F1F0A304F090A7
:10379000726C122364FF9004111219BC900415740A
:1037A000F3F0907270122364FF9004161219BC900B
:1037B000041A74F4F0907278122364FF90041B12C0
:1037C00019BC90042074F5F090727C122364FF9071
:1037D00004211219BC90042574F6F0122361FF90A5
:1037E00004261219BC90042A74F7F0E4A3F0A30491
:1037F000F0789AE6541690042EF0A374F8F0A25FC5
:10380000E433A3F0A374F9F090043312255774FB4A
:10381000F0A255E433A3F0A374FC12247FA25AE46F
:103820003390043FF0A260E433A3F0A25CE433A33E
:10383000F0907203E0900442F0A25EE433A31224FD
:103840003D90048074E1F090048504F0E478A4F6DF
:1038500079A4E7C378AD96501778A4E6FF122499AF
:10386000E0FCA3E0FD1224B5ECF0A3EDF00680E04F
:10387000789AE69005FFF0E522600612234E126169
:10388000A7E4FF12C036EF601278891219C8000051
:103890000000306C031225127F03227F8922090267
:1038A00020000101008032090400000208065000D7
:1038B00007050102000200070582020002000C1247
:1038C0001E0422183A286210721C12010110000016
:1038D00000408F05809301000102000104030904E8
:1038E000180341006C0063006F00720020004D005F
:1038F0006900630072006F0028034D0061007300CF
:1039000073002000530074006F00720061006700B4
:1039100065002000440065007600690063006500D2
:103920001003360039003900300046003000310005
:1039300047656E657269632055534220466C61731A
:1039400068204469736B2020372E373647656E65D3
:103950007269632055534220534420526561646567
:1039600072202020312E30300000000000000000C6
:1039700000AAAAAAAAAAAAAAAAEEEEEEEEEEEEEE75
:10398000EEFEFFFFFFFFFFFFFFFFFFFFFF7FBFDF39
:10399000EFF7FBFDFC7EBFDFEFF7FBFD7E050F0CB5
:1039A0000001071002020000001A03300035003841
:1039B000004600360033003300380036003300374D
:1039C000003800E4F5207899E6B4010A90721CE012
:1039D00030E0037F8322900010E054081313135447
:1039E0001F900400F0900011E0543F900402F0900A
:1039F0000012E0900403F0900013E0900404F090B3
:103A00000014E0900405F07E027F00121EE9E490AD
:103A10000001F0789AE6FF54F960047E8080027E0F
:103A200000900002EEF0E4A3F07520047899E6FE21
:103A30005F540660031220A1205603305707EEB4EE
:103A400001031220A1306C167899E6FF5418600E1D
:103A5000EF30E40790721CE020E3031220A1306DE8
:103A600011741A12209374E0F012C01E1221066025
:103A70000122900402E0900004F0900402E060490A
:103A800024F8601224C96018242370309000057453
:103A90000AF0740C80209000057412F074148016E3
:103AA0009000047408F0A37412F0900018741CF0D5
:103AB000A3740AF074202520F520800D9000057471
:103AC00001F0E4A3F005200520E52014900000F0AB
:103AD000AF201254502212641B7899E664017027BB
:103AE00090721CE030E020AE0C780B121F65121FA4
:103AF000087014121F70E50DAE0C7802C333CE337C
:103B0000CED8F9F50D8E0C122009121F0860037F24
:103B100084221253758F20EF30E70122121EF450D9
:103B2000037F8A22306C197899E6FF64016046EFC2
:103B300020E30A30E40A90721CE020E3037F87222E
:103B4000789AE6600F54066008799AE7789956608B
:103B5000037F8722907218E064B0702EA25C121F5F
:103B6000F480031220FFD8FBFF7899E67C00B507AC
:103B700019ECB50615E50D150DAE0C7002150C4EC1
:103B800060051263D480EE7F0322122075121FDCC1
:103B9000125F9312C0068F20E52030E72D30E01C25
:103BA000904102E030E0031200AB904104E020E1DC
:103BB000EF305403121F90752001800375200378A5
:103BC000891219C8000000008013121F551219B085
:103BD000752089E50D450C700478847601AF2022AC
:103BE00020530612234E1263D4900408E0645170EF
:103BF0001A90721CE054F7F090040CE06007907289
:103C00001CE04408F01225127F0322C266C263C280
:103C100064C265C267C25AC25FC260C25EC261C28C
:103C20005DC258C250C270900403E06451600890B5
:103C30000407E064517045900403E0B45102D2647B
:103C4000900407E064517053D267900400E0B451CF
:103C500002D25F90040EE0B45102D25E90040FE0F5
:103C6000B45102D260900413E0B45104D25D802BB1
:103C7000900414E064517023D258801F900404E033
:103C8000B45104D2668014900405E0B45104D263A8
:103C90008009900406E0B45102D26590040BE0B4B0
:103CA0005102D25A900409E0B4510DE4907202F02E
:103CB00090040AE0907203F0305A047F0180027F82
:103CC00000909001EFF0900412E0B45106A26772E8
:103CD000639261900415E0B45102D250900416E052
:103CE000B45102D2707F032290714CE0B45106A30C
:103CF000E0FF125CF3907012E078A2F690800AE088
:103D0000FF907013E0FEEF4E90800AF09071F0E0AB
:103D1000F510A3E0F5119071EAE0F50EA3E0F50FC0
:103D20009071F2E078ADF69071F4E0F512A3E0F551
:103D3000139071F6E078AEF69071F8E0F51490719A
:103D4000FA1221B49071FC789F1221B69071FE1284
:103D50002245907191E0909009F09071A7E078A3CE
:103D6000F6E6700276049071A9E0FF125D6A907128
:103D700094E06003122297122201907014E0540F15
:103D8000640C60037F0022E4F51AF51B122259F53A
:103D900083E0540F640C7049E51AD3941040037FFC
:103DA0000022122259AF82FE1221A0FB7D101225A3
:103DB00079EF7002FF221221A07F0025E0FEC006ED
:103DC000C007E51A12222DA807FC122215D007D031
:103DD00006121B261221A0251AF51A051BE51B70D9
:103DE000AB1222A49071A8E0FF125D6A7F01227FCE
:103DF000007D001221CB9000027498F0A37401F0B2
:103E000078A8E6A3F008E6A3F008E6A3F008E6A386
:103E1000F0A3744AF0906000E493900009F0906081
:103E200001E49390000AF090900AE090000BF0A259
:103E30006CE433A3F07898E6A3F0900010744AF095
:103E4000A3E515F0A251E433A3F0908007E09000C1
:103E500013F090900EE0900014F0906002E49390C4
:103E60000015F0906003E493900016F09000207429
:103E70004FF09000307448F0900040744EF0908005
:103E80000BE0900100F0909013E0900101F078B405
:103E9000E6A3F0908009E0900103F0908011E0909B
:103EA0000104F0909012E0900105F0908040E090C5
:103EB0000106F0A37401F090721CE0900108F090EC
:103EC00090287401F0E4F000909029E0900110F047
:103ED00090902AE0900111F090902BE0900112F068
:103EE00090902CE0900113F07D017F017E00126222
:103EF000197F03221253758F20EF30E703023FEC46
:103F00007E007F207D007B017A047900121A3E90AA
:103F1000000FE0F521B42513900017E05401F522BD
:103F200078047C041220E17F04801190001DE0548D
:103F300001F52278007C041220E17F0C121B26E59B
:103F400022701D900400121FFEFFEC4D4E4F700DAD
:103F5000900404121FFEFFEC4D4E4F60037F84223D
:103F60007899E66401703690721CE0FF5405FEBE3D
:103F7000010CEF4404F090721DE0700204F0305E1A
:103F80001C90721CE030E0151220EC900000121F13
:103F9000429000041219E100000800802AE521B4D3
:103FA0002529788D121997EF24FFFFEE34FFFEEDDF
:103FB00034FFFDEC34FFFC9000001219BC900004AB
:103FC0001219E1000002007F08801E7E007F20128F
:103FD0001EE9788D121997900004121F4290000874
:103FE0001219E1000002007F20025450AF202290FD
:103FF0000E45E0900074F0900E46E0900075F09051
:104000000E47E0900076F02290726CE0FCA3E0FD99
:10401000A3E0FEA3E0229044007400F0A37400F03B
:104020002278407C0E7D017B017A0E79007E007F34
:1040300008121B26904102E054FEF022F09041024B
:10404000E04441F02290720B74FFF0A37438F0A3A7
:1040500074BEF022851521907105E0F51590720669
:10406000E0FEA3E0FFC394FFEE940722904102E03C
:104070004451F0227A04790090720B7401F0A3226B
:104080007881E654EAF6904101E0442AF0E054EAEF
:1040900022900E45E0900075F0900E46E09000767C
:1040A000F022A3F0E4907209F022E493907209F0F8
:1040B00022FF2FFFEE33FEED33FDEC3322E490417F
:1040C00004F07880760122904106F0E4904105F0FA
:1040D00022D253900E44E0229072207403F0228F7B
:1040E0001DE478A4F6908016E020E0F9904104E009
:1040F00020E1F91223939000001219E15553425325
:104100007B007A007985125AFB9000041219BCE4F6
:1041100090000CF090000BF090000AF0900009F075
:10412000900008F0122504904104E030E10A90412B
:1041300002E030E0F27F0022C254122393E4904167
:1041400004F0E51D7002FF22C28CC28DE4F58CF5EF
:104150008AD28C904107E054BFF0907202E0444054
:10416000F0904104E020E010904102E030E0037F55
:104170000022308DEC7F002290000FE0701678A4B2
:10418000E6C39401500E12254F700978A40612411F
:10419000BE0240F3122468702290000FE0651D708B
:1041A0001A12254F7015908016F01241BE122393FB
:1041B0001223A678911219B07F01227F00227B0181
:1041C0007A007904125AFB78851219B022AD079053
:1041D0004104E020E1F9ED247FB40F0040030242E6
:1041E000929041EF75F003A4C58325F0C583730257
:1041F000421C02422202422A02426302423202422C
:104200003902424002424A02425102425C02426A80
:1042100002429202427502427F024286121FAA7F28
:1042200005221220A8762602428E1220A8762002AD
:10423000428E1220AF763A80551221177628804E92
:10424000789576077896762780441220AF7604809A
:10425000051220AF76FF789776FF80361220A87679
:1042600021802B1220A8762480241220AF76047897
:10427000977601801D121FAA1221177629800F122E
:104280002117762980087895760378967611E47858
:1042900097F67884E6FCB40207121FAA7D07801700
:1042A000ECB40311904101E04404F07881E6440449
:1042B000F67D0680027D04AF052278B4E6601F908B
:1042C000800BE030E1037FEE22908010E0FC9080D4
:1042D0000F7401F090800FE030E0F9AF0422E49019
:1042E000800CF090800BE030E1037FEE2290800D97
:1042F000E0F9908010E0D378B39640037FEE2290EF
:104300008006E0543025E0FCAF0119EF607090802A
:104310000CE0FD908020E0FE908021E0FBEEF52592
:10432000EBF526D394FFE52594034015E526940488
:10433000E5259404500B74302526F582E434808002
:1043400036C3E5269404E52594045032EC6016C388
:10435000E52594024004EC20E6AEC3E52594025026
:1043600004EC20E5A3908013E0FEE42526F526EE7C
:104370003525F525852682F583E06DF0808A9080CD
:1043800010E0FF22909000E030E2037F0022909046
:1043900012E030E0037F0022909030E020E0037FC5
:1043A0000022120875EF7002FF2212C039E4F515E1
:1043B000E515C378AD965026E51525E024C2F582B3
:1043C000E43472F583E0FEA3E0789FA60608F6E6E3
:1043D0001846600678A1A6158004051580D2909035
:1043E0000AE020E707909000E030E411909016E09A
:1043F00020E50AE030E20312C0247F0122909016EB
:10440000E020E03378ADE62401FFE433FEEF25E061
:10441000FFEE33FE7DFF7B017A727980121A3E78BF
:10442000ADE675F002A4FFAEF07DFF7B017A7279F4
:10443000A2121A3E12589E907120E064516003123D
:10444000C0547F01228F258D2690801AE0F50BE560
:104450000B30E426306D07E4FF12C0578021530B68
:10446000EF908007E0F527E4F090801AF090800745
:10447000E527F07F9612638D8005E490801AF09016
:104480008005E030E7F9122276908005E030E7F908
:104490009080007490F0908001E526F0000000000C
:1044A0000000000000000000E4F527908004740183
:1044B000F0908002E0FDE525FEE5277A002400FF6C
:1044C000EA3E8F82F583EDF090800AE030E01B90A9
:1044D0008003E0FDE525FEE5272400FFEA3EFE74AB
:1044E000082FF582E43EF583EDF00527E527B406B5
:1044F000BA306D0AE50B30E4057F0102C0579080A9
:104500001AE50BF022901000E0649960030245B9AF
:10451000A3E0640760030245B9901003E0FF901028
:1045200002E02F2432FFE4FEFDEDC39F5010740023
:104530002DF582E43410F583E02EFE0D80EB74003F
:104540002FF582E43410F583E06E706DD26B306B22
:104550002390107DE0F4FF90107CE0B50716E0D3C7
:1045600094FA400890720574FAF0800890107CE08C
:10457000907205F090107EE0643C703DA3E064C34F
:104580007037901081E06403702FFEFD901080E082
:10459000FFEDC39F501074802DF582E43410F58335
:1045A000E02EFE0D80E6901080E02480F582E43459
:1045B00010F583E0B50602D26A227898E630E60468
:1045C0007F0080027F80904104EFF0851522122148
:1045D0009012C00FE4908014F0740212230B9080AC
:1045E0000BE020E608E020E504E030E3071221BFFD
:1045F0008D23800A1221BFECC313ED13F523E518B8
:104600008523F0A485F024F525E5198523F0A4255C
:10461000192524F524908016E020E0F97898E630FA
:10462000E6047F0080027F80904104EFF090410417
:10463000E030E0F9908040E054FEF0908000748516
:10464000F0908001E525F0E524F09080067484F078
:10465000908005E030E0F99080007410F01222683C
:10466000E4908014F08522157F03228F22122434D7
:104670001225195014851523122520AD227C007BAC
:104680001212C00F85231580031223EE907219E0D9
:10469000900400F090721BE0900401F0907218E01A
:1046A000900402F090721AE0FB900403F0A374C02F
:1046B000F0A25BE43325E0FE789AE6FD54012E90EB
:1046C0000408F090047EEDF0E65406FFBF0604E017
:1046D0004440F0E522B4020A907218E0900480F0A1
:1046E000800AE522B40305900480EBF0205F0E9071
:1046F0009000E030E307E4900481F08006900481AC
:104700007401F090048274F1F0A37401F020530658
:1047100012234E1261A77F03229072057432F0E4D7
:10472000789AF60876FF08F69072087480F0C25105
:10473000C26CC26BC26AC264C267C262C255C26640
:10474000C263C265C26178B37648C25AC25FC260B2
:10475000C250C270C258C25EC25DC25C9072681222
:1047600019E10000000090726C1219E100000000D5
:104770009072701219E1000000009072741219E139
:10478000000000009072781219E1000000009072A1
:104790007C1219E1000000009072037450F0E4787C
:1047A0009AF690721874C0F090721AF0E490721930
:1047B000F090721BF0125FFE1262BB90725FF0907D
:1047C0009016E04438F022F58374FFF0A3F0EF2553
:1047D000E025E02439F582E43473F583E075F00ACE
:1047E000A42290800AE054EEF0909002E054FEF093
:1047F0009090057431F0909002E04401F0908014A4
:104800007410F0908022F09080237405F09080174F
:1048100022E4908023F090800AE0FF907013E0542F
:1048200010FEEF4E90800AF078A2E654C02224EEEB
:10483000F582E43472F583E4F0A3F0227E007DFF7C
:104840007B01021A3E909002E04401F0E490802344
:10485000F0227E007F04021B26909002E054FEF0BE
:10486000907192E02290700CE04401909005F0224B
:10487000124E6A904102E030E0031200AB7880E60D
:10488000B40118904104E030E011122E017880EF5D
:10489000F6BF0207122AE47880A6077880E6FF6454
:1048A000036004EFB4040512530480C77880E6B4B3
:1048B000050B904101E020E4047603801D7880E63A
:1048C000FFB40607904101E030E20BEFB4070B9014
:1048D0004101E020E404788076047880E6FF30E748
:1048E000071241CD7880A607306F09C26F9041074B
:1048F000E04401F0306D09903C5074EDF012C01EA0
:10490000904107E020E40A909017E020E603024877
:10491000731250930248732065037F822290001324
:10492000E0641060037F84227A047900122356E445
:10493000904104F0904104E030E0F9788476017809
:104940009AE630E0037F8722E4F5211224C5E07067
:10495000270521E521B410F31224347B147D077C54
:104960000012C00F901080E0B4AA0AA3E0B455056D
:104970001223EE80357F032290048074AAF0A37482
:1049800055F0900400E0F522E4F5211224C5C0831F
:10499000C082E0FFE521FDE522122537EF6ED082CF
:1049A000D083F00521E521B410E17F0712C036EF76
:1049B0006005C25B7F03227F89222065037F8222FC
:1049C000900013E0641060037F84227A0279007EF5
:1049D000027F009044007402F0A37400F01263D4CC
:1049E00078847601305B037F8722122434122519E4
:1049F00050678515211225207B107D077C0012C091
:104A00000F852115900200E0FFE4F521E521FDEF7F
:104A100012253774002521122527E06EFE7400252B
:104A200021F582E43400F583E06E6017D25B789A5A
:104A3000E64401F690721074A5F0907211745AF069
:104A40007F87220521E521B410C2E4907210F09016
:104A50007211F0789AE654FEF67F03228E248F2599
:104A6000E4FD79FFFCEC64027003024AFC909003C1
:104A7000EDF0909004E9F090900B7401F090900BA1
:104A8000E030E0F990900CE0FE90900DE0FBEEF548
:104A900026EBF52790900CE0B52506E4B524027CC2
:104AA00002EC1460250470BDC3E5279525E5269525
:104AB00024500DE970047C0180ABE925E0F980A564
:104AC000ED25E04401FD7C01809BD3E5279525E59C
:104AD000269524400FBDFF047C028089ED25E0442B
:104AE00001FD80817C02E52765257004E5266524AB
:104AF0007003024A65EDC313FD024A65229000105F
:104B0000E05402F520E47F01FEFDFC7889121F08C5
:104B100070037F8422900011E020E107900018E0EC
:104B200030E73E12645AEF602F900200E06029A344
:104B3000E0900200121F2D701F900201E090020011
:104B400012201BC002C00112202BD001D002121B68
:104B500026900201E0FF80327F30121EE77F308016
:104B600029121EE59000027401F0A3F09000057474
:104B700014F0A37401F0E52025E025E0240A90005C
:104B800001F090000AE520F07F1412545078891249
:104B900019C8000000007F0322AB07EB75F00C84FE
:104BA000FAEB75F00C84ABF0EA700E9062E893C3F8
:104BB00013FE74019313FF800A12227DE493FE74A6
:104BC0000193FF7C007D031217C67D181217D8EFE2
:104BD0004401FF907356EEF0A3EFF0EBFF7E0090E0
:104BE0007356E0FCA3E0FD1217C612227D740193F8
:104BF0002FFFE4933EFEEA7C002FFFEC3E907358BB
:104C0000F0A3EFF0EB9062FA932AF50B907358E063
:104C1000C394204009E50B75F0C08485F00B9073B8
:104C200059E0F50A907358E0F50922851522789528
:104C3000E6F5157B2012219712C00FE4908014F046
:104C4000908005E030E7F9E4908006F090800BE07A
:104C500020E608E020E504E030E3071221BF8D23C1
:104C6000800A1221BFECC313ED13F523E518852349
:104C7000F0A485F024F525E5198523F0A425192550
:104C800024F524908005E030E0F91261A71261A7B5
:104C9000908040E054FEF0740512220DE525F0E509
:104CA000241222CE9080067404F0908005E030E05B
:104CB000F91222681261A78522157F03228F2290A4
:104CC000800BE020E608E020E504E030E33B8515BA
:104CD0002312219012C00FE52260661221367898C7
:104CE000E65480904104F0904104E030E0F97A000D
:104CF00079009080147400F090800674E0F0908049
:104D000005E030E0F9152280CEE52230E0037F890E
:104D1000228515237895E6F5157898E630E6047F28
:104D20000080027F80904104EFF012219512C00FA5
:104D3000E4908014F0E52212230B908016E020E02E
:104D4000F99080007410F08523157F0322206A03F8
:104D50007F032220530612234E1263D4851522129C
:104D6000242E7B117D017C0012C00F852215E4F5F5
:104D700022E52225E0FFE433FE74822FF5827402DF
:104D80003EF583E0FF74002522122527EFF005226F
:104D9000E522B408DCE4FFF522E5225407240012E2
:104DA0002527E0FE740025221224C9E06E2FFF059E
:104DB00022E522B440E3EF7021900440E0789A307D
:104DC000E40DE64410F6909016E054FDF0800BE6FA
:104DD00054EFF6909016E04402F07F03228F22E514
:104DE00022B40209907219E0D39402500EE522B465
:104DF000030C90721BE0D3940240037F892220535E
:104E00000612234E1263D485152312242EAD227C64
:104E1000007B1112C00F852315125529E52264026B
:104E20007024BFB00F907218E0B4B008907219E00F
:104E300004F08005E4907219F0907218EFF0306C75
:104E4000261225128021E522B4031CBFB00F9072F8
:104E50001AE0B4B00890721BE004F08005E4907290
:104E60001BF090721AEFF07F0322E4904104F0905F
:104E70004200E054037013904107E020E407909053
:104E800017E030E6EA12509380E5904200E078980F
:104E900030E00476408009768090800AE04480F01B
:104EA000306C09903C5074D0F012C01EE47881F64A
:104EB000907204F090900AE020E736909000E02095
:104EC000E42F904104E0FF904102E04F20E0139076
:104ED0004107E020E407909017E030E6E512509398
:104EE00080E012625FE4909010F0909016E0440130
:104EF000F07880760122C299ED30E61275990D3076
:104F000099FDC29975990A3099FDC29980087599E1
:104F1000203099FDC299ED30E01BEF75F00A842432
:104F200030F5993099FDC299EF75F00A84E5F024C7
:104F300030F5998032EF54F0C4540FFED3940940F9
:104F40000674372EFE800474302EFE8E99EF540FB7
:104F5000FED39409400674372EFE800474302EFE72
:104F60003099FDC2998E993099FDC299ED30E710C4
:104F700075990D3099FDC29975990A3099FDC299BC
:104F800022E4907221F0A3F0907221E0FCA3E0FDF6
:104F9000C3EC9402505D904102E05421600BE05458
:104FA000FEF09072207404805C904102E030E007D3
:104FB0009072207402804E74002DF974043CFA7BC8
:104FC00001C002C00178407C0E7D01D001D0027E7C
:104FD000007F40121B269041037440F0904102E094
:104FE00020E1F9907222E02440F0907221E0340038
:104FF000F0809512406CE4907220F012609EEF7089
:105000000890722004F07F00227F01227895E6F557
:105010001512C015E5094508601EE50B7F0025E067
:10502000FEE509FA79007B01C002C00178007C2806
:105030007D01D001D002801D78107C357A7279E62E
:105040007F7012225078807C357D017B017A7379E4
:105050008C7E007F38121B26E47895F67895E6FF63
:10506000C39407502BEF7F0025E0FEEF2400F97476
:10507000283EFA7B01C002C00178007C007D01D08F
:1050800001D0027E0212212B1261A778950680CCF6
:105090007F0322909002E0FF907203E0546044800E
:1050A000F4FEEF5E909002F09090017401F0908019
:1050B0001CE0540FFFBF0FF6306D0312C01EE490CA
:1050C0008007F0904107E04420F00000000000005D
:1050D00000000000306D0312C01E904107E054DF55
:1050E000F0904200E0540360F8904200E030E0119C
:1050F0007898E6B48005E4904100F0789876408096
:105100000478987680E4909001F09080077440F0E5
:105110007F967E0012638D228D21E4FEF522908021
:1051200014E0F523E4F524EF30E003432410EF54BA
:1051300001FDC3EF9DFF908005E030E7F9AA07EA83
:10514000C39521504BEAC39410EA500625E0241081
:10515000800425E02440908014F0C3E5219AFFBF2D
:105160000103432420908006E524F0908005E03080
:10517000E0F990800BE05403600FE4FF1242BAAEF6
:1051800007EED3952240028E22E4F5240A0A80AF6E
:10519000908014E523F0AF22227899A607EF1460DF
:1051A0004614601524FE601E24FC604424F8604C04
:1051B00024907060907268803130620590726C80CB
:1051C00003907274802490726CE0F8A3E0F9A3E07D
:1051D000FAA3E0FB90727412400BC39BFFEE9AFEA1
:1051E000ED99FDEC98801290727012400BFF801FB9
:1051F00090727012400B1240B1FC8013306706129F
:105200004008FF800A90727012400B1240B1FC7887
:105210008D1219B0229073FFE06074E014F0E02466
:10522000F8F582E43473F583E0FF6054AE811581B4
:10523000A806E6FE74E12FF8A606AE81A806E6FEF3
:1052400074E02FF8A6067581E0AE071FEE602F9080
:1052500073FEE0FE9073FCE0FCA3E02EF582E43CDC
:10526000F583E58224FFF582E58334FFF583E0AD25
:10527000810581A805F69073FEE014F080CB0581CE
:105280009073FFE024F8F582E43473F583E4F022B0
:10529000E4907200F0907204F07895F608F608F643
:1052A000D26EC26FC254C253C252907220F0A3F0A9
:1052B000A3F0C256C257907210E0B4A50FA3E0B499
:1052C0005A0A789AE64401F6D25B8002C25BE49007
:1052D0007202F090721CF0A3F078807601903C503E
:1052E00074FFF0E4908036F0A374FFF0E49073FE56
:1052F000F0FE7F04FD7B017A7379F8121A3EE49088
:1053000073FFF022908016E020E0F9904104E02045
:10531000E1F97A0079007E007F00124016900000CB
:105320001219E1555342537B007A007985125AFBDA
:105330009000041219BC7B007A007989125AFB9004
:1053400000081219BC7880E6B403047F0080027F55
:105350000190000CEFF0740D1240C7904104E03052
:10536000E10C904102E030E0F21200AB80ED12401F
:10537000161240BD22307021907218E0B4B01A129B
:105380001FF180031220FFD8FBFF7899E67C00B55F
:105390000707ECB506037F85227899E6FF789BE640
:1053A000FE5F6005EFF45E8033799CE77899566084
:1053B000037F8522205F29909000E030E310789AE7
:1053C000E620E71C4480F6789BE644F6800E789A47
:1053D000E630E70C547FF6789BE644F6F67F8622AB
:1053E0007F0022900010E0F521A3E0FF1313543F4B
:1053F000F522E05403F508A3E0F509A3E0F50BA3BB
:10540000E0F50AE5216409702BE50B6407450A60A5
:105410003912243412251950148515221225207BA7
:1054200010AD0BAC0A12C00F852215801D7DFF1236
:1054300024EE80168515218522157B10AD0BAC0A54
:10544000AF09AE0812C00F8521151261A77F032294
:105450008F23E47F01FEFDFC7889121F0870037F13
:105460008422AF23E4FCFDFE1220F6403190410679
:10547000E523F0E4904105F0904104E020E1F97863
:1054800089305602802D121997C007AF23AB07D081
:1054900007C3EF9BFFEE94001220587F0322788C05
:1054A000E6904106F0E4904105F0904104E020E1EF
:1054B000F978891219C8000000007F032212641BCA
:1054C0001223C2907278122423FBC3121960500376
:1054D0007F8A2290727C1223641224E1400A907227
:1054E0001AE0B4B0037F892212236112241112241E
:1054F000A52060099072701223641223FD12C00669
:10550000AB07EB30E71378891219C800000000EBF5
:1055100030E0037F01227F032212236FE50D450C4B
:105520007004788476017F8922900280E0B4FF08BD
:10553000A3E0B4FF037FC022900480E0F9A3E0FF62
:10554000900280E0FEA3E0FDEF6D7040FDEDC39F93
:10555000503D74822DF582E43404F583E0FC7482BE
:105560002DF582E43402F583E0FB1225688002C346
:1055700033D8FC5962041225688002C333D8FC5E1C
:105580006203EC6B60037FB0220D80C17FB0227F8D
:10559000A022AD0712609EEF700690722004805129
:1055A000904102E030E506E054FEF080E7904103D0
:1055B000E0540FFFBF0807904102E020E7111240BE
:1055C00034904101E04401F09072207402802290F6
:1055D0000E03E0B40316900E02E0B5050F900E0125
:1055E000E0B40608900E00E06480600990722074B8
:1055F00002F07F00221240217F0122125375EF70CA
:10560000607899E66401705690721CE0FE54036461
:1056100001704BEE30E22390721DE0FEB40106747F
:1056200002F07F8522EE6402703490721D7403F0E4
:1056300090721CE04402F07F862230600A90721C57
:10564000E04402F07F032290721DE004F0E0D39466
:1056500006400BE4F0789BE64401F67F85227F0349
:1056600022221253758F20EF20E75A121EE5900078
:10567000037410F09000087402F090000AF090009B
:1056800012F07899E664017021305E1E90721CE081
:1056900030E0179000037408F090000AF01220EC3C
:1056A0009000041219BC7F0C8018788D1219979005
:1056B00000041219BC788D12199790000C1219BCB5
:1056C0007F14025450AF2022908007E0F522908092
:1056D0000AE0F5231261277E027F007D001221CDB2
:1056E00090800A7401F0E4F524E524126383789530
:1056F000E6FD7F20124445E52475F010A42400F94E
:10570000740035F0A801FC7A2079007F1012225035
:105710000524E524C3940840D0908007E522F0904A
:10572000800AE523F01261A77F032212641B122373
:10573000C2907278122423FBC312196050037F8A2F
:105740002290727C1223641224E1400A90721AE0C3
:10575000B4B0037F89221223611224111224A520E0
:1057600060099072701223641223FD12C003AB070C
:10577000EB30E71378891219C800000000EB30E025
:10578000037F01227F032212236F7F89228F1DEF67
:1057900075F004A42436F9747335F0FA7B01C00265
:1057A000C00178E27C727D01D001D002124852859E
:1057B0001D1EE51E602775F004A4FFAEF02432F92B
:1057C00074733EFA7B01C00174362FF974733EA8DE
:1057D00001FC7D01D001124852151E80D578367C1F
:1057E000737D017B017A7279E21248522290001097
:1057F000E07004A3E064027042900011E0FEA3E0B8
:10580000FF7038EE703512645AEF602F900204E09A
:105810006029A3E0900204121F2D701F900205E082
:1058200090020412201BC002C00112202BD001D014
:1058300002121B26900205E0FF80097E007F4012C5
:105840001EE97F4012545022EF25E025E02436F572
:1058500082E43473F58374FFF0A3F0EF25E025E0D4
:105860002438F582E43473F58374FFF01247CE24B4
:10587000E6F582E43472F583E41247CB24E8F5823E
:10588000E434721247C724EAF582E434721247C73F
:1058900024ECF582E434721247C712482E227F208E
:1058A0007A73793612483C7F507A7279E612483C16
:1058B0007E007F387DFF7B017A73798C121A3EE47B
:1058C000F516E51625E025E02439F582E43473F574
:1058D00083E516F01247CF12482EE5161247CF2463
:1058E000E6F582E434721248350516E516B408D29E
:1058F000227880E664017048904107E030E64190EC
:105900007202E0FF603A907203E0FE541FFDC3EFA5
:105910009D907202F06008904107E054BFF0229021
:105920009002E0FFEE54604480F4FEEF5EF0305AE7
:10593000047F0180027F00907201EFF0909001F0EF
:1059400022EF20E70890DFFCE4936F604212C0274B
:10595000EF4E70089090107404F080FE1247E274CD
:1059600008F090801674C0F0908016E020E0F912E4
:1059700048116004E04401F01248597004A3E0604B
:10598000089090057490F0800312486512484522F3
:10599000EF0475F004A414251BF582F584851A83A1
:1059A000851A85E0F5F01582E0FC1582E0FD158290
:1059B000E0FF1582E00586F0158615821584E582E4
:1059C000B51BF1E00586F01584E5F0F01584ECF0E8
:1059D0001584EDF01584EFF0158622E4FF22E581B1
:1059E00024FED394E04042E5812421FF1F1F9073E1
:1059F000FFE024F8F582E43473F583EFF09073FF51
:105A00008022EF60241F74E02FF8E6FE9073FEE022
:105A1000FD9073FCE0FAA3E02DF582E43AF583EE05
:105A2000F09073FEE004F080D92212641B90001500
:105A3000E0FF1251991223C2788D12247850037F0F
:105A40008A22125F9312C006AB07EB30E713788906
:105A50001219C800000000EB30E0037F01227F0331
:105A60002212236FE50D450C7004788476017F893E
:105A70002212645AEF6032900300E0602CA3E090A1
:105A80000300122066121F3B701F900301E0900379
:105A900000122032C002C00112202BD001D002120D
:105AA0001B26900301E0FF80097E007F22121EE981
:105AB0007F221254502212645AEF6032900302E0A7
:105AC000602CA3E0900302122066121F3B701F900F
:105AD0000303E0900302122032C002C00112202B07
