:020000020000FC
:10000000026220020BD4020BED020C1A020C2C022D
:100010000C81020D0C020D9E020DAF020DC2020DED
:10002000D5020DE1020DEE020DFA020E06020E1FC0
:10003000020E50020E76020F5E0200000200000265
:100040005D87025A4D02558F025E590242E6025602
:1000500090020000024D100259C9022EBB025CE062
:100060000252EA025F8D02578902607E02616602D7
:10007000617D025FB20253B60249A00243B29041D1
:1000800002E030E505E054FEF022904103E0540F19
:10009000FFBF0807904102E020E706123FBA0207BF
:1000A000D3123FA7900E41E0240260521460311435
:1000B000B40B0040030207D39000BFF82828730256
:1000C00001270201AA0207D302022F0207D302036B
:1000D000170203370207D302077502077F0207BE24
:1000E000900E40E064217013900E44E0700D1240B9
:1000F00011123FC2123F9C124042220207D3900EBF
:1001000040E064A1701E306104F00207CCA263E4F9
:1001100033FFA262E4332FFFA267E4332F900E4037
:10012000F00207CC0207D3900E40E0247F60101449
:10013000601E2402706A903E00E0900E408058904D
:100140000E44E07008900E40F0A3F080560207D3F2
:10015000900E44E014601E2481600824FE60282470
:1001600082703A7881E630E0047F0180027F00905F
:100170000E40EF80227881E630E2047F0180027F2A
:1001800000900E40EF80107881E630E4047F01801B
:10019000027F00900E40EFF0E4A3F080060207D348
:1001A0000207D39041037402F022900E40E07019D0
:1001B000900E42E0B4010F903E00E054FDF09041FB
:1001C00007E054FBF0220207D3900E40E064027077
:1001D0005B900E42E07052900E44E0146020248147
:1001E000600824FE602C2482703C7881E654FEF680
:1001F000904101E04402F0E054FEF00203137881E4
:10020000E654FBF6904101E04408F0E054FBF002B4
:1002100003137881E654EFF6904101E04420F0E0CA
:1002200054EFF00203130207D30207D30207D3905F
:100230000E40E060030202C3900E42E064026003DD
:100240000202C0900E44E07077A3E06073E0C394B4
:1002500005506A123FC3904102E0544170F8900E7D
:1002600045E024FE601214601714601C2403704BD8
:100270009042017483F080439042017485F0803B8A
:100280009042017407F0803378007C007D017BFF91
:100290007A3F794E7E007F35120F5E903FF074F208
:1002A000F012C01E904104E020E1F9123F9C743529
:1002B00012404C9042017409F080E980FE0207D39D
:1002C0000207D3900E40E064027045900E42E07049
:1002D0003C900E44E01460142481600824FE601BEE
:1002E000248270267881E64401F680277881E644EE
:1002F00004F6904101E04404F080187881E644104F
:10030000F6904101E04410F080090207D30207D3C0
:100310000207D3123FC322123FC3904102E054416F
:1003200070F8900E42E0904100F0904107E054FDDB
:10033000F0E4903E04F022306D449090107401F08F
:10034000909016E030E31678A1E6F5131258227F5C
:100350000212225D909016E054F7F0801C78A1E61E
:1003600025E024A2F582E4343EF583E0FEA3E0FF1D
:10037000BEFF06BFFF03124AD0E4909010F0900E2B
:1003800043E024FE606314607824FD600A14605921
:1003900024066003020745306B15123FE5500B7BC6
:1003A000101207DB7006C26B8002C26B852013300F
:1003B0006B117A007900124009123F9F903E097438
:1003C00004800B123FCB903EC0E493903E09F09026
:1003D0003E0A7412F0900E43E06406600302074880
:1003E000903E0A740AF0020748903E0B74FFF0A397
:1003F000743EF074A012403A903E0A7420F0020756
:1004000048306B15123FE5500B7B121207DB70066C
:10041000C26B8002C26B852013306B0C12400574D6
:1004200004F0A37400F08003123FCB900E42E01260
:100430000E50045100045F0104780204950304C4C3
:100440000404F28005448205D183072F860000074B
:1004500042123FCB903EC2124033903EC3805C308C
:100460006B0B903E097416F0900402803D903EC4E0
:10047000124033903EC58043306B0F900402E0245D
:1004800016903E09F09004038020903EC61240333F
:10049000903EC78026306A1A7A0479801240097427
:1004A00004F0748012403A900480E0903E0AF0021A
:1004B0000748903EC8124033903EC9E493903E0AEC
:1004C000F00207489004007404F0A314F0903E0F6B
:1004D000E0900402F0903E0EE0900403F01240051C
:1004E0007404F0A3740012403B903E0A7404F002BE
:1004F0000748124056248E601424FD601724DB60E8
:100500001A24187020123F83125BBD80117F0212E3
:1005100060DA800A7F021245218003121EC8903ED5
:1005200020EFF08009124D9BC25312405D22C2534E
:10053000903E20E0B40303024D9B124D9B903E2061
:100540007405F022124056248D605024F06043243C
:10055000ED605E24FB604C24A3606724FE605A2497
:10056000D06003020704900E47E030E1127E027F64
:10057000007D007B017A047900120E7602068190DC
:100580000E45E0903E24F0900E46E0903E23F002AF
:1005900006D5123F83125DF10206FD7F02125B0653
:1005A0000206FD900E45E0900401F0125D50020637
:1005B000FDE4FF1232AB0206FD124022125A8B02FA
:1005C00006FD9000747451F0124022125FFA020688
:1005D000FD123FFDE4903E21F0A3F0C3903E21E0E8
:1005E000940250447F8412521AEF603C900E45E012
:1005F000FF903E21E0FCA3E0FD2400F58274043C62
:10060000F583EFF0900E44E0FF74012DF582740441
:100610003CF583EFF01260F8903E22E02402F09067
:100620003E21E03400F080B3C3903E21E0940250BC
:10063000030207DA7F8512521AEF70030207DA12FB
:100640004D9BEF70030207DA7F8112521AEF70039D
:100650000207DA124056248F70030206E224FD706E
:10066000030206E924F3607224E870030206F02412
:10067000FC70030206FA24A8607B24CB6003020707
:1006800004900E45E05407F508A3E0F509903E24D8
:10069000E0F50A903E23E0F50BE4F50C900E45E002
:1006A00054F0F50DE030E319903E6C123FDA250B63
:1006B000F50BEE350AF50AED3509F509EC3508F5C7
:1006C00008E50D7003750D01903E207480F012C096
:1006D00006EF30E73412405D802F123F83125F66D1
:1006E000801B7F02125AC980147F02124C83800D36
:1006F0001233E6800812413D8003124BF3903E20F6
:10070000EFF0800512405D8012903E20E0B40304BB
:100710007F0080027F05903E20EFF0C253123FFD24
:10072000125E8BEF60030207DA903E2004F0229005
:100730003E20E0900E40F0E4903E20F09041030413
:10074000F0220207D30207D3900E47E07015900EF7
:1007500046E0FF903E0AE0D39F4008900E46E090AE
:100760003E0AF0903E0AE07004123FFD22900E43D4
:10077000E0FF023776903E04E0900E40F0804D128C
:100780004011F0900E42E0B4011A903E047401F062
:10079000904107E04402123FC2E4909001F0909033
:1007A0000704F022900E42E07012903E04F0904157
:1007B00007E054FD123FC290900180138015900E07
:1007C00044E07006900E40F0800280079041037470
:1007D00001F022904101E04401F0227D017C0012F1
:1007E000C00FEF4E22E4F520900011E0600A900067
:1007F00010E020E0037F8322900010E05401900479
:1008000001F0900011E0900400F0909016E0541870
:10081000FFBF1010306D0DE4FFFE122D59909016A1
:10082000E054EFF02056432057407888E6600A797C
:1008300087E77886461846601E7F457E407D357C7A
:1008400074788512184B600F7F427E497D4F7C5330
:10085000788512184B7002D2567885E6600C79883C
:10086000E778874618467002D25730674220583FD3
:10087000205703305639205D36206115A262E433DB
:100880002401FFE433FE7883E6FDB5070AE4B506EC
:1008900006789976018011ED14FF7402A80708808C
:1008A00002C333D8FC7899F67899E6FF1250673086
:1008B0006B1885131F12197A7B107D017C0012C002
:1008C0000FEF4E7002C26B851F137899E6FFB401DB
:1008D00027121A1B7461F0A37416F0206B0302092F
:1008E00076900120E064AA60030209767B017A0118
:1008F0007922903E0B048059306B61900002E07CBD
:10090000002416F9EC3400FAA3E029F9EC3AFA9045
:100910003E0B7401F0A3EAF0A3E9F0EF5414601B5E
:10092000900140E0B4AA147A017942903E0B740120
:10093000F0A37401F0A37442F0803B7899E6B40808
:1009400035900120E0B4AA2E7A017922903E0B74F2
:1009500001F0A37401F0A37422F0801A903ECAE45F
:1009600093903E09F07E0024C0F9EE343EFA121A4C
:100970001BEAF0A3E9F0E4900000F07899E6640146
:1009800070372060237888E66405701C18E6B48F01
:100990001718E6B4931218E6B4840DE4F0A3F090AF
:1009A0003E1CE054FEF080119000007405F0A3742A
:1009B00080F0903E1CE04401F0306D117412121969
:1009C000C474E1F012C01E121A606001229004018A
:1009D000E07003020B22900400E0900001F090040C
:1009E00000E02480602224FD7003020AAD248360AD
:1009F00003020B1FE49000021218BA7480F0A37473
:100A000083F0752007020BCEE4900002F0306A22DA
:100A10007B017A007980903E0B04F0A37400F0A370
:100A20007480F0E4903E09F0900080E0903E0AF07F
:100A3000801C121A1B743EF0A374C0F0903EC8E4F0
:100A400093903E09F0903EC9E493903E0AF0903EA8
:100A50000AE0900003F0E4FF903E0AE0FEEFC39E40
:100A60005029121A23903E09E0FD7C00E92DF9EC93
:100A70003AFAEF29F9EC3AFA120BD4FD74032FF588
:100A800082E43400F583EDF00F80CD900003E03078
:100A9000E010E004F074032EF582E43400F5837472
:100AA00020F0900003E02404F520020BCEE4900037
:100AB00002F0A37432F074F21218BDF0A37405F0C2
:100AC000A37430F0A37435F0A37438F0A37446F027
:100AD000A37420F0A374F2F07401121973740D1250
:100AE00019017420F0A3F0A312190174F1F074023B
:100AF0001219737408121A671218BD121A2FE4A380
:100B0000F0A374F11218BA7408F0A37420F0E4A3EF
:100B1000121A67A3F0A3121A2F752036020BCE7F8C
:100B200083229000017480F0A37404F0A37402F097
:100B3000A3741FF0E4A3F0A3F0A3F0F51F121A238F
:100B4000851F82758300120BEDFF7408251FF58247
:100B5000E43400F583EFF0051FE51FB420DF306BB0
:100B60006A305503205603306605E4900001F075A5
:100B70001F017899E6FFB401089000237430F080DB
:100B8000383066089000237435F0802D3065089069
:100B900000237436F080223064089000237437F00C
:100BA0008017306311EF900023B408057439F0808A
:100BB000087438F08003E4F51FE51F600E900020F4
:100BC0007438F0A3742EF0A37430F0752024AF2095
:100BD00012563B22BB010689828A83E0225002E73B
:100BE00022BBFE02E32289828A83E49322BB010CAA
:100BF000E58229F582E5833AF583E0225006E9256E
:100C000082F8E622BBFE06E92582F8E222E5822987
:100C1000F582E5833AF583E49322EF8DF0A4A8F002
:100C2000CF8CF0A428CE8DF0A42EFE22BC000BBEEB
:100C30000029EF8DF084FFADF022E4CCF875F008C8
:100C4000EF2FFFEE33FEEC33FCEE9DEC984005FCFD
:100C5000EE9DFE0FD5F0E9E4CEFD22EDF8F5F0EEC5
:100C60008420D21CFEADF075F008EF2FFFED33FDB0
:100C70004007985006D5F0F222C398FD0FD5F0EA50
:100C800022E88FF0A4CC8BF0A42CFCE98EF0A42CED
:100C9000FC8AF0EDA42CFCEA8EF0A4CDA8F08BF039
:100CA000A42DCC3825F0FDE98FF0A42CCD35F0FC37
:100CB000EB8EF0A4FEA9F0EB8FF0A4CFC5F02ECD03
:100CC00039FEE43CFCEAA42DCE35F0FDE43CFC22E8
:100CD00075F008758200EF2FFFEE33FECD33CDCCDB
:100CE00033CCC58233C5829BED9AEC99E58298405E
:100CF0000CF582EE9BFEED9AFDEC99FC0FD5F0D63B
:100D0000E4CEFBE4CDFAE4CCF9A88222B800C1B964
:100D10000059BA002DEC8BF084CFCECDFCE5F0CBA2
:100D2000F97818EF2FFFEE33FEED33FDEC33FCEBDB
:100D300033FB10D703994004EB99FB0FD8E5E4F996
:100D4000FA227818EF2FFFEE33FEED33FDEC33FC83
:100D5000C933C910D7059BE99A4007EC9BFCE99A77
:100D6000F90FD8E0E4C9FAE4CCFB2275F010EF2FBC
:100D7000FFEE33FEED33FDCC33CCC833C810D707BC
:100D80009BEC9AE899400AED9BFDEC9AFCE899F8F7
:100D90000FD5F0DAE4CDFBE4CCFAE4C8F922EB9FFE
:100DA000F5F0EA9E42F0E99D42F0E89C45F022E829
:100DB000600FECC313FCED13FDEE13FEEF13FFD831
:100DC000F122E8600FEFC333FFEE33FEED33FDECAD
:100DD00033FCD8F122E6FC08E6FD08E6FE08E6FF53
:100DE00022E6FB08E6F908E6FA08E6CBF822ECF67C
:100DF00008EDF608EEF608EFF622ECF0A3EDF0A30E
:100E0000EEF0A3EFF022D083D082E493F6087401D1
:100E100093F608740293F608740393F6740473A8A7
:100E2000828583F0D083D082120E36120E36120ED7
:100E300036120E36E473E493A3C583C5F0C583C8A8
:100E4000C582C8F0A3C583C5F0C583C8C582C822C2
:100E5000D083D082F8E4937012740193700DA3A331
:100E600093F8740193F5828883E473740293686045
:100E7000EFA3A3A380DFEF4E6012EF60010EEDBB86
:100E8000010B89828A83F0A3DFFCDEFA2289F0500D
:100E900007F709DFFCA9F022BBFEFCF309DFFCA980
:100EA000F022E709F608DFFA8046E709F208DFFAE0
:100EB000803E88828C83E709F0A3DFFA8032E30961
:100EC000F608DFFA806EE309F208DFFA80668882AE
:100ED0008C83E309F0A3DFFA805A89828A83E0A336
:100EE000F608DFFA804E89828A83E0A3F208DFFAEF
:100EF000804280D280FA80C680D4805580F28029DA
:100F0000801080A680EA809A80A880DA80E280CA79
:100F1000802988848C8589828A83E493A30586F05E
:100F2000A30586DFF5DEF3800B89828A83E493A331
:100F3000F608DFF9ECFAA9F0EDFB2288848C8589AC
:100F4000828A83E0A30586F0A30586DFF6DEF480BF
:100F5000E389828A83E493A3F208DFF980D688F0DC
:100F6000EF60010E4E60CD88F0ED2402B404005015
:100F7000C3F582EB2402B4040050B9232345822335
:100F8000900EF273E4909001F0E07003021204E41A
:100F900090900FF078B3764890900704F09090010D
:100FA000E024FE700302103F24F770030210A72410
:100FB0000224FC4003021062700302109F147003AD
:100FC000021132147003021125240E60030211E98C
:100FD00012609D904102E030E7F9904102E030E07C
:100FE000F9E4F512E51290581A93FF74002512F5F2
:100FF00082E4340EF583E06F60030211EB0512E525
:1010000012B408E0900E407411F0A37422F0A3749F
:1010100033F0A37444F0A37455F0A37466F0A37482
:1010200077F0A37488F0E4904102F0A37408F09084
:101030004102E020E1F99090017401F00211E912FF
:10104000609D904107E030E4F990801CE0540FFF70
:10105000BF0FF6E4908007F0904107E04420F002D3
:1010600011E9AF0BAE0AAD09AC08C006C007AE0C63
:10107000AF0DAB07AA06E4F9F8D007D006120D0CA5
:101080008F0B8E0A8D098C08AF0BAE0AAD09AC0828
:10109000780A120DAF8F0B8E0A8D098C0880FE9096
:1010A000800B7408F08005E490800BF090800A7447
:1010B00010F01260B5E4F51412605EE4F519F51352
:1010C000E4908006F0908005E030E0F990800BE03D
:1010D00054036005E4FF1242E60513E513C39402CE
:1010E00040DE90800A7411F090800774FFF0751450
:1010F000021261BF751202125FD612605E90800705
:1011000074C0F0E4908006F0908005E030E0F99043
:10111000800BE0540360047F0080027F0190900107
:10112000EFF00211E990801AE04401F090800A7417
:1011300011F0E4909002F09090057430F0909002DD
:101140007401F000000000909001E0B40E05E490FE
:10115000800AF01260B590800B7404F0908005E076
:1011600030E7F990800074FFF0908005E030E7F9F7
:10117000E4908000F0A3F0F0F0F0909001E0B40F64
:1011800005E4908001F09080007430F0908005E0DC
:1011900030E7F99080147410F0E4908006F09080AD
:1011A00005E030E0F9E4908006F0908005E030E062
:1011B000F99080157455F074AAF09080147410F0B2
:1011C000E4908022F0A37405F090801714F09080D2
:1011D0001674C0F0908016E020E0F99080157477C6
:1011E000F0E4908023F002E80080FEE4909001F0AB
:1011F000E0B4780EE4FDFF1253B61249A0E4FF12EA
:1012000043B280FE759852758921758DFFD28EE4A8
:10121000F58CF58AD28C4387807898F6759955902D
:1012200090107408F090900174FFF01256E49090C2
:101230000AE020E707909000E030E449909016E043
:1012400030E017903F88E0B45110A3E0B4460BA300
:10125000E0B45706A3E0645460261245CF12613211
:10126000909016E04401F0903F887451F0A37446CA
:10127000F0A37457F0A37454F0E4909010F0800938
:1012800012613280081245CFE490900FF0E4909004
:1012900010F0023DB8900012E07895F6A3E0F50852
:1012A000A3E0F509900015E0F50AA3E0F50B7889B5
:1012B000120E0600000000900019E0B45106A3E0F1
:1012C000900010F0900010E0120E50132F0013DA6F
:1012D0000113E20213F00313F304145E0513F60680
:1012E00013F90714020813FC0914050A14080B1457
:1012F0000B0C141C0E14CE10141F111422121439CE
:1013000013150A1B151C1C15321D154F1E15681FC1
:10131000156E2013322113322213992313992414AA
:101320005828145B2A144F8014558100001576024A
:10133000547A90800BE054FC788CF690800AE01888
:10134000F6900011E018F690800B7480F0E49000A5
:1013500011F0125CA7788AE6900011F0900010E07E
:10136000B42108A3E0FF1239C1800E121E4612619B
:101370007D900011E0FF12586C7889A607788CE602
:1013800090800BF018E630E0047F0180027F00902F
:101390000011EFF0125CA7803C90801AE054807836
:1013A0008CF6E0547FF0900010E0B42408A3E0FF36
:1013B0001239C1800E121E4612617D900011E0FFAD
:1013C00012586C7889A60790801AE0FF788CE65452
:1013D00080FEEF4EF07889E6FF22900011E0FF02D8
:1013E00039C1121E4612617D900011E0FF02586C57
:1013F0000260BC0254D7024F89024B63125CA77F84
:10140000032202603E0231640255347895E6FF54AF
:1014100070FEEF54074E90900E02157202421402B5
:101420005C6D12614D7895E67800FC7A0079007E5B
:10143000027F00121DF67F03227895E6FA79007B81
:1014400001C002C001121E63D001D00202151312A6
:101450001D04025A8B0261E6025BF80258FA7D0015
:10146000121DE99000007460F0A37404F090000372
:1014700004F0E4F520AF201258B5E52075F004A47F
:10148000AEF02410F50DE43EF50CFE7400250DF5CC
:101490008274003EF583E520F07401250DF5827419
:1014A000003EF583E509F07402250DF58274003ED7
:1014B000F583E50AF07403250DF58274003EF5838B
:1014C000E50BF00520E520C3946040A9805E900004
:1014D00011E0F520AF201520EF602CAE08AF09E435
:1014E0002FFFE43EFAA9077BFFC002C001121E6372
:1014F000D001D0027E027F00120F5E121D60125FCB
:101500003F0508050880CD7F0322121E637B017A08
:101510003079007E027F00120F5E8010121E637B06
:10152000007A0079007E017F00120F5E125F3F7F1C
:101530000322900011E0600BD259908040E04401FA
:10154000F08009C259908040E054FEF07F03229061
:101550000011E090800A6006E04402F08004E0544C
:10156000FDF01236497F03221249047F0322E490E2
:101570009012F07F03227F8322903E06E064077082
:1015800003A3E0F47042121DFD125738E513540313
:101590007F00FEEF2400F974103EFA7B01C002C008
:1015A0000178007C147D01D001D0027E01120F5E13
:1015B000E4FF12225D8E228F23C3E523789E96E5F9
:1015C000221896400D0217B7903E06E0F522A3E0E0
:1015D000F5237B14E4FDFCAF23AE2212C00FEF4EC7
:1015E00070030217B790100EE0649860030217B7FB
:1015F000A3E064E360030217B790100A121D731290
:101600001E8D901011121D73903E6C120DFA9010E9
:1016100016121D73903E70120DFA90101B121D735E
:10162000903E78120DFA901021121D73903E7C129C
:101630000DFA901026121D73121E93901030E024A4
:10164000FF925F901034E024FF9264901036E02403
:10165000FF9255901038E024FF9266A3E024FF9299
:1016600063A3E024FF9265A3E024FF926790103FFC
:10167000E024FF925AA3E024FF9260A3E024FF92AB
:101680005CA3E0903E03F0901043E024FF925EA341
:10169000E024FF9261A3E024FF925DA3E024FF9287
:1016A00058A3E024FF9250A3E024FF9270305A0424
:1016B0007F0180027F00909001EFF090102EE07883
:1016C0009A46F6909016E030E104E654EFF6121CCC
:1016D000D9FF903E6C121D55FBD3120D9E400A900F
:1016E0003E6C120E1F00000000903E6C121CDCFFCE
:1016F000EC4D4E4F6002D262305F09909000E030B6
:10170000E302C267E4F521E521C378AC9650217568
:10171000F002E521A42400F582E5F03411F583E020
:10172000FEA3E0FF121D8EEEF0A3EFF0052180D79F
:101730007D0112180C700302180712446C7D02120E
:10174000180C7003021807901080E0B4FF09A3E0A2
:10175000B4FF047FC080027FB0903E18EFF07D039D
:1017600012181A7003021807901080E0B4FF09A342
:10177000E0B4FF047FC080027FB0903E1AEFF07D9E
:101780000712181A7003021807901080E064AA70FC
:1017900017A3E0B45512121EB4E0B4A50D903E118B
:1017A000E0B45A06D25B8002D25B903E06E522F09E
:1017B000A3E523F07F0122903E067407F0A374FF97
:1017C000F0E4F52178ACE6FFE521C39F5013789F44
:1017D000E6FC08E6FD121D8EECF0A3EDF00521807D
:1017E000E37E00789FE6FC08E6FD120C1A8E228F3D
:1017F00023AB07AA06E4F9F8AE0EAF0FFCFD120CFE
:1018000081121E8D121E93D25B7F00227B147C00FE
:10181000AF23AE2212C00FEF4E227B147C00AF2309
:10182000AE2212C00FEF4E227F147E007D007B019E
:101830007A007900020E76E50D250BFFE50C350ADE
:10184000FEE43509FDE43508FC788D120DE1C30294
:101850000D9E903E6CE0F8A3E0F9A3E0FAA3E0FB54
:10186000903E74E0FCA3E0FDA3E0FEA3E022788DAF
:10187000120DD5EF24FFFFEE34FFFEED34FFFDEC3B
:1018800034FFFC900000020DFA908017E0250DF562
:101890000DE4350CF50CFE7809AF0DE4FCFD120DDE
:1018A000C2788922AF0BAE0AAD09AC087802120DDE
:1018B000C28F0B8E0A8D098C0822F07403A3F0E40A
:1018C000A3F0A322FFE02FFFE433FE74002FF58284
:1018D00074023EF583E064AA22C2547A0079007E45
:1018E000007F009044007400F0A37400F0E4904185
:1018F00004F022904101E04410F07881E64410F6B3
:1019000022F0A37441F0A3744CF0A37443F0A374C9
:101910004FF0A37452F0A32274002520F582E43422
:1019200002F583E022250BF50BEE350AF50AED35BD
:1019300009F509EC3508F50822A25CE433FF7404CC
:101940007E00A8070822E0FCA3E0FDA3E0FEA3E0E0
:1019500022AE0CAF0DE4FCFDFB7A02F9F8120C810B
:10196000788922FF7E00E07C002400F9EC3403FA41
:101970007B0122A3F0E4A3F0A322903105E0F5134C
:10198000903E06E0FEA3E0FF22FEED9400FDEC9405
:1019900000FC7889020DEEFFE02FFFE433FE7400B7
:1019A0002FF582740322903E03E0FEC3EF9E903E2B
:1019B00002F0541F2274012520F582E43402F583DD
:1019C000E0240222903E15F0903E167401F0903F04
:1019D000F02278007C007D0122C39BFFEE9AFEED91
:1019E00099FDEC98FC229000027480F022789576A4
:1019F0000578962278957602789622F0E490410553
:101A0000F0788922903E01E06401F0909001F0228C
:101A1000AB0BAA0AA909A808020D9E903E0B74FF01
:101A2000F0A322903E0BE0FBA3E0FAA3E0F92274BE
:101A300005F0A37408F0A3740FF0227D017B017AF6
:101A40000079117E0022788D120DD57802020DAF3B
:101A50007889120DE1D3020D9ECEA2E713CE132298
:101A60007880E6FF640222F0A37449F0A37445F085
:101A70002278957606789622C26DC269125EBAE423
:101A80007892F6122C82C259E4908040F090800B3C
:101A90007410F07892E6122CF490800AE04410F072
:101AA00090801AE04401F0908005E030E7F9122CB4
:101AB000517430F0E478A2F6908005E030E7F990B8
:101AC00080147410F0E4908006F0908005E030E01F
:101AD000F9908067E030E01878A2E67010069080F8
:101AE000007405F0E4122C5674E0F080CB122C7BCD
:101AF000E4FD7F2E124A3BE478A2F6902E00E064CB
:101B0000986004E0B4451A78A27601902E02E03085
:101B1000E30F902E05E05407D394044004E64402FA
:101B2000F6E47894F6E47893F67893E690800B7078
:101B3000057480F080037410F0908005E030E7F9C0
:101B4000122D0B7894E6FF1258B5908005E030E72F
:101B5000F978A2E630E10690800074A2F0E490806B
:101B600000F0122CB57430F07894E6701490800573
:101B7000E030E70D7892E630E10778947660021C59
:101B800017908005E030E7F978A2E6600D908000BC
:101B90007405F0E4122CB574E0F0E47891F69080CE
:101BA000147410F0908005E030E7F9E4908006F0BE
:101BB000908005E030E0F990800BE054036009E08C
:101BC00020E13DE4FF1242E6901000E0640D703029
:101BD000A3E06406702AA3E064057024A3E0640611
:101BE000701EA3E0B4191978007C30122CC77E0255
:101BF0007F00120F5E12209BEF7061122C82800B0F
:101C00007891E6C394065003068093789306E6C362
:101C100094025003021B29789406E6C39460500393
:101C2000021B25789206E6C394045003021A83121D
:101C30002C7B9057F2E493908007F0908005E03081
:101C4000E7F9122D0B908005E030E7F9122C517462
:101C500030F0908005E030E7F97F0022D26D9031BE
:101C60009FE0B45108D2599080407401F012364977
:101C7000E4909002F0903192E07004A3E0601D9037
:101C8000300CE05470909005F0903192E0FEA3E0AB
:101C9000FF1247C79090057490F0800A90300CE0D6
:101CA0004401909005F09090027401F0903121E091
:101CB000B45102D26990901EE04440F012C000E49A
:101CC0007883F67F01227A0479007E047F009044B5
:101CD000007404F0A37400F022903E74E0FCA3E0D2
:101CE000FDA3E0FEA3E022908017E0250DF50DE4B2
:101CF000350CF50CFEAF0DE4FCFD7809120DC27831
:101D000089020DEE900010E0900074F0900011E058
:101D1000900075F0900012E0900076F0227DFF7E3A
:101D2000027F007B017A047900020E76250BF50B09
:101D3000EE350AF50AED3509F509EC3508F5082206
:101D4000E50D250BFFE50C350AFEE43509FDE490B1
:101D50003E783508FCE0F8A3E0F9A3E0FAA3E0221E
:101D60007A0079007E007F009044007400F0A37434
:101D700000F022E0FCA3E0FDA3E0FEA3E0FF229040
:101D80003105E0F513903E06E0FEA3E0FF22E521D9
:101D900025E024C2F582E4343EF58322E50D250BCF
:101DA000FFE50C350AFEE43509FDE43508FC22F0B8
:101DB000A261E433A3F0A25DE433A3F0A258E433BC
:101DC000A3F0A250E433A3F0A270E433A3F022F016
:101DD000A266E433A3F0A263E433A3F0A265E43384
:101DE000A3F0A267E433A3F0227E027F007B017A96
:101DF000007900020E767D017B01020F5E903105B5
:101E0000E0F513222FF50BEA3EF50AE93DF509E866
:101E10003CF5082275F002EFA42400F582E5F034C9
:101E200005F5832274002520F582E43404F583222D
:101E3000FFAB0BAA0AA909A808C3020D9E788D1250
:101E40000DE1C3020D9E900017E0FEA3E0FF2225E6
:101E50000BFFEE350AFEED3509FDEC22C394FFEED3
:101E600094072278007C007D0122F582E43402F59B
:101E700083229000747451F0A3222DFDE4338D82EF
:101E8000F583E493FE22789BE644F6F622903E68C2
:101E9000020DFA903E74020DFA04F0A264E433A33A
:101EA000F0A322903E18E064B022ED5407FA7401CA
:101EB000A8020822789AE64401F6903E1022C3E573
:101EC0000B94FFE50A9407227D00121D1F903E68C7
:101ED000121CDCFF900400120DFA90040474E3F06D
:101EE000A37404F0A374A1F07B017A3E796C1259BB
:101EF000C9900407120DFA90040B74A2F07B017ACA
:101F00003E79781259C990040C120DFA900410749D
:101F1000A3F0E4A3F0A26C33A3F0A374A4F07B01BC
:101F20007A3E797C1259C9900414120DFA90041962
:101F300074A5F07B017A3E79701259C990041A1287
:101F40000DFA90041F7401F0A374A6F0A25FE433AD
:101F5000A3F090042374A7F0900426121E9974A98C
:101F6000F090042B04F0A26DE433A3F090900AE00B
:101F700090042DF090042F74AB121DCFA25CE433BB
:101F8000900436F0A25AE433A3F0903E03E09004AC
:101F900038121DAF7B017A3E79741259C990050041
:101FA000120DFA90050474B0F0903E19E09005050A
:101FB000F0903E1BE0900506F0903E18E09005077B
:101FC000F0903E1AE0900508F0A374C0F0789AE60D
:101FD000A3F0A374B1F090051004F0789FE6A3F08D
:101FE00008E6A3F0A374B3F0A26CE433A3F0903E30
:101FF00008E0900515F0A374B4F0789BE6FFA3F019
:10200000789CE6FEA3F0A374B5F090052404F0A339
:10201000EFF0A3EEF090053074B7F0909000E090F0
:102020000531F090053574B8F090054004F090311A
:1020300002E0900541F078A5E6A3F008E6A3F09051
:102040003105E0900544F0903E06E0900545F090A3
:102050003E07E0900546F09090287401F0E4F0000F
:10206000909029E0900550F090902AE0900551F072
:1020700090902BE0900552F090902CE0900553F05A
:1020800078F07C057A3179F07E007F10121DF62001
:102090005306121CC6125F3F7F0322903012E07875
:1020A000A2F690800AE0FF903013E0FEEF4E9080A1
:1020B0000AF09031F0E0F50EA3E0F50F9031F2E078
:1020C00078ACF69031F4E0F510A3E0F5119031F61C
:1020D000E078ADF69031F8E0F5129031FA122C3D2F
:1020E0009031FC789F122C3F9031FE122CD0903111
:1020F00091E0909009F09031A7E078A3F6E67002A5
:1021000076049031A8E0FF125C33903194E06003D4
:10211000122D1F122CDB78827614E4F5237882E6E8
:10212000FF2400F582E43430F583E0640C600302A0
:10213000225774012FF582E43430F583E0FEC45455
:102140000F122CF474022FF582E43430F583E0781A
:1021500080F67882E62403F582E43430F583E07873
:1021600081F6908005E030E7F9E4F521E521C378B8
:102170008096502FAF217401A807088002C333D87E
:10218000FCF5227881566010908005E030E7F91266
:102190002C8A908000F08007122C8A908001F00534
:1021A0002180C97882E62401F582E43430F583E0A9
:1021B000540F7880F6E630E0037F0022E4F521E555
:1021C00021C3788096400302224EE521540725E082
:1021D0002410908014F0908005E030E7F9E49080BE
:1021E00006F0908005E030E0F990800BE054036049
:1021F0000CE030E1037F0022E4FF1242E69080050C
:10220000E030E10A90800AE020E1037F002205210E
:102210000521E5215407F5226007E52178806670E5
:102220009EE5227003752208E5227F0025E0FEC0AE
:1022300006C007E523122CAAA807FC122CC7D0075A
:10224000D006120F5EE5222523F5230221BF7882F6
:10225000740C26F602211D122D3F7F01228F25E4EA
:10226000F50AF50BC3E50B789E96E50A1896400330
:102270000223EEE5257019122BA2CEC313CE13D87C
:10228000F92400F5827414122A9A5E60190223E37D
:10229000122BA2CEC313CE13D8F9122B5D122A9A99
:1022A0005E60030223E37B40E4FDFCAF0BAE0A1249
:1022B000C00F905D02EEF0A3EFF0905D02E0A3305E
:1022C000E720122BA2CEC313CE13D8F9122B5D3EFA
:1022D000F583C083C082122A9D4ED082D083F00243
:1022E00023E3C3905D03E094FF905D02E094074018
:1022F000030223E3E525700CE0B40708A3E0B4FC77
:1023000003022410E525640260030223E3122B3B41
:10231000125E59905D00EEF0A3EFF0C3905D01E016
:1023200094FF905D00E09407400D122B3BAD0BAC89
:102330000A12558F0223E3E514C3942540030223B8
:10234000DA7B407D027C00AF0BAE0A12C00F903EDC
:10235000E2EEF0A3EFF0122B3B903EE2E06E700352
:10236000A3E06F600E903EE2E064077004A3E064B7
:10237000F7702CE514C39419905D00E0FEA3E0FF14
:10238000E5145005122BDF8003122BE9F583EEF0E4
:10239000A3EFF0122B3BAD0BAC0A12558F8037E543
:1023A00014C39419E5145005122BDF8003122BE996
:1023B000F583E50AF0A3E50BF0122BA2CEC313CEF2
:1023C00013D8F9122B5D3EF583C083C082122A9D7B
:1023D0004ED082D083F0051480097D01AF0BAE0A88
:1023E00012C012050BE50B7002050A022264E525F6
:1023F0006015903102E0B5130E78A5E6FC08E6FD05
:102400007FFD7E0712558F7F107A5D7900122BD6E3
:10241000AE0AAF0B22306530789AE630E02A9000A1
:102420000FE0248F24FC501D24F2601924ED601568
:1024300024FC60140424FB500C24A9600824FB60D5
:1024400004247970037F8222D25290000FE0120E92
:1024500050259510259C1124F212254D712551729D
:10246000255573255974255D752568762571772561
:102470007A7825837B258C7C252D81253882254300
:102480008325239624D297250399250B9A25139B00
:1024900024EA9C251B9D24FBF524B2F624BAF724DC
:1024A000DAF824C2F925A3FA24CAFB24E5FF0000C8
:1024B00025AA1254188F1F0225AD124FF88F1F0244
:1024C00025AD125DBC8F1F0225AD125F148F1F0258
:1024D00025AD12622C8F1F0225AD121D04125FFA6A
:1024E0008F1F0225AD1261AA800B1251448F1F026B
:1024F00025AD12601C751F030225AD12413D8F1FD3
:102500000225AD1233E68F1F0225AD121EC88F1FA4
:102510000225AD125D508F1F0225AD124BF38F1FA8
:102520000225AD7F011232AB8F1F0225AD121D04B3
:10253000125F668F1F0225AD121D04125BBD8F1F37
:102540000225AD121D04125DF18F1F80607F028095
:10255000197F02801E7F0280237F028028903E1C0C
:10256000E04402F07F0280267F03125AC98F1F8049
:102570003C7F031260DA8F1F80337F03125B068F6C
:102580001F802A7F03124C838F1F80217F031245F7
:10259000218F1F80181248688F1F80111247248FC7
:1025A0001F800A1212958F1F8003751F82C252AFBF
:1025B0001F2290000FE0F51D7889120DD5EC4D4ECD
:1025C0004F601290000CE0648060047F0380027F03
:1025D000028F1E8003751E017884A61E306D1D308B
:1025E000691A903E15E51DF0E4903E16F0903FF01C
:1025F00074E2F012C01E121A60600122E51D120E74
:102600005026EE0026D403273104266F12273115F9
:1026100026911A26E11B26FB1E26B32326C4252657
:102620004D28265E2A26802F270843271545271C7C
:1026300046272351272A5226A25A26C49E273DA266
:102640002731A32731BB2736BD00002744E51E6490
:1026500002600302274C12274F8F1C022749E51EF8
:102660006403600302274C1238A08F1C022749E53F
:102670001E6402600302274C1207E58F1C022749E3
:10268000E51E6401600302274C1261F88F1C0227CB
:1026900049E51E6402600302274C123AD28F1C02E5
:1026A0002749E51E6402600302274C1235198F1C6E
:1026B000022749E51E6402600302274C124E268F52
:1026C0001C022749E51E6402600302274C123BD915
:1026D0008F1C8075E51E64027072125D188F1C805D
:1026E00068E51E64017065125B808F1C805BE51ECF
:1026F000640170581252838F1C804EE51E64017075
:102700004B1262138F1C8041E51E6402703E12461C
:102710007C8F1C80341262348F1C802D1262068FD5
:102720001C802612593F8F1C801F1259848F1C80D9
:1027300018751C038013125B438F1C800C125EE71C
:102740008F1C80051224158F1CAF1C227F82221241
:1027500061947899E66401702E903E1CE030E02789
:10276000AE0CAF0DE4FCFD780B120DC27889121887
:102770004B70141218A4E50DAE0C7802C333CE339F
:10278000CED8F9F50D8E0C12195112184B60037F3B
:1027900084221250D68F1FEF30E70122788D120D60
:1027A000D5D3121A1040093056030228837F8A229B
:1027B00012183750037F8A22903E02E0FF6011908A
:1027C0004107E030E6111219A67005121A048000C4
:1027D000904107E054BFF0903E02E04440F0206496
:1027E000047F0180027F00903E18E0B4B0047E01B7
:1027F00080027E00EE5F70030228A2121939800366
:10280000121A59D8FBFF7899E66F7001EE60030247
:1028100028A27889120E0600000000E4FFFEFDFCED
:10282000C3121A10705D7899E6B4040B903E6C12D6
:102830001863F50B1218B3903E1EE50CF0A3E50DDE
:10284000F0750C00750D0112C0038F1FE51F30E7F6
:1028500018903E1EE07004A3E06401700FE51F3085
:10286000E0047F0180027F03227F8922908016E0AE
:1028700020E0F9903E1FE024FFF50D903E1EE0346D
:10288000FFF50C7E0C7F007DFF12182EE50D450C28
:10289000600D125F3FE50D150D70F1150C80ED7F99
:1028A0000322125E2612C0038F1FE51F30E72D3072
:1028B000E01C904102E030E00312007E904104E011
:1028C00020E1EF3054031218D9751F018003751FE2
:1028D000037889120E060000000080091218891280
:1028E0000DEE751F89AF1F228F2320520620530340
:1028F0007F0122121DFD12C01520510312C01B7F43
:10290000FC7E07125E598E0A8F0B121EBE40117E8E
:10291000107F007DFF7B017A107900120E768021F6
:10292000E47891F67891E6C394085015E6FD7C00B2
:10293000E62404FBAF0BAE0A12C00F7891060680A6
:10294000E3E523B4FF097508077509FF022A4D90D6
:102950005DFDE07891F6E4F01256908E088F09BE86
:10296000FF06BFFF037F00227891E6905DFDF0E552
:10297000237F0025E0FEEF2400F974103EA801FC3F
:102980007D017B017A0479007E02120F5EE478916A
:10299000F67891E6C394084003022A4D205206209F
:1029A00053037F01227891E68512F084E5F07005EB
:1029B0007BA0122A737FFC7E0712617D9031EEE0CE
:1029C00030E30778917BA2122A737891E625E02400
:1029D00010908014F090800674E0F0908005E03054
:1029E000E0F97891E624028512F084E5F06007E6CC
:1029F0002402540770509080007410F0908005E01D
:102A000030E7F978A2E6FF20E53C9080007470F092
:102A10009080047401F0908002E07892F6EF54C048
:102A20006006908003E046F67892E630E0187D017B
:102A3000AF09AE0812C0127BC1E4FDFCAF09AE08BD
:102A400012C00F02294F78910606022991121EBE6C
:102A500050097D01AF0BAE0A12C012AD09AC087F60
:102A6000FC7E0712558F903E06E508F0A3E509F0BD
:102A70007F0122E6FD7C00AF09AE0812C00F22F5EF
:102A80008374FFF0A3F0EF25E025E02439F582E41C
:102A9000343FF583E075F00AA4223EF583E0FF7C25
:102AA00000E50B540724EAF582EC3457F583E493F0
:102AB000FEEF227E007DFF7B01020E76E52725E0FA
:102AC0002480F582E4343EF58322E52325E025E0E9
:102AD0002438F582E4343FF58322FDEEC313FEEF84
:102AE000132400F58274583EF583E022E52225E0A8
:102AF00025E02460F582E4345DF583E0FEA3E02266
:102B00007E007DFF7B01020E767D017B017E00024F
:102B10000F5E25E025E02436F582E4343FF583227C
:102B2000EC25E02400F582E4345DF5832224EEF503
:102B300082E4343EF583E4F0A3F022905D02E0FEEF
:102B4000A3E0FF22E52225E025E02462F582E434BB
:102B50005DF583E02224E6F582E4343E222400F58C
:102B600082745C227C00540724EAF582EC3457F529
:102B700083E493227F007B01020E76E52178A02674
:102B8000FFE41836FE2225E025E02439F582E434FE
:102B90003FF58322E52225E025E02463F582E43435
:102BA0005D22E50BAE0A78032225E0241090801404
:102BB000F090800622E52125E024A2F582E4343E4F
:102BC00022789AE64420F67EFF7FFF2225E024C289
:102BD000F582E4343E227E007DFF7B01020E7625E5
:102BE000E02456F582E4343F2225E02415F582E402
:102BF000343E22AF177E0078A4E6FAFD7C00120C6A
:102C00001A7891E625E02427F582E4343EF583EE38
:102C1000F0A3EFF0E5188AF0A4FFE625E02427F5FD
:102C200082E4343EF58322120F5E7A0079007E0042
:102C30007F009044007400F0A37400F022789DE0BF
:102C4000FEA3E0A60608F6227D017B017E00020FAE
:102C50005EE4908000F0908001F0F0F0F0F0908061
:102C60000022F0E512FD7C00AE0AAF0B120C2CEC3A
:102C7000C313ED13FDE5178DF0A42290801AE054E4
:102C8000FEF090800AE05480F0227882E62521FF51
:102C9000E433FE74042FF58274303EF583E0227B2A
:102CA00020AD0BAC0AAF09AE082225E0FEE42400FB
:102CB000FFEE34A022908001F0F0E50BF0E50AF081
:102CC000E509F0908000227D017B017A10790022D5
:102CD00078A5E0FEA3E0A60608F6229080157455BC
:102CE000F074AAF0227E027F007D007B017A0079D9
:102CF00000020E769057F293908007F02290804069
:102D0000E0FFA259E433FEEF4EF02290800074FF02
:102D1000F022E517C313F517E518C313F51822E0E1
:102D20005470FFE054074F90900EF022908000F016
:102D300090800122EBC31378B2F678A406E62290C5
:102D400080157477F022908017F090801674C0225E
:102D50007D017B017E00020F5E8F2178ACE6F515C8
:102D6000F513C251E4F523E513D378A1965003027D
:102D70002EBA151312C01530510612C024022E842B
:102D8000E4F522122B4465136003022E78122ACA3E
:102D9000E0F46004052380F5E4F524E524C39523DD
:102DA000502A122B44FFE524122ACCE0B507191251
:102DB0002AECFFE524122B12E0FCA3E0B50709EC96
:102DC000B506050522022D83052480CF122AECFFCB
:102DD000E523122B12EEF0A3EFF0122ACAE513F04E
:102DE000122B94122A922410F9745D35F0FA7B01AB
:102DF000C001E523122A8724E6F9743E35F0A801C4
:102E0000FC7D01D0017E007F0A120F5E122B94F52B
:102E100083E075F008A42480F9745D35F0FA7B0135
:102E2000C001E523122B86E075F008A4248CF97408
:102E30003F35F0A801FC7D01D0017E007F08120F14
:102E40005EE523122A87122B55122AF9C3950FEE3D
:102E5000950E5024E523122A8724E8F582E4343EB7
:102E6000122AF9FF7D0112C018E523122A87122BBE
:102E700055F583EEF0A3EFF00522E522C394085048
:102E800003022D83E521600FE4F51412C02105141F
:102E9000E514C3940840F478107C5D7A3E79E67FAF
:102EA00070122B0978807C5D7D017B017A3F798CE3
:102EB0007E007F38120F5E022D67228F1CE478A4FB
:102EC000F6908016E020E0F9904104E020E1F9124C
:102ED0001D60900000120E1F555342537B007A0074
:102EE00079851259C9900004120DFAE490000CF093
:102EF00090000BF090000AF0900009F0900008F0AC
:102F0000904106740DF0E4904105F0D254904104D4
:102F1000E030E10A904102E030E0F27F0022C2544A
:102F20007A0079007E00121D68E4904104F0E51CEF
:102F30007002FF22C28CC28DE4F58CF58AD28C908F
:102F40003E02E0FF6024904107E030E624903E031B
:102F5000E0FEC3EF9E903E02F0541F700D903E01C4
:102F6000E06401F0909001F08000904107E054BFD0
:102F7000F0903E02E04440F0904104E020E01090E8
:102F80004102E030E0037F0022308DEC7F00229090
:102F9000000FE0701A78A4E6C39401501290000D5F
:102FA000E0788366700978A406123001022ECF9073
:102FB0000011121D737891121E3F704290000FE0B5
:102FC000651C703A90000DE0788366703190801631
:102FD000F0123001121D60E4908014F0900016E0B1
:102FE000F50CA3E0F50D7891120DD58F0B8E0A8D9F
:102FF000098C08121D9C7891120DEE7F01227F0032
:10300000227B017A0079041259C97885120DEE22CB
:10301000904106E0547FFFBF211C7F437E427D53D9
:103020007C55900000E0F8A3E0F9A3E0FAA3E0FBF0
:10303000C3120D9E6007788476027F82227B017A1C
:103040000079041259C97885120DEE7B017A007956
:10305000081259C97889120DEE7A0079007E0012A3
:103060003F9C90000DE07883F690000FE0306E3FBB
:103070006412602A7888E6B4051718E6B48F12182F
:10308000E6B4930D18E6B48408903E1C7402F080F8
:1030900006903E1C7407F0306504E4789BF6C26E1F
:1030A000E47899F678A1E6F5139090077401F02082
:1030B0006C0302313FA264E433FF903E18E0B4B0E9
:1030C000047E0180027E00EE5F6020A25CE433FF9C
:1030D0007883E6FEB5070F7402A806088002C333A2
:1030E000D8FCF51C8037751C108032206115A26257
:1030F000E4332401FFE433FE7883E6FDB50711E4F1
:10310000B5060D306305751C088012751C01800D15
:103110007402A805088002C333D8FCF51C3067355B
:10312000205832205703305603305D297883E6FF5C
:103130007401A807088002C333D8FCF51C801678F8
:1031400083E67008903E08E0F51C8009751C047841
:103150009CE64404F6E51C7899666005AF1C1250A5
:10316000677F0222C26DC269122CDBE4F521E521E2
:10317000C3789596501D122C2A12614DE521122C10
:10318000AAA807FC7D017B017E027F00120F5E056D
:103190002180DB122D3F122C2A12614D9001FEE09E
:1031A000B44A06A3E0644E60037F8922900000E0E9
:1031B00090800AF030E00678A276408004E478A29D
:1031C000F67898E6B4800790800AE04480F090009A
:1031D00002E078ACF6900004E0F510A3E0F5119061
:1031E0000006E078ADF6900008E0F51290000A12B3
:1031F0002C3D90000C789F122CD290000EE0F50E22
:10320000A3E0F50F900191E0909009F090019FE00C
:10321000B4510AD2599080407401F08007C259E439
:10322000908040F0E4909002F0900192E07004A34E
:10323000E0601D900010E05470909005F0900192B5
:10324000E0FEA3E0FF1247C79090057490F0800A5B
:10325000900010E04401909005F09090027401F00D
:10326000900194E06003122D1F900011E0FF125CAA
:10327000339001A7E078A3F6E670027604D26D7869
:10328000007C317A0179007FF0122D5090310312C9
:103290002CD090310FE078A2F6123649903121E01F
:1032A000B45102D26912C0007F03228F217E027FB7
:1032B000007D00121D2390040974F1F0903E681205
:1032C0001CDCFF90040A120DFA90040E7498F0A30F
:1032D00074E3F0A374F2F0903E6C121CDCFF9004D7
:1032E00011120DFA90041574F3F0903E70121CDC6C
:1032F000FF900416120DFA90041A74F4F0903E78C0
:10330000121CDCFF90041B120DFA90042074F5F0DF
:10331000903E7C121CDCFF900421120DFA900425D3
:1033200074F6F0121CD9FF900426120DFA90042AAC
:1033300074F7F0E4A3F0A304F0789AE6541690042E
:103340002EF0A374F8F0A25FE433A3F0A374F9F0B5
:10335000900433121E9974FBF0A255E433A3F0A33A
:1033600074FC121DCFA25AE43390043FF0A260E433
:1033700033A3F0A25CE433A3F0903E03E090044258
:10338000F0A25EE433A3121DAF90048074E1F090CC
:10339000048504F0E478A4F679A4E7C378AC9650E9
:1033A0001778A4E6FF121D90E0FCA3E0FD121E14A6
:1033B000ECF0A3EDF00680E0789AE69005FFF0E5EA
:1033C000216006121CC6125F3FE4FF1228E8EF607E
:1033D000127889120E0600000000306C03121E865F
:1033E0007F03227F8922903E18E064C060037F89BA
:1033F00022205306121CC612614D7B017A0479000B
:103400001259C9903E6C120DFA7B017A04790612AA
:1034100059C9903E78120DFA7B017A04790B125942
:10342000C9903E7C120DFA7B017A04790F1259C9BA
:10343000903E70120DFA7B017A0479401259C98FBF
:103440000B8E0A8D098C08900445E0903E0EF0909A
:103450000446E0903E0FF0900444E06451704990BF
:1034600004FEE0644A7028A3E0644E7022FF78AC4A
:10347000E6FEEFC39E5014121E14E0FCA3E0FDEF25
:10348000121D90ECF0A3EDF00F80E3E4789CF6AF12
:103490000BAE0AAD09AC08EC4D4E4F600BAF0BAE56
:1034A0000AAD09AC08121E8D903E6C121CDCFFECBC
:1034B0004D4E4F6003D38001C39262900404E0B488
:1034C0005103D38001C3925CA25CA062925C903EE7
:1034D00078121CDCFF903E70121D552FF50BEA3E52
:1034E000F50AE93DF509E83CF508206009903E70D1
:1034F000121CDC121D2C903E68121CDCC3950BFFC5
:10350000EE950AFEED9509FDEC9508FC121E9378E8
:1035100099E6FF1250677F0322900011E0543FF5B7
:103520001F7520FF7521807899E6640160030235DC
:10353000EF903E1CE020E0030235EF1261D3EF6014
:103540004D900202E06047A3E09002021218C4709E
:103550003D900202E02408F520E51FB43F08A3E0F7
:1035600024F8F521802812191864AA60101219187D
:10357000651F60091219B52520F52080E912191878
:1035800064AA60071219B5F52180037520FFE520B4
:10359000B4FF097E007F8012182C804F900202E059
:1035A0007E002400F9EE3402FA7B01C002C0011251
:1035B00019D2D001D0027F08120F5EAF217E007CAD
:1035C0000074002520F9EC3402FA7B01C002C0012E
:1035D00078087C007D01D001D002120F5EE5212425
:1035E00006900001F074082521F521AF218056E4F2
:1035F000900000F0A37406F0E4A3F0789AE6FB5480
:10360000F960047F8080027F00900003EFF0A31236
:103610000E1F00000000EB78995654066003121943
:10362000E620560330570C7899E6B4010690000363
:103630007480F0306C0D7899E654186006900003A1
:103640007480F07F0812563B2290800AE030E1053A
:10365000751702803F90800BE030E40575172080DD
:103660003390800BE030E505751750802790800B74
:10367000E030E305751748801B90800BE030E605CD
:1036800075177A800F90800BE030E7057517808002
:103690000375172E75180478A2E654C06003122D26
:1036A000129031EEE030E348E47891F6A3E078B28E
:1036B000F6E66018E478A4F678B2E6FB30E007128C
:1036C0002BF3E02FF006122D34B408EC9031EDE02E
:1036D00078B2F6E6605378A4760878B2E6FB30E07C
:1036E00007122BF3E02FF006122D34B410EC8039C2
:1036F000E478A4F6E512C313FF78A4E6C39F50292B
:10370000AF177E00E6FBFD7C00120C1AEB122C1B9F
:10371000EEF0A3EFF078A4E6FFE5188FF0A4FEEF3B
:10372000122C1BE02EF00680CB903195E0703F907C
:10373000800BE030E30578B276262290800BE030F3
:10374000E40578B2760E2290800BE030E50578B281
:10375000762A2290800BE030E60578B276422290FD
:10376000800BE078B230E70376462276162290315D
:1037700095E078B2F6228F21903E0AE0FF700302B6
:10378000389CD3944040047E408002AE07E4FFEFB3
:10379000C39E5031903E0BE0FBA3E0FAA3E0F9900A
:1037A0003E09E0FD7C00E92DF9EC3AFAEF29F9EC4D
:1037B0003AFA120BD4FD74402FF582E4340EF583EF
:1037C000EDF00F80CA7898E6FF20E606E521640256
:1037D0006009EF30E615E521B40710900E567440ED
:1037E000F0E4A3F0900E5D74408014E521B406135C
:1037F000900E40740AF0A37406F0900E487401F025
:10380000E4A3F0E521B40706900E417407F0E5212A
:1038100064016005E521B4060FE4900E42F0A37444
:1038200002F0900E477440F0E5216401702B900E79
:103830004AE0B48006A3E06493600AD26C900E5014
:103840007403F08007C26CE4900E50F0206D0A9073
:103850000E4A7434F0A37412F0E52164026005E5A9
:1038600021B40708903E05E0900E48F0904103EE29
:10387000F0904102E020E1F9904102E0542160051E
:10388000E054FEF022904102E020E013903E0AE076
:10389000C39EF0903E09E02EF0023778123FFD22E1
:1038A0001261947899E664017027903E1CE030E044
:1038B00020AE0C780B12189912184B70141218A421
:1038C000E50DAE0C7802C333CE33CED8F9F50D8EAC
:1038D0000C12195112184B60037F84221250D68F9C
:1038E0001FEF30E7012212183750037F8A22306C15
:1038F000107899E6FF6401603DEF541860037F87FC
:1039000022789AE6600F54066008799AE77899560B
:1039100060037F8722903E18E064B0702EA25C1294
:10392000193C8003121A59D8FBFF7899E67C00B540
:103930000719ECB50615E50D150DAE0C7002150C4A
:103940004E600512614D80EE7F0322903E02E0FF43
:103950006011904107E030E6111219A67005121AA5
:10396000048000904107E054BFF0903E02E04440E4
:10397000F0125E2612C0068F1FE51F30E72D30E0E3
:103980001C904102E030E00312007E904104E020F0
:10399000E1EF3054031218D9751F018003751F031E
:1039A0007889120E06000000008013121889120D8B
:1039B000EE751F89E50D450C700478847601AF1F04
:1039C000228F218513227895E6F513E52130E00357
:1039D0007F8922122C9F12C00FE4908014F0852161
:1039E00023FE7F40FD122CC9120E76908005E03038
:1039F000E7F9E4908006F0908017E523F0908016B8
:103A00007480F0908016E0540A60F8908016E030E0
:103A1000E12D90800BE030E1057521EE8007E4FF99
:103A20001242E68F21908017E0FFC3E5239FFFC37A
:103A3000132400F582E43410F583E521F080BE9074
:103A40008016E020E0F9904104E020E1F990800B3D
:103A5000E0900000F0908005E020E12D126166907A
:103A60000001EEF0A3EFF0908030E0900007F090BE
:103A70008031E0900008F0908032E0900009F090F2
:103A80008033E090000AF080189000017407F0A3E2
:103A900074FFF07E007F04FD7B017A007907120E2F
:103AA00076900003E508F0A3E509F0900005E50A2B
:103AB000F0A3E50BF090000B74AAF0780C7C0012D8
:103AC0002CC77E007F40122C27125F3F8522137F78
:103AD0000322E4F51F7899E6B4010A903E1CE03019
:103AE000E0037F8322900010E05408131313541F47
:103AF000900400F0900011E0543F900402F0900018
:103B000012E0900403F0900013E0900404F09000A1
:103B100014E0900405F07E027F0012182CE490005F
:103B200001F0789AE6FF54F960047E8080027E00FE
:103B3000900002EEF0E4A3F07899E6FE5F54066090
:103B4000031219E6205603305707EEB40103121989
:103B5000E6306C0A7899E6541860031219E6751F6E
:103B600004306D11741A1219C474E0F012C01E12E0
:103B70001A60600122900402E0900004F0900402B8
:103B8000E0604924F8601224C96018242370309042
:103B90000005740AF0740C80209000057412F07413
:103BA0001480169000047408F0A37412F0900018AA
:103BB000741CF0A3740AF07420251FF51F800D906B
:103BC00000057401F0E4A3F0051F051FE51F149024
:103BD0000000F0AF1F12563B221250D68F1FEF305D
:103BE000E703023CC87E007F207D007B017A0479D8
:103BF00000120E7690000FE0F520B4251390001708
:103C0000E05401F52178047C04121A3B7F048011F2
:103C100090001DE05401F52178007C04121A3B7FCE
:103C20000C120F5EE521701D900400121946FFEC86
:103C30004D4E4F700D900404121946FFEC4D4E4F3F
:103C400060037F84227899E664017033903E1CE023
:103C5000FF5405FEBE010CEF4404F0903E1DE070E1
:103C60000204F0305E19903E1CE030E012121A4659
:103C7000121873900004120E1F00000800802C78A8
:103C800099E6B410143062081218521219D980043F
:103C9000121860FF788D120DEEE520B42511121870
:103CA0006E900004120E1F000002007F0880167E36
:103CB000007F2012182C12186E900008120E1F00A0
:103CC0000002007F2002563BAF1F22AD0790410447
:103CD000E020E1F9ED247FB40F004003023D909015
:103CE0003CED75F003A4C58325F0C58373023D1A2E
:103CF000023D20023D28023D61023D30023D370277
:103D00003D3E023D48023D4F023D5A023D68023DA4
:103D100090023D73023D7D023D841218F37F05221F
:103D20001219ED7626023D8C1219ED7620023D8C9B
:103D30001219F4763A8055121A717628804E7895C9
:103D400076077896762780441219F4760480051257
:103D500019F476FF789776FF80361219ED76218078
:103D60002B1219ED762480241219F47604789776B4
:103D700001801D1218F3121A717629800F121A7120
:103D8000762980087895760378967611E47897F608
:103D90007884E6FCB402071218F37D078017ECB4B0
:103DA0000311904101E04404F07881E64404F67D7B
:103DB0000680027D04AF0522124EA6903E017401DA
:103DC000F0904102E030E00312007E7880E6B4011A
:103DD00018904104E030E0111230107880EFF6BF07
:103DE00002071225B27880A6077880E6FF64036098
:103DF00004EFB40405124F1880C77880E6B4050BB1
:103E0000904101E020E4047603801D7880E6FFB451
:103E10000607904101E030E20BEFB4070B9041013F
:103E2000E020E404788076047880E6FF30E707122B
:103E30003CCB7880A607306F09C26F904107E04401
:103E400001F07880E664017047904107E030E64079
:103E5000903E02E0FF6039903E03E0FEC3EF9E908B
:103E60003E02F06015E0541F7007903E01E06401CF
:103E7000F0904107E054BFF0800E305A047F01807B
:103E8000027F00903E01EFF0903E01E0909001F043
:103E9000904107E020E403023DC1125350023DC1AE
:103EA0000902200001010080320904000002080616
:103EB000500007050102000200070582020002000F
:103EC0000C121E0422183A286210721C12010110F2
:103ED000000000408F0580930100010200010403EF
:103EE0000904180341006C0063006F007200200099
:103EF0004D006900630072006F0028034D006100EF
:103F0000730073002000530074006F0072006100A2
:103F100067006500200044006500760069006300CA
:103F200065001003360039003900300046003000CB
:103F3000310047656E657269632055534220466CB7
:103F4000617368204469736B2020372E3736000078
:103F500000000000000000AAAAAAAAAAAAAAAAEE23
:103F6000EEEEEEEEEEEEEEFEFFFFFFFFFFFFFFFFD9
:103F7000FFFFFF7FBFDFEFF7FBFDFC7EBFDFEFF74B
:103F8000FBFD7E900E45E0900074F0900E46E090B0
:103F90000075F0900E47E0900076F0229044007497
:103FA00000F0A37400F02278407C0E7D017B017A42
:103FB0000E79007E007F08120F5E904102E054FEF1
:103FC000F022F0904102E04441F022903E0B74FF59
:103FD000F0A3743EF0A374C0F022E0FCA3E0FDA3C4
:103FE000E0FEA3E022851320903105E0F513903E1A
:103FF00006E0FEA3E0FFC394FFEE94072290410287
:10400000E04451F0227A047900903E0B7401F0A351
:10401000227881E654EAF6904101E0442AF0E05427
:10402000EA22900E45E0900075F0900E46E0900078
:1040300076F022E493903E09F022A3F0E4903E094A
:10404000F022E4904104F07880760122904106F05D
:10405000E4904105F022D253900E44E022903E209D
:104060007403F022909000E030E2037F00229090F1
:1040700012E030E0037F0022121A78EF7002FF2274
:10408000121579E4F513E513C378AC96501DE513CA
:10409000122BCC122AF9789FA60608F6E61846607D
:1040A0000678A1A6138004051380DB90900AE02017
:1040B000E707909000E030E411909016E020E50AC8
:1040C000E030E20312C0247F0122909016E020E04D
:1040D0003378ACE62401FFE433FEEF25E0FFEE3356
:1040E000FE7DFF7B017A3E7980120E7678ACE67514
:1040F000F002A4FFAEF07DFF7B017A3E79A2120EA2
:1041000076125A0E903120E06451602E1258227FB0
:104110000212225D124AD0909016E054F7F07E0809
:104120007D007A347900122B747F01122D59909002
:1041300016E054CFF0E4903E5FF07F01222053065A
:10414000121CC612614DC266C263C264C265C267F8
:10415000C25AC25FC260C25EC261C25DC258C25072
:10416000C270900403E0B45104D264805A900404F5
:10417000E0B45104D266804F900405E0B45104D2FB
:10418000638044900406E0B45104D2658039900401
:1041900007E064517031D267900400E0B45102D25C
:1041A0005F90040EE0B45102D25E90040FE0B4516F
:1041B00002D260900413E0B45104D25D80099004EF
:1041C00014E0B45102D25890040BE0B45102D25A18
:1041D000900409E0B4510DE4903E02F090040AE02E
:1041E000903E03F0305A047F0180027F00909001DE
:1041F000EFF0900412E0B45106A2677263926190EE
:104200000415E0B45102D250900416E0B45102D229
:10421000707F0322122CE59000027498F0A37401C1
:10422000F078A7E6A3F008E6A3F008E6A3F008E616
:10423000A3F0A3744AF0A374E3F0A37404F0909085
:104240000AE090000BF0A26CE433A3F07898E6A3A8
:10425000F0900010744AF0A3E513F0A251E433A3E8
:10426000F0908007E0900013F090900EE090001422
:10427000F0900020744FF09000307448F0900040AF
:10428000744EF090800BE0900100F0909013E0905D
:104290000101F0A3E519F0908009E0900103F0908E
:1042A0008011E0900104F0909012E0900105F090F0
:1042B0008040E0900106F09090287401F0E4F00056
:1042C000909029E0900110F090902AE0900111F078
:1042D00090902BE0900112F090902CE0900113F060
:1042E000125F3F7F0322E519601F90800BE030E1F1
:1042F000037FEE22908010E0FD90800F7401F0901B
:10430000800FE030E0F9AF0522E490800CF090805F
:104310000BE030E1037FEE2290800DE0F5289080E5
:1043200010E0D378B39640037FEE22908006E054ED
:104330003025E0FDE4FCECC39528507090800CE043
:10434000F9908020E0FE908021E0FBEEF526EBF571
:104350002794FFE52694034015E5279404E5269469
:1043600004500B74302527F582E434808036C3E591
:10437000279404E52694045033ED6016C3E5269493
:10438000024004ED20E622C3E52694025004ED200D
:10439000E517908013E0FEE42527F527EE3526F596
:1043A00026852782F583E069F00C808A908010E0F2
:1043B000FF2278AEE66F700302446B78AEA6071258
:1043C000C027EF4E70089090107404F080FE90802B
:1043D0000AE054EEF0E4909002F09090057431F011
:1043E0009090027401F09080147410F0908022F08C
:1043F0009080237405F090801714F090801674C09C
:10440000F0908016E020E0F9E4908023F090800A9C
:10441000E0FF903013E05410FEEF4E90800AF078E9
:10442000A2E654C06004E04401F0E4909002F090F1
:104430003192E07004A3E0601D90300CE054709065
:104440009005F0903192E0FEA3E0FF1247C79090F4
:10445000057490F0800A90300CE04401909005F0D3
:104460009090027401F0E4908023F022901000E01C
:1044700064996003024520A3E064076003024520BD
:10448000901003E0FF901002E02F2432FFE4FEFDC5
:10449000EDC39F501074002DF582E43410F583E0D5
:1044A0002EFE0D80EB74002FF582E43410F583E0CE
:1044B0006E706DD26B306B2390107DE0F4FF901026
:1044C0007CE0B50716E0D394FA4008903E0574FAF4
:1044D000F0800890107CE0903E05F090107EE06443
:1044E0003C703DA3E064C37037901081E0640370BA
:1044F0002FFEFD901080E0FFEDC39F501074802DC3
:10450000F582E43410F583E02EFE0D80E6901080F5
:10451000E02480F582E43410F583E0B50602D26A27
:10452000228F21121D85121E5C5014851322121D2C
:10453000FDAD217C007B1212C00F85221380031277
:104540001D1D903E19E0900400F0903E1BE0900489
:1045500001F0903E18E0900402F0903E1AE0FB90CB
:104560000403F0A374C0F0A25BE43325E0FE789A64
:10457000E6FD54012E900408F090047EEDF0E65420
:1045800006FFBF0604E04440F0E521B4020A903E75
:1045900018E0900480F0800AE521B40305900480BF
:1045A000EBF0205F0E909000E030E307E490048190
:1045B000F080069004817401F090048274E3F0A30B
:1045C0007404F0205306121CC6125F3F7F03229032
:1045D0003E057432F0E4789AF60876FF08F6903ECD
:1045E000087480F0C251C26CC26BC26AC264C267F6
:1045F000C262C255C266C263C265C26178B3764800
:10460000C25AC25FC260C250C270C258C25EC25DAE
:10461000C25C903E68120E1F00000000903E6C12BB
:104620000E1F00000000903E70120E1F00000000E0
:10463000903E74120E1F00000000903E78120E1F74
:1046400000000000903E7C120E1F00000000903E13
:10465000037410F0E4789AF6903E1874C0F0903E1F
:104660001AF0E4903E19F0903E1BF01255E61260ED
:10467000AA903E5FF09090167438F022900010E0FF
:104680005402F51FE47F01FEFDFC788912184B707F
:10469000037F8422900011E020E107900018E030B1
:1046A000E74A1261D3EF603B900200E06035A3E07F
:1046B0009002001218C4702B900201E0FF7E00905F
:1046C0000200E07C002400F9EC3402FA7B01C00215
:1046D000C0011219D2D001D002120F5E900201E087
:1046E000FF80327F3012182A7F30802912182890DC
:1046F00000027401F0A3F09000057414F0A374019B
:10470000F0E51F25E025E0240A900001F090000A62
:10471000E51FF07F1412563B7889120E0600000048
:10472000007F03222065037F8222900013E0641043
:1047300060037F84227A047900121CCEE490410445
:10474000F0904104E030E0F978847601789AE63020
:10475000E0037F8722E4F520121E24E07027052065
:10476000E520B410F3121D857B147D077C0012C078
:104770000F901080E0B4AA0AA3E0B45505121D1DE5
:1047800080357F032290048074AAF0A37455F090C2
:104790000400E0F521E4F520121E24C083C082E06D
:1047A000FFE520FDE521121E7AEF6ED082D083F066
:1047B0000520E520B410E17F071228E8EF6005C26C
:1047C0005B7F03227F89228E228F23E4FD79FFFC09
:1047D000EC64027003024867909003EDF09090043F
:1047E000E9F090900B7401F090900BE030E0F990BC
:1047F000900CE0FE90900DE0FBEEF524EBF525909B
:10480000900CE0B52306E4B522027C02EC1460258E
:104810000470BDC3E5259523E5249522500DE9706C
:10482000047C0180ABE9C313F980A5ED25E04401C8
:10483000FD7C01809BD3E5259523E5249522400F3F
:10484000BDFF047C028089ED25E04401FD80817C70
:1048500002E52565237004E524652270030247D034
:10486000EDC313FD0247D0222065037F8222900012
:1048700013E0641060037F84227A0279007E027F55
:10488000009044007402F0A37400F012614D78842B
:104890007601305B037F8722121D85121E5C5061FA
:1048A000851320121DFD7B107D077C0012C00F8533
:1048B0002013900200E0FFE4F520E520FDEF121E3A
:1048C0007A74002520121E6AE06EFE74002520F521
:1048D00082E43400F583E06E6011D25B121EB47482
:1048E000A5F0903E11745AF07F87220520E520B490
:1048F00010C8E4903E10F0903E11F0789AE654FE15
:10490000F67F0322909016E04438F078ACE624015C
:10491000FFE433FEEF25E0FFEE33FE7DFF7B017AFF
:104920003E7980120E7678ACE675F002A4FFAEF008
:104930007DFF7B017A3E79A2120E76903E5F74FF76
:10494000F0E4F513E513C378AC96501EE513121D81
:1049500090E0FEA3E0789FA60608F6E618466006FB
:1049600078A1A6138004051380DA125A0E12582279
:104970007F0212225D909016E054F7F0124AD07E2A
:10498000087F007D007B017A347900120E767F016A
:10499000122D59909016E054CFF0E4903E5FF02233
:1049A00078A1E6F527E527D378AC96503E122ABCCD
:1049B000E0F525A3E0F526C394FFE52594075027ED
:1049C000E526AE257803CEC313CE13D8F9122B5D9E
:1049D0003EF583C083C082E0FFE526122B64F4FE1F
:1049E000EF5ED082D083F0052780BA78A1E6F52764
:1049F00078ACE6FFE527D39F5040E527B507279021
:104A00005DFDE07895F6909006E0FFC313905DFDA4
:104A1000F012569078ACE6122ABEEEF0A3EFF078D2
:104A200095E6905DFDF0122ABCE0FCA3E0FDE527D1
:104A3000122B7D12558F052780B6228F2490801A65
:104A4000E0F930E4155301EF908007E0FCE4F090CA
:104A5000801AF0908007ECF08005E490801AF090C6
:104A60008005E030E7F9122D0B908005E030E7F982
:104A70009080007490F0908001EDF0000000000044
:104A800000000000000000E4FC9080047401F0903D
:104A90008002E0FDE524FEEC7A002400FFEA3E8F70
:104AA00082F583EDF090800AE030E01A908003E018
:104AB000FDE524FEEC2400FFEA3EFE74082FF5829B
:104AC000E43EF583EDF00CBC06BF90801AE9F022BD
:104AD00078A1E6F52178ACE6FFE521D39F400302FB
:104AE0004B62E521122ABEE0FCA3E0F47002ECF474
:104AF000706BE521C39F500BE521122BCC122AF9D4
:104B00004E605A122B7B125E598E228F23C3E523EF
:104B100094FFE522940740191256908E228F23129B
:104B20002B7BAD23AC2212558F122BB5122B348068
:104B300020E52178A1667019FDAF23AE2212C018BE
:104B4000AD127C00120C2C122BB5F583EEF0A3EF06
:104B5000F0E521122ABEE522F0A3E523F0052102AB
:104B60004AD5227898E630E6047F0080027F809064
:104B70004104EFF08513217895E6F5137BA0122C04
:104B8000A112C00FE4908014F07402122D46122C72
:104B90006285F022F523E5188DF0A425182522F56D
:104BA00022908016E020E0F97898E630E6047F0055
:104BB00080027F80904104EFF0904104E030E0F902
:104BC000908040E054FEF07485122D2CE523F0E532
:104BD00022F09080067484F0908005E030E0F99037
:104BE00080007410F0122CFDE4908014F0852113E5
:104BF0007F0322206A037F0322205306121CC61261
:104C0000614D851321121D7F7B117D017C0012C037
:104C10000F852113E4F521E52125E0FFE433FE743F
:104C2000822FF58274023EF583E0FF740025211285
:104C30001E6AEFF00521E521B408DCE4FFF521E56B
:104C40002154072400121E6AE0FE74002521121E62
:104C500028E06E2FFF0521E521B440E3EF7021909D
:104C60000440E0789A30E40DE64410F6909016E0A7
:104C700054FDF0800BE654EFF6909016E04402F0FD
:104C80007F03228F21E521B40209903E19E0D394DD
:104C900002500EE521B4030C903E1BE0D394024079
:104CA000037F8922205306121CC612614D851322F0
:104CB000121D7FAD217C007B1112C00F85221312C3
:104CC00051B1E52164027024BFB00F903E18E0B4EA
:104CD000B008903E19E004F08005E4903E19F09091
:104CE0003E18EFF0306C26121E868021E521B403B9
:104CF0001CBFB00F903E1AE0B4B008903E1BE00419
:104D0000F08005E4903E1BF0903E1AEFF07F032206
:104D1000C299ED30E61275990D3099FDC2997599D9
:104D20000A3099FDC29980087599203099FDC29981
:104D3000ED30E01BEF75F00A842430F5993099FDD1
:104D4000C299EF75F00A84E5F02430F5998032EFCE
:104D500054F0C4540FFED39409400674372EFE80DD
:104D60000474302EFE8E99EF540FFED39409400642
:104D700074372EFE800474302EFE3099FDC2998E59
:104D8000993099FDC299ED30E71075990D3099FD74
:104D9000C29975990A3099FDC29922E4903E21F09A
:104DA000A3F0903E21E0FCA3E0FDC3EC9402505D33
:104DB000904102E05421600BE054FEF0903E2074DC
:104DC00004805C904102E030E007903E2074028055
:104DD0004E74002DF974043CFA7B01C002C00178C6
:104DE000407C0E7D01D001D0027E007F40120F5E1C
:104DF0009041037440F0904102E020E1F9903E229E
:104E0000E02440F0903E21E03400F08095123FFD18
:104E1000E4903E20F0125E8BEF7008903E2004F08C
:104E20007F00227F01221250D68F1FEF20E7747877
:104E300099E6B410143062081218521219D980047D
:104E4000121860FF788D120DEE121828900003746E
:104E500010F09000087402F090000AF0900012F038
:104E60007899E664017021305E1E903E1CE030E0CF
:104E7000179000037408F090000AF0121A46900090
:104E800004120DFA7F0C8018788D120DD590000455
:104E9000120DFA788D120DD590000C120DFA7F14B8
:104EA00002563BAF1F22E4904104F0904200E054D0
:104EB00003700C904107E030E4F112535080EC9005
:104EC0004200E0789830E004764080097680908057
:104ED0000AE04480F0E47881F6903E04F090900A75
:104EE000E020E72F909000E020E428904104E0FFCC
:104EF000904102E04F20E00C904107E030E4EC12DA
:104F0000535080E7126132E4909010F0909016E0D8
:104F10004401F07880760122908016E020E0F9903C
:104F20004104E020E1F97A0079007E007F00123F21
:104F30009C900000120E1F555342537B007A00795B
:104F4000851259C9900004120DFA7B007A00798904
:104F50001259C9900008120DFA7880E6B403047F54
:104F60000080027F0190000CEFF0740D12404C9015
:104F70004104E030E10C904102E030E0F212007EAA
:104F800080ED123F9C124042228513217895E6F570
:104F900013122C9F12C00FE4908014F0908005E053
:104FA00030E7F9E4908006122C6285F022F523E5C3
:104FB000188DF0A425182522F522908005E030E018
:104FC000F9125F3F125F3F908040E054FEF074059D
:104FD000122D2CE523F0E522F090800074E0F09093
:104FE00080067404F0908005E030E0F9122CFD1288
:104FF0005F3F8521137F0322126194121D40FBC382
:10500000120D9E50037F8A22903E7C121CDC121EE1
:1050100030400A903E1AE0B4B0037F8922121CD9B6
:10502000121E4F3508FC903E70121D55121E0420B2
:105030006009903E70121CDC121D2C12C006AB07DA
:10504000EB30E7137889120E0600000000EB30E029
:10505000037F01227F0322121CE7E50D450C70043B
:10506000788476017F89227899A607EF1460461428
:10507000601524FE601E24FC604424F860402490E7
:105080007053903E688031306205903E6C80039092
:105090003E748024903E6CE0F8A3E0F9A3E0FAA30C
:1050A000E0FB903E74123FDAC39BFFEE9AFEED994F
:1050B000FDEC98801A903E70123FDAFF8012903E0D
:1050C00070123FDAFF2FFFEE33FEED33FDEC33FCC1
:1050D000788D120DEE22307021903E18E0B4B01A97
:1050E0001219398003121A59D8FBFF7899E67C000F
:1050F000B50707ECB506037F85227899E6FF789B14
:10510000E6FE5F6005EFF45E8033799CE7789956A0
:1051100060037F8522205F29909000E030E31078C3
:105120009AE620E71C4480F6789BE644F6800E78E9
:105130009AE630E70C547FF6789BE644F6F67F86D5
:10514000227F0022900010E0F520A3E0FF1313540B
:105150003FF521E05403F508A3E0F509A3E0F50BC2
:10516000A3E0F50AE5206409702BE50B6407450A06
:105170006039121D85121E5C5014851321121DFD0D
:105180007B10AD0BAC0A12C00F852113801D7DFF73
:10519000121DE980168513208521137B10AD0BAC01
:1051A0000AAF09AE0812C00F852013125F3F7F03BC
:1051B00022900280E0B4FF08A3E0B4FF037FC02286
:1051C000900480E0F9A3E0FF900280E0FEA3E0FD00
:1051D000EF6D7040FDEDC39F503D74822DF582E46C
:1051E0003404F583E0FC74822DF582E43402F58307
:1051F000E0FB121EAA8002C333D8FC596204121EBF
:10520000AA8002C333D8FC5E6203EC6B60037FB0FC
:10521000220D80C17FB0227FA022AD07125E8BEFEE
:105220007006903E20048051904102E030E506E097
:1052300054FEF080E7904103E0540FFFBF08079051
:105240004102E020E711123FBA904101E04401F031
:10525000903E2074028022900E03E0B40316900E5C
:1052600002E0B5050F900E01E0B40608900E00E0D4
:1052700064806009903E207402F07F0022123FA7F4
:105280007F01221250D6EF70607899E66401705663
:10529000903E1CE0FE54036401704BEE30E223901C
:1052A0003E1DE0FEB401067402F07F8522EE64022A
:1052B0007034903E1D7403F0903E1CE04402F07F79
:1052C000862230600A903E1CE04402F07F03229068
:1052D0003E1DE004F0E0D39406400BE4F0789BE63A
:1052E0004401F67F85227F0322228F1AEF75F00496
:1052F000A42436F9743F35F0FA7B01C002C001786E
:10530000E27C3E7D01D001D0027E007F04120F5E60
:10531000851A1BE51B602B75F004A4FFAEF0243248
:10532000F9743F3EFA7B01C00174362FF9743F3E99
:10533000A801FC7D01D0017E007F04120F5E151BC9
:1053400080D178367C3F7A3E79E27F04122B0922A5
:105350009090017401F090801CE0540FFFBF0FF695
:10536000306D0312C01EE4908007F0904107E044C6
:1053700020F000000000000000306D0312C01E90FD
:105380004107E054DFF0904200E0540360F890429F
:1053900000E030E0117898E6B48005E4904100F038
:1053A00078987640800478987680E4909001F09028
:1053B00080077440F0228D20E4FEF521908014E0F7
:1053C000F522E4F523EF30E003432310EF5401FD11
:1053D000C3EF9DFF908005E030E7F9AA07EAC39587
:1053E00020502CEA122BA9E523F0908005E030E054
:1053F000F990800BE05403600FE4FF1242E6AE0721
:10540000EED3952140028E21E4F5230A0A80CE9046
:105410008014E522F0AF2122126194121D40FBC3DB
:10542000120D9E50037F8A22903E7C121CDC121EBD
:1054300030400A903E1AE0B4B0037F8922121CD992
:10544000121E4F903E70121D52121E0420600990D1
:105450003E70121CDC121D2C12C003AB07EB30E7B0
:10546000137889120E0600000000EB30E0037F0184
:10547000227F0322121CE77F8922908007E0F5211A
:1054800090800AE0F522125EBA122CE590800A7430
:1054900001F0E4F523E523122CF47895E6FD7F2E48
:1054A000124A3BE52375F010A42400F9740035F08E
:1054B000A801FC7A2E79007F10122C480523E523E1
:1054C000C3940840D0908007E521F090800AE5223F
:1054D000F0125F3F7F03227895E6F51312C015782E
:1054E000107C5D7A3E79E67F70122C4878807C5D76
:1054F0007A3F798C7F38122D50E47895F67895E6CE
:10550000FFC39407502BEF7F0025E0FEEF2400F946
:1055100074503EFA7B01C002C00178007C007D011E
:10552000D001D0027E02122C27125F3F78950680B0
:10553000CC7F03227895E6FEC378AC9640037F03C8
:1055400022903E02E0FF6024904107E030E6249084
:105550003E03E0FDC3EF9D903E02F0541F700D909E
:105560003E01E06401F0909001F08000904107E07E
:1055700054BFF0903E02E04440F08513218E131298
:10558000C00C852113BF81047F0180027F03228C20
:10559000288D2974002FF58274503EF583E529F09B
:1055A000EF30E010E528540FC454F0122ADA540FFB
:1055B0004DF0800BE528540F122ADA54F04DF0E537
:1055C00029AE287803CEC313CE13D8F9122B5D3E33
:1055D000F583C083C082E0FFE529122B64FEEF4E05
:1055E000D082D083F022E490800AF07C021260B571
:1055F000908005E030E7F990800074FFF09080051E
:10560000E030E7F99080007490F0E4A3F0FE908021
:10561000047401F0908002E0900000F0E0B4FF1A02
:105620000EBE06EAEC5407FEC454F04E90900EF005
:105630000CECC3940940B67411F0228F22E47F0170
:10564000FEFDFC788912184B70037F8422AF22E4A0
:10565000FCFDFE121A504025904106E5221219FB6E
:105660003056028021120DD5C007AF22AB07D007FC
:10567000C3EF9BFFEE94001219897F8122788CE69C
:105680009041061219FB120E06000000007F032253
:10569000E4F9905DFDE0FC905DFEE0FDAF04740078
:1056A0002CF582E4345CF583E0F528F46028EDC342
:1056B00094085022ED9057EA9355287016ED049007
:1056C0005DFEF0905DFDECF075F008A4FFAEF0EF2C
:1056D0004DFF220D80D8E4FD0CEC70C009B902BC6E
:1056E000122BC122E4903E00F0903E04F07895F633
:1056F00008F608F6D26EC26FC254C253C252903E30
:1057000020F0A3F0A3F0C256C257903E10E0B4A51B
:105710000FA3E0B45A0A789AE64401F6D25B8002FD
:10572000C25BE4903E02F0903E1CF0A3F0788076DD
:1057300001903FF074FFF022E513C31354FEF524EB
:10574000851325903102E0F513903100E064A060EC
:105750001378A5E6FE08E6FFE5122524FDE433FCF8
:105760007B04801E75F002E524A42410F582E5F088
:105770003431F583E0FCA3E0FD78A5E6FE08E6FF02
:105780007B0412C00F85251322EF0475F004A414C6
:105790002436F582F58475833F75853FE0F5F01575
:1057A00082E0FC1582E0FD1582E0FF1582E00586AF
:1057B000F0158615821584E582B436F1E00586F091
:1057C0001584E5F0F01584ECF01584EDF01584EF08
:1057D000F0158622E4FF22000204061012141618A7
:1057E0001A1C1E305052543436380102040810205E
:1057F00040804080102004080102003FC0FF007F6D
:10580000BFC000403F2F0000FFFFC00080807F7FAF
:105810007FFF0001020406081000800600FFAABBFB
:10582000CCEE7E0C7DFF7A507900122B747F327A99
:105830003F7956122B007F187A3E7947122BD612E9
:105840005738E5135403F509AF09EF7F00FEEF2445
:1058500000F974103EFA7B01C002C00178007C5C44
:105860007D01D001D0027E01120F5E228F21E52141
:1058700030E0037F89228513227895E6F513789826
:10588000E630E6047F0080027F80904104EFF07BE9
:10589000A0122CA112C00FE4908014F0E521122D6B
:1058A00046F0908016E020E0F99080007410F085BA
:1058B00022137F0322EF75F00C84FEEF75F00C8449
:1058C000AFF0EE90581293F509EEC39407500FEF26
:1058D0009057FA93F50BEF90580693F50A22EF5480
:1058E00001FEF404F50BEFC313FD7404A805088052
:1058F00002C333D8FCC39EF50A22126194900015AE
:10590000E0FF125067121D9C121E3D50037F8A2239
:10591000125E2612C006AB07EB30E7137889120E31
:105920000600000000EB30E0037F01227F0322121B
:105930001CE7E50D450C7004788476017F892212FE
:1059400061D3EF6032900300E0602CA3E09003008D
:105950001219971218D2701F900301E090030012E1
:105960001963C002C0011219D2D001D002120F5E19
:10597000900301E0FF80097E007F2212182C7F2215
:1059800012563B221261D3EF6032900302E0602C8A
:10599000A3E09003021219971218D2701F9003030C
:1059A000E0900302121963C002C0011219D2D001A3
:1059B000D002120F5E900303E0FF80097E007F2477
:1059C00012182C7F2412563B22EB700CE7FF09E7DC
:1059D000FE09E7FD09E7FC2214701089828A83E042
:1059E000FFA3E0FEA3E0FDA3E0FC22BBFE0CE3FF6F
:1059F00009E3FE09E3FD09E3FC2289828A83E4933B
:105A0000FF740193FE740293FD740393FC227F20C4
:105A10007A3F7936122AB37F507A3E79E6122AB35A
:105A20007F387A3F798C122B00E4F514E514122BA1
:105A300086E514F0122A87122B2DE514122A8712FC
:105A40002B55122B340514E514B408E022EF122B69
:105A50001274FFF0A3F0EF122ACC74FFF0122A8622
:105A6000122B55F583E4122A8324E8F582E4343EB0
:105A7000122A7F24EAF582E4343E122A7F24ECF5D0
:105A800082E4343E122A7F122B2D22900075E060B2
:105A900003D38001C3926C900076E0903E08F0E062
:105AA000B420037402F0903E08E0B440037404F0A4
:105AB000205313A26CE433900000F0903E08E09075
:105AC0000001F0125F3F7F03228F21E521B4020520
:105AD000121EA3600CE521B4030A903E1AE0B4B094
