:020000020000FC
:1000000002390D0205300205490205760205880213
:1000100005DD0206680206FA02070B02071E020748
:100020003102073D02074A02075602076202077BB8
:100030000207AC0207D20208BA0200000200000266
:1000400049710208E00238740245F202304B023F67
:100050006F7F03220239990245690227AD02479753
:10006000023FDA904102E030E505E054FEF02290D4
:100070004103E0540FFFBF0807904102E020E70A68
:10008000904102E054FEF002051D78407C0E7D0197
:100090007B017A0E79007E007F081208BA90410237
:1000A000E054FEF0900E41E02402605514603114DB
:1000B000B40B00400302051D9000BFF8282873020E
:1000C000012B0201AE02051D02023302051D0203CF
:1000D0001202033202051D0204C40204CE02050806
:1000E000900E40E064217016900E44E07010123DB6
:1000F0007D123D42904400123D3A123D9522020588
:100100001D900E40E064A1701F305F1C205A062035
:100110006103305B13A261E433FFA25AE4332FFF83
:10012000A25BE4332F0204C802051D900E40E024B8
:100130007F601014601E2402706A903000E0900E00
:10014000408058900E44E07008900E40F0A3F0807C
:100150005602051D900E44E014601E2481600824A0
:10016000FE60282482703A7882E630E0047F0180C5
:10017000027F00900E40EF80227882E630E2047F1A
:100180000180027F00900E40EF80107882E630E41C
:10019000047F0180027F00900E40EFF0E4A3F08026
:1001A0000602051D02051D9041037402F022900E07
:1001B00040E07019900E42E0B4010F903000E0541E
:1001C000FDF0904107E054FBF02202051D900E4027
:1001D000E06402705B900E42E07052900E44E014B6
:1001E00060202481600824FE602C2482703C788288
:1001F000E654FEF6904101E04402F0E054FEF002C5
:10020000030E7882E654FBF6904101E04408F0E0EA
:1002100054FBF002030E7882E654EFF6904101E0C1
:100220004420F0E054EFF002030E02051D02051D0C
:1002300002051D900E40E060030202BE900E42E0F7
:1002400064027077900E44E07071A3E0606DE0C3CB
:1002500094055064123D43904102E0544170F8907F
:100260000E45E024FE601214601714601C24037015
:10027000459042017483F0803D9042017485F08086
:10028000359042017407F0802D78007C007D017B61
:10029000FF7A3079167E007F351208BA904104E06B
:1002A00020E1F9904400123D3A7435123D9F90428E
:1002B000017409F080E680FE02051D02051D900E06
:1002C00040E064027045900E42E0703C900E44E0C5
:1002D0001460142481600824FE601B248270267838
:1002E00082E64401F680277882E64404F6904101D4
:1002F000E04404F080187882E64410F6904101E072
:100300004410F0800902051D02051D02051D123D65
:100310004322123D43904102E0544170F8900E4256
:10032000E0904100F0904107E054FDF0E49030048B
:10033000F022900E43E024FE605A14607324FD60A6
:100340000A14605024066003020490305E13123DCC
:100350005A50091205257006C25E8002C25E851ED3
:1003600011305E0A123D2F9030097404800B123D4B
:100370004B902F88E493903009F090300A7412F07B
:10038000900E43E06406600302049390300A740AFE
:10039000F002049390300B74FFF0A3742FF0A37459
:1003A00068F0E4903009F090300A7420F002049371
:1003B000305E13123D5A50091205257006C25E8048
:1003C00002C25E851E11305E05123D2F8003123D74
:1003D0004B900E42E0146021146037146051147089
:1003E000030204642404600302048D123D4B902F29
:1003F0008A123D8E902F8B8063305E0B9030097493
:1004000016F09000028045902F8C123D8E902F8D1B
:10041000804A305E0F900002E02416903009F09080
:1004200000038028902F8E123D8E902F8F802D30CC
:100430005D217A00798090300B7401F0A37400F094
:10044000A37480F0E4903009F0900080E090300ACE
:10045000F08040902F90123D8E902F91E493903039
:100460000AF0802F9000007404F0A314F090314340
:10047000E0900002F0903142E0900003F0123D2F36
:10048000E4903009F090300A7404F0800602051DF3
:1004900002051D900E47E07015900E46E0FF90306B
:1004A0000AE0D39F4008900E46E090300AF090306A
:1004B0000AE07008904102E04451F022900E43E0BF
:1004C000FF0228DD903004E0900E40F08048123D9D
:1004D0007DF0900E42E0B401159030047401F0906C
:1004E0004107E04402123D42E4909001F022900E58
:1004F00042E07012903004F0904107E054FD123D4C
:100500004290900180138015900E44E07006900E8A
:1005100040F0800280079041037401F02290410175
:10052000E04401F022E4FB7D01FC12C00FEF4E22FB
:10053000BB010689828A83E0225002E722BBFE02C9
:10054000E32289828A83E49322BB010CE58229F5A8
:1005500082E5833AF583E0225006E92582F8E62217
:10056000BBFE06E92582F8E222E58229F582E583D1
:100570003AF583E49322EF8DF0A4A8F0CF8CF0A499
:1005800028CE8DF0A42EFE22BC000BBE0029EF8DDC
:10059000F084FFADF022E4CCF875F008EF2FFFEE09
:1005A00033FEEC33FCEE9DEC984005FCEE9DFE0F17
:1005B000D5F0E9E4CEFD22EDF8F5F0EE8420D21C72
:1005C000FEADF075F008EF2FFFED33FD40079850BA
:1005D00006D5F0F222C398FD0FD5F0EA22E88FF09D
:1005E000A4CC8BF0A42CFCE98EF0A42CFC8AF0EDBA
:1005F000A42CFCEA8EF0A4CDA8F08BF0A42DCC386E
:1006000025F0FDE98FF0A42CCD35F0FCEB8EF0A4A5
:10061000FEA9F0EB8FF0A4CFC5F02ECD39FEE43C5F
:10062000FCEAA42DCE35F0FDE43CFC2275F0087503
:100630008200EF2FFFEE33FECD33CDCC33CCC5821D
:1006400033C5829BED9AEC99E58298400CF582EED9
:100650009BFEED9AFDEC99FC0FD5F0D6E4CEFBE4C1
:10066000CDFAE4CCF9A88222B800C1B90059BA0089
:100670002DEC8BF084CFCECDFCE5F0CBF97818EFE4
:100680002FFFEE33FEED33FDEC33FCEB33FB10D7E5
:1006900003994004EB99FB0FD8E5E4F9FA227818A6
:1006A000EF2FFFEE33FEED33FDEC33FCC933C91001
:1006B000D7059BE99A4007EC9BFCE99AF90FD8E033
:1006C000E4C9FAE4CCFB2275F010EF2FFFEE33FE05
:1006D000ED33FDCC33CCC833C810D7079BEC9AE878
:1006E00099400AED9BFDEC9AFCE899F80FD5F0DAF9
:1006F000E4CDFBE4CCFAE4C8F922EB9FF5F0EA9EE6
:1007000042F0E99D42F0E89C45F022E8600FECC31E
:1007100013FCED13FDEE13FEEF13FFD8F122E8609A
:100720000FEFC333FFEE33FEED33FDEC33FCD8F1B6
:1007300022E6FC08E6FD08E6FE08E6FF22E6FB08E6
:10074000E6F908E6FA08E6CBF822ECF608EDF6083A
:10075000EEF608EFF622ECF0A3EDF0A3EEF0A3EF37
:10076000F022D083D082E493F608740193F60874E3
:100770000293F608740393F6740473A8828583F0D9
:10078000D083D08212079212079212079212079218
:10079000E473E493A3C583C5F0C583C8C582C8F0DC
:1007A000A3C583C5F0C583C8C582C822D083D082C3
:1007B000F8E4937012740193700DA3A393F874017D
:1007C00093F5828883E4737402936860EFA3A3A314
:1007D00080DFEF4E6012EF60010EEDBB010B8982EE
:1007E0008A83F0A3DFFCDEFA2289F05007F709DFE5
:1007F000FCA9F022BBFEFCF309DFFCA9F022E7090B
:10080000F608DFFA8046E709F208DFFA803E8882C0
:100810008C83E709F0A3DFFA8032E309F608DFFAF8
:10082000806EE309F208DFFA806688828C83E30930
:10083000F0A3DFFA805A89828A83E0A3F608DFFA00
:10084000804E89828A83E0A3F208DFFA804280D258
:1008500080FA80C680D4805580F28029801080A6DE
:1008600080EA809A80A880DA80E280CA8029888421
:100870008C8589828A83E493A30586F0A30586DFAD
:10088000F5DEF3800B89828A83E493A3F608DFF90F
:10089000ECFAA9F0EDFB2288848C8589828A83E0BA
:1008A000A30586F0A30586DFF6DEF480E389828A5D
:1008B00083E493A3F208DFF980D688F0EF60010E9D
:1008C0004E60CD88F0ED2402B4040050C3F582EBF5
:1008D0002402B4040050B9232345822390084E73A8
:1008E0007E057F007A3479001233BA7E007F807DE6
:1008F000007B017A3979801207D2E5115403F5158E
:10090000E5111313543FF514788DA611903302E0CE
:10091000F511903300E064A06023E51078A4B401E1
:100920000CE6FE08E6FFAD14ED2404800AE6FE089E
:10093000E6FFAD14E5102DFDE433FC801DAF14750A
:10094000F002EFA42410F582E5F03433F583E0FCE7
:10095000A3E0FD78A4E6FE08E6FF7B0412C00F7852
:100960008DE6F511AF15EF75F080A42400F9741031
:1009700035F0FA7B01C002C00178007C397D01D0DE
:1009800001D0027E007F801208BAE4F512123356BD
:1009900012338A74FFF0A3F012335612339474FFAB
:1009A000F0A3F01233561233D674FFF0A3F0051201
:1009B000E512B404D8E4F512F516F517C3E5177877
:1009C0009F96E51618964003020B0E1233A7CEC36E
:1009D00013CE13D8F91233691233385E6003020B59
:1009E000037B40E4FDFCAF17AE1612C00F9039A890
:1009F00012339EE0A330E71D1233A7CEC313CE13EC
:100A0000D8F9123369C083C0821233384ED082D0F5
:100A100083F0020B03C39039A9E094FF9039A8E05A
:100A200094034003020B03E0FEA3E0FF1245F290A3
:100A300039AAEEF0A3EFF09039AAE0B40311A3E0D5
:100A4000B4FF0C9039A81233E0123874020B03E59E
:100A500012C394044003020AFA9039AAE0FEA3E00C
:100A6000FF12C0189039ACEEF0A3EFF09039ACE073
:100A7000650C7004A3E0650D702D1233561233948B
:100A8000E516F0A3E517F012334E12338AEEF0A309
:100A9000EFF0AF17AE1612C0189039AC12339E1299
:100AA00033E0123874803212334E123394EEF0A3D6
:100AB000EFF012335612338AE516F0A3E517F01261
:100AC00033A7CEC313CE13D8F9123369C083C082C3
:100AD0001233384ED082D083F09039AC1233512487
:100AE00080F582E43439F58312339E123351123388
:100AF000D6EEF0A3EFF0051280097D01AF17AE1618
:100B000012C0120517E517700205160209BC789E7F
:100B10007FFE120B6FC3E5179509E5169508502463
:100B20001233A7CEC313CE13D8F9123369C083C0D2
:100B3000821233384ED082D083F00517E51770D576
:100B4000051680D1903302E0B5110778A47FFD121D
:100B50000B6F7E007F087A3979B81233BA7E027F34
:100B6000007D007B017A3A79001207D27F0122E6EC
:100B7000FC08E6FD7E0312387422E4F51EF51E1211
:100B800019C9E4F51FF520C3E5209509E51F95086F
:100B90004003020D707B40120DC764FC7003EE64CD
:100BA000036003020D65903006E51FF0A3E520F019
:100BB0007B04120DC74E7003020D7090100EE0649E
:100BC000886003020D70A3E064BD6003020D7090A5
:100BD000100A121964121A4B9010111219649030F5
:100BE0001812075690101612196490301C120756EE
:100BF00090101B1219649030301207569010211279
:100C00001964903034120756901026121964121A83
:100C100051901030E024FF9256901034E024FF925F
:100C20005C901036E024FF9259901038E024FF9237
:100C30006AA3E024FF9261A3E024FF9260A3E02472
:100C4000FF925B90103FE024FF9257A3E024FF92B5
:100C500055A3E024FF9253A3E0903003F09010439B
:100C6000E024FF92503057047F0180027F00909073
:100C700001EFF090302A7404F090102EE078914645
:100C8000F61218F6FF903018121959FBD31206FA13
:100C9000400A90301812077B0000000090301812B4
:100CA00018F9FFEC4D4E4F6002D25A305609909021
:100CB00000E030E302C25BE4F51EE51EC378A196B6
:100CC000502175F002E51EA42400F582E5F03411F0
:100CD000F583E0FEA3E0FF1219A1EEF0A3EFF0050B
:100CE0001E80D71219727D01120DBD7003020DB85E
:100CF0001231D01219727D02120DBD7003020DB8AF
:100D0000901080E0B4FF09A3E0B4FF047FC080022C
:100D10007FB09030241219707D03120DD37003023E
:100D20000DB8901080E0B4FF09A3E0B4FF047FC0C9
:100D300080027FB090302E1219707D07120DD360A3
:100D400077901080E064AA7017A3E0B45512121ACD
:100D500072E0B4A50D9031C5E0B45A06D2698002A4
:100D6000D2697F01220520E5207002051F020B8752
:100D70009030067403F0A374FFF0E4F51E78A1E64A
:100D8000FFE51EC39F500E1219A1E50AF0A3E50B63
:100D9000F0051E80E87E00AC0AAD0B1205768E1FB2
:100DA0008F20AB07AA06E4F9F8AE0CAF0DFCFD12DC
:100DB00005DD121A4B121A51D2697F00227B047C86
:100DC0000012C00FEF4E22E4FDFCAF20AE1F12C098
:100DD0000FEF227B047C0012C00FEF4E2290900197
:100DE000E07003020FE29090077401F0909001E030
:100DF00024FE7003020EC524F97003020EE814707D
:100E000003020EE8147003020F2B147003020EE8A5
:100E1000147003020F2524FE7003020FAE240E602F
:100E200003020FD9124B48904102E030E7F990419C
:100E300002E030E0F9900E00E064806003020FDB16
:100E4000900E01E064066003020FDB900E02E0608A
:100E500003020FDB900E03E0F46003020FDB900E41
:100E600004E064AA6003020FDB900E05E064BB603F
:100E700003020FDB900E06E064CC6003020FDB90F0
:100E80000E07E064EE6003020FDB900E407411F079
:100E9000A37422F0A37433F0A37444F0A37455F048
:100EA000A37466F0A37477F0A37488F0E490410211
:100EB000F0A37408F0904102E020E1F990900174F1
:100EC00001F0020FD9124B48904107E030E4F9904D
:100ED000801CE0540FFFBF0FF6E4908007F09041B4
:100EE00007E04420F0020FD9AF17AE16AD15AC14D1
:100EF000C006C007AE18AF19AB07AA06E4F9F8D0D0
:100F000007D0061206688F178E168D158C14AF1732
:100F1000AE16AD15AC14780A12070B8F178E168D0E
:100F2000158C1480FE90800B7408F0124912E4F5C1
:100F300011E4908006F0908005E030E0F990800B9D
:100F4000E054036009E020E10EAF1112304B0511AF
:100F5000E511C3940240DA124AECE4908014F09058
:100F6000800674E0F0908005E030E0F9908006742F
:100F7000E0F0908005E030E0F99080007410F0908F
:100F80008005E030E7F9124A57E4908014F0908031
:100F900006F0908005E030E0F990800BE0540360AB
:100FA000047F0080027F01909001EFF0802BE4909D
:100FB0009002F0909005F07FCC7E04123734000050
:100FC000000000000000000000007F007E061237D5
:100FD000349090017401F080FE80FEE4909001F066
:100FE00080FE759852758921758DFFD28EE4F58C3F
:100FF000F58AD28C4387807890F6759955122D87A3
:101000001241C6EF701DC25F7893F69030067403EC
:10101000F0A374FFF008F6909001F07D40FF1239C4
:1010200099800FD25F789376FFE408F69090017470
:10103000AAF09090077401F002267A2058432068A5
:10104000407888E6600A7987E77886461846601E09
:101050007F457E407D357C747885121250600F7F0D
:10106000427E497D4F7C5378851212507002D258CF
:101070007885E6600C7988E778874618467002D252
:1010800068305B39206803305833A25AE4332401B6
:10109000FFE433FE7880E6FDB5070AE4B50606787E
:1010A0009276018011ED14FF7402A807088002C334
:1010B00033D8FC7892F67892E6FF123F007892E6F9
:1010C000B4011090300B74FFF0A37449F0A374F8CE
:1010D000F0805A305E39851120121342E4FB7D0105
:1010E000FC12C00FEF4E7002C25E8520119000020C
:1010F000E07E002416F9EE3400FAA3E029F9EE3A76
:10110000FA90300B7401F0A3EAF0A3E9F0801E908E
:101110002F92E493903009F07E002488F9EE342F6A
:10112000FA90300B74FFF0A3EAF0A3E9F01213FB7E
:101130007480F0A37402F0A3F0A3741FF0E4A3F092
:10114000A3F0A3F0F52090300BE0FBA3E0FAA3E0BE
:10115000F9852082758300120549FF74082520F562
:1011600082E43400F583EFF00520E520B420D72099
:101170005E03021236305903205803306A05E490AA
:101180000001F07520017892E6FD6401703F900047
:10119000237430F02055237888E66405701C18E627
:1011A000B48F1718E6B4931218E6B4840D1213FB2B
:1011B000F0903028E054FEF0806A9000007405F052
:1011C000A37480F0903028E04401F08057306A0822
:1011D0009000237435F0804C306008900023743602
:1011E000F08041305C089000237437F08036306125
:1011F00011ED900023B408057439F080277438F09D
:10120000802290302DE0600B9000227431F0A31406
:10121000F08011205B033056089000237431F08079
:1012200003E4F520E520600E9000207438F0A374EC
:101230002EF0A37430F07F241242CC22E51925173A
:10124000FFE5183516FEE43515FDE43514FC7899F4
:1012500012073DC30206FA7E007D007B017A007909
:10126000000207D2903018E0F8A3E0F9A3E0FAA357
:10127000E0FB903020E0FCA3E0FDA3E0FEA3E02231
:10128000908017E02519F519E43518F518FE78094E
:10129000AF19E4FCFD12071E788922AF17AE16AD18
:1012A00015AC14780212071E8F178E168D158C142C
:1012B00022FFE02FFFE433FE74002FF58274023E1C
:1012C000F583E064AA227899120731D3AB17AA16E6
:1012D000A915A8140206FAEF24FFFFEE34FFFEED75
:1012E00034FFFDEC34FFFC90000012075690000420
:1012F00022904101E04410F07882E64410F6227416
:10130000002521F582E43402F583E0222517F51744
:10131000EE3516F516ED3515F515EC3514F51422E8
:10132000AE18AF19E4FCFDFB7A02F9F81205DD787E
:101330008922FF7E00E07C002400F9EC3403FA7B74
:101340000122903305E0F511903006E0FEA3E0FFA6
:1013500022FEED9400FDEC9400FC788902074AFF20
:10136000E02FFFE433FE74002FF5827403229030E7
:1013700003E0FEC3EF9E903002F0541F227401255B
:1013800021F582E43402F583E024022278007C0017
:101390007D0122C39BFFEE9AFEED99FDEC98FC22A5
:1013A0009000027480F022788D7605788E22788DF8
:1013B0007602788E22F0E4904105F0788922903010
:1013C00001E06401F0909001F022789912073178E1
:1013D0000202070B788912073DD30206FA904104F6
:1013E000EFF0E51915192233FF74047E00A80708F1
:1013F0002290000412075690000822E4900000F0AA
:10140000A322788D7606788E22124AB37892E6640B
:1014100001702E903028E030E027AE18AF19E4FCC0
:10142000FD780B12071E7889121250701412129B4D
:10143000E519AE187802C333CE33CED8F9F5198E3C
:101440001812132012125060037F84221243C38F9C
:1014500020EF30E701221212C6400930580302156E
:10146000707F8A2212123C50037F8A22903002E061
:10147000FF6011904107E030E61112136E70051203
:1014800013BE8000904107E054BFF0903002E0446A
:1014900040F0305230C252D251903015E0FEB401CB
:1014A00015903016E0B4010E903017E0B4010778C3
:1014B0009476FF7F8622903017EEF09030157401FD
:1014C000F0903016F0205C047F0180027F009030A5
:1014D00024E0B4B0047E0180027E00EE5F7003025F
:1014E000158FA253E41213E78006CEA2E713CE13A2
:1014F000D8F8FF7892E66F7001EE600302158F78DE
:101500008912076200000000E4FFFEFDFCC3121216
:10151000CC705D7892E6B4040B903018121275F519
:10152000171212AA903040E518F0A3E519F07518CB
:101530000075190112C0038F20E52030E7189030A4
:1015400040E07004A3E06401700FE52030E0047F08
:101550000180027F03227F8922908016E020E0F93B
:10156000903041E024FFF519903040E034FFF51849
:101570007E087F007DFF12125BE5194518600D1291
:1015800049C9E519151970F1151880ED7F0322126C
:1015900048DF12C0038F20E52030E71630E0047FDB
:1015A0000180027F038F207889120762000000000B
:1015B000800912128012074A752089AF20229032CA
:1015C0000CE0440190900512331E903212E0F513A6
:1015D000A3E090800AF09033F0E0F50CA3E0F50D65
:1015E0009033F2E078A1F69033F4E0F50EA3E0F545
:1015F0000F9033F6E078A2F69033F8E0F5109033D0
:10160000FAE0F508A3E0F5099033FCE0F50AA3E061
:10161000F50B9033FE123326903391E0909009F051
:10162000903394E060031233081232E67883761424
:10163000E4F5237883E6FF2400F582E43432F58371
:10164000E0640C600302175674012FF582E4343213
:10165000F583E0FEC4540F1232FF74022FF582E4CA
:101660003432F583E07881F67883E62403F582E46A
:101670003432F583E07882F6E4F521E521C3788100
:1016800096502AAF217401A807088002C333D8FC02
:10169000F522788256788360091232A4908000F097
:1016A00080071232A4908001F0052180CE7883E675
:1016B0002401F582E43432F583E0540F7881F6E4B6
:1016C000F521E521C3788196400302174DE52154A9
:1016D0000325E02410908014F0908005E030E7F9B5
:1016E000E4908006F0908005E030E0F990800BE017
:1016F00054036011E030E1037F0022E5215403240C
:1017000004FF12304B908005E030E1037F0022059A
:1017100021E5215403F5226007E52178816670A256
:10172000E5227003752204E5227F0025E0FEC00655
:10173000C007E5231232B7A807FC123315D007D033
:10174000061208BAE5222523F5230216C27883740F
:101750000C26F602163390C7FEE0B45506A3E064EB
:10176000AA60037F00221233317F01223060377874
:1017700091E630E03190000FE0248F24FC502424C7
:10178000F2602024EE601C14601924FC601824020E
:1017900024FB500F24A9600B14600824FB60042470
:1017A0007970037F822290000FE01207AC18CA10F4
:1017B00018D11118D812188271188672188A7318E5
:1017C0008E74189275189D7618A67718AF7818B889
:1017D0007B18C17C186D81187482187B83186396FE
:1017E000180B97184B9918539A185B9B183B9C1829
:1017F00043F5181BF61823F71813F8182BF918DD02
:10180000FA1833FB18E4FF000018EC124B6F8F201E
:101810000218EF124AD08F200218EF1240AE8F202C
:101820000218EF123E918F200218EF1248758F2098
:101830000218EF12499E8F200218EF123DA98F2047
:101840000218EF1233EA8F200218EF1225428F2080
:101850000218EF121BF28F200218EF1244548F204F
:101860000218EF7F011224078F200218EF12483F61
:101870008F20807B1248AA8F2080741249428F20CB
:10188000806D7F0280197F02801E7F0280237F028D
:101890008028903028E04402F07F0280267F0312E7
:1018A000462F8F2080497F03124A958F2080407FEA
:1018B0000312466C8F2080377F031237D58F20802C
:1018C0002E7F031234978F2080251235E78F2080DA
:1018D0001E12368E8F208017124A36800A121A7C0A
:1018E0008F20800B124B2C7520038003752082C241
:1018F00067C266AF2022903020E0FCA3E0FDA3E0A9
:10190000FEA3E022908017E02519F519E43518F5BB
:1019100018FEAF19E4FCFD780912071E788902074A
:101920004A7DFF7E027F007B017A0079000207D2A8
:101930002517F517EE3516F516ED3515F515EC35B9
:1019400014F51422E5192517FFE5183516FEE435C0
:1019500015FDE49030303514FCE0F8A3E0F9A3E085
:10196000FAA3E022E0FCA3E0FDA3E0FEA3E0FF2257
:10197000EFF0903006E0FEA3E0FF227A0079007ECF
:10198000007F009044007400F0A37400F022E51979
:101990002517FFE5183516FEE43515FDE43514FC72
:1019A00022E51E25E024C2F582E43430F58322F0DE
:1019B000A26AE433A3F0A261E433A3F0A260E433AB
:1019C000A3F0A25BE433A3F022903305E0F51122EB
:1019D0002FF517EA3EF516E93DF515E83CF514221A
:1019E00075F002EFA42400F582E5F03401F58322BE
:1019F00074002521F582E43400F58322FFAB17AA99
:101A000016A915A814C30206FA789912073DC30255
:101A100006FA2517FFEE3516FEED3515FDEC22C34F
:101A200094FFEE940322FC7D017B017A0079002271
:101A30009000107451F0A3222DFDE4338D82F583C4
:101A4000E493FE227893E644F6F62290300E0207E5
:101A50005690302002075604F0A25CE433A3F0A3B2
:101A600022903024E064B022ED5407FA7401A802F9
:101A700008227891E64401F69031C422900012E0E9
:101A8000788DF6A3E0F514A3E0F515900015E0F5C8
:101A900016A3E0F517788912076200000000900095
:101AA00010E01207AC1AE2001AE5011AED021B0061
:101AB000031B03041B7F051B06061B09071B0C0ADF
:101AC0001B0F0B1B120C1B240E1B27111B2A121B96
:101AD00054131B79281B7C2A1B73801B7681000002
:101AE0001BEF023C33900011E0FF022C61900017C5
:101AF000E0FEA3E0FF12C021900011E0FF02440DC0
:101B0000024A77024374023A2402311B02201D026A
:101B10004110788DE6FF5470FEEF54074E90900E02
:101B2000F07F0322023CB20247CF7890E630E60411
:101B30007F0080027F80904104EFF0904104E0300C
:101B4000E0F9788DE67800121A267E027F001208EE
:101B5000BA7F0322788DE6FA79007B01C002C001CA
:101B600078007C007D01D001D0027E027F00120847
:101B7000BA80760246E6024B1A02472102449A7E58
:101B8000027F007D001219279000007440F0A374BA
:101B900004F090000304F0E4FCAF041245AEEC75D1
:101BA000F004A4AEF02410F519E43EF518FE74001C
:101BB0002519F58274003EF583ECF074012519F5C2
:101BC0008274003EF583E515F074022519F58274E0
:101BD000003EF583E516F074032519F58274003E86
:101BE000F583E517F00CBC40B01249C97F03227F92
:101BF00083227D0012192390300E1218F9FF9000F5
:101C00000012075690000474BDF0A37403F0A3748F
:101C1000A1F07B017A30791812456990000712070C
:101C20005690000B74A2F07B017A3079301245692E
:101C300090000C12075690001074A3F0E4A3F0A2D9
:101C40005F33A3F0A374A4F07B017A30793412459A
:101C50006990001412075690001974A5F07B017A60
:101C600030791C12456990001A12075690001F74B3
:101C700001F0A374A6F0A256E433A3F090002374FD
:101C8000A7F0900026121A5774A9F0A26BE43390C3
:101C9000002AF0A374AAF0A26CE433A3F090900A97
:101CA000E090002DF090002F74AB1219AFA253E416
:101CB00033900036F0A257E433A3F0903003E09065
:101CC0000038F07B017A30792012456990010012CA
:101CD000075690010474B0F0903025E0900105F0B3
:101CE00090302FE0900106F0903024E0900107F052
:101CF00090302EE0900108F0A374C0F07891E6A334
:101D0000F0A374B1F090011004F0E50AA3F0A3E58C
:101D10000BF0A374B3F0A25FE433A3F0903027E09C
:101D2000900115F0A374B4F07893E6FFA3F07894D3
:101D3000E6FEA3F0A374B5F090012404F0A3EFF045
:101D4000A3EEF090013074B7F0909000E090013174
:101D5000F090013574B8F01249C97F032290000F4A
:101D6000E0FF788912073DE8494A4B601290000C69
:101D7000E0648060047E0380027E028E1F80037513
:101D80001F017884A61FEF1207AC1E64001E4A03D1
:101D90001DE9121E0B1A1E571B1E711E1E2D231E1F
:101DA0003D251DC7281DD82A1DFA2F1E7E431E8BD8
:101DB000451E92461E99511EA0521E1C5A1EA7BBBC
:101DC0001EACBD00001EB3E51F64026003021EBB13
:101DD0001214098F1E021EB8E51F64036003021E61
:101DE000BB1222C38F1E021EB8E51F6402600302ED
:101DF0001EBB12103B8F1E021EB8E51F640160035C
:101E0000021EBB124B3A8F1E021EB8E51F64026011
:101E100003021EBB12416B8F1E021EB8E51F640237
:101E20006003021EBB122A0B8F1E021EB8E51F6440
:101E3000026003021EBB123B2E8F1E807BE51F64D7
:101E4000027078123E208F1E806EE51F6402706B58
:101E50001248078F1E8061E51F6401705E124A14EC
:101E60008F1E8054E51F64017051123AA98F1E80A5
:101E700047E51F64017044124B628F1E803AE51FD4
:101E80006402703712353F8F1E802D1200518F1E55
:101E90008026124B558F1E801F1244DF8F1E801824
:101EA0001245248F1E8011751E03800C1246A98FC7
:101EB0001E800512176C8F1EAF1E227F82228F2379
:101EC000903305E06511600E30620312C0091219EB
:101ED000C97F0112C01520620E789EE6FE08E6FF5B
:101EE0007D0112C012D2627FFC7E031245F28E1673
:101EF0008F17E517B4FF16E516B403117E107F00A7
:101F00007DFF7B017A1079001207D2801BE4F52453
:101F1000E524FD7C002404FBAF17AE1612C00F05AC
:101F200024E524C3940840E8E523B4FF09751403AD
:101F30007515FF021FF11249718E148F15BEFF0631
:101F4000BFFF037F0022E5237F0025E0FEEF240092
:101F5000F974103EA801121A267E021208BAE4F59E
:101F600024E524C394084003021FF1E5248510F002
:101F700084E5F0700EE524FD7C007BA0AF15AE1467
:101F800012C00F7FFC7E0312C021E52425E024103F
:101F9000908014F090800674E0F0908005E030E0CE
:101FA000F9E52404FF8510F084E5F06005EF54079F
:101FB000703A9080007410F0908005E030E7F9E509
:101FC0001320E5289080007470F09080047401F074
:101FD000908003E0FF908002E04F30E00F7BC1E48F
:101FE000FDFCAF15AE1412C00F021F360524021FF0
:101FF00061C3E51794FFE516940350097D01AF17FF
:10200000AE1612C012AD15AC147FFC7E03123874EC
:10201000903006E514F0A3E515F07F01221232E6B8
:10202000E4F521E521C3788D9650357890E630E6C9
:10203000047F0080027F80904104EFF0904104E033
:1020400030E0F9E521123295FA7B01E5211232B731
:10205000A807FC7D017E027F001208BA052180C31B
:10206000123331E4904400F0A3F07890E630E604B7
:102070007F0080027F80904104EFF0904104E030C7
:10208000E0F99001FEE0B44A06A3E0644E60037FED
:102090008922900000E090800AF030E0057513403E
:1020A0008003E4F5137890E6B4800790800AE0445A
:1020B00080F0900002E078A1F6900004E0F50EA315
:1020C000E0F50F900006E078A2F6900008E0F51029
:1020D00090000AE0F508A3E0F50990000CE0F50A8D
:1020E000A3E0F50B90000EE0F50CA3E0F50D9001D8
:1020F00091E0909009F0E4909002F0900192E070ED
:1021000004A3E0601D900010E05470909005F090E2
:102110000192E0FEA3E0FF1237349090057460F066
:10212000800A900010E04401909005F012331F9057
:102130000194E06003123308900011E06008908081
:102140000B7408F08005E490800BF0D26C78007C72
:10215000337D017B017A0179007E007FF01208BA9D
:1021600090330312332690330FE0F51312C000C2F0
:102170006278A1E6F511C2547F0322904106E05433
:102180007FFFBF211C7F437E427D537C5590000022
:10219000E0F8A3E0F9A3E0FAA3E0FBC31206FA60BB
:1021A00007788476027F82227B017A0079041245C7
:1021B00069788512074A7B017A00790812456978A7
:1021C0008912074A7A0079007E00904400123D3A55
:1021D00090000DE07880F690000FE0306D396412C9
:1021E000602A7888E6B4051718E6B48F1218E6B4AA
:1021F000930D18E6B484089030287402F08006909D
:1022000030287407F0306004E47893F6C26DE47807
:1022100092F678A1E6F511205F0302229EA25CE40B
:1022200033FF903024E0B4B0047E0180027E00EEE3
:102230005F6020A253E433FF7880E6FEB5070F7499
:1022400002A806088002C333D8FCF51E8034751E30
:1022500010802FA25AE4332401FFE433FE7880E695
:10226000FDB50711E4B5060D306105751E08801235
:10227000751E01800D7402A805088002C333D8FCC6
:10228000F51E305B2F20682C2058297880E6FF74DB
:1022900001A807088002C333D8FCF51E8016788099
:1022A000E67008903027E0F51E8009751E047894CA
:1022B000E64404F6E51E7892666005AF1E123F0004
:1022C0007F0222124AB37892E66401702790302888
:1022D000E030E020AE18780B1212901212507014F9
:1022E00012129BE519AE187802C333CE33CED8F95B
:1022F000F5198E1812132012125060037F842212D7
:1023000043C38F20EF30E7012212123C4005121226
:10231000C640037F8A22305F357892E6FE64017002
:1023200025E5194518601C7890E630E6047F0080AA
:10233000027F801213DD70021518904104E020E046
:10234000E080F77F0322EE541860037F87227891A4
:10235000E6600F540660087991E778925660037F33
:102360008722903024E064B0703EA2531213E780BD
:1023700006CEA2E713CE13D8F8FF7892E66F70016D
:10238000EE7025E5194518601C7890E630E6047F6C
:102390000080027F801213DD70021518904104E066
:1023A00020E0E080F77F0322903002E0FF60119090
:1023B0004107E030E61112136E70051213BE800063
:1023C000904107E054BFF0903002E04440F01248E2
:1023D000DF12C0068F20E52030E71630E0047F01D1
:1023E00080027F038F20788912076200000000803E
:1023F0001312128012074A752089E51945187004D6
:1024000078847601AF20228F217E027F007D00122A
:102410001927E4900000F090000974F1F090300E5C
:102420001218F9FF90000A12075690000E7488F0F7
:10243000A374BDF0A374F2F09030181218F9FF9055
:10244000001112075690001574F3F090301C12180A
:10245000F9FF90001612075690001A74F4F09030AD
:10246000301218F9FF90001B12075690002074F5E7
:10247000F09030341218F9FF9000211207569000A6
:102480002574F6F01218F6FF9000261207569000F9
:102490002A74F7F0E4A3F0A304F07891E6540690D0
:1024A000002EF0A374F8F0A256E433A3F0A374F95D
:1024B000F0900033121A5774FBF0A259E433A3F0E2
:1024C000A374FC1219AFA257E43390003FF0A25559
:1024D000E433A3F0A253E433A3F0903003E0900080
:1024E00042F0A250E433A3F090008074E1F0900039
:1024F0008504F0E478A3F679A3E7C378A196501792
:1025000078A3E6FF1219A3E0FCA3E0FD1219E0ECAA
:10251000F0A3EDF00680E07891E69001FFF0E52170
:1025200060031249C9E4FF121EBEEF6012788912DF
:10253000076200000000305F03121A447F03227F0D
:102540008922903024E064C060037F89227890E67D
:1025500030E6047F0080027F80904104EFF09041DC
:1025600004E030E0F9121A29124569903018120778
:10257000567B017A00790612456990303012075671
:102580007B017A00790B1245699030341207567B33
:10259000017A00790F12456990301C1207567B01B1
:1025A0007A007940124569903038120756900045FC
:1025B000E0903142F0900046E0903143F0900044CA
:1025C000E0645170449000FEE0644A702CA3E06423
:1025D0004E7026FF78A1E6FEEFC39E50141219E05C
:1025E000E0FCA3E0FDEF1219A3ECF0A3EDF00F80E7
:1025F000E38E11C262E47894F69030381218F9FF35
:10260000EC4D4E4F6003121A4B9030181218F9FF20
:10261000EC4D4E4F6003D38001C3925A900004E00A
:10262000B45103D38001C39253A253A05A92539042
:1026300030301218F9FF90301C1219592FF517EA93
:102640003EF516E93DF515E83CF5142055099030A6
:102650001C1218F912193090300E1218F9C3951780
:10266000FFEE9516FEED9515FDEC9514FC121A5132
:102670007892E6FF123F007F0322124276903001EB
:102680007401F0904102E030E0031200637881E6CB
:10269000B40118904104E030E01112217B7881EF01
:1026A000F6BF0207121D5D7881A6077881E6FF64F8
:1026B000036004EFB40405123BB380C77881E6B42D
:1026C000050B904101E020E4047603801D7881E64B
:1026D000FFB40607904101E030E20BEFB4070B9026
:1026E0004101E020E404788176047881E6FF30E758
:1026F00007122E7B7881A607306E09C26E904107C3
:10270000E04401F07881E66401600302279D308D8A
:1027100045903028E05407FFBF053090302CE0048E
:10272000F0700690302BE004F0D390302CE09458F9
:1027300090302BE0940240139030297401F0E49023
:10274000302BF0A3F090302AE004F0C28CC28DE46C
:10275000F58CF58AD28C904107E030E6409030024B
:10276000E0FF6039903003E0FEC3EF9E903002F04E
:102770006015E0541F7007903001E06401F0904153
:1027800007E054BFF0800E3057047F0180027F00C5
:10279000903001EFF0903001E0909001F09041070F
:1027A000E020E4030226831243210226838F1E9039
:1027B0008016E020E0F9904104E020E1F912197B55
:1027C00090000012077B555342537B007A007985B5
:1027D000124569900004120756E490000CF0900036
:1027E0000BF090000AF0900009F0900008F0904182
:1027F00006740DF0E4904105F0305106C25190305E
:1028000015F0904104E030E10A904102E030E0F23E
:102810007F00227A007900121983E4904104F0E5E8
:102820001E7002FF22C28CC28DE4F58CF58AD28C18
:10283000903002E0FF6024904107E030E6249030C1
:1028400003E0FEC3EF9E903002F0541F700D9030F5
:1028500001E06401F0909001F08000904107E054A5
:10286000BFF0903002E04440F0904104E020E010DE
:10287000904102E030E0037F0022308DEC7F0022A7
:1028800090001112196478A6121A0B704D90000F67
:10289000E0651E704590000DE0788066703C908089
:1028A00016F07B017A007904124569788512074A8F
:1028B00012197BE4908014F0900016E0F518A3E064
:1028C000F51978A61207318F178E168D158C1412F4
:1028D000198E78A612074A7F01227F00228F1F904F
:1028E000300AE0FF7003022A03D3944040047E4084
:1028F0008002AE07E4FFEFC39E503190300BE0FB47
:10290000A3E0FAA3E0F9903009E0FD7C00E92DF99D
:10291000EC3AFAEF29F9EC3AFA120530FD74402F3F
:10292000F582E4340EF583EDF00F80CA7890E6FF6F
:1029300020E606E51F64026009EF30E615E51FB4E6
:102940000710900E567440F0E4A3F0900E5D7440B2
:102950008014E51FB40613900E40740AF0A37406A9
:10296000F0900E487401F0E4A3F0E51FB407069060
:102970000E417407F0E51F64016005E51FB4060F02
:10298000E4900E42F0A37402F0900E477440F0E51C
:102990001F6401702B900E4AE0B48006A3E064939C
:1029A000600AD25F900E507403F08007C25FE4901B
:1029B0000E50F0206C0A900E4A7434F0A37412F09A
:1029C000E51F64026005E51FB40708903005E0903C
:1029D0000E48F0904103EEF0904102E020E1F990C2
:1029E0004102E054216005E054FEF022904102E0F3
:1029F00020E01790300AE0C39EF0903009E02EF0FE
:102A00000228DF904102E04451F022900011E0548E
:102A10003FF5207521FF7522807892E664016003FE
:102A2000022AE1903028E020E003022AE1124B075D
:102A3000EF604D900202E06047A3E09002021212A4
:102A4000B1703D900202E02408F521E520B43F0872
:102A5000A3E024F8F52280281212FF64AA60101265
:102A600012FF6520600912137D2521F52180E912EE
:102A700012FF64AA600712137DF52280037521FFFF
:102A8000E521B4FF097E007F80121259804F900229
:102A900002E07E002400F9EE3402FA7B01C002C09D
:102AA0000112138CD001D0027F081208BAAF227E27
:102AB000007C0074002521F9EC3402FA7B01C0028D
:102AC000C00178087C007D01D001D0021208BAE56F
:102AD000222406900001F074082522F522AF2280FE
:102AE000531213FB7406F0E4A3F07891E6FB54F95B
:102AF00060047F8080027F00900003EFF0A3120744
:102B00007B00000000EB789256540660031213A07D
:102B100020580330680C7892E6B4010690000374E4
:102B200080F0305F0D7892E65418600690000374D0
:102B300080F07F081242CC22E4F51FE51F30E00848
:102B400090800B7408F08005E490800BF0E51FC3C3
:102B5000131232FFE4F51EE51E30E0047F0180020F
:102B60007F0090800AEFF0908005E030E7F99080D8
:102B70000074FFF0E51EC313FF1245AE908005E020
:102B800030E7F9E4908000F0908001F0F0E517F074
:102B9000E516F0E515F0908005E030E7069080003E
:102BA0007430F0908005E030E7F9E4F5209080146F
:102BB0007432F0908005E030E7F9E4908006F09000
:102BC0008005E030E0F990800BE054036009E020DC
:102BD000E12F7F0C12304B903200E0640D7022A385
:102BE000E06406701CA3E0B40517A3E0B40612A3CA
:102BF000E0B4850DA3E0B488081215BEEF600D8027
:102C000026E520C394055004052080A1051EE51E7D
:102C1000C394805003022B57051FE51FC39408502F
:102C200003022B3B7F0022D26C903392E07004A30E
:102C3000E06022E4909002F090320CE054709090AA
:102C400005F0903392E0FEA3E0FF12373490900538
:102C5000746012331E12C000E47880F6C2547F0103
:102C6000228F2185112212328512C00FE490801428
:102C7000F08521237E01FFFD1233171207D29080C9
:102C800005E030E7F9E4908006F0908017E523F046
:102C90009080167480F0908016E0540A60F890805E
:102CA00016E030E15490800BE030E11D908017E099
:102CB000FFC3E5239FFFE49400FE74002FF58274A8
:102CC000103EF58374EEF080C7908014E06007E05A
:102CD000C31314FF80027F038F2112304B908017A3
:102CE000E0FDE523C39DFDE49400FC74002DF58216
:102CF00074103CF583EFF08097908016E020E0F9A7
:102D0000904104E020E1F990800BE0900000F01287
:102D1000C01E900001EEF0A3EFF0900003E514F068
:102D2000A3E515F0900005E516F0A3E517F09080F7
:102D300030E0900007F0908031E0900008F0908043
:102D400032E0900009F090800BE030E30690803391
:102D5000E08001E490000AF090000B74AAF0780C77
:102D60007C001233157E007F401208BA7A00790089
:102D70007E007F009044007400F0A37400F01249BC
:102D8000C98522117F0322E4903000F0903004F0D6
:102D9000A37432F0E47891F6789376FF08F69030D9
:102DA000277480F0D252C251D26DC26EC267C26621
:102DB000C265C264C263C262C25FC25EC25DC25CFF
:102DC000C25BC25AC259C258C268C26AC261C260FA
:102DD0009031C4E0B4A50FA3E0B45A0A7891E64458
:102DE00001F6D2698002C269C257C256C255C250AA
:102DF000C25390300E12077B000000009030181272
:102E0000077B0000000090301C12077B00000000D0
:102E100090302012077B0000000090303012077BBA
:102E20000000000090303412077B00000000E490A6
:102E3000302DF090303812077B0000000090303CBD
:102E400012077B00000000E4903002F0A37410F041
:102E5000E47891F690302474C0F090302EF0E49035
:102E60003025F090302FF0903028F0A3F0A3F0A39D
:102E7000F0A3F012421E7881760122AD0790410442
:102E8000E020E1F9ED247FB40F004003022F4090D1
:102E90002E9D75F003A4C58325F0C58373022ECA49
:102EA000022ED0022ED8022F11022EE0022EE702AF
:102EB0002EEE022EF8022EFF022F0A022F18022FEA
:102EC00040022F23022F2D022F341212F17F0522F0
:102ED0001213A77626022F3C1213A77620022F3C4E
:102EE0001213AE763A80551214027628804E788DF1
:102EF0007607788E762780441213AE76048005120A
:102F000013AE76FF788F76FF80361213A776218076
:102F10002B1213A7762480241213AE7604788F76B2
:102F200001801D1212F11214027629800F12140270
:102F300076298008788D7603788E7611E4788FF67E
:102F40007884E6FCB402071212F17D078017ECB416
:102F50000311904101E04404F07882E64404F67DD8
:102F60000680027D04AF05220902200001010080D5
:102F700032090400000208065000070501020002A1
:102F800000070582020002000C121E0422183A28D3
:102F90006210721C12010110000000408F05809326
:102FA00001000102000104030904180341006C0040
:102FB00063006F00720020004D0069006300720022
:102FC0006F0028034D006100730073002000530060
:102FD00074006F007200610067006500200044000B
:102FE0006500760069006300650010033600330059
:102FF0003800330046003200300047656E65726964
:10300000632055534220466C617368204469736B9A
:103010002020372E3736000000000000000000AAF4
:10302000AAAAAAAAAAAAAAEEEEEEEEEEEEEEEEFE8C
:10303000FFFFFFFFFFFFFFFFFFFFFF7FBFDFEFF798
:10304000FBFDFC7EBFDFEFF7FBFD7E908014E054BC
:10305000066006E024FEFC8009908014E054F82409
:1030600006FCEC752500F524E490800CF090800BB4
:10307000E030E1037FEE221233CCFCEC700302312E
:10308000161C908020E0FD908021E0F9ED30E65C98
:10309000E9701190803012335D8002C333D8FC6F29
:1030A000908030F0B9011190803112335D8002C3FD
:1030B00033D8FC6F908031F0B90211908032123316
:1030C0005D8002C333D8FC6F908032F090800BE0BB
:1030D00030E3A8E9640370A390803312335D80026B
:1030E000C333D8FC6F908033F002307BED548025E1
:1030F000E0FFE433FEE5252FFFE5243EFEE97A00FC
:103100002FFFEA3E8F82F58312335D8002C333D8EE
:10311000FC6FF002307B1233CCFF227890E630E671
:10312000047F0080027F80904104EFF085112178B8
:103130008DE6F5117BA012328C12C00FE490801442
:10314000F0904104E030E0F97890E630E6047F004A
:1031500080027F80904104EFF090800674E0F09050
:103160008005E030E0F91232C27485F0E51354C0F6
:10317000601A90800BE030E306EF75F00C8004EFEE
:1031800075F008A4908001F0EF04801B90800BE0A4
:1031900030E307EF75F018A48004EFC454F090807A
:1031A00001F0EF25E02402908001F0904104E0302E
:1031B000E0F99080067484F0908005E030E0F990AA
:1031C00080007410F0E4908014F08521117F0322B8
:1031D000901000E064996003023284A3E064076009
:1031E00003023284901003E0FF901002E02F24329B
:1031F000FFE4FEFDEDC39F501074002DF582E43412
:1032000010F583E02EFE0D80EB74002FF582E43480
:1032100010F583E06E706DD25E305E2390107DE01D
:10322000F4FF90107CE0B50716E0D394FA400890C4
:10323000300574FAF0800890107CE0903005F09032
:10324000107EE0643C703DA3E064C3703790108151
:10325000E06403702FFEFD901080E0FFEDC39F50EF
:103260001074802DF582E43410F583E02EFE0D807D
:10327000E6901080E02480F582E43410F583E0B518
:103280000602D25D22788DE6F5117B20AD17AC16D3
:10329000AF15AE142254037F0025E0FEEF2400F9A1
:1032A00074003E22E62521FFE433FE74042FF582EC
:1032B00074323EF583E02225E0FEE42400FFEE3484
:1032C000A022E510FD7C00AE16AF17120588AF05F1
:1032D00090800022E0FD75F010EFA42EF582E43519
:1032E000F0F583E582229080157455F074AAF022DF
:1032F0007E027F007D007B017A0079000207D29078
:10330000477793908007F022E05470FFE054074F16
:1033100090900EF0227D017B017A10790022F090CE
:1033200090027401F022E0FEA3E078A4A60608F65D
:10333000229080157477F022E0FF7C00E517540797
:10334000246FF582EC3447F583E493FEEF22903945
:10335000AAE0FEA3E0FFE51275F00AA422E0FFED6B
:103360005407FE7401A80608222400F58274393E31
:10337000F58322EC25E024B8F582E43439F5832284
:103380002400F58274383EF583222486F582E434E5
:1033900039F583222484F582E43439F58322EEF072
:1033A000A3EFF09039A822E517AE16780322740037
:1033B0002FF582E43439F583E0227DFF7B0102079B
:1033C000D27891E64420F67EFF7FFF2290800BE0CA
:1033D00054F0C4540F222482F582E43439F5832258
:1033E000E0FEA3E0FFAD17AC16227890E630E604CD
:1033F0007F0080027F80904104EFF0904104E03034
:10340000E0F9C26AC261C25CC260C25BE490302D66
:10341000F0C257C256C255C250900003E0B45104E6
:10342000D25C8045900004E0B45104D26A803A90A6
:103430000005E0B45104D261802F900006E0B45141
:1034400004D2608024900007E0B4511DD25B90004C
:1034500000E0B45102D25690000EE0B45102D250B6
:1034600090000FE0B45102D25590000BE0B451022D
:10347000D257900009E0B4510DE4903002F0900072
:103480000AE0903003F03057047F0180027F009003
:103490009001EFF07F03228F21121972121A1F5030
:1034A000148511221219C9AD217C00E4FB12C00F52
:1034B0008522118003121921903025E0900000F040
:1034C00090302FE0900001F0903024E0900002F066
:1034D00090302EE0FB900003F0A374C0F0A269E4EA
:1034E0003325E0FE7891E6FD54012E900008F0901F
:1034F000007EEDF0E65406FFBF0604E04440F0E530
:1035000021B4020A903024E0900080F0800AE52186
:10351000B40305900080EBF020560E909000E03050
:10352000E307E4900081F080069000817401F09040
:10353000008274BDF0A37403F01249C97F03229086
:103540000010E0F520E47F01FEFDFC7889121250A6
:1035500070037F8422900011E020E107900018E0C2
:1035600030E74A124B07EF603B900200E06035A362
:10357000E09002001212B1702B900201E0FF7E0079
:10358000900200E07C002400F9EC3402FA7B01C0D8
:1035900002C00112138CD001D0021208BA900201AD
:1035A000E0FF803F7F301212577F3080367F141249
:1035B00012579000027401F0A3F09000057414F00B
:1035C000A37401F0E52090000130E10D7412F09039
:1035D000000A7402F07F14800A740AF0E490000A72
:1035E000F07F0C1242CC222060037F8222900013D5
:1035F000E0641060037F84229044007402F0A3E42E
:10360000F07890E630E6047F0080027F80904104ED
:10361000EFF0904104E030E0F978847601306903FE
:103620007F8722121972121A1F50608511211219F8
:10363000C9E4FB7D07FC12C00F852111900200E058
:10364000FFE4F521E521FDEF121A3874002521F57C
:1036500082E43402F583E06EFE740025211219F431
:10366000E06E6011D269121A7274A5F09031C574BF
:103670005AF07F87220521E521B410C8E49031C4B7
:10368000F09031C5F07891E654FEF67F0322206079
:10369000037F8222900013E0641060037F8422E4A1
:1036A000904400F0A3F0904104F0904104E030E039
:1036B000F9788476017891E630E0037F8722D2673B
:1036C000D266E4F5211219F0E070270521E521B456
:1036D00010F31219727B047D077C0012C00F90104A
:1036E00080E0B4AA0AA3E0B4550512192180357F01
:1036F000032290008074AAF0A37455F0900000E0BB
:10370000F522E4F5211219F0C083C082E0FFE52123
:10371000FDE522121A38EF6ED082D083F00521E544
:1037200021B410E17F07121EBEEF6005C2697F035E
:10373000227F89228E228F23E4FD79FFFCEC640234
:1037400070030237D4909003EDF0909004E9F0906C
:10375000900B7401F090900BE030E0F990900CE049
:10376000FE90900DE0FBEEF524EBF52590900CE03B
:10377000B52306E4B522027C02EC1460250470BD7A
:10378000C3E5259523E5249522500DE970047C01BD
:1037900080ABE9C313F980A5ED25E04401FD7C0170
:1037A000809BD3E5259523E5249522400FBDFF049A
:1037B0007C028089ED25E04401FD80817C02E525C5
:1037C00065237004E5246522700302373DEDC313C1
:1037D000FD02373D228F21E521B40209903025E01A
:1037E000D39402500EE521B4030C90302FE0D39413
:1037F0000240037F89227890E630E6047F00800251
:103800007F80904104EFF0904104E030E0F98511B1
:10381000221219C9121972AD217C007B0112C00F4E
:10382000852211124045E52164027024BFB00F903B
:103830003024E0B4B008903025E004F08005E49036
:103840003025F0903024EFF0305F26121A448021AA
:10385000E521B4031CBFB00F90302EE0B4B0089047
:10386000302FE004F08005E490302FF090302EEF00
:10387000F07F03228C258D26AB07AA0674002BF55A
:103880008274343AF583E526F0EF540325E0FDEB2E
:103890007802CEC313CE13D8F9123380E0FF74033D
:1038A000A805088002C333D8FCF45FF0EBAE0278C1
:1038B00002CEC313CE13D8F9123380C083C082E086
:1038C000FCE5257E00A805088005C333CE33CED89D
:1038D000F94CD082D083F0E526AE257803CEC31311
:1038E000CE13D8F92400F58274393EF583C083C025
:1038F00082E0FF7C00E5265407246FF582EC344714
:10390000F583E493FEEF4ED082D083F022787FE4FB
:10391000F6D8FD7581DF023954020DDDE493A3F87A
:10392000E493A34003F68001F208DFF48029E493D6
:10393000A3F85407240CC8C333C4540F4420C883CD
:103940004004F456800146F6DFE4800B01020408CF
:1039500010204080904B77E47E019360BCA3FF541D
:103960003F30E509541FFEE493A360010ECF54C01D
:1039700025E060A840B8E493A3FAE493A3F8E493A5
:10398000A3C8C582C8CAC583CAF0A3C8C582C8CAAD
:10399000C583CADFE9DEE780BEC299ED30E6127565
:1039A000990D3099FDC29975990A3099FDC2998097
:1039B000087599203099FDC299ED30E01BEF75F044
:1039C0000A842430F5993099FDC299EF75F00A8484
:1039D000E5F02430F5998032EF54F0C4540FFED353
:1039E0009409400674372EFE800474302EFE8E99A2
:1039F000EF540FFED39409400674372EFE800474F2
:103A0000302EFE3099FDC2998E993099FDC299ED04
:103A100030E71075990D3099FDC29975990A309962
:103A2000FDC2992285112112328512C00FE49080C7
:103A300014F0908005E030E7F9E4908006F0908083
:103A400005E030E0F91249C91232C27405F0E513FD
:103A500054C0601A90800BE030E306EF75F00C80E4
:103A600004EF75F008A4908001F0EF04801B9080B3
:103A70000BE030E307EF75F018A48004EFC454F0B6
:103A8000908001F0EF25E02402908001F09080000A
:103A900074E0F09080067404F0908005E030E0F966
:103AA0001249C98521117F03221243C3AC07EC7070
:103AB0007A7892E664017070903028E0FE540364D6
:103AC000017065EE30E23D90302AE0C39405502B42
:103AD000903029E0FEB401067402F07F8522EE6486
:103AE0000270459030297403F0E490302BF0A3F07D
:103AF000C28DF58CF58AD28C7F8622903028E044E6
:103B000002F0802430550A903028E04402F07F0310
:103B100022903029E004F0E0D39406400BE4F078E2
:103B200093E64401F67F85227F0322AF04221243ED
:103B3000C38F20EF20E7797892E6B41014305A084A
:103B40001212641213938004121272FF78991207F2
:103B50004A7892E664017025305022903028E03097
:103B6000E01B90000012077B000000081213CA122D
:103B700013F112077B020008007F0C8030900000D8
:103B800012077B0000001078991207311213F1120E
:103B9000077B02000200789912073190000C12078F
:103BA0005690001012077B000002007F140242CCE6
:103BB000AF2022908016E020E0F9904104E020E15F
:103BC000F97A0079007E007F00904400123D3A901F
:103BD000000012077B555342537B007A007985120F
:103BE00045699000041207567B007A0079891245D6
:103BF000699000081207567881E6B403047F0080BC
:103C0000027F0190000CEFF0740D123D9F305106C1
:103C1000C251903015F0904104E030E10C90410227
:103C2000E030E0F212006380ED904400123D3A1261
:103C30003D9522908007E0F52190800AE0F5221260
:103C400032F090800A7401F0E4FFEF1232FF9080AE
:103C500005E030E7F990800074FFF0908005E030D7
:103C6000E7F99080007490F0E4908001F0FE90807D
:103C7000047401F09080021232D42400F582E583AE
:103C80003400F583EDF09080031232D42408F582DD
:103C9000E5833400F583EDF00EBE06D20FBF08AA0F
:103CA000908007E521F090800AE522F01249C97F53
:103CB00003221232F09000027488F0A374A1F0780D
:103CC00095E6A3F008E6A3F008E6A3F008E6A3F063
:103CD000A3744AF0A374BDF0A37403F090900AE0BB
:103CE00090000BF0A25FE433A3F07890E6A3F0908D
:103CF0000010744AF0A3E511F0A262E433A3F0903F
:103D00008007E0900013F090900EE0900014F09087
:103D10000020744FF09000307448F0900040744ED2
:103D2000F090800BE0900100F01249C97F03227AE5
:103D300000790090300B7401F0A37400F0A37400BC
:103D4000F022F0904102E04441F02290300B74FFE9
:103D5000F0A3742FF0A37488F02285111E90330510
:103D6000E0F511903006E0FEA3E0FFC394FFEE946F
:103D70000322E0FCA3E0FDA3E0FEA3E0227882E6BC
:103D800054EAF6904101E0442AF0E054EA22E49338
:103D9000903009F022E4904104F07881760122907D
:103DA0004106F0E4904105F022900010E0F521A3D7
:103DB000E0FF1313543FF522E05403F514A3E0F59C
:103DC00015A3E0F517A3E0F516E5216410604BE5B7
:103DD0002164097029E51764074516603D121972C0
:103DE000121A1F50148511221219C9E4FBAD17AC29
:103DF0001612C00F8522118021121921801CE52185
:103E000064086016851121852211E4FBAD17AC16FC
:103E1000AF15AE1412C00F8521111249C97F0322BC
:103E20001243C38F20EF20E7657892E6640170307B
:103E3000903028E0FF5405FEBE010CEF4404F090E2
:103E40003029E0700204F0305016903028E030E065
:103E50000F1213CA1212D712077B00000800802924
:103E60007892E6B41014305A081212641213938038
:103E700004121272FF789912074A789912073112C8
:103E800012D712077B000002007F080242CCAF204D
:103E900022124AB3121944FBC31206FA50037F8A56
:103EA000229030341218F91219FC400A90302EE09A
:103EB000B4B0037F89221218F6121A123514FC903E
:103EC000301C1219591219D020550990301C1218A3
:103ED000F912193012C006AB07EB30E713788912DC
:103EE000076200000000EB30E0037F01227F032225
:103EF000121904E51945187004788476017F892227
:103F00007892A607EF14604614601524FE601E2404
:103F1000FC604424F860402490705390300E80314F
:103F2000305A05903018800390302080249030184B
:103F3000E0F8A3E0F9A3E0FAA3E0FB903020123D03
:103F400072C39BFFEE9AFEED99FDEC98801A9030BB
:103F50001C123D72FF801290301C123D72FF2FFF29
:103F6000EE33FEED33FDEC33FC789912074A22E480
:103F7000F99039FDE0FC9039FEE0FDE9FB9039FF56
:103F8000E02BFBE433FAAF04ECC39BEA6480F874E3
:103F9000809850391233AEF51BB4FF04E4FD802A3B
:103FA000EDC394085022ED90476F93551B7016EDAA
:103FB000049039FEF09039FDECF075F008A4FFAEE6
:103FC000F0EF4DFF220D80D8E4FD0C80AEE4FDFC47
:103FD00009E9640270A51233C1228F1CEF75F00A43
:103FE000A42480F9743935F0FA7B01C002C001784D
:103FF000A87C397D01D001D0027E007F0A1208BA68
:10400000851C1DE51D602B75F00AA4FFAEF024761B
:10401000F974393EFA7B01C00174802FF974393E7E
:10402000A801FC7D01D0017E007F0A1208BA151D8F
:1040300080D178807C397D017B017A3979A87E0036
:104040007F0A0208BA900280E0B4FF08A3E0B4FF40
:10405000037FC022900080E0F9A3E0FF900280E09F
:10406000FEA3E0FDEF6D7040FDEDC39F503D7482F7
:104070002DF582E43400F583E0FC74822DF582E4B2
:104080003402F583E0FB121A688002C333D8FC596E
:104090006204121A688002C333D8FC5E6203EC6BC0
:1040A00060037FB0220D80C17FB0227FA022124A20
:1040B000B3121944FBC31206FA50037F8A229030D0
:1040C000341218F91219FC400A90302EE0B4B003F3
:1040D0007F89221218F6121A1290301C12195612E9
:1040E00019D020550990301C1218F912193012C03D
:1040F00003AB07EB30E7137889120762000000007A
:10410000EB30E0037F01227F03221219047F892212
:10411000788DE6FEC378A19640037F03229030029B
:10412000E0FF6024904107E030E624903003E0FD9A
:10413000C3EF9D903002F0541F700D903001E06489
:1041400001F0909001F08000904107E054BFF090A2
:104150003002E04440F08511218E1112C00C8521FF
:1041600011BF81047F0180027F03227892E6FEB4B2
:10417000010A903028E030E0037F83229000007431
:1041800003F0E4A3F07891E6FF54F960047D8080A9
:10419000027D00900002EDF0E4A3F0EF5E540660B3
:1041A000031213A02058033068097892E6B4010383
:1041B0001213A0305F0A7892E6541860031213A01D
:1041C0007F041242CC22909000E030E2037F002274
:1041D000903012E0FEB40111903013E0B4010A9067
:1041E0003014E0B401037F0022903014EEF09030E0
:1041F000127401F0903013F0122B38EF700A9030E7
:1042000012F0903013F0FF22120B7A78A1E6F5112C
:10421000C262E4903012F0903013F07F0122E490FB
:10422000800AF07C029080077440F0908005E030B6
:10423000E7F990800074FFF0908005E030E7F99096
:1042400080007490F0E4A3F0FE9080047401F0907C
:104250008002E0900000F0E0B4FF1A0EBE06EAEC27
:104260005407FEC454F04E90900EF00CECC3940929
:1042700040B37411F022E4904104F0909000E030DB
:10428000E4137890E6B440047F0180027F319042CD
:1042900001EFF0802A904200E05403700C90410737
:1042A000E030E4F112432180EC904200E07890305D
:1042B000E00476408009768090800AE04480F0E453
:1042C0007882F6903004F078817601228F23E47FA3
:1042D00001FEFDFC788912125070037F8422AF2307
:1042E000E4FCFDFE1213D44025904106E523121391
:1042F000B53058028021120731C007AF23AB07D079
:1043000007C3EF9BFFEE94001213517F8122788C3C
:10431000E69041061213B5120762000000007F0309
:10432000229090017401F090801CE0540FFFBF0FA9
:10433000F6E4908007F0904107E04420F0904200BE
:10434000E0540360F8904200E030E0117890E6B469
:104350008005E4904100F078907640800478907673
:1043600080E4909001F09080077440F0904107E065
:1043700054DFF022788DE66511601030620312C0C0
:1043800009788DE6F5117F0112C015E4788DF67875
:104390008DE6FD7F0025E0FEEF2400F974343EFA3F
:1043A0007B01C001ED123295A801FC7D01D0017E98
:1043B000021208BA1249C9788D06E6C3940640CFA6
:1043C0007F03227892E6FF7893E6FE5F6005EFF4C4
:1043D0005E80337994E778925660037F8522205679
:1043E00029909000E030E3107891E620E71C4480AB
:1043F000F67893E644F6800E7891E630E70C547F29
:10440000F67893E644F6F67F86227F00228F218598
:104410001122788DE6F5117890E630E6047F008071
:10442000027F80904104EFF07BA012328C12C00F0B
:10443000E4908014F0908017E521F090801674C00D
:10444000F0908016E020E0F99080007410F0852252
:10445000117F03227890E630E6047F0080027F809F
:10446000904104EFF0904104E030E0F97891E65497
:10447000F9F6900001E030E604E64406F69000010B
:10448000E030E1067891E64402F6900001E030E287
:10449000067891E64404F67F0322124AB390001591
:1044A000E0FF123F0012198E121A0950037F8A2270
:1044B0001248DF12C006AB07EB30E713788912070A
:1044C0006200000000EB30E0037F01227F03221234
:1044D0001904E51945187004788476017F89221241
:1044E0004B07EF6032900300E0602CA3E0900300E4
:1044F00012135F1212BF701F900301E090030012AD
:104500001332C002C00112138CD001D0021208BABB
:10451000900301E0FF80097E007F221212597F2262
:104520001242CC22124B07EF6032900302E0602C63
:10453000A3E090030212135F1212BF701F900303D7
:10454000E0900302121332C002C00112138CD0019A
:10455000D0021208BA900303E0FF80097E007F2496
:104560001212597F241242CC22EB700CE7FF09E7AC
:10457000FE09E7FD09E7FC2214701089828A83E0B6
:10458000FFA3E0FEA3E0FDA3E0FC22BBFE0CE3FFE3
:1045900009E3FE09E3FD09E3FC2289828A83E493AF
:1045A000FF740193FE740293FD740393FC22EF13D6
:1045B0001313541FFE90478F93F515EEC3940750C5
:1045C00012EF5407FE90477F93F517EE90478793BD
:1045D000F51622EF5407FE5401FFF404F517EEC35D
:1045E00013FD7410A805088002C333D8FCC39FF5DF
:1045F0001622AD07AC06ED540325E0FFAB07EDAE88
:10460000047802CEC313CE13D8F9123380E0FFA88A
:1046100003088002C313D8FC5403FE74002DF582F6
:1046200074343CF583E07C002400FFEC3EFE228FD6
:1046300021E521B40205121A61600CE521B4030AD8
:1046400090302EE0B4B0037F8922121A30E521F0B9
:1046500012483FBF0315E521B402059030248008BD
:10466000E521B4030690302E74A0F0228F21E521BD
:10467000B40205121A61600CE521B4030A90302ED1
:10468000E0B4B0037F8922121A30E521F0124942CA
:10469000BF0315E521B402059030248008E521B45C
:1046A000030690302E74C0F0227E027F0012125951
:1046B000E4FF7E02FDFC1213D44015788912073105
:1046C000C3EF9400FFEE94021213511249C980E027
:1046D000788CE6904106F018E61213B712076200D4
:1046E0000000007F0322900011E06003D38001C32B
:1046F000925F900012E0903027F0E0B42003740243
:10470000F0903027E0B440037404F0A25FE43390EB
:104710000000F0903027E0900001F01249C97F03BB
:1047200022124AB3900015E0FF123F0012198E12B8
:104730001A0950037F8A221248DF12C003AB07EB2D
:1047400030E713788912076200000000EB30E003C5
:104750007F01227F03221219047F892200020406AE
:1047600010121416181A1C1E323436383A3C3E0108
:10477000020408102040804080102004080102003C
:104780003FC0FF007FBFC00000FFFFC0008080006F
:10479000010204060810007D04E4FC123373E0FA01
:1047A000A3E06F7002EA6E6025123373E0FAA3E0B3
:1047B000FBBAFF08BBFF05BD0402AD040CBC04DB63
:1047C000BD04027D03ED123374EEF0A3EFF022126C
:1047D00032E6E4F521E521C3788D965024E52112D7
:1047E00032B7FAA9077B01C001E521123295A80171
:1047F000FC7D01D0017E021208BA1249C905218050
:10480000D41233317F03227E007F1212125990009E
:104810000074F0F0788DE6540F900002F0900007DD
:10482000740AF0788EE690000CF0788FE6A3F0E43E
:10483000788DF6788EF6788FF67F121242CC229021
:104840000010E0B45106A3E0F52280037522017840
:1048500090E630E6047F0080027F80904104EFF014
:10486000904104E030E0F9AF22121EBEEF60037FFA
:1048700003227F8922124AB31218F612193012C08D
:1048800006AB07EB30E713788912076200000000DF
:10489000EB30E0037F01227F0322121904E5194562
:1048A000187004788476017F8922900010E0B4515A
:1048B00006A3E0F5218003752101121972121A1F57
:1048C00050148511221219C9AD217C00E4FB12C0DD
:1048D0000F85221180031219211249C97F03227802
:1048E00092E6FF6402602AEF64806025EFB404055D
:1048F000903018801612127212130C7892E6B401DE
:1049000010903028E020E00990301C12127512132C
:104910000C2290800A7410F09080077440F0908010
:1049200005E030E7F9E4908000F0A3F0F0F0F090BB
:1049300080007430F0908005E030E7F9E490801456
:10494000F022900010E0B45106A3E0F52280037538
:1049500022011219211249C978847601E5227003D7
:104960007522FFAF22121EBEEF60037F03227F89F4
:1049700022E4FF1233AEF9F4601CE4FDED90476FC2
:104980009359700EEF75F008A47C002DFFEC35F004
:10499000FE220DBD08E60FBF80D91233C122124A94
:1049A000B31218F612193012C003AB07EB30E7133D
:1049B000788912076200000000EB30E0037F0122DB
:1049C0007F03221219047F89227890E6B4400DE417
:1049D000904106F09041057402F0800C90410674FD
:1049E00040F09041057480F0904104E020E1F9220C
:1049F000008002021F00000047656E657269632037
:104A00004175746F72756E204469736B202020208D
:104A1000382E3030900013E030E118E020E01478B8
:104A200094E6FF789256700BE6FE789346F6EF4ECA
:104A30007894F67F0322900012E0FEA3E0FF123785
:104A40003490900CE0900000F090900DE090000108
:104A5000F012197B0249C9E4908000F0A3F0F00441
:104A6000F0E4F09080007430F0908005E030E7F9D9
:104A700090800774C0F022851121788DE6F5117DB4
:104A800001AF15AE1412C012852111EF60047F032F
:104A900080027F0422BF0205121A61600ABF030A66
:104AA00090302EE0B4B0037F8922121A30EFF0125A
:104AB00048AA22900011E0FCA3E0FDA3E0FEA3E0E1
:104AC000F5171212AA900016E0F518A3E0F51922C6
:104AD000900010E0B4510CA3E07893F6A3E0789432
:104AE000F68003121A441249C97F032290800A7487
:104AF00011F090800774FFF09080007480F0E4A3C0
:104B0000F0F004F0E4F0228511231213427B017DC2
:104B1000067C0012C00F85231122900011E0600373
:104B2000D38001C392591249C97F03223062031214
:104B3000C009E47891F67511FF22124AB312123CB3
:104B400050037F8A227F03229042017431F090410A
:104B50000274FFF0227E007F401212597F40124201
:104B6000CC22900013E030E0037F84227F032212E6
:104B700049C9D26E7F0322019D0000FFFFFFFFFFA6
:104B8000FFFFFFFFFFFFFFFFFFFFFFFFFFFFFFFF35
:104B9000FFFFFFFFFFFFFFFFFFFFFFFFFFFFFFFF25
:104BA000FFFFFFFFFFFFFFFFFFFFFFFFFFFFFFFF15
:104BB000FFFFFFFFFFFFFFFFFFFFFFFFFFFFFFFF05
:00000001FF
