:020000020000FC
:100000000250820206D20206EB02071802072A02F9
:10001000077F02080A02089C0208AD0208C0020815
:10002000D30208DF0208EC0208F802090402091DE5
:1000300002094E020974020A5C020000020000027A
:100040004D39020A82023B090249EF023876024228
:1000500007020000023CC90248E5022A05024B9350
:10006000024473904102E030E505E054FEF0229036
:100070004103E0540FFFBF0807904102E020E7066C
:1000800012346C0206C0123459900E41E024026012
:100090005214603114B40B0040030206C09000A457
:1000A000F828287302010C02018F0206C002021414
:1000B0000206C00202F00203100206C0020662023B
:1000C000066C0206AB900E40E064217013900E4463
:1000D000E0700D1234C312347412344E1234E32221
:1000E0000206C0900E40E064A1701E306104F00270
:1000F00006B9A263E433FFA262E4332FFFA267E4F0
:10010000332F900E40F00206B90206C0900E40E078
:10011000247F601014601E2402706A905000E090EA
:100120000E408058900E44E07008900E40F0A3F00E
:1001300080560206C0900E44E014601E24816008C0
:1001400024FE60282482703A7881E630E0047F0142
:1001500080027F00900E40EF80227881E630E2043A
:100160007F0180027F00900E40EF80107881E630A2
:10017000E4047F0180027F00900E40EFF0E4A3F0E2
:1001800080060206C00206C09041037402F022906D
:100190000E40E07019900E42E0B4010F905000E064
:1001A00054FDF0904107E054FBF0220206C0900E8F
:1001B00040E06402705B900E42E07052900E44E0AA
:1001C0001460202481600824FE602C2482703C7816
:1001D00081E654FEF6904101E04402F0E054FEF066
:1001E0000202EC7881E654FBF6904101E04408F00D
:1001F000E054FBF00202EC7881E654EFF690410106
:10020000E04420F0E054EFF00202EC0206C00206E7
:10021000C00206C0900E40E0600302029C900E42B5
:10022000E064027074900E44E0706EA3E0606AE0D7
:10023000C394055061123475904102E0544170F846
:10024000900E45E024FE601214601714601C240315
:1002500070429042017483F0803A9042017485F0BC
:1002600080329042017407F0802A78007C007D0182
:100270007BFF7A3479007E007F35120A5C9041045E
:10028000E020E1F912344E74351234ED90420174DD
:1002900009F080E980FE0206C00206C0900E40E030
:1002A00064027045900E42E0703C900E44E0146091
:1002B000142481600824FE601B248270267881E665
:1002C0004401F680277881E64404F6904101E04439
:1002D00004F080187881E64410F6904101E0441063
:1002E000F080090206C00206C00206C01234752260
:1002F000123475904102E0544170F8900E42E09043
:100300004100F0904107E054FDF0E4905004F022E9
:10031000900E43E024FE606314607824FD600A14AC
:10032000605924066003020632306B1512348C507B
:100330000B7B101206C87006C26B8002C26B851F51
:1003400014306B117A0079001234B012345190508D
:10035000097404800B12347D903372E49390500939
:10036000F090500A7412F0900E43E06406600302AD
:10037000063590500A740AF002063590500B74FF4F
:10038000F0A37433F074521234DB90500A7420F0EE
:10039000020635306B1512348C500B7B121206C8D6
:1003A0007006C26B8002C26B851F14306B0C123456
:1003B000AC7404F0A37400F0800312347D900E42FC
:1003C000E012094E03E30003F101040A02042703CB
:1003D00004560404848004D982053083061C8600F8
:1003E00000062F12347D9033741234D4903375800C
:1003F0005C306B0B9050097416F0900402803D90B5
:1004000033761234D49033778043306B0F900402EC
:10041000E02416905009F090040380209033781265
:1004200034D49033798026306A1A7A047980123471
:10043000B07404F074801234DB900480E090500AB1
:10044000F002063590337A1234D490337BE49390E3
:10045000500AF00206359004007404F0A314F090E2
:10046000500FE0900402F090500EE0900403F01260
:1004700034AC7404F0A374001234DC90500A740499
:10048000F00206351234F7248E601424FD60172420
:10049000DB601A24187020123435124AE380117F71
:1004A00002124F40800A7F021237C88003121F0BCE
:1004B000905020EFF0800C123D54C25390502074A5
:1004C00003F022C253905020E0B40303023D5412C3
:1004D0003D549050207405F0221234F7248D602092
:1004E00024DD603224FB602024A3603B24FE602EC8
:1004F000247760030205EE123435124C6F0205E7D3
:100500007F02124A690205E7900E45E0900401F06F
:10051000124C030205E7E4FF1227930205E71234A9
:10052000351249B10205E7123435124E590205E77A
:100530001234A4E4905021F0A3F0C3905021E09431
:100540000250447F841242DBEF603C900E45E0FF96
:10055000905021E0FCA3E0FD2400F58274043CF5FA
:1005600083EFF0900E44E0FF74012DF58274043C9B
:10057000F583EFF0124F5E905022E02402F090508D
:1005800021E03400F080B3C3905021E09402500386
:100590000206C77F851242DBEF70030206C7123DD9
:1005A00054EF70030206C77F811242DBEF70030233
:1005B00006C71234F7248F601824FD601B24DB600B
:1005C0001E24A4601F24747025123435124E0E8030
:1005D000167F02124A2C800F7F02123C39800812CB
:1005E00028CE8003123666905020EFF0800890509D
:1005F000207403F08012905020E0B403047F008048
:10060000027F05905020EFF0C2531234A4124D0A1D
:10061000EF60030206C790502004F022905020E0C3
:10062000900E40F0E4905020F090410304F022023C
:1006300006C00206C0900E47E07015900E46E0FF1F
:1006400090500AE0D39F4008900E46E090500AF088
:1006500090500AE070041234A422900E43E0FF028E
:100660002C66905004E0900E40F0804D1234C3F0A0
:10067000900E42E0B4011A9050047401F0904107CA
:10068000E04402123474E4909001F090900704F07A
:1006900022900E42E07012905004F0904107E05416
:1006A000FD12347490900180138015900E44E07018
:1006B00006900E40F0800280079041037401F02202
:1006C000904101E04401F0227D017C0012C00FEF57
:1006D0004E22BB010689828A83E0225002E722BBB8
:1006E000FE02E32289828A83E49322BB010CE58225
:1006F00029F582E5833AF583E0225006E92582F860
:10070000E622BBFE06E92582F8E222E58229F5828F
:10071000E5833AF583E49322EF8DF0A4A8F0CF8C23
:10072000F0A428CE8DF0A42EFE22BC000BBE002922
:10073000EF8DF084FFADF022E4CCF875F008EF2FD8
:10074000FFEE33FEEC33FCEE9DEC984005FCEE9D95
:10075000FE0FD5F0E9E4CEFD22EDF8F5F0EE8420B1
:10076000D21CFEADF075F008EF2FFFED33FD400712
:10077000985006D5F0F222C398FD0FD5F0EA22E892
:100780008FF0A4CC8BF0A42CFCE98EF0A42CFC8A76
:10079000F0EDA42CFCEA8EF0A4CDA8F08BF0A42DF3
:1007A000CC3825F0FDE98FF0A42CCD35F0FCEB8E94
:1007B000F0A4FEA9F0EB8FF0A4CFC5F02ECD39FE4A
:1007C000E43CFCEAA42DCE35F0FDE43CFC2275F0BF
:1007D00008758200EF2FFFEE33FECD33CDCC33CC46
:1007E000C58233C5829BED9AEC99E58298400CF561
:1007F00082EE9BFEED9AFDEC99FC0FD5F0D6E4CE8F
:10080000FBE4CDFAE4CCF9A88222B800C1B90059C2
:10081000BA002DEC8BF084CFCECDFCE5F0CBF9788F
:1008200018EF2FFFEE33FEED33FDEC33FCEB33FB23
:1008300010D703994004EB99FB0FD8E5E4F9FA22AD
:100840007818EF2FFFEE33FEED33FDEC33FCC933A8
:10085000C910D7059BE99A4007EC9BFCE99AF90F70
:10086000D8E0E4C9FAE4CCFB2275F010EF2FFFEEDC
:1008700033FEED33FDCC33CCC833C810D7079BEC27
:100880009AE899400AED9BFDEC9AFCE899F80FD59F
:10089000F0DAE4CDFBE4CCFAE4C8F922EB9FF5F002
:1008A000EA9E42F0E99D42F0E89C45F022E8600FA4
:1008B000ECC313FCED13FDEE13FEEF13FFD8F12292
:1008C000E8600FEFC333FFEE33FEED33FDEC33FC96
:1008D000D8F122E6FC08E6FD08E6FE08E6FF22E67F
:1008E000FB08E6F908E6FA08E6CBF822ECF608ED94
:1008F000F608EEF608EFF622ECF0A3EDF0A3EEF02A
:10090000A3EFF022D083D082E493F608740193F62B
:1009100008740293F608740393F6740473A882852E
:1009200083F0D083D08212093412093412093412B0
:100930000934E473E493A3C583C5F0C583C8C582B5
:10094000C8F0A3C583C5F0C583C8C582C822D083BB
:10095000D082F8E4937012740193700DA3A393F8FE
:10096000740193F5828883E4737402936860EFA343
:10097000A3A380DFEF4E6012EF60010EEDBB010B11
:1009800089828A83F0A3DFFCDEFA2289F05007F720
:1009900009DFFCA9F022BBFEFCF309DFFCA9F02271
:1009A000E709F608DFFA8046E709F208DFFA803E39
:1009B00088828C83E709F0A3DFFA8032E309F60826
:1009C000DFFA806EE309F208DFFA806688828C83A2
:1009D000E309F0A3DFFA805A89828A83E0A3F6084C
:1009E000DFFA804E89828A83E0A3F208DFFA804230
:1009F00080D280FA80C680D4805580F28029801011
:100A000080A680EA809A80A880DA80E280CA802965
:100A100088848C8589828A83E493A30586F0A30564
:100A200086DFF5DEF3800B89828A83E493A3F608E0
:100A3000DFF9ECFAA9F0EDFB2288848C8589828AA3
:100A400083E0A30586F0A30586DFF6DEF480E38964
:100A5000828A83E493A3F208DFF980D688F0EF60FE
:100A6000010E4E60CD88F0ED2402B4040050C3F5B1
:100A700082EB2402B4040050B92323458223900959
:100A8000F0737E057F007A34790012379B7E007FF9
:100A9000807D007B017A397980120974E51454074E
:100AA000F509E5141313543EF5087895A6149053F0
:100AB00002E0F514E4908040F0905300E064A06000
:100AC0001278A4E6FE08E6FFAD08E5122DFDE4333A
:100AD000FC801DAF0875F002EFA42410F582E5F04C
:100AE0003453F583E0FCA3E0FD78A4E6FE08E6FFBE
:100AF0007B0412C00FA259E433908040F07895E651
:100B0000F514AF09EF75F080A42400F9741035F0E6
:100B1000FA7B01C002C00178007C397D01D001D090
:100B2000027E007F80120A5CE4F515123736123718
:100B30006B74FFF0A3F012373612377574FFF0A311
:100B4000F01237361237B474FFF0A3F00515E5152F
:100B5000B404D8E4F515F50AF50BC3E50B78A296B5
:100B6000E50A18964003020CAC123788CEC313CEA8
:100B700013D8F912374A1237185E6003020CA17BB2
:100B800040E4FDFCAF0BAE0A12C00F9039A812373B
:100B90007FE0A330E71D123788CEC313CE13D8F9F8
:100BA00012374AC083C0821237184ED082D083F0E9
:100BB000020CA1C39039A9E094FF9039A8E09403F6
:100BC0004003020CA1E0FEA3E0FF1249EF9039AA16
:100BD000EEF0A3EFF09039AAE0B40311A3E0B4FF64
:100BE0000C9039A81237BE123B09020CA1E515C3BF
:100BF00094044003020C989039AAE0FEA3E0FF128F
:100C0000C0189039ACEEF0A3EFF09039ACE0650E6F
:100C10007004A3E0650F702D123736123775E50AA0
:100C2000F0A3E50BF012372E12376BEEF0A3EFF0C6
:100C3000AF0BAE0A12C0189039AC12377F1237BE14
:100C4000123B09803212372E123775EEF0A3EFF007
:100C500012373612376BE50AF0A3E50BF01237882E
:100C6000CEC313CE13D8F912374AC083C0821237CD
:100C7000184ED082D083F09039AC1237312480F5F1
:100C800082E43439F58312377F1237311237B4EEEC
:100C9000F0A3EFF0051580097D01AF0BAE0A12C07D
:100CA00012050BE50B7002050A020B5A78A17FFEB4
:100CB000120D0EC3E50B789E96E50A189650241285
:100CC0003788CEC313CE13D8F912374AC083C082F7
:100CD0001237184ED082D083F0050BE50B70D40587
:100CE0000A80D0905302E0B5140778A47FFD120D5E
:100CF0000E7E007F087A3979B812379B7E027F001A
:100D00007D007B017A3A79001209747F0122E6FCAA
:100D100008E6FD7E03123B0922909001E070030279
:100D20000F4F78B176209090077401F0909001E019
:100D300024FE7003020DCE24F77003020E3E24023F
:100D400024FC4003020DF17003020E3614700302FE
:100D50000E2E147003020EB0240E6003020F461212
:100D60004DCB904102E030E7F9904102E030E0F9EC
:100D7000E4F512E5129049A993FF74002512F5825B
:100D8000E4340EF583E06F6003020F480512E512AC
:100D9000B408E0900E407411F0A37422F0A37433F1
:100DA000F0A37444F0A37455F0A37466F0A37477B1
:100DB000F0A37488F0E4904102F0A37408F090412D
:100DC00002E020E1F99090017401F0020F46124D0B
:100DD000CB904107E030E4F990801CE0540FFFBF56
:100DE0000FF6E4908007F0904107E04420F0020FF6
:100DF00046AF0BAE0AAD09AC08C006C007AE0CAFDB
:100E00000DAB07AA06E4F9F8D007D00612080A8F3E
:100E10000B8E0A8D098C08AF0BAE0AAD09AC0878B1
:100E20000A1208AD8F0B8E0A8D098C0880FE908007
:100E30000B7410F0800D90800B7408F08005E49026
:100E4000800BF07410124DC0E4F515124F02E4F55A
:100E500014E4908006F0908005E030E0F9124DE057
:100E60006005E4FF1238760514E514C3940240E1EE
:100E700090800A7411F090800774FFF075150212CB
:100E8000503C751202124E35124F0290800774C00A
:100E9000F0E4908006F0908005E030E0F9124DE03B
:100EA00060047F0080027F01909001EFF0020F4606
:100EB000124DBEE4F515124F02E4908006F09080CA
:100EC00005E030E0F9E4908006F0908005E030E045
:100ED000F990800A7413F090800774C0F0124FEB01
:100EE00012503C9080407401F01250039080307496
:100EF000AAF0751201124E35124F0290801474043C
:100F0000F0125003E4908030F0908006F09080055D
:100F1000E030E0F9124FEB124DBE12503C908014BD
:100F20007404F0E4908040F0751202124E35124DB8
:100F3000E060047F0080027F01909001EFF09090CC
:100F40000AE0908000F080FEE4909001F080FE7551
:100F50009852758921758DFFD28EE4F58CF58AD271
:100F60008C4387807898F675995590900174FFF0BE
:100F700012326990900AE020E707909000E030E498
:100F800008E4905014F0124E9D909016E04401F049
:100F9000E490900FF002317EE4F520F520121C83DE
:100FA000E4F521F522C3E522789E96E521189640C6
:100FB000030211A67B40E4FDFCAF22AE2112C00F5C
:100FC000EF64FC7003EE6403600302119B90500613
:100FD000E521F0A3E522121C1F7B14E4FDFC12C0E6
:100FE0000FEF4E70030211A690100EE064906003A4
:100FF0000211A6A3E064CA60030211A690100A12AF
:101000001C3C121D18901011121C3C90506C1208C0
:10101000F8901016121C3C9050701208F890101B9B
:10102000121C3C9050781208F8901021121C3C9031
:10103000507C1208F8901026121C3C121D1E9010B5
:1010400030E024FF925F901034E024FF926490100F
:1010500036E024FF9255901038E024FF9266A3E01A
:1010600024FF9263A3E024FF9265A3E024FF92672C
:1010700090103FE024FF925AA3E024FF9260A3E087
:1010800024FF925CA3E0905003F0901043E024FF13
:10109000925EA3E024FF9261A3E024FF925D305AA8
:1010A000047F0180027F00909001EFF090102EE00D
:1010B000789A46F6121B97FF90506C121C13FBD3C4
:1010C00012089C400A90506C12091D00000000900C
:1010D000506C121B9AFFEC4D4E4F6002D262305F93
:1010E00009909000E030E302C267E4F520E520C3F8
:1010F00078AB96502175F002E520A42400F582E536
:10110000F03411F583E0FEA3E0FF121C5BEEF0A3C8
:10111000EFF0052080D7121C207D011211FB700317
:101120000211F61234FE121C207D021211FB700314
:101130000211F6901080E0B4FF09A3E0B4FF047F31
:10114000C080027FB0905018121C1E7D0312120541
:1011500070030211F6901080E0B4FF09A3E0B4FF21
:10116000047FC080027FB090501A121C1E7D0712AF
:10117000120570030211F6901080E064AA7017A3A4
:10118000E0B45512121D3FE0B4A50D905011E0B42B
:101190005A06D25B8002D25B7F01220522E52270D3
:1011A000020521020FA59050067403F0A374FFF00E
:1011B000E4F52078ABE6FFE520C39F5013789FE667
:1011C000FC08E6FD121C5BECF0A3EDF0052080E3CB
:1011D0007E00789FE6FC08E6FD1207188E218F221C
:1011E000AB07AA06E4F9F8AE0EAF0FFCFD12077FBD
:1011F000121D18121D1ED25B7F00227B147C001270
:10120000C00FEF4E227B147C0012C00FEF4E2290D5
:101210000012E07895F6A3E0F508A3E0F509900048
:1012200015E0F50AA3E0F50B788912090400000027
:1012300000900010E012094E128A00128D011295E2
:101240000212A80312AB0413170512AE0612B1075F
:1012500012BA0812B40912BD0A12C00B12C30C1242
:10126000D50E13871012D81112DB1212F21313BF0E
:101270001B13CD1C13E31D13FD1E13112813142A79
:10128000130880130E8100001416023E5F900011B7
:10129000E0FF022FA3900017E0FEA3E0FF12C021A1
:1012A000900011E0FF0247CD024F220246E0023FCC
:1012B000D5023BA2124CA47F0322024F7C02264C93
:1012C0000244D37895E6FF5470FEEF54074E909099
:1012D0000EF07F0322023EDE024B59124FD2789568
:1012E000E67800FC7D017B017A007900121CB77F53
:1012F00003227895E6FA79007B01C002C001121C36
:10130000F6D001D0020213C8121BC20249B102502A
:101310002A024B1E0248167D00121C8A900000749F
:1013200040F0A37404F090000304F0E4F51FAF1F35
:1013300012492AE51F75F004A4AEF02410F50DE45F
:101340003EF50CFE7400250DF58274003EF583E534
:101350001FF07401250DF58274003EF583E509F058
:101360007402250DF58274003EF583E50AF07403DE
:10137000250DF58274003EF583E50BF0051FE51F92
:10138000C3944040A98056900011E0F51FAF1F158F
:101390001FEF6028AE08AF09E42FFFE43EFAA9076B
:1013A0007BFFC002C001121CF6D001D002121CB794
:1013B000121C29124DE70508050880D17F0322126F
:1013C0001CF67B017A527900121CB78010121CF6B1
:1013D0007B007A0079007E017F00120A5C124DE7E3
:1013E0007F0322900011E0600AD25990804074017E
:1013F000F08007C259E4908040F07F0322900011F2
:10140000E090800A6006E04402F08004E054FDF0C1
:101410001245E17F03227F832220564320574078E4
:1014200088E6600A7987E77886461846601E7F4519
:101430007E407D357C7478851219D8600F7F427E9E
:10144000497D4F7C5378851219D87002D256788521
:10145000E6600C7988E778874618467002D25730E4
:10146000673F205703305639205D36206115A26250
:10147000E4332401FFE433FE7883E6FDB5070AE494
:10148000B50606789976018011ED14FF7402A8075D
:10149000088002C333D8FC7899F67899E6FF1241A8
:1014A0002B7899E6B4011090500B74FFF0A3744FA1
:1014B000F0A374B6F0805B306B3A85141E121AC626
:1014C0007B107D017C0012C00FEF4E7002C26B8555
:1014D0001E14900002E07E002416F9EE3400FAA3F8
:1014E000E029F9EE3AFA90500B7401F0A3EAF0A368
:1014F000E9F0801E90337CE493905009F07E002444
:1015000072F9EE3433FA90500B74FFF0A3EAF0A3B3
:10151000E9F0121B767480F0A37402F0A3F0A374B8
:101520001FF0E4A3F0A3F0A3F0F51E90500BE0FB36
:10153000A3E0FAA3E0F9851E827583001206EBFF93
:101540007408251EF582E43400F583EFF0051EE5EE
:101550001EB420D7206B0302160A30550320560311
:10156000306605E4900001F0751E017899E6FD648F
:1015700001703F9000237430F02060237888E66487
:1015800005701C18E6B48F1718E6B4931218E6B469
:10159000840D121B76F090501CE054FEF0805990A0
:1015A00000007405F0A37480F090501CE04401F03A
:1015B00080463066089000237435F0803B30650823
:1015C0009000237436F08030306408900023743724
:1015D000F08025306311ED900023B408057439F0D4
:1015E00080167438F08011206703305F0890002364
:1015F0007431F08003E4F51EE51E600E9000207447
:1016000038F0A3742EF0A37430F07F2412463822F1
:10161000122F884401909005122F79905212E0F514
:101620001390800AE0FF905213E0FEEF4E90800A84
:10163000F09053F0E0F50EA3E0F50F9053F2E07850
:10164000ABF69053F4E0F510A3E0F5119053F6E0FB
:1016500078ACF69053F8E0F5129053FA122ECA9037
:1016600053FC789F122ECC9053FE122F3290539140
:10167000E0909009F0905394E06003122F6C122FC9
:101680003D78827614E4F5227882E6FF2400F58224
:10169000E43452F583E0640C60030217B674012F42
:1016A000F582E43452F583E0FEC4540F122F5674D1
:1016B000022FF582E43452F583E07880F67882E6F2
:1016C0002403F582E43452F583E07881F6E4F520D2
:1016D000E520C3788096502AAF207401A8070880BF
:1016E00002C333D8FCF52178815678826009122E26
:1016F000F9908000F08007122EF9908001F005200B
:1017000080CE7882E62401F582E43452F583E054F9
:101710000F7880F6E630E0037F0022E4F520E52034
:10172000C378809640030217ADE520540725E024D6
:1017300010908014F0908005E030E7F9E490800686
:10174000F0908005E030E0F990800BE05403600CED
:10175000E030E1037F0022E4FF123876908005E05C
:1017600030E10A90800AE020E1037F002205200595
:1017700020E5205407F5216007E520788066709EFB
:10178000E5217003752108E5217F0025E0FEC006F4
:10179000C007E522122F0CA807FC122F29D007D072
:1017A00006120A5CE5212522F52202171E788274B2
:1017B0000C26F6021688E5227F0025E0FEEF24FEC7
:1017C000F582749F3EF583E0B4550FEF24FFF58258
:1017D000749F3EF583E064AA60037F0022122F927B
:1017E0007F0122124F997899E66401702E90501C67
:1017F000E030E027AE0CAF0DE4FCFD780B1208C022
:1018000078891219D87014121A16E50DAE0C7802E8
:10181000C333CE33CED8F9F50D8E0C121AA412199B
:10182000D860037F84221247838F1EEF30E70122A6
:10183000788D1208D3D3121B4E400930560302197B
:10184000507F8A221219C450037F8A22905002E0EE
:10185000FF6011904107E030E611121AF270051294
:101860001B428000904107E054BFF0905002E044DA
:1018700040F0306930C269D268905015E0FEB40182
:1018800015905016E0B4010E905017E0B40107789F
:101890009C76FF7F8622905017EEF09050157401D1
:1018A000F0905016F02064047F0180027F00905079
:1018B00018E0B4B0047E0180027E00EE5F70030287
:1018C000196FA25CE4121B6C8006CEA2E713CE1344
:1018D000D8F8FF7899E66F7001EE600302196F780F
:1018E0008912090400000000E4FFFEFDFCC3121B86
:1018F0004E705D7899E6B4040B90506C1219F0F5B7
:101900000B121A2590501EE50CF0A3E50DF0750C96
:1019100000750D0112C0038F1EE51E30E7189050B0
:101920001EE07004A3E06401700FE51E30E0047F48
:101930000180027F03227F8922908016E020E0F957
:1019400090501FE024FFF50D90501EE034FFF50C81
:101950007E0C7F007DFF1219BBE50D450C600D125A
:101960004DE7E50D150D70F1150C80ED7F0322128A
:101970004CD712C0038F1EE51E30E72D30E01C90BF
:101980004102E030E003120063904104E020E1EF07
:10199000305403121A41751E018003751E037889A5
:1019A0001209040000000080091219FB1208EC75EE
:1019B0001E89AF1E227F147E007D007B017A007994
:1019C00000020974E50D250BFFE50C350AFEE43530
:1019D00009FDE43508FC788D1208DFC302089C90ED
:1019E000506CE0F8A3E0F9A3E0FAA3E0FB90507498
:1019F000E0FCA3E0FDA3E0FEA3E022908017E02539
:101A00000DF50DE4350CF50CFE7809AF0DE4FCFD89
:101A10001208C0788922AF0BAE0AAD09AC08780273
:101A20001208C08F0B8E0A8D098C0822FFE02FFF51
:101A3000E433FE74002FF58274023EF583E064AA5D
:101A400022C2547A0079007E007F00904400740026
:101A5000F0A37400F0E4904104F022EF24FFFFEEC5
:101A600034FFFEED34FFFDEC34FFFC900000120863
:101A7000F890000422904101E04410F07881E6449F
:101A800010F6227400251FF582E43402F583E0226B
:101A9000250BF50BEE350AF50AED3509F509EC35A0
:101AA00008F50822AE0CAF0DE4FCFDFB7A02F9F854
:101AB00012077F788922FF7E00E07C002400F9EC89
:101AC0003403FA7B0122905305E0F514905006E0B0
:101AD000FEA3E0FF22FEED9400FDEC9400FC78896B
:101AE0000208ECFFE02FFFE433FE74002FF5827450
:101AF0000322905003E0FEC3EF9E905002F0541F6B
:101B0000227401251FF582E43402F583E0240222C9
:101B100078007C007D0122C39BFFEE9AFEED99FDCB
:101B2000EC98FC229000027480F02278957605787B
:101B3000962278957602789622F0E4904105F07826
:101B40008922905001E06401F0909001F022AB0BEB
:101B5000AA0AA909A80802089C788D1208D378025D
:101B60000208AD78891208DFD302089C33FF7404A1
:101B70007E00A8070822E4900000F0A32278957662
:101B8000067896227A0479007E047F0090440074DF
:101B900004F0A37400F022905074E0FCA3E0FDA3D5
:101BA000E0FEA3E022908017E0250DF50DE4350C52
:101BB000F50CFEAF0DE4FCFD78091208C07889022F
:101BC00008EC900010E0900074F0900011E090009C
:101BD00075F0900012E0900076F0227DFF7E027F8B
:101BE000007B017A047900020974250BF50BEE35B0
:101BF0000AF50AED3509F509EC3508F50822E50D79
:101C0000250BFFE50C350AFEE43509FDE49050781C
:101C10003508FCE0F8A3E0F9A3E0FAA3E022EFF036
:101C2000905006E0FEA3E0FF227A0079007E007F5C
:101C3000009044007400F0A37400F022E0FCA3E0E4
:101C4000FDA3E0FEA3E0FF22E50D250BFFE50C352B
:101C50000AFEE43509FDE43508FC22E52025E024F0
:101C600000F582E43451F58322F0A266E433A3F058
:101C7000A263E433A3F0A265E433A3F0A267E433E4
:101C8000A3F022905305E0F514227E027F007B0131
:101C90007A0079000209742FF50BEA3EF50AE93D56
:101CA000F509E83CF5082275F002EFA42400F5825E
:101CB000E5F03405F583227E027F00020A5CFFAB6B
:101CC0000BAA0AA909A808C302089CF0A261E43380
:101CD000A3F0A25DE433A3F022788D1208DFC302E3
:101CE000089C250BFFEE350AFEED3509FDEC22C3FD
:101CF00094FFEE94032278007C007D012290007412
:101D00007451F0A3222DFDE4338D82F583E493FE1C
:101D100022789BE644F6F6229050680208F890502C
:101D2000740208F804F0A264E433A3F0A3229050F4
:101D300018E064B022ED5407FA7401A80208227872
:101D40009AE64401F6905010228F2220520620532A
:101D5000037F0122905305E06514600E3051031299
:101D6000C009121C837F0112C01520510E78A1E614
:101D7000FE08E6FF7D0112C012D2517FFC7E0312E5
:101D800049EF8E0A8F0BE50BB4FF16E50AB4031179
:101D90007E107F007DFF7B017A107900120974802C
:101DA00021E47891F67891E6C394085015E6FD7C1D
:101DB00000E62404FBAF0BAE0A12C00F78910606B2
:101DC00080E3E522B4FF097508037509FF021EDFF1
:101DD000124D398E088F09BEFF06BFFF037F002218
:101DE000E5227F0025E0FEEF2400F974103EA801F3
:101DF000FC7D017B017A0479007E02120A5CE478A2
:101E000091F67891E6C394084003021EDFE685123E
:101E1000F084E5F07011E6FD7C007BA0AF09AE0810
:101E200012C00FE47892F67FFC7E0312C02190531B
:101E3000EEE030E33D7892E690498193FF9053EFD6
:101E4000E05F70030680EE7892E6FFE5178FF0A45E
:101E500008A6F008F67892E6FFE5188FF0A40826A9
:101E6000F69080007485F008E6908001F018E6F0A6
:101E700018067891E625E02410908014F0908006F2
:101E800074E0F0908005E030E0F97891E624028576
:101E900012F084E5F06007E624025407703A90805F
:101EA000007410F0908005E030E7F9E51320E52894
:101EB0009080007470F09080047401F0908003E0D2
:101EC000FF908002E04F30E00F7BC1E4FDFCAF09E2
:101ED000AE0812C00F021DD078910606021E02C382
:101EE000E50B94FFE50A940350097D01AF0BAE0AA0
:101EF00012C012AD09AC087FFC7E03123B09905062
:101F000006E508F0A3E509F07F01227D00121BDD44
:101F1000905068121B9AFF9004001208F890040475
:101F200074CAF0A37401F0A374A1F07B017A507914
:101F30006C1248E59004071208F890040B74A2F0A4
:101F40007B017A5079781248E590040C1208F890D9
:101F5000041074A3F0E4A3F0A26C33A3F0A374A460
:101F6000F07B017A50797C1248E59004141208F84D
:101F700090041974A5F07B017A5079701248E590AD
:101F8000041A1208F890041F7401F0A374A6F0A2BA
:101F90005FE433A3F090042374A7F0900426121D8D
:101FA0002474A9F090042B04F0A26DE433A3F09004
:101FB000900AE090042DF090042F74AB121C69A2DB
:101FC0005CE433900436F0A25AE433A3F09050035B
:101FD000E0900438121CCB7B017A5079741248E5EA
:101FE0009005001208F890050474B0F0905019E0C4
:101FF000900505F090501BE0900506F0905018E019
:10200000900507F090501AE0900508F0A374C0F016
:10201000789AE6A3F0A374B1F090051004F0789FCD
:10202000E6A3F008E6A3F0A374B3F0A26CE433A334
:10203000F0905008E0900515F0A374B4F0789BE69A
:10204000FFA3F0789CE6FEA3F0A374B5F0900524FE
:1020500004F0A3EFF0A3EEF090053074B7F0909089
:1020600000E0900531F090053574B8F0900540041B
:10207000F0905302E0900541F078A4E6A3F008E662
:10208000A3F0905305E0900544F0905006E09005D1
:1020900045F0905007E0900546F0205306121B844F
:1020A000124DE77F0322306532789AE630E02C90BB
:1020B000000FE0248F24FC501F24F2601B24ED60ED
:1020C0001724FD601324FE600F14600C24A7600821
:1020D00024FB6004247970037F8222D25290000F87
:1020E000E012094E221D1022241121821221D571E5
:1020F00021D97221DD7321E17421E57521F076216A
:10210000F977220278220B7B22147C21B58121C031
:102110008221CB8321AB96216297219399219B9AAF
:1021200021A39B217A9C218BF52142F6214AF7219C
:102130006AF82152F9222BFA215AFB2175FF00007F
:1021400022321244118F1E0222351240BC8F1E0211
:102150002235124C3A8F1E022235124D938F1E02E9
:10216000223512508E8F1E022235121BC2124E597A
:102170008F1E02223512504C800B12419A8F1E0284
:102180002235124E7B751E030222351236668F1ED3
:102190000222351228CE8F1E022235121F0B8F1EEF
:1021A000022235124C038F1E0222357F0112279323
:1021B0008F1E022235121BC2124E0E8F1E022235B6
:1021C000121BC2124AE38F1E022235121BC2124C8E
:1021D0006F8F1E80607F0280197F02801E7F0280C9
:1021E000237F02802890501CE04402F07F0280266A
:1021F0007F03124A2C8F1E803C7F03124F408F1E9C
:1022000080337F03124A698F1E802A7F03123C3974
:102210008F1E80217F031237C88F1E8018123A69E3
:102220008F1E80111235B38F1E800A12120F8F1E5F
:102230008003751E82C252AF1E2290000FE0FF780D
:10224000891208DFE8494A4B601290000CE0648074
:1022500060047E0380027E028E1D8003751D01785E
:1022600084A61DEF12094E234800232E0322C91213
:1022700022EB1A233B1B23551E230D23231E25224D
:10228000A72822B82A22DA2F236243236F45237618
:102290004623974A237D5123845222FC5A238BBB29
:1022A0002390BD0000239EE51D640260030223A667
:1022B0001217E38F1C0223A3E51D640360030223AE
:1022C000A6122D908F1C0223A3E51D640260030259
:1022D00023A61214198F1C0223A3E51D64016003B9
:1022E0000223A612505A8F1C0223A3E51D6402602C
:1022F000030223A612452E8F1C0223A3E51D6402B0
:1023000060030223A6122B398F1C0223A3E51D6450
:102310000260030223A6123DDF8F1C0223A3E51DEA
:10232000640260030223A612404B8F1C8075E51DDA
:1023300064027072124BCB8F1C8068E51D640170C3
:1023400065124EBF8F1C805BE51D640170581243FF
:10235000448F1C804EE51D6401704B1250758F1C1C
:102360008041E51D6402703E1239208F1C803412BA
:1023700050968F1C802D1250688F1C802612485B4F
:102380008F1C801F1248A08F1C8018751C0380139F
:10239000124AA68F1C800C124EE18F1C8005122061
:1023A000A68F1CAF1C227F8222C26D124D669080C8
:1023B0000AE05480F0C259E4908040F07892F678B8
:1023C00092E6122F56E47894F6E47893F6C37402FA
:1023D00078939633333354F890800BF0908005E077
:1023E00030E7F9122F817894E6FF12492A90800590
:1023F000E030E7F9E4908000F0908001F0F0E50B28
:10240000F0E50AF0E509F0908005E030E7069080FD
:10241000007430F0908005E030E7F9E47891F690B0
:1024200080147410F0908005E030E7F9E4908006A5
:10243000F0908005E030E0F990800BE054036009F3
:10244000E020E141E4FF123876901000E0640D7066
:1024500034A3E06406702EA3E064057028A3E06452
:10246000067022A3E0B4901D78007C52122F297EC2
:10247000027F00120A5C121610EF703B90800AE097
:102480005480F0800B7891E6C39404500306808F4B
:10249000789306E6C3940350030223CD789406E6AE
:1024A000C3944050030223C9789206E6C3940450B3
:1024B000030223BF7F0022D26D905392E07004A3E9
:1024C000E0601C122F885470909005F0905392E0B9
:1024D000FEA3E0FF1239C89090057460122F799026
:1024E000539FE0B45108D2599080407401F01245D6
:1024F000E112C000E47883F67F0122904106E054A7
:102500007FFFBF211C7F437E427D537C559000009E
:10251000E0F8A3E0F9A3E0FAA3E0FBC312089C6093
:1025200007788476027F82227B017A007904124840
:10253000E578851208EC7B017A0079081248E57885
:10254000891208EC7A0079007E0012344E90000D5A
:10255000E07883F690000FE0306E3F6412602A78D6
:1025600088E6B4051718E6B48F1218E6B4930D1870
:10257000E6B4840890501C7402F0800690501C74DD
:1025800007F0306504E4789BF6C26EE47899F6783B
:10259000ABE6F5149090077401F0206C0302262737
:1025A000A264E433FF905018E0B4B0047E018002CE
:1025B0007E00EE5F6020A25CE433FF7883E6FEB528
:1025C000070F7402A806088002C333D8FCF51C80EC
:1025D00037751C108032206115A262E4332401FF9C
:1025E000E433FE7883E6FDB50711E4B5060D3063EC
:1025F00005751C088012751C01800D7402A8050861
:102600008002C333D8FCF51C3067322057033056A4
:1026100003305D297883E6FF7401A807088002C3B0
:1026200033D8FCF51C80167883E67008905008E0DB
:10263000F51C8009751C04789CE64404F6E51C78BA
:1026400099666005AF1C12412B7F0222122F3DE4D8
:10265000F520E520C3789596501D122EB7124FD263
:10266000E520122F0CA807FC7D017B017E027F0074
:10267000120A5C052080DB122F92122EB7124FD265
:102680009001FEE0B44A06A3E0644E60037F892215
:10269000900000E090800AF030E005751340800360
:1026A000E4F5137898E6B4800790800AE04480F05F
:1026B000900002E078ABF6900004E0F510A3E0F59E
:1026C00011900006E078ACF6900008E0F51290005A
:1026D0000A122ECA90000C789F122F3490000EE040
:1026E000F50EA3E0F50F900191E0909009F09001B4
:1026F0009FE0B45108D2599080407401F0E490906A
:1027000002F0900192E07004A3E0601D900010E0E0
:102710005470909005F0900192E0FEA3E0FF123912
:10272000C89090057460F0800A900010E044019019
:102730009005F0122F7A900194E06003122F6C90B4
:102740000011E030E10890800B7408F080149000D4
:1027500011E030E007E490800BF0800690800B746D
:1027600010F0D26D78007C537D017B017A017900F5
:102770007E007FF0120A5C905303122F3290530FA9
:10278000E0F5131245E112C000C25178ABE6F51432
:102790007F03228F207E027F007D00121BE19004C8
:1027A0000974F1F0905068121B9AFF90040A120805
:1027B000F890040E7490F0A374CAF0A374F2F09031
:1027C000506C121B9AFF9004111208F890041574B3
:1027D000F3F0905070121B9AFF9004161208F890B4
:1027E000041A74F4F0905078121B9AFF90041B1294
:1027F00008F890042074F5F090507C121B9AFF901A
:1028000004211208F890042574F6F0121B97FF902B
:1028100004261208F890042A74F7F0E4A3F0A30445
:10282000F0789AE6540690042EF0A374F8F0A25FB4
:10283000E433A3F0A374F9F0900433121D2474FB65
:10284000F0A255E433A3F0A374FC121C69A25AE46D
:102850003390043FF0A260E433A3F0A25CE433A31E
:10286000F0905003E0900442F0A25EE433A3121C07
:10287000CB90048074E1F090048504F0E478A3F632
:1028800079A3E7C378AB96501778A3E6FF121C5DD7
:10289000E0FCA3E0FD121CA7ECF0A3EDF00680E045
:1028A000789AE69005FFF0E5206006121B84124D31
:1028B000E7E4FF121D49EF60127889120904000055
:1028C0000000306C03121D117F03227F892290507B
:1028D00018E064C060037F8922205306121B841213
:1028E0004FD27B017A0479001248E590506C1208AF
:1028F000F87B017A0479061248E59050781208F8BE
:102900007B017A04790B1248E590507C1208F87B21
:10291000017A04790F1248E59050701208F87B0193
:102920007A0479401248E58F0B8E0A8D098C089045
:102930000445E090500EF0900446E090500FF09067
:102940000444E06451704D9004FEE0644A702CA38E
:10295000E0644E7026FF78ABE6FEEFC39E50141283
:102960001CA7E0FCA3E0FDEF121C5DECF0A3EDF072
:102970000F80E38E14C251E4789CF6AF0BAE0AAD23
:1029800009AC08EC4D4E4F600BAF0BAE0AAD09AC75
:1029900008121D1890506C121B9AFFEC4D4E4F60A0
:1029A00003D38001C39262900404E0B45103D38046
:1029B00001C3925CA25CA062925C905078121B9A58
:1029C000FF905070121C132FF50BEA3EF50AE93DFB
:1029D000F509E83CF508206009905070121B9A1226
:1029E0001BEA905068121B9AC3950BFFEE950AFEE6
:1029F000ED9509FDEC9508FC121D1E7899E6FF1275
:102A0000412B7F03228F1C908016E020E0F990413B
:102A100004E020E1F9121C2990000012091D555311
:102A200042537B007A0079851248E5900004120831
:102A3000F8E490000CF090000BF090000AF0900089
:102A400009F0900008F0904106740DF0E490410503
:102A5000F0306806C268905015F0D254904104E0FE
:102A600030E10A904102E030E0F27F0022C2547A65
:102A7000007900121C31E4904104F0E51C7002FF63
:102A800022C28CC28DE4F58CF58AD28C905002E083
:102A9000FF6024904107E030E624905003E0FEC33D
:102AA000EF9E905002F0541F700D905001E06401B1
:102AB000F0909001F08000904107E054BFF09050FA
:102AC00002E04440F0904104E020E010904102E038
:102AD00030E0037F0022308DEC7F00229000111245
:102AE0001C3C7891121CDB704D90000FE0651C704F
:102AF0004590000DE0788366703C908016F07B0175
:102B00007A0079041248E578851208EC121C29E451
:102B1000908014F0900016E0F50CA3E0F50D78918C
:102B20001208D38F0B8E0A8D098C08121C487891DD
:102B30001208EC7F01227F0022900011E0543FF543
:102B40001E751FFF7520807899E664016003022CD2
:102B50000F90501CE020E003022C0F125017EF6082
:102B60004D900202E06047A3E0900202121A2C701E
:102B70003D900202E02408F51FE51EB43F08A3E0E3
:102B800024F8F5208028121A8364AA6010121A8390
:102B9000651E6009121B01251FF51F80E9121A83AB
:102BA00064AA6007121B01F5208003751FFFE51F53
:102BB000B4FF097E007F801219B9804F900202E0B5
:102BC0007E002400F9EE3402FA7B01C002C001123B
:102BD0001B10D001D0027F08120A5CAF207E007C5F
:102BE000007400251FF9EC3402FA7B01C002C00119
:102BF00078087C007D01D001D002120A5CE5202417
:102C000006900001F074082520F520AF20805312B3
:102C10001B767406F0E4A3F0789AE6FB54F960049E
:102C20007F8080027F00900003EFF0A312091D0057
:102C3000000000EB78995654066003121B242056BE
:102C40000330570C7899E6B401069000037480F0C5
:102C5000306C0D7899E6541860069000037480F08B
:102C60007F08124638228F2090500AE0FF7003023E
:102C70002D8CD3944040047E408002AE07E4FFEFE9
:102C8000C39E503190500BE0FBA3E0FAA3E0F99013
:102C90005009E0FD7C00E92DF9EC3AFAEF29F9EC56
:102CA0003AFA1206D2FD74402FF582E4340EF58311
:102CB000EDF00F80CA7898E6FF20E606E520640272
:102CC0006009EF30E615E520B40710900E56744009
:102CD000F0E4A3F0900E5D74408014E520B4061378
:102CE000900E40740AF0A37406F0900E487401F040
:102CF000E4A3F0E520B40706900E417407F0E52048
:102D000064016005E520B4060FE4900E42F0A37460
:102D100002F0900E477440F0E5206401702B900E95
:102D20004AE0B48006A3E06493600AD26C900E502F
:102D30007403F08007C26CE4900E50F0206D0A908E
:102D40000E4A7434F0A37412F0E52064026005E5C5
:102D500020B40708905005E0900E48F0904103EE33
:102D6000F0904102E020E1F9904102E05421600539
:102D7000E054FEF022904102E020E01390500AE07F
:102D8000C39EF0905009E02EF0022C681234A42269
:102D9000124F997899E66401702790501CE030E05A
:102DA00020AE0C780B121A0B1219D87014121A16C6
:102DB000E50DAE0C7802C333CE33CED8F9F50D8EC7
:102DC0000C121AA41219D860037F84221247838F31
:102DD0001EEF30E701221219C450037F8A22306CA3
:102DE000107899E6FF64016040EF541860037F8714
:102DF00022789AE6600F54066008799AE778995627
:102E000060037F8722905018E064B07031A25C129A
:102E10001B6C8006CEA2E713CE13D8F8FF7899E694
:102E20007C00B50719ECB50615E50D150DAE0C7057
:102E300002150C4E6005124FD280EE7F0322905097
:102E400002E0FF6011904107E030E611121AF270C3
:102E500005121B428000904107E054BFF0905002E1
:102E6000E04440F0124CD712C0068F1EE51E30E73A
:102E70002D30E01C904102E030E0031200639041ED
:102E800004E020E1EF305403121A41751E01800363
:102E9000751E0378891209040000000080131219BE
:102EA000FB1208EC751E89E50D450C7004788476DC
:102EB00001AF1E22120A5C7A0079007E007F00902A
:102EC00044007400F0A37400F022789DE0FEA3E0BB
:102ED000A60608F622F0E512FD7C00AE0AAF0B1242
:102EE000072AECC313ED13FDE5178DF0A4227B2018
:102EF000AD0BAC0AAF09AE0822E62520FFE433FE95
:102F000074042FF58274523EF583E02225E0FEE43E
:102F10002400FFEE34A022E0FD75F010EFA42EF5A2
:102F200082E435F0F583E582227D017B017A107918
:102F3000002278A4E0FEA3E0A60608F62290801501
:102F40007455F074AAF0227E027F007D007B017A26
:102F500000790002097490498993908007F022E576
:102F600017C313F517E518C313F51822E05470FFC3
:102F7000E054074F90900EF022F09090027401F010
:102F80002290800074FFF022E4909002F090520CA6
:102F9000E0229080157477F022908017F0908016D0
:102FA00074C0228F208514217895E6F514E5203031
:102FB000E0037F8922122EEE12C00FE4908014F0FD
:102FC000852022FE7F40FD122F2B12097490800570
:102FD000E030E7F9E4908006F0908017E522F09069
:102FE00080167480F0908016E0540A60F890801685
:102FF000E030E12D90800BE030E1057520EE800798
:10300000E4FF1238768F20908017E0FFC3E5229FFF
:10301000FFC3132400F582E43410F583E520F0802B
:10302000BE908016E020E0F9904104E020E1F990A4
:10303000800BE0900000F012C01E900001EEF0A3A3
:10304000EFF0900003E508F0A3E509F0900005E536
:103050000AF0A3E50BF0908030E0900007F090803C
:1030600031E0900008F0908032E0900009F090800C
:1030700033E090000AF0A374AAF0780C7C00122FC1
:10308000297E007F40122EB4124DE78521147F0364
:1030900022AD07904104E020E1F9ED247FB40F0058
:1030A00040030231569030B375F003A4C58325F078
:1030B000C583730230E00230E60230EE02312702AF
:1030C00030F60230FD02310402310E0231150231B8
:1030D0002002312E02315602313902314302314A87
:1030E000121A757F0522121B2B7626023152121BF3
:1030F0002B7620023152121B32763A8055121B7DFC
:103100007628804E78957607789676278044121B2D
:103110003276048005121B3276FF789776FF803670
:10312000121B2B7621802B121B2B76248024121B42
:1031300032760478977601801D121A75121B7D76FF
:1031400029800F121B7D7629800878957603789662
:103150007611E47897F67884E6FCB40207121A75C3
:103160007D078017ECB40311904101E04404F0782E
:1031700081E64404F67D0680027D04AF05221243F9
:10318000AB9050017401F0904102E030E003120076
:10319000637880E6B40118904104E030E011122415
:1031A000FB7880EFF6BF020712223A7880A60778F4
:1031B00080E6FF64036004EFB40405123F5B80C740
:1031C0007880E6B4050B904101E020E404760380AA
:1031D0001D7880E6FFB40607904101E030E20BEF76
:1031E000B4070B904101E020E404788076047880F5
:1031F000E6FF30E7071230917880A607306F09C2EA
:103200006F904107E04401F07880E66401704A90D5
:103210004107E030E643905002E0FF603C905003ED
:10322000E0FEC3EF9E905002F06015E0541F70075F
:10323000905001E06401F0904107E054BFF080112C
:10324000305A047F0180027F00905001EFF012C0DD
:1032500024905001E0909001F0904107E020E403B9
:1032600002318712468D023187E4905000F0905071
:1032700004F0A37432F0E4789AF60876FF08F6902A
:1032800050087480F0D269C268D26EC26FC254C254
:1032900053C252E4905020F0A3F0A3F0C251C26C8C
:1032A000C26BC26AC264C267C262C255C256C2570A
:1032B000C266C263C265C26190900AE0540F78B1E1
:1032C000F6E670027620905010E0B4A50FA3E0B4AB
:1032D0005A0A789AE64401F6D25B8002C25BC25A6F
:1032E000C25FC260C25EC25DC25C90506812091DBE
:1032F0000000000090506C12091D0000000090506A
:103300007012091D0000000090507412091D000089
:10331000000090507812091D0000000090507C12AF
:10332000091D00000000E4905002F0A37410F0E4C6
:10333000789AF690501874C0F090501AF0E49050BB
:1033400019F090501BF0A3F0A3F01247327880766A
:10335000012209022000010100803209040000025C
:10336000080650000705010200020007058202005E
:1033700002000C121E0422183A286210721C12015C
:103380000110000000408F05809301000102000140
:1033900004030904180341006C0063006F0072000D
:1033A00020004D006900630072006F0028034D008B
:1033B0006100730073002000530074006F007200FE
:1033C0006100670065002000440065007600690028
:1033D00063006500100336003900390030004600F4
:1033E0003000310047656E65726963205553422095
:1033F000466C617368204469736B2020372E373622
:10340000000000000000000000AAAAAAAAAAAAAA16
:10341000AAEEEEEEEEEEEEEEEEFEFFFFFFFFFFFF9A
:10342000FFFFFFFFFF7FBFDFEFF7FBFDFC7EBFDF8E
:10343000EFF7FBFD7E900E45E0900074F0900E4695
:10344000E0900075F0900E47E0900076F0229044F6
:10345000007400F0A37400F02278407C0E7D017BA4
:10346000017A0E79007E007F08120A5C904102E02A
:1034700054FEF022F0904102E04441F02290500BC3
:1034800074FFF0A37433F0A37472F02285141F90BC
:103490005305E0F514905006E0FEA3E0FFC394FF4F
:1034A000EE940322904102E04451F0227A04790024
:1034B00090500B7401F0A322E0FCA3E0FDA3E0FE1A
:1034C000A3E0227881E654EAF6904101E0442AF034
:1034D000E054EA22E493905009F022A3F0E49050E3
:1034E00009F022E4904104F07880760122904106B0
:1034F000F0E4904105F022D253900E44E022901067
:1035000000E0649960030235B2A3E064076003023F
:1035100035B2901003E0FF901002E02F2432FFE458
:10352000FEFDEDC39F501074002DF582E43410F5BC
:1035300083E02EFE0D80EB74002FF582E43410F54D
:1035400083E06E706DD26B306B2390107DE0F4FFE2
:1035500090107CE0B50716E0D394FA40089050052F
:1035600074FAF0800890107CE0905005F090107E86
:10357000E0643C703DA3E064C37037901081E06468
:1035800003702FFEFD901080E0FFEDC39F5010747C
:10359000802DF582E43410F583E02EFE0D80E69058
:1035A0001080E02480F582E43410F583E0B5060253
:1035B000D26A222065037F8222900013E0641060AB
:1035C000037F84227A047900121B8CE4904104F07A
:1035D000904104E030E0F978847601789AE630E0B2
:1035E000037F8722E4F51F7400251FF582E4340071
:1035F000F583E07027051FE51FB410EB121C207B3C
:10360000147D077C0012C00F901080E0B4AA0AA3BA
:10361000E0B45505121BDB803D7F032290048074CB
:10362000AAF0A37455F0900400E0F520E4F51F74AF
:1036300000251FF582E43404F583C083C082E0FFD7
:10364000E51FFDE520121D05EF6ED082D083F00549
:103650001FE51FB410D97F07121D49EF6005C25B3B
:103660007F03227F8922205306121B84124FD2C26D
:1036700066C263C264C265C267C25AC25FC260C228
:103680005EC261900403E0B45104D264804F9004A0
:1036900004E0B45104D2668044900405E0B45104BF
:1036A000D2638039900406E0B45104D265802E9034
:1036B0000407E064517026D267900400E0B4510220
:1036C000D25F90040EE0B45102D25E90040FE0B4D9
:1036D0005102D260900413E0B45102D25D90040B09
:1036E000E0B45102D25A900409E0B4510DE4905074
:1036F00002F090040AE0905003F0305A047F0180F9
:10370000027F00909001EFF0900412E0B45106A205
:1037100067726392617F0322E0FF7C00E50B540730
:103720002481F582EC3449F583E493FEEF2290394D
:10373000AAE0FEA3E0FFE51575F00AA422E0FFED84
:10374000540790498193FEEF6E222400F58274396C
:103750003EF58322EC25E024B8F582E43439F58384
:10376000222400F58274383EF583222486F582E413
:103770003439F583222484F582E43439F58322EE4A
:10378000F0A3EFF09039A822E50BAE0A780322747B
:10379000002FF582E43439F583E0227DFF7B0102BE
:1037A00009747E007F0A020A5C789AE64420F67E5D
:1037B000FF7FFF222482F582E43439F58322E0FE84
:1037C000A3E0FFAD0BAC0A228F20121C20121CEFCD
:1037D0005014851421121C83AD207C007B1212C072
:1037E0000F8521148003121BDB905019E090040018
:1037F000F090501BE0900401F0905018E09004020B
:10380000F090501AE0FB900403F0A374C0F0A25BA8
:10381000E43325E0FE789AE6FD54012E900408F08A
:1038200090047EEDF0E65406FFBF0604E04440F04D
:10383000E520B4020A905018E0900480F0800AE578
:1038400020B40305900480EBF0205F0E909000E020
:1038500030E307E4900481F080069004817401F065
:1038600090048274CAF0A37401F0205306121B84E2
:10387000124DE77F03228F23E490800CF090800BA1
:10388000E030E1037FEE22908013E0752500F524FF
:10389000908010E0F978B1E6FFE9D39F40037FEE16
:1038A00022E9607619908020E0FD908021E0FCED17
:1038B00030E736EC700A90803012373D908030F05F
:1038C000BC010A90803112373D908031F0BC020A71
:1038D00090803212373D908032F0BC03C490803328
:1038E00012373D908033F080B8E52360046D20E608
:1038F000B0ED546075F008A42525FFE52435F0FEF1
:10390000EC7A002FFFEA3E8F82F583C083C08212DB
:10391000373DD082D083F00238A1908010E0FF22A2
:10392000900010E05402F51EE47F01FEFDFC788952
:103930001219D870037F8422900011E020E10790D3
:103940000018E030E74A125017EF603B900200E0A9
:103950006035A3E0900200121A2C702B900201E057
:10396000FF7E00900200E07C002400F9EC3402FAB3
:103970007B01C002C001121B10D001D002120A5CF0
:10398000900201E0FF80327F301219B77F3080292A
:103990001219B59000027401F0A3F09000057414A0
:1039A000F0A37401F0E51E25E025E0240A90000153
:1039B000F090000AE51EF07F14124638788912094B
:1039C00004000000007F03228E218F22E4FD79FF96
:1039D000FCEC64027003023A68909003EDF0909062
:1039E00004E9F090900B7401F090900BE030E0F956
:1039F00090900CE0FE90900DE0FBEEF523EBF524AB
:103A000090900CE0B52206E4B521027C02EC146033
:103A1000250470BDC3E5249522E5239521500DE9C9
:103A200070047C0180ABE9C313F980A5ED25E04467
:103A300001FD7C01809BD3E5249522E5239521405F
:103A40000FBDFF047C028089ED25E04401FD8081EB
:103A50007C02E52465227004E523652170030239A8
:103A6000D1EDC313FD0239D1222065037F8222905C
:103A70000013E0641060037F84227A0279007E02E2
:103A80007F009044007402F0A37400F0124FD278CB
:103A9000847601305B037F8722121C20121CEF50BA
:103AA0006585141F121C837B107D077C0012C00FDC
:103AB000851F14900200E0FFE4F51FE51FFDEF12E3
:103AC0001D057400251FF582E43402F583E06EFEC7
:103AD0007400251FF582E43400F583E06E6011D296
:103AE0005B121D3F74A5F0905011745AF07F87222D
:103AF000051FE51FB410C4E4905010F0905011F071
:103B0000789AE654FEF67F03228C238D24AB07AA15
:103B10000674002BF58274343AF583E524F0EF54F3
:103B20000325E0FDEB7802CEC313CE13D8F912378C
:103B300061E0FF7403A805088002C333D8FCF45F7A
:103B4000F0EBAE027802CEC313CE13D8F912376170
:103B5000C083C082E0FCE5237E00A805088005C381
:103B600033CE33CED8F94CD082D083F0E524AE23C7
:103B70007803CEC313CE13D8F92400F58274393EEE
:103B8000F583C083C082E0FF7C00E52454072481D4
:103B9000F582EC3449F583E493FEEF4ED082D08376
:103BA000F0227898E630E6047F0080027F80904122
:103BB00004EFF08514207895E6F5147BA0122EF022
:103BC00012C00FE4908014F07402122F99122ED5B7
:103BD00085F021F522E5188DF0A425182521F52181
:103BE000908016E020E0F97898E630E6047F0080C7
:103BF000027F80904104EFF0904104E030E0F9E46E
:103C0000908040F09080007485F0908001E522F073
:103C1000E521F09080067484F0908005E030E0F9B2
:103C20009080007410F0A259E433908040F0E4904A
:103C30008014F08520147F03228F20E520B4020930
:103C4000905019E0D39402500EE520B4030C90502C
:103C50001BE0D3940240037F8922205306121B8469
:103C6000124FD2851421121C83121C20AD207C001F
:103C70007B1112C00F852114124272E5206402707C
:103C800024BFB00F905018E0B4B008905019E00471
:103C9000F08005E4905019F0905018EFF0306C2649
:103CA000121D118021E520B4031CBFB00F90501AE3
:103CB000E0B4B00890501BE004F08005E490501B85
:103CC000F090501AEFF07F0322C299ED30E61275A2
:103CD000990D3099FDC29975990A3099FDC2998064
:103CE000087599203099FDC299ED30E01BEF75F011
:103CF0000A842430F5993099FDC299EF75F00A8451
:103D0000E5F02430F5998032EF54F0C4540FFED31F
:103D10009409400674372EFE800474302EFE8E996E
:103D2000EF540FFED39409400674372EFE800474BE
:103D3000302EFE3099FDC2998E993099FDC299EDD1
:103D400030E71075990D3099FDC29975990A30992F
:103D5000FDC29922E4905021F0A3F0905021E0FCA4
:103D6000A3E0FDC3EC9402505D904102E054216059
:103D70000BE054FEF09050207404805C904102E00F
:103D800030E0079050207402804E74002DF97404C6
:103D90003CFA7B01C002C00178407C0E7D01D0015D
:103DA000D0027E007F40120A5C9041037440F09084
:103DB0004102E020E1F9905022E02440F0905021AF
:103DC000E03400F080951234A4E4905020F0124DBD
:103DD0000AEF700890502004F07F00227F01221229
:103DE00047838F1EEF20E7747899E6B41014306291
:103DF000081219DF121B1780041219EDFF788D12BB
:103E000008EC1219B59000037410F09000087402C9
:103E1000F090000AF0900012F07899E664017021A9
:103E2000305E1E90501CE030E0179000037408F0E4
:103E300090000AF0121B599000041208F87F0C80C1
:103E400018788D1208D39000041208F8788D1208A3
:103E5000D390000C1208F87F14024638AF1E22904F
:103E60008007E0F52090800AE0F521124D66122FC0
:103E70004790800A7401F0E4FFEF122F56908005FE
:103E8000E030E7F9122F81908005E030E7F990806B
:103E9000007490F0E4908001F0FE9080047401F0D2
:103EA000908002122F172400F582E5833400F583F9
:103EB000EDF0908003122F172408F582E58334007B
:103EC000F583EDF00EBE06D20FBF08AD908007E57A
:103ED00020F090800AE521F0124DE77F0322122F97
:103EE000479000027490F0A37402F078A6E6A3F065
:103EF00008E6A3F008E6A3F008E6A3F0A3744AF0EE
:103F0000A374CAF0A37401F090900AE090000BF043
:103F1000A26CE433A3F07898E6A3F0900010744A02
:103F2000F0A3E514F0A251E433A3F0908007E090F1
:103F30000013F090900EE0900014F0900020744F69
:103F4000F09000307448F0900040744EF090800B78
:103F5000E0900100F0124DE77F0322908016E020F0
:103F6000E0F9904104E020E1F97A0079007E007FD9
:103F70000012344E90000012091D555342537B002D
:103F80007A0079851248E59000041208F87B007ADF
:103F90000079891248E59000081208F87880E6B4A4
:103FA00003047F0080027F0190000CEFF0740D127B
:103FB00034ED306806C268905015F0904104E0304E
:103FC000E10C904102E030E0F212006380ED123427
:103FD0004E1234E3228514207895E6F514122EEE65
:103FE00012C00FE4908014F0908005E030E7F9E40F
:103FF000908006122ED585F021F522E5188DF0A4CB
:1040000025182521F521908005E030E0F9124DE7D3
:10401000124DE7E4908040F09080007405F09080AD
:1040200001E522F0E521F090800074E0F090800638
:104030007404F0908005E030E0F9A259E4339080F8
:1040400040F0124DE78520147F03221247838F1E14
:10405000EF20E7657899E66401703090501CE0FF2E
:104060005405FEBE010CEF4404F090501DE07002B8
:1040700004F0305E1690501CE030E00F121B591215
:104080001A5B12091D0000080080297899E6B41017
:10409000143062081219DF121B1780041219EDFF89
:1040A000788D1208EC788D1208D3121A5B12091D54
:1040B000000002007F08024638AF1E22124F9912FC
:1040C0001BFEFBC312089C50037F8A2290507C1277
:1040D0001B9A121CBE400A90501AE0B4B0037F89AC
:1040E00022121B97121CE23508FC905070121C1310
:1040F000121C97206009905070121B9A121BEA1232
:10410000C006AB07EB30E713788912090400000002
:1041100000EB30E0037F01227F0322121BA5E50D97
:10412000450C7004788476017F89227899A607EF80
:1041300014604614601524FE601E24FC604424F8BC
:1041400060402490705390506880313062059050E8
:104150006C8003905074802490506CE0F8A3E0F9D8
:10416000A3E0FAA3E0FB9050741234B8C39BFFEEB7
:104170009AFEED99FDEC98801A9050701234B8FFB9
:1041800080129050701234B8FF2FFFEE33FEED33E3
:10419000FDEC33FC788D1208EC22900010E0F51F46
:1041A000A3E0FF1313543FF520E05403F508A3E008
:1041B000F509A3E0F50BA3E0F50AE51F6409702BF0
:1041C000E50B6407450A6039121C20121CEF5014DD
:1041D000851420121C837B10AD0BAC0A12C00F8516
:1041E0002014801D7DFF121C8A801685141F8520D7
:1041F000147B10AD0BAC0AAF09AE0812C00F851FBF
:1042000014124DE77F0322E4F99039FDE0FC903968
:10421000FEE0FDE9FB9039FFE02BFBE433FAAF044D
:10422000ECC39BEA6480F8748098503912378FF59C
:1042300019B4FF04E4FD802AEDC394085022ED90E8
:1042400049819355197016ED049039FEF09039FDAF
:10425000ECF075F008A4FFAEF0EF4DFF220D80D812
:10426000E4FD0C80AEE4FDFC09E9640270A51237A0
:10427000A922900280E0B4FF08A3E0B4FF037FC04E
:1042800022900480E0F9A3E0FF900280E0FEA3E02A
:10429000FDEF6D7040FDEDC39F503D74822DF582A2
:1042A000E43404F583E0FC74822DF582E43402F5F5
:1042B00083E0FB121D358002C333D8FC596204121F
:1042C0001D358002C333D8FC5E6203EC6B60037F54
:1042D000B0220D80C17FB0227FA022AD07124D0A0F
:1042E000EF7006905020048051904102E030E506C6
:1042F000E054FEF080E7904103E0540FFFBF080751
:10430000904102E020E71112346C904101E0440139
:10431000F090502074028022900E03E0B4031690B7
:104320000E02E0B5050F900E01E0B40608900E00F5
:10433000E0648060099050207402F07F0022123403
:10434000597F0122124783EF70607899E66401700B
:104350005690501CE0FE54036401704BEE30E22393
:1043600090501DE0FEB401067402F07F8522EE64D9
:1043700002703490501D7403F090501CE04402F021
:104380007F862230600A90501CE04402F07F0322B6
:1043900090501DE004F0E0D39406400BE4F0789BCD
:1043A000E64401F67F85227F032222E4904104F057
:1043B000904200E05403700C904107E030E4F112A9
:1043C000468D80EC904200E0789830E004764080A2
:1043D00009768090800AE04480F0E47881F690507D
:1043E00004F090900AE020E723909000E020E41C85
:1043F000904104E0FF904102E04F20E00C90410723
:10440000E030E4EC12468D80E7124E9D7880760114
:1044100022124F99121BFEFBC312089C50037F8A85
:104420002290507C121B9A121CBE400A90501AE037
:10443000B4B0037F8922121B97121CE290507012B5
:104440001C10121C97206009905070121B9A121BAE
:10445000EA12C003AB07EB30E713788912090400B6
:10446000000000EB30E0037F01227F0322121BA536
:104470007F89228F1AEF75F00AA42480F9743935E8
:10448000F0FA7B01C002C00178A87C397D01D0011F
:10449000D0021237A2851A1BE51B602775F00AA40B
:1044A000FFAEF02476F974393EFA7B01C0017480C6
:1044B0002FF974393EA801FC7D01D0011237A215F5
:1044C0001B80D578807C397D017B017A3979A812EF
:1044D00037A2227895E6FEC378AB9640037F03228D
:1044E000905002E0FF6024904107E030E6249050B5
:1044F00003E0FDC3EF9D905002F0541F700D9050EB
:1045000001E06401F0909001F08000904107E054D8
:10451000BFF0905002E04440F08514208E1412C089
:104520000C852014BF81047F0180027F03227899CB
:10453000E6FEB4010A90501CE030E0037F83229035
:1045400000007403F0E4A3F0789AE6FF54F96004E5
:104550007D8080027D00900002EDF0E4A3F0EF5E2C
:1045600054066003121B242056033057097899E63D
:10457000B40103121B24306C0A7899E654186003C6
:10458000121B247F0412463822909000E030E20390
:104590007F0022905012E0FEB40111905013E0B45D
:1045A000010A905014E0B401037F0022905014EEF1
:1045B000F09050127401F0905013F01223A9EF7094
:1045C0000A905012F0905013F0FF22120F9878AB1F
:1045D000E6F514C251E4905012F0905013F07F01B0
:1045E0002290800AE030E105751702801690800B5A
:1045F000E030E405751720800A90800BE054082411
:104600002EF517751804E51354C06003122F5F9040
:104610005395E0701B90800BE030E30578B0761C7A
:104620002290800BE078B030E403760E22761622DA
:10463000905395E078B0F6228F21E47F01FEFDFCD7
:1046400078891219D870037F8422AF21E4FCFDFE23
:10465000121B634025904106E521121B393056029A
:1046600080211208D3C007AF21AB07D007C3EF9B4F
:10467000FFEE9400121AD57F8122788CE6904106D5
:10468000121B39120904000000007F0322909001E0
:104690007401F090801CE0540FFFBF0FF6E490808F
:1046A00007F0904107E04420F0904200E05403609E
:1046B000F8904200E030E0117898E6B48005E4908C
:1046C0004100F078987640800478987680E4909065
:1046D00001F09080077440F0904107E054DFF02231
:1046E0007895E66514601030510312C0097895E69C
:1046F000F5147F0112C015E47895F67895E6FFC3AE
:104700009406502BEF7F0025E0FEEF2400F974346F
:104710003EFA7B01C002C00178007C007D01D0011F
:10472000D0027E02122EB4124DE778950680CC7F1F
:104730000322E490800AF07C02124DC4908005E0D0
:1047400030E7F990800074FFF0908005E030E7F9E1
:104750007490124DD8FE9080047401F0908002E0B5
:10476000900000F0E0B4FF1A0EBE06EAEC5407FE1B
:10477000C454F04E90900EF00CECC3940940BA74FF
:1047800011F0227899E6FF789BE6FE5F6005EFF472
:104790005E8033799CE778995660037F8522205F9D
:1047A00029909000E030E310789AE620E71C4480DE
:1047B000F6789BE644F6800E789AE630E70C547F54
:1047C000F6789BE644F6F67F86227F00228F20E56E
:1047D0002030E0037F89228514217895E6F514784E
:1047E00098E630E6047F0080027F80904104EFF07D
:1047F0007BA0122EF012C00FE4908014F0E520127E
:104800002F99F0908016E020E0F99080007410F06D
:104810008521147F0322124F99900015E0FF124169
:104820002B121C48121CD950037F8A22124CD7121B
:10483000C006AB07EB30E7137889120904000000CB
:1048400000EB30E0037F01227F0322121BA5E50D60
:10485000450C7004788476017F8922125017EF602E
:1048600032900300E0602CA3E0900300121AE312E0
:104870001A3A701F900301E0900300121AB6C002AA
:10488000C001121B10D001D002120A5C900301E09B
:10489000FF80097E007F221219B97F22124638223A
:1048A000125017EF6032900302E0602CA3E09003F7
:1048B00002121AE3121A3A701F900303E0900302E7
:1048C000121AB6C002C001121B10D001D002120A87
:1048D0005C900303E0FF80097E007F241219B97FFA
:1048E0002412463822EB700CE7FF09E7FE09E7FDCA
:1048F00009E7FC2214701089828A83E0FFA3E0FE9E
:10490000A3E0FDA3E0FC22BBFE0CE3FF09E3FE09EC
:10491000E3FD09E3FC2289828A83E493FF74019317
:10492000FE740293FD740393FC22EF131313541FC0
:10493000FE9049A193F509EEC394075012EF540776
:10494000FE90499193F50BEE90499993F50A22EF69
:104950005407FE5401FFF404F50BEEC313FD74106D
:10496000A805088002C333D8FCC39FF50A220002C1
:10497000040610121416181A1C1E523436383A3C0B
:104980003E010204081020408040801020040801ED
:1049900002003FC0FF007FBFC00000FFFFC00080DB
:1049A000800001020406081000800600FFAABBCCAC
:1049B000EE900075E06003D38001C3926C900076A6
:1049C000E0905008F0E0B420037402F0905008E04A
:1049D000B440037404F0205313A26CE4339000003D
:1049E000F0905008E0900001F0124DE77F0322ADF7
:1049F00007AC06ED540325E0FFAB07EDAE047802EB
:104A0000CEC313CE13D8F9123761E0FFA803088094
:104A100002C313D8FC5403FE74002DF58274343C99
:104A2000F583E07C002400FFEC3EFE228F20E52091
:104A3000B40205121D2E600CE520B4030A90501A32
:104A4000E0B4B0037F8922121CFDE520F0124E0E67
:104A5000BF0315E520B402059050188008E520B486
:104A6000030690501A74A0F0228F20E520B40205AE
:104A7000121D2E600CE520B4030A90501AE0B4B069
:104A8000037F8922121CFDE520F0124C6FBF031535
:104A9000E520B402059050188008E520B403069084
:104AA000501A74C0F0227E027F001219B9E4FF7E12
:104AB00002FDFC121B63401578891208D3C3EF94E2
:104AC00000FFEE9402121AD5124DE780E0788CE6D2
:104AD000904106F018E6121B3B120904000000008A
:104AE0007F0322900074E0B45106A3E0F520800318
:104AF000752001121C20121CEF5014851421121C69
:104B000083AD207C007B1212C00F8521148003121C
:104B10001BDB205306121B84124DE77F0322124F2A
:104B200099900015E0FF12412B121C48121CD9501D
:104B3000037F8A22124CD712C003AB07EB30E71376
:104B4000788912090400000000EB30E0037F0122A5
:104B50007F0322121BA57F8922122F3DE4F520E559
:104B600020C37895965026E520122F0CFAA9077BD2
:104B700001C002C00178007C007D01D001D0027E1E
:104B8000027F00122EB4124DE7052080D2122F9220
:104B90007F03227D04E4FC123754E0FAA3E06F7037
:104BA00002EA6E6025123754E0FAA3E0FBBAFF0870
:104BB000BBFF05BD0402AD040CBC04DBBD04027DDB
:104BC00003ED123755EEF0A3EFF0227E007F1212B4
:104BD00019B990000074F0F07895E6540F90000237
:104BE000F0900007740AF07896E690000CF0789741
:104BF000E6A3F0E47895F67896F67897F67F1212A9
:104C0000463822205306121B84124FD2789AE6545B
:104C1000F9F6900401E030E604E64406F69004015B
:104C2000E030E106789AE64402F6900401E030E2D2
:104C300006789AE64404F67F0322124F99121B97D6
:104C4000121BEA12C006AB07EB30E7137889120992
:104C50000400000000EB30E0037F01227F032212FA
:104C60001BA5E50D450C7004788476017F892290A0
:104C70000074E0B45106A3E0F52180037521011210
:104C80001BDB20530A121B84124DE778847601E562
:104C90002170037521FFAF21121D49EF60037F03CF
:104CA000227F8922900011E0601290800AE020E0CB
:104CB00025E04401F0431340122F5F2290800AE068
:104CC00030E013E054FEF05313BFE51725E0F5176D
:104CD000E51825E0F518227899E6FF6402602AEFCE
:104CE00064806025EFB4040590506C80161219EDB5
:104CF000121A907899E6B4011090501CE020E00957
:104D00009050701219F0121A90227898E630E6044A
:104D10007E0580027E0A9041078012904102E020C9
:104D2000E014904107E030E7F21EEE6006E0547FA9
:104D3000F080E87F00227F0122E4FF12378FF9F430
:104D4000601CE4FDED9049819359700EEF75F008F9
:104D5000A47C002DFFEC35F0FE220DBD08E60FBF50
:104D600080D91237A922E4FFEFC39408502474C0FD
:104D7000A807088002C313D8FC908007F090800534
:104D8000E030E7F9122F81908005E030E7F90F0F4E
:104D900080D622124F99121B97121BEA12C003AB46
:104DA00007EB30E713788912090400000000EB30AC
:104DB000E0037F01227F0322121BA57F892274500A
:104DC00090800AF09080077440F022904201743184
:104DD000F090410274FFF022908000F0E4A3F022F2
:104DE00090800BE05403227898E6B4400DE49041A3
:104DF00006F09041057402F0800C9041067440F07A
:104E00009041057480F0904104E020E1F922900087
:104E100074E0B45106A3E0F521800375210120530D
:104E200006121B84124FD2AF21121D49EF60037F7F
:104E300003227F8922AF121512EF600F9080067453
:104E4000E0F0908005E020E0EC80F79080007410A6
:104E5000F0908005E030E7F922900074E0B4510C46
:104E6000A3E0789BF6A3E0789CF68003121D112046
:104E70005306121B84124DE77F0322900012E0FEBE
:104E8000A3E0FF1239C890900CE0900000F09090E1
:104E90000DE0900001F0121C29124DE72212458905
:104EA000EF7012C26C789BF69050067403F0A374F6
:104EB000FFF008F622D26C789B76FFE408F6229089
:104EC0000013E030E118E020E014789CE6FF7899C8
:104ED00056700BE6FE789B46F6EF4E789CF67F0305
:104EE000227E007F101219B99000017406F0A3749D
:104EF00004F0A37454F0A37402F0A3F07F101246E0
:104F00003822E4908000F0A3F0F0E515F0E4F09092
:104F100080007430F0908005E030E7F9E490801470
:104F2000F0228514207895E6F5147D01AF09AE08CE
:104F300012C012852014EF60047F0380027F0422D8
:104F4000BF0205121D2E600ABF030A90501AE0B47A
:104F5000B0037F8922121CFDEFF0124AE322905029
:104F600021E0900E40F0905022E0900E41F09041F0
:104F7000037402F0904102E020E1F9221223A9EF2C
:104F800070037F042278ABE6F514C251900011E063
:104F9000B45103120F987F0322900011E0FCA3E0AC
:104FA000FDA3E0FEA3E0F50B121A25900016E0F534
:104FB0000CA3E0F50D2247656E65726963204175AB
:104FC000746F72756E204469736B20202020382E18
:104FD00030307898E630E6047F0080027F80904190
:104FE00004EFF0904104E030E0F92290800074601A
:104FF000F0E4A3F0F090800074D0F0908005E030F1
:10500000E7F9229080427402F090804174FFF090A2
:105010008040E020E1F922851421121AC67B117D1F
:10502000067C0012C00F85211422900011E060035D
:10503000D38001C39255124DE77F03227480124D35
:10504000D8F0E515F0E4F0908014F022305103120E
:10505000C009E4789AF67514FF22124F991219C408
:1050600050037F8A227F03227E007F401219B97F7E
:105070004012463822900013E030E0037F84227F04
:105080000322787FE4F6D8FD7581DF020D19124DF9
:10509000E7D26F7F03227F0322FFFFFFFFFFFFFFA7
:1050A000FFFFFFFFFFFFFFFFFFFFFFFFFFFFFFFF10
:1050B000FFFFFFFFFFFFFFFFFFFFFFFFFFFFFFFF00
:1050C000FFFFFFFFFFFFFFFFFFFFFFFFFFFFFFFFF0
:1050D000FFFFFFFFFFFFFFFFFFFFFFFFFFFFFFFFE0
:00000001FF