:020000020000FC
:1000000002644D02174F0217680217950217A702E4
:10001000181202189D02192F0219400219530219D1
:100020006602197202197F02198B0219970219B020
:100030000219E1021A0D021AF50200000200000284
:10004000576E02414A02000002000002444B0200C7
:1000500000020000024D9A025A77023F6F025ABC1A
:100060000256B302611702590C0200000263A0029B
:1000700063B7025E430250420200000258BD020014
:1000800000026333026068025EEA0261B102618EBF
:10009000026387026140025CE60242D502586D02AB
:1000A000254802595A02513B025F57904102E03005
:1000B000E505E054FEF022904103E0540FFFBF0835
:1000C00007904102E020E706123EC4020863123E98
:1000D000B1900E41E02402605214603114B40B0060
:1000E00040030208639000ECF828287302015402D0
:1000F00001D702086302025C02086302036502037F
:100100008502086302080502080F02084E900E409F
:10011000E064217013900E44E0700D123F10123E07
:10012000CC123EA6123F4D22020863900E40E064BE
:10013000A1701E306104F002085CA263E433FFA2E8
:1001400062E4332FFFA267E4332F900E40F00208E1
:100150005C020863900E40E0247F601014601E244F
:1001600002706A907200E0900E408058900E44E059
:100170007008900E40F0A3F08056020863900E4481
:10018000E014601E2481600824FE60282482703AF6
:100190007881E630E0047F0180027F00900E40EF1E
:1001A00080227881E630E2047F0180027F00900E99
:1001B00040EF80107881E630E4047F0180027F0008
:1001C000900E40EFF0E4A3F080060208630208639B
:1001D0009041037402F022900E40E07019900E429C
:1001E000E0B4010F907200E054FDF0904107E0543C
:1001F000FBF022020863900E40E06402705B900EF8
:1002000042E07052900E44E0146020248160082483
:10021000FE602C2482703C7881E654FEF690410109
:10022000E04402F0E054FEF00203617881E654FB02
:10023000F6904101E04408F0E054FBF002036178DD
:1002400081E654EFF6904101E04420F0E054EFF0F5
:10025000020361020863020863020863900E40E033
:100260006003020311900E42E06402600302030E79
:10027000900E44E0600302030EA3E0700302030E3D
:10028000E0C39405400302030B903C5074F3F090DC
:100290000E45E0B4040312C01E903C5074FF123EA1
:1002A000CC904102E0544170F8900E45E024FE608D
:1002B0001214601714601C2403704E904201748362
:1002C000F080469042017485F0803E9042017407B0
:1002D000F0803678007C007D017BFF7A3879FF7EE4
:1002E000007F35121AF5306D09903C5074F2F0120F
:1002F000C01E904104E020E1F9123EA67435123F81
:10030000579042017409F080E980FE0208630208F8
:1003100063900E40E064027045900E42E0703C90A5
:100320000E44E01460142481600824FE601B2482C3
:1003300070267881E64401F680277881E64404F649
:10034000904101E04404F080187881E64410F69072
:100350004101E04410F080090208630208630208CA
:1003600063123ECD22123ECD904102E0544170F81E
:10037000900E42E0904100F0904107E054FDF0E41F
:10038000907204F022306D449090107401F09090BF
:1003900016E030E31678A1E6F51512C0457F02128B
:1003A000C048909016E054F7F0801C78A1E625E054
:1003B00024A2F582E43472F583E0FEA3E0FFBEFFE1
:1003C00006BFFF0312C03CE4909010F0900E43E093
:1003D00024FE606D14700302045924FD6011146042
:1003E0006024F87003020797240E60030207D530DB
:1003F0006B15123EE4500B7B1012086B7006C26B3B
:100400008002C26B852115306B117A007900123F92
:1004100008123EA99072097404800B123ED59038E0
:1004200055E493907209F090720A7412F0900E43A2
:10043000E0640660030207D890720A740AF00207AB
:10044000D890720B74FFF0A37438F07435123F32F9
:1004500090720A7420F00207D8306B15123EE450F7
:100460000B7B1212086B7006C26B8002C26B852177
:1004700015306B0C123F047404F0A37400F0800379
:10048000123ED5900E42E01219E104A90004B70112
:1004900004D10204EF03051904054780059982067B
:1004A000268307818600000794123ED590385712A4
:1004B0003F3A9038588059306B0C9072097416F09E
:1004C0009004020207CB903859123F3A90385A8074
:1004D0003F306B10900402E02416907209F09004F3
:1004E000030207CB90385B123F3A90385C80213092
:1004F0006A157A047980123F087404F07480123F00
:10050000329004800207CB90385D123F3A90385EFB
:10051000E49390720AF00207D89004007404F0A3E8
:1005200014F090720FE0900402F090720EE09004CC
:1005300003F0123F047404F0A37400123F3390726E
:100540000A7404F00207D8123F61248E601424FD5F
:10055000601724DB601A24187020123E7F125CABF7
:1005600080117F021262DB800A7F02124500800345
:10057000122728907220EFF08009124E25C25312E4
:100580003F6822C253907220E0B40303024E25124A
:100590004E259072207405F022123F61248D605028
:1005A00024F0604324ED605E24FB604C24A360676C
:1005B00024FE605A24D06003020756900E47E030B4
:1005C000E1127E027F007D007B017A047900121A1D
:1005D0000D0206D6900E45E0907224F0900E46E093
:1005E000907223F0020727123E7F12600402074F29
:1005F0007F02125BB802074F900E45E0900401F0B5
:10060000125EB302074FE4FF1236FA02074F123FA1
:1006100021125B3D02074F9000747451F0123F218C
:100620001261F702074F123EFCE4907221F0A3F032
:10063000C3907221E0940250447F841254B8EF605A
:100640003C900E45E0FF907221E0FCA3E0FD240009
:10065000F58274043CF583EFF0900E44E0FF7401E2
:100660002DF58274043CF583EFF01262F99072224A
:10067000E02402F0907221E03400F080B3C3907265
:1006800021E09402500302086A7F851254B8EF708B
:100690000302086A124E25EF700302086A7F811276
:1006A00054B8EF700302086A123F61248F7003028E
:1006B000073424FD700302073B24F3606F24E870C5
:1006C0000302074224FC700302074C24A86078242C
:1006D000CB6003020756900E45E05407F508A3E0EF
:1006E000F509907224E0F50A907223E0F50BE4F529
:1006F0000C900E45E054F0F50DE030E316123E98F4
:10070000250BF50BEE350AF50AED3509F509EC3543
:1007100008F508E50D7003750D019072207480F0E6
:1007200012C006EF30E734123F68802F123E7F126E
:100730006167801B7F02125B7B80147F02124BF586
:10074000800D122F328008123B778003124B659088
:100750007220EFF08005123F688012907220E0B4A2
:1007600003047F0080027F05907220EFF0C25312D5
:100770003EFC126039EF600302086A90722004F0B8
:1007800022907220E0900E40F0E4907220F09041B0
:100790000304F022020863306C38907000E0640DAE
:1007A0007030A3E06406702AA3E0B40525A3E0B48A
:1007B000062090700AE0601A90720B74FFF0A37428
:1007C00039F0A37434123F33900E46E090720AF071
:1007D0008006020863020863900E47E07015900ED1
:1007E00046E0FF90720AE0D39F4008900E46E090EA
:1007F000720AF090720AE07004123EFC22900E43DE
:10080000E0FF023332907204E0900E40F0804D120F
:100810003F10F0900E42E0B4011A9072047401F09F
:10082000904107E04402123ECCE4909001F0909099
:100830000704F022900E42E07012907204F0904192
:1008400007E054FD123ECC90900180138015900E6D
:1008500044E07006900E40F08002800790410374DF
:1008600001F022904101E04401F0227D017C001260
:10087000C00FEF4E22908008E0B401031257C4C2AB
:100880006DC2691260ED90800974ACF0E47892F664
:10089000122428C259E4908040F012251E126317DA
:1008A0001224B690800AE04410F090801AE04401CF
:1008B000F0125F8CE41223D012244FE4F516125F7D
:1008C0008C9080147450F0E4908006F0908005E0E5
:1008D00030E0F9908067E030E013E516700C051603
:1008E0001224A8F0F01224CB80D4122421E4FD7F3E
:1008F0006E124393E4F516906E00E0B4500DA3E041
:10090000B450089072E57438F080069072E57478FF
:10091000F0906E00E064986005E06445702A7516FA
:1009200001906E02E020E3030209C3122525D3944F
:1009300004500FE05407600AE054076401600302AA
:1009400009C34316020209C3906E00E064EC7040D4
:10095000751604906E02E030E31C122525C3940442
:10096000401443160890801AE030E00A122525FF53
:10097000BF050343161090801AE030E046906E01E8
:10098000E07040A3E0703CA3E07038431610803361
:10099000906E00E064AD702B431620906E02E03044
:1009A000E321431608125F8C74361223D07471F061
:1009B0009080027401F0908005E030E0F9908000B2
:1009C0007416F0E47894F69072E5E0FF7894E6C34C
:1009D0009F4003020F1712251E90800AE05490F0EA
:1009E00090800974AC1224B5125F8C12243DE51678
:1009F00030E422125F8C1223CE7410F07E007F0848
:100A00007D007B017A807980121A0D1224BE9080BD
:100A100005E030E0F97894E6FF124AD3125F8CE5E6
:100A20001630E10690800074A2F0E51630E30690DF
:100A3000800074DAF0E41223D0F0F0E50BF0E50A60
:100A4000F0E5091224537894E67014908005E030A4
:100A5000E70D7892E630E10778947678020F177503
:100A600022107523007F10122430125F8CE516547B
:100A700003600E1224A8E50BF0E50AF0E509122444
:100A8000CB7891761C12252C120F4C908005E0300B
:100A9000E0F97891E6167003020F11908005E030BE
:100AA000E0F9908067E030E003020F1190800BE0E6
:100AB00020E107908005E030E10C120F4C9080059A
:100AC000E020E0CE80F7122533E0B40DC5A3E0B4FA
:100AD00006C0122533A3A3E0B405B7122533A3A3A0
:100AE000A3E0640670ACE52324041223396430705B
:100AF000A1E52324071223396451600A90900AE08B
:100B000030E403020F0EE523240D1223396006544E
:100B10007790900EF0E523240E1223396006C3135C
:100B2000FF125C6FE523240C122339FF600CE49064
:100B30009002F0EF12250112253AE523241012232A
:100B4000399073F5F0122335B40129AA22A9237B29
:100B500001C002C00178007C707D01D001D0027E0E
:100B6000027F00121AF51242D5EF7003020F11D264
:100B70006D020DF1122335FF7003020DF1E5232400
:100B8000111223397005EF64047033AE08AF09AA5F
:100B900022A9237B01C002C00178007C147D01D012
:100BA00001D002121AF59073F67414F0A37400F0D9
:100BB000E523241E122339FEA3E0FF122401122391
:100BC000356404603EE5232414122339FF125CE6E9
:100BD000E523241512233990801A6006E04480F042
:100BE0008004E0547FF0E52324201223391224F5F9
:100BF000E5232416122339FB7D50122548EF70039C
:100C0000020F1112233564026003020CFB90800B6B
:100C1000E020E604E030E514750B0190800BE03035
:100C2000E605750802800B12252C8009750B0275EC
:100C30000804750900E5232419122339B4010312AD
:100C4000240EE47891F6E523241612233912254167
:100C50004003020CE7E5232417122339FEA3E0FF2B
:100C6000C39509EE950850048E088F09AE08AF09A8
:100C7000C006C0077891E67F0025E0FEEF2400F96A
:100C800074503EFA7B01C002E523241A122339FE78
:100C9000A3E0AA06F8AC027D01D002D007D006126C
:100CA0001AF5E523241AF582E43522F583E5088553
:100CB00009F01217FCE5232417F582E43522F583A9
:100CC000C083C082C3A3E09509FF0582D5820215C7
:100CD000831582E09508D082D083F0A3EFF078915D
:100CE000E50B26F6020C46E523241912233964018C
:100CF0006003020DDC1224A1020DDC90801AE04496
:100D000080F09080607401F0E5232417122339905D
:100D10008064F0E4908092F0E52324181223399047
:100D20008065F0E47891F6E5232422122339122518
:100D30004150371224D3122399908066F01224D3A5
:100D4000122399FFE6FEE523241112233975F005DD
:100D5000A42EF582E435F0F583E5822400F582E5E2
:100D6000833414F583EFF00680BDE4F508F509122D
:100D700023359073FCB403097450F0A37400F08021
:100D800027E522F0A3E523F09073FCE0FEA3E02426
:100D900014F582E43EF583E0FEA3E0FF9073FDE0EE
:100DA0002FF09073FCE03EF0E47891F6E5232419EF
:100DB000122339122541501B1223E370069073FC55
:100DC000E004F01223E370069073FCE004F07891E5
:100DD0000680D990806174FFF01224B5E523241CAD
:100DE000122339FEA3E0FF4E6007AA06A907121AD4
:100DF00007E523240A122339FEA3E0D39413EE94CB
:100E0000005003020EA3E523240F122339789160CA
:100E100003F68002761CE5232408122339FF125CB6
:100E2000E690800BE020E604E030E514750B0190BD
:100E3000800BE030E605750802800B12252C800936
:100E4000750B02750804750900E52324091223397E
:100E500090801A6006E04480F08004E0547FF07FC8
:100E600005122430E523240A1223391224F5AB0B92
:100E70007D50122548EF701A9080147410F0125FA4
:100E80008CE4908006F0908005E030E003020A9246
:100E900080F4AE08AF09A823AC22122463121AF51D
:100EA000020A92306D6B1223356401705E90719F5F
:100EB000E0B45108D2599080407401F012347EE4BD
:100EC000909002F0907192E07004A3E0601D907029
:100ED0000CE05470909005F0907192E0FEA3E0FF5A
:100EE0001249969090057490F0800690700C12252F
:100EF0000012253A907121E0B45102D26990901EFF
:100F0000E04440F012C000E47883F67F01227F00C5
:100F1000227894060209C7789206E6C39404500327
:100F2000020890122421E47892F6126317125F8C63
:100F300012243D125F8CE41223D012244F125F8CD6
:100F4000789206E6C3940440E17F002290801474F6
:100F500010F0125F8CE4908006F022E4F5219000FE
:100F600011E0600A900010E020E0037F83229000EF
:100F700010E05401900401F0900011E0900400F0A2
:100F8000909016E05418FFBF100F306D0CE4FF1264
:100F9000C03F909016E054EFF02056432057407821
:100FA00088E6600A7987E77886461846601E7F459E
:100FB0007E407D357C747885121EF4600F7F427E02
:100FC000497D4F7C537885121EF47002D256788585
:100FD000E6600C7988E778874618467002D2573069
:100FE000675620585320570330564D205D4A2061E4
:100FF00015A262E4332401FFE433FE7883E6FDB5F5
:10100000070AE4B5060678997601802530641190C8
:101010007218E07899B4B0047610801576028011C9
:10102000ED14FF7402A807088002C333D8FC789936
:10103000F67899E6FF1250BF306B18851520122004
:10104000357B107D017C0012C00FEF4E7002C26B29
:101050008520157899E6FFB401271220AD7463F05E
:10106000A3746BF0206B030210FF900120E064AAD0
:1010700060030210FF7B017A01792290720B0480D9
:1010800059306B61900002E07C002416F9EC3400CA
:10109000FAA3E029F9EC3AFA90720B7401F0A3EA92
:1010A000F0A3E9F0EF5414601B900140E0B4AA14DF
:1010B0007A01794290720B7401F0A37401F0A37469
:1010C00042F0803B7899E6B40835900120E0B4AA5C
:1010D0002E7A01792290720B7401F0A37401F0A3AF
:1010E0007422F0801A90385FE493907209F07E00C9
:1010F0002455F9EE3438FA1220ADEAF0A3E9F0E411
:10110000900000F07899E6640170372060237888B9
:10111000E66405701C18E6B48F1718E6B49312182D
:10112000E6B4840DE4F0A3F090721CE054FEF0806D
:10113000119000007405F0A37480F090721CE044DC
:1011400001F0306D11741212207F74E1F012C01E94
:101150001220F2600122900401E070030212AB90B1
:101160000400E0900001F0900400E024806022245C
:10117000FD7003021236248360030212A8E490007B
:1011800002121F727480F0A37483F075210702139A
:1011900057E4900002F0306A227B017A0079809057
:1011A000720B04F0A37400F0A37480F0E490720951
:1011B000F0900080E090720AF0801C1220AD74382C
:1011C000F0A37455F090385DE493907209F0903874
:1011D0005EE49390720AF090720AE0900003F0E4EB
:1011E000FF90720AE0FEEFC39E50291220B5907264
:1011F00009E0FD7C00E92DF9EC3AFAEF29F9EC3A27
:10120000FA12174FFD74032FF582E43400F583EDD5
:10121000F00F80CD900003E030E010E004F07403A4
:101220002EF582E43400F5837420F0900003E0246E
:1012300004F521021357E4900002F0A37432F07415
:10124000F2121F75F0A37405F0A37430F0A3743587
:10125000F0A37438F0A37446F0A37420F0A374F2E2
:10126000F0740112202E740D121FA47420F0A3F04C
:10127000A3121FA474F1F0740212202E740812201D
:10128000F9121F751220C1E4A3F0A374F1121F72AA
:101290007408F0A37420F0E4A31220F9A3F0A312C1
:1012A00020C17521360213577F832290000174807C
:1012B000F0A37404F0A37402F0A3741FF0E4A3F08D
:1012C000A3F0A3F0F5201220B585208275830012CB
:1012D0001768FF74082520F582E43400F583EFF0E9
:1012E0000520E520B420DF306B6A3055032056031B
:1012F000306605E4900001F07520017899E6FFB4AE
:1013000001089000237430F0803830660890002384
:101310007435F0802D3065089000237436F08022FB
:101320003064089000237437F08017306311EF9019
:101330000023B408057439F080087438F08003E4A1
:10134000F520E520600E9000207438F0A3742EF094
:10135000A37430F0752124AF21125376229000122D
:10136000E07895F6A3E0F508A3E0F509900015E014
:10137000F50AA3E0F50B7889121997000000009098
:101380000019E0B45106A3E0900010F0900010E0C6
:101390001219E113F70014B40114BC0214CA0314A7
:1013A000CD0415EB0514D00614D30714DC0814D6AD
:1013B0000914DF0A14E20B14E50C14F60E165C1087
:1013C00014F91114FC1215921316911B169E1C167B
:1013D000B41D17251E173E1F17442013FA2113FAB8
:1013E0002214732314732415E52815E82A15DC80CC
:1013F00015E2810000174C0255EE90800BE054FC82
:10140000788CF690800AE018F6900011E018F690BB
:10141000001AE090800BB451057440F080037420F2
:10142000F0E4900011F0125D5A788AE6900011F015
:10143000900010E0B42108A3E0FF1231E6800E1204
:1014400022B71263B7900011E0FF124C827889A690
:1014500007788CE690800BF018E630E0047F01807E
:10146000027F00900011EFF0125D5A908009E05465
:10147000FD803B90801AE05480788CF6E0547FF039
:10148000900010E0B42408A3E0FF1231E6800E12B1
:1014900022B71263B7900011E0FF124C827889A640
:1014A0000790801AE0FF788CE65480FEEF4EF078CB
:1014B00089E6FF22900011E0FF0231E61222B71206
:1014C00063B7900011E0FF024C820262BD024EB091
:1014D000024F370247AC125D5A7F032202625D025F
:1014E0003096025DCC7895E6FF5470FEEF54074EBF
:1014F00090900E021748023C7F025D20E5086025AF
:10150000E4F521E521C3950B400302158F12214F0D
:10151000126387E52112228D7B01A807FC0D1222A0
:101520001D052180DE126387E5096056E4F521126E
:1015300022FF505B74022FF9EE3400FA7B01C001E8
:1015400074002FF582E43400F583E07D00FC78958B
:10155000E6FEED2400FFEE3CFE74012521F582E459
:101560003400F583E07C002FFFEC3EA907A807FCC0
:101570000DD0017E007F01121AF574032521F5219B
:1015800080AD7895E67800FC7A0079001222197F08
:101590000322E50945086028E4F5211222FF5039AD
:1015A000EF12228DFAA9077B01C002C00178007CEE
:1015B000000DD001D002122148126140052180DBCC
:1015C0007895E6FA79007B01C002C00112232ED083
:1015D00001D00212221D1261407F032212219102CA
:1015E0005B3D026420025BF50259A67D001222AA2F
:1015F0009000007478F0A37404F09000037407F076
:10160000E4F521AF21124AD3E52175F004A4AEF030
:101610002410F50DE43EF50CFE7400250DF58274E2
:10162000003EF583E521F07401250DF58274003E3E
:10163000F583E509F07402250DF58274003EF5830B
:10164000E50AF07403250DF58274003EF583E50B81
:10165000F00521E521C3947840A98052900011E063
:10166000F521AF211521EF6025AE08AF09E42FFF6A
:10167000E43EFAA9077BFFC002C00112232ED0016D
:10168000D0021221481261400508050880D47F036A
:101690002278007C007A70790012221980101223BF
:1016A0002E7B007A0079007E017F00121AF512610C
:1016B000407F0322900011E0600BD259908040E0FF
:1016C0004401F08009C259908040E054FEF0E508E2
:1016D000B45105AF09125CE6E50A64517044E50BAC
:1016E00030E00790801AE04480F0E50B30E107908D
:1016F000801AE0547FF0E50B30E20790801AE04456
:1017000001F0E50B30E30790801AE054FEF0E50BA2
:1017100030E4057F0112C057E50B30E505E4FF1208
:10172000C0577F0322900011E090800A6006E044D9
:1017300002F08004E054FDF012347E7F0322125D3B
:10174000937F0322E4909012F07F03227F8322BBD9
:10175000010689828A83E0225002E722BBFE02E36F
:101760002289828A83E49322BB010CE58229F582D7
:10177000E5833AF583E0225006E92582F8E622BBAC
:10178000FE06E92582F8E222E58229F582E5833A20
:10179000F583E49322EF8DF0A4A8F0CF8CF0A42879
:1017A000CE8DF0A42EFE22BC000BBE0029EF8DF0E2
:1017B00084FFADF022E4CCF875F008EF2FFFEE3394
:1017C000FEEC33FCEE9DEC984005FCEE9DFE0FD543
:1017D000F0E9E4CEFD22EDF8F5F0EE8420D21CFE17
:1017E000ADF075F008EF2FFFED33FD400798500680
:1017F000D5F0F222C398FD0FD5F0EA22C5F0F8A388
:10180000E028F0C5F0F8E582158270021583E03813
:10181000F022E88FF0A4CC8BF0A42CFCE98EF0A48D
:101820002CFC8AF0EDA42CFCEA8EF0A4CDA8F08B61
:10183000F0A42DCC3825F0FDE98FF0A42CCD35F0A7
:10184000FCEB8EF0A4FEA9F0EB8FF0A4CFC5F02E38
:10185000CD39FEE43CFCEAA42DCE35F0FDE43CFCA1
:101860002275F008758200EF2FFFEE33FECD33CDE9
:10187000CC33CCC58233C5829BED9AEC99E5829836
:10188000400CF582EE9BFEED9AFDEC99FC0FD5F035
:10189000D6E4CEFBE4CDFAE4CCF9A88222B800C1AC
:1018A000B90059BA002DEC8BF084CFCECDFCE5F019
:1018B000CBF97818EF2FFFEE33FEED33FDEC33FC60
:1018C000EB33FB10D703994004EB99FB0FD8E5E409
:1018D000F9FA227818EF2FFFEE33FEED33FDEC33EB
:1018E000FCC933C910D7059BE99A4007EC9BFCE97A
:1018F0009AF90FD8E0E4C9FAE4CCFB2275F010EFB6
:101900002FFFEE33FEED33FDCC33CCC833C810D7F8
:10191000079BEC9AE899400AED9BFDEC9AFCE8994C
:10192000F80FD5F0DAE4CDFBE4CCFAE4C8F922EB09
:101930009FF5F0EA9E42F0E99D42F0E89C45F022D6
:10194000E8600FECC313FCED13FDEE13FEEF13FF85
:10195000D8F122E8600FEFC333FFEE33FEED33FD25
:10196000EC33FCD8F122E6FC08E6FD08E6FE08E6CA
:10197000FF22E6FB08E6F908E6FA08E6CBF822ECD7
:10198000F608EDF608EEF608EFF622ECF0A3EDF01F
:10199000A3EEF0A3EFF022D083D082E493F6087494
:1019A0000193F608740293F608740393F6740473B3
:1019B000A8828583F0D083D0821219C71219C7126A
:1019C00019C71219C7E473E493A3C583C5F0C5838F
:1019D000C8C582C8F0A3C583C5F0C583C8C582C881
:1019E00022D083D082F8E4937012740193700DA317
:1019F000A393F8740193F5828883E4737402936867
:101A000060EFA3A3A380DF8A838982E473EF4E6033
:101A100012EF60010EEDBB010B89828A83F0A3DF18
:101A2000FCDEFA2289F05007F709DFFCA9F022BB9F
:101A3000FEFCF309DFFCA9F022E709F608DFFA80D3
:101A400046E709F208DFFA803E88828C83E709F0D6
:101A5000A3DFFA8032E309F608DFFA806EE309F2C9
:101A600008DFFA806688828C83E309F0A3DFFA80BE
:101A70005A89828A83E0A3F608DFFA804E89828A37
:101A800083E0A3F208DFFA804280D280FA80C68029
:101A9000D4805580F28029801080A680EA809A80C8
:101AA000A880DA80E280CA802988848C8589828A2D
:101AB00083E493A30586F0A30586DFF5DEF3800BB0
:101AC00089828A83E493A3F608DFF9ECFAA9F0EDA2
:101AD000FB2288848C8589828A83E0A30586F0A313
:101AE0000586DFF6DEF480E389828A83E493A3F23D
:101AF00008DFF980D688F0EF60010E4E60CD88F0E7
:101B0000ED2402B4040050C3F582EB2402B40400B7
:101B100050B92323458223901A897390900FE06077
:101B200026909020740CF0909023E4F0A37403F0BE
:101B300090902DE05407F0E04478F090902174E10B
:101B4000F074E9F074E1F0E4908008F0908007F020
:101B5000909001E0B404089080087401F0800D902A
:101B60009001E0B405069080087480F0E490900144
:101B7000F0E07003021E20E064047003021E20E007
:101B800064057003021E20E490900FF078B376484D
:101B900090900704F0909030E04401F0909001E0C4
:101BA00024FE7003021C3E24F77003021CA62402CC
:101BB00024FC4003021C617003021C9E147003028B
:101BC0001D32147003021D25240E6003021E05122F
:101BD0006245904102E030E7F9904102E030E0F9DF
:101BE000E4F514E51490645993FF74002514F5820C
:101BF000E4340EF583E06F6003021E070514E5145C
:101C0000B408E0900E407411F0A37422F0A3743372
:101C1000F0A37444F0A37455F0A37466F0A3747732
:101C2000F0A37488F0E4904102F0A37408F09041AE
:101C300002E020E1F99090017401F0021E051262A9
:101C400045904107E030E4F990801CE0540FFFBF5D
:101C50000FF6E4908007F0904107E04420F0021E68
:101C600005AF0BAE0AAD09AC08C006C007AE0CAF9D
:101C70000DAB07AA06E4F9F8D007D00612189D8F1D
:101C80000B8E0A8D098C08AF0BAE0AAD09AC087833
:101C90000A1219408F0B8E0A8D098C0880FE9080E5
:101CA0000B7408F08005E490800BF090800A7410AB
:101CB000F09080077440F0E4F51612634FE478B4B6
:101CC000F6F515E4908006F0908005E030E0F9909C
:101CD000800BE054036005E4FF12414A0515E51549
:101CE000C3940240DE90800A7411F090800774FF64
:101CF000F07516021263F975140212629D12634F99
:101D000090800774C012623E908005E030E0F99048
:101D1000800BE0540360047F0080027F01909001FB
:101D2000EFF0021E0590801AE04401F090800A74E2
:101D300011F0E4909002F09090057430F0909002D1
:101D40007401F000000000909001E0B40E05E490F2
:101D5000800AF09080077440F090800B7404F0903B
:101D60008005E030E7F990800074FFF0908005E096
:101D700030E7F9E4908000F0A3F0F0F0F0909001EB
:101D8000E0B40F05E4908001F09080007430F09092
:101D90008005E030E7F9741012623B908005E03076
:101DA000E0F9741412623B908005E030E0F9908015
:101DB00014741812623E908005E030E0F9908014AF
:101DC000741C12623E908005E030E0F9908015743A
:101DD00055F074AAF09080147410F0E4908022F012
:101DE000A37405F09080177408F090801674C0F00A
:101DF000908016E020E0F99080157477F0E49080F0
:101E000023F002D00080FEE4909001F0E0B4780E60
:101E1000E4FDFF12504212C04BE4FF1258BD80FE99
:101E2000759852758921758DFFD28EE4F58CF58AEF
:101E3000D28C4387807898F67599559090107408E5
:101E4000F0909030E054FEF0909012E030E005E425
:101E500090900FF090900174FFF01251B6908008AE
:101E6000E0B4800690900E7433F090900AE020E782
:101E700007909000E030E449909016E030E0179031
:101E80007388E0B45110A3E0B4460BA3E0B4570646
:101E9000A3E0645460261245AE1261D4909016E01F
:101EA0004401F09073887451F0A37446F0A3745702
:101EB000F0A37454F0E4909010F080091261D48083
:101EC000081245AEE490900FF0E4909010F00247B5
:101ED000057F147E007D007B017A007900021A0DD7
:101EE000E50D250BFFE50C350AFEE43509FDE4356B
:101EF00008FC788D121972C302192FE0FCA3E0FDD3
:101F0000A3E0FEA3E0250BF50BEE350AF50AED354F
:101F100009F509EC3508F50822FFE02FFFE433FE50
:101F200074002FF58274023EF583E064AA22EF2448
:101F3000FFFFEE34FFFEED34FFFDEC34FFFC021931
:101F40008B908017E0250DF50DE4350CF50CFE782F
:101F500009AF0DE4FCFD121953788922AF0BAE0ACC
:101F6000AD09AC0878021219538F0B8E0A8D098CBB
:101F70000822F07403A3F0E4A3F0A322C2547A0071
:101F800079007E007F009044007400F0A37400F09C
:101F9000E4904104F022904101E04410F07881E6A1
:101FA0004410F622F0A37441F0A3744CF0A37443E0
:101FB000F0A3744FF0A37452F0A32274002521F50E
:101FC00082E43402F583E022909002E0FF907203F5
:101FD000E054604480FEEF4E909002F022A25CE458
:101FE00033FF74047E00A8070822E0FCA3E0FDA3F1
:101FF000E0FEA3E022AE0CAF0DE4FCFDFB7A02F99B
:10200000F8121812788922FF7E00E07C002400F983
:10201000EC3402FA7B012278007C007D0122FF7EF5
:1020200000E07C002400F9EC3403FA7B0122A3F0E9
:10203000E4A3F0A322907105E0F515907206E0FE8E
:10204000A3E0FF22FEED9400FDEC9400FC788902F1
:10205000197FFFE02FFFE433FE74002FF582740335
:1020600022904107E054BFF0907202E04440F02219
:1020700074012521F582E43402F583E024022290E4
:102080007215F09072167401F0903C50229000028C
:102090007480F02278957605789622789576027885
:1020A0009622AB0BAA0AA909A80802192F90720B55
:1020B00074FFF0A32290720BE0FBA3E0FAA3E0F917
:1020C000227405F0A37408F0A3740FF0227D017B45
:1020D000017A0079117E0022788D12196678020249
:1020E00019407889121972D302192FCEA2E713CEA4
:1020F00013227880E6FF640222F0A37449F0A374EF
:1021000045F022789576067896227A0479007E0446
:102110007F009044007404F0A37400F02290727465
:10212000E0FCA3E0FDA3E0FEA3E022908017E02501
:102130000DF50DE4350CF50CFEAF0DE4FCFD780952
:10214000121953788902197F7E027F00121AF57ADC
:102150000079007E007F009044007400F0A37400BA
:10216000F022E4908014F0900016E0F50CA3E0F566
:102170000D78911219668F0B8E0A8D098C08E50D6A
:10218000250BFFE50C350AFEE43509FDE43508FCB6
:1021900022900010E0900074F0900011E090007523
:1021A000F0900012E0900076F0227DFF7E027F002A
:1021B0007B017A047900021A0D250BF50BEE350A26
:1021C000F50AED3509F509EC3508F50822250BFF70
:1021D000EE350AFEED3509FDEC3508FC907270E035
:1021E000F8A3E0F9A3E0FAA3E022907105E0F51569
:1021F000907206E0FEA3E0FF22F0A261E433A3F0B8
:10220000A25DE433A3F0A258E433A3F0A250E43378
:10221000A3F0A270E433A3F0227D017B017E027F54
:1022200000021AF5900011E0FCA3E0FDA3E0FEA37C
:10223000E0FF7891121972C302192FF0A266E433FD
:10224000A3F0A263E433A3F0A265E433A3F0A26792
:10225000E433A3F02225E024C2F582E43472F5834E
:10226000222FF50BEA3EF50AE93DF509E83CF508B1
:102270002275F002EFA42400F582E5F03405F58321
:102280002274002521F582E43404F583227D0025A3
:10229000E0FC7895E6FEED2400FFEE3C22FFAB0B60
:1022A000AA0AA909A808C302192F7E027F007B0190
:1022B0007A007900021A0D900017E0FEA3E0FF22D9
:1022C000904106740DF0E4904105F0D25422789BC1
:1022D000E644F6F622C394FFEE940722907105E0DF
:1022E000F51522F582E43402F583229000747451CE
:1022F000F0A3222DFDE4338D82F583E493FE22AF1B
:10230000217E00C3EF9509EE95082290000DE0783C
:1023100083662204F0A264E433A3F0A3229072182F
:10232000E064B022ED5407FA7401A8020822780094
:102330007C007D0122E5232405F582E43522F58326
:10234000E022121AF57A0079007E007F00904400A6
:102350007400F0A37400F022AF187E0078A4E6FAAF
:10236000FD7C001217957891E625E02427F582E49C
:102370003472F583EEF0A3EFF0E5198AF0A4FFE6DE
:1023800025E02427F582E43472F583227885E6FF80
:10239000E5252404F582E43524F583E5822FF582D2
:1023A000E43583F583E0227895E6F5157BA0AD0B47
:1023B000AC0AAF09AE0822789DE0FEA3E0A60608AD
:1023C000F622E514FD7C00AE0AAF0B0217A774EFEE
:1023D000908000F0908001227E027B017A007900DB
:1023E000021A0D9073FCE0FEA3E0F5828E83E0906C
:1023F0008061F09073FDE004F022852582852483BE
:10240000229073F7E02FF09073F6E03EF022908078
:10241000157455F074AAF0227D017B017E00021A2A
:10242000F590801AE054FEF090800AE05480F0228B
:102430007E007D00AA22A9237B01021A0D90800054
:1024400074FFF02278A5E0FEA3E0A60608F622F0CD
:10245000F0F0F0F09080007430F022908000F09066
:102460008001227D017B017A50790022908040E03A
:10247000FFA259E433FEEF4EF022EA25E0247DF579
:1024800082E43462F58322E518C313F518E519C315
:1024900013F51922E05470FFE054074F90900EF0AE
:1024A000229080157477F0229080007405F0E490FB
:1024B0008001F0F022F090801AE0547FF0229080AA
:1024C000907408F09080067489F022F09080007477
:1024D000E0F022E6FFE5232423F582E4352222E022
:1024E000FCA3E0FDF5828C83A322EBC31378B2F644
:1024F00078A406E622FEA3E02523FFEE3522FE2285
:10250000E04401909005F022908017F090801674BE
:10251000C0F02225E0FEE42400FFEE34A0229080EB
:102520000B7420F022906E05E054072275080075A8
:10253000098022852382852283229090027401F0F3
:1025400022FF7891E6C39F228E248F258D268B272C
:102550007529FF8F828E83E0540F640C60037F0027
:1025600022E47887F61223FAE0540F640C60030229
:102570002725E529B4FF069073F5E0F529E52760E6
:102580000B7887E6C3952740037F00221223FAA326
:10259000E0C4540F12631A1223FAA3A3E0540F7875
:1025A00088F61223FAA3A3A3E0F528125F8CE4783F
:1025B00085F67985E7C3788896502F7885E6FF748D
:1025C00001A807088002C333D8FC7886F6E52856B0
:1025D000600C125F8C12238C908000F08007122315
:1025E0008C908001F078850680C81223FAA3E0540D
:1025F0000F7888F6E5277001F690801AE030E75BE7
:102600001223FAE0C4540FF52875F005A4FFAEF0CC
:102610001224011224DFE0908064F08D828C83E02C
:10262000908092F09073F61224DFA3E0908065F022
:10263000ED2404F582E43CF583E0908063F0907330
:10264000F6E0FCA3E0F5828C83A3A3A3E090806274
:10265000F0C3E49FFFE49EFE122401E47885F6793E
:1026600085E7C37888964003022717908014E526F3
:10267000F0125F8CE4908006F0908005E030E0F985
:10268000908067E030E0037F0022908005E030E03A
:10269000F9908067E030E0037F002290800BE054E7
:1026A00003600DE030E109E529600280157F00221A
:1026B000908005E030E13590800AE020E12EE529A8
:1026C000602715291223FAA3A3E0C4540FF5287537
:1026D000F00CA4FFC3E49FFFE495F0FEEF2525F581
:1026E00025EE3524F52402257D7F002290800BE025
:1026F00020E604E030E50C78850678870605260597
:1027000026800E788506067887060674042526F549
:10271000267529FF02265F740C2525F525E435244E
:10272000F5240225657F01227D001221AC9072689C
:10273000122120FF90040012198B90040474EFF012
:10274000A37401F0A374A1F07B017A72796C125A20
:102750007790040712198B90040B74A2F07B017A16
:10276000727978125A7790040C12198B90041074B5
:10277000A3F0E4A3F0A26C33A3F0A374A4F07B0154
:102780007A72797C125A7790041412198B9004197A
:1027900074A5F07B017A727970125A7790041A123C
:1027A000198B90041F7401F0A374A6F0A25FE433A8
:1027B000A3F090042374A7F090042612231374A9A5
:1027C000F090042B04F0A26DE433A3F090900AE0A3
:1027D00090042DF090042F74AB12223BA25CE433E2
:1027E000900436F0A25AE433A3F0907203E0900410
:1027F000381221F97B017A727974125A77900500A8
:1028000012198B90050474B0F0907219E0900505D0
:10281000F090721BE0900506F0907218E0900507AA
:10282000F090721AE0900508F0A374C0F0789AE670
:10283000A3F0A374B1F090051004F0789FE6A3F024
:1028400008E6A3F0A374B3F0A26CE433A3F0907293
:1028500008E0900515F0A374B4F0789BE6FFA3F0B0
:10286000789CE6FEA3F0A374B5F090052404F0A3D1
:10287000EFF0A3EEF090053074B7F0909000E09088
:102880000531F090053574B8F090054004F0907172
:1028900002E0900541F078A5E6A3F008E6A3F090E9
:1028A0007105E0900544F0907206E0900545F090C7
:1028B0007207E0900546F09090287401F0E4F00073
:1028C000909029E0900550F090902AE0900551F00A
:1028D00090902BE0900552F090902CE0900553F0F2
:1028E00078F07C057D017B017A7179F07E007F10A4
:1028F000121AF520530612210A1261407F0322307A
:102900006530789AE630E02A90000FE0248F24FCAE
:10291000501D24F2601924ED601524FC6014042479
:10292000FB500C24A9600824FB6004247970037F09
:102930008222D25290000FE01219E12A7F102A86DB
:102940001129DC122A37712A3B722A3F732A4374F9
:102950002A47752A52762A5B772A64782A6D7B2A61
:10296000767C2A17812A22822A2D832A0D9629BC59
:102970009729ED9929F59A29FD9B29D49C2A059D33
:1029800029E5F5299CF629A4F729C4F829ACF92AE8
:102990008DFA29B4FB29CFFF00002A941256518FDB
:1029A00020022A971253E38F20022A97125FC18FC9
:1029B00020022A971260C28F20022A97125FF68F98
:1029C00020022A971221911261F78F20022A971272
:1029D00063E4800B1253098F20022A971262197543
:1029E0002003022A97123B778F20022A97122F3258
:1029F0008F20022A971227288F20022A97125EB36F
:102A00008F20022A97124B658F20022A977F01128E
:102A100036FA8F20022A971221911261678F2002C5
:102A20002A97122191125CAB8F20022A97122191D2
:102A30001260048F2080607F0280197F02801E7FD9
:102A40000280237F02802890721CE04402F07F0203
:102A500080267F03125B7B8F20803C7F031262DB2A
:102A60008F2080337F03125BB88F20802A7F031270
:102A70004BF58F2080217F031245008F2080181294
:102A800048F48F2080111248518F20800A12135D64
:102A90008F208003752082C252AF202290000FE069
:102AA000F51E7889121966EC4D4E4F601290000C9D
:102AB000E0648060047F0380027F028F1F800375C3
:102AC0001F017884A61F306D1D30691A907215E5BC
:102AD0001EF0E4907216F0903C5074E2F012C01EAA
:102AE0001220F2600122E51E1219E12BD8002BBE44
:102AF000032C1B042B59122C1B152B7B1A2BCB1BC5
:102B00002BE51E2B9D232BAE252B37282B482A2B5C
:102B10006A2F2BF2432BFF452C06462C0D512C140B
:102B2000522B8C5A2BAE9E2C27A22C1BA32C1BBBEA
:102B30002C20BE00002C2EE51F64026003022C3600
:102B4000122C398F1D022C33E51F64036003022C05
:102B500036123A6D8F1D022C33E51F6402600302AA
:102B60002C36120F5B8F1D022C33E51F64016003AE
:102B7000022C361264328F1D022C33E51F64026072
:102B800003022C3612395A8F1D022C33E51F6402C2
:102B90006003022C361235BD8F1D022C33E51F64F5
:102BA000026003022C361255888F1D022C33E51F5C
:102BB00064026003022C36123D848F1D8075E51F70
:102BC00064027072125E7B8F1D8068E51F64017065
:102BD00065125C328F1D805BE51F640170581255D1
:102BE000218F1D804EE51F6401704B1264408F1DC4
:102BF0008041E51F6402703E124A378F1D803412F7
:102C00005DFC8F1D802D1257138F1D80261259EDEC
:102C10008F1D801F125A328F1D8018751D0380135F
:102C2000125AFD8F1D800C1260958F1D8005122891
:102C3000FF8F1DAF1D227F82221263CE7899E6643A
:102C400001702E90721CE030E027AE0CAF0DE4FC5A
:102C5000FD780B1219537889121EF47014121F5C40
:102C6000E50DAE0C7802C333CE33CED8F9F50D8E18
:102C70000C121FF5121EF460037F842212529B8FE8
:102C800020EF30E70122788D121966D31220A2407E
:102C900009305603022D547F8A22121EE050037F12
:102CA0008A22121FC81220612064047F0180027FE3
:102CB00000907218E0B4B0047E0180027E00EE5FE6
:102CC0007003022D73121FDD80031220EBD8FBFF6F
:102CD0007899E66F7001EE6003022D7378891219FE
:102CE0009700000000E4FFFEFDFCC31220A2706408
:102CF0007899E6B4041290726CE0FCA3E0FDA3E0C6
:102D0000FEA3E0F50B121F6B90721EE50CF0A3E51D
:102D10000DF0750C00750D0112C0038F20E52030F9
:102D2000E71890721EE07004A3E06401700FE520C4
:102D300030E0047F0180027F03227F892290801689
:102D4000E020E0F990721FE024FFF50D90721EE084
:102D500034FFF50C7E0C7F007DFF121ED7E50D457C
:102D60000C600D126140E50D150D70F1150C80ED34
:102D70007F0322125F2112C0038F20E52030E72D50
:102D800030E01C904102E030E0031200AB904104BF
:102D9000E020E1EF305403121F7C752001800375A1
:102DA00020037889121997000000008009121F4142
:102DB00012197F752089AF2022904106E0547FFFD1
:102DC000BF211C7F437E427D537C55900000E0F87C
:102DD000A3E0F9A3E0FAA3E0FBC312192F60077880
:102DE0008476027F82227B017A007904125A7778F6
:102DF0008512197F7B017A007908125A7778891237
:102E0000197F7A0079007E00123EA690000DE078CE
:102E100083F690000FE0306E3F6412602A7888E6F7
:102E2000B4051718E6B48F1218E6B4930D18E6B47B
:102E3000840890721C7402F0800690721C7407F073
:102E4000306504E4789BF6C26EE47899F678A1E6E2
:102E5000F5159090077401F0206C03022F0DA26409
:102E6000E433FF907218E0FEB4B0047D0180027D6F
:102E700000ED5F6023A25CE433FF7883E6FDB507D5
:102E80001220670F7402A805088002C333D8FCF52E
:102E90001D8037751D108032206115A262E4332435
:102EA00001FDE433FC7883E6FFB50511E4B5040DBC
:102EB000306305751D088012751D01800D7402A810
:102EC00007088002C333D8FCF51D306756205853DD
:102ED000205703305603305D273064117883E67045
:102EE000028025EE64B0603B751D0280367883E673
:102EF000FF7401A807088002C333D8FCF51D8023A6
:102F00003064207883E6601B751D0180167883E6A7
:102F10007008907208E0F51D8009751D04789CE624
:102F20004404F6E51D7899666005AF1D1250BF7F19
:102F30000222907218E064C060037F892220530649
:102F400012210A1263877B017A047900125A779062
:102F5000726C12198B7B017A047906125A7790727F
:102F60007812198B7B017A04790B125A7790727C54
:102F700012198B7B017A04790F125A7790727012B2
:102F8000198B7B017A047940125A778F0B8E0A8D48
:102F9000098C08900445E090720EF0900446E09091
:102FA000720FF0900444E06451704C9004FEE064B1
:102FB0004A7028A3E0644E7022FF78ADE6FEEFC3AE
:102FC0009E5014122271E0FCA3E0FDEF122255EC9A
:102FD000F0A3EDF00F80E3E4789CF6AF0BAE0AAD02
:102FE00009AC08EC4D4E4F600EAF0BAE0AAD09AC0C
:102FF0000890726812198BC262A2648267400F90B7
:10300000726C122120FFEC4D4E4F6002D262900490
:1030100004E0B45103D38001C3925C3067032064A1
:1030200006A25CA062925C907278122120FF1221AD
:10303000DC2FF50BEA3EF50AE93DF509E83CF50819
:103040002060099072701221201221B990726812CA
:103050002120C3950BFFEE950AFEED9509FDEC9539
:1030600008FC90727412198B30672130641E122193
:103070001DFF90726C1221DFFBC3EF9BFFEE9AFEE7
:10308000ED99FDEC98FC90727412198B7899E6FF1B
:103090001250BF7F0322C26DC26912240EE4F522D2
:1030A000E522C3789596501D122345126387E522C9
:1030B000122513A807FC7D017B017E027F00121AF6
:1030C000F5052280DB1224A11223451263879001AB
:1030D000FEE0B44A06A3E0644E60037F89229000BC
:1030E00000E090800AF030E00678A276408004E4A8
:1030F00078A2F67898E6B4800790800AE04480F0E1
:10310000900002E078ADF6900004E0F512A3E0F53F
:1031100013900006E078AEF6900008E0F5149000F9
:103120000A1223B790000C789F12244690000EE0FC
:10313000F510A3E0F5119001EAE0F50EA3E0F50F1C
:10314000900191E0909009F090019FE0B4510AD273
:10315000599080407401F08007C259E4908040F09B
:10316000E4909002F0900192E07004A3E0601D9062
:103170000010E05470909005F0900192E0FEA3E002
:10318000FF1249969090057490F0800690001012FE
:10319000250012253A900194E060031224949000D7
:1031A00011E0FF125CE69001A7E078A3F6E670025A
:1031B0007604D26D78007C717D017B017A01790003
:1031C0007E007FF0121AF590710312244490710F63
:1031D000E078A2F612347E907121E0B45102D269F7
:1031E00012C0007F03228F228515237895E6F515FE
:1031F00090800BE020E504E030E62B7B201223AE2C
:1032000012C00FE5227003023297E4908014F0128E
:10321000331C908005E030E0F97D017F017E0012D3
:10322000618E152280DDE52230E0037F89227B203C
:103230001223AE12C00FE4908014F08522241233C2
:103240001C908017E524F09080167480F090801612
:10325000E0540A60F8908016E030E12D90800BE099
:1032600030E1057522EE8007E4FF12414A8F22907B
:103270008017E0FFC3E5249FFFC3132400F582E419
:103280003450F583E522F080BE908016E020E0F90E
:10329000904104E020E1F990800BE0900000F09074
:1032A0008005E020E12D1263A0900001EEF0A3EF75
:1032B000F0908030E0900007F0908031E0900008BE
:1032C000F0908032E0900009F0908033E090000AA6
:1032D000F080189000017407F0A374FFF07E007F67
:1032E00004FD7B017A007907121A0D900003E508AE
:1032F000F0A3E509F0900005E50AF0A3E50BF090D6
:10330000000B74AAF0780C7C001224637E007F40CE
:103310001223421261408523157F0322FE7F40FD68
:103320007B017A507900121A0D125F8CE4908006AE
:10333000F0228F2290720AE0FF700302347AD39455
:103340004040047E408002AE07E4FFEFC39E503150
:1033500090720BE0FBA3E0FAA3E0F9907209E0FDA4
:103360007C00E92DF9EC3AFAEF29F9EC3AFA121758
:103370004FFD74402FF582E4340EF583EDF00F809D
:10338000CA7898E6FF20E606E52264026009EF307D
:10339000E615E522B40710900E567440F0E4A3F051
:1033A000900E5D74408014E522B40613900E4074B4
:1033B0000AF0A37406F0900E487401F0E4A3F0E55F
:1033C00022B40706900E417407F0E52264016006FE
:1033D000E52264067030306C1C907000E0B40D156E
:1033E000A3E0B40610A3E0B4050BA3E0B406069076
:1033F000700AE08001E4900E42F0900E437402F0F7
:10340000900E477440F0E5226401702B900E4AE064
:10341000B48006A3E06493600AD26C900E507403EB
:10342000F08007C26CE4900E50F0206D0A900E4AB6
:103430007434F0A37412F0E52264026005E522B44E
:103440000708907205E0900E48F0904103EEF0906E
:103450004102E020E1F9904102E054216005E0548E
:10346000FEF022904102E020E01390720AE0C39E39
:10347000F0907209E02EF0023334123EFC2290806C
:103480000AE030E105751802803C90800BE030E4E2
:1034900005751872803090800BE030E30575184890
:1034A000802490800BE030E702800790800BE030B2
:1034B000E605751880800F90800BE030E505E4F597
:1034C00018800375182E90800BE030E60575190200
:1034D000800F90800BE030E50575190180037519A8
:1034E0000478A2E654C060031224879071EEE030A5
:1034F000E348E47891F6A3E078B2F6E66018E47861
:10350000A4F678B2E6FB30E007122358E02FF0066D
:103510001224EAB408EC9071EDE078B2F6E660535C
:1035200078A4760878B2E6FB30E007122358E02F43
:10353000F0061224EAB410EC8039E478A4F6E5141D
:10354000C313FF78A4E6C39F5029AF187E00E6FBA3
:10355000FD7C00121795EB122380EEF0A3EFF078BC
:10356000A4E6FFE5198FF0A4FEEF122380E02EF011
:103570000680CB907195E0703C90800BE030E305C5
:1035800078B276262290800BE030E40578B2763E61
:103590002290800BE030E702800790800BE030E65D
:1035A0000578B276462290800BE078B230E503765B
:1035B0004622761622907195E078B2F6229000119C
:1035C000E0543FF5207521FF7522807899E664016B
:1035D000600302369490721CE020E00302369412DD
:1035E000640DEF604E900202E06048A3E0FF90029D
:1035F00002121F1A703D900202E02408F521E52016
:10360000B43F08A3E024F8F5228028121FBB64AA67
:103610006010121FBB652060091220702521F52162
:1036200080E9121FBB64AA6007122070F522800394
:103630007521FFE521B4FF097E007F80121ED58031
:103640004F900202E07E002400F9EE3402FA7B0182
:10365000C002C001122017D001D0027F08121AF553
:10366000AF227E007C0074002521F9EC3402FA7B45
:1036700001C002C00178087C007D01D001D0021297
:103680001AF5E5222406900001F074082522F5229F
:10369000AF228062E4900000F0A37406F0E4A3F08F
:1036A000789AE6FB54F960047F8080027F009000E6
:1036B00003EFF0A31219B000000000EB7899565404
:1036C00006600312208D20560330570C7899E6B41B
:1036D00001069000037480F0306C197899E6FF546D
:1036E000186011EF30E40790721CE020E3069000B0
:1036F000037480F07F08125376228F227E027F00AF
:103700007D001221B090040974F1F09072681221CA
:1037100020FF90040A12198B90040E7498F0A37481
:10372000EFF0A374F2F090726C122120FF9004115C
:1037300012198B90041574F3F0907270122120FF0F
:1037400090041612198B90041A74F4F09072781287
:103750002120FF90041B12198B90042074F5F09027
:10376000727C122120FF90042112198B9004257481
:10377000F6F012211DFF90042612198B90042A7472
:10378000F7F0E4A3F0A304F0789AE6541690042E20
:10379000F0A374F8F0A25FE433A3F0A374F9F090FF
:1037A000043312231374FBF0A255E433A3F0A37483
:1037B000FC12223BA25AE43390043FF0A260E433AF
:1037C000A3F0A25CE433A3F0907203E0900442F013
:1037D000A25EE433A31221F990048074E1F0900416
:1037E0008504F0E478A4F679A4E7C378AD96501781
:1037F00078A4E6FF122255E0FCA3E0FD122271EC52
:10380000F0A3EDF00680E0789AE69005FFF0E5225F
:10381000600612210A126140E4FF12C036EF601206
:10382000788912199700000000306C031222CE7FB5
:1038300003227F892209022000010100803209044D
:1038400000000208065000070501020002000705FB
:1038500082020002000C121E0422183A2862107222
:103860001C12010110000000408F0580930100012F
:1038700002000104030904180341006C0063006F97
:1038800000720020004D006900630072006F002884
:10389000034D006100730073002000530074006F3B
:1038A000007200610067006500200044006500763A
:1038B00000690063006500100336003900390030EC
:1038C0000046003000310047656E6572696320551F
:1038D000534220466C617368204469736B20203723
:1038E0002E373647656E6572696320555342205303
:1038F0004420526561646572202020312E303000F2
:103900000000000000000000AAAAAAAAAAAAAAAA67
:10391000EEEEEEEEEEEEEEEEFEFFFFFFFFFFFFFF40
:10392000FFFFFFFF7FBFDFEFF7FBFDFC7EBFDFEF99
:10393000F7FBFD7E050F0C000107100202000000DE
:103940001A033000350038004600360033003300DB
:1039500038003600330037003800E4F5207899E667
:10396000B4010A90721CE030E0037F8322900010C3
:10397000E05408131313541F900400F0900011E05A
:10398000543F900402F0900012E0900403F0900085
:1039900013E0900404F0900014E0900405F07E021F
:1039A0007F00121ED5E4900001F0789AE6FF54F9EA
:1039B00060047E8080027E00900002EEF0E4A3F0BE
:1039C0007520047899E6FE5F5406600312208D206E
:1039D0005603305707EEB4010312208D306C167871
:1039E00099E6FF5418600EEF30E40790721CE02057
:1039F000E30312208D306D11741A12207F74E0F0F1
:103A000012C01E1220F2600122900402E090000415
:103A1000F0900402E0604924F8601224C960182480
:103A2000237030900005740AF0740C80209000051B
:103A30007412F0741480169000047408F0A37412C9
:103A4000F0900018741CF0A3740AF074202520F57F
:103A500020800D9000057401F0E4A3F005200520FE
:103A6000E52014900000F0AF20125376221263CEAE
:103A70007899E66401702790721CE030E020AE0C6B
:103A8000780B121F51121EF47014121F5CE50DAE5C
:103A90000C7802C333CE33CED8F9F50D8E0C121F3D
:103AA000F5121EF460037F842212529B8F20EF30A8
:103AB000E70122121EE050037F8A22306C197899A8
:103AC000E6FF64016046EF20E30A30E40A90721CCE
:103AD000E020E3037F8722789AE6600F54066008AF
:103AE000799AE778995660037F8722907218E0648C
:103AF000B0702EA25C121FE080031220EBD8FBFFF7
:103B00007899E67C00B50719ECB50615E50D150D9D
:103B1000AE0C7002150C4E600512638780EE7F03B9
:103B200022122061121FC8125F2112C0068F20E5E9
:103B30002030E72D30E01C904102E030E00312001D
:103B4000AB904104E020E1EF305403121F7C75205C
:103B50000180037520037889121997000000008006
:103B600013121F4112197F752089E50D450C700451
:103B700078847601AF202220530612210A1263872F
:103B8000900408E06451701A90721CE054F7F090B1
:103B9000040CE0600790721CE04408F01222CE7F13
:103BA0000322C266C263C264C265C267C25AC25FF0
:103BB000C260C25EC261C25DC258C250C27090048F
:103BC00003E064516008900407E06451704590047C
:103BD00003E0B45102D264900407E064517053D200
:103BE00067900400E0B45102D25F90040EE0B4513B
:103BF00002D25E90040FE0B45102D260900413E050
:103C0000B45104D25D802B900414E064517023D22F
:103C100058801F900404E0B45104D26680149004CC
:103C200005E0B45104D2638009900406E0B4510267
:103C3000D26590040BE0B45102D25A900409E0B46A
:103C4000510DE4907202F090040AE0907203F0309B
:103C50005A047F0180027F00909001EFF0900412DF
:103C6000E0B45106A26772639261900415E0B4510A
:103C700002D250900416E0B45102D2707F03227F2A
:103C8000007D001223D89000027498F0A37401F014
:103C900078A8E6A3F008E6A3F008E6A3F008E6A3F8
:103CA000F0A3744AF0906000E493900009F09060F3
:103CB00001E49390000AF090900AE090000BF0A2CB
:103CC0006CE433A3F07898E6A3F0900010744AF007
:103CD000A3E515F0A251E433A3F0908007E0900033
:103CE00013F090900EE0900014F0906002E4939036
:103CF0000015F0906003E493900016F0900020749B
:103D00004FF09000307448F0900040744EF0908076
:103D10000BE0900100F0909013E0900101F078B476
:103D2000E6A3F0908009E0900103F0908011E0900C
:103D30000104F0909012E0900105F0908040E09036
:103D40000106F0A37401F090721CE0900108F0905D
:103D500090287401F0E4F000909029E0900110F0B8
:103D600090902AE0900111F090902BE0900112F0D9
:103D700090902CE0900113F07D017F017E00126194
:103D80008E7F032212529B8F20EF30E703023E7C8E
:103D90007E007F207D007B017A047900121A0D904D
:103DA000000FE0F521B42513900017E05401F5222F
:103DB00078047C041220CD7F04801190001DE05413
:103DC00001F52278007C041220CD7F0C121AF5E553
:103DD00022701D900400121FEAFFEC4D4E4F700D33
:103DE000900404121FEAFFEC4D4E4F60037F8422C3
:103DF0007899E66401703690721CE0FF5405FEBEAF
:103E0000010CEF4404F090721DE0700204F0305E8B
:103E10001C90721CE030E0151220D8900000121F98
:103E20002E9000041219B000000800802AE521B489
:103E30002529788D121966EF24FFFFEE34FFFEED81
:103E400034FFFDEC34FFFC90000012198B9000044D
:103E50001219B0000002007F08801E7E007F201231
:103E60001ED5788D121966900004121F2E9000083E
:103E70001219B0000002007F20025376AF2022907A
:103E80000E45E0900074F0900E46E0900075F090C2
:103E90000E47E0900076F02290726CE0FCA3E0FD0B
:103EA000A3E0FEA3E0229044007400F0A37400F0AD
:103EB0002278407C0E7D017B017A0E79007E007FA6
:103EC00008121AF5904102E054FEF022F0904102EF
:103ED000E04441F02290720B74FFF0A37438F0A319
:103EE0007455F022851521907105E0F51590720644
:103EF000E0FEA3E0FFC394FFEE940722904102E0AE
:103F00004451F0227A04790090720B7401F0A322DC
:103F10007881E654EAF6904101E0442AF0E054EA60
:103F200022900E45E0900075F0900E46E0900076ED
:103F3000F022A3F0E4907209F022E493907209F069
:103F400022FF2FFFEE33FEED33FDEC3322E49041F0
:103F500004F07880760122904106F0E4904105F06B
:103F600022D253900E44E0229072207403F0228FEC
:103F70001DE478A4F6908016E020E0F9904104E07A
:103F800020E1F912214F9000001219B0555342530D
:103F90007B007A007985125A7790000412198BE41D
:103FA00090000CF090000BF090000AF0900009F0E7
:103FB000900008F01222C0904104E030E10A9041E4
:103FC00002E030E0F27F0022C25412214FE490411F
:103FD00004F0E51D7002FF22C28CC28DE4F58CF561
:103FE0008AD28C904107E054BFF0907202E04440C6
:103FF000F0904104E020E010904102E030E0037FC7
:104000000022308DEC7F002290000FE0701678A423
:10401000E6C39401500E12230B700978A4061240D7
:104020004E023F83122224702290000FE0651D7023
:104030001A12230B7015908016F012404E12214F69
:10404000122162789112197F7F01227F00227B0169
:104050007A007904125A77788512197F22AD079079
:104060004104E020E1F9ED247FB40F004003024158
:104070002290407F75F003A4C58325F0C5837302A9
:1040800040AC0240B20240BA0240F30240C20240D9
:10409000C90240D00240DA0240E10240EC0240FA9C
:1040A00002412202410502410F024116121F967F72
:1040B0000522122094762602411E122094762002B8
:1040C000411E12209B763A80551221037628804E9D
:1040D0007895760778967627804412209B76048020
:1040E0000512209B76FF789776FF80361220947613
:1040F00021802B1220947624802412209B76047831
:10410000977601801D121F961221037629800F12C7
:104110002103762980087895760378967611E478DD
:1041200097F67884E6FCB40207121F967D07801785
:10413000ECB40311904101E04404F07881E64404BA
:10414000F67D0680027D04AF052278B4E6601F90FC
:10415000800BE030E1037FEE22908010E0FC908045
:104160000F7401F090800FE030E0F9AF0422E4908A
:10417000800CF090800BE030E1037FEE2290800D08
:10418000E0F9908010E0D378B39640037FEE229060
:104190008006E0543025E0FCAF0119EF607090809C
:1041A0000CE0FD908020E0FE908021E0FBEEF52504
:1041B000EBF526D394FFE52594034015E5269404FA
:1041C000E5259404500B74302526F582E434808074
:1041D00036C3E5269404E52594045032EC6016C3FA
:1041E000E52594024004EC20E6AEC3E52594025098
:1041F00004EC20E5A3908013E0FEE42526F526EEEE
:104200003525F525852682F583E06DF0808A90803E
:1042100010E0FF22909000E030E2037F00229090B7
:1042200012E030E0037F0022909030E020E0037F36
:104230000022120875EF7002FF2212C039E4F51552
:10424000E515C378AD965026E51525E024C2F58224
:10425000E43472F583E0FEA3E0789FA60608F6E654
:104260001846600678A1A6158004051580D29090A6
:104270000AE020E707909000E030E411909016E00B
:1042800020E50AE030E20312C0247F01229090165C
:10429000E020E03378ADE62401FFE433FEEF25E0D3
:1042A000FFEE33FE7DFF7B017A727980121A0D7862
:1042B000ADE675F002A4FFAEF07DFF7B017A727966
:1042C000A2121A0D12581A907120E0645160031264
:1042D000C0547F012290714CE0B45106A3E0FF125C
:1042E0005C6F907012E078A2F690800AE0FF907008
:1042F00013E0FEEF4E90800AF09071F0E0F510A30D
:10430000E0F5119071EAE0F50EA3E0F50F9071F27F
:10431000E078ADF69071F4E0F512A3E0F51390713A
:10432000F6E078AEF69071F8E0F5149071FA122389
:10433000B79071FC789F1223B99071FE12244490BB
:104340007191E0909009F09071A7E078A3F6E67083
:104350000276049071A9E0FF125CE6907194E0602F
:104360000312249412240E7E707F147B107D501251
:104370002548EF7002FF2278007CA01224637E2083
:104380007F00121AF51224A19071A8E0FF125CE6DA
:104390007F01228F258D2690801AE0F50BE50B30EA
:1043A000E426306D07E4FF12C0578021530BEF90D5
:1043B0008007E0F527E4F090801AF0908007E52769
:1043C000F07F961263248005E490801AF0125F8CCF
:1043D00012243D125F8C9080007490F0908001E573
:1043E00026F0000000000000000000000000E4F5DE
:1043F000279080047401F0908002E0FDE525FEE541
:10440000277A002400FFEA3E8F82F583EDF090804A
:104410000AE030E01B908003E0FDE525FEE527245F
:1044200000FFEA3EFE74082FF582E43EF583EDF0CE
:104430000527E527B406BA306D0AE50B30E4057FA1
:104440000102C05790801AE50BF022905000E06402
:104450009960030244FFA3E0640760030244FF90F5
:104460005003E0FF905002E02F2432FFE4FEFDED08
:10447000C39F501074002DF582E43450F583E02E74
:10448000FE0D80EB74002FF582E43450F583E06E6E
:10449000706DD26B306B2390507DE0F4FF90507CB8
:1044A000E0B50716E0D394FA400890720574FAF06C
:1044B000800890507CE0907205F090507EE0643C63
:1044C000703DA3E064C37037905081E06403702FA7
:1044D000FEFD905080E0FFEDC39F501074802DF5DD
:1044E00082E43450F583E02EFE0D80E6905080E0AB
:1044F0002480F582E43450F583E0B50602D26A22C6
:104500008F221221F01222D550148515231222DC9D
:10451000AD227C007B1212C00F852315800312216F
:10452000AA907219E0900400F090721BE0900401D0
:10453000F0907218E0900402F090721AE0FB900480
:1045400003F0A374C0F0A25BE43325E0FE789AE6A2
:10455000FD54012E900408F090047EEDF0E6540620
:10456000FFBF0604E04440F0E522B4020A9072184E
:10457000E0900480F0800AE522B40305900480EB0B
:10458000F0205F0E909000E030E307E4900481F0AB
:1045900080069004817401F090048274EFF0A3749B
:1045A00001F020530612210A1261407F032290720B
:1045B000057432F0E4789AF60876FF08F6907208EF
:1045C0007480F0C251C26CC26BC26AC264C267C25C
:1045D00062C255C266C263C265C26178B37648C220
:1045E0005AC25FC260C250C270C258C25EC25DC2CF
:1045F0005C9072681219B00000000090726C121981
:10460000B0000000009072701219B000000000901D
:1046100072741219B0000000009072781219B00084
:1046200000000090727C1219B0000000009072032C
:104630007450F0E4789AF690721874C0F090721A80
:10464000F0E4907219F090721BF0125DFF1262524A
:1046500090725FF0909016E04438F022F58374FF7A
:10466000F0A3F0EF25E025E02439F582E43473F57A
:1046700083E075F00AA42290800AE054EEF0909056
:1046800002E054FEF09090057431F0909002E04406
:1046900001F09080147450F0908022F09080237488
:1046A00005F090801722E4908023F090800AE0FFCC
:1046B000907013E05410FEEF4E90800AF078A2E65E
:1046C00054C02224EEF582E43472F583E4F0A3F0C2
:1046D000227E007DFF7B01021A0D909002E04401D2
:1046E000F0E4908023F0227E007F04021AF590907F
:1046F00002E054FEF0907192E02290700CE04401D0
:10470000909005F022124D0E904102E030E003122D
:1047100000AB7880E6B40118904104E030E011125B
:104720002DB97880EFF6BF0207122A9C7880A60781
:104730007880E6FF64036004EFB4040512522A8017
:10474000C77880E6B4050B904101E020E4047603CD
:10475000801D7880E6FFB40607904101E030E20B4F
:10476000EFB4070B904101E020E4047880760478F0
:1047700080E6FF30E70712405D7880A607306F09BA
:10478000C26F904107E04401F0306D09903C5074D5
:10479000EDF012C01E904107E020E40A909017E06F
:1047A00020E603024708124FBD0247087898E6301A
:1047B000E6047F0080027F80904104EFF08515229F
:1047C0001223A712C00FE4908014F074021225087F
:1047D00090800BE030E6071223C28D23800A12235B
:1047E000C2ECC313ED13F523E5188523F0A485F07F
:1047F00024F525E5198523F0A425192524F5249011
:104800008016E020E0F97898E630E6047F00800228
:104810007F80904104EFF0904104E030E0F9908017
:1048200040E054FEF0748512245BE525F0E524F0A9
:104830009080067484F0908005E030E0F99080006C
:104840007410F012246CE4908014F08522157F031C
:10485000222065037F8222900013E0641060037FB2
:1048600084227A047900122112E4904104F09041EC
:1048700004E030E0F978847601789AE630E0037F4E
:104880008722E4F521122281E070270521E521B479
:1048900010F31221F07B607D077C0012C00F905056
:1048A00080E0B4AA0AA3E0B455051221AA80357F9E
:1048B000032290048074AAF0A37455F0900400E0E1
:1048C000F522E4F521122281C083C082E0FFE521B8
:1048D000FDE5221222F3EF6ED082D083F00521E5B0
:1048E00021B410E17F0712C036EF6005C25B7F0381
:1048F000227F89222065037F8222900013E06410CA
:1049000060037F84227A0279007E027F0090440057
:104910007402F0A37400F012638778847601305B30
:10492000037F87221221F01222D5506785152112AC
:1049300022DC7B107D077C0012C00F8521159002C0
:1049400000E0FFE4F521E521FDEF1222F3740025DC
:10495000211222E3E06EFE74002521F582E434008A
:10496000F583E06E6017D25B789AE64401F69072A8
:104970001074A5F0907211745AF07F87220521E51A
:1049800021B410C2E4907210F0907211F0789AE69F
:1049900054FEF67F03228E248F25E4FD79FFFCEC84
:1049A00064027003024A36909003EDF0909004E99F
:1049B000F090900B7401F090900BE030E0F9909043
:1049C0000CE0FE90900DE0FBEEF526EBF5279090C5
:1049D0000CE0B52506E4B524027C02EC1460250445
:1049E00070BDC3E5279525E5269524500DE9700493
:1049F0007C0180ABE925E0F980A5ED25E04401FDCF
:104A00007C01809BD3E5279525E5269524400FBDA5
:104A1000FF047C028089ED25E04401FD80817C0259
:104A2000E52765257004E5266524700302499FED9E
:104A3000C313FD02499F22900010E05402F520E4C8
:104A40007F01FEFDFC7889121EF470037F842290A2
:104A50000011E020E107900018E030E73E12640DFD
:104A6000EF602F900200E06029A3E0900200121F87
:104A700019701F900201E0900200122007C002C0CE
:104A800001122017D001D002121AF5900201E0FFA6
:104A900080327F30121ED37F308029121ED19000C9
:104AA000027401F0A3F09000057414F0A37401F0F7
:104AB000E52025E025E0240A900001F090000AE5B9
:104AC00020F07F14125376788912199700000000A5
:104AD0007F0322AB07EB75F00C84FAEB75F00C84C6
:104AE000ABF0EA700E90627F93C313FE74019313D0
:104AF000FF800A12247AE493FE740193FF7C007D08
:104B0000031217957D181217A7EF4401FF907356F3
:104B1000EEF0A3EFF0EBFF7E00907356E0FCA3E015
:104B2000FD12179512247A7401932FFFE4933EFE31
:104B3000EA7C002FFFEC3E907358F0A3EFF0EB906F
:104B40006291932AF50B907358E0C394204009E5D5
:104B50000B75F0C08485F00B907359E0F50A9073E3
:104B600058E0F50922206A037F0322205306122110
:104B70000A1263878515221221EA7B117D017C00D0
:104B800012C00F852215E4F522E52225E0FFE4336B
:104B9000FE74822FF58274023EF583E0FF740025D7
:104BA000221222E3EFF00522E522B408DCE4FFF54F
:104BB00022E522540724001222E3E0FE740025229D
:104BC000122285E06E2FFF0522E522B440E3EF704C
:104BD00021900440E0789A30E40DE64410F690907D
:104BE00016E054FDF0800BE654EFF6909016E0448A
:104BF00002F07F03228F22E522B40209907219E0AD
:104C0000D39402500EE522B4030C90721BE0D394AF
:104C10000240037F892220530612210A12638785EE
:104C200015231221EAAD227C007B1112C00F8523CF
:104C30001512544FE52264027024BFB00F90721811
:104C4000E0B4B008907219E004F08005E4907219A5
:104C5000F0907218EFF0306C261222CE8021E522FF
:104C6000B4031CBFB00F90721AE0B4B00890721B6E
:104C7000E004F08005E490721BF090721AEFF07F70
:104C800003228F2290800BE020E504E030E63B8594
:104C900015231223A712C00FE522606612234D7858
:104CA00098E65480904104F0904104E030E0F97AB5
:104CB0000079009080147400F090800674E0F09009
:104CC0008005E030E0F9152280CEE52230E0037F58
:104CD00089228515237895E6F5157898E630E6045F
:104CE0007F0080027F80904104EFF01223AC12C05D
:104CF0000FE4908014F0E522122508908016E02041
:104D0000E0F99080007410F08523157F0322E49071
:104D10004104F0904200E054037013904107E020FA
:104D2000E407909017E030E6EA124FBD80E590422C
:104D300000E0789830E00476408009768090800A20
:104D4000E04480F0306C09903C5074D0F012C01EEA
:104D5000E47881F6907204F090900AE020E73690B3
:104D60009000E020E42F904104E0FF904102E04FEA
:104D700020E013904107E020E407909017E030E630
:104D8000E5124FBD80E01261D4E4909010F0909055
:104D900016E04401F07880760122C299ED30E612E7
:104DA00075990D3099FDC29975990A3099FDC2998E
:104DB00080087599203099FDC299ED30E01BEF75A0
:104DC000F00A842430F5993099FDC299EF75F00A04
:104DD00084E5F02430F5998032EF54F0C4540FFE8E
:104DE000D39409400674372EFE800474302EFE8E54
:104DF00099EF540FFED39409400674372EFE8004B9
:104E000074302EFE3099FDC2998E993099FDC29969
:104E1000ED30E71075990D3099FDC29975990A30FA
:104E200099FDC29922E4907221F0A3F0907221E0E2
:104E3000FCA3E0FDC3EC9402505D904102E05421DC
:104E4000600BE054FEF09072207404805C9041028C
:104E5000E030E0079072207402804E74002DF974E7
:104E6000043CFA7B01C002C00178407C0E7D01D079
:104E700001D0027E007F40121AF59041037440F089
:104E8000904102E020E1F9907222E02440F090721B
:104E900021E03400F08095123EFCE4907220F01284
:104EA0006039EF700890722004F07F00227F0122A9
:104EB0007895E6F51512C015E5094508601EE50B65
:104EC0007F0025E0FEE509FA79007B01C002C00100
:104ED00078007C287D01D001D002801D78107C35BF
:104EE0007A7279E67F7012241878807C357D017B98
:104EF000017A73798C7E007F38121AF5E47895F682
:104F00007895E6FFC39407502BEF7F0025E0FEEF76
:104F10002400F974283EFA7B01C002C00178007CAD
:104F2000007D01D001D0027E02122342126140783E
:104F3000950680CC7F03228515227895E6F5157BB2
:104F4000201223AE12C00FE4908014F0125F8CE4A4
:104F5000908006F090800BE030E6071223C28D238C
:104F6000800A1223C2ECC313ED13F523E518852341
:104F7000F0A485F024F525E5198523F0A42519254D
:104F800024F524908005E030E0F912614012614080
:104F9000908040E054FEF0740512245BE525F0E5B6
:104FA000241224CB9080067404F0908005E030E059
:104FB000F912246C1261408522157F032290900221
:104FC000E0FF907203E054604480F4FEEF5E909046
:104FD00002F09090017401F090801CE0540FFFBF2C
:104FE0000FF6306D0312C01EE4908007F090410769
:104FF000E04420F000000000000000000000306DE0
:105000000312C01E904107E054DFF0904200E054CC
:105010000360F8904200E030E0117898E6B4800533
:10502000E4904100F078987640800478987680E4A7
:10503000909001F09080077440F07F967E0012639C
:1050400024228D21E4FEF522908014E0F523E4F57E
:1050500024EF30E003432410EF5401FDC3EF9DFF24
:10506000125F8CAA07EAC39521504BEAC39410EA59
:10507000500625E02450800425E02440908014F060
:10508000C3E5219AFFBF0103432420908006E52455
:10509000F0908005E030E0F990800BE05403600F61
:1050A000E4FF12414AAE07EED3952240028E22E47D
:1050B000F5240A0A80AF908014E523F0AF2222780D
:1050C00099A607EF14604614601524FE601E24FCA8
:1050D000604424F8604C2490706090726880313095
:1050E000620590726C8003907274802490726CE000
:1050F000F8A3E0F9A3E0FAA3E0FB907274123E9BE0
:10510000C39BFFEE9AFEED99FDEC988012907270B1
:10511000123E9BFF801F907270123E9B123F41FC1B
:105120008013306706123E98FF800A907270123E1C
:105130009B123F41FC788D12197F229073FFE06033
:1051400074E014F0E024F8F582E43473F583E0FFB2
:105150006054AE811581A806E6FE74E12FF8A6061C
:10516000AE81A806E6FE74E02FF8A6067581E0AED3
:10517000071FEE602F9073FEE0FE9073FCE0FCA32F
:10518000E02EF582E43CF583E58224FFF582E58399
:1051900034FFF583E0AD810581A805F69073FEE04C
:1051A00014F080CB05819073FFE024F8F582E4349D
:1051B00073F583E4F022E4907200F0907204F078CA
:1051C00095F608F608F6D26EC26FC254C253C252A8
:1051D000907220F0A3F0A3F0C256C257907210E074
:1051E000B4A50FA3E0B45A0A789AE64401F6D25B5C
:1051F0008002C25BE4907202F090721CF0A3F0781F
:10520000807601903C5074FFF0E4908036F0A374F7
:10521000FFF0E49073FEF0FE7F04FD7B017A73796A
:10522000F8121A0DE49073FFF022908016E020E04F
:10523000F9904104E020E1F97A0079007E007F00D6
:10524000123EA69000001219B0555342537B007ACB
:10525000007985125A7790000412198B7B007A002E
:105260007989125A7790000812198B7880E6B40376
:10527000047F0080027F0190000CEFF0740D123F5C
:1052800057904104E030E10C904102E030E0F2122E
:1052900000AB80ED123EA6123F4D2230702190727D
:1052A00018E0B4B01A121FDD80031220EBD8FBFF08
:1052B0007899E67C00B50707ECB506037F85227870
:1052C00099E6FF789BE6FE5F6005EFF45E80337938
:1052D0009CE778995660037F8522205F2990900093
:1052E000E030E310789AE620E71C4480F6789BE6ED
:1052F00044F6800E789AE630E70C547FF6789BE609
:1053000044F6F67F86227F0022900010E0F521A36C
:10531000E0FF1313543FF522E05403F508A3E0F532
:1053200009A3E0F50BA3E0F50AE5216409702BE57C
:105330000B6407450A60391221F01222D5501485FA
:1053400015221222DC7B10AD0BAC0A12C00F852295
:1053500015801D7DFF1222AA801685152185221534
:105360007B10AD0BAC0AAF09AE0812C00F8521153A
:105370001261407F03228F23E47F01FEFDFC7889C8
:10538000121EF470037F8422AF23E4FCFDFE122082
:10539000E24031904106E523F0E4904105F0904170
:1053A00004E020E1F97889305602802D121966C098
:1053B00007AF23AB07D007C3EF9BFFEE940012208B
:1053C000447F0322788CE6904106F0E4904105F09A
:1053D000904104E020E1F97889121997000000005B
:1053E0007F03221263CE12217E9072781221DFFB9E
:1053F000C312192F50037F8A2290727C122120122F
:10540000229D400A90721AE0B4B0037F89221221D3
:105410001D1221CD1222612060099072701221208C
:105420001221B912C006AB07EB30E71378891219C5
:105430009700000000EB30E0037F01227F0322127F
:10544000212BE50D450C7004788476017F8922902C
:105450000280E0B4FF08A3E0B4FF037FC022900401
:1054600080E0F9A3E0FF900280E0FEA3E0FDEF6D95
:105470007040FDEDC39F503D74822DF582E43404ED
:10548000F583E0FC74822DF582E43402F583E0FBC1
:105490001223248002C333D8FC59620412232480CF
:1054A00002C333D8FC5E6203EC6B60037FB0220D55
:1054B00080C17FB0227FA022AD07126039EF700655
:1054C000907220048051904102E030E506E054FEE5
:1054D000F080E7904103E0540FFFBF0807904102BE
:1054E000E020E711123EC4904101E04401F09072C7
:1054F0002074028022900E03E0B40316900E02E0A6
:10550000B5050F900E01E0B40608900E00E064802F
:1055100060099072207402F07F0022123EB17F0178
:105520002212529BEF70607899E664017056907277
:105530001CE0FE54036401704BEE30E22390721DB8
:10554000E0FEB401067402F07F8522EE640270343E
:1055500090721D7403F090721CE04402F07F86226A
:1055600030600A90721CE04402F07F032290721DAA
:10557000E004F0E0D39406400BE4F0789BE64401AD
:10558000F67F85227F03222212529B8F20EF20E795
:105590005A121ED19000037410F09000087402F0AB
:1055A00090000AF0900012F07899E66401702130C2
:1055B0005E1E90721CE030E0179000037408F090BB
:1055C000000AF01220D890000412198B7F0C80186A
:1055D000788D12196690000412198B788D12196655
:1055E00090000C12198B7F14025376AF202290800A
:1055F00007E0F52290800AE0F5231260ED7E027F3D
:10560000007D001223DA90800A7401F0E4F524E5AD
:105610002412631A7895E6FD7F6E124393E5247594
:10562000F010A42400F9740035F0A801FC7A6E791A
:10563000007F101224180524E524C3940840D0905C
:105640008007E522F090800AE523F01261407F0395
:10565000221263CE12217E9072781221DFFBC312D8
:10566000192F50037F8A2290727C12212012229DD2
:10567000400A90721AE0B4B0037F892212211D12F1
:1056800021CD122261206009907270122120122116
:10569000B912C003AB07EB30E713788912199700F2
:1056A000000000EB30E0037F01227F032212212B58
:1056B0007F89228F1DEF75F004A42436F9747335A9
:1056C000F0FA7B01C002C00178E27C727D01D0015A
:1056D000D0021246E7851D1EE51E602775F004A462
:1056E000FFAEF02432F974733EFA7B01C0017436C8
:1056F0002FF974733EA801FC7D01D0011246E71515
:105700001E80D578367C737D017B017A7279E21236
:1057100046E722900010E07004A3E064027042901B
:105720000011E0FEA3E0FF7038EE703512640DEF5B
:10573000602F900204E06029A3E0900204121F1978
:10574000701F900205E0900204122007C002C00101
:10575000122017D001D002121AF5900205E0FF8046
:10576000097E007F40121ED57F4012537622EF251E
:10577000E025E02436F582E43473F58374FFF0A36A
:10578000F0EF25E025E02438F582E43473F58374E6
:10579000FFF012466324E6F582E43472F583E412E6
:1057A000466024E8F582E4347212465C24EAF5820D
:1057B000E4347212465C24ECF582E4347212465CE6
:1057C0001246C322905E1CE493FF905E1BE4934F4D
:1057D000FF905E1DE4934FFFA3E4934F908007F08A
:1057E00090800074A3F090800174ACF07401F074A8
:1057F000FBF07450F0747CF07454F0743BF074FE61
:10580000F090800274EEF0F07462F09080007419F1
:10581000F0E4F0125F8C12243D227F207A737936F7
:105820001246D17F507A7279E61246D17E007F38D7
:105830007DFF7B017A73798C121A0DE4F516E5165B
:1058400025E025E02439F582E43473F583E516F08C
:105850001246641246C3E51612466424E6F582E455
:1058600034721246CA0516E516B408D2227880E6CC
:1058700064017048904107E030E641907202E0FF19
:10588000603A907203E0FE541FFDC3EF9D907202D8
:10589000F06008904107E054BFF022909002E0FFD2
:1058A000EE54604480F4FEEF5EF0305A047F0180D5
:1058B000027F00907201EFF0909001F022EF20E75C
:1058C0000890DFFCE4936F604212C027EF4E70082F
:1058D0009090107404F080FE1246777408F0908067
:1058E0001674C0F0908016E020E0F91246A660041D
:1058F000E04401F01246EE7004A3E06008909005C9
:105900007490F080031246FA1246DA22EF0475F022
:1059100004A414251BF582F584851A83851A85E075
:10592000F5F01582E0FC1582E0FD1582E0FF15829E
:10593000E00586F0158615821584E582B51BF1E039
:105940000586F01584E5F0F01584ECF01584EDF093
:105950001584EFF0158622E4FF22E58124FED3941E
:10596000E04042E5812421FF1F1F9073FFE024F8EF
:10597000F582E43473F583EFF09073FF8022EF60DB
:10598000241F74E02FF8E6FE9073FEE0FD9073FC98
:10599000E0FAA3E02DF582E43AF583EEF09073FE91
:1059A000E004F080D9221263CE900015E0FF12507F
:1059B000BF12217E788D12223450037F8A22125F1B
:1059C0002112C006AB07EB30E71378891219970054
:1059D000000000EB30E0037F01227F032212212B25
:1059E000E50D450C7004788476017F892212640DE0
:1059F000EF6032900300E0602CA3E09003001220DF
:105A000052121F27701F900301E090030012201E06
:105A1000C002C001122017D001D002121AF5900363
:105A200001E0FF80097E007F22121ED57F221253E3
:105A3000762212640DEF6032900302E0602CA3E046
:105A4000900302122052121F27701F900303E09050
:105A5000030212201EC002C001122017D001D00282
:105A6000121AF5900303E0FF80097E007F24121EC6
:105A7000D57F2412537622EB700CE7FF09E7FE096D
:105A8000E7FD09E7FC2214701089828A83E0FFA3F6
:105A9000E0FEA3E0FDA3E0FC22BBFE0CE3FF09E374
:105AA000FE09E3FD09E3FC2289828A83E493FF7403
:105AB0000193FE740293FD740393FC228E1D8F1ECE
:105AC0008C1F8D209080157455F074AAF0EB4A60FD
:105AD00025852082851F83E0851E82851D83F00534
