:020000020000FC
:10000000025DCD0207920207AB0207D80207EA029F
:10001000083F0208CA02095C02096D020980020950
:100020009302099F0209AC0209B80209C40209DD62
:10003000020A0E020A34020B1C0200000200000237
:10004000581202554F02512E02594D023C4902519D
:10005000DA0200000245B202550A022B6602576B13
:10006000024D78025ADA0252CD02186A025D0A0283
:100070005D21025AFF024E4202474C023F68904106
:1000800002E030E505E054FEF022904103E0540F19
:10009000FFBF0807904102E020E706123B9F0207DE
:1000A00080123B8C900E41E02402605214603114A7
:1000B000B40B0040030207809000BFF828287302A9
:1000C00001270201AA02078002022F020780020311
:1000D0000B02032B02078002072202072C02076B88
:1000E000900E40E064217013900E44E0700D123BBE
:1000F000F6123BA7123B81123C2722020780900E8A
:1001000040E064A1701E306104F0020779A263E44C
:1001100033FFA262E4332FFFA267E4332F900E4037
:10012000F0020779020780900E40E0247F601014EF
:10013000601E2402706A903E00E0900E408058904D
:100140000E44E07008900E40F0A3F0805602078045
:10015000900E44E014601E2481600824FE60282470
:1001600082703A7881E630E0047F0180027F00905F
:100170000E40EF80227881E630E2047F0180027F2A
:1001800000900E40EF80107881E630E4047F01801B
:10019000027F00900E40EFF0E4A3F080060207809B
:1001A0000207809041037402F022900E40E0701923
:1001B000900E42E0B4010F903E00E054FDF09041FB
:1001C00007E054FBF022020780900E40E0640270CA
:1001D0005B900E42E07052900E44E0146020248147
:1001E000600824FE602C2482703C7881E654FEF680
:1001F000904101E04402F0E054FEF00203077881F0
:10020000E654FBF6904101E04408F0E054FBF002B4
:1002100003077881E654EFF6904101E04420F0E0D6
:1002200054EFF00203070207800207800207809064
:100230000E40E060030202B7900E42E06402707468
:10024000900E44E0706EA3E0606AE0C394055061D4
:10025000123BA8904102E0544170F8900E45E02412
:10026000FE601214601714601C2403704290420157
:100270007483F0803A9042017485F080329042019C
:100280007407F0802A78007C007D017BFF7A3B793F
:10029000337E007F35120B1C904104E020E1F912FF
:1002A0003B817435123C319042017409F080E98041
:1002B000FE020780020780900E40E06402704590C5
:1002C0000E42E0703C900E44E014601424816008FB
:1002D00024FE601B248270267881E64401F6802784
:1002E0007881E64404F6904101E04404F0801878F7
:1002F00081E64410F6904101E04410F080090207C5
:1003000080020780020780123BA822123BA890417E
:1003100002E0544170F8900E42E0904100F09041AC
:1003200007E054FDF0E4903E04F022900E43E024F8
:10033000FE606314607824FD600A1460592406602E
:10034000030206F2306B15123BCA500B7B101207EA
:10035000887006C26B8002C26B851F13306B117AE6
:10036000007900123BEE123B84903E097404800B2E
:10037000123BB0903AA5E493903E09F0903E0A7487
:1003800012F0900E43E0640660030206F5903E0A08
:10039000740AF00206F5903E0B74FFF0A3743AF075
:1003A0007485123C1F903E0A7420F00206F5306BF3
:1003B00015123BCA500B7B121207887006C26B8065
:1003C00002C26B851F13306B0C123BEA7404F0A35E
:1003D0007400F08003123BB0900E42E0120A0E034C
:1003E000FE00040C01042502044203047104049F6E
:1003F0008004F182057E8306DC86000006EF123B56
:10040000B0903AA7123C18903AA8805C306B0B90E1
:100410003E097416F0900402803D903AA9123C18EF
:10042000903AAA8043306B0F900402E02416903E6D
:1004300009F09004038020903AAB123C18903AAC3B
:100440008026306A1A7A047980123BEE7404F074C4
:1004500080123C1F900480E0903E0AF00206F59066
:100460003AAD123C18903AAEE493903E0AF0020680
:10047000F59004007404F0A314F0903E0FE0900493
:1004800002F0903E0EE0900403F0123BEA7404F098
:10049000A37400123C20903E0A7404F00206F51288
:1004A0003C3B248E601424FD601724DB601A241862
:1004B0007020123B6812568280117F02125C2E80DF
:1004C0000A7F02124017800312253F903E20EFF072
:1004D000800912463DC253123C4222C253903E2034
:1004E000E0B4030302463D12463D903E207405F001
:1004F00022123C3B248D605024F0604324ED605E6A
:1005000024FB604C24A3606724FE605A24D060035F
:100510000206B1900E47E030E1127E027F007D00BE
:100520007B017A047900120A3402062E900E45E00F
:10053000903E24F0900E46E0903E23F00206821298
:100540003B681258B10206AA7F021256080206AA98
:10055000900E45E0900401F01257DB0206AAE4FF7A
:10056000122F720206AA123C0712558D0206AA909B
:1005700000747451F0123C07125B8E0206AA123B03
:10058000E2E4903E21F0A3F0C3903E21E0940250BB
:10059000447F84124CA8EF603C900E45E0FF903EF3
:1005A00021E0FCA3E0FD2400F58274043CF583EF18
:1005B000F0900E44E0FF74012DF58274043CF58345
:1005C000EFF0125C4C903E22E02402F0903E21E0DD
:1005D0003400F080B3C3903E21E094025003020740
:1005E000877F85124CA8EF700302078712463DEF04
:1005F00070030207877F81124CA8EF700302078700
:10060000123C3B248F700302068F24FD7003020608
:100610009624F3607224E8700302069D24FC7003A4
:100620000206A724A8607B24CB60030206B1900ECB
:1006300045E05407F508A3E0F509903E24E0F50AEB
:10064000903E23E0F50BE4F50C900E45E054F0F5F8
:100650000DE030E319903E6C123BBF250BF50BEE1D
:10066000350AF50AED3509F509EC3508F508E50D0B
:100670007003750D01903E207480F012C006EF30BB
:10068000E734123C42802F123B68125A8E801B7F47
:10069000021255CB80147F02124525800D1230AD19
:1006A0008008123D298003124491903E20EFF08093
:1006B00005123C428012903E20E0B403047F00808B
:1006C000027F05903E20EFF0C253123BE21259E048
:1006D000EF6003020787903E2004F022903E20E066
:1006E000900E40F0E4903E20F090410304F022028E
:1006F0000780020780900E47E07015900E46E0FFDD
:10070000903E0AE0D39F4008900E46E0903E0AF0EB
:10071000903E0AE07004123BE222900E43E0FF029A
:10072000343E903E04E0900E40F0804D123BF6F0D7
:10073000900E42E0B4011A903E047401F09041071B
:10074000E04402123BA7E4909001F090900704F07F
:1007500022900E42E07012903E04F0904107E05467
:10076000FD123BA790900180138015900E44E0701D
:1007700006900E40F0800280079041037401F02241
:10078000904101E04401F0227D017C0012C00FEF96
:100790004E22BB010689828A83E0225002E722BBF7
:1007A000FE02E32289828A83E49322BB010CE58264
:1007B00029F582E5833AF583E0225006E92582F89F
:1007C000E622BBFE06E92582F8E222E58229F582CF
:1007D000E5833AF583E49322EF8DF0A4A8F0CF8C63
:1007E000F0A428CE8DF0A42EFE22BC000BBE002962
:1007F000EF8DF084FFADF022E4CCF875F008EF2F18
:10080000FFEE33FEEC33FCEE9DEC984005FCEE9DD4
:10081000FE0FD5F0E9E4CEFD22EDF8F5F0EE8420F0
:10082000D21CFEADF075F008EF2FFFED33FD400751
:10083000985006D5F0F222C398FD0FD5F0EA22E8D1
:100840008FF0A4CC8BF0A42CFCE98EF0A42CFC8AB5
:10085000F0EDA42CFCEA8EF0A4CDA8F08BF0A42D32
:10086000CC3825F0FDE98FF0A42CCD35F0FCEB8ED3
:10087000F0A4FEA9F0EB8FF0A4CFC5F02ECD39FE89
:10088000E43CFCEAA42DCE35F0FDE43CFC2275F0FE
:1008900008758200EF2FFFEE33FECD33CDCC33CC85
:1008A000C58233C5829BED9AEC99E58298400CF5A0
:1008B00082EE9BFEED9AFDEC99FC0FD5F0D6E4CECE
:1008C000FBE4CDFAE4CCF9A88222B800C1B9005902
:1008D000BA002DEC8BF084CFCECDFCE5F0CBF978CF
:1008E00018EF2FFFEE33FEED33FDEC33FCEB33FB63
:1008F00010D703994004EB99FB0FD8E5E4F9FA22ED
:100900007818EF2FFFEE33FEED33FDEC33FCC933E7
:10091000C910D7059BE99A4007EC9BFCE99AF90FAF
:10092000D8E0E4C9FAE4CCFB2275F010EF2FFFEE1B
:1009300033FEED33FDCC33CCC833C810D7079BEC66
:100940009AE899400AED9BFDEC9AFCE899F80FD5DE
:10095000F0DAE4CDFBE4CCFAE4C8F922EB9FF5F041
:10096000EA9E42F0E99D42F0E89C45F022E8600FE3
:10097000ECC313FCED13FDEE13FEEF13FFD8F122D1
:10098000E8600FEFC333FFEE33FEED33FDEC33FCD5
:10099000D8F122E6FC08E6FD08E6FE08E6FF22E6BE
:1009A000FB08E6F908E6FA08E6CBF822ECF608EDD3
:1009B000F608EEF608EFF622ECF0A3EDF0A3EEF069
:1009C000A3EFF022D083D082E493F608740193F66B
:1009D00008740293F608740393F6740473A882856E
:1009E00083F0D083D0821209F41209F41209F412B0
:1009F00009F4E473E493A3C583C5F0C583C8C58235
:100A0000C8F0A3C583C5F0C583C8C582C822D083FA
:100A1000D082F8E4937012740193700DA3A393F83D
:100A2000740193F5828883E4737402936860EFA382
:100A3000A3A380DFEF4E6012EF60010EEDBB010B50
:100A400089828A83F0A3DFFCDEFA2289F05007F75F
:100A500009DFFCA9F022BBFEFCF309DFFCA9F022B0
:100A6000E709F608DFFA8046E709F208DFFA803E78
:100A700088828C83E709F0A3DFFA8032E309F60865
:100A8000DFFA806EE309F208DFFA806688828C83E1
:100A9000E309F0A3DFFA805A89828A83E0A3F6088B
:100AA000DFFA804E89828A83E0A3F208DFFA80426F
:100AB00080D280FA80C680D4805580F28029801050
:100AC00080A680EA809A80A880DA80E280CA8029A5
:100AD00088848C8589828A83E493A30586F0A305A4
:100AE00086DFF5DEF3800B89828A83E493A3F60820
:100AF000DFF9ECFAA9F0EDFB2288848C8589828AE3
:100B000083E0A30586F0A30586DFF6DEF480E389A3
:100B1000828A83E493A3F208DFF980D688F0EF603D
:100B2000010E4E60CD88F0ED2402B4040050C3F5F0
:100B300082EB2402B4040050B92323458223900A97
:100B4000B073125B23E4909001F0E07003020E2377
:100B5000E490900FF078B3762C90900704F090908A
:100B600001E024FE7003020C0024F77003020C68FD
:100B7000240224FC4003020C237003020C60147056
:100B800003020D75147003020CDC240E6003020EC8
:100B9000081258F3904102E030E7F9904102E0304A
:100BA000E0F9E4F512E51290535E93FF740025120C
:100BB000F582E4340EF583E06F6003020E0A05123D
:100BC000E512B408E0900E407411F0A37422F0A373
:100BD0007433F0A37444F0A37455F0A37466F0A3C7
:100BE0007477F0A37488F0E4904102F0A37408F0E5
:100BF000904102E020E1F99090017401F0020E08AA
:100C00001258F3904107E030E4F990801CE0540F53
:100C1000FFBF0FF6E4908007F0904107E04420F01A
:100C2000020E08AF0BAE0AAD09AC08C006C007AE95
:100C30000CAF0DAB07AA06E4F9F8D007D0061208EE
:100C4000CA8F0B8E0A8D098C08AF0BAE0AAD09ACAA
:100C500008780A12096D8F0B8E0A8D098C0880FEA8
:100C600090800B7420F08005E490800BF0741012DB
:100C700058E8E4F514125BD2E4F519F513E490801A
:100C800006F0908005E030E0F91259136005E4FFAA
:100C9000123C490513E513C3940240E190800A74A5
:100CA00011F090800774FFF0751402125D877512C1
:100CB00002125B47125BD290800774C0F0E4908010
:100CC00006F0908005E030E0F912591360047F00CF
:100CD00080027F01909001EFF0020E081258E6E4C6
:100CE000F514125BD2E4908006F0908005E030E0CD
:100CF000F9E4908006F0908005E030E0F990800AF9
:100D00007413F090800774C0F0125CF2125D87904B
:100D100080407401F0125D4E90803074AAF075121C
:100D200001125B47125BD29080147404F0125D4E86
:100D3000E4908030F0908006F0908005E030E0F99B
:100D4000125CF21258E6125D879080147404F0E48D
:100D5000908040F0751202125B4712591360047FB5
:100D60000080027F01909001EFF090900AE0908067
:100D700000F0020E08E4909002F09090057430F0BC
:100D80009090027401F000000000E41258E8908096
:100D90000B7404F0908005E030E7F9E4908000F0F7
:100DA000A3F0F0F0F09080007430F0908005E03017
:100DB000E7F99080147410F0E4908006F0908005BC
:100DC000E030E0F9E4908006F0908005E030E0F952
:100DD0009080157455F074AAF09080147410F0E4AB
:100DE000908022F0A37405F090801714F090801684
:100DF00074C0F0908016E020E0F99080157477F0D0
:100E0000E4908023F002E80080FEE4909001F0E09E
:100E1000B4780EE4FDFF124E4212474CE4FF123F3D
:100E20006880FE759852758921758DFFD28EE4F524
:100E30008CF58AD28C4387807898F6759955909076
:100E4000107408F090900174FFF012527F90900A95
:100E5000E020E707909000E030E44E909016E030FC
:100E6000E017903F88E0B45110A3E0B4460BA3E034
:100E7000B45706A3E0645460261240C5125CBE90CD
:100E80009016E04401F0903F887451F0A37446F04E
:100E9000A37457F0A37454F0E490900FF080031201
:100EA0005CBEE4909010F080081240C5E490900F72
:100EB000F002399AE4F520F520121ADF121BD950FE
:100EC000068E218F228014E4F521F522C3E52278D5
:100ED0009E96E521189640030210EF7B40E4FDFC4E
:100EE000AF22AE2112C00FEF64FC7003EE64076006
:100EF000030210E4903E06E521F0A3E522F0121A69
:100F0000E57B14E4FDFC12C00FEF4E70030210EFFE
:100F100090100EE0649860030210EFA3E064CC60D0
:100F2000030210EF90100A121B35121C449010118E
:100F3000121B35903E6C1209B8901016121B35909A
:100F40003E701209B890101B121B35903E781209A2
:100F5000B8901021121B35903E7C1209B8901026D3
:100F6000121B35121C4A901030E024FF925F901043
:100F700034E024FF9264901036E024FF92559010E4
:100F800038E024FF9266A3E024FF9263A3E024FFED
:100F90009265A3E024FF926790103FE024FF925AED
:100FA000A3E024FF9260A3E024FF925CA3E0903EC4
:100FB00003F0901043E024FF925EA3E024FF9261CF
:100FC000A3E024FF925DA3E024FF9258A3E024FF56
:100FD0009250A3E024FF9270305A047F0180027F78
:100FE00000909001EFF090102EE0789A46F69090E5
:100FF00016E030E104E654EFF6121A8CFF903E6CD6
:10100000121B17FBD312095C400A903E6C1209DDDB
:1010100000000000903E6C121A8FFFEC4D4E4F60A6
:1010200002D262305F09909000E030E302C267E4D0
:10103000F520E520C378AC96502175F002E520A498
:101040002400F582E5F03411F583E0FEA3E0FF1201
:101050001B81EEF0A3EFF0052080D7121AE57D0189
:10106000121144700302113F123E00121AE57D0274
:10107000121144700302113F901080E0B4FF09A3E5
:10108000E0B4FF047FC080027FB0903E18EFF01202
:101090001AE57D0312114E700302113F901080E09B
:1010A000B4FF09A3E0B4FF047FC080027FB0903E8C
:1010B0001AEFF0121AE57D0712114E700302113F6C
:1010C000901080E064AA7017A3E0B45512121C6B54
:1010D000E0B4A50D903E11E0B45A06D25B8002D276
:1010E0005B7F01220522E52270020521020ECC90D1
:1010F0003E067407F0A374FFF0E4F52078ACE6FF39
:10110000E520C39F5013789FE6FC08E6FD121B8183
:10111000ECF0A3EDF0052080E37E00789FE6FC086C
:10112000E6FD1207D88E218F22AB07AA06E4F9F854
:10113000AE0EAF0FFCFD12083F121C44121C4AD227
:101140005B7F00227B147C0012C00FEF4E227B14C9
:101150007C0012C00FEF4E22900012E07895F6A3AB
:10116000E0F508A3E0F509900015E0F50AA3E0F525
:101170000B78891209C400000000900010E0120AE8
:101180000E11DF00125101125902126C03126F048A
:1011900012DA05127206127507127E081278091209
:1011A000810A12840B12870C12980E134A10129B9C
:1011B00011129E1212B51313861B13981C13AE1D29
:1011C00013CB1E13E41F13EA2011E22111E22212B5
:1011D000D42812D72A12CB8012D181000013F20238
:1011E0004F6490800BE054FC788CF690800AE018F5
:1011F000F6900011E018F690800B7410F0E4900067
:1012000011F0125732788AE6900011F0900010E049
:10121000B42108A3E0FF12379C8013900017E0FE72
:10122000A3E0FF125D21900011E0FF125366788960
:10123000A607788CE690800BF018E630E0047F017A
:1012400080027F00900011EFF01257327889E6FF9C
:1012500022900011E0FF02379C900017E0FEA3E00F
:10126000FF125D21900011E0FF025366025BF20263
:101270004FC10249AB0243FD1257327F0322025D88
:10128000380231E002501E7895E6FF5470FEEF54AC
:10129000074E90900E0213EE02416F0256F8125C58
:1012A000D97895E67800FC7A0079007E027F0012FA
:1012B0001BC27F03227895E6FA79007B01C002C049
:1012C00001121C1AD001D00202138F121AC6025545
:1012D0008D025D750256BD02543B7D00121B549079
:1012E00000007460F0A37404F090000304F0E4F5CF
:1012F0001FAF1F1253F6E51F75F004A4AEF02410C3
:10130000F50DE43EF50CFE7400250DF58274003EEB
:10131000F583E51FF07401250DF58274003EF58319
:10132000E509F07402250DF58274003EF583E50AA7
:10133000F07403250DF58274003EF583E50BF0058E
:101340001FE51FC3946040A9805E900011E0F51F67
:10135000AF1F151FEF602CAE08AF09E42FFFE43E6E
:10136000FAA9077BFFC002C001121C1AD001D002EB
:101370007E027F00120B1C121B22125A6705080501
:101380000880CD7F0322121C1A7B017A3079007EFF
:10139000027F00120B1C8010121C1A7B007A00794D
:1013A000007E017F00120B1C125A677F03229000FF
:1013B00011E0600BD259908040E04401F08009C2F6
:1013C00059908040E054FEF07F0322900011E0909D
:1013D000800A6006E04402F08004E054FDF012361A
:1013E000897F0322124F067F0322E4909012F07F40
:1013F00003227F83222056432057407888E6600AE4
:101400007987E77886461846601E7F457E407D35A1
:101410007C747885121CA2600F7F427E497D4F7CD0
:10142000537885121CA27002D2567885E6600C793A
:1014300088E778874618467002D2573067422058AE
:101440003F205703305639205D36206115A262E4F3
:10145000332401FFE433FE7883E6FDB5070AE4B5E3
:101460000606789976018011ED14FF7402A807082A
:101470008002C333D8FC7899F67899E6FF124A893E
:10148000306B1885131E121D9D7B107D017C001290
:10149000C00FEF4E7002C26B851E137899E6FFB441
:1014A0000125903E0B74FFF0A3745CF0A37487F0E9
:1014B000206B03021541900120E064AA600302152D
:1014C00041903E0B048051306B59900002E07C004B
:1014D0002416F9EC3400FAA3E029F9EC3AFA903E2C
:1014E0000B7401F0A3EAF0A3E9F0EF541460179035
:1014F0000140E0B4AA10903E0B7401F0A37401F017
:10150000A37442F0803B7899E6B40835900120E05E
:10151000B4AA2E903E0B7401F0A37401F0A37422C0
:10152000F0801E903AAFE493903E09F07E0024A52F
:10153000F9EE343AFA903E0B74FFF0A3EAF0A3E917
:10154000F0121E4A7480F0A37402F0A3F0A3741F7B
:10155000F0E4A3F0A3F0A3F0F51E903E0BE0FBA394
:10156000E0FAA3E0F9851E827583001207ABFF74D1
:1015700008251EF582E43400F583EFF0051EE51E14
:10158000B420D7206B0302162B30550320560330AE
:101590006605E4900001F0751E017899E6FD64018E
:1015A000703F9000237430F02060237888E6640553
:1015B000701C18E6B48F1718E6B4931218E6B484BA
:1015C0000D121E4AF0903E1CE054FEF0804B90003D
:1015D000007405F0A37480F0903E1CE04401F0809C
:1015E000383066089000237435F0802D30650890FF
:1015F00000237436F080223064089000237437F0A2
:101600008017306311ED900023B408057439F08021
:10161000087438F08003E4F51EE51E600E9000208B
:101620007438F0A3742EF0A37430F07F2412518527
:1016300022E4F51378ACE6FFE513C39F40030217DD
:1016400005E5131229FBF583E0FCA3E0789FA604CF
:1016500008F6E618467003021700EF2401FFE43392
:10166000FEEF25E0FFEE33FE7DFF7B017A3E7980C1
:10167000120A3478A1A61312186A78A1E6F5207828
:10168000ACE6FFE520D39F507C12292F74FFF0A316
:10169000F0E520C39F500BE5201229FB12290A4ECA
:1016A000605912299612594D8E238F24C3E5249434
:1016B000FFE5239407401A1251DA8E238F24122952
:1016C00096AD24AC2312512E12292FE4F0A3F08002
:1016D0001EE52078A1667017FDAF24AE2312C01856
:1016E000AD127C001207EA12292FEEF0A3EFF0E50D
:1016F000201228F1E523F0A3E524F0052002167F4F
:1017000005130216347E087A3479001229E278AC87
:10171000E6F515F513C251E4F521E513D378A1964A
:101720005003021869151312C01530510612C02457
:10173000021837E4F5201229666513600302182B9E
:101740001228C4E0F46004052180F5E4F522E522C6
:10175000C39521502A122966FFE5221228C6E0B55A
:1017600007191228FDFFE52212291AE0FCA3E0B5B3
:101770000709ECB506050520021736052280CF12B1
:1017800028FDFFE52112291AEEF0A3EFF01228C47C
:10179000E513F01229BD1228992410F9745D35F073
:1017A000FA7B01C001E52112288E24E6F9743E354A
:1017B000F0A801FC7D01D0017E007F0A120B1C12F3
:1017C00029BDF583E075F007A42480F9745D35F038
:1017D000FA7B01C001E5211229A1E075F007A424DC
:1017E0008CF9743F35F0A801FC7D01D0017E007FAB
:1017F00007120B1CE52112288E12297712290AC321
:10180000950FEE950E5024E52112288E24E8F582DE
:10181000E4343E12290AFF7D0112C018E521122886
:101820008E122977F583EEF0A3EFF00520E520C3B3
:1018300094085003021736E4F51412C0210514E58C
:1018400014C3940840F478107C5D7A3E79E67F708A
:1018500012291178807C5D7D017B017A3F798C7E35
:10186000007F38120B1C02171A227E0C7F007A5060
:1018700079001229287E017A5D79001229E27F32EF
:101880007A3F79561229EBE5135403F509E513C3A2
:101890001354FEF5087895A613903102E0F51390E5
:1018A0003100E064A0601278A5E6FE08E6FFAD080E
:1018B000E5122DFDE433FC801DAF0875F002EFA4A6
:1018C0002410F582E5F03431F583E0FCA3E0FD78E7
:1018D000A5E6FE08E6FF7B0412C00F7895E6F51337
:1018E000AF09EF7F00FEEF2400F974103EFA7B0190
:1018F000C002C00178007C5C7D01D001D0027E0175
:10190000120B1CE4F514F50AF50BC3E50B789E9653
:10191000E50A18964003021A341229F4CEC313CEF6
:1019200013D8F912297F3EF5831228AE5E600302B8
:101930001A297B40E4FDFCAF0BAE0A12C00F905D8C
:1019400002EEF0A3EFF0905D02E0A330E720122951
:10195000F4CEC313CE13D8F912297F3EF583C0838A
:10196000C0821228AE4ED082D083F0021A29C390D2
:101970005D03E094FF905D02E094074003021A29A2
:10198000E0FEA3E0FF12594D905D00EEF0A3EFF0F2
:10199000C3905D01E094FF905D00E09407400D125C
:1019A000294FAD0BAC0A12512E021A297B407D0241
:1019B0007C00AF0BAE0A12C00F903EE212294A9093
:1019C0003EE2E06E7003A3E06F600C903EE2E0B494
:1019D000071CA3E0B4F717905D00E0FEA3E0FF1240
:1019E00029AF12294AAD0BAC0A12512E80271229B9
:1019F000AFE50AF0A3E50BF01229F4CEC313CE1322
:101A0000D8F912297F3EF583C083C0821228AE4EDA
:101A1000D082D083F0E514C39419500405148009D2
:101A20007D01AF0BAE0A12C012050BE50B7002056B
:101A30000A02190A903102E0B5130E78A5E6FC08F7
:101A4000E6FD7FFD7E0712512E7F107A5D79001230
:101A500029EB789DE6FE08E67803CEC313CE13D8B3
:101A6000F9905DFFF0905CFFE0FF905335E493FE4A
:101A7000EF4E905CFFF07F01227A0479007E047FB4
:101A8000009044007404F0A37400F022903E74E0CF
:101A9000FCA3E0FDA3E0FEA3E022908017E0250D6B
:101AA000F50DE4350CF50CFEAF0DE4FCFD780912E4
:101AB000098078890209AC7DFF7E027F007B017A74
:101AC000047900020A34900010E0900074F0900055
:101AD00011E0900075F0900012E0900076F02290F6
:101AE0003105E0F513903E06E0FEA3E0FF22250B52
:101AF000F50BEE350AF50AED3509F509EC3508F573
:101B00000822E50D250BFFE50C350AFEE43509FD3D
:101B1000E4903E783508FCE0F8A3E0F9A3E0FAA3EE
:101B2000E0227A0079007E007F009044007400F08B
:101B3000A37400F022E0FCA3E0FDA3E0FEA3E0FF1D
:101B400022E50D250BFFE50C350AFEE43509FDE421
:101B50003508FC227E027F007B017A007900020AB0
:101B600034F0A261E433A3F0A25DE433A3F0A25801
:101B7000E433A3F0A250E433A3F0A270E433A3F063
:101B800022E52025E024C2F582E4343EF58322F0EC
:101B9000A266E433A3F0A263E433A3F0A265E433C6
:101BA000A3F0A267E433A3F022E51425E025E024A6
:101BB00039F582E4343FF583227E007DFF7B01020C
:101BC0000A347D017B01020B1C2FF50BEA3EF50A5E
:101BD000E93DF509E83CF50822C394FFEE9407229D
:101BE00075F002EFA42400F582E5F03405F58322B8
:101BF000FFAB0BAA0AA909A808C302095C788D12D9
:101C0000099FC302095C250BFFEE350AFEED35097D
:101C1000FDEC22903105E0F5132278007C007D0177
:101C200022F582E43402F583229000747451F0A30B
:101C3000222DFDE4338D82F583E493FE22789BE62A
:101C400044F6F622903E680209B8903E740209B844
:101C500004F0A264E433A3F0A322903E18E064B041
:101C600022ED5407FA7401A8020822789AE644018A
:101C7000F6903E1022C3E50B94FFE50A9407227FFD
:101C8000147E007D007B017A007900020A34E50DA4
:101C9000250BFFE50C350AFEE43509FDE43508FCAB
:101CA000788D12099FC302095C903E6CE0F8A3E0B6
:101CB000F9A3E0FAA3E0FB903E74E0FCA3E0FDA3EF
:101CC000E0FEA3E022908017E0250DF50DE4350C31
:101CD000F50CFE7809AF0DE4FCFD1209807889222D
:101CE000AF0BAE0AAD09AC0878021209808F0B8EDB
:101CF0000A8D098C0822FFE02FFFE433FE74002FC9
:101D0000F58274023EF583E064AA22C2547A007917
:101D1000007E007F009044007400F0A37400F0E4A3
:101D2000904104F022EF24FFFFEE34FFFEED34FF7C
:101D3000FDEC34FFFC9000001209B89000042290E2
:101D40004101E04410F07881E64410F62274002549
:101D50001FF582E43402F583E022250BF50BEE3506
:101D60000AF50AED3509F509EC3508F50822A25CFB
:101D7000E433FF74047E00A8070822AE0CAF0DE424
:101D8000FCFDFB7A02F9F812083F788922FF7E00F9
:101D9000E07C002400F9EC3403FA7B012290310549
:101DA000E0F513903E06E0FEA3E0FF22FEED940076
:101DB000FDEC9400FC78890209ACFFE02FFFE433CE
:101DC000FE74002FF582740322903E03E0FEC3EF01
:101DD0009E903E02F0541F227401251FF582E434C8
:101DE00002F583E024022278007C007D0122C39B5F
:101DF000FFEE9AFEED99FDEC98FC229000027480B3
:101E0000F022789576057896227895760278962253
:101E1000F0E4904105F0788922903E01E06401F001
:101E2000909001F022AB0BAA0AA909A80802095C4C
:101E3000788D120993780202096D788912099FD36F
:101E400002095CCEA2E713CE1322E4900000F0A3B7
:101E50002278957606789622125C6A7899E6640173
:101E6000702E903E1CE030E027AE0CAF0DE4FCFD80
:101E7000780B1209807889121CA27014121CE0E5FC
:101E80000DAE0C7802C333CE33CED8F9F50D8E0CDF
:101E9000121D7B121CA260037F8422124AF88F1E3F
:101EA000EF30E70122788D120993D3121E254009E5
:101EB000305603021FBF7F8A22121C8E50037F8A76
:101EC00022903E02E0FF6011904107E030E61112DF
:101ED0001DC97005121E198000904107E054BFF023
:101EE000903E02E04440F0306930C269D268903ED2
:101EF00015E0FEB40115903E16E0B4010E903E17B9
:101F0000E0B40107789C76FF7F8622903E17EEF0C2
:101F1000903E157401F0903E16F02064047F01801D
:101F2000027F00903E18E0B4B0047E0180027E0083
:101F3000EE5F7003021FDE121D6E8003121E43D877
:101F4000FBFF7899E66F7001EE6003021FDE78896F
:101F50001209C400000000E4FFFEFDFCC3121E25B0
:101F6000705D7899E6B4040B903E6C121CBAF50BC8
:101F7000121CEF903E1EE50CF0A3E50DF0750C0071
:101F8000750D0112C0038F1EE51E30E718903E1E2E
:101F9000E07004A3E06401700FE51E30E0047F01EF
:101FA00080027F03227F8922908016E020E0F99052
:101FB0003E1FE024FFF50D903E1EE034FFF50C7E41
:101FC0000C7F007DFF121C85E50D450C600D125A3B
:101FD00067E50D150D70F1150C80ED7F0322125988
:101FE0001A12C0038F1EE51E30E72D30E01C904111
:101FF00002E030E00312007E904104E020E1EF3087
:102000005403121D0B751E018003751E037889127F
:1020100009C4000000008009121CC51209AC751E1D
:1020200089AF1E22903012E078A2F690800AE0FF7D
:10203000903013E0FEEF4E90800AF09031F0E0F522
:102040000EA3E0F50F9031F2E078ACF69031F4E0B9
:10205000F510A3E0F5119031F6E078ADF69031F887
:10206000E0F5129031FA122D249031FC789F122D58
:10207000269031FE122D95903191E0909009F090CC
:1020800031A7E078A3F6E6700276049031A8E0FF6D
:102090001259B1903194E06003122DE4122DA07812
:1020A000827614E4F5227882E6FF2400F582E43497
:1020B00030F583E0640C60030221DB74012FF582AC
:1020C000E43430F583E0FEC4540F122DB974022FAE
:1020D000F582E43430F583E07880F67882E62403F4
:1020E000F582E43430F583E07881F6908005E030C5
:1020F000E7F9E4F520E520C3788096502AAF2074F4
:1021000001A807088002C333D8FCF52178815678EE
:10211000826009122D5C908000F08007122D5C9087
:102120008001F0052080CE7882E62401F582E43437
:1021300030F583E0540F7880F6E630E0037F00222C
:10214000E4F520E520C378809640030221D2E52003
:10215000540725E02410908014F0908005E030E7CB
:10216000F9E4908006F0908005E030E0F990800B73
:10217000E05403600CE030E1037F0022E4FF123CF6
:1021800049908005E030E10A90800AE020E1037F79
:10219000002205200520E5205407F5216007E520F1
:1021A000788066709EE5217003752108E5217F0027
:1021B00025E0FEC006C007E522122D6FA807FC121D
:1021C0002D8CD007D006120B1CE5212522F522020A
:1021D00021437882740C26F60220A6122E047F0179
:1021E000228F222052062053037F0122903105E0E6
:1021F00065136006E0F51312C01520510312C01BD1
:102200007FFC7E0712594D8E0A8F0B121C754011F0
:102210007E107F007DFF7B017A107900120A3480E6
:1022200021E47891F67891E6C394085015E6FD7C98
:1022300000E62404FBAF0BAE0A12C00F789106062D
:1022400080E3E522B4FF097508077509FF02236BD7
:102250001251DA8E088F09BEFF06BFFF037F0022EE
:10226000E5227F0025E0FEEF2400F974103EA8016E
:10227000FC7D017B017A0479007E02120B1CE4785C
:1022800091F67891E6C39408400302236B2052062E
:102290002053037F01227891E68512F084E5F070E7
:1022A00011E6FD7C007BA0AF09AE0812C00FE478F8
:1022B00092F67FFC7E07125D219031EEE030E33D27
:1022C0007892E690532E93FF9031EFE05F70030613
:1022D00080EE7892E6FFE5178FF0A408A6F008F6E6
:1022E0007892E6FFE5188FF0A40826F69080007437
:1022F00085F008E6908001F018E6F018067891E67F
:1023000025E02410908014F090800674E0F0908016
:1023100005E030E0F97891E624028512F084E5F0DA
:102320006007E624025407703B9080007410F09020
:102330008005E030E7F978A2E620E5289080007477
:1023400070F09080047401F0908003E0FF908002B0
:10235000E04F30E00F7BC1E4FDFCAF09AE0812C0D6
:102360000F02225078910606022282121C75500933
:102370007D01AF0BAE0A12C012AD09AC087FFC7E26
:102380000712512E903E06E508F0A3E509F07F0103
:1023900022C26D125A0FE47892F690800AE05480BF
:1023A000F0C259E4908040F090800B7410F0789265
:1023B000E6122DB9E4FD7F2E124BD3E47894F6900B
:1023C0008005E030E7F9122DD07894E6FF1253F63D
:1023D000908005E030E7F9E4908000F0122D7A74E7
:1023E00030F07894E67014908005E030E70D789234
:1023F000E630E107789476600224A6908005E0300C
:10240000E7F9902E00E064986004E0B44517902E40
:1024100003E054B0FFBF800D9080007405F0E4121B
:102420002D7A74E0F0E47891F69080147410F090B6
:102430008005E030E7F9E4908006F0908005E03018
:10244000E0F990800BE054036009E020E141E4FFF3
:10245000123C49901000E0640D7034A3E0640670F3
:102460002EA3E064057028A3E064067022A3E0B404
:10247000121D78007C30122D8C7E027F00120B1C06
:10248000122024EF705F90800AE05480F0800B7877
:1024900091E6C39407500306808F789406E6C394B0
:1024A0006050030223BF789206E6C39404500302EF
:1024B000239A905336E493908007F0908005E030A3
:1024C000E7F9122DD0908005E030E7F9E4122DF104
:1024D000F0F0F0F0F09080007430F0908005E03083
:1024E000E7F97F0022D26D90319FE0B45108D259B4
:1024F0009080407401F0123689E4909002F090319F
:1025000092E07004A3E0601D90300CE05470909055
:1025100005F0903192E0FEA3E0FF1242C0909005DA
:102520007460F0800A90300CE04401909005F090C7
:1025300090027401F012C000E47883F67F01227DDE
:1025400000121AB9903E68121A8FFF900400120907
:10255000B890040474CCF0A37401F0A374A1F07BD0
:10256000017A3E796C12550A9004071209B890045A
:102570000B74A2F07B017A3E797812550A90040C14
:102580001209B890041074A3F0E4A3F0A26C33A372
:10259000F0A374A4F07B017A3E797C12550A900472
:1025A000141209B890041974A5F07B017A3E797071
:1025B00012550A90041A1209B890041F7401F0A36E
:1025C00074A6F0A25FE433A3F090042374A7F09004
:1025D0000426121C5074A9F090042B04F0A26DE4A0
:1025E00033A3F090900AE090042DF090042F74AB88
:1025F000121B8FA25CE433900436F0A25AE433A39A
:10260000F0903E03E0900438121B617B017A3E7922
:102610007412550A9005001209B890050474B0F0C0
:10262000903E19E0900505F0903E1BE0900506F005
:10263000903E18E0900507F0903E1AE0900508F0F3
:10264000A374C0F0789AE6A3F0A374B1F0900510DB
:1026500004F0789FE6A3F008E6A3F0A374B3F0A219
:102660006CE433A3F0903E08E0900515F0A374B439
:10267000F0789BE6FFA3F0789CE6FEA3F0A374B588
:10268000F090052404F0A3EFF0A3EEF09005307471
:10269000B7F0909000E0900531F090053574B8F0F7
:1026A00090054004F0903102E0900541F078A5E6F5
:1026B000A3F008E6A3F0903105E0900544F0903EC9
:1026C00006E0900545F0903E07E0900546F078F072
:1026D0007C057A3179F07E007F10121BC2205306F0
:1026E000121A79125A677F0322306530789AE630E1
:1026F000E02A90000FE0248F24FC501D24F2601982
:1027000024ED601524FC60140424FB500C24A96003
:102710000824FB6004247970037F8222D252900047
:102720000FE0120A0E28691028701127C6122821FE
:1027300071282572282973282D74283175283C7634
:10274000284577284E7828577B28607C28018128E7
:102750000C8228178327F79627A69727D79927DF74
:102760009A27E79B27BE9C27EF9D27CFF52786F664
:10277000278EF727AEF82796F92877FA279EFB27AA
:10278000B9FF0000287E124EA48F1E022881124A33
:102790001A8F1E02288112587C8F1E022881125A1D
:1027A0003C8F1E022881125DD98F1E022881121AC9
:1027B000C6125B8E8F1E022881125D97800B124B12
:1027C000668F1E022881125BB0751E0302288112DB
:1027D0003D298F1E0228811230AD8F1E02288112E2
:1027E000253F8F1E0228811257DB8F1E022881127F
:1027F00044918F1E0228817F01122F728F1E0228A2
:1028000081121AC6125A8E8F1E022881121AC612FF
:1028100056828F1E022881121AC61258B18F1E804E
:10282000607F0280197F02801E7F0280237F0280EA
:1028300028903E1CE04402F07F0280267F03125560
:10284000CB8F1E803C7F03125C2E8F1E80337F0354
:102850001256088F1E802A7F031245258F1E802165
:102860007F031240178F1E80181243618F1E801144
:10287000123EB58F1E800A1211588F1E8003751EDE
:1028800082C252AF1E22F58374FFF0A3F0EF25E061
:1028900025E02439F582E4343FF583E075F00AA49D
:1028A00022E0FFED540790532E93FEEF6E22E0FFDF
:1028B0007C00E50B5407242EF582EC3453F583E4B9
:1028C00093FEEF22E52125E025E02438F582E4346B
:1028D0003FF58322FDEEC313FEEF132400F582744F
:1028E000583EF583E0227E007DFF7B01020A34E53D
:1028F0002725E02480F582E4343EF58322E5202577
:10290000E025E02460F582E4345DF583E0FEA3E099
:10291000227D017B017E00020B1C25E025E0243690
:10292000F582E4343FF583227DFF7B01020A34E522
:102930002025E024A2F582E4343EF58322EC25E054
:102940002400F582E4345DF58322EEF0A3EFF090ED
:102950005D02E0FEA3E0FF2224EEF582E4343EF5C2
:1029600083E4F0A3F022E52025E025E02462F5824F
:10297000E4345DF583E02224E6F582E4343E22244B
:1029800000F582745C227C005407242EF582EC341E
:1029900053F583E49322E52078A026FFE41836FE61
:1029A0002225E025E02439F582E4343FF58322E551
:1029B0001425E02456F582E4343FF58322E52025F2
:1029C000E025E02463F582E4345D2225E0241090C4
:1029D0008014F090800622789AE64420F67EFF7FED
:1029E000FF227F007D007B01020A347E007DFF7B99
:1029F00001020A34E50BAE0A78032225E024C2F571
:102A000082E4343E2290000FE0FF788912099FE8AB
:102A1000494A4B601290000CE0648060047E0380A1
:102A2000027E028E1D8003751D017884A61DEF12A3
:102A30000A0E2B0C002AF2032A91122AB31A2AFF3B
:102A40001B2B191E2AD5232AE5252A6F282A802A1E
:102A50002AA22F2B26432B33452B3A462B41512BB1
:102A600048522AC45A2B4FBB2B54BD00002B5BE5A8
:102A70001D64026003022B63121E588F1C022B6020
:102A8000E51D64036003022B631235688F1C022B63
:102A900060E51D64026003022B631213F58F1C02B4
:102AA0002B60E51D64016003022B63125DA58F1C82
:102AB000022B60E51D64026003022B631250798FC4
:102AC0001C022B60E51D64026003022B63123311AC
:102AD0008F1C022B60E51D64026003022B6312470A
:102AE000CE8F1C807BE51D6402707812493A8F1CE2
:102AF000806EE51D6402706B1257A38F1C8061E528
:102B00001D6401705E125AB58F1C8054E51D64016E
:102B10007051124D118F1C8047E51D6401704412E5
:102B20005DC08F1C803AE51D640270371242188F19
:102B30001C802D125DE88F1C8026125DB38F1C80D7
:102B40001F1254808F1C80181254C58F1C80117561
:102B50001C03800C1256458F1C80051226E98F1C21
:102B6000AF1C227F82228F1CE478A4F6908016E0AE
:102B700020E0F9904104E020E1F9121B22900000CE
:102B80001209DD555342537B007A00798512550AAC
:102B90009000041209B8E490000CF090000BF09043
:102BA000000AF0900009F0900008F0904106740DC2
:102BB000F0E4904105F0306806C268903E15F0D20E
:102BC00054904104E030E10A904102E030E0F27FAD
:102BD0000022C2547A0079007E00121B2AE4904140
:102BE00004F0E51C7002FF22C28CC28DE4F58CF566
:102BF0008AD28C903E02E0FF6024904107E030E6EC
:102C000024903E03E0FEC3EF9E903E02F0541F70FE
:102C10000D903E01E06401F0909001F08000904141
:102C200007E054BFF0903E02E04440F0904104E0E1
:102C300020E010904102E030E0037F0022308DEC74
:102C40007F002290000FE0701A78A4E6C394015030
:102C50001290000DE0788366700978A406122CB5F6
:102C6000022B7A900011121B357891121BFF7042D3
:102C700090000FE0651C703A90000DE0788366705C
:102C800031908016F0122CB5121B22E4908014F0C3
:102C9000900016E0F50CA3E0F50D78911209938FE2
:102CA0000B8E0A8D098C08121B4178911209AC7F9A
:102CB00001227F00227B017A00790412550A78856F
:102CC0001209AC22AF177E0078A4E6FAFD7C001250
:102CD00007D87891E625E02427F582E4343EF58391
:102CE000EEF0A3EFF0E5188AF0A4FFE625E0242734
:102CF000F582E4343EF58322120B1C7A0079007EC3
:102D0000007F009044007400F0A37400F02274026D
:102D100090901DF07895E6FF22740190901DF07858
:102D200095E6FF22789DE0FEA3E0A60608F6227D48
:102D3000017B017E00020B1CF0E512FD7C00AE0A57
:102D4000AF0B1207EAECC313ED13FDE5178DF0A4EA
:102D5000227B20AD0BAC0AAF09AE0822E62520FF8E
:102D6000E433FE74042FF58274303EF583E02225AF
:102D7000E0FEE42400FFEE34A022908001F0F0E5B4
:102D80000BF0E50AF0E509F0908000227D017B015F
:102D90007A1079002278A5E0FEA3E0A60608F622C4
:102DA0009080157455F074AAF0227E027F007D0099
:102DB0007B017A007900020A3490533693908007A1
:102DC000F022908040E0FFA259E433FEEF4EF02263
:102DD00090800074FFF022E517C313F517E518C3C0
:102DE00013F51822E05470FFE054074F90900EF056
:102DF00022908000F090800122EBC31378B2F67825
:102E0000A406E6229080157477F022908017F09047
:102E1000801674C0227D017B017E00020B1C904154
:102E200006E0547FFFBF211C7F437E427D537C55CB
:102E3000900000E0F8A3E0F9A3E0FAA3E0FBC312DE
:102E4000095C6007788476027F82227B017A0079B0
:102E50000412550A78851209AC7B017A00790812B0
:102E6000550A78891209AC7A0079007E00123B81FC
:102E700090000DE07883F690000FE0306E3F641212
:102E8000602A7888E6B4051718E6B48F1218E6B4FD
:102E9000930D18E6B48408903E1C7402F0800690EE
:102EA0003E1C7407F0306504E4789BF6C26EE4784B
:102EB00099F678A1E6F5139090077401F0206C0361
:102EC000022F4DA264E433FF903E18E0B4B0047EBC
:102ED0000180027E00EE5F6020A25CE433FF788315
:102EE000E6FEB5070F7402A806088002C333D8FCBB
:102EF000F51C8037751C108032206115A262E43306
:102F00002401FFE433FE7883E6FDB50711E4B5063E
:102F10000D306305751C088012751C01800D74024C
:102F2000A805088002C333D8FCF51C30673520584B
:102F300032205703305603305D297883E6FF740151
:102F4000A807088002C333D8FCF51C80167883E6F6
:102F50007008903E08E0F51C8009751C04789CE61A
:102F60004404F6E51C7899666005AF1C124A897F17
:102F700002228F207E027F007D00121ABD9004097C
:102F800074F1F0903E68121A8FFF90040A1209B88B
:102F900090040E7498F0A374CCF0A374F2F0903EF9
:102FA0006C121A8FFF9004111209B890041574F373
:102FB000F0903E70121A8FFF9004161209B8900418
:102FC0001A74F4F0903E78121A8FFF90041B1209C5
:102FD000B890042074F5F0903E7C121A8FFF900494
:102FE000211209B890042574F6F0121A8CFF90048F
:102FF000261209B890042A74F7F0E4A3F0A304F0B1
:10300000789AE6541690042EF0A374F8F0A25FE4C8
:1030100033A3F0A374F9F0900433121C5074FBF046
:10302000A255E433A3F0A374FC121B8FA25AE4331D
:1030300090043FF0A260E433A3F0A25CE433A3F079
:10304000903E03E0900442F0A25EE433A3121B61C1
:1030500090048074E1F090048504F0E478A4F6799B
:10306000A4E7C378AC96501778A4E6FF121B83E060
:10307000FCA3E0FD121BE0ECF0A3EDF00680E0788D
:103080009AE69005FFF0E5206006121A79125A6759
:10309000E4FF1221E1EF601278891209C4000000F8
:1030A00000306C03121C3D7F03227F8922903E1862
:1030B000E064C060037F8922205306121A79125CF3
:1030C000D97B017A04790012550A903E6C1209B836
:1030D0007B017A04790612550A903E781209B87B72
:1030E000017A04790B12550A903E7C1209B87B01D3
:1030F0007A04790F12550A903E701209B87B017A52
:1031000004794012550A8F0B8E0A8D098C089004A1
:1031100045E0903E0EF0900446E0903E0FF09004A3
:1031200044E0645170499004FEE0644A7028A3E0D2
:10313000644E7022FF78ACE6FEEFC39E5014121B63
:10314000E0E0FCA3E0FDEF121B83ECF0A3EDF00F39
:1031500080E3E4789CF6AF0BAE0AAD09AC08EC4D09
:103160004E4F600BAF0BAE0AAD09AC08121C449079
:103170003E6C121A8FFFEC4D4E4F6003D38001C39B
:103180009262900404E0B45103D38001C3925CA224
:103190005CA062925C903E78121A8FFF903E701293
:1031A0001B172FF50BEA3EF50AE93DF509E83CF55A
:1031B00008206009903E70121A8F121AEE903E6835
:1031C000121A8FC3950BFFEE950AFEED9509FDECE3
:1031D0009508FC121C4A7899E6FF124A897F03225F
:1031E000122DA0E4F520E520C3789596501D122CF1
:1031F000FB125CD9E520122D6FA807FC7D017B0135
:103200007E027F00120B1C052080DB122E04122C84
:10321000FB125CD99001FEE0B44A06A3E0644E6064
:10322000037F8922900000E090800AF030E0067869
:10323000A276408004E478A2F67898E6B4800790FD
:10324000800AE04480F0900002E078ACF690000440
:10325000E0F510A3E0F511900006E078ADF69000DF
:1032600008E0F51290000A122D2490000C789F12AD
:103270002D9790000EE0F50EA3E0F50F900191E080
:10328000909009F090019FE0B45108D2599080408D
:103290007401F0E4909002F0900192E07004A3E0D9
:1032A000601D900010E05470909005F0900192E045
:1032B000FEA3E0FF1242C09090057460F0800A9077
:1032C0000010E04401909005F09090027401F0909D
:1032D0000194E06003122DE4900011E0FF1259B157
:1032E0009001A7E078A3F6E670027604D26D78002C
:1032F0007C317A0179007FF0122E15903103122D66
:103300009590310FE078A2F612368912C0007F0343
:1033100022900011E0543FF51E751FFF7520807844
:1033200099E6640160030233E7903E1CE020E0036D
:103330000233E7125D62EF604D900202E06047A346
:10334000E0900202121CF6703D900202E02408F5A3
:103350001FE51EB43F08A3E024F8F5208028121DC5
:103360004D64AA6010121D4D651E6009121DD825FE
:103370001FF51F80E9121D4D64AA6007121DD8F5C4
:10338000208003751FFFE51FB4FF097E007F8012B8
:103390001C83804F900202E07E002400F9EE34028C
:1033A000FA7B01C002C001121DE7D001D0027F08E4
:1033B000120B1CAF207E007C007400251FF9EC343A
:1033C00002FA7B01C002C00178087C007D01D001B7
:1033D000D002120B1CE5202406900001F074082591
:1033E00020F520AF208053121E4A7406F0E4A3F0AB
:1033F000789AE6FB54F960047F8080027F00900099
:1034000003EFF0A31209DD00000000EB7899565499
:10341000066003121DFB20560330570C7899E6B462
:1034200001069000037480F0306C0D7899E6541812
:1034300060069000037480F07F08125185228F206F
:10344000903E0AE0FF7003023564D3944040047E4E
:10345000408002AE07E4FFEFC39E5031903E0BE088
:10346000FBA3E0FAA3E0F9903E09E0FD7C00E92D22
:10347000F9EC3AFAEF29F9EC3AFA120792FD7440A6
:103480002FF582E4340EF583EDF00F80CA7898E6CC
:10349000FF20E606E52064026009EF30E615E5202E
:1034A000B40710900E567440F0E4A3F0900E5D74D3
:1034B000408014E520B40613900E40740AF0A37403
:1034C00006F0900E487401F0E4A3F0E520B407067E
:1034D000900E417407F0E52064016005E520B40614
:1034E0000FE4900E42F0A37402F0900E477440F087
:1034F000E5206401702B900E4AE0B48006A3E064DE
:1035000093600AD26C900E507403F08007C26CE492
:10351000900E50F0206D0A900E4A7434F0A374128D
:10352000F0E52064026005E520B40708903E05E060
:10353000900E48F0904103EEF0904102E020E1F956
:10354000904102E054216005E054FEF022904102D7
:10355000E020E013903E0AE0C39EF0903E09E02E8A
:10356000F0023440123BE222125C6A7899E6640170
:103570007027903E1CE030E020AE0C780B121CD57A
:10358000121CA27014121CE0E50DAE0C7802C333BD
:10359000CE33CED8F9F50D8E0C121D7B121CA26015
:1035A000037F8422124AF88F1EEF30E70122121C9B
:1035B0008E50037F8A22306C107899E6FF64016098
:1035C0003DEF541860037F8722789AE6600F540617
:1035D0006008799AE778995660037F8722903E18B1
:1035E000E064B0702EA25C121D718003121E43D8DD
:1035F000FBFF7899E67C00B50719ECB50615E50DDB
:10360000150DAE0C7002150C4E6005125CD980EEE3
:103610007F0322903E02E0FF6011904107E030E618
:1036200011121DC97005121E198000904107E05447
:10363000BFF0903E02E04440F012591A12C0068FCB
:103640001EE51E30E72D30E01C904102E030E00323
:1036500012007E904104E020E1EF305403121D0B74
:10366000751E018003751E0378891209C4000000CD
:10367000008013121CC51209AC751E89E50D450C9E
:10368000700478847601AF1E2290800AE030E10554
:10369000751702803390800BE030E40575172080A9
:1036A0002790800BE030E305751736801B90800B68
:1036B000E030E505751748800F90800BE030E60597
:1036C000751750800375172E75180478A2E654C03C
:1036D0006003122DD79031EEE030E346E47891F6A6
:1036E000A3E078B2F6E66017E478A4F678B2E6FBD9
:1036F00030E006122CC4EFF006122DF9B408ED905C
:1037000031EDE078B2F6E6605278A4760878B2E659
:10371000FB30E006122CC4EFF006122DF9B410EDC8
:103720008039E478A4F6E512C313FF78A4E6C39FBA
:103730005029AF177E00E6FBFD7C001207D8EB1284
:103740002CECEEF0A3EFF078A4E6FFE5188FF0A4E0
:10375000FEEF122CECE02EF00680CB903195E0705D
:103760003390800BE030E60578B2762A2290800B09
:10377000E030E50578B276262290800BE030E30554
:1037800078B2761C2290800BE078B230E403760E9B
:1037900022761622903195E078B2F6228F2085139A
:1037A000217895E6F513E52030E0037F8922122D7C
:1037B0005112C00FE4908014F0852022FE7F40FD5E
:1037C000122D8E120A34908005E030E7F9E49080E3
:1037D00006F0908017E522F09080167480F09080BB
:1037E00016E0540A60F8908016E030E12D90800BCE
:1037F000E030E1057520EE8007E4FF123C498F20A0
:10380000908017E0FFC3E5229FFFC3132400F582D9
:10381000E43410F583E520F080BE908016E020E0CF
:10382000F9904104E020E1F990800BE0900000F075
:10383000908005E020E12D125D0A900001EEF0A3DA
:10384000EFF0908030E0900007F0908031E0900041
:1038500008F0908032E0900009F0908033E0900012
:103860000AF080189000017407F0A374FFF07E0046
:103870007F04FD7B017A007907120A34900003E58A
:1038800008F0A3E509F0900005E50AF0A3E50BF0C8
:1038900090000B74AAF0780C7C00122D8C7E007FB7
:1038A00040122CF8125A678521137F0322AD07902E
:1038B0004104E020E1F9ED247FB40F004003023918
:1038C000729038CF75F003A4C58325F0C5837302C9
:1038D00038FC02390202390A02394302391202392C
:1038E0001902392002392A02393102393C02394A97
:1038F00002397202395502395F023966121D3F7F63
:103900000522121E02762602396E121E027620024F
:10391000396E121E09763A8055121E517628804E55
:1039200078957607789676278044121E097604806B
:1039300005121E0976FF789776FF8036121E0276F2
:1039400021802B121E0276248024121E0976047810
:10395000977601801D121D3F121E517629800F128D
:103960001E51762980087895760378967611E4784A
:1039700097F67884E6FCB40207121D3F7D07801796
:10398000ECB40311904101E04404F07881E6440472
:10399000F67D0680027D04AF05221248C8903E01E4
:1039A0007401F0904102E030E00312007E7880E67E
:1039B000B40118904104E030E011122E1E7880EF1F
:1039C000F6BF0207122A057880A6077880E6FF6412
:1039D000036004EFB4040512484E80C77880E6B453
:1039E000050B904101E020E4047603801D7880E619
:1039F000FFB40607904101E030E20BEFB4070B90F3
:103A00004101E020E404788076047880E6FF30E726
:103A1000071238AD7880A607306F09C26F90410752
:103A2000E04401F07880E66401704A904107E0309C
:103A3000E643903E02E0FF603C903E03E0FEC3EFB1
:103A40009E903E02F06015E0541F7007903E01E02A
:103A50006401F0904107E054BFF08011305A047FB8
:103A60000180027F00903E01EFF012C01E903E01E7
:103A7000E0909001F0904107E020E4030239A312A6
:103A80004DDE0239A3090220000101008032090441
:103A900000000208065000070501020002000705A9
:103AA00082020002000C121E0422183A28621072D0
:103AB0001C12010110000000408F058093010001DD
:103AC00002000104030904180341006C0063006F45
:103AD00000720020004D006900630072006F002832
:103AE000034D006100730073002000530074006FE9
:103AF00000720061006700650020004400650076E8
:103B00000069006300650010033600390039003099
:103B10000046003000310047656E657269632055CC
:103B2000534220466C617368204469736B202037D0
:103B30002E3736000000000000000000AAAAAAAA42
:103B4000AAAAAAAAEEEEEEEEEEEEEEEEFEFFFFFF62
:103B5000FFFFFFFFFFFFFFFF7FBFDFEFF7FBFDFC76
:103B60007EBFDFEFF7FBFD7E900E45E0900074F026
:103B7000900E46E0900075F0900E47E0900076F0D1
:103B8000229044007400F0A37400F02278407C0E70
:103B90007D017B017A0E79007E007F08120B1C905C
:103BA0004102E054FEF022F0904102E04441F02254
:103BB000903E0B74FFF0A3743AF0A374A5F022E0DA
:103BC000FCA3E0FDA3E0FEA3E02285131F903105D6
:103BD000E0F513903E06E0FEA3E0FFC394FFEE94F1
:103BE0000722904102E04451F0227A047900903E8D
:103BF0000B7401F0A3227881E654EAF6904101E0CB
:103C0000442AF0E054EA22900E45E0900075F090CE
:103C10000E46E0900076F022E493903E09F022A355
:103C2000F0E4903E09F022E4904104F078807601BF
:103C300022904106F0E4904105F022D253900E44C8
:103C4000E022903E207403F022E519601F90800B63
:103C5000E030E1037FEE22908010E0FC90800F7452
:103C600001F090800FE030E0F9AF0422E490800C86
:103C7000F090800BE030E1037FEE22908013E0753E
:103C80002500F524908010E0F523D378B396400307
:103C90007FEE22908006E0543025E0FCE52370039F
:103CA000023D231523908020E0FD908021E0F9ED76
:103CB00030E736E9700A9080301228A1908030F009
:103CC000B9010A9080311228A1908031F0B9020A1E
:103CD0009080321228A1908032F0B903BF908033D7
:103CE0001228A1908033F080B3EC600EED30E60630
:103CF000EC30E60680A6EC20E5A2ED546075F008F5
:103D0000A42525FFE52435F0FEE97A002FFFEA3EE1
:103D10008F82F583C083C0821228A1D082D083F025
:103D2000023C9C908010E0FF22205306121A791268
:103D30005CD9C266C263C264C265C267C25AC25F4E
:103D4000C260C25EC261C25DC258C250C2709004FD
:103D500003E0B45104D264805A900404E0B45104E6
:103D6000D266804F900405E0B45104D26380449041
:103D70000406E0B45104D2658039900407E0645130
:103D80007031D267900400E0B45102D25F90040E0B
:103D9000E0B45102D25E90040FE0B45102D26090C0
:103DA0000413E0B45104D25D8009900414E0B451CE
:103DB00002D25890040BE0B45102D25A900409E0A8
:103DC000B4510DE4903E02F090040AE0903E03F0FE
:103DD000305A047F0180027F00909001EFF0900440
:103DE00012E0B45106A26772639261900415E0B4C8
:103DF0005102D250900416E0B45102D2707F0322D7
:103E0000901000E064996003023EB4A3E064076090
:103E100003023EB4901003E0FF901002E02F243222
:103E2000FFE4FEFDEDC39F501074002DF582E434D5
:103E300010F583E02EFE0D80EB74002FF582E43444
:103E400010F583E06E706DD26B306B2390107DE0C7
:103E5000F4FF90107CE0B50716E0D394FA40089088
:103E60003E0574FAF0800890107CE0903E05F090DA
:103E7000107EE0643C703DA3E064C3703790108115
:103E8000E06403702FFEFD901080E0FFEDC39F50B3
:103E90001074802DF582E43410F583E02EFE0D8041
:103EA000E6901080E02480F582E43410F583E0B5DC
:103EB0000602D26A222065037F8222900013E0640A
:103EC0001060037F84227A047900121A81E4904101
:103ED00004F0904104E030E0F978847601789AE6C5
:103EE00030E0037F8722E4F51F7400251FF582E48C
:103EF0003400F583E07027051FE51FB410EB121A9C
:103F0000E57B147D077C0012C00F901080E0B4AAFE
:103F10000AA3E0B45505121AB7803D7F032290042E
:103F20008074AAF0A37455F0900400E0F520E4F545
:103F30001F7400251FF582E43404F583C083C0821A
:103F4000E0FFE51FFDE520121C31EF6ED082D0832B
:103F5000F0051FE51FB410D97F071221E1EF6005BE
:103F6000C25B7F03227F892278AEE66F7003024036
:103F70001678AEA60712C027EF4E700280FE908022
:103F80000AE054EEF0E4909002F09090057431F065
:103F90009090027401F09080147410F0908022F0E0
:103FA0009080237405F090801714F090801674C0F0
:103FB000F0908016E020E0F9E4908023F090800AF1
:103FC000E0FF903013E05410FEEF4E90800AF0783E
:103FD000A2E654C06004E04401F0E4909002F09046
:103FE0003192E07004A3E0601D90300CE0547090BA
:103FF0009005F0903192E0FEA3E0FF1242C0909055
:10400000057460F0800A90300CE04401909005F057
:104010009090027401F0228F20121AE5121BD950E1
:1040200014851321121C13AD207C007B1212C00FCB
:104030008521138003121AB7903E19E0900400F016
:10404000903E1BE0900401F0903E18E0900402F0D6
:10405000903E1AE0FB900403F0A374C0F0A25BE46E
:104060003325E0FE789AE6FD54012E900408F09086
:10407000047EEDF0E65406FFBF0604E04440F0E5A0
:1040800020B4020A903E18E0900480F0800AE520F7
:10409000B40305900480EBF0205F0E909000E030B8
:1040A000E307E4900481F080069004817401F090AD
:1040B000048274CCF0A37401F0205306121A791212
:1040C0005A677F0322903E057432F0E4789AF6082E
:1040D00076FF08F6903E087480F0C251C26CC26B45
:1040E000C26AC264C267C262C255C266C263C265A6
:1040F000C26190900AE0540F78B3F6762CC25AC28F
:104100005FC260C250C270C258C25EC25DC25C90E3
:104110003E681209DD00000000903E6C1209DD00CF
:10412000000000903E701209DD00000000903E7417
:104130001209DD00000000903E781209DD00000049
:1041400000903E7C1209DD00000000903E037410D8
:10415000F0E4789AF6903E1874C0F0903E1AF0E4BD
:10416000903E19F0903E1BF012522E125908221266
:104170002DAA9000027498F0A37401F078A7E6A32A
:10418000F008E6A3F008E6A3F008E6A3F0A3744A5B
:10419000F0A374CCF0A37401F090900AE090000BAF
:1041A000F0A26CE433A3F07898E6A3F090001074CA
:1041B0004AF0A3E513F0A251E433A3F0908007E0A6
:1041C000900013F090900EE0900014F09000207496
:1041D0004FF09000307448F0900040744EF09080A2
:1041E0000BE0900100F0909013E0900101F0A3E546
:1041F00019F0908009E0900103F0908011E09001A7
:1042000004F0909012E0900105F0908040E0900161
:1042100006F0125A677F0322900010E05402F51E48
:10422000E47F01FEFDFC7889121CA270037F8422CA
:10423000900011E020E107900018E030E74A125D9D
:1042400062EF603B900200E06035A3E09002001254
:104250001CF6702B900201E0FF7E00900200E07CD3
:10426000002400F9EC3402FA7B01C002C001121DE7
:10427000E7D001D002120B1C900201E0FF80327FD8
:1042800030121C817F308029121C7F900002740143
:10429000F0A3F09000057414F0A37401F0E51E255E
:1042A000E025E0240A900001F090000AE51EF07F6E
:1042B0001412518578891209C4000000007F03227E
:1042C0008E218F22E4FD79FFFCEC6402700302432F
:1042D00060909003EDF0909004E9F090900B7401E1
:1042E000F090900BE030E0F990900CE0FE90900D93
:1042F000E0FBEEF523EBF52490900CE0B52206E40C
:10430000B521027C02EC1460250470BDC3E5249540
:1043100022E5239521500DE970047C0180ABE9C3AF
:1043200013F980A5ED25E04401FD7C01809BD3E5D8
:10433000249522E5239521400FBDFF047C0280894E
:10434000ED25E04401FD80817C02E52465227004B6
:10435000E523652170030242C9EDC313FD0242C982
:10436000222065037F8222900013E0641060037FA7
:1043700084227A0279007E027F009044007402F069
:10438000A37400F0125CD978847601305B037F87D8
:1043900022121AE5121BD9506185131F121C137BC0
:1043A000107D077C0012C00F851F13900200E0FFF4
:1043B000E4F51FE51FFDEF121C317400251F121CD0
:1043C00021E06EFE7400251FF582E43400F583E0E1
:1043D0006E6011D25B121C6B74A5F0903E11745A82
:1043E000F07F8722051FE51FB410C8E4903E10F04F
:1043F000903E11F0789AE654FEF67F03227898E614
:1044000030E6047F0080027F80904104EFF0851346
:10441000207895E6F5137BA0122D5312C00FE4907F
:104420008014F07402122E0B122D3885F021F52223
:10443000E5188DF0A425182521F521908016E0209F
:10444000E0F97898E630E6047F0080027F809041B2
:1044500004EFF0904104E030E0F9908040E054FE39
:10446000F09080007485F0908001E522F0E521F065
:104470009080067484F0908005E030E0F990800030
:104480007410F0122DC2E4908014F08520137F0385
:1044900022206A037F0322205306121A79125CD964
:1044A000851320121ADF7B117D017C0012C00F855D
:1044B0002013E4F520E52025E0FFE433FE74822F8D
:1044C000F58274023EF583E0FF74002520121C2162
:1044D000EFF00520E520B408DCE4FFF520E52054EA
:1044E000072400121C21E0FE74002520F582E4342C
:1044F00004F583E06E2FFF0520E520B440DFEF7068
:1045000021900440E0789A30E40DE64410F6909053
:1045100016E054FDF0800BE654EFF6909016E04460
:1045200002F07F03228F20E520B40209903E19E0BB
:10453000D39402500EE520B4030C903E1BE0D394BC
:104540000240037F8922205306121A79125CD98512
:104550001321121ADFAD207C007B1112C00F8521C0
:1045600013124C3FE52064027024BFB00F903E1838
:10457000E0B4B008903E19E004F08005E4903E19E4
:10458000F0903E18EFF0306C26121C3D8021E520A3
:10459000B4031CBFB00F903E1AE0B4B008903E1BAD
:1045A000E004F08005E4903E1BF0903E1AEFF07FAF
:1045B0000322C299ED30E61275990D3099FDC2992A
:1045C00075990A3099FDC29980087599203099FD36
:1045D000C299ED30E01BEF75F00A842430F5993074
:1045E00099FDC299EF75F00A84E5F02430F59980C1
:1045F00032EF54F0C4540FFED39409400674372EA2
:10460000FE800474302EFE8E99EF540FFED3940971
:10461000400674372EFE800474302EFE3099FDC2A1
:10462000998E993099FDC299ED30E71075990D304A
:1046300099FDC29975990A3099FDC29922E4903E7C
:1046400021F0A3F0903E21E0FCA3E0FDC3EC940236
:10465000505D904102E05421600BE054FEF0903E2A
:10466000207404805C904102E030E007903E2074AA
:1046700002804E74002DF974043CFA7B01C002C024
:104680000178407C0E7D01D001D0027E007F401277
:104690000B1C9041037440F0904102E020E1F9903E
:1046A0003E22E02440F0903E21E03400F08095125C
:1046B0003BE2E4903E20F01259E0EF7008903E207B
:1046C00004F07F00227F0122909000E030E2037F1F
:1046D0000022909012E030E0037F0022122391EF3D
:1046E0007002FF22120EB490900AE020E70790902B
:1046F00000E030E411909016E030E00AE030E20390
:1047000012C0247F01227F207A3F79361228E67F6B
:10471000507A3E79E61228E67E007F387A3F798C1F
:10472000122928E4F514E5141229A1E514F0122841
:104730008E122958E51412288E12297712295F0546
:1047400014E514B408E01216317F012278A1E6F5D1
:1047500027E527D378AC96503E1228EFE0F525A345
:10476000E0F526C394FFE52594075027E526AE25FE
:104770007803CEC313CE13D8F912297F3EF583C038
:1047800083C082E0FFE526122986F4FEEF5ED08228
:10479000D083F0052780BA78A1E6F52778ACE6FF4C
:1047A000E527D39F5027E527B5070E1251DA78ACDD
:1047B000E61228F1EEF0A3EFF01228EFE0FCA3E000
:1047C000FDE52712299812512E052780CF22124A83
:1047D000F88F1EEF20E7747899E6B4101430620861
:1047E000121CA9121DEE8004121CB7FF788D12094D
:1047F000AC121C7F9000037410F09000087402F05B
:1048000090000AF0900012F07899E664017021306F
:104810005E1E903E1CE030E0179000037408F0909C
:10482000000AF0121E309000041209B87F0C8018A4
:10483000788D1209939000041209B8788D120993AB
:1048400090000C1209B87F14025185AF1E2290808F
:1048500016E020E0F9904104E020E1F97A007900C7
:104860007E007F00123B819000001209DD5553420B
:10487000537B007A00798512550A9000041209B81A
:104880007B007A00798912550A9000081209B878DD
:1048900080E6B403047F0080027F0190000CEFF0FB
:1048A000740D123C31306806C268903E15F090419C
:1048B00004E030E10C904102E030E0F212007E8032
:1048C000ED123B81123C2722E4904104F09042001B
:1048D000E05403700C904107E030E4F1124DDE80AB
:1048E000EC904200E0789830E004764080097680D1
:1048F00090800AE04480F0E47881F6903E04F090E5
:10490000900AE020E72F909000E020E428904104F6
:10491000E0FF904102E04F20E00C904107E030E4DE
:10492000EC124DDE80E7125CBEE4909010F09090A7
:1049300016E04401F07880760122124AF88F1EEFCB
:1049400020E7657899E664017030903E1CE0FF54E2
:1049500005FEBE010CEF4404F0903E1DE070020421
:10496000F0305E16903E1CE030E00F121E30121D3B
:10497000251209DD0000080080297899E6B410149A
:10498000306208121CA9121DEE8004121CB7FF78B9
:104990008D1209AC788D120993121D251209DD00C4
:1049A0000002007F08025185AF1E228513207895F2
:1049B000E6F513122D5112C00FE4908014F0908090
:1049C00005E030E7F9E4908006122D3885F021F5F6
:1049D00022E5188DF0A425182521F521908005E009
:1049E00030E0F9125A67125A67908040E054FEF0A6
:1049F0007405122DF1E522F0E521F090800074E0BD
:104A0000F09080067404F0908005E030E0F9122DFB
:104A1000C2125A678520137F0322125C6A121B029E
:104A2000FBC312095C50037F8A22903E7C121A8FCE
:104A3000121BF0400A903E1AE0B4B0037F892212A4
:104A40001A8C121C063508FC903E70121B17121BA4
:104A5000C9206009903E70121A8F121AEE12C00619
:104A6000AB07EB30E71378891209C400000000EBB4
:104A700030E0037F01227F0322121A9AE50D450CD4
:104A80007004788476017F89227899A607EF1460F4
:104A90004614601524FE601E24FC604424F8604027
:104AA00024907053903E688031306205903E6C8057
:104AB00003903E748024903E6CE0F8A3E0F9A3E0FC
:104AC000FAA3E0FB903E74123BBFC39BFFEE9AFE3D
:104AD000ED99FDEC98801A903E70123BBFFF80125A
:104AE000903E70123BBFFF2FFFEE33FEED33FDEC27
:104AF00033FC788D1209AC22307021903E18E0B45E
:104B0000B01A121D6E8003121E43D8FBFF7899E67F
:104B10007C00B50707ECB506037F85227899E6FF90
:104B2000789BE6FE5F6005EFF45E8033799CE77862
:104B3000995660037F8522205F29909000E030E342
:104B400010789AE620E71C4480F6789BE644F680CD
:104B50000E789AE630E70C547FF6789BE644F6F63A
:104B60007F86227F0022900010E0F51FA3E0FF1354
:104B700013543FF520E05403F508A3E0F509A3E042
:104B8000F50BA3E0F50AE51F6409702BE50B64073C
:104B9000450A6039121AE5121BD9501485132012E8
:104BA0001C137B10AD0BAC0A12C00F852013801DA7
:104BB0007DFF121B54801685131F8520137B10ADBB
:104BC0000BAC0AAF09AE0812C00F851F13125A674B
:104BD0007F0322A90790801AE0F523E054FEF090AD
:104BE0008005E030E7F9122DD0908005E030E7F93C
:104BF0007490122DF1EDF0E4FD9080047401F090BA
:104C00008002E0FCE9FEED7A002400FFEA3E8F829C
:104C1000F583ECF090800AE030E019908003E0FC2E
:104C2000E9FEED2400FFEA3EFE74082FF582E43E23
:104C3000F583ECF00DBD06C190801AE523F02290BB
:104C40000280E0B4FF08A3E0B4FF037FC022900419
:104C500080E0F9A3E0FF900280E0FEA3E0FDEF6DAD
:104C60007040FDEDC39F503D74822DF582E4340405
:104C7000F583E0FC74822DF582E43402F583E0FBD9
:104C8000121C618002C333D8FC596204121C61807B
:104C900002C333D8FC5E6203EC6B60037FB0220D6D
:104CA00080C17FB0227FA022AD071259E0EF7006CD
:104CB000903E20048051904102E030E506E054FE31
:104CC000F080E7904103E0540FFFBF0807904102D6
:104CD000E020E711123B9F904101E04401F0903E3B
:104CE0002074028022900E03E0B40316900E02E0BE
:104CF000B5050F900E01E0B40608900E00E0648048
:104D00006009903E207402F07F0022123B8C7F01EC
:104D100022124AF8EF70607899E664017056903E6E
:104D20001CE0FE54036401704BEE30E223903E1D04
:104D3000E0FEB401067402F07F8522EE6402703456
:104D4000903E1D7403F0903E1CE04402F07F8622EA
:104D500030600A903E1CE04402F07F0322903E1D2A
:104D6000E004F0E0D39406400BE4F0789BE64401C5
:104D7000F67F85227F0322228F1AEF75F004A42488
:104D800036F9743F35F0FA7B01C002C00178E27C4D
:104D90003E7D01D001D0027E007F04120B1C851ADB
:104DA0001BE51B602B75F004A4FFAEF02432F974F0
:104DB0003F3EFA7B01C00174362FF9743F3EA801D3
:104DC000FC7D01D0017E007F04120B1C151B80D1DD
:104DD00078367C3F7A3E79E27F0412291122909046
:104DE000017401F090801CE0540FFFBF0FF6E490B7
:104DF0008007F012C01E904107E04420F000000040
:104E000090901C7480F0E4F012C01E904200E054B8
:104E10000360F8904200E030E0117898E6B4800535
:104E2000E4904100F078987640800478987680E4A9
:104E3000909001F09080077440F0904107E054DFBB
:104E4000F0228D1FE4FEF520908014E0F521E4F5BA
:104E500022EF30E003432210EF5401FDC3EF9DFF2A
:104E6000908005E030E7F9AB07EBC3951F502CEBC2
:104E70001229CBE522F0908005E030E0F990800B1C
:104E8000E05403600FE4FF123C49AE07EED39520D7
:104E900040028E20E4F5220B0B80CE908014E52199
:104EA000F0AF2022125C6A121B02FBC312095C5095
:104EB000037F8A22903E7C121A8F121BF0400A90C8
:104EC0003E1AE0B4B0037F8922121A8C121C06909D
:104ED0003E70121B14121BC9206009903E70121AFA
:104EE0008F121AEE12C003AB07EB30E7137889126A
:104EF00009C400000000EB30E0037F01227F0322A1
:104F0000121A9A7F89227F207A3F7936121BB97F45
:104F1000507A3E79E6121BB97E007F387DFF7B0117
:104F20007A3F798C120A34E4F514121BA9E514F0C7
:104F3000121BABE075F00AA424EEF582E4343EF5D2
:104F400083E4F0A3F0121BA9E075F00AA424E6F5AF
:104F500082E4343EF583E4F0A3F00514E514B408CC
:104F6000C9021631908007E0F52090800AE0F52113
:104F7000125A0F122DAA90800A7401F0E4F522E56E
:104F800022122DB97895E6FD7F2E124BD3E52275BE
:104F9000F010A42400F9740035F0A801FC7A2E79F1
:104FA000007F10122D2F0522E522C3940840D090D7
:104FB0008007E520F090800AE521F0125A677F0310
:104FC000227895E6F51312C01578107C5D7A3E794B
:104FD000E67F70122D2F78807C5D7A3F798C7F3848
:104FE000122E15E47895F67895E6FFC39407502BBA
:104FF000EF7F0025E0FEEF2400F974503EFA7B01BC
:10500000C002C00178007C007D01D001D0027E0288
:10501000122CF8125A6778950680CC7F0322789577
:10502000E6FEC378AC9640037F0322903E02E0FF89
:105030006024904107E030E624903E03E0FDC3EF9A
:105040009D903E02F0541F700D903E01E06401F00F
:10505000909001F08000904107E054BFF0903E0234
:10506000E04440F08513208E1312C00C852013BF3E
:1050700081047F0180027F03227899E6FEB4010A51
:10508000903E1CE030E0037F83229000007403F028
:10509000E4A3F0789AE6FF54F960047D8080027DF5
:1050A00000900002EDF0E4A3F0EF5E5406600312FE
:1050B0001DFB2056033057097899E6B40103121DF1
:1050C000FB306C0A7899E654186003121DFB7F04CC
:1050D000125185228F1EE4F51FE51E30E71E122DAA
:1050E0000E125DE17403122D10125DE17403122D96
:1050F0001B125DE190901D7402F08018E4122D10D7
:10510000125DE1122D19125DE1122D19125DE1E41B
:1051100090901DF07895E6FF125DE1E51E25E0F523
:105120001E051FE51FC3940840AF125847228C2864
:105130008D2974002FF58274503EF583E529F0EF38
:1051400030E010E528540FC454F01228D4540F4D09
:10515000F0800BE528540F1228D454F04DF0E529C7
:10516000AE287803CEC313CE13D8F912297F3EF5AB
:1051700083C083C082E0FFE529122986FEEF4ED06E
:1051800082D083F0228F21E47F01FEFDFC7889121A
:105190001CA270037F8422AF21E4FCFDFE121E3AA4
:1051A0004025904106E521121E1030560280211242
:1051B0000993C007AF21AB07D007C3EF9BFFEE9465
:1051C00000121DAC7F8122788CE6904106121E10E1
:1051D0001209C4000000007F0322E4F9905DFDE0A5
:1051E000FC905DFEE0FDAF0474002CF582E4345CBD
:1051F000F583E0F528F46028EDC394085022ED9083
:10520000532E9355287016ED04905DFEF0905DFDD1
:10521000ECF075F008A4FFAEF0EF4DFF220D80D842
:10522000E4FD0CEC70C009B902BC1229D722E4904D
:10523000800AF07C021258EC908005E030E7F9908B
:10524000800074FFF0908005E030E7F97490125907
:1052500000FE9080047401F0908002E0900000F065
:10526000E0B4FF1A0EBE06EAEC5407FEC454F04E3A
:1052700090900EF00CECC3940940BA7411F022E443
:10528000903E00F0903E04F07895F608F608F6D2CD
:105290006EC26FC254C253C252903E20F0A3F0A31C
:1052A000F0C256C257903E10E0B4A50FA3E0B45A26
:1052B0000A789AE64401F6D25B8002C25BE4903E33
:1052C00002F0903E1CF0A3F07880760122EF047586
:1052D000F004A4142436F582F58475833F75853F68
:1052E000E0F5F01582E0FC1582E0FD1582E0FF1587
:1052F00082E00586F0158615821584E582B436F1C4
:10530000E00586F01584E5F0F01584ECF01584EDE9
:10531000F01584EFF0158622E4FF22000204061047
:10532000121416181A1C1E3050525434363801020A
:105330000408102040804080102004080102003F33
:10534000C0FF007FBFC000403F2F0000FFFFC00034
:1053500080807F7F7FFF0001020406081000800626
:1053600000FFAABBCCEE8F20E52030E0037F89222E
:105370008513217895E6F5137898E630E6047F00EA
:1053800080027F80904104EFF07BA0122D5312C069
:105390000FE4908014F0E520122E0BF0908016E0C0
:1053A00020E0F99080007410F08521137F03228F94
:1053B0001EE51E600678A476038004E478A4F6E473
:1053C000F51F78A4E6FF90901DF0E51E6006EFC380
:1053D00013F68011AF1F7401A807088002C333D8E9
:1053E000FC78A446F67895E6FF125DE1051FE51FFF
:1053F000C3940340CD22EF75F00C84FEEF75F00CE2
:1054000084AFF0EE90535693F509EEC39407500F16
:10541000EF90533E93F50BEF90534A93F50A22EF2A
:105420005401FEF404F50BEFC313FD7404A8050842
:105430008002C333D8FCC39EF50A22125C6A900036
:1054400015E0FF124A89121B41121BFD50037F8A8F
:105450002212591A12C006AB07EB30E713788912F3
:1054600009C400000000EB30E0037F01227F03222B
:10547000121A9AE50D450C7004788476017F892212
:10548000125D62EF6032900300E0602CA3E09003B5
:1054900000121DBA121D04701F900301E09003005A
:1054A000121D8DC002C001121DE7D001D002120BE7
:1054B0001C900301E0FF80097E007F22121C837F85
:1054C0002212518522125D62EF6032900302E06089
:1054D0002CA3E0900302121DBA121D04701F90034A
:1054E00003E0900302121D8DC002C001121DE7D01F
:1054F00001D002120B1C900303E0FF80097E007FA5
:1055000024121C837F2412518522EB700CE7FF09C3
:10551000E7FE09E7FD09E7FC2214701089828A83FF
:10552000E0FFA3E0FEA3E0FDA3E0FC22BBFE0CE352
:10553000FF09E3FE09E3FD09E3FC2289828A83E493
:1055400093FF740193FE740293FD740393FC22EFA6
:1055500012291A74FFF0A3F0EF1228C674FFF0129C
:10556000288D122977F583E412288A24E8F582E44D
:10557000343E12288624EAF582E4343E122886243A
:10558000ECF582E4343E12288612295822900075E8
:10559000E06003D38001C3926C900076E0903E08F7
:1055A000F0E0B420037402F0903E08E0B4400374CD
:1055B00004F0205313A26CE433900000F0903E08F6
:1055C000E0900001F0125A677F03228F20E520B49B
:1055D0000205121C5A600CE520B4030A903E1AE042
:1055E000B4B0037F8922121C29E520F0125A8EBF25
:1055F0000315E520B40205903E188008E520B403A9
:1056000006903E1A74A0F0228F20E520B402051205
:105610001C5A600CE520B4030A903E1AE0B4B003B3
:105620007F8922121C29E520F01258B1BF0315E52D
:1056300020B40205903E188008E520B40306903E91
:105640001A74C0F0227E027F00121C83E4FF7E02E7
:10565000FDFC121E3A40157889120993C3EF94009D
:10566000FFEE9402121DAC125A6780E0788CE6902F
:105670004106F018E6121E121209C4000000007F55
:105680000322900074E0B45106A3E0F52080037576
:105690002001121AE5121BD95014851321121C1374
:1056A000AD207C007B1212C00F8521138003121ADB
:1056B000B7205306121A79125A677F0322125C6AC6
:1056C000900015E0FF124A89121B41121BFD500386
:1056D0007F8A2212591A12C003AB07EB30E7137806
:1056E000891209C400000000EB30E0037F01227F33
:1056F0000322121A9A7F8922122DA0E4F520E520B8
:10570000C37895965026E520122D6FFAA9077B01E4
:10571000C002C00178007C007D01D001D0027E0271
:105720007F00122CF8125A67052080D2122E047FB7
:105730000322900011E0601590800AE020E02BE049
:105740004401F078A2E64440F6122DD72290800A58
:10575000E030E016E054FEF078A2E654BFF6E5171C
:1057600025E0F517E51825E0F518227D08E4FC1280
:10577000293DE0FAA3E06F7002EA6E602512293D30
:10578000E0FAA3E0FBBAFF08BBFF05BD0802AD04C9
:105790000CBC08DBBD08027D07ED12293EEEF0A32C
:1057A000EFF0227E007F12121C8390000074F0F054
:1057B0007895E6540F900002F0900007740AF07894
:1057C00096E690000CF07897E6A3F0E47895F678EA
:1057D00096F67897F67F1212518522205306121AF8
:1057E00079125CD9789AE654F9F6900401E030E633
:1057F00004E64406F6900401E030E106789AE644B7
:1058000002F6900401E030E206789AE64404F67F5E
:105810000322E4FF74002FF582E4345CF583E0F9A1
:10582000F4601CE4FDED90532E9359700EEF75F06B
:1058300008A47C002DFFEC35F0FE220DBD08E60F1C
:10584000EF70D11229D722122D0E125DE112586E7F
:1058500012586E90901DE0F5207402F07895E6FFE6
:10586000125DE1E52030E4037F01227F0022909069
:105870001D7403F07895E6FF125DE122125C6A1256
:105880001A8C121AEE12C006AB07EB30E7137889B8
:105890001209C400000000EB30E0037F01227F0307
:1058A00022121A9AE50D450C7004788476017F89DE
:1058B00022900074E0B45106A3E0F5218003752125
:1058C00001121AB720530A121A79125A677884768D
:1058D00001E52170037521FFAF211221E1EF600383
:1058E0007F03227F8922745090800AF09080077491
:1058F00040F0229042017431F090410274FFF02296
:10590000908000F0E4A3F022903E067407F0A374A8
:10591000FFF02290800BE05403227899E6FF6402A6
:10592000602AEF64806025EFB40405903E6C801619
:10593000121CB7121D5A7899E6B40110903E1CE073
:1059400020E009903E70121CBA121D5A22AD07AC1D
:1059500006ED30E00BECC313FEED1228DAC480082C
:10596000ECC313FEED1228DA540FFE74002DF582FD
:1059700074503CF583E07C002400FFEC3EFE228F57
:105980001C7F011253AF7F581250D4AF1C1250D459
:105990007895E6FF125DE17F011253AF7F591250F7
:1059A000D4125B6B8F1D125CA3E4FF1253AFAF1DCB
:1059B00022EF30E10790800B7420F022EF30E006F8
:1059C000E490800BF022EF30E20790800B7440F0FF
:1059D00022EF90800B30E3047408F0227410F02260
:1059E0007898E630E6047E0580027E0A90410780C2
:1059F00012904102E020E014904107E030E7F21EEF
:105A0000EE6006E0547FF080E87F00227F0122E410
:105A1000FFEFC39408502474C0A807088002C31382
:105A2000D8FC908007F0908005E030E7F9122DD087
:105A3000908005E030E7F90F0F80D622125C6A12E1
:105A40001A8C121AEE12C003AB07EB30E7137889F9
:105A50001209C400000000EB30E0037F01227F0345
:105A600022121A9A7F89227898E6B4400DE4904178
:105A700006F09041057402F0800C9041067440F0ED
:105A80009041057480F0904104E020E1F9229000FB
:105A900074E0B45106A3E0F5218003752101205381
:105AA00006121A79125CD9AF211221E1EF60037F4F
:105AB00003227F892220501F900013E030E118E07C
:105AC00020E014789CE6FF789956700BE6FE789BF0
:105AD00046F6EF4E789CF67F03227A00903F36E040
