:020000020000FC
:100000000252FB0207770207900207BD0207CF02E8
:1000100008240208AF0209410209520209650209D7
:100020007802098402099102099D0209A90209C204
:100030000209F3020A19020B010200000200000289
:100040004FAF020DC0023CC1024C65023A3202447D
:10005000BE020000023F12024BE2022B7A024E095E
:1000600002472A904102E030E505E054FEF022907C
:100070004103E0540FFFBF0807904102E020E7066C
:100080001235EB0207651235D8900E41E02402606C
:100090005214603114B40B0040030207659000A4B1
:1000A000F828287302010C02018F0207650202146E
:1000B0000207650202F00203100207650207070249
:1000C0000711020750900E40E064217013900E4417
:1000D000E0700D1236421235F31235CD123673220E
:1000E000020765900E40E064A1701E306104F002CA
:1000F000075EA263E433FFA262E4332FFFA267E44A
:10010000332F900E40F002075E020765900E40E02C
:10011000247F601014601E2402706A905000E090EA
:100120000E408058900E44E07008900E40F0A3F00E
:100130008056020765900E44E014601E248160081A
:1001400024FE60282482703A7881E630E0047F0142
:1001500080027F00900E40EF80227881E630E2043A
:100160007F0180027F00900E40EF80107881E630A2
:10017000E4047F0180027F00900E40EFF0E4A3F0E2
:1001800080060207650207659041037402F0229021
:100190000E40E07019900E42E0B4010F905000E064
:1001A00054FDF0904107E054FBF022020765900EE9
:1001B00040E06402705B900E42E07052900E44E0AA
:1001C0001460202481600824FE602C2482703C7816
:1001D00081E654FEF6904101E04402F0E054FEF066
:1001E0000202EC7881E654FBF6904101E04408F00D
:1001F000E054FBF00202EC7881E654EFF690410106
:10020000E04420F0E054EFF00202EC020765020740
:1002100065020765900E40E0600302029C900E426A
:10022000E064027074900E44E0706EA3E0606AE0D7
:10023000C3940550611235F4904102E0544170F8C6
:10024000900E45E024FE601214601714601C240315
:1002500070429042017483F0803A9042017485F0BC
:1002600080329042017407F0802A78007C007D0182
:100270007BFF7A35797F7E007F35120B0190410438
:10028000E020E1F91235CD743512367D90420174CB
:1002900009F080E980FE020765020765900E40E0E4
:1002A00064027045900E42E0703C900E44E0146091
:1002B000142481600824FE601B248270267881E665
:1002C0004401F680277881E64404F6904101E04439
:1002D00004F080187881E64410F6904101E0441063
:1002E000F080090207650207650207651235F422EE
:1002F0001235F4904102E0544170F8900E42E090C3
:100300004100F0904107E054FDF0E4905004F022E9
:10031000900E43E024FE606314607824FD600A14AC
:100320006059240660030206D7306B15123616504A
:100330000B7B1012076D7006C26B8002C26B851FAB
:1003400014306B117A00790012363A1235D0905081
:10035000097404800B1235FC9034F1E49390500939
:10036000F090500A7412F0900E43E06406600302AD
:1003700006DA90500A740AF00206DA90500B74FF05
:10038000F0A37434F074D112366B90500A7420F0DC
:100390000206DA306B15123616500B7B1212076DFF
:1003A0007006C26B8002C26B851F14306B0C123654
:1003B000367404F0A37400F080031235FC900E42F2
:1003C000E01209F303E30003F101040A0204270326
:1003D00004560404848004D68205638306C1860023
:1003E0000006D41235FC9034F31236649034F48055
:1003F0005C306B0B9050097416F0900402803D90B5
:1004000034F51236649034F68043306B0F9004025A
:10041000E02416905009F090040380209034F712E5
:1004200036649034F88026306A1A7A04798012365D
:100430003A7404F0748012366B900480E090500A95
:10044000F00206DA9034F91236649034FAE49390AC
:10045000500AF00206DA9004007404F0A314F0903D
:10046000500FE0900402F090500EE0900403F01260
:1004700036367404F0A3740012366C90500A74047B
:10048000F00206DA123687248E601424FD601724E9
:10049000DB601A241870201235B4124D5980117F78
:1004A000021251B9800A7F0212398480031220534C
:1004B000905020EFF08009123F9DC25312368E22D9
:1004C000C253905020E0B40303023F9D123F9D9021
:1004D00050207405F022123687248D605024F0607D
:1004E0004324ED605E24FB604C24A3606724FE601F
:1004F0005A24D06003020696900E47E030E1127E47
:10050000027F007D007B017A047900120A1902063D
:1005100013900E45E0905024F0900E46E09050234A
:10052000F00206671235B4124EE502068F7F021202
:100530004CDF02068F900E45E0900401F0124E79D8
:1005400002068FE4FF12290802068F123653124C5E
:100550002702068F9000747451F01236531250F433
:1005600002068F12362EE4905021F0A3F0C3905073
:1005700021E0940250447F84124592EF603C900E3B
:1005800045E0FF905021E0FCA3E0FD2400F58274DB
:10059000043CF583EFF0900E44E0FF74012DF582EA
:1005A00074043CF583EFF01251D7905022E02402FE
:1005B000F0905021E03400F080B3C3905021E094DB
:1005C00002500302076C7F85124592EF7003020709
:1005D0006C123F9DEF700302076C7F81124592EF12
:1005E000700302076C123687248F7003020674248E
:1005F000FD700302067B24F3607224E87003020698
:100600008224FC700302068C24A8607B24CB600348
:10061000020696900E45E05407F508A3E0F5099010
:100620005024E0F50A905023E0F50BE4F50C900E11
:1006300045E054F0F50DE030E31990506C12360BA4
:10064000250BF50BEE350AF50AED3509F509EC3504
:1006500008F508E50D7003750D019050207480F0C9
:1006600012C006EF30E73412368E802F1235B412E6
:100670005084801B7F02124CA280147F02123E85A0
:10068000800D122A4380081236958003123DF190A6
:100690005020EFF0800512368E8012905020E0B48A
:1006A00003047F0080027F05905020EFF0C25312B8
:1006B000362E124F80EF600302076C90502004F03A
:1006C00022905020E0900E40F0E4905020F09041B5
:1006D0000304F022020765020765900E47E07015DB
:1006E000900E46E0FF90500AE0D39F4008900E46DF
:1006F000E090500AF090500AE0700412362E2290DA
:100700000E43E0FF022DDB905004E0900E40F0809D
:100710004D123642F0900E42E0B4011A905004742B
:1007200001F0904107E044021235F3E4909001F0AB
:1007300090900704F022900E42E07012905004F066
:10074000904107E054FD1235F3909001801380151D
:10075000900E44E07006900E40F0800280079041B9
:10076000037401F022904101E04401F0227D017CFC
:100770000012C00FEF4E22BB010689828A83E0225D
:100780005002E722BBFE02E32289828A83E493229D
:10079000BB010CE58229F582E5833AF583E022501E
:1007A00006E92582F8E622BBFE06E92582F8E22268
:1007B000E58229F582E5833AF583E49322EF8DF013
:1007C000A4A8F0CF8CF0A428CE8DF0A42EFE22BCDD
:1007D000000BBE0029EF8DF084FFADF022E4CCF8D1
:1007E00075F008EF2FFFEE33FEEC33FCEE9DEC9836
:1007F0004005FCEE9DFE0FD5F0E9E4CEFD22EDF8BC
:10080000F5F0EE8420D21CFEADF075F008EF2FFF5E
:10081000ED33FD4007985006D5F0F222C398FD0F46
:10082000D5F0EA22E88FF0A4CC8BF0A42CFCE98E62
:10083000F0A42CFC8AF0EDA42CFCEA8EF0A4CDA848
:10084000F08BF0A42DCC3825F0FDE98FF0A42CCD51
:1008500035F0FCEB8EF0A4FEA9F0EB8FF0A4CFC531
:10086000F02ECD39FEE43CFCEAA42DCE35F0FDE4BB
:100870003CFC2275F008758200EF2FFFEE33FECDB1
:1008800033CDCC33CCC58233C5829BED9AEC99E550
:100890008298400CF582EE9BFEED9AFDEC99FC0FE0
:1008A000D5F0D6E4CEFBE4CDFAE4CCF9A88222B8A8
:1008B00000C1B90059BA002DEC8BF084CFCECDFC2D
:1008C000E5F0CBF97818EF2FFFEE33FEED33FDECBA
:1008D00033FCEB33FB10D703994004EB99FB0FD8A3
:1008E000E5E4F9FA227818EF2FFFEE33FEED33FD41
:1008F000EC33FCC933C910D7059BE99A4007EC9B40
:10090000FCE99AF90FD8E0E4C9FAE4CCFB2275F0CF
:1009100010EF2FFFEE33FEED33FDCC33CCC833C8E0
:1009200010D7079BEC9AE899400AED9BFDEC9AFCE6
:10093000E899F80FD5F0DAE4CDFBE4CCFAE4C8F995
:1009400022EB9FF5F0EA9E42F0E99D42F0E89C45DB
:10095000F022E8600FECC313FCED13FDEE13FEEF85
:1009600013FFD8F122E8600FEFC333FFEE33FEED43
:1009700033FDEC33FCD8F122E6FC08E6FD08E6FE88
:1009800008E6FF22E6FB08E6F908E6FA08E6CBF8F7
:1009900022ECF608EDF608EEF608EFF622ECF0A3EE
:1009A000EDF0A3EEF0A3EFF022D083D082E493F633
:1009B00008740193F608740293F608740393F674AE
:1009C0000473A8828583F0D083D0821209D91209DA
:1009D000D91209D91209D9E473E493A3C583C5F0E8
:1009E000C583C8C582C8F0A3C583C5F0C583C8C583
:1009F00082C822D083D082F8E4937012740193707D
:100A00000DA3A393F8740193F5828883E4737402B1
:100A1000936860EFA3A3A380DFEF4E6012EF600145
:100A20000EEDBB010B89828A83F0A3DFFCDEFA2284
:100A300089F05007F709DFFCA9F022BBFEFCF3099F
:100A4000DFFCA9F022E709F608DFFA8046E709F2A1
:100A500008DFFA803E88828C83E709F0A3DFFA8002
:100A600032E309F608DFFA806EE309F208DFFA8064
:100A70006688828C83E309F0A3DFFA805A89828A30
:100A800083E0A3F608DFFA804E89828A83E0A3F22E
:100A900008DFFA804280D280FA80C680D4805580F8
:100AA000F28029801080A680EA809A80A880DA806F
:100AB000E280CA802988848C8589828A83E493A312
:100AC0000586F0A30586DFF5DEF3800B89828A8335
:100AD000E493A3F608DFF9ECFAA9F0EDFB22888491
:100AE0008C8589828A83E0A30586F0A30586DFF6DC
:100AF000DEF480E389828A83E493A3F208DFF9803D
:100B0000D688F0EF60010E4E60CD88F0ED2402B47F
:100B1000040050C3F582EB2402B4040050B923232F
:100B2000458223900A9573E4F520F52012185BE4C2
:100B3000F521F522C3E522789E96E521189640031B
:100B4000020D577B40E4FDFCAF22AE2112C00FEF37
:100B500064FC7003EE64036003020D4C905006E5E4
:100B600021F0A3E522F01217C47B14E4FDFC12C0AF
:100B70000FEF4E7003020D5790100EE0649060036B
:100B8000020D57A3E064CA6003020D5790100A12C9
:100B900017E01218D69010111217E090506C12093D
:100BA0009D9010161217E090507012099D90101B26
:100BB0001217E090507812099D9010211217E090C2
:100BC000507C12099D9010261217E01218DC90102C
:100BD00030E024FF925F901034E024FF9264901084
:100BE00036E024FF9255901038E024FF9266A3E08F
:100BF00024FF9263A3E024FF9265A3E024FF9267A1
:100C000090103FE024FF925AA3E024FF9260A3E0FB
:100C100024FF925CA3E0905003F0901043E024FF87
:100C2000925EA3E024FF9261A3E024FF925DA3E023
:100C300024FF9258A3E024FF9250A3E024FF927077
:100C4000305A047F0180027F00909001EFF09010F5
:100C50002EE0789A46F6909016E030E104E654EFE4
:100C6000F6121737FF90506C1217B3FBD3120941DD
:100C7000400A90506C1209C20000000090506C12A3
:100C8000173AFFEC4D4E4F6002D262305F099090F0
:100C900000E030E302C267E4F520E520C378AB96BC
:100CA000502175F002E520A42400F582E5F034110E
:100CB000F583E0FEA3E0FF12181FEEF0A3EFF005AE
:100CC0002080D71217C47D01120DAC7003020DA74E
:100CD00012376C1217C47D02120DAC7003020DA7FF
:100CE000901080E0B4FF09A3E0B4FF047FC080024D
:100CF0007FB0905018EFF01217C47D03120DB6703C
:100D000003020DA7901080E0B4FF09A3E0B4FF0434
:100D10007FC080027FB090501AEFF01217C47D0799
:100D2000120DB67003020DA7901080E064AA701730
:100D3000A3E0B455121218FDE0B4A50D905011E0D7
:100D4000B45A06D25B8002D25B7F01220522E522E3
:100D500070020521020B349050067403F0A374FF57
:100D6000F0E4F52078ABE6FFE520C39F5013789FB1
:100D7000E6FC08E6FD12181FECF0A3EDF00520805C
:100D8000E37E00789FE6FC08E6FD1207BD8E218F0A
:100D900022AB07AA06E4F9F8AE0EAF0FFCFD12086D
:100DA000241218D61218DCD25B7F00227B147C0040
:100DB00012C00FEF4E227B147C0012C00FEF4E22A8
:100DC0007E057F007A3479001239577E007F807D5E
:100DD000007B017A397980120A19E5145407F50964
:100DE000E5141313543EF5087895A614905302E0C9
:100DF000F514E4908040F0905300E064A060127815
:100E0000A4E6FE08E6FFAD08E5122DFDE433FC8004
:100E10001DAF0875F002EFA42410F582E5F03453FD
:100E2000F583E0FCA3E0FD78A4E6FE08E6FF7B0482
:100E300012C00FA259E433908040F07895E6F51483
:100E4000AF09EF75F080A42400F9741035F0FA7B37
:100E500001C002C00178007C397D01D001D0027E42
:100E6000007F80120B01E4F5151238F21239277455
:100E7000FFF0A3F01238F212393174FFF0A3F01230
:100E800038F212397074FFF0A3F00515E515B404BB
:100E9000D8E4F515F50AF50BC3E50B78A296E50A3B
:100EA00018964003020FEA123944CEC313CE13D86A
:100EB000F91239061238D45E6003020FDF7B40E47A
:100EC000FDFCAF0BAE0A12C00F9039A812393BE0FF
:100ED000A330E71D123944CEC313CE13D8F912390B
:100EE00006C083C0821238D44ED082D083F0020F65
:100EF000DFC39039A9E094FF9039A8E09403400340
:100F0000020FDFE0FEA3E0FF124C659039AAEEF07D
:100F1000A3EFF09039AAE0B40311A3E0B4FF0C9062
:100F200039A812397A123CC1020FDFE515C39404C7
:100F30004003020FD69039AAE0FEA3E0FF12C018CA
:100F40009039ACEEF0A3EFF09039ACE0650E700490
:100F5000A3E0650F702D1238F2123931E50AF0A3C3
:100F6000E50BF01238EA123927EEF0A3EFF0AF0BE1
:100F7000AE0A12C0189039AC12393B12397A123CC1
:100F8000C180321238EA123931EEF0A3EFF0123894
:100F9000F2123927E50AF0A3E50BF0123944CEC36B
:100FA00013CE13D8F9123906C083C0821238D44E3A
:100FB000D082D083F09039AC1238ED2480F582E4F1
:100FC0003439F58312393B1238ED123970EEF0A343
:100FD000EFF0051580097D01AF0BAE0A12C01205B6
:100FE0000BE50B7002050A020E9878A17FFE121025
:100FF0004CC3E50B789E96E50A18965024123944A6
:10100000CEC313CE13D8F9123906C083C08212386A
:10101000D44ED082D083F0050BE50B70D4050A8046
:10102000D0905302E0B5140778A47FFD12104C7ED7
:10103000007F087A3979B81239577E027F007D0027
:101040007B017A3A7900120A197F0122E6FC08E650
:10105000FD7E03123CC122909001E0700302128DCC
:1010600078B176209090077401F0909001E024FE12
:10107000700302110C24F7700302117C240224FC7B
:10108000400302112F700302117414700302116CDB
:101090001470030211EE240E6003021284125041F8
:1010A000904102E030E7F9904102E030E0F9E4F5E8
:1010B00012E512904A7D93FF74002512F582E43404
:1010C0000EF583E06F60030212860512E512B40884
:1010D000E0900E407411F0A37422F0A37433F0A3D7
:1010E0007444F0A37455F0A37466F0A37477F0A36E
:1010F0007488F0E4904102F0A37408F0904102E09B
:1011000020E1F99090017401F00212841250419094
:101110004107E030E4F990801CE0540FFFBF0FF668
:10112000E4908007F0904107E04420F0021284AF81
:101130000BAE0AAD09AC08C006C007AE0CAF0DABD4
:1011400007AA06E4F9F8D007D0061208AF8F0B8E75
:101150000A8D098C08AF0BAE0AAD09AC08780A12EB
:1011600009528F0B8E0A8D098C0880FE90800B74BB
:1011700010F0800D90800B7408F08005E490800BD7
:10118000F07410125036E4F51512517BE4F514E4B6
:10119000908006F0908005E030E0F912505660052E
:1011A000E4FF123A320514E514C3940240E1908042
:1011B0000A7411F090800774FFF07515021252B591
:1011C0007512021250D012517B90800774C0F0E467
:1011D000908006F0908005E030E0F91250566004EF
:1011E0007F0080027F01909001EFF0021284125084
:1011F00034E4F51512517BE4908006F0908005E010
:1012000030E0F9E4908006F0908005E030E0F9905D
:10121000800A7413F090800774C0F0125264125266
:10122000B59080407401F012527C90803074AAF026
:101230007512011250D012517B9080147404F01278
:10124000527CE4908030F0908006F0908005E03091
:10125000E0F91252641250341252B59080147404A2
:10126000F0E4908040F07512021250D01250566097
:10127000047F0080027F01909001EFF090900AE0DF
:10128000908000F080FEE4909001F080FE7598520E
:10129000758921758DFFD28EE4F58CF58AD28C4349
:1012A00087807898F675995590900174FFF0123008
:1012B0002690900AE020E707909000E030E408E4F0
:1012C000905014F0125138909016E04401F0E490E0
:1012D000900FF00233E62056432057407888E660AE
:1012E0000A7987E77886461846601E7F457E407DEE
:1012F000357C747885121B04600F7F427E497D4FD8
:101300007C537885121B047002D2567885E6600CF7
:101310007988E778874618467002D25730674220AE
:10132000583F205703305639205D36206115A262A0
:10133000E4332401FFE433FE7883E6FDB5070AE4D5
:10134000B50606789976018011ED14FF7402A8079E
:10135000088002C333D8FC7899F67899E6FF1243E7
:1013600074306B1885141E121BFF7B107D017C00EE
:1013700012C00FEF4E7002C26B851E147899E6FF03
:10138000B4012590500B74FFF0A37452F0A3742F96
:10139000F0206B03021422900120E064AA60030293
:1013A000142290500B048051306B59900002E07C65
:1013B000002416F9EC3400FAA3E029F9EC3AFA908B
:1013C000500B7401F0A3EAF0A3E9F0EF5414601796
:1013D000900140E0B4AA1090500B7401F0A3740186
:1013E000F0A37442F0803B7899E6B4083590012070
:1013F000E0B4AA2E90500B7401F0A37401F0A37412
:1014000022F0801E9034FBE493905009F07E00247B
:10141000F1F9EE3434FA90500B74FFF0A3EAF0A324
:10142000E9F0121CAC7480F0A37402F0A3F0A37472
:101430001FF0E4A3F0A3F0A3F0F51E90500BE0FB27
:10144000A3E0FAA3E0F9851E82758300120790FFDE
:101450007408251EF582E43400F583EFF0051EE5DF
:101460001EB420D7206B0302150C30550320560301
:10147000306605E4900001F0751E017899E6FD6480
:1014800001703F9000237430F02060237888E66478
:1014900005701C18E6B48F1718E6B4931218E6B45A
:1014A000840D121CACF090501CE054FEF0804B9068
:1014B00000007405F0A37480F090501CE04401F02B
:1014C00080383066089000237435F0802D30650830
:1014D0009000237436F08022306408900023743723
:1014E000F08017306311ED900023B408057439F0D3
:1014F00080087438F08003E4F51EE51E600E90004D
:10150000207438F0A3742EF0A37430F07F241248B6
:10151000EF22900012E07895F6A3E0F508A3E0F53D
:1015200009900015E0F50AA3E0F50B78891209A9E6
:1015300000000000900010E01209F3158D001590D6
:101540000115980215AB0315AE04161A0515B10660
:1015500015B40715BD0815B70915C00A15C30B1535
:10156000C60C15D80E168A1015DB1115DE1215F5EE
:101570001316C61B16D81C16EE1D17081E161428A7
:1015800016172A160B80161181000017210240A899
:10159000900011E0FF02320B900017E0FEA3E0FF85
:1015A00012C021900011E0FF024A8502519B0249BE
:1015B0009702421E023D5A124F1A7F03220251F532
:1015C0000227C102478A7895E6FF5470FEEF540760
:1015D0004E90900EF07F0322024127024DCF12520F
:1015E0004B7895E67800FC7A0079007E027F001245
:1015F00018547F03227895E6FA79007B01C002C077
:10160000011218ACD001D0020216CF121762024CA0
:10161000270252A3024D94024B137D0012184790EB
:1016200000007460F0A37404F090000304F0E4F58B
:101630001FAF1F124ACEE51F75F004A4AEF02410B0
:10164000F50DE43EF50CFE7400250DF58274003EA8
:10165000F583E51FF07401250DF58274003EF583D6
:10166000E509F07402250DF58274003EF583E50A64
:10167000F07403250DF58274003EF583E50BF0054B
:101680001FE51FC3946040A9805E900011E0F51F24
:10169000AF1F151FEF602CAE08AF09E42FFFE43E2B
:1016A000FAA9077BFFC002C0011218ACD001D0021A
:1016B0007E027F00120B011217CD12505D05080546
:1016C0000880CD7F03221218AC7B017A5279007E0C
:1016D000027F00120B0180101218AC7B007A007997
:1016E000007E017F00120B0112505D7F03229000EB
:1016F00011E0600AD2599080407401F08007C2590D
:10170000E4908040F07F0322900011E090800A6016
:1017100006E04402F08004E054FDF01248987F0394
:10172000227F83227A0479007E047F009044007433
:1017300004F0A37400F022905074E0FCA3E0FDA339
:10174000E0FEA3E022908017E0250DF50DE4350CB6
:10175000F50CFEAF0DE4FCFD7809120965788902ED
:101760000991900010E0900074F0900011E090005A
:1017700075F0900012E0900076F0227DFF7E027FEF
:10178000007B017A047900020A19250BF50BEE356E
:101790000AF50AED3509F509EC3508F50822E50DDD
:1017A000250BFFE50C350AFEE43509FDE490507881
:1017B0003508FCE0F8A3E0F9A3E0FAA3E022905397
:1017C00005E0F514905006E0FEA3E0FF227A0079D0
:1017D000007E007F009044007400F0A37400F022AB
:1017E000E0FCA3E0FDA3E0FEA3E0FF22E50D250B56
:1017F000FFE50C350AFEE43509FDE43508FC22F06E
:10180000A261E433A3F0A25DE433A3F0A258E43371
:10181000A3F0A250E433A3F0A270E433A3F022E5D6
:101820002025E02400F582E43451F58322F0A266FD
:10183000E433A3F0A263E433A3F0A265E433A3F09E
:10184000A267E433A3F0227E027F007B017A007955
:1018500000020A197D017B01020B01905305E0F59E
:1018600014222FF50BEA3EF50AE93DF509E83CF5AF
:10187000082275F002EFA42400F582E5F03405F5A6
:101880008322FFAB0BAA0AA909A808C30209417861
:101890008D120984C3020941250BFFEE350AFEEDC6
:1018A0003509FDEC22C394FFEE94032278007C00FE
:1018B0007D0122F582E43402F58322900074745194
:1018C000F0A3222DFDE4338D82F583E493FE22788C
:1018D0009BE644F6F62290506802099D90507402EF
:1018E000099D04F0A264E433A3F0A322905018E011
:1018F00064B022ED5407FA7401A8020822789AE62F
:101900004401F6905010221231F0440190900512DB
:1019100031E1905212E0F51390800AE0FF905213EB
:10192000E0FEEF4E90800AF09053F0E0F50EA3E059
:10193000F50F9053F2E078ABF69053F4E0F510A376
:10194000E0F5119053F6E078ACF69053F8E0F5121C
:101950009053FA1231329053FC789F1231349053E5
:10196000FE12319A905391E0909009F0905394E0D8
:1019700060031231D41231A578827614E4F522780E
:1019800082E6FF2400F582E43452F583E0640C60C3
:1019900003021AB474012FF582E43452F583E0FE99
:1019A000C4540F1231BE74022FF582E43452F58311
:1019B000E07880F67882E62403F582E43452F583F9
:1019C000E07881F6908005E030E7F9E4F520E52045
:1019D000C3788096502AAF207401A807088002C3FC
:1019E00033D8FCF5217881567882600912316190F4
:1019F0008000F08007123161908001F0052080CED8
:101A00007882E62401F582E43452F583E0540F78BD
:101A100080F6E630E0037F0022E4F520E520C3787D
:101A200080964003021AABE520540725E02410906D
:101A30008014F0908005E030E7F9E4908006F090A3
:101A40008005E030E0F990800BE05403600CE0305A
:101A5000E1037F0022E4FF123A32908005E030E19A
:101A60000A90800AE020E1037F002205200520E59E
:101A7000205407F5216007E520788066709EE521F7
:101A80007003752108E5217F0025E0FEC006C00730
:101A9000E522123174A807FC123191D007D006124A
:101AA0000B01E5212522F522021A1C7882740C26EE
:101AB000F602197FE5227F0025E0FEEF24FEF58285
:101AC000749F3EF583E0B4550FEF24FFF582749FB9
:101AD0003EF583E064AA60037F00221231FA7F01A1
:101AE000227F147E007D007B017A007900020A19B2
:101AF000E50D250BFFE50C350AFEE43509FDE4355F
:101B000008FC788D120984C302094190506CE0F8FA
:101B1000A3E0F9A3E0FAA3E0FB905074E0FCA3E09B
:101B2000FDA3E0FEA3E022908017E0250DF50DE473
:101B3000350CF50CFE7809AF0DE4FCFD1209657853
:101B40008922AF0BAE0AAD09AC0878021209658F85
:101B50000B8E0A8D098C0822FFE02FFFE433FE7400
:101B6000002FF58274023EF583E064AA22C2547A03
:101B70000079007E007F009044007400F0A37400A0
:101B8000F0E4904104F022EF24FFFFEE34FFFEED7D
:101B900034FFFDEC34FFFC90000012099D9000041E
:101BA00022904101E04410F07881E64410F622745E
:101BB00000251FF582E43402F583E022250BF50BA6
:101BC000EE350AF50AED3509F509EC3508F5082278
:101BD000A25CE433FF74047E00A8070822AE0CAFB9
:101BE0000DE4FCFDFB7A02F9F8120824788922FF43
:101BF0007E00E07C002400F9EC3403FA7B012290A3
:101C00005305E0F514905006E0FEA3E0FF22FEED40
:101C10009400FDEC9400FC7889020991FFE02FFF0D
:101C2000E433FE74002FF582740322905003E0FE2B
:101C3000C3EF9E905002F0541F227401251FF582BD
:101C4000E43402F583E024022278007C007D012246
:101C5000C39BFFEE9AFEED99FDEC98FC22900002EA
:101C60007480F022789576057896227895760278B9
:101C70009622F0E4904105F0788922905001E064CA
:101C800001F0909001F022AB0BAA0AA909A8080262
:101C90000941788D1209787802020952788912096F
:101CA00084D3020941CEA2E713CE1322E4900000B0
:101CB000F0A322789576067896228F22205206206D
:101CC00053037F0122905305E06514600E305103E9
:101CD00012C00912185B7F0112C01520510E78A1A5
:101CE000E6FE08E6FF7D0112C012D2517FFC7E03A2
:101CF000124C658E0A8F0BE50BB4FF16E50AB40390
:101D0000117E107F007DFF7B017A107900120A1985
:101D10008021E47891F67891E6C394085015E6FDA9
:101D20007C00E62404FBAF0BAE0A12C00F789106CC
:101D30000680E3E522B4FF097508037509FF021E5A
:101D40005B124FAF8E088F09BEFF06BFFF037F00F7
:101D500022E5227F0025E0FEEF2400F974103EA862
:101D600001FC7D017B017A0479007E02120B01E403
:101D70007891F67891E6C394084003021E5B2052E6
:101D8000062053037F01227891E68512F084E5F066
:101D90007011E6FD7C007BA0AF09AE0812C00FE415
:101DA0007892F67FFC7E0312C0219053EEE030E380
:101DB0003D7892E6904A4D93FF9053EFE05F7003B9
:101DC0000680EE7892E6FFE5178FF0A408A6F008EB
:101DD000F67892E6FFE5188FF0A40826F6908000CA
:101DE0007485F008E6908001F018E6F01806789106
:101DF000E625E02410908014F090800674E0F090C6
:101E00008005E030E0F97891E624028512F084E55F
:101E1000F06007E624025407703A9080007410F0D6
:101E2000908005E030E7F9E51320E5289080007404
:101E300070F09080047401F0908003E0FF908002C5
:101E4000E04F30E00F7BC1E4FDFCAF09AE0812C0EB
:101E50000F021D4178910606021D73C3E50B94FF26
:101E6000E50A940350097D01AF0BAE0A12C012AD12
:101E700009AC087FFC7E03123CC1905006E508F0D7
:101E8000A3E509F07F01221252127899E6640170ED
:101E90002E90501CE030E027AE0CAF0DE4FCFD7836
:101EA0000B1209657889121B047014121B42E50D90
:101EB000AE0C7802C333CE33CED8F9F50D8E0C12AA
:101EC0001BDD121B0460037F84221243E38F1EEF8D
:101ED00030E70122788D120978D3121C874009302F
:101EE0005603021FEE7F8A22121AF050037F8A22C5
:101EF000905002E0FF6011904107E030E611121CA3
:101F00002B7005121C7B8000904107E054BFF090BD
:101F10005002E04440F0306930C269D268905015F8
:101F2000E0FEB40115905016E0B4010E905017E099
:101F3000B40107789C76FF7F8622905017EEF090D0
:101F400050157401F0905016F02064047F01800257
:101F50007F00905018E0B4B0047E0180027E00EE55
:101F60005F700302200D121BD08003121CA5D8FB4A
:101F7000FF7899E66F7001EE600302200D788912F8
:101F800009A900000000E4FFFEFDFCC3121C8770DD
:101F90005D7899E6B4040B90506C121B1CF50B1283
:101FA0001B5190501EE50CF0A3E50DF0750C00756B
:101FB0000D0112C0038F1EE51E30E71890501EE081
:101FC0007004A3E06401700FE51E30E0047F01801F
:101FD000027F03227F8922908016E020E0F9905052
:101FE0001FE024FFF50D90501EE034FFF50C7E0C31
:101FF0007F007DFF121AE7E50D450C600D12505D64
:10200000E50D150D70F1150C80ED7F0322124F4D7B
:1020100012C0038F1EE51E30E72D30E01C904102F8
:10202000E030E003120063904104E020E1EF30541F
:1020300003121B6D751E018003751E03788912093A
:10204000A9000000008009121B27120991751E8942
:10205000AF1E227D0012177D90506812173AFF9034
:10206000040012099D90040474CAF0A37403F0A341
:1020700074A1F07B017A50796C124BE29004071244
:10208000099D90040B74A2F07B017A507978124B71
:10209000E290040C12099D90041074A3F0E4A3F0E4
:1020A000A26C33A3F0A374A4F07B017A50797C1264
:1020B0004BE290041412099D90041974A5F07B0161
:1020C0007A507970124BE290041A12099D90041F05
:1020D0007401F0A374A6F0A25FE433A3F09004238C
:1020E00074A7F09004261218E274A9F090042B044F
:1020F000F0A26DE433A3F090900AE090042DF090EC
:10210000042F74AB12182DA25CE433900436F0A2B5
:102110005AE433A3F0905003E09004381217FF7B89
:10212000017A507974124BE290050012099D9005D6
:102130000474B0F0905019E0900505F090501BE049
:10214000900506F0905018E0900507F090501AE0C6
:10215000900508F0A374C0F0789AE6A3F0A374B1D8
:10216000F090051004F0789FE6A3F008E6A3F0A332
:1021700074B3F0A26CE433A3F0905008E09005151E
:10218000F0A374B4F0789BE6FFA3F0789CE6FEA37E
:10219000F0A374B5F090052404F0A3EFF0A3EEF0E3
:1021A00090053074B7F0909000E0900531F0900504
:1021B0003574B8F090054004F0905302E09005416A
:1021C000F078A4E6A3F008E6A3F0905305E09005AC
:1021D00044F0905006E0900545F0905007E09005DF
:1021E00046F078F07C057A5379F07E007F10121863
:1021F0005420530612172412505D7F03223065309D
:10220000789AE630E02A90000FE0248F24FC501DDD
:1022100024F2601924ED601524FC60140424FB50A2
:102220000C24A9600824FB6004247970037F8222B7
:10223000D25290000FE01209F3237D102384112263
:10224000DA12233571233972233D732341742345F8
:1022500075235076235977236278236B7B23747C14
:10226000231581232082232B83230B9622BA9722C6
:10227000EB9922F39A22FB9B22D29C23039D22E31B
:10228000F5229AF622A2F722C2F822AAF9238BFAA3
:1022900022B2FB22CDFF000023921246C88F1E02FD
:1022A00023951243058F1E022395124EB08F1E02F6
:1022B00023951250098F1E0223951253078F1E0279
:1022C00023951217621250F48F1E0223951252C5E5
:1022D000800B1244518F1E022395125116751E0356
:1022E0000223951236958F1E022395122A438F1EC4
:1022F0000223951220538F1E022395124E798F1EB2
:10230000022395123DF18F1E0223957F01122908A9
:102310008F1E0223951217621250848F1E0223957E
:10232000121762124D598F1E022395121762124E18
:10233000E58F1E80607F0280197F02801E7F0280F1
:10234000237F02802890501CE04402F07F02802608
:102350007F03124CA28F1E803C7F031251B98F1E47
:1023600080337F03124CDF8F1E802A7F03123E854D
:102370008F1E80217F031239848F1E8018123C2506
:102380008F1E80111238218F1E800A1215128F1E87
:102390008003751E82C252AF1E2290000FE0FF78AC
:1023A00089120984E8494A4B601290000CE064806D
:1023B00060047E0380027E028E1D8003751D0178FD
:1023C00084A61DEF1209F324A800248E03242912E9
:1023D000244B1A249B1B24B51E246D23247E252404
:1023E000072824182A243A2F24C24324CF4524D670
:1023F0004624F74A24DD5124E452245C5A24EBBBE2
:1024000024F0BD000024FEE51D64026003022506E1
:10241000121E878F1C022503E51D6403600302253D
:1024200006122F058F1C022503E51D6402600302BE
:1024300025061212D68F1C022503E51D64016003D8
:102440000225061252D38F1C022503E51D6402608B
:10245000030225061247E58F1C022503E51D6402D1
:102460006003022506122CAE8F1C022503E51D64B5
:102470000260030225061240288F1C022503E51D79
:10248000640260030225061242948F1C8075E51DCC
:1024900064027072124E418F1C8068E51D640170E9
:1024A000651250AB8F1C805BE51D640170581245AE
:1024B000FB8F1C804EE51D6401704B1252EE8F1C89
:1024C0008041E51D6402703E123ADC8F1C8034129C
:1024D000530F8F1C802D1252E18F1C8026124B58F7
:1024E0008F1C801F124B9D8F1C8018751C0380133E
:1024F000124D1C8F1C800C12515A8F1C800512210A
:10250000FD8F1CAF1C227F8222C26D124FDC908097
:102510000AE05480F0C259E4908040F07892F67856
:1025200092E61231BEE47894F6E47893F6C374022E
:1025300078939633333354F890800BF0908005E015
:1025400030E7F91231E97894E6FF124ACE9080051F
:10255000E030E7F9E4908000F0908001F0F0E50BC6
:10256000F0E50AF0E509F09080007430F07894E628
:102570007014908005E030E70D7892E630E107783E
:1025800094766002260E908005E030E7F9E47891B9
:10259000F69080147410F0908005E030E7F9E49034
:1025A0008006F0908005E030E0F990800BE0540365
:1025B0006009E020E141E4FF123A32901000E0644B
:1025C0000D7034A3E06406702EA3E064057028A3A8
:1025D000E064067022A3E0B4901D78007C521231B2
:1025E000917E027F00120B01121907EF703B908061
:1025F0000AE05480F0800B7891E6C39404500306FF
:10260000808F789306E6C39403500302252D7894B7
:1026100006E6C394605003022529789206E6C39427
:1026200004500302251F7F0022D26D905392E07068
:1026300004A3E0601C1231F05470909005F09053A8
:1026400092E0FEA3E0FF123B84909005746012318B
:10265000E190539FE0B45108D2599080407401F04A
:1026600012489812C000E47883F67F012290410658
:10267000E0547FFFBF211C7F437E427D537C5590F9
:102680000000E0F8A3E0F9A3E0FAA3E0FBC312091D
:10269000416007788476027F82227B017A00790488
:1026A000124BE278851209917B017A007908124B6E
:1026B000E278891209917A0079007E001235CD9076
:1026C000000DE07883F690000FE0306E3F641260FA
:1026D0002A7888E6B4051718E6B48F1218E6B49382
:1026E0000D18E6B4840890501C7402F080069050D7
:1026F0001C7407F0306504E4789BF6C26EE47899A8
:10270000F678ABE6F5149090077401F0206C0302A4
:10271000279CA264E433FF905018E0B4B0047E011B
:1027200080027E00EE5F6020A25CE433FF7883E6E7
:10273000FEB5070F7402A806088002C333D8FCF563
:102740001C8037751C108032206115A262E433248E
:1027500001FFE433FE7883E6FDB50711E4B5060D0D
:10276000306305751C088012751C01800D7402A869
:1027700005088002C333D8FCF51C30673520583279
:10278000205703305603305D297883E6FF7401A893
:1027900007088002C333D8FCF51C80167883E670E6
:1027A00008905008E0F51C8009751C04789CE644EC
:1027B00004F6E51C7899666005AF1C1243747F022D
:1027C000221231A5E4F520E520C3789596501D121C
:1027D000311F12524BE520123174A807FC7D017B9A
:1027E000017E027F00120B01052080DB1231FA12FC
:1027F000311F12524B9001FEE0B44A06A3E0644E32
:1028000060037F8922900000E090800AF030E005AC
:102810007513408003E4F5137898E6B48007908040
:102820000AE04480F0900002E078ABF6900004E00B
:10283000F510A3E0F511900006E078ACF6900008E2
:10284000E0F51290000A12313290000C789F12319C
:102850009C90000EE0F50EA3E0F50F900191E09042
:102860009009F090019FE0B45108D25990804074D3
:1028700001F0E4909002F0900192E07004A3E06017
:102880001D900010E05470909005F0900192E0FED1
:10289000A3E0FF123B849090057460F0800A9000E2
:1028A00010E04401909005F01231E2900194E06054
:1028B000031231D4900011E030E10890800B7408CD
:1028C000F08014900011E030E007E490800BF0807D
:1028D0000690800B7410F0D26D78007C537D017BE4
:1028E000017A0179007E007FF0120B0190530312F0
:1028F000319A90530FE0F51312489812C000C2515C
:1029000078ABE6F5147F03228F207E027F007D00E6
:1029100012178190040974F1F090506812173AFF71
:1029200090040A12099D90040E7490F0A374CAF0EA
:10293000A374F2F090506C12173AFF900411120930
:102940009D90041574F3F090507012173AFF9004A4
:102950001612099D90041A74F4F090507812173AE8
:10296000FF90041B12099D90042074F5F090507C98
:1029700012173AFF90042112099D90042574F6F075
:10298000121737FF90042612099D90042A74F7F05D
:10299000E4A3F0A304F0789AE6541690042EF0A372
:1029A00074F8F0A25FE433A3F0A374F9F090043359
:1029B0001218E274FBF0A255E433A3F0A374FC12E6
:1029C000182DA25AE43390043FF0A260E433A3F040
:1029D000A25CE433A3F0905003E0900442F0A25EC6
:1029E000E433A31217FF90048074E1F0900485048F
:1029F000F0E478A3F679A3E7C378AB96501778A3F1
:102A0000E6FF121821E0FCA3E0FD121872ECF0A31F
:102A1000EDF00680E0789AE69005FFF0E52060068C
:102A200012172412505DE4FF121CBAEF601278896D
:102A30001209A900000000306C031218CF7F032296
:102A40007F8922905018E064C060037F8922205360
:102A50000612172412524B7B017A047900124BE2C2
:102A600090506C12099D7B017A047906124BE2901A
:102A7000507812099D7B017A04790B124BE2905039
:102A80007C12099D7B017A04790F124BE290507001
:102A900012099D7B017A047940124BE28F0B8E0A5A
:102AA0008D098C08900445E090500EF0900446E0AB
:102AB00090500FF0900444E06451704D9004FEE09B
:102AC000644A702CA3E0644E7026FF78ABE6FEEFFC
:102AD000C39E5014121872E0FCA3E0FDEF121821FF
:102AE000ECF0A3EDF00F80E38E14C251E4789CF675
:102AF000AF0BAE0AAD09AC08EC4D4E4F600BAF0BFF
:102B0000AE0AAD09AC081218D690506C12173AFFF5
:102B1000EC4D4E4F6003D38001C39262900404E0F9
:102B2000B45103D38001C3925CA25CA062925C901A
:102B3000507812173AFF9050701217B32FF50BEA26
:102B40003EF50AE93DF509E83CF50820600990509A
:102B50007012173A12178A90506812173AC3950BE1
:102B6000FFEE950AFEED9509FDEC9508FC1218DCC8
:102B70007899E6FF1243747F03228F1C908016E041
:102B800020E0F9904104E020E1F91217CD90000017
:102B90001209C2555342537B007A007985124BE2E9
:102BA00090000412099DE490000CF090000BF0904E
:102BB000000AF0900009F0900008F0904106740DB2
:102BC000F0E4904105F0306806C268905015F0D2EC
:102BD00054904104E030E10A904102E030E0F27F9D
:102BE0000022C2547A0079001217D5E4904104F013
:102BF000E51C7002FF22C28CC28DE4F58CF58AD2EE
:102C00008C905002E0FF6024904107E030E6249071
:102C10005003E0FEC3EF9E905002F0541F700D90E1
:102C20005001E06401F0909001F08000904107E0D5
:102C300054BFF0905002E04440F0904104E020E0A6
:102C400010904102E030E0037F0022308DEC7F00E5
:102C5000229000111217E07891121891704D900097
:102C60000FE0651C704590000DE0788366703C9025
:102C70008016F07B017A007904124BE27885120904
:102C8000911217CDE4908014F0900016E0F50CA39B
:102C9000E0F50D78911209788F0B8E0A8D098C085A
:102CA0001217EC78911209917F01227F0022900087
:102CB00011E0543FF51E751FFF7520807899E6647A
:102CC000016003022D8490501CE020E003022D845B
:102CD000125290EF604D900202E06047A3E0900234
:102CE00002121B58703D900202E02408F51FE51EF9
:102CF000B43F08A3E024F8F5208028121BAF64AA93
:102D00006010121BAF651E6009121C3A251FF51FCB
:102D100080E9121BAF64AA6007121C3AF5208003F9
:102D2000751FFFE51FB4FF097E007F80121AE58042
:102D30004F900202E07E002400F9EE3402FA7B019B
:102D4000C002C001121C49D001D0027F08120B0141
:102D5000AF207E007C007400251FF9EC3402FA7B62
:102D600001C002C00178087C007D01D001D00212B0
:102D70000B01E5202406900001F074082520F520C1
:102D8000AF208053121CAC7406F0E4A3F0789AE6EE
:102D9000FB54F960047F8080027F00900003EFF015
:102DA000A31209C200000000EB7899565406600394
:102DB000121C5D20560330570C7899E6B40106903A
:102DC00000037480F0306C0D7899E654186006901A
:102DD00000037480F07F081248EF228F2090500A81
:102DE000E0FF7003022F01D3944040047E40800234
:102DF000AE07E4FFEFC39E503190500BE0FBA3E021
:102E0000FAA3E0F9905009E0FD7C00E92DF9EC3AD5
:102E1000FAEF29F9EC3AFA120777FD74402FF582A0
:102E2000E4340EF583EDF00F80CA7898E6FF20E6D3
:102E300006E52064026009EF30E615E520B40710CE
:102E4000900E567440F0E4A3F0900E5D7440801430
:102E5000E520B40613900E40740AF0A37406F090B7
:102E60000E487401F0E4A3F0E520B40706900E418B
:102E70007407F0E52064016005E520B4060FE490D6
:102E80000E42F0A37402F0900E477440F0E5206407
:102E900001702B900E4AE0B48006A3E06493600AB0
:102EA000D26C900E507403F08007C26CE4900E5008
:102EB000F0206D0A900E4A7434F0A37412F0E520ED
:102EC00064026005E520B40708905005E0900E48C4
:102ED000F0904103EEF0904102E020E1F9904102D0
:102EE000E054216005E054FEF022904102E020E031
:102EF0001390500AE0C39EF0905009E02EF0022D8E
:102F0000DD12362E221252127899E6640170279053
:102F1000501CE030E020AE0C780B121B37121B0463
:102F20007014121B42E50DAE0C7802C333CE33CEC3
:102F3000D8F9F50D8E0C121BDD121B0460037F8483
:102F4000221243E38F1EEF30E70122121AF05003E2
:102F50007F8A22306C107899E6FF6401603DEF545F
:102F60001860037F8722789AE6600F54066008791C
:102F70009AE778995660037F8722905018E064B0F2
:102F8000702EA25C121BD38003121CA5D8FBFF7805
:102F900099E67C00B50719ECB50615E50D150DAEE3
:102FA0000C7002150C4E600512524B80EE7F03220E
:102FB000905002E0FF6011904107E030E611121CD2
:102FC0002B7005121C7B8000904107E054BFF090ED
:102FD0005002E04440F0124F4D12C0068F1EE51E15
:102FE00030E72D30E01C904102E030E00312006336
:102FF000904104E020E1EF305403121B6D751E0177
:103000008003751E0378891209A90000000080134F
:10301000121B27120991751E89E50D450C70047865
:10302000847601AF1E22E4905000F0905004F0A38B
:103030007432F0E4789AF60876FF08F69050087437
:1030400080F0E47895F608F608F6D269C268D26E88
:10305000C26FC254C253C252905020F0A3F0A3F0EA
:10306000C251C26CC26BC26AC264C267C262C2553C
:10307000C256C257C266C263C265C26190900AE07E
:10308000540F78B1F6E670027620905010E0B4A5A7
:103090000FA3E0B45A0A789AE64401F6D25B8002A4
:1030A000C25BC25AC25FC260C250C270C258C25E26
:1030B000C25DC25C9050681209C2000000009050CE
:1030C0006C1209C2000000009050701209C200008A
:1030D00000009050741209C2000000009050781255
:1030E00009C20000000090507C1209C200000000DC
:1030F000E4905002F0A37410F0E4789AF69050181F
:1031000074C0F090501AF0E4905019F090501BF0F9
:10311000A3F0A3F01249E97880760122120B017A1C
:103120000079007E007F009044007400F0A37400DA
:10313000F022789DE0FEA3E0A60608F622F0E51254
:10314000FD7C00AE0AAF0B1207CFECC313ED13FDED
:10315000E5178DF0A4227B20AD0BAC0AAF09AE08B9
:1031600022E62520FFE433FE74042FF58274523EDC
:10317000F583E02225E0FEE42400FFEE34A022E007
:10318000FD75F010EFA42EF582E435F0F583E582AD
:10319000227D017B017A1079002278A4E0FEA3E071
:1031A000A60608F6229080157455F074AAF0227EC7
:1031B000027F007D007B017A007900020A19904AA3
:1031C0005593908007F022E517C313F517E518C350
:1031D00013F51822E05470FFE054074F90900EF062
:1031E00022F09090027401F02290800074FFF0228F
:1031F000E4909002F090520CE0229080157477F0E9
:1032000022908017F090801674C0228F20851421A0
:103210007895E6F514E52030E0037F8922123156D7
:1032200012C00FE4908014F0852022FE7F40FD1232
:103230003193120A19908005E030E7F9E490800696
:10324000F0908017E522F09080167480F090801640
:10325000E0540A60F8908016E030E12D90800BE099
:1032600030E1057520EE8007E4FF123A328F20909E
:103270008017E0FFC3E5229FFFC3132400F582E41B
:103280003410F583E520F080BE908016E020E0F950
:10329000904104E020E1F990800BE0900000F012F2
:1032A000C01E900001EEF0A3EFF0900003E508F0DF
:1032B000A3E509F0900005E50AF0A3E50BF0908086
:1032C00030E0900007F0908031E0900008F09080AE
:1032D00032E0900009F0908033E090000AF0A3748F
:1032E000AAF0780C7C001231917E007F4012311CD4
:1032F00012505D8521147F0322AD07904104E02028
:10330000E1F9ED247FB40F0040030233BE90331B7C
:1033100075F003A4C58325F0C583730233480233D7
:103320004E02335602338F02335E02336502336C32
:1033300002337602337D0233880233960233BE02B3
:1033400033A10233AB0233B2121BA17F0522121C40
:103350006476260233BA121C6476200233BA121C39
:103360006B763A8055121CB37628804E7895760796
:10337000789676278044121C6B76048005121C6BAD
:1033800076FF789776FF8036121C647621802B12A8
:103390001C6476248024121C6B7604789776018056
:1033A0001D121BA1121CB37629800F121CB37629A3
:1033B00080087895760378967611E47897F6788485
:1033C000E6FCB40207121BA17D078017ECB40311C1
:1033D000904101E04404F07881E64404F67D0680E3
:1033E000027D04AF05221246629050017401F090F4
:1033F0004102E030E0031200637880E6B4011890E7
:103400004104E030E01112266D7880EFF6BF02072C
:1034100012239A7880A6077880E6FF64036004EFA1
:10342000B404051241A480C77880E6B4050B90412E
:1034300001E020E4047603801D7880E6FFB40607EF
:10344000904101E030E20BEFB4070B904101E02026
:10345000E404788076047880E6FF30E7071232F9DA
:103460007880A607306F09C26F904107E04401F0F1
:103470007880E66401704A904107E030E64390505E
:1034800002E0FF603C905003E0FEC3EF9E905002CC
:10349000F06015E0541F7007905001E06401F09057
:1034A0004107E054BFF08011305A047F0180027F51
:1034B00000905001EFF012C024905001E090900174
:1034C000F0904107E020E4030233EF124944023355
:1034D000EF09022000010100803209040000020807
:1034E00006500007050102000200070582020002E3
:1034F000000C121E0422183A286210721C120101DC
:1035000010000000408F05809301000102000104BB
:10351000030904180341006C0063006F007200206F
:10352000004D006900630072006F0028034D0061C8
:1035300000730073002000530074006F007200617C
:1035400000670065002000440065007600690063A4
:1035500000650010033600390039003000460030A5
:1035600000310047656E65726963205553422046FD
:103570006C617368204469736B2020372E373600E6
:103580000000000000000000AAAAAAAAAAAAAAAAEB
:10359000EEEEEEEEEEEEEEEEFEFFFFFFFFFFFFFFC4
:1035A000FFFFFFFF7FBFDFEFF7FBFDFC7EBFDFEF1D
:1035B000F7FBFD7E900E45E0900074F0900E46E023
:1035C000900075F0900E47E0900076F02290440055
:1035D0007400F0A37400F02278407C0E7D017B0122
:1035E0007A0E79007E007F08120B01904102E054B0
:1035F000FEF022F0904102E04441F02290500B7422
:10360000FFF0A37434F0A374F1F022E0FCA3E0FD1A
:10361000A3E0FEA3E02285141F905305E0F514906B
:103620005006E0FEA3E0FFC394FFEE940322904116
:1036300002E04451F0227A04790090500B7401F0BA
:10364000A3227881E654EAF6904101E0442AF0E0B2
:1036500054EA22900E45E0900075F0900E46E090FE
:103660000076F022E493905009F022A3F0E4905009
:1036700009F022E4904104F078807601229041061E
:10368000F0E4904105F022D253900E44E022905095
:10369000207403F02220530612172412524BC266E4
:1036A000C263C264C265C267C25AC25FC260C25E00
:1036B000C261C25DC258C250C270900403E0B451EE
:1036C00004D264805A900404E0B45104D266804F5E
:1036D000900405E0B45104D2638044900406E0B441
:1036E0005104D2658039900407E064517031D2678B
:1036F000900400E0B45102D25F90040EE0B4510295
:10370000D25E90040FE0B45102D260900413E0B492
:103710005104D25D8009900414E0B45102D2589053
:10372000040BE0B45102D25A900409E0B4510DE404
:10373000905002F090040AE0905003F0305A047F59
:103740000180027F00909001EFF0900412E0B451EC
:1037500006A26772639261900415E0B45102D250E0
:10376000900416E0B45102D2707F0322901000E062
:1037700064996003023820A3E064076003023820E4
:10378000901003E0FF901002E02F2432FFE4FEFDD2
:10379000EDC39F501074002DF582E43410F583E0E2
:1037A0002EFE0D80EB74002FF582E43410F583E0DB
:1037B0006E706DD26B306B2390107DE0F4FF901033
:1037C0007CE0B50716E0D394FA400890500574FAEF
:1037D000F0800890107CE0905005F090107EE0643E
:1037E0003C703DA3E064C37037901081E0640370C7
:1037F0002FFEFD901080E0FFEDC39F501074802DD0
:10380000F582E43410F583E02EFE0D80E690108002
:10381000E02480F582E43410F583E0B50602D26A34
:10382000222065037F8222900013E0641060037FF2
:1038300084227A04790012172CE4904104F090411C
:1038400004E030E0F978847601789AE630E0037F8E
:103850008722E4F51F7400251FF582E43400F58308
:10386000E07027051FE51FB410EB1217C47B147D11
:10387000077C0012C00F901080E0B4AA0AA3E0B445
:10388000550512177B803D7F032290048074AAF0B7
:10389000A37455F0900400E0F520E4F51F740025B2
:1038A0001FF582E43404F583C083C082E0FFE51F86
:1038B000FDE5201218C3EF6ED082D083F0051FE51E
:1038C0001FB410D97F07121CBAEF6005C25B7F03DB
:1038D000227F8922E0FF7C00E50B5407244DF5820E
:1038E000EC344AF583E493FEEF229039AAE0FEA37C
:1038F000E0FFE51575F00AA422E0FFED5407904AB9
:103900004D93FEEF6E222400F58274393EF583223A
:10391000EC25E024B8F582E43439F583222400F55F
:103920008274383EF583222486F582E43439F583A7
:10393000222484F582E43439F58322EEF0A3EFF0FB
:103940009039A822E50BAE0A78032274002FF58285
:10395000E43439F583E0227DFF7B01020A197E0001
:103960007F0A020B01789AE64420F67EFF7FFF2251
:103970002482F582E43439F58322E0FEA3E0FFAD32
:103980000BAC0A228F201217C41218A550148514EC
:103990002112185BAD207C007B1212C00F85211410
:1039A000800312177B905019E0900400F090501B98
:1039B000E0900401F0905018E0900402F090501A4A
:1039C000E0FB900403F0A374C0F0A25BE43325E0B5
:1039D000FE789AE6FD54012E900408F090047EEDE6
:1039E000F0E65406FFBF0604E04440F0E520B402D0
:1039F0000A905018E0900480F0800AE520B4030596
:103A0000900480EBF0205F0E909000E030E307E43C
:103A1000900481F080069004817401F09004827417
:103A2000CAF0A37403F020530612172412505D7FCE
:103A300003228F23E490800CF090800BE030E103B0
:103A40007FEE22908013E0752500F524908010E031
:103A5000F978B1E6FFE9D39F40037FEE22E9607673
:103A600019908020E0FD908021E0FCED30E736ECFD
:103A7000700A9080301238F9908030F0BC010A90C2
:103A800080311238F9908031F0BC020A90803212F5
:103A900038F9908032F0BC03C49080331238F9902A
:103AA0008033F080B8E52360046D20E6B0ED54600B
:103AB00075F008A42525FFE52435F0FEEC7A002FEB
:103AC000FFEA3E8F82F583C083C0821238F9D0822C
:103AD000D083F0023A5D908010E0FF22900010E069
:103AE0005402F51EE47F01FEFDFC7889121B047070
:103AF000037F8422900011E020E107900018E0305D
:103B0000E74A125290EF603B900200E06035A3E07C
:103B1000900200121B58702B900201E0FF7E009073
:103B20000200E07C002400F9EC3402FA7B01C002C0
:103B3000C001121C49D001D002120B01900201E019
:103B4000FF80327F30121AE37F308029121AE19011
:103B500000027401F0A3F09000057414F0A3740146
:103B6000F0E51E25E025E0240A900001F090000A0F
:103B7000E51EF07F141248EF78891209A9000000B1
:103B8000007F03228E218F22E4FD79FFFCEC64028A
:103B90007003023C24909003EDF0909004E9F090C3
:103BA000900B7401F090900BE030E0F990900CE0F5
:103BB000FE90900DE0FBEEF523EBF52490900CE0E9
:103BC000B52206E4B521027C02EC1460250470BD28
:103BD000C3E5249522E5239521500DE970047C016D
:103BE00080ABE9C313F980A5ED25E04401FD7C011C
:103BF000809BD3E5249522E5239521400FBDFF044A
:103C00007C028089ED25E04401FD80817C02E52471
:103C100065227004E52365217003023B8DEDC3131B
:103C2000FD023B8D222065037F8222900013E06419
:103C30001060037F84227A0279007E027F00904424
:103C4000007402F0A37400F012524B7884760130B5
:103C50005B037F87221217C41218A5506185141FB9
:103C600012185B7B107D077C0012C00F851F14901B
:103C70000200E0FFE4F51FE51FFDEF1218C374001A
:103C8000251F1218B3E06EFE7400251FF582E43480
:103C900000F583E06E6011D25B1218FD74A5F09000
:103CA0005011745AF07F8722051FE51FB410C8E435
:103CB000905010F0905011F0789AE654FEF67F0381
:103CC000228C238D24AB07AA0674002BF582743452
:103CD0003AF583E524F0EF540325E0FDEB7802CEBE
:103CE000C313CE13D8F912391DE0FF7403A80508D9
:103CF0008002C333D8FCF45FF0EBAE027802CEC38F
:103D000013CE13D8F912391DC083C082E0FCE5231D
:103D10007E00A805088005C333CE33CED8F94CD039
:103D200082D083F0E524AE237803CEC313CE13D81C
:103D3000F92400F58274393EF583C083C082E0FF28
:103D40007C00E5245407244DF582EC344AF583E4E5
:103D500093FEEF4ED082D083F0227898E630E604CE
:103D60007F0080027F80904104EFF08514207895D9
:103D7000E6F5147BA012315812C00FE4908014F0C5
:103D8000740212320112313D85F021F522E5188DC1
:103D9000F0A425182521F521908016E020E0F9787F
:103DA00098E630E6047F0080027F80904104EFF0C7
:103DB000904104E030E0F9E4908040F0908000749D
:103DC00085F0908001E522F0E521F0908006748472
:103DD000F0908005E030E0F99080007410F0A25976
:103DE000E433908040F0E4908014F08520147F0349
:103DF00022206A037F032220530612172412524BFB
:103E00008514201217BE7B117D017C0012C00F8526
:103E10002014E4F520E52025E0FFE433FE74822F32
:103E2000F58274023EF583E0FF740025201218B37A
:103E3000EFF00520E520B408DCE4FFF520E5205490
:103E40000724001218B3E0FE74002520F582E43444
:103E500004F583E06E2FFF0520E520B440DFEF700E
:103E600021900440E0789A30E40DE64410F69090FA
:103E700016E054FDF0800BE654EFF6909016E04407
:103E800002F07F03228F20E520B40209905019E050
:103E9000D39402500EE520B4030C90501BE0D39451
:103EA0000240037F892220530612172412524B85A9
:103EB00014211217BEAD207C007B1112C00F85218A
:103EC00014124529E52064027024BFB00F905018E9
:103ED000E0B4B008905019E004F08005E490501967
:103EE000F0905018EFF0306C261218CF8021E520AA
:103EF000B4031CBFB00F90501AE0B4B00890501B30
:103F0000E004F08005E490501BF090501AEFF07F31
:103F10000322C299ED30E61275990D3099FDC299D0
:103F200075990A3099FDC29980087599203099FDDC
:103F3000C299ED30E01BEF75F00A842430F599301A
:103F400099FDC299EF75F00A84E5F02430F5998067
:103F500032EF54F0C4540FFED39409400674372E48
:103F6000FE800474302EFE8E99EF540FFED3940918
:103F7000400674372EFE800474302EFE3099FDC248
:103F8000998E993099FDC299ED30E71075990D30F1
:103F900099FDC29975990A3099FDC29922E4905011
:103FA00021F0A3F0905021E0FCA3E0FDC3EC9402CB
:103FB000505D904102E05421600BE054FEF09050BF
:103FC000207404805C904102E030E007905020743F
:103FD00002804E74002DF974043CFA7B01C002C0CB
:103FE0000178407C0E7D01D001D0027E007F40121E
:103FF0000B019041037440F0904102E020E1F99000
:104000005022E02440F0905021E03400F0809512DE
:10401000362EE4905020F0124F80EF700890502020
:1040200004F07F00227F01221243E38F1EEF20E77E
:10403000747899E6B41014306208121B0B121C50ED
:104040008004121B19FF788D120991121AE1900059
:10405000037410F09000087402F090000AF09000D1
:1040600012F07899E664017021305E1E90501CE0D9
:1040700030E0179000037408F090000AF0121C92D0
:1040800090000412099D7F0C8018788D1209789099
:10409000000412099D788D12097890000C12099D78
:1040A0007F140248EFAF1E22908007E0F520908039
:1040B0000AE0F521124FDC1231AF90800A7401F052
:1040C000E4FFEF1231BE908005E030E7F91231E9EC
:1040D000908005E030E7F99080007490F0E49080E3
:1040E00001F0FE9080047401F090800212317F2470
:1040F00000F582E5833400F583EDF0908003123102
:104100007F2408F582E5833400F583EDF00EBE06CA
:10411000D20FBF08AD908007E520F090800AE5211E
:10412000F012505D7F03221231AF9000027490F0C4
:10413000A37404F078A6E6A3F008E6A3F008E6A3CB
:10414000F008E6A3F0A3744AF0A374CAF0A37403C2
:10415000F090900AE090000BF0A26CE433A3F078AA
:1041600098E6A3F0900010744AF0A3E514F0A25171
:10417000E433A3F0908007E0900013F090900EE0FD
:10418000900014F0900020744FF09000307448F0CC
:10419000900040744EF090800BE0900100F01250BF
:1041A0005D7F0322908016E020E0F9904104E0203A
:1041B000E1F97A0079007E007F001235CD90000091
:1041C0001209C2555342537B007A007985124BE2A3
:1041D00090000412099D7B007A007989124BE290CD
:1041E000000812099D7880E6B403047F0080027FF6
:1041F0000190000CEFF0740D12367D306806C26835
:10420000905015F0904104E030E10C904102E03014
:10421000E0F212006380ED1235CD12367322851460
:10422000207895E6F51412315612C00FE4908014F0
:10423000F0908005E030E7F9E490800612313D858A
:10424000F021F522E5188DF0A425182521F52190FF
:104250008005E030E0F912505D12505DE49080403E
:10426000F09080007405F0908001E522F0E521F0E7
:1042700090800074E0F09080067404F0908005E077
:1042800030E0F9A259E433908040F012505D85206F
:10429000147F03221243E38F1EEF20E7657899E62F
:1042A0006401703090501CE0FF5405FEBE010CEF1D
:1042B0004404F090501DE0700204F0305E169050FF
:1042C0001CE030E00F121C92121B871209C2000082
:1042D000080080297899E6B41014306208121B0B8C
:1042E000121C508004121B19FF788D120991788DD1
:1042F000120978121B871209C2000002007F08020F
:1043000048EFAF1E2212521212179EFBC312094130
:1043100050037F8A2290507C12173A121882400A6A
:1043200090501AE0B4B0037F892212173712189800
:104330003508FC9050701217B31218622060099073
:10434000507012173A12178A12C006AB07EB30E70B
:104350001378891209A900000000EB30E0037F0107
:10436000227F0322121745E50D450C7004788476F0
:10437000017F89227899A607EF14604614601524FE
:10438000FE601E24FC604424F8604024907053902A
:104390005068803130620590506C8003905074807A
:1043A0002490506CE0F8A3E0F9A3E0FAA3E0FB90BE
:1043B000507412360BC39BFFEE9AFEED99FDEC98FC
:1043C000801A90507012360BFF8012905070123687
:1043D0000BFF2FFFEE33FEED33FDEC33FC788D1237
:1043E000099122307021905018E0B4B01A121BD0FD
:1043F0008003121CA5D8FBFF7899E67C00B507075F
:10440000ECB506037F85227899E6FF789BE6FE5F90
:104410006005EFF45E8033799CE778995660037FFE
:104420008522205F29909000E030E310789AE62002
:10443000E71C4480F6789BE644F6800E789AE630D6
:10444000E70C547FF6789BE644F6F67F86227F00E1
:1044500022900010E0F51FA3E0FF1313543FF52056
:10446000E05403F508A3E0F509A3E0F50BA3E0F59C
:104470000AE51F6409702BE50B6407450A603912D1
:1044800017C41218A5501485142012185B7B10ADA8
:104490000BAC0A12C00F852014801D7DFF12184737
:1044A000801685141F8520147B10AD0BAC0AAF0954
:1044B000AE0812C00F851F1412505D7F0322E4F96D
:1044C0009039FDE0FC9039FEE0FDE9FB9039FFE01A
:1044D0002BFBE433FAAF04ECC39BEA6480F87480EE
:1044E00098503912394BF519B4FF04E4FD802AEDD8
:1044F000C394085022ED904A4D9355197016ED045F
:104500009039FEF09039FDECF075F008A4FFAEF0A4
:10451000EF4DFF220D80D8E4FD0C80AEE4FDFC09D8
:10452000E9640270A512396522900280E0B4FF08A8
:10453000A3E0B4FF037FC022900480E0F9A3E0FF72
:10454000900280E0FEA3E0FDEF6D7040FDEDC39FA3
:10455000503D74822DF582E43404F583E0FC7482CE
:104560002DF582E43402F583E0FB1218F38002C3D8
:1045700033D8FC5962041218F38002C333D8FC5EAE
:104580006203EC6B60037FB0220D80C17FB0227F9D
:10459000A022AD07124F80EF70069050200480518A
:1045A000904102E030E506E054FEF080E7904103E0
:1045B000E0540FFFBF0807904102E020E7111235D9
:1045C000EB904101E04401F0905020740280229071
:1045D0000E03E0B40316900E02E0B5050F900E0135
:1045E000E0B40608900E00E06480600990502074EA
:1045F00002F07F00221235D87F01221243E3EF70D0
:10460000607899E66401705690501CE0FE54036493
:1046100001704BEE30E22390501DE0FEB4010674B1
:1046200002F07F8522EE6402703490501D7403F016
:1046300090501CE04402F07F862230600A90501CAB
:10464000E04402F07F032290501DE004F0E0D39498
:1046500006400BE4F0789BE64401F67F85227F0359
:104660002222E4904104F0904200E05403700C9048
:104670004107E030E4F112494480EC904200E078D8
:104680009830E00476408009768090800AE044808B
:10469000F0E47881F6905004F090900AE020E7234F
:1046A000909000E020E41C904104E0FF904102E083
:1046B0004F20E00C904107E030E4EC12494480E7E1
:1046C000125138788076012212521212179EFBC3C3
:1046D00012094150037F8A2290507C12173A121817
:1046E00082400A90501AE0B4B0037F892212173733
:1046F0001218989050701217B0121862206009902A
:10470000507012173A12178A12C003AB07EB30E74A
:104710001378891209A900000000EB30E0037F0143
:10472000227F03221217457F89228F1AEF75F00A24
:10473000A42480F9743935F0FA7B01C002C00178F5
:10474000A87C397D01D001D00212395E851A1BE5A3
:104750001B602775F00AA4FFAEF02476F974393E89
:10476000FA7B01C00174802FF974393EA801FC7DE9
:1047700001D00112395E151B80D578807C397D010E
:104780007B017A3979A812395E227895E6FEC378E2
:10479000AB9640037F0322905002E0FF60249041DB
:1047A00007E030E624905003E0FDC3EF9D905002F7
:1047B000F0541F700D905001E06401F0909001F0F2
:1047C0008000904107E054BFF0905002E04440F078
:1047D0008514208E1412C00C852014BF81047F0123
:1047E00080027F03227899E6FEB4010A90501CE013
:1047F00030E0037F83229000007403F0E4A3F0789C
:104800009AE6FF54F960047D8080027D00900002EA
:10481000EDF0E4A3F0EF5E54066003121C5D205639
:10482000033057097899E6B40103121C5D306C0A15
:104830007899E654186003121C5D7F041248EF2239
:10484000909000E030E2037F0022905012E0FEB42E
:104850000111905013E0B4010A905014E0B4010328
:104860007F0022905014EEF09050127401F090509E
:1048700013F0122509EF700A905012F0905013F0C7
:10488000FF22120B2778ABE6F514C251E4905012C8
:10489000F0905013F07F012290800AE030E105751E
:1048A0001702801690800BE030E405751720800A0F
:1048B00090800BE05408242EF517751804E5135466
:1048C000C060031231C7905395E0701B90800BE0DD
:1048D00030E30578B0761C2290800BE078B030E4AD
:1048E00003760E22761622905395E078B0F6228F4A
:1048F00021E47F01FEFDFC7889121B0470037F8494
:1049000022AF21E4FCFDFE121C9C4025904106E5EF
:1049100021121C723056028021120978C007AF2183
:10492000AB07D007C3EF9BFFEE9400121C0E7F81F4
:1049300022788CE6904106121C721209A900000030
:10494000007F03229090017401F090801CE0540FCE
:10495000FFBF0FF6E4908007F0904107E04420F09D
:10496000904200E0540360F8904200E030E011789B
:1049700098E6B48005E4904100F078987640800491
:1049800078987680E4909001F09080077440F090E1
:104990004107E054DFF0227895E66514601030514D
:1049A0000312C0097895E6F5147F0112C015E4786A
:1049B00095F67895E6FFC39406502BEF7F0025E02F
:1049C000FEEF2400F974343EFA7B01C002C0017886
:1049D000007C007D01D001D0027E0212311C1250F9
:1049E0005D78950680CC7F0322E490800AF07C02FB
:1049F00012503A908005E030E7F990800074FFF0A3
:104A0000908005E030E7F9749012504EFE908004DB
:104A10007401F0908002E0900000F0E0B4FF1A0E04
:104A2000BE06EAEC5407FEC454F04E90900EF00C13
:104A3000ECC3940940BA7411F0220002040610126B
:104A40001416181A1C1E523436383A3C3E01020421
:104A500008102040804080102004080102003FC060
:104A6000FF007FBFC000403F2F0000FFFFC000805D
:104A7000807F7F7FFF00010204060810008006008F
:104A8000FFAABBCCEE8F20E52030E0037F89228592
:104A900014217895E6F5147898E630E6047F0080D6
:104AA000027F80904104EFF07BA012315812C00FBA
:104AB000E4908014F0E520123201F0908016E0209E
:104AC000E0F99080007410F08521147F0322EF75C7
:104AD000F00C84FEEF75F00C84AFF0EE904A759305
:104AE000F509EEC39407500FEF904A5D93F50BEF75
:104AF000904A6993F50A22EF5401FEF404F50BEF96
:104B0000C313FD7404A805088002C333D8FCC39EF8
:104B1000F50A22125212900015E0FF124374121788
:104B2000EC12188F50037F8A22124F4D12C006AB31
:104B300007EB30E71378891209A900000000EB3079
:104B4000E0037F01227F0322121745E50D450C701B
:104B500004788476017F8922125290EF60329003AC
:104B600000E0602CA3E0900300121C1C121B667076
:104B70001F900301E0900300121BEFC002C001125E
:104B80001C49D001D002120B01900301E0FF800903
:104B90007E007F22121AE57F221248EF22125290E5
:104BA000EF6032900302E0602CA3E0900302121C3D
:104BB0001C121B66701F900303E0900302121BEF90
:104BC000C002C001121C49D001D002120B01900397
:104BD00003E0FF80097E007F24121AE57F2412483B
:104BE000EF22EB700CE7FF09E7FE09E7FD09E7FCA0
:104BF0002214701089828A83E0FFA3E0FEA3E0FD07
:104C0000A3E0FC22BBFE0CE3FF09E3FE09E3FD0980
:104C1000E3FC2289828A83E493FF740193FE740289
:104C200093FD740393FC22900075E06003D3800130
:104C3000C3926C900076E0905008F0E0B4200374CA
:104C400002F0905008E0B440037404F0205313A223
:104C50006CE433900000F0905008E0900001F012F6
:104C6000505D7F0322AD07AC06ED540325E0FFAB9A
:104C700007EDAE047802CEC313CE13D8F912391D56
:104C8000E0FFA803088002C313D8FC5403FE74009D
:104C90002DF58274343CF583E07C002400FFEC3E6B
:104CA000FE228F20E520B402051218EC600CE520EE
:104CB000B4030A90501AE0B4B0037F89221218BBE3
:104CC000E520F0125084BF0315E520B40205905092
:104CD000188008E520B4030690501A74A0F0228FC3
:104CE00020E520B402051218EC600CE520B4030A9C
:104CF00090501AE0B4B0037F89221218BBE520F06F
:104D0000124EE5BF0315E520B40205905018800847
:104D1000E520B4030690501A74C0F0227E027F0092
:104D2000121AE5E4FF7E02FDFC121C9C40157889F6
:104D3000120978C3EF9400FFEE9402121C0E125079
:104D40005D80E0788CE6904106F018E6121C741243
:104D500009A9000000007F0322900074E0B451060E
:104D6000A3E0F52080037520011217C41218A55086
:104D70001485142112185BAD207C007B1212C00F29
:104D8000852114800312177B20530612172412501A
:104D90005D7F0322125212900015E0FF124374123D
:104DA00017EC12188F50037F8A22124F4D12C00346
:104DB000AB07EB30E71378891209A900000000EB7C
:104DC00030E0037F01227F03221217457F892212E0
:104DD00031A5E4F520E520C37895965026E520120C
:104DE0003174FAA9077B01C002C00178007C007D04
:104DF00001D001D0027E027F0012311C12505D05ED
:104E00002080D21231FA7F03227D04E4FC12391093
:104E1000E0FAA3E06F7002EA6E6025123910E0FA42
:104E2000A3E0FBBAFF08BBFF05BD0402AD040CBC48
:104E300004DBBD04027D03ED123911EEF0A3EFF0A7
:104E4000227E007F12121AE590000074F0F078952F
:104E5000E6540F900002F0900007740AF07896E68E
:104E600090000CF07897E6A3F0E47895F67896F643
:104E70007897F67F121248EF222053061217241259
:104E8000524B789AE654F9F6900401E030E604E6D5
:104E90004406F6900401E030E106789AE64402F612
:104EA000900401E030E206789AE64404F67F03229B
:104EB00012521212173712178A12C006AB07EB30C4
:104EC000E71378891209A900000000EB30E0037FA6
:104ED00001227F0322121745E50D450C70047884EA
:104EE00076017F8922900074E0B45106A3E0F52199
:104EF000800375210112177B20530A1217241250C8
:104F00005D78847601E52170037521FFAF21121CC5
:104F1000BAEF60037F03227F8922900011E06012C4
:104F200090800AE020E025E04401F0431340123174
:104F3000C72290800AE030E013E054FEF05313BF24
:104F4000E51725E0F517E51825E0F518227899E62C
:104F5000FF6402602AEF64806025EFB4040590507E
:104F60006C8016121B19121BBC7899E6B4011090C4
:104F7000501CE020E009905070121B1C121BBC2238
:104F80007898E630E6047E0580027E0A904107802C
:104F900012904102E020E014904107E030E7F21E59
:104FA000EE6006E0547FF080E87F00227F0122E47B
:104FB000FF12394BF9F4601CE4FDED904A4D935912
:104FC000700EEF75F008A47C002DFFEC35F0FE228A
:104FD0000DBD08E60FBF80D912396522E4FFEFC38B
:104FE0009408502474C0A807088002C313D8FC900A
:104FF0008007F0908005E030E7F91231E9908005F4
:10500000E030E7F90F0F80D6221252121217371232
:10501000178A12C003AB07EB30E71378891209A98E
:1050200000000000EB30E0037F01227F0322121713
:10503000457F8922745090800AF09080077440F078
:10504000229042017431F090410274FFF02290806E
:1050500000F0E4A3F02290800BE05403227898E65D
:10506000B4400DE4904106F09041057402F0800CCC
:105070009041067440F09041057480F0904104E046
:1050800020E1F922900074E0B45106A3E0F52180FC
:105090000375210120530612172412524BAF21121F
:1050A0001CBAEF60037F03227F892220501F9000EB
:1050B00013E030E118E020E014789CE6FF78995680
:1050C000700BE6FE789B46F6EF4E789CF67F032247
:1050D000AF121512EF600F90800674E0F09080051B
:1050E000E020E0EC80F79080007410F0908005E004
:1050F00030E7F922900074E0B4510CA3E0789BF6FD
:10510000A3E0789CF680031218CF205306121724D0
:1051100012505D7F0322900012E0FEA3E0FF123BDD
:105120008490900CE0900000F090900DE0900001D1
:10513000F01217CD12505D22124840EF7012C26C6F
:10514000789BF69050067403F0A374FFF008F622E3
:10515000D26C789B76FFE408F6227E007F10121A4C
:10516000E59000017406F0A37404F0A37454F0A356
:105170007402F0A3F07F101248EF22E4908000F058
:10518000A3F0F0E515F0E4F09080007430F090802A
:1051900005E030E7F9E4908014F02285142078953A
:1051A000E6F5147D01AF09AE0812C012852014EF98
:1051B00060047F0380027F0422BF02051218EC60A6
:1051C0000ABF030A90501AE0B4B0037F8922121874
:1051D000BBEFF0124D5922905021E0900E40F0901C
:1051E0005022E0900E41F09041037402F090410291
:1051F000E020E1F922122509EF70037F042278AB49
:10520000E6F514C251900011E0B45103120B277F50
:105210000322900011E0FCA3E0FDA3E0FEA3E0F573
:105220000B121B51900016E0F50CA3E0F50D224780
:10523000656E65726963204175746F72756E204486
:1052400069736B20202020382E30307898E630E6C5
:10525000047F0080027F80904104EFF0904104E0E1
:1052600030E0F9229080007460F0E4A3F0F09080C8
:105270000074D0F0908005E030E7F922908042740D
:1052800002F090804174FFF0908040E020E1F9222C
:10529000851421121BFF7B117D067C0012C00F8537
:1052A000211422900011E06003D38001C3925512B3
:1052B000505D7F0322748012504EF0E515F0E4F04B
:1052C000908014F02230510312C009E4789AF675E8
:1052D00014FF22125212121AF050037F8A227F0307
:1052E000227E007F40121AE57F401248EF22900094
:1052F00013E030E0037F84227F0322787FE4F6D836
:10530000FD7581DF02105712505DD26F7F03227F3F
:105310000322FFFFFFFFFFFFFFFFFFFFFFFFFFFF76
:10532000FFFFFFFFFFFFFFFFFFFFFFFFFFFFFFFF8D
:10533000FFFFFFFFFFFFFFFFFFFFFFFFFFFFFFFF7D
:10534000FFFFFFFFFFFFFFFFFFFFFFFFFFFFFFFF6D
:10535000FFFFFFFFFFFFFFFFFFFFFFFFFFFFFFFF5D
:00000001FF
