:020000020000FC
:10000000026176020BC5020BDE020C0B020C1D0214
:100010000C72020CFD020D8F020DA0020DB3020D39
:10002000C6020DD2020DDF020DEB020DF7020E101B
:10003000020E41020E67020F4F0200000200000292
:100040005CDD0259A30254EB025DAF0241990255F7
:10005000EC020000024C6C02591F022E3D025C367D
:10006000025246025EE30256DF025FD40260BC0227
:1000700060D3025F080253120248FC0242659041BD
:1000800002E030E505E054FEF022904103E0540F19
:10009000FFBF0807904102E020E706123F3F02073A
:1000A000C7123F2C900E41E02402605214603114BC
:1000B000B40B0040030207C79000BFF82828730262
:1000C00001270201AA0207C702022F0207C7020383
:1000D0000B02032B0207C70207690207730207B26C
:1000E000900E40E064217013900E44E0700D123FBA
:1000F00096123F47123F21123FC7220207C7900EB8
:1001000040E064A1701E306104F00207C0A263E405
:1001100033FFA262E4332FFFA267E4332F900E4037
:10012000F00207C00207C7900E40E0247F60101461
:10013000601E2402706A903E00E0900E408058904D
:100140000E44E07008900E40F0A3F080560207C7FE
:10015000900E44E014601E2481600824FE60282470
:1001600082703A7881E630E0047F0180027F00905F
:100170000E40EF80227881E630E2047F0180027F2A
:1001800000900E40EF80107881E630E4047F01801B
:10019000027F00900E40EFF0E4A3F080060207C754
:1001A0000207C79041037402F022900E40E07019DC
:1001B000900E42E0B4010F903E00E054FDF09041FB
:1001C00007E054FBF0220207C7900E40E064027083
:1001D0005B900E42E07052900E44E0146020248147
:1001E000600824FE602C2482703C7881E654FEF680
:1001F000904101E04402F0E054FEF00203077881F0
:10020000E654FBF6904101E04408F0E054FBF002B4
:1002100003077881E654EFF6904101E04420F0E0D6
:1002200054EFF00203070207C70207C70207C7908F
:100230000E40E060030202B7900E42E06402707468
:10024000900E44E0706EA3E0606AE0C394055061D4
:10025000123F48904102E0544170F8900E45E0246E
:10026000FE601214601714601C2403704290420157
:100270007483F0803A9042017485F080329042019C
:100280007407F0802A78007C007D017BFF7A3E793C
:10029000D37E007F35120F4F904104E020E1F91228
:1002A0003F217435123FD19042017409F080E980FA
:1002B000FE0207C70207C7900E40E0640270459037
:1002C0000E42E0703C900E44E014601424816008FB
:1002D00024FE601B248270267881E64401F6802784
:1002E0007881E64404F6904101E04404F0801878F7
:1002F00081E64410F6904101E04410F080090207C5
:10030000C70207C70207C7123F4822123F48904161
:1003100002E0544170F8900E42E0904100F09041AC
:1003200007E054FDF0E4903E04F022306D449090DC
:10033000107401F0909016E030E31678A1E6F51302
:100340001257787F0212204B909016E054F7F080FD
:100350001C78A1E625E024A2F582E4343EF583E092
:10036000FEA3E0FFBEFF06BFFF03124A2CE49090FD
:1003700010F0900E43E024FE606314607824FD606A
:100380000A14605924066003020739306B15123FC6
:100390006A500B7B101207CF7006C26B8002C26BD3
:1003A000852013306B117A007900123F8E123F24A2
:1003B000903E097404800B123F50903E45E49390A8
:1003C0003E09F0903E0A7412F0900E43E06406601D
:1003D0000302073C903E0A740AF002073C903E0B71
:1003E00074FFF0A3743EF07425123FBF903E0A7470
:1003F00020F002073C306B15123F6A500B7B121243
:1004000007CF7006C26B8002C26B852013306B0C65
:10041000123F8A7404F0A37400F08003123F5090DE
:100420000E42E0120E41044500045301046C020424
:10043000890304B80404E68005388205C5830723D0
:100440008600000736123F50903E47123FB8903E5C
:1004500048805C306B0B903E097416F0900402806B
:100460003D903E49123FB8903E4A8043306B0F901A
:100470000402E02416903E09F09004038020903E90
:100480004B123FB8903E4C8026306A1A7A0479802D
:10049000123F8E7404F07480123FBF900480E0908D
:1004A0003E0AF002073C903E4D123FB8903E4EE4AB
:1004B00093903E0AF002073C9004007404F0A314E9
:1004C000F0903E0FE0900402F0903E0EE0900403A6
:1004D000F0123F8A7404F0A37400123FC0903E0AE9
:1004E0007404F002073C123FDB248E601424FD608C
:1004F0001724DB601A24187020123F08125B138047
:10050000117F02126030800A7F021243D4800312EE
:100510002203903E20EFF08009124CF7C253123FA5
:10052000E222C253903E20E0B40303024CF7124C87
:10053000F7903E207405F022123FDB248D6050249A
:10054000F0604324ED605E24FB604C24A3606724CC
:10055000FE605A24D060030206F8900E47E030E1B6
:10056000127E027F007D007B017A047900120E6703
:10057000020675900E45E0903E24F0900E46E09005
:100580003E23F00206C9123F08125D470206F17FC2
:1005900002125A5C0206F1900E45E0900401F0123E
:1005A0005CA60206F1E4FF12322D0206F1123FA70B
:1005B0001259E10206F19000747451F0123FA71233
:1005C0005F500206F1123F82E4903E21F0A3F0C397
:1005D000903E21E0940250447F84125176EF603CBB
:1005E000900E45E0FF903E21E0FCA3E0FD2400F5E5
:1005F0008274043CF583EFF0900E44E0FF74012D0B
:10060000F58274043CF583EFF012604E903E22E0D8
:100610002402F0903E21E03400F080B3C3903E21EC
:10062000E0940250030207CE7F85125176EF7003EB
:100630000207CE124CF7EF70030207CE7F811251F2
:1006400076EF70030207CE123FDB248F70030206A1
:10065000D624FD70030206DD24F3607224E87003E3
:100660000206E424FC70030206EE24A8607B24CB7F
:1006700060030206F8900E45E05407F508A3E0F584
:1006800009903E24E0F50A903E23E0F50BE4F50CDA
:10069000900E45E054F0F50DE030E319903E6C12F9
:1006A0003F5F250BF50BEE350AF50AED3509F50927
:1006B000EC3508F508E50D7003750D01903E2074CA
:1006C00080F012C006EF30E734123FE2802F123F75
:1006D00008125EBC801B7F02125A1F80147F021218
:1006E0004BDF800D12336880081240C28003124B2A
:1006F0004F903E20EFF08005123FE28012903E20A6
:10070000E0B403047F0080027F05903E20EFF0C23A
:1007100053123F82125DE1EF60030207CE903E204C
:1007200004F022903E20E0900E40F0E4903E20F055
:1007300090410304F0220207C70207C7900E47E06A
:100740007015900E46E0FF903E0AE0D39F4008905F
:100750000E46E0903E0AF0903E0AE07004123F829E
:1007600022900E43E0FF0236F8903E04E0900E40E7
:10077000F0804D123F96F0900E42E0B4011A903E88
:10078000047401F0904107E04402123F47E4909066
:1007900001F090900704F022900E42E07012903E1B
:1007A00004F0904107E054FD123F47909001801300
:1007B0008015900E44E07006900E40F08002800795
:1007C0009041037401F022904101E04401F0227D48
:1007D000017C0012C00FEF4E22E4F520900011E0E2
:1007E000600A900010E020E0037F8322900010E078
:1007F0005401900401F0900011E0900400F09090FA
:1008000016E05418FFBF1010306D0DE4FFFE122CDF
:10081000DB909016E054EFF0205643205740788844
:10082000E6600A7987E77886461846601E7F457E2F
:10083000407D357C74788512183C600F7F427E497C
:100840007D4F7C53788512183C7002D2567885E62D
:10085000600C7988E778874618467002D25730676F
:100860004220583F205703305639205D362061150D
:10087000A262E4332401FFE433FE7883E6FDB5078A
:100880000AE4B50606789976018011ED14FF74022A
:10089000A807088002C333D8FC7899F67899E6FF58
:1008A000124FC3306B1885131F12196B7B107D011B
:1008B0007C0012C00FEF4E7002C26B851F13789937
:1008C000E6FFB401271219FE7460F0A3746CF020E7
:1008D0006B0302096A900120E064AA600302096ABE
:1008E0007B017A017922903E0B048059306B619034
:1008F0000002E07C002416F9EC3400FAA3E029F9A8
:10090000EC3AFA903E0B7401F0A3EAF0A3E9F0EFA1
:100910005414601B900140E0B4AA147A017942900B
:100920003E0B7401F0A37401F0A37442F0803B7895
:1009300099E6B40835900120E0B4AA2E7A01792214
:10094000903E0B7401F0A37401F0A37422F0801A9E
:10095000903E4FE493903E09F07E002445F9EE343A
:100960003EFA1219FEEAF0A3E9F0E4900000F078F4
:1009700099E6640170372060237888E66405701C6E
:1009800018E6B48F1718E6B4931218E6B4840DE491
:10099000F0A3F0903E1CE054FEF080119000007433
:1009A00005F0A37480F0903E1CE04401F0306D0E21
:1009B0007412121A3312C01E121A4E6001229004D1
:1009C00001E07003020B13900400E0900001F0902E
:1009D0000400E02480602224FD7003020A9E248328
:1009E0006003020B10E49000021218AB7480F0A3B5
:1009F0007483F0752007020BBFE4900002F0306AA8
:100A0000227B017A007980903E0B04F0A37400F001
:100A1000A37480F0E4903E09F0900080E0903E0ADC
:100A2000F0801C1219FE743EF0A37445F0903E4D08
:100A3000E493903E09F0903E4EE493903E0AF0908D
:100A40003E0AE0900003F0E4FF903E0AE0FEEFC3B0
:100A50009E5029121A06903E09E0FD7C00E92DF90E
:100A6000EC3AFAEF29F9EC3AFA120BC5FD74032FB0
:100A7000F582E43400F583EDF00F80CD900003E0C3
:100A800030E010E004F074032EF582E43400F583C6
:100A90007420F0900003E02404F520020BBFE490E2
:100AA0000002F0A37432F074F21218AEF0A37405D1
:100AB000F0A37430F0A37435F0A37438F0A3744637
:100AC000F0A37420F0A374F2F07401121964740D91
:100AD0001218F27420F0A3F0A31218F274F1F0745B
:100AE000021219647408121A551218AE121A12E47E
:100AF000A3F0A374F11218AB7408F0A37420F0E40F
:100B0000A3121A55A3F0A3121A12752036020BBFB6
:100B10007F83229000017480F0A37404F0A3740218
:100B2000F0A3741FF0E4A3F0A3F0A3F0F51F121AD2
:100B300006851F82758300120BDEFF7408251FF5E2
:100B400082E43400F583EFF0051FE51FB420DF30A9
:100B50006B6A305503205603306605E4900001F0BF
:100B6000751F017899E6FFB401089000237430F0F6
:100B700080383066089000237435F0802D30650889
:100B80009000237436F0802230640890002374377C
:100B9000F08017306311EF900023B408057439F02A
:100BA00080087438F08003E4F51FE51F600E9000A4
:100BB000207438F0A3742EF0A37430F0752024AFA5
:100BC0002012559722BB010689828A83E0225002B7
:100BD000E722BBFE02E32289828A83E49322BB01DF
:100BE0000CE58229F582E5833AF583E0225006E997
:100BF0002582F8E622BBFE06E92582F8E222E5829C
:100C000029F582E5833AF583E49322EF8DF0A4A8D9
:100C1000F0CF8CF0A428CE8DF0A42EFE22BC000BC9
:100C2000BE0029EF8DF084FFADF022E4CCF875F022
:100C300008EF2FFFEE33FEEC33FCEE9DEC98400501
:100C4000FCEE9DFE0FD5F0E9E4CEFD22EDF8F5F0C7
:100C5000EE8420D21CFEADF075F008EF2FFFED33CF
:100C6000FD4007985006D5F0F222C398FD0FD5F04D
:100C7000EA22E88FF0A4CC8BF0A42CFCE98EF0A43F
:100C80002CFC8AF0EDA42CFCEA8EF0A4CDA8F08B0D
:100C9000F0A42DCC3825F0FDE98FF0A42CCD35F053
:100CA000FCEB8EF0A4FEA9F0EB8FF0A4CFC5F02EE4
:100CB000CD39FEE43CFCEAA42DCE35F0FDE43CFC4D
:100CC0002275F008758200EF2FFFEE33FECD33CD95
:100CD000CC33CCC58233C5829BED9AEC99E58298E2
:100CE000400CF582EE9BFEED9AFDEC99FC0FD5F0E1
:100CF000D6E4CEFBE4CDFAE4CCF9A88222B800C158
:100D0000B90059BA002DEC8BF084CFCECDFCE5F0C4
:100D1000CBF97818EF2FFFEE33FEED33FDEC33FC0B
:100D2000EB33FB10D703994004EB99FB0FD8E5E4B4
:100D3000F9FA227818EF2FFFEE33FEED33FDEC3396
:100D4000FCC933C910D7059BE99A4007EC9BFCE925
:100D50009AF90FD8E0E4C9FAE4CCFB2275F010EF61
:100D60002FFFEE33FEED33FDCC33CCC833C810D7A4
:100D7000079BEC9AE899400AED9BFDEC9AFCE899F8
:100D8000F80FD5F0DAE4CDFBE4CCFAE4C8F922EBB5
:100D90009FF5F0EA9E42F0E99D42F0E89C45F02282
:100DA000E8600FECC313FCED13FDEE13FEEF13FF31
:100DB000D8F122E8600FEFC333FFEE33FEED33FDD1
:100DC000EC33FCD8F122E6FC08E6FD08E6FE08E676
:100DD000FF22E6FB08E6F908E6FA08E6CBF822EC83
:100DE000F608EDF608EEF608EFF622ECF0A3EDF0CB
:100DF000A3EEF0A3EFF022D083D082E493F6087440
:100E00000193F608740293F608740393F67404735E
:100E1000A8828583F0D083D082120E27120E27126B
:100E20000E27120E27E473E493A3C583C5F0C58390
:100E3000C8C582C8F0A3C583C5F0C583C8C582C82C
:100E400022D083D082F8E4937012740193700DA3C2
:100E5000A393F8740193F5828883E4737402936812
:100E600060EFA3A3A380DFEF4E6012EF60010EEDF1
:100E7000BB010B89828A83F0A3DFFCDEFA2289F0B2
:100E80005007F709DFFCA9F022BBFEFCF309DFFCE9
:100E9000A9F022E709F608DFFA8046E709F208DF41
:100EA000FA803E88828C83E709F0A3DFFA8032E380
:100EB00009F608DFFA806EE309F208DFFA80668837
:100EC000828C83E309F0A3DFFA805A89828A83E067
:100ED000A3F608DFFA804E89828A83E0A3F208DF56
:100EE000FA804280D280FA80C680D4805580F28019
:100EF00029801080A680EA809A80A880DA80E2802B
:100F0000CA802988848C8589828A83E493A3058694
:100F1000F0A30586DFF5DEF3800B89828A83E493F4
:100F2000A3F608DFF9ECFAA9F0EDFB2288848C85A2
:100F300089828A83E0A30586F0A30586DFF6DEF4C6
:100F400080E389828A83E493A3F208DFF980D6885C
:100F5000F0EF60010E4E60CD88F0ED2402B4040085
:100F600050C3F582EB2402B4040050B92323458218
:100F700023900EE373E4909001F0E070030211F50A
:100F8000E490900FF078B3764890900704F090903A
:100F900001E024FE700302103024F7700302109861
:100FA000240224FC400302105370030210901470BA
:100FB00003021123147003021116240E60030211A0
:100FC000DA125FF3904102E030E7F9904102E0303D
:100FD000E0F9E4F512E51290577093FF74002512C2
:100FE000F582E4340EF583E06F60030211DC051234
:100FF000E512B408E0900E407411F0A37422F0A33F
:101000007433F0A37444F0A37455F0A37466F0A392
:101010007477F0A37488F0E4904102F0A37408F0B0
:10102000904102E020E1F99090017401F00211DAA0
:10103000125FF3904107E030E4F990801CE0540F18
:10104000FFBF0FF6E4908007F0904107E04420F0E6
:101050000211DAAF0BAE0AAD09AC08C006C007AE8C
:101060000CAF0DAB07AA06E4F9F8D007D006120CB6
:10107000FD8F0B8E0A8D098C08AF0BAE0AAD09AC43
:1010800008780A120DA08F0B8E0A8D098C0880FE3D
:1010900090800B7408F08005E490800BF090800A3B
:1010A0007410F012600BE4F514125FB4E4F519F556
:1010B00013E4908006F0908005E030E0F990800B1A
:1010C000E054036005E4FF1241990513E513C3944E
:1010D0000240DE90800A7411F090800774FFF07572
:1010E0001402126115751202125F2C125FB4908007
:1010F0000774C0F0E4908006F0908005E030E0F9DD
:1011000090800BE0540360047F0080027F01909088
:1011100001EFF00211DA90801AE04401F090800AA9
:101120007411F0E4909002F09090057430F090907B
:10113000027401F000000000909001E0B40E05E49C
:1011400090800AF012600B90800B7404F090800580
:10115000E030E7F990800074FFF0908005E030E720
:10116000F9E4908000F0A3F0F0F0F0909001E0B48A
:101170000F05E4908001F09080007430F0908005BD
:10118000E030E7F99080147410F0E4908006F0905D
:101190008005E030E0F9E4908006F0908005E030D2
:1011A000E0F99080157455F074AAF09080147410D2
:1011B000F0E4908022F0A37405F090801714F09072
:1011C000801674C0F0908016E020E0F990801574CD
:1011D00077F0E4908023F002E80080FEE490900134
:1011E000F0E0B4780EE4FDFF1253121248FCE4FF65
:1011F00012426580FE759852758921758DFFD28ED9
:10120000E4F58CF58AD28C4387807898F6759955E9
:101210009090107408F090900174FFF01256919025
:10122000900AE020E707909000E030E449909016A3
:10123000E030E017903F88E0B45110A3E0B4460BD3
:10124000A3E0B45706A3E0645460261244821260FF
:1012500088909016E04401F0903F887451F0A37498
:1012600046F0A37457F0A37454F0E4909010F0800B
:10127000091260888008124482E490900FF0E49094
:101280009010F0023C4A900012E07895F6A3E0F549
:1012900008A3E0F509900015E0F50AA3E0F50B7846
:1012A00089120DF700000000900019E0B45106A368
:1012B000E0900010F0900010E0120E411320001397
:1012C000CB0113D30213E10313E404144F0513E716
:1012D0000613EA0713F30813ED0913F60A13F90BC3
:1012E00013FC0C140D0E14BF10141011141312144F
:1012F0002A1314FB1B150D1C15231D15401E155913
:101300001F155F20132321132322138A23138A24FA
:10131000144928144C2A1440801446810000156793
:101320000253D690800BE054FC788CF690800AE053
:1013300018F6900011E018F690800B7410F0E4900D
:101340000011F0125BFD788AE6900011F090001019
:10135000E0B42108A3E0FF123943800E121E0712E9
:1013600060D3900011E0FF1257C27889A607788CED
:10137000E690800BF018E630E0047F0180027F00E9
:10138000900011EFF0125BFD803C90801AE05480D9
:10139000788CF6E0547FF0900010E0B42408A3E0CD
:1013A000FF123943800E121E071260D3900011E025
:1013B000FF1257C27889A60790801AE0FF788CE662
:1013C0005480FEEF4EF07889E6FF22900011E0FF96
:1013D000023943121E071260D3900011E0FF02573A
:1013E000C2026012025433024EE5024ABF125BFD94
:1013F0007F0322025F940230E60254907895E6FF64
:101400005470FEEF54074E90900E02156302452F64
:10141000025BC31260A37895E67800FC7A0079003D
:101420007E027F00121DB77F03227895E6FA7900CD
:101430007B01C002C001121E24D001D0020215049B
:10144000121CC50259E102613C025B4E0258507DFC
:1014500000121DAA9000007460F0A37404F09000C4
:101460000304F0E4F520AF2012580BE52075F004DA
:10147000A4AEF02410F50DE43EF50CFE7400250D2D
:10148000F58274003EF583E520F07401250DF582A8
:1014900074003EF583E509F07402250DF5827400B1
:1014A0003EF583E50AF07403250DF58274003EF5E0
:1014B00083E50BF00520E520C3946040A9805E9091
:1014C0000011E0F520AF201520EF602CAE08AF0929
:1014D000E42FFFE43EFAA9077BFFC002C001121E01
:1014E00024D001D0027E027F00120F4F121D211264
:1014F0005E950508050880CD7F0322121E247B011E
:101500007A3079007E027F00120F4F8010121E2465
:101510007B007A0079007E017F00120F4F125E95EA
:101520007F0322900011E0600BD259908040E0448C
:1015300001F08009C259908040E054FEF07F032200
:10154000900011E090800A6006E04402F08004E020
:1015500054FDF01235CB7F03221248607F0322E452
:10156000909012F07F03227F8322903E06E0640772
:101570007003A3E0F47042121DBE125640E51354EE
:10158000037F00FEEF2400F974103EFA7B01C002D5
:10159000C00178007C147D01D001D0027E01120FC1
:1015A0004FE4FF12204B8E228F23C3E523789E96B3
:1015B000E5221896400D0217A8903E06E0F522A3FA
:1015C000E0F5237B14E4FDFCAF23AE2212C00FEF45
:1015D0004E70030217A890100EE064986003021783
:1015E000A8A3E064E260030217A890100A121D3459
:1015F000121E4E901011121D34903E6C120DEB9085
:101600001016121D34903E70120DEB90101B121D1F
:1016100034903E78120DEB901021121D34903E7CD8
:10162000120DEB901026121D34121E54901030E053
:1016300024FF925F901034E024FF9264901036E013
:1016400024FF9255901038E024FF9266A3E024FF17
:101650009263A3E024FF9265A3E024FF92679010B9
:101660003FE024FF925AA3E024FF9260A3E024FF0E
:10167000925CA3E0903E03F0901043E024FF925E62
:10168000A3E024FF9261A3E024FF925DA3E024FF86
:101690009258A3E024FF9250A3E024FF9270305AA6
:1016A000047F0180027F00909001EFF090102EE007
:1016B000789A46F6909016E030E104E654EFF61280
:1016C0001C9AFF903E6C121D16FBD3120D8F400A20
:1016D000903E6C120E1000000000903E6C121C9D9B
:1016E000FFEC4D4E4F6002D262305F09909000E0F7
:1016F00030E302C267E4F521E521C378AC965021BE
:1017000075F002E521A42400F582E5F03411F5839B
:10171000E0FEA3E0FF121D4FEEF0A3EFF0052180E5
:10172000D77D011217FD70030217F812431F7D02C7
:101730001217FD70030217F8901080E0B4FF09A3A0
:10174000E0B4FF047FC080027FB0903E18EFF07DD0
:101750000312180B70030217F8901080E0B4FF0911
:10176000A3E0B4FF047FC080027FB0903E1AEFF088
:101770007D0712180B70030217F8901080E064AA1E
:101780007017A3E0B45512121E75E0B4A50D903E7B
:1017900011E0B45A06D25B8002D25B903E06E5228D
:1017A000F0A3E523F07F0122903E067407F0A374B6
:1017B000FFF0E4F52178ACE6FFE521C39F501378F4
:1017C0009FE6FC08E6FD121D4FECF0A3EDF00521AD
:1017D00080E37E00789FE6FC08E6FD120C0B8E226B
:1017E0008F23AB07AA06E4F9F8AE0EAF0FFCFD128B
:1017F0000C72121E4E121E54D25B7F00227B147C90
:1018000000AF23AE2212C00FEF4E227B147C00AF3C
:1018100023AE2212C00FEF4E227F147E007D007B8C
:10182000017A007900020E67E50D250BFFE50C3506
:101830000AFEE43509FDE43508FC788D120DD2C3AB
:10184000020D8F903E6CE0F8A3E0F9A3E0FAA3E06C
:10185000FB903E74E0FCA3E0FDA3E0FEA3E0227851
:101860008D120DC6EF24FFFFEE34FFFEED34FFFDB9
:10187000EC34FFFC900000020DEB908017E0250D8A
:10188000F50DE4350CF50CFE7809AF0DE4FCFD1206
:101890000DB3788922AF0BAE0AAD09AC08780212FD
:1018A0000DB38F0B8E0A8D098C0822F07403A3F000
:1018B000E4A3F0A322FFE02FFFE433FE74002FF532
:1018C0008274023EF583E064AA22C2547A00790051
:1018D0007E007F009044007400F0A37400F0E49058
:1018E0004104F022904101E04410F07881E6441078
:1018F000F622F0A37441F0A3744CF0A37443F0A358
:10190000744FF0A37452F0A32274002520F582E4F2
:101910003402F583E022250BF50BEE350AF50AEDCE
:101920003509F509EC3508F50822A25CE433FF74AB
:10193000047E00A8070822E0FCA3E0FDA3E0FEA3CC
:10194000E022AE0CAF0DE4FCFDFB7A02F9F8120CBC
:1019500072788922FF7E00E07C002400F9EC3403D9
:10196000FA7B0122A3F0E4A3F0A322903105E0F575
:1019700013903E06E0FEA3E0FF22FEED9400FDEC96
:101980009400FC7889020DDFFFE02FFFE433FE7442
:10199000002FF582740322903E03E0FEC3EF9E9079
:1019A0003E02F0541F2274012520F582E43402F532
:1019B00083E024022278007C007D0122C39BFFEE9D
:1019C0009AFEED99FDEC98FC229000027480F022C2
:1019D0007895760578962278957602789622F0E4C6
:1019E000904105F0788922903E01E06401F09090EA
:1019F00001F022AB0BAA0AA909A808020D8F903E9C
:101A00000B74FFF0A322903E0BE0FBA3E0FAA3E0EF
:101A1000F9227405F0A37408F0A3740FF0227D017D
:101A20007B017A0079117E0022788D120DC6780232
:101A3000020DA0903E15F0903E167401F0227889B8
:101A4000120DD2D3020D8FCEA2E713CE13227880CF
:101A5000E6FF640222F0A37449F0A37445F02278F3
:101A6000957606789622C26DC269125E10E478926D
:101A7000F6122C04C259E4908040F090800B741050
:101A8000F07892E6122C7690800AE04410F0908074
:101A90001AE04401F0908005E030E7F9122BD3748E
:101AA00030F0E478A2F6908005E030E7F9E4908029
:101AB00006F0908005E030E0F9908067E030E018B3
:101AC00078A2E67010069080007405F0E4122BD81E
:101AD00074E0F080D1122BFDE4FD7F2E124997E4D3
:101AE00078A2F6902E00E064986004E0B4451A787D
:101AF000A27601902E02E030E30F902E05E054070D
:101B0000D394044004E64402F6E47894F690800509
:101B1000E030E7F9122C8D7894E6FF12580B908094
:101B200005E030E7F978A2E630E10690800074A283
:101B3000F0E4908000F0122C377430F07894E67066
:101B400014908005E030E70D7892E630E107789454
:101B50007660021BEB908005E030E7F978A2E66042
:101B60000D9080007405F0E4122C3774E0F0E478F6
:101B700091F69080147410F0908005E030E7F9E45D
:101B8000908006F0908005E030E0F990800BE05402
:101B9000036009E020E13DE4FF124199901000E06C
:101BA000640D7030A3E06406702AA3E0640570241D
:101BB000A3E06406701EA3E0B4171978007C30120D
:101BC0002C497E027F00120F4F121E89EF705512B2
:101BD0002C04800B7891E6C394065003068093781A
:101BE0009406E6C394605003021B0D789206E6C388
:101BF00094045003021A71122BFD905748E49390FD
:101C00008007F0908005E030E7F9122C8D90800578
:101C1000E030E7F9122BD37430F0908005E030E724
:101C2000F97F0022D26D90319FE0B45108D25990D3
:101C300080407401F01235CBE4909002F090319224
:101C4000E07004A3E0601D90300CE05470909005AB
:101C5000F0903192E0FEA3E0FF12472390900574CC
:101C600090F0800A90300CE04401909005F0909044
:101C7000027401F0903121E0B45102D26912C00027
:101C8000E47883F67F01227A0479007E047F009055
:101C900044007404F0A37400F022903E74E0FCA3AE
:101CA000E0FDA3E0FEA3E022908017E0250DF50DF6
:101CB000E4350CF50CFEAF0DE4FCFD7809120DB314
:101CC0007889020DDF900010E0900074F090001110
:101CD000E0900075F0900012E0900076F0227DFF19
:101CE0007E027F007B017A047900020E67250BF5E6
:101CF0000BEE350AF50AED3509F509EC3508F5085E
:101D000022E50D250BFFE50C350AFEE43509FDE45F
:101D1000903E783508FCE0F8A3E0F9A3E0FAA3E0F0
:101D2000227A0079007E007F009044007400F0A3C6
:101D30007400F022E0FCA3E0FDA3E0FEA3E0FF229C
:101D4000903105E0F513903E06E0FEA3E0FF22E5AA
:101D50002125E024C2F582E4343EF58322E50D25F9
:101D60000BFFE50C350AFEE43509FDE43508FC22DD
:101D7000F0A261E433A3F0A25DE433A3F0A258E43F
:101D800033A3F0A250E433A3F0A270E433A3F02213
:101D9000F0A266E433A3F0A263E433A3F0A265E407
:101DA00033A3F0A267E433A3F0227E027F007B011D
:101DB0007A007900020E677D017B01020F4F90319E
:101DC00005E0F513222FF50BEA3EF50AE93DF5098A
:101DD000E83CF5082275F002EFA42400F582E5F056
:101DE0003405F5832274002520F582E43404F5835C
:101DF00022FFAB0BAA0AA909A808C3020D8F788D90
:101E0000120DD2C3020D8F900017E0FEA3E0FF2257
:101E1000250BFFEE350AFEED3509FDEC22C394FFDC
:101E2000EE94072278007C007D0122F582E43402E2
:101E3000F583229000747451F0A3222DFDE4338DBC
:101E400082F583E493FE22789BE644F6F622903EE8
:101E500068020DEB903E74020DEB04F0A264E433D3
:101E6000A3F0A322903E18E064B022ED5407FA7468
:101E700001A8020822789AE64401F6903E1022C397
:101E8000E50B94FFE50A940722903012E078A2F661
:101E900090800AE0FF903013E0FEEF4E90800AF051
:101EA0009031F0E0F50EA3E0F50F9031F2E078AC60
:101EB000F69031F4E0F510A3E0F5119031F6E078FA
:101EC000ADF69031F8E0F5129031FA122BBF903157
:101ED000FC789F122BC19031FE122C52903191E070
:101EE000909009F09031A7E078A3F6E670027604AE
:101EF0009031A8E0FF125B89903194E06003122CCE
:101F0000A1122C5D78827614E4F5237882E6FF2412
:101F100000F582E43430F583E0640C600302204570
:101F200074012FF582E43430F583E0FEC4540F12BF
:101F30002C7674022FF582E43430F583E07880F655
:101F40007882E62403F582E43430F583E07881F684
:101F5000908005E030E7F9E4F521E521C37880962B
:101F6000502FAF217401A807088002C333D8FCF5B5
:101F7000227881566010908005E030E7F9122C0C31
:101F8000908000F08007122C0C908001F0052180D9
:101F9000C97882E62401F582E43430F583E0540FF9
:101FA0007880F6E630E0037F0022E4F521E521C3E6
:101FB000788096400302203CE521540725E0241058
:101FC000908014F0908005E030E7F9E4908006F00E
:101FD000908005E030E0F990800BE05403600CE065
:101FE00030E1037F0022E4FF124199908005E03048
:101FF000E10A90800AE020E1037F0022052105210B
:10200000E5215407F5226007E521788066709EE59A
:10201000227003752208E5227F0025E0FEC006C07D
:1020200007E523122C2CA807FC122C49D007D00658
:10203000120F4FE5222523F523021FAD7882740C81
:1020400026F6021F0B122CC17F01228F25E4F50A10
:10205000F50BC3E50B789E96E50A1896400302211E
:10206000DCE5257019122B24CEC313CE13D8F92426
:1020700000F5827414122A1C5E60190221D1122B01
:1020800024CEC313CE13D8F9122ADF122A1C5E60A5
:10209000030221D17B40E4FDFCAF0BAE0A12C00F5E
:1020A000905D02EEF0A3EFF0905D02E0A330E72038
:1020B000122B24CEC313CE13D8F9122ADF3EF58398
:1020C000C083C082122A1F4ED082D083F00221D159
:1020D000C3905D03E094FF905D02E094074003022B
:1020E00021D1E525700CE0B40708A3E0B4FC03029D
:1020F00021FEE525640260030221D1122ABD125D92
:10210000AF905D00EEF0A3EFF0C3905D01E094FFAF
:10211000905D00E09407400D122ABDAD0BAC0A1291
:1021200054EB0221D1E514C3942540030221C87B5E
:10213000407D027C00AF0BAE0A12C00F903EE2EE73
:10214000F0A3EFF0122ABD903EE2E06E7003A3E030
:102150006F600E903EE2E064077004A3E064F770E5
:102160002CE514C39419905D00E0FEA3E0FFE51494
:102170005005122B618003122B6BF583EEF0A3EF59
:10218000F0122ABDAD0BAC0A1254EB8037E514C334
:102190009419E5145005122B618003122B6BF58303
:1021A000E50AF0A3E50BF0122B24CEC313CE13D80F
:1021B000F9122ADF3EF583C083C082122A1F4ED057
:1021C00082D083F0051480097D01AF0BAE0A12C0E6
:1021D00012050BE50B7002050A022052E525601579
:1021E000903102E0B5130E78A5E6FC08E6FD7FFD10
:1021F0007E071254EB7F107A5D7900122B58AE0ADD
:10220000AF0B227D00121CE0903E68121C9DFF90D7
:102210000400120DEB90040474E2F0A37404F0A324
:1022200074A1F07B017A3E796C12591F9004071259
:102230000DEB90040B74A2F07B017A3E7978125971
:102240001F90040C120DEB90041074A3F0E4A3F0A3
:10225000A26C33A3F0A374A4F07B017A3E797C12C4
:10226000591F900414120DEB90041974A5F07B0112
:102270007A3E797012591F90041A120DEB90041FC8
:102280007401F0A374A6F0A25FE433A3F0900423DA
:1022900074A7F0900426121E5A74A9F090042B041F
:1022A000F0A26DE433A3F090900AE090042DF0903A
:1022B000042F74AB121D90A25CE433900436F0A29C
:1022C0005AE433A3F0903E03E0900438121D707B73
:1022D000017A3E797412591F900500120DEB90059A
:1022E0000474B0F0903E19E0900505F0903E1BE0BC
:1022F000900506F0903E18E0900507F0903E1AE039
:10230000900508F0A374C0F0789AE6A3F0A374B126
:10231000F090051004F0789FE6A3F008E6A3F0A380
:1023200074B3F0A26CE433A3F0903E08E09005157E
:10233000F0A374B4F0789BE6FFA3F0789CE6FEA3CC
:10234000F0A374B5F090052404F0A3EFF0A3EEF031
:1023500090053074B7F0909000E0900531F0900552
:102360003574B8F090054004F0903102E0900541DA
:10237000F078A5E6A3F008E6A3F0903105E090051B
:1023800044F0903E06E0900545F0903E07E0900551
:1023900046F078F07C057A3179F07E007F10121DCE
:1023A000B7205306121C87125E957F0322306530DA
:1023B000789AE630E02A90000FE0248F24FC501D2C
:1023C00024F2601924ED601524FC60140424FB50F1
:1023D0000C24A9600824FB6004247970037F822206
:1023E000D25290000FE0120E41252D1025341124F9
:1023F0008A1224E57124E97224ED7324F17424F522
:1024000075250076250977251278251B7B25247CE8
:1024100024C58124D08224DB8324BB96246A97249C
:102420009B9924A39A24AB9B24829C24B39D249340
:10243000F5244AF62452F72472F8245AF9253BFA77
:102440002462FB247DFF000025421253748F1F027B
:102450002545124F548F1F022545125D128F1F0212
:102460002545125E6A8F1F0225451261828F1F0269
:102470002545121CC5125F508F1F022545126100B1
:10248000800B1250A08F1F022545125F72751F032B
:102490000225451240C28F1F0225451233688F1F47
:1024A0000225451222038F1F022545125CA68F1FAD
:1024B000022545124B4F8F1F0225457F0112322DF9
:1024C0008F1F022545121CC5125EBC8F1F022545B9
:1024D000121CC5125B138F1F022545121CC5125D0D
:1024E000478F1F80607F0280197F02801E7F0280DD
:1024F000237F028028903E1CE04402F07F02802669
:102500007F03125A1F8F1F803C7F031260308F1F82
:1025100080337F03125A5C8F1F802A7F03124BDFA8
:102520008F1F80217F031243D48F1F80181247C44E
:102530008F1F80111246808F1F800A1212868F1FF4
:102540008003751F82C252AF1F221260EA7899E69B
:102550006401702E903E1CE030E027AE0CAF0DE41D
:10256000FCFD780B120DB3788912183C7014121808
:1025700095E50DAE0C7802C333CE33CED8F9F50D08
:102580008E0C12194212183C60037F8422125032C2
:102590008F1FEF30E70122788D120DC6D31219F389
:1025A000400930560302267E7F8A221218285003E3
:1025B0007F8A22903E02E0FF6011904107E030E602
:1025C0001112199770051219E78000904107E05425
:1025D000BFF0903E02E04440F02064047F0180029E
:1025E0007F00903E18E0B4B0047E0180027E00EED1
:1025F0005F700302269D12192A8003121A47D8FB26
:10260000FF7899E66F7001EE600302269D788912CB
:102610000DF700000000E4FFFEFDFCC31219F3708B
:102620005D7899E6B4040B903E6C121854F50B12C9
:1026300018A4903E1EE50CF0A3E50DF0750C007596
:102640000D0112C0038F1FE51F30E718903E1EE0FA
:102650007004A3E06401700FE51F30E0047F018087
:10266000027F03227F8922908016E020E0F9903ECD
:102670001FE024FFF50D903E1EE034FFF50C7E0CAC
:102680007F007DFF12181FE50D450C600D125E9551
:10269000E50D150D70F1150C80ED7F0322125D7CA8
:1026A00012C0038F1FE51F30E72D30E01C90410260
:1026B000E030E00312007E904104E020E1EF30546E
:1026C000031218CA751F018003751F037889120D44
:1026D000F700000000800912187A120DDF751F89BB
:1026E000AF1F2290000FE0F51D7889120DC6EC4D4A
:1026F0004E4F601290000CE0648060047F03800203
:102700007F028F1E8003751E017884A61E306D1710
:10271000306914903E15E51DF0E4903E16F012C0AD
:102720001E121A4E600122E51D120E4128190027C3
:10273000FF03285C04279A12285C1527BC1A280C72
:102740001B28261E27DE2327EF2527782827892AFE
:1027500027AB2F283343284045284746284E512889
:10276000555227CD5A27EF9E2868A2285CA3285CE3
:10277000BB2861BD0000286FE51E640260030228CB
:102780007712254A8F1C022874E51E640360030239
:1027900028771238228F1C022874E51E6402600319
:1027A0000228771207D98F1C022874E51E64016085
:1027B0000302287712614E8F1C022874E51E640202
:1027C0006003022877123A548F1C022874E51E64B5
:1027D00002600302287712349B8F1C022874E51EC6
:1027E00064026003022877124D828F1C022874E570
:1027F0001E64026003022877123B588F1C8075E527
:102800001E64027072125C6E8F1C8068E51E64018B
:102810007065125AD68F1C805BE51E6401705812D9
:1028200051DF8F1C804EE51E6401704B1261698F71
:102830001C8041E51E6402703E1245D88F1C803416
:1028400012618A8F1C802D12615C8F1C80261258A9
:10285000958F1C801F1258DA8F1C8018751C0380FE
:1028600013125A998F1C800C125E3D8F1C8005122A
:1028700023AD8F1CAF1C227F82228F232052062083
:1028800053037F0122121DBE12C01520510312C036
:102890001B7FFC7E07125DAF8E0A8F0B121E7F40DE
:1028A000117E107F007DFF7B017A107900120E6788
:1028B0008021E47891F67891E6C394085015E6FDFE
:1028C0007C00E62404FBAF0BAE0A12C00F78910621
:1028D0000680E3E523B4FF097508077509FF02299F
:1028E000CF1255EC8E088F09BEFF06BFFF037F0095
:1028F00022E5237F0025E0FEEF2400F974103EA8B6
:1029000001FC7D017B017A0479007E02120F4FE405
:102910007891F67891E6C3940840030229CF2052BB
:10292000062053037F01227891E68512F084E5F0BA
:1029300070057BA01229F57FFC7E071260D39031D1
:10294000EEE030E30778917BA21229F57891E62535
:10295000E02410908014F090800674E0F0908005E0
:10296000E030E0F97891E624028512F084E5F06029
:1029700007E62402540770509080007410F0908095
:1029800005E030E7F978A2E6FF20E53C908000748E
:1029900070F09080047401F0908002E07892F6EF7D
:1029A00054C06006908003E046F67892E630E01866
:1029B0007D01AF09AE0812C0127BC1E4FDFCAF0976
:1029C000AE0812C00F0228E1789106060229131200
:1029D0001E7F50097D01AF0BAE0A12C012AD09ACCB
:1029E000087FFC7E071254EB903E06E508F0A3E555
:1029F00009F07F0122E6FD7C00AF09AE0812C00F8E
:102A000022F58374FFF0A3F0EF25E025E02439F5EB
:102A100082E4343FF583E075F00AA4223EF583E0BA
:102A2000FF7C00E50B54072440F582EC3457F58316
:102A3000E493FEEF227E007DFF7B01020E67E5221C
:102A400025E02480F582E4343EF58322E52325E069
:102A500025E02438F582E4343FF58322FDEEC313EC
:102A6000FEEF132400F58274583EF583E022E52240
:102A700025E025E02460F582E4345DF583E0FEA3E3
:102A8000E0227E007DFF7B01020E677D017B017EDF
:102A900000020F4F25E025E02436F582E4343FF5AF
:102AA0008322EC25E02400F582E4345DF5832224C2
:102AB000EEF582E4343EF583E4F0A3F022905D026B
:102AC000E0FEA3E0FF22E52225E025E02462F58276
:102AD000E4345DF583E02224E6F582E4343E2224EA
:102AE00000F582745C227C0054072440F582EC34AB
:102AF00057F583E493227F007B01020E67E521787E
:102B0000A026FFE41836FE2225E025E02439F582D0
:102B1000E4343FF58322E52225E025E02463F582B5
:102B2000E4345D22E50BAE0A78032225E024109000
:102B30008014F090800622E52125E024A2F582E4AD
:102B4000343E22789AE64420F67EFF7FFF2225E07D
:102B500024C2F582E4343E227E007DFF7B01020E1A
:102B60006725E02456F582E4343F2225E02415F55C
:102B700082E4343E22AF177E0078A4E6FAFD7C00A2
:102B8000120C0B7891E625E02427F582E4343EF51B
:102B900083EEF0A3EFF0E5188AF0A4FFE625E02429
:102BA00027F582E4343EF58322120F4F7A00790034
:102BB0007E007F009044007400F0A37400F022783F
:102BC0009DE0FEA3E0A60608F6227D017B017E00C3
:102BD000020F4FE4908000F0908001F0F0F0F0F0F0
:102BE00090800022F0E512FD7C00AE0AAF0B120CC3
:102BF0001DECC313ED13FDE5178DF0A42290801A90
:102C0000E054FEF090800AE05480F0227882E625BD
:102C100021FFE433FE74042FF58274303EF583E027
:102C2000227B20AD0BAC0AAF09AE082225E0FEE402
:102C30002400FFEE34A022908001F0F0E50BF0E5D7
:102C40000AF0E509F0908000227D017B017A10797D
:102C5000002278A5E0FEA3E0A60608F622908015E3
:102C60007455F074AAF0227E027F007D007B017A09
:102C7000007900020E6790574893908007F02290E9
:102C80008040E0FFA259E433FEEF4EF02290800036
:102C900074FFF022E517C313F517E518C313F518F1
:102CA00022E05470FFE054074F90900EF022908085
:102CB00000F090800122EBC31378B2F678A406E608
:102CC000229080157477F022908017F0908016740F
:102CD000C0227D017B017E00020F4F8F2178ACE680
:102CE000F515F513C251E4F523E513D378A19650F9
:102CF00003022E3C151312C01530510612C02402D7
:102D00002E06E4F522122AC665136003022DFA127C
:102D10002A4CE0F46004052380F5E4F524E524C39F
:102D20009523502A122AC6FFE524122A4EE0B50741
:102D300019122A6EFFE524122A94E0FCA3E0B507DD
:102D400009ECB506050522022D05052480CF122ABF
:102D50006EFFE523122A94EEF0A3EFF0122A4CE561
:102D600013F0122B16122A142410F9745D35F0FAA0
:102D70007B01C001E523122A0924E6F9743E35F0EF
:102D8000A801FC7D01D0017E007F0A120F4F122B9B
:102D900016F583E075F008A42480F9745D35F0FA27
:102DA0007B01C001E523122B08E075F008A4248CF8
:102DB000F9743F35F0A801FC7D01D0017E007F0849
:102DC000120F4FE523122A09122AD7122A7BC39524
:102DD0000FEE950E5024E523122A0924E8F582E42B
:102DE000343E122A7BFF7D0112C018E523122A0906
:102DF000122AD7F583EEF0A3EFF00522E522C39463
:102E0000085003022D05E521600FE4F51412C021DE
:102E10000514E514C3940840F478107C5D7A3E797B
:102E2000E67F70122A8B78807C5D7D017B017A3F82
:102E3000798C7E007F38120F4F022CE9228F1CE420
:102E400078A4F6908016E020E0F9904104E020E1BB
:102E5000F9121D21900000120E10555342537B00B1
:102E60007A00798512591F900004120DEBE490004E
:102E70000CF090000BF090000AF0900009F0900028
:102E800008F0904106740DF0E4904105F0D25490A2
:102E90004104E030E10A904102E030E0F27F00229C
:102EA000C2547A0079007E00121D29E4904104F09A
:102EB000E51C7002FF22C28CC28DE4F58CF58AD22B
:102EC0008C903E02E0FF6024904107E030E62490C1
:102ED0003E03E0FEC3EF9E903E02F0541F700D9043
:102EE0003E01E06401F0909001F08000904107E025
:102EF00054BFF0903E02E04440F0904104E020E0F6
:102F000010904102E030E0037F0022308DEC7F0022
:102F10002290000FE0701A78A4E6C394015012903A
:102F2000000DE0788366700978A406122F83022EC4
:102F300051900011121D347891121E0070429000C1
:102F40000FE0651C703A90000DE078836670319058
:102F50008016F0122F83121D21E4908014F090004F
:102F600016E0F50CA3E0F50D7891120DC68F0B8ECF
:102F70000A8D098C08121D5D7891120DDF7F0122E8
:102F80007F00227B017A00790412591F7885120D87
:102F9000DF22904106E0547FFFBF211C7F437E4229
:102FA0007D537C55900000E0F8A3E0F9A3E0FAA37C
:102FB000E0FBC3120D8F6007788476027F82227B4C
:102FC000017A00790412591F7885120DDF7B017A8E
:102FD00000790812591F7889120DDF7A0079007E76
:102FE00000123F2190000DE07883F690000FE03052
:102FF0006E3F6412602A7888E6B4051718E6B48F2D
:103000001218E6B4930D18E6B48408903E1C7402BE
:10301000F08006903E1C7407F0306504E4789BF65F
:10302000C26EE47899F678A1E6F5139090077401E2
:10303000F0206C030230C1A264E433FF903E18E03C
:10304000B4B0047E0180027E00EE5F6020A25CE4EA
:1030500033FF7883E6FEB5070F7402A806088002E6
:10306000C333D8FCF51C8037751C108032206115E5
:10307000A262E4332401FFE433FE7883E6FDB50762
:1030800011E4B5060D306305751C088012751C012E
:10309000800D7402A805088002C333D8FCF51C30EB
:1030A0006735205832205703305603305D29788326
:1030B000E6FF7401A807088002C333D8FCF51C8022
:1030C000167883E67008903E08E0F51C8009751CB0
:1030D00004789CE64404F6E51C7899666005AF1C0C
:1030E000124FC37F0222C26DC269122C5DE4F5212A
:1030F000E521C3789596501D122BAC1260A3E521F3
:10310000122C2CA807FC7D017B017E027F00120F90
:103110004F052180DB122CC1122BAC1260A3900151
:10312000FEE0B44A06A3E0644E60037F892290006B
:1031300000E090800AF030E00678A276408004E457
:1031400078A2F67898E6B4800790800AE04480F090
:10315000900002E078ACF6900004E0F510A3E0F5F2
:1031600011900006E078ADF6900008E0F5129000AE
:103170000A122BBF90000C789F122C5490000EE086
:10318000F50EA3E0F50F900191E0909009F0900109
:103190009FE0B4510AD2599080407401F08007C278
:1031A00059E4908040F0E4909002F0900192E07039
:1031B00004A3E0601D900010E05470909005F09022
:1031C0000192E0FEA3E0FF1247239090057490F077
:1031D000800A900010E04401909005F090900274F5
:1031E00001F0900194E06003122CA1900011E0FF27
:1031F000125B899001A7E078A3F6E670027604D20C
:103200006D78007C317A0179007FF0122CD29031F8
:1032100003122C5290310FE078A2F61235CB903188
:1032200021E0B45102D26912C0007F03228F217EB7
:10323000027F007D00121CE490040974F1F0903EBE
:1032400068121C9DFF90040A120DEB90040E7498F6
:10325000F0A374E2F0A374F2F0903E6C121C9DFF98
:10326000900411120DEB90041574F3F0903E70125F
:103270001C9DFF900416120DEB90041A74F4F0904C
:103280003E78121C9DFF90041B120DEB90042074DD
:10329000F5F0903E7C121C9DFF900421120DEB90E6
:1032A000042574F6F0121C9AFF900426120DEB9080
:1032B000042A74F7F0E4A3F0A304F0789AE6541615
:1032C00090042EF0A374F8F0A25FE433A3F0A3748B
:1032D000F9F0900433121E5A74FBF0A255E433A3A4
:1032E000F0A374FC121D90A25AE43390043FF0A2A4
:1032F00060E433A3F0A25CE433A3F0903E03E090DB
:103300000442F0A25EE433A3121D7090048074E1C5
:10331000F090048504F0E478A4F679A4E7C378ACCF
:1033200096501778A4E6FF121D51E0FCA3E0FD12B1
:103330001DD5ECF0A3EDF00680E0789AE69005FF4D
:10334000F0E5216006121C87125E95E4FF12287AD0
:10335000EF60127889120DF700000000306C031244
:103360001E477F03227F8922903E18E064C06003DD
:103370007F8922205306121C871260A37B017A04E6
:10338000790012591F903E6C120DEB7B017A047983
:103390000612591F903E78120DEB7B017A04790BCF
:1033A00012591F903E7C120DEB7B017A04790F12AB
:1033B000591F903E70120DEB7B017A04794012592F
:1033C0001F8F0B8E0A8D098C08900445E0903E0EED
:1033D000F0900446E0903E0FF0900444E064517099
:1033E000499004FEE0644A7028A3E0644E7022FF16
:1033F00078ACE6FEEFC39E5014121DD5E0FCA3E0AE
:10340000FDEF121D51ECF0A3EDF00F80E3E4789C8A
:10341000F6AF0BAE0AAD09AC08EC4D4E4F600BAFEA
:103420000BAE0AAD09AC08121E4E903E6C121C9DEC
:10343000FFEC4D4E4F6003D38001C39262900404B1
:10344000E0B45103D38001C3925CA25CA062925CA1
:10345000903E78121C9DFF903E70121D162FF50BAA
:10346000EA3EF50AE93DF509E83CF50820600990D7
:103470003E70121C9D121CED903E68121C9DC3955F
:103480000BFFEE950AFEED9509FDEC9508FC121E6A
:10349000547899E6FF124FC37F0322900011E05445
:1034A0003FF51F7520FF7521807899E66401600360
:1034B000023571903E1CE020E00302357112612953
:1034C000EF604D900202E06047A3E0900202121804
:1034D000B5703D900202E02408F520E51FB43F08D6
:1034E000A3E024F8F521802812190964AA601012BB
:1034F0001909651F60091219A62520F52080E91217
:10350000190964AA60071219A6F52180037520FF26
:10351000E520B4FF097E007F8012181D804F9002C5
:1035200002E07E002400F9EE3402FA7B01C002C002
:10353000011219B5D001D0027F08120F4FAF217EC2
:10354000007C0074002520F9EC3402FA7B01C002F3
:10355000C00178087C007D01D001D002120F4FE538
:10356000212406900001F074082521F521AF218067
:1035700056E4900000F0A37406F0E4A3F0789AE615
:10358000FB54F960047F8080027F00900003EFF01D
:10359000A3120E1000000000EB7899565406600349
:1035A0001219C920560330570C7899E6B4010690D9
:1035B00000037480F0306C0D7899E6541860069022
:1035C00000037480F07F081255972290800AE03043
:1035D000E105751702803F90800BE030E405751718
:1035E00020803390800BE030E505751750802790E0
:1035F000800BE030E305751748801B90800BE030AE
:10360000E60575177A800F90800BE030E705751797
:1036100080800375172E75180478A2E654C06003E5
:10362000122C949031EEE030E348E47891F6A3E078
:1036300078B2F6E66018E478A4F678B2E6FB30E0FB
:1036400007122B75E02FF006122CB6B408EC90315F
:10365000EDE078B2F6E6605378A4760878B2E6FB3F
:1036600030E007122B75E02FF006122CB6B410ECE8
:103670008039E478A4F6E512C313FF78A4E6C39F6B
:103680005029AF177E00E6FBFD7C00120C0BEB12FD
:103690002B9DEEF0A3EFF078A4E6FFE5188FF0A4E1
:1036A000FEEF122B9DE02EF00680CB903195E0705E
:1036B0003F90800BE030E30578B276262290800BB5
:1036C000E030E40578B2760E2290800BE030E5051C
:1036D00078B2762A2290800BE030E60578B2764206
:1036E0002290800BE078B230E703764622761622ED
:1036F000903195E078B2F6228F21903E0AE0FF707B
:103700000302381ED3944040047E408002AE07E49A
:10371000FFEFC39E5031903E0BE0FBA3E0FAA3E025
:10372000F9903E09E0FD7C00E92DF9EC3AFAEF2929
:10373000F9EC3AFA120BC5FD74402FF582E4340E11
:10374000F583EDF00F80CA7898E6FF20E606E521C4
:1037500064026009EF30E615E521B40710900E56BB
:103760007440F0E4A3F0900E5D74408014E521B441
:103770000613900E40740AF0A37406F0900E48747D
:1037800001F0E4A3F0E521B40706900E417407F0C0
:10379000E52164016005E521B4060FE4900E42F0D6
:1037A000A37402F0900E477440F0E5216401702B81
:1037B000900E4AE0B48006A3E06493600AD26C9055
:1037C0000E507403F08007C26CE4900E50F0206D30
:1037D0000A900E4A7434F0A37412F0E5216402607A
:1037E00005E521B40708903E05E0900E48F09041B1
:1037F00003EEF0904102E020E1F9904102E0542113
:103800006005E054FEF022904102E020E013903E7B
:103810000AE0C39EF0903E09E02EF00236FA123F15
:1038200082221260EA7899E664017027903E1CE0DB
:1038300030E020AE0C780B12188A12183C7014126B
:103840001895E50DAE0C7802C333CE33CED8F9F51A
:103850000D8E0C12194212183C60037F8422125004
:10386000328F1FEF30E7012212182850037F8A227F
:10387000306C107899E6FF6401603DEF54186003E6
:103880007F8722789AE6600F54066008799AE77875
:10389000995660037F8722903E18E064B0702EA294
:1038A0005C12192D8003121A47D8FBFF7899E67C29
:1038B00000B50719ECB50615E50D150DAE0C700237
:1038C000150C4E60051260A380EE7F0322903E022D
:1038D000E0FF6011904107E030E611121997700582
:1038E0001219E78000904107E054BFF0903E02E0DB
:1038F0004440F0125D7C12C0068F1FE51F30E72D9B
:1039000030E01C904102E030E00312007E90410460
:10391000E020E1EF3054031218CA751F01800375CF
:103920001F037889120DF700000000801312187A27
:10393000120DDF751F89E50D450C70047884760142
:10394000AF1F228F218513227895E6F513E52130EC
:10395000E0037F8922122C2112C00FE4908014F022
:10396000852123FE7F40FD122C4B120E67908005AF
:10397000E030E7F9E4908006F0908017E523F090BE
:1039800080167480F0908016E0540A60F8908016DB
:10399000E030E12D90800BE030E1057521EE8007ED
:1039A000E4FF1241998F21908017E0FFC3E5239F28
:1039B000FFC3132400F582E43410F583E521F08081
:1039C000BE908016E020E0F9904104E020E1F990FB
:1039D000800BE0900000F0908005E020E12D126067
:1039E000BC900001EEF0A3EFF0908030E090000773
:1039F000F0908031E0900008F0908032E090000973
:103A0000F0908033E090000AF08018900001740775
:103A1000F0A374FFF07E007F04FD7B017A0079073C
:103A2000120E67900003E508F0A3E509F090000589
:103A3000E50AF0A3E50BF090000B74AAF0780C7C7B
:103A400000122C497E007F40122BA9125E95852220
:103A5000137F0322E4F51F7899E6B4010A903E1C17
:103A6000E030E0037F8322900010E054081313132A
:103A7000541F900400F0900011E0543F900402F0B5
:103A8000900012E0900403F0900013E0900404F022
:103A9000900014E0900405F07E027F0012181DE4EF
:103AA000900001F0789AE6FF54F960047E8080026D
:103AB0007E00900002EEF0E4A3F07899E6FE5F54F9
:103AC0000660031219C9205603305707EEB40103EC
:103AD0001219C9306C0A7899E6541860031219C992
:103AE000751F04306D0E741A121A3312C01E121A8A
:103AF0004E600122900402E0900004F0900402E085
:103B0000604924F8601224C96018242370309000A2
:103B100005740AF0740C80209000057412F074147F
:103B200080169000047408F0A37412F090001874CA
:103B30001CF0A3740AF07420251FF51F800D90005F
:103B4000057401F0E4A3F0051F051FE51F149000A4
:103B500000F0AF1F125597221250328F1FEF30E73F
:103B600003023C477E007F207D007B017A047900C0
:103B7000120E6790000FE0F520B42513900017E0B7
:103B80005401F52178047C04121A1E7F04801190E0
:103B9000001DE05401F52178007C04121A1E7F0CF0
:103BA000120F4FE521701D900400121937FFEC4DE4
:103BB0004E4F700D900404121937FFEC4D4E4F60BC
:103BC000037F84227899E664017033903E1CE0FF05
:103BD0005405FEBE010CEF4404F0903E1DE070025F
:103BE00004F0305E19903E1CE030E012121A2912E7
:103BF0001864900004120E1000000800802C7899C0
:103C0000E6B410143062081218431219BC80041272
:103C10001851FF788D120DDFE520B4251112185FC1
:103C2000900004120E10000002007F0880167E0033
:103C30007F2012181D12185F900008120E1000004D
:103C400002007F20025597AF1F22124E02903E01C4
:103C50007401F0904102E030E00312007E7880E6CB
:103C6000B40118904104E030E011122F927880EFF7
:103C7000F6BF02071226E37880A6077880E6FF6485
:103C8000036004EFB40405124E7480C77880E6B474
:103C9000050B904101E020E4047603801D7880E666
:103CA000FFB40607904101E030E20BEFB4070B9040
:103CB0004101E020E404788076047880E6FF30E774
:103CC00007123D387880A607306F09C26F90410710
:103CD000E04401F07880E66401704D904107E030E7
:103CE000E646903E02E0FF603F903E03E0FEC3EFF9
:103CF0009E903E02F06015E0541F7007903E01E078
:103D00006401F0904107E054BFF08014305A047F02
:103D10000180027F00903E01EFF0306D0312C01E63
:103D2000903E01E0909001F0904107E020E4030212
:103D30003C531252AC023C53AD07904104E020E1E9
:103D4000F9ED247FB40F004003023DFD903D5A750C
:103D5000F003A4C58325F0C58373023D87023D8D22
:103D6000023D95023DCE023D9D023DA4023DAB02C7
:103D70003DB5023DBC023DC7023DD5023DFD023DC1
:103D8000E0023DEA023DF11218E47F05221219D04B
:103D90007626023DF91219D07620023DF91219D784
:103DA000763A8055121A5F7628804E789576077895
:103DB00096762780441219D7760480051219D77693
:103DC000FF789776FF80361219D07621802B121952
:103DD000D0762480241219D7760478977601801D36
:103DE0001218E4121A5F7629800F121A5F76298062
:103DF000087895760378967611E47897F67884E6D5
:103E0000FCB402071218E47D078017ECB40311908C
:103E10004101E04404F07881E64404F67D06800226
:103E20007D04AF052209022000010100803209044F
:103E30000000020806500007050102000200070505
:103E400082020002000C121E0422183A286210722C
:103E50001C12010110000000408F05809301000139
:103E600002000104030904180341006C0063006FA1
:103E700000720020004D006900630072006F00288E
:103E8000034D006100730073002000530074006F45
:103E90000072006100670065002000440065007644
:103EA00000690063006500100336003900390030F6
:103EB0000046003000310047656E65726963205529
:103EC000534220466C617368204469736B2020372D
:103ED0002E3736000000000000000000AAAAAAAA9F
:103EE000AAAAAAAAEEEEEEEEEEEEEEEEFEFFFFFFBF
:103EF000FFFFFFFFFFFFFFFF7FBFDFEFF7FBFDFCD3
:103F00007EBFDFEFF7FBFD7E900E45E0900074F082
:103F1000900E46E0900075F0900E47E0900076F02D
:103F2000229044007400F0A37400F02278407C0ECC
:103F30007D017B017A0E79007E007F08120F4F9081
:103F40004102E054FEF022F0904102E04441F022B0
:103F5000903E0B74FFF0A3743EF0A37445F022E092
:103F6000FCA3E0FDA3E0FEA3E02285132090310531
:103F7000E0F513903E06E0FEA3E0FFC394FFEE944D
:103F80000722904102E04451F0227A047900903EE9
:103F90000B7401F0A3227881E654EAF6904101E027
:103FA000442AF0E054EA22900E45E0900075F0902B
:103FB0000E46E0900076F022E493903E09F022A3B2
:103FC000F0E4903E09F022E4904104F0788076011C
:103FD00022904106F0E4904105F022D253900E4425
:103FE000E022903E207403F022909000E030E20343
:103FF0007F0022909012E030E0037F0022121A66C8
:10400000EF7002FF2212156AE4F513E513C378ACD2
:1040100096501DE513122B4E122A7B789FA6060898
:10402000F6E61846600678A1A6138004051380DB27
:1040300090900AE020E707909000E030E411909023
:1040400016E020E50AE030E20312C0247F0122904E
:104050009016E020E03378ACE62401FFE433FEEF75
:1040600025E0FFEE33FE7DFF7B017A3E7980120E64
:104070006778ACE675F002A4FFAEF07DFF7B017AB5
:104080003E79A2120E67125964903120E0645160AB
:104090002E1257787F0212204B124A2C909016E075
:1040A00054F7F07E087D007A347900122AF67F01F9
:1040B000122CDB909016E054CFF0E4903E5FF07F3E
:1040C0000122205306121C871260A3C266C263C27B
:1040D00064C265C267C25AC25FC260C25EC261C2C8
:1040E0005DC258C250C270900403E0B45104D2645F
:1040F000805A900404E0B45104D266804F900405C5
:10410000E0B45104D2638044900406E0B45104D278
:10411000658039900407E064517031D267900400E3
:10412000E0B45102D25F90040EE0B45102D25E902E
:10413000040FE0B45102D260900413E0B45104D2F1
:104140005D8009900414E0B45102D25890040BE051
:10415000B45102D25A900409E0B4510DE4903E02E9
:10416000F090040AE0903E03F0305A047F01800290
:104170007F00909001EFF0900412E0B45106A26726
:1041800072639261900415E0B45102D2509004160B
:10419000E0B45102D2707F0322E519601F90800BBA
:1041A000E030E1037FEE22908010E0FD90800F74FC
:1041B00001F090800FE030E0F9AF0522E490800C30
:1041C000F090800BE030E1037FEE2290800DE0F56F
:1041D00028908010E0D378B39640037FEE22908041
:1041E00006E0543025E0FDE4FCECC39528507090C7
:1041F000800CE0F9908020E0FE908021E0FBEEF55D
:1042000026EBF52794FFE52694034015E527940453
:10421000E5269404500B74302527F582E434808021
:1042200036C3E5279404E52694045033ED6016C3A5
:10423000E52694024004ED20E622C3E526940250D0
:1042400004ED20E517908013E0FEE42527F527EE26
:104250003526F526852782F583E069F00C808A9063
:104260008010E0FF2278AEE66F700302431E78AE46
:10427000A60712C027EF4E70089090107404F080CB
:10428000FE90800AE054EEF0E4909002F0909005E9
:104290007431F09090027401F09080147410F090DA
:1042A0008022F09080237405F090801714F09080A5
:1042B0001674C0F0908016E020E0F9E4908023F0BE
:1042C00090800AE0FF903013E05410FEEF4E908093
:1042D0000AF078A2E654C06004E04401F0E4909053
:1042E00002F0903192E07004A3E0601D90300CE089
:1042F0005470909005F0903192E0FEA3E0FF1247D9
:10430000239090057490F0800A90300CE044019066
:104310009005F09090027401F0E4908023F02290D8
:104320001000E0649960030243D3A3E064076003D4
:104330000243D3901003E0FF901002E02F2432FFDD
:10434000E4FEFDEDC39F501074002DF582E434109F
:10435000F583E02EFE0D80EB74002FF582E434101F
:10436000F583E06E706DD26B306B2390107DE0F4BE
:10437000FF90107CE0B50716E0D394FA4008903E19
:104380000574FAF0800890107CE0903E05F09010E3
:104390007EE0643C703DA3E064C37037901081E020
:1043A0006403702FFEFD901080E0FFEDC39F50105E
:1043B00074802DF582E43410F583E02EFE0D80E646
:1043C000901080E02480F582E43410F583E0B50697
:1043D00002D26A228F21121D46121E1D501485130F
:1043E00022121DBEAD217C007B1212C00F8522134C
:1043F0008003121CDE903E19E0900400F0903E1BFA
:10440000E0900401F0903E18E0900402F0903E1A13
:10441000E0FB900403F0A374C0F0A25BE43325E05A
:10442000FE789AE6FD54012E900408F090047EED8B
:10443000F0E65406FFBF0604E04440F0E521B40274
:104440000A903E18E0900480F0800AE521B403054C
:10445000900480EBF0205F0E909000E030E307E4E2
:10446000900481F080069004817401F090048274BD
:10447000E2F0A37404F0205306121C87125E957FAD
:104480000322903E057432F0E4789AF60876FF082D
:10449000F6903E087480F0C251C26CC26BC26AC210
:1044A00064C267C262C255C266C263C265C2617835
:1044B000B37648C25AC25FC260C250C270C258C20C
:1044C0005EC25DC25C903E68120E1000000000905B
:1044D0003E6C120E1000000000903E70120E100094
:1044E000000000903E74120E1000000000903E7814
:1044F000120E1000000000903E7C120E1000000012
:1045000000903E037410F0E4789AF6903E1874C060
:10451000F0903E1AF0E4903E19F0903E1BF01255D8
:1045200042126000903E5FF09090167438F02212B4
:104530002C679000027498F0A37401F078A7E6A3AA
:10454000F008E6A3F008E6A3F008E6A3F0A3744A97
:10455000F0A374E2F0A37404F090900AE090000BD2
:10456000F0A26CE433A3F07898E6A3F09000107406
:104570004AF0A3E513F0A251E433A3F0908007E0E2
:10458000900013F090900EE0900014F090002074D2
:104590004FF09000307448F0900040744EF09080DE
:1045A0000BE0900100F0909013E0900101F0A3E582
:1045B00019F0908009E0900103F0908011E09001E3
:1045C00004F0909012E0900105F0908040E090019E
:1045D00006F0125E957F0322900010E05402F51F52
:1045E000E47F01FEFDFC788912183C70037F842271
:1045F000900011E020E107900018E030E74A1261D6
:1046000029EF603B900200E06035A3E090020012C9
:1046100018B5702B900201E0FF7E00900200E07C54
:10462000002400F9EC3402FA7B01C002C001121927
:10463000B5D001D002120F4F900201E0FF80327F0F
:104640003012181B7F308029121819900002740153
:10465000F0A3F09000057414F0A37401F0E51F2599
:10466000E025E0240A900001F090000AE51FF07FA9
:10467000141255977889120DF7000000007F03226D
:104680002065037F8222900013E0641060037F8422
:10469000227A047900121C8FE4904104F0904104C6
:1046A000E030E0F978847601789AE630E0037F879D
:1046B00022E4F520121DE5E070270520E520B41066
:1046C000F3121D467B147D077C0012C00F901080F2
:1046D000E0B4AA0AA3E0B45505121CDE80357F03BE
:1046E0002290048074AAF0A37455F0900400E0F5C1
:1046F00021E4F520121DE5C083C082E0FFE520FD26
:10470000E521121E3BEF6ED082D083F00520E5201C
:10471000B410E17F0712287AEF6005C25B7F0322A5
:104720007F89228E228F23E4FD79FFFCEC640270E6
:10473000030247C3909003EDF0909004E9F090904D
:104740000B7401F090900BE030E0F990900CE0FEDB
:1047500090900DE0FBEEF524EBF52590900CE0B584
:104760002306E4B522027C02EC1460250470BDC36C
:10477000E5259523E5249522500DE970047C018000
:10478000ABE9C313F980A5ED25E04401FD7C018070
:104790009BD3E5259523E5249522400FBDFF047C9E
:1047A000028089ED25E04401FD80817C02E52565DC
:1047B000237004E5246522700302472CEDC313FD2A
:1047C00002472C222065037F8222900013E06410B0
:1047D00060037F84227A0279007E027F0090440089
:1047E0007402F0A37400F01260A378847601305B49
:1047F000037F8722121D46121E1D50618513201251
:104800001DBE7B107D077C0012C00F852013900217
:1048100000E0FFE4F520E520FDEF121E3B740025CB
:1048200020121E2BE06EFE74002520F582E4340079
:10483000F583E06E6011D25B121E7574A5F0903E98
:1048400011745AF07F87220520E520B410C8E49047
:104850003E10F0903E11F0789AE654FEF67F032267
:10486000909016E04438F078ACE62401FFE433FE83
:10487000EF25E0FFEE33FE7DFF7B017A3E7980126B
:104880000E6778ACE675F002A4FFAEF07DFF7B0109
:104890007A3E79A2120E67903E5F74FFF0E4F51342
:1048A000E513C378AC96501EE513121D51E0FEA32C
:1048B000E0789FA60608F6E61846600678A1A613DB
:1048C0008004051380DA1259641257787F0212208F
:1048D0004B909016E054F7F0124A2C7E087F007D32
:1048E000007B017A347900120E677F01122CDB9075
:1048F0009016E054CFF0E4903E5FF02278A1E6F508
:1049000022E522D378AC96503E122A3EE0F520A351
:10491000E0F521C394FFE52094075027E521AE2060
:104920007803CEC313CE13D8F9122ADF3EF583C025
:1049300083C082E0FFE521122AE6F4FEEF5ED0821A
:10494000D083F0052280BA78A1E6F52278ACE6FFA4
:10495000E522D39F5040E522B50727905DFDE07822
:1049600095F6909006E0FFC313905DFDF01255ECB4
:1049700078ACE6122A40EEF0A3EFF07895E6905D71
:10498000FDF0122A3EE0FCA3E0FDE522122AFF1210
:1049900054EB052280B6228F2490801AE0F930E48F
:1049A000155301EF908007E0FCE4F090801AF0903E
:1049B0008007ECF08005E490801AF0908005E030EC
:1049C000E7F9122C8D908005E030E7F990800074B3
:1049D00090F0908001EDF000000000000000000069
:1049E000000000E4FC9080047401F0908002E0FD7F
:1049F000E524FEEC7A002400FFEA3E8F82F583ED89
:104A0000F090800AE030E01A908003E0FDE524FE9B
:104A1000EC2400FFEA3EFE74082FF582E43EF583A5
:104A2000EDF00CBC06BF90801AE9F02278A1E6F503
:104A30002178ACE6FFE521D39F4003024ABEE52181
:104A4000122A40E0FCA3E0F47002ECF4706BE52164
:104A5000C39F500BE521122B4E122A7B4E605A1237
:104A60002AFD125DAF8E228F23C3E52394FFE5223A
:104A7000940740191255EC8E228F23122AFDAD2384
:104A8000AC221254EB122B37122AB68020E5217883
:104A9000A1667019FDAF23AE2212C018AD127C00C2
:104AA000120C1D122B37F583EEF0A3EFF0E5211267
:104AB0002A40E522F0A3E523F00521024A312278BD
:104AC00098E630E6047F0080027F80904104EFF09A
:104AD0008513217895E6F5137BA0122C2312C00FC5
:104AE000E4908014F07402122CC8122BE485F0229A
:104AF000F523E5188DF0A425182522F522908016BF
:104B0000E020E0F97898E630E6047F0080027F80BC
:104B1000904104EFF0904104E030E0F9908040E0F3
:104B200054FEF07485122CAEE523F0E522F090805F
:104B3000067484F0908005E030E0F99080007410F5
:104B4000F0122C7FE4908014F08521137F03222043
:104B50006A037F0322205306121C871260A3851369
:104B600021121D407B117D017C0012C00F85211395
:104B7000E4F521E52125E0FFE433FE74822FF58280
:104B800074023EF583E0FF74002521121E2BEFF026
:104B90000521E521B408DCE4FFF521E521540724D3
:104BA00000121E2BE0FE74002521121DE9E06E2F7D
:104BB000FF0521E521B440E3EF7021900440E07847
:104BC0009A30E40DE64410F6909016E054FDF08023
:104BD0000BE654EFF6909016E04402F07F03228F2C
:104BE00021E521B40209903E19E0D39402500EE56C
:104BF00021B4030C903E1BE0D3940240037F892232
:104C0000205306121C871260A3851322121D40AD8B
:104C1000217C007B1112C00F85221312510DE5215A
:104C200064027024BFB00F903E18E0B4B008903E0C
:104C300019E004F08005E4903E19F0903E18EFF082
:104C4000306C26121E478021E521B4031CBFB00F33
:104C5000903E1AE0B4B008903E1BE004F08005E4FA
:104C6000903E1BF0903E1AEFF07F0322C299ED3088
:104C7000E61275990D3099FDC29975990A3099FD22
:104C8000C29980087599203099FDC299ED30E01BDA
:104C9000EF75F00A842430F5993099FDC299EF75CB
:104CA000F00A84E5F02430F5998032EF54F0C454D2
:104CB0000FFED39409400674372EFE800474302E04
:104CC000FE8E99EF540FFED39409400674372EFEE2
:104CD000800474302EFE3099FDC2998E993099FD72
:104CE000C299ED30E71075990D3099FDC29975990B
:104CF0000A3099FDC29922E4903E21F0A3F0903E43
:104D000021E0FCA3E0FDC3EC9402505D904102E081
:104D10005421600BE054FEF0903E207404805C90BF
:104D20004102E030E007903E207402804E74002D76
:104D3000F974043CFA7B01C002C00178407C0E7D0E
:104D400001D001D0027E007F40120F4F90410374CA
:104D500040F0904102E020E1F9903E22E02440F052
:104D6000903E21E03400F08095123F82E4903E2096
:104D7000F0125DE1EF7008903E2004F07F00227F8A
:104D800001221250328F1FEF20E7747899E6B41099
:104D9000143062081218431219BC8004121851FF13
:104DA000788D120DDF1218199000037410F0900026
:104DB000087402F090000AF0900012F07899E6640E
:104DC000017021305E1E903E1CE030E01790000321
:104DD0007408F090000AF0121A29900004120DEBEA
:104DE0007F0C8018788D120DC6900004120DEB78A0
:104DF0008D120DC690000C120DEB7F14025597AF6B
:104E00001F22E4904104F0904200E05403700C90A3
:104E10004107E030E4F11252AC80EC904200E078BF
:104E20009830E00476408009768090800AE04480E3
:104E3000F0E47881F6903E04F090900AE020E72FAD
:104E4000909000E020E428904104E0FF904102E0CF
:104E50004F20E00C904107E030E4EC1252AC80E7C8
:104E6000126088E4909010F0909016E04401F07881
:104E700080760122908016E020E0F9904104E02045
:104E8000E1F97A0079007E007F00123F2190000056
:104E9000120E10555342537B007A00798512591F28
:104EA000900004120DEB7B007A00798912591F9053
:104EB0000008120DEB7880E6B403047F0080027FC7
:104EC0000190000CEFF0740D123FD1904104E030DE
:104ED000E10C904102E030E0F212007E80ED123FE2
:104EE00021123FC7228513217895E6F513122C2154
:104EF00012C00FE4908014F0908005E030E7F9E4F0
:104F0000908006122BE485F022F523E5188DF0A49D
:104F100025182522F522908005E030E0F9125E95F3
:104F2000125E95908040E054FEF07405122CAEE5C0
:104F300023F0E522F090800074E0F0908006740485
:104F4000F0908005E030E0F9122C7F125E9585210B
:104F5000137F03221260EA121D01FBC3120D8F5052
:104F6000037F8A22903E7C121C9D121DF1400A9004
:104F70003E1AE0B4B0037F8922121C9A121E10352B
:104F800008FC903E70121D16121DC5206009903E4F
:104F900070121C9D121CED12C006AB07EB30E7131C
:104FA0007889120DF700000000EB30E0037F01224A
:104FB0007F0322121CA8E50D450C7004788476014D
:104FC0007F89227899A607EF14604614601524FEA5
:104FD000601E24FC604424F8604024907053903E8E
:104FE000688031306205903E6C8003903E7480246E
:104FF000903E6CE0F8A3E0F9A3E0FAA3E0FB903E5A
:1050000074123F5FC39BFFEE9AFEED99FDEC988012
:105010001A903E70123F5FFF8012903E70123F5F09
:10502000FF2FFFEE33FEED33FDEC33FC788D120DD8
:10503000DF22307021903E18E0B4B01A12192A8095
:1050400003121A47D8FBFF7899E67C00B50707ECF6
:10505000B506037F85227899E6FF789BE6FE5F60C0
:1050600005EFF45E8033799CE778995660037F857D
:1050700022205F29909000E030E310789AE620E744
:105080001C4480F6789BE644F6800E789AE630E77A
:105090000C547FF6789BE644F6F67F86227F00224A
:1050A000900010E0F520A3E0FF1313543FF521E03A
:1050B0005403F508A3E0F509A3E0F50BA3E0F50A16
:1050C000E5206409702BE50B6407450A6039121D61
:1050D00046121E1D5014851321121DBE7B10AD0BF0
:1050E000AC0A12C00F852113801D7DFF121DAA80FE
:1050F000168513208521137B10AD0BAC0AAF09AECA
:105100000812C00F852013125E957F032290028043
:10511000E0B4FF08A3E0B4FF037FC022900480E066
:10512000F9A3E0FF900280E0FEA3E0FDEF6D704088
:10513000FDEDC39F503D74822DF582E43404F58368
:10514000E0FC74822DF582E43402F583E0FB121E4C
:105150006B8002C333D8FC596204121E6B8002C3F9
:1051600033D8FC5E6203EC6B60037FB0220D80C11C
:105170007FB0227FA022AD07125DE1EF7006903E66
:1051800020048051904102E030E506E054FEF080BA
:10519000E7904103E0540FFFBF0807904102E02071
:1051A000E711123F3F904101E04401F0903E20742E
:1051B000028022900E03E0B40316900E02E0B505C3
:1051C0000F900E01E0B40608900E00E064806009C4
:1051D000903E207402F07F0022123F2C7F012212A9
:1051E0005032EF70607899E664017056903E1CE092
:1051F000FE54036401704BEE30E223903E1DE0FE4E
:10520000B401067402F07F8522EE64027034903E91
:105210001D7403F0903E1CE04402F07F8622306053
:105220000A903E1CE04402F07F0322903E1DE00401
:10523000F0E0D39406400BE4F0789BE64401F67F5F
:1052400085227F0322228F1AEF75F004A42436F9F9
:10525000743F35F0FA7B01C002C00178E27C3E7DEC
:1052600001D001D0027E007F04120F4F851A1BE58A
:105270001B602B75F004A4FFAEF02432F9743F3E9E
:10528000FA7B01C00174362FF9743F3EA801FC7D02
:1052900001D0017E007F04120F4F151B80D178369C
:1052A0007C3F7A3E79E27F04122A8B22909001742F
:1052B00001F090801CE0540FFFBF0FF6306D031219
:1052C000C01EE4908007F0904107E04420F0000009
:1052D0000000000000306D0312C01E904107E05432
:1052E000DFF0904200E0540360F8904200E030E0CC
:1052F000117898E6B48005E4904100F07898764003
:10530000800478987680E4909001F0908007744053
:10531000F0228D20E4FEF521908014E0F522E4F5E2
:1053200023EF30E003432310EF5401FDC3EF9DFF53
:10533000908005E030E7F9AA07EAC39520502CEAEF
:10534000122B2BE523F0908005E030E0F990800BE4
:10535000E05403600FE4FF124199AE07EED39521AC
:1053600040028E21E4F5230A0A80CE908014E522C3
:10537000F0AF21221260EA121D01FBC3120D8F5003
:10538000037F8A22903E7C121C9D121DF1400A90E0
:105390003E1AE0B4B0037F8922121C9A121E1090AC
:1053A0003E70121D13121DC5206009903E70121C24
:1053B0009D121CED12C003AB07EB30E71378891286
:1053C0000DF700000000EB30E0037F01227F032295
:1053D000121CA87F8922908007E0F52190800AE0C6
:1053E000F522125E10122C6790800A7401F0E4F529
:1053F00023E523122C767895E6FD7F2E124997E55A
:105400002375F010A42400F9740035F0A801FC7A8B
:105410002E79007F10122BCA0523E523C394084080
:10542000D0908007E521F090800AE522F0125E9589
:105430007F03227895E6F51312C01578107C5D7A0B
:105440003E79E67F70122BCA78807C5D7A3F798C3A
:105450007F38122CD2E47895F67895E6FFC394074E
:10546000502BEF7F0025E0FEEF2400F974503EFA48
:105470007B01C002C00178007C007D01D001D00218
:105480007E02122BA9125E9578950680CC7F0322AE
:105490007895E6FEC378AC9640037F0322903E02E7
:1054A000E0FF6024904107E030E624903E03E0FDF9
:1054B000C3EF9D903E02F0541F700D903E01E064DA
:1054C00001F0909001F08000904107E054BFF0900F
:1054D0003E02E04440F08513218E1312C00C85215A
:1054E00013BF81047F0180027F03228C268D2774E5
:1054F000002FF58274503EF583E527F0EF30E01081
:10550000E526540FC454F0122A5C540F4DF0800B62
:10551000E526540F122A5C54F04DF0E527AE2678AC
:1055200003CEC313CE13D8F9122ADF3EF583C0830E
:10553000C082E0FFE527122AE6FEEF4ED082D0833C
:10554000F022E490800AF07C0212600B908005E06B
:1055500030E7F990800074FFF0908005E030E7F9C3
:105560009080007490F0E4A3F0FE9080047401F049
:10557000908002E0900000F0E0B4FF1A0EBE06EA50
:10558000EC5407FEC454F04E90900EF00CECC39413
:105590000940B67411F0228F22E47F01FEFDFC78F1
:1055A0008912183C70037F8422AF22E4FCFDFE12B6
:1055B0001A3E4025904106E5221219DE305602803F
:1055C00021120DC6C007AF22AB07D007C3EF9BFF68
:1055D000EE940012197A7F8122788CE690410612AF
:1055E00019DE120DF7000000007F0322E4F9905D40
:1055F000FDE0FC905DFEE0FDAF0474002CF582E45C
:10560000345CF583E0F524F46028EDC3940850225F
:10561000ED9057409355247016ED04905DFEF09088
:105620005DFDECF075F008A4FFAEF0EF4DFF220D2C
:1056300080D8E4FD0CEC70C009B902BC122B4322E7
:10564000E513C31354FEF524851325903102E0F5CC
:1056500013903100E064A0601378A5E6FE08E6FF31
:10566000E5122524FDE433FC7B04801E75F002E581
:1056700024A42410F582E5F03431F583E0FCA3E0A6
:10568000FD78A5E6FE08E6FF7B0412C00F85251312
:1056900022E4903E00F0903E04F07895F608F6087B
:1056A000F6D26EC26FC254C253C252903E20F0A3D3
:1056B000F0A3F0C256C257903E10E0B4A50FA3E08D
:1056C000B45A0A789AE64401F6D25B8002C25BE4DF
:1056D000903E02F0903E1CF0A3F07880760122EF1D
:1056E0000475F004A4142436F582F58475833F759F
:1056F000853FE0F5F01582E0FC1582E0FD1582E0C3
:10570000FF1582E00586F0158615821584E582B4C2
:1057100036F1E00586F01584E5F0F01584ECF0151F
:1057200084EDF01584EFF0158622E4FF22000204D8
:105730000610121416181A1C1E30505254343638E3
:10574000010204081020408040801020040801025B
:10575000003FC0FF007FBFC000403F2F0000FFFFA1
:10576000C00080807F7F7FFF0001020406081000D8
:10577000800600FFAABBCCEE7E0C7DFF7A5079003C
:10578000122AF67F327A3F7956122A827F187A3EA1
:105790007947122B58125640E5135403F509AF0907
:1057A000EF7F00FEEF2400F974103EFA7B01C00287
:1057B000C00178007C5C7D01D001D0027E01120F17
:1057C0004F228F21E52130E0037F89228513227843
:1057D00095E6F5137898E630E6047F0080027F8036
:1057E000904104EFF07BA0122C2312C00FE49080B4
:1057F00014F0E521122CC8F0908016E020E0F9901A
:1058000080007410F08522137F0322EF75F00C8462
:10581000FEEF75F00C84AFF0EE90576893F509EE4B
:10582000C39407500FEF90575093F50BEF90575CD0
:1058300093F50A22EF5401FEF404F50BEFC313FDB8
:105840007404A805088002C333D8FCC39EF50A225D
:105850001260EA900015E0FF124FC3121D5D121D89
:10586000FE50037F8A22125D7C12C006AB07EB302C
:10587000E7137889120DF700000000EB30E0037F9A
:1058800001227F0322121CA8E50D450C70047884C8
:1058900076017F8922126129EF6032900300E06077
:1058A0002CA3E09003001219881218C3701F9003F4
:1058B00001E0900300121954C002C0011219B5D0C2
:1058C00001D002120F4F900301E0FF80097E007F9C
:1058D0002212181D7F2212559722126129EF603281
:1058E000900302E0602CA3E09003021219881218C2
:1058F000C3701F900303E0900302121954C002C04A
:10590000011219B5D001D002120F4F900303E0FF2E
:1059100080097E007F2412181D7F2412559722EBE8
:10592000700CE7FF09E7FE09E7FD09E7FC221470A8
:105930001089828A83E0FFA3E0FEA3E0FDA3E0FCE0
:1059400022BBFE0CE3FF09E3FE09E3FD09E3FC22B1
:1059500089828A83E493FF740193FE740293FD7439
:105960000393FC227F207A3F7936122A357F507AC2
:105970003E79E6122A357F387A3F798C122A82E402
:10598000F514E514122B08E514F0122A09122AAFB7
:10599000E514122A09122AD7122AB60514E514B4FE
:1059A00008E022EF122A9474FFF0A3F0EF122A4EBF
:1059B00074FFF0122A08122AD7F583E4122A05246C
:1059C000E8F582E4343E122A0124EAF582E4343E0A
:1059D000122A0124ECF582E4343E122A01122AAF85
:1059E00022900075E06003D38001C3926C90007632
:1059F000E0903E08F0E0B420037402F0903E08E02E
:105A0000B440037404F0205313A26CE433900000FC
:105A1000F0903E08E0900001F0125E957F03228F27
:105A200021E521B40205121E64600CE521B4030ACD
:105A3000903E1AE0B4B0037F8922121E33E521F0B4
:105A4000125EBCBF0315E521B40205903E18800824
:105A5000E521B40306903E1A74A0F0228F21E521BF
:105A6000B40205121E64600CE521B4030A903E1ACC
:105A7000E0B4B0037F8922121E33E521F0125D47A6
:105A8000BF0315E521B40205903E188008E521B456
:105A90000306903E1A74C0F0227E027F0012181D89
:105AA000E4FF7E02FDFC121A3E40157889120DC6F5
:105AB000C3EF9400FFEE940212197A125E9580E013
:105AC000788CE6904106F018E61219E0120DF70006
:105AD0000000007F0322205037900013E054036041
