:020000020000FC
:10000000026619020C50020C69020C96020CA8023E
:100010000CFD020D88020E1A020E2B020E3E020E7D
:1000200051020E5D020E6A020E76020E82020E9BD5
:10003000020ECC020EF2020FDA02000002000002F1
:1000400060D4025D650258BA0261A8024381025978
:1000500066020000024EEE025CA1023232025FF73D
:100060000255C2026336025A5F02646A02656C027C
:100070006583025FBF025004024AE402444D90418E
:1000800002E030E505E054FEF022904103E0540F19
:10009000FFBF0807904102E020E706123E5A02081F
:1000A0003B123E47900E41E024026052146031142E
:1000B000B40B00400302083B9000BFF828287302ED
:1000C00001270201AA02083B02022F02083B020399
:1000D0003D02035D02083B0207DD0207E702082636
:1000E000900E40E064217013900E44E0700D123EBB
:1000F000A6123E62123E3C123EE32202083B900EE4
:1001000040E064A1701E306104F0020834A263E490
:1001100033FFA262E4332FFFA267E4332F900E4037
:10012000F002083402083B900E40E0247F60101477
:10013000601E2402706A903E00E0900E408058904D
:100140000E44E07008900E40F0A3F0805602083B89
:10015000900E44E014601E2481600824FE60282470
:1001600082703A7881E630E0047F0180027F00905F
:100170000E40EF80227881E630E2047F0180027F2A
:1001800000900E40EF80107881E630E4047F01801B
:10019000027F00900E40EFF0E4A3F0800602083BDF
:1001A00002083B9041037402F022900E40E0701967
:1001B000900E42E0B4010F903E00E054FDF09041FB
:1001C00007E054FBF02202083B900E40E06402700E
:1001D0005B900E42E07052900E44E0146020248147
:1001E000600824FE602C2482703C7881E654FEF680
:1001F000904101E04402F0E054FEF00203397881BE
:10020000E654FBF6904101E04408F0E054FBF002B4
:1002100003397881E654EFF6904101E04420F0E0A4
:1002200054EFF002033902083B02083B02083B90FE
:100230000E40E060030202E9900E42E064026003B7
:100240000202E6900E44E060030202E6A3E07003BF
:100250000202E6E0C3940540030202E3903FF0741B
:10026000F3F0900E45E0B4040312C01E903FF0740A
:10027000FF123E62904102E0544170F8900E45E05A
:1002800024FE6012146017146021240370539042FE
:10029000017483F0804B9042017485F08043E490B8
:1002A000901CF09042017407F0803678007C007D4D
:1002B000017BFF7A4079A27E007F35120FDA306D24
:1002C00009903FF074F2F012C01E904104E020E16A
:1002D000F9123E3C7435123EED9042017409F080F3
:1002E000E980FE02083B02083B900E40E064027089
:1002F00045900E42E0703C900E44E014601424815E
:10030000600824FE601B248270267881E64401F692
:1003100080277881E64404F6904101E04404F080AF
:10032000187881E64410F6904101E04410F080090D
:1003300002083B02083B02083B123E6322123E6366
:10034000904102E0544170F8900E42E0904100F07C
:10035000904107E054FDF0E4903E04F022306D44FB
:100360009090107401F0909016E030E31678A1E6BA
:10037000F513125AF87F021222F5909016E054F706
:10038000F0801C78A1E625E024A2F582E4343EF555
:1003900083E0FEA3E0FFBEFF06BFFF03124B7FE436
:1003A000909010F0900E43E024FE606D14700302F4
:1003B000043124FD601114606024F8700302076F9B
:1003C000240E60030207AD306B15123E7A500B7B92
:1003D000101208437006C26B8002C26B8520133076
:1003E0006B117A007900123E9E123E3F903E0974D6
:1003F00004800B123E6B904014E493903E09F09001
:100400003E0A7412F0900E43E0640660030207B0E7
:10041000903E0A740AF00207B0903E0B74FFF0A3FE
:10042000743FF074F4123EC8903E0A7420F0020744
:10043000B0306B15123E7A500B7B121208437006D7
:10044000C26B8002C26B852013306B0C123E9A7413
:1004500004F0A37400F08003123E6B900E42E01291
:100460000ECC048100048F0104A90204C70304F127
:1004700004051F8005718205FE8307598600000769
:100480006C123E6B904016123ED09040178059304F
:100490006B0C903E097416F09004020207A3904082
:1004A00018123ED0904019803F306B10900402E04B
:1004B0002416903E09F09004030207A390401A12FC
:1004C0003ED090401B8021306A157A047980123E1C
:1004D0009E7404F07480123EC89004800207A390BA
:1004E000401C123ED090401DE493903E0AF002075B
:1004F000B09004007404F0A314F0903E0FE0900458
:1005000002F0903E0EE0900403F0123E9A7404F064
:10051000A37400123EC9903E0A7404F00207B012A0
:100520003EF7248E601424FD601724DB601A241823
:100530007020123E15125ED680117F021264A780D1
:100540000A7F021246718003121F60903E20EFF076
:100550008009124F79C253123EFE22C253903E20B0
:10056000E0B40303024F79124F79903E207405F0F6
:1005700022123EF7248D605024F0604324ED605E2B
:1005800024FB604C24A3606724FE605A24D06003DF
:1005900002072E900E47E030E1127E027F007D00C0
:1005A0007B017A047900120EF20206AE900E45E04D
:1005B000903E24F0900E46E0903E23F00206FF129B
:1005C0003E1512613E0207277F02125E5C0207277A
:1005D000900E45E0900401F0126067020727E4FFE7
:1005E000123757020727123EB7125DE10207279024
:1005F00000747451F0123EB71263C6020727123E10
:1006000092E4903E21F0A3F0C3903E21E09402508A
:10061000447F841254F2EF603C900E45E0FF903E20
:1006200021E0FCA3E0FD2400F58274043CF583EF97
:10063000F0900E44E0FF74012DF58274043CF583C4
:10064000EFF01264C5903E22E02402F0903E21E0DB
:100650003400F080B3C3903E21E0940250030208BE
:10066000427F851254F2EF7003020842124F79EF75
:1006700070030208427F811254F2EF7003020842B5
:10068000123EF7248F700302070C24FD700302074B
:100690001324F3606F24E8700302071A24FC70032C
:1006A00002072424A8607824CB600302072E900E52
:1006B00045E05407F508A3E0F509903E24E0F50A6B
:1006C000903E23E0F50BE4F50C900E45E054F0F578
:1006D0000DE030E316123E2E250BF50BEE350AF534
:1006E0000AED3509F509EC3508F508E50D700375D7
:1006F0000D01903E207480F012C006EF30E73412F6
:100700003EFE802F123E1512630F801B7F02125E89
:100710001F80147F02124E61800D1230D4800812A7
:100720003D0D8003124DD1903E20EFF08005123E2A
:10073000FE8012903E20E0B403047F0080027F051B
:10074000903E20EFF0C253123E9212620CEF600313
:10075000020842903E2004F022903E20E0900E409D
:10076000F0E4903E20F090410304F02202083B3078
:100770006C38903000E0640D7030A3E06406702A9D
:10078000A3E0B40525A3E0B4062090300AE0601A87
:10079000903E0B74FFF0A37440F0A374D7123EC9CF
:1007A000900E46E0903E0AF0800602083B02083BAD
:1007B000900E47E07015900E46E0FF903E0AE0D3A1
:1007C0009F4008900E46E0903E0AF0903E0AE0708E
:1007D00004123E9222900E43E0FF023387903E04C3
:1007E000E0900E40F0804D123EA6F0900E42E0B434
:1007F000011A903E047401F0904107E04402123E59
:1008000062E4909001F090900704F022900E42E094
:100810007012903E04F0904107E054FD123E629049
:10082000900180138015900E44E07006900E40F009
:10083000800280079041037401F022904101E0445E
:1008400001F0227D017C0012C00FEF4E22E4F52062
:10085000900011E0600A900010E020E0037F832206
:10086000900010E05401900401F0900011E0900419
:1008700000F0909016E05418FFBF1010306D0DE49A
:10088000FFFE122F72909016E054EFF02056432096
:1008900057407888E6600A7987E778864618466088
:1008A0001E7F457E407D357C747885121B49600F24
:1008B0007F427E497D4F7C537885121B497002D25E
:1008C000567885E6600C7988E77887461846700286
:1008D000D25730675620585320570330564D205D6D
:1008E0004A206115A262E4332401FFE433FE7883D9
:1008F000E6FDB5070AE4B50606789976018025304D
:100900006411903E18E07899B4B0047610801576A2
:10091000028011ED14FF7402A807088002C333D8C7
:10092000FC7899F67899E6FF125105306B1885131B
:100930001F121C7D7B107D017C0012C00FEF4E70DA
:1009400002C26B851F137899E6FFB40127121D01BF
:100950007465F0A37401F0206B030209F29001208A
:10096000E064AA60030209F27B017A017922903ED9
:100970000B048059306B61900002E07C002416F972
:10098000EC3400FAA3E029F9EC3AFA903E0B74013A
:10099000F0A3EAF0A3E9F0EF5414601B900140E0EB
:1009A000B4AA147A017942903E0B7401F0A3740149
:1009B000F0A37442F0803B7899E6B40835900120AA
:1009C000E0B4AA2E7A017922903E0B7401F0A37450
:1009D00001F0A37422F0801A90401EE493903E0927
:1009E000F07E002414F9EE3440FA121D01EAF0A35F
:1009F000E9F0E4900000F07899E664017037206037
:100A0000237888E66405701C18E6B48F1718E6B4DE
:100A1000931218E6B4840DE4F0A3F0903E1CE05469
:100A2000FEF080119000007405F0A37480F0903EF9
:100A30001CE04401F0306D117412121CC774E1F017
:100A400012C01E121D46600122900401E0700302D4
:100A50000B9E900400E0900001F0900400E02480E0
:100A6000602224FD7003020B2924836003020B9B88
:100A7000E4900002121BCF7480F0A37483F0752001
:100A800007020C4AE4900002F0306A227B017A00EF
:100A90007980903E0B04F0A37400F0A37480F0E41E
:100AA000903E09F0900080E0903E0AF0801C121DFC
:100AB000017440F0A37414F090401CE493903E093C
:100AC000F090401DE493903E0AF0903E0AE09000C2
:100AD00003F0E4FF903E0AE0FEEFC39E5029121D92
:100AE00009903E09E0FD7C00E92DF9EC3AFAEF2986
:100AF000F9EC3AFA120C50FD74032FF582E434003D
:100B0000F583EDF00F80CD900003E030E010E004BD
:100B1000F074032EF582E43400F5837420F0900025
:100B200003E02404F520020C4AE4900002F0A374D0
:100B300032F074F2121BD2F0A37405F0A37430F0FB
:100B4000A37435F0A37438F0A37446F0A37420F0B6
:100B5000A374F2F07401121C76740D121C0174203F
:100B6000F0A3F0A3121C0174F1F07402121C76744D
:100B700008121D4D121BD2121D15E4A3F0A374F12F
:100B8000121BCF7408F0A37420F0E4A3121D4DA330
:100B9000F0A3121D15752036020C4A7F83229000A7
:100BA000017480F0A37404F0A37402F0A3741FF026
:100BB000E4A3F0A3F0A3F0F51F121D09851F8275B1
:100BC0008300120C69FF7408251FF582E43400F5D8
:100BD00083EFF0051FE51FB420DF306B6A3055034B
:100BE000205603306605E4900001F0751F017899E6
:100BF000E6FFB401089000237430F08038306608B6
:100C00009000237435F0802D3065089000237436F1
:100C1000F080223064089000237437F0801730632E
:100C200011EF900023B408057439F080087438F08F
:100C30008003E4F51FE51F600E9000207438F0A3D8
:100C4000742EF0A37430F0752024AF2012541C22AF
:100C5000BB010689828A83E0225002E722BBFE02A2
:100C6000E32289828A83E49322BB010CE58229F581
:100C700082E5833AF583E0225006E92582F8E622F0
:100C8000BBFE06E92582F8E222E58229F582E583AA
:100C90003AF583E49322EF8DF0A4A8F0CF8CF0A472
:100CA00028CE8DF0A42EFE22BC000BBE0029EF8DB5
:100CB000F084FFADF022E4CCF875F008EF2FFFEEE2
:100CC00033FEEC33FCEE9DEC984005FCEE9DFE0FF0
:100CD000D5F0E9E4CEFD22EDF8F5F0EE8420D21C4B
:100CE000FEADF075F008EF2FFFED33FD4007985093
:100CF00006D5F0F222C398FD0FD5F0EA22E88FF076
:100D0000A4CC8BF0A42CFCE98EF0A42CFC8AF0ED92
:100D1000A42CFCEA8EF0A4CDA8F08BF0A42DCC3846
:100D200025F0FDE98FF0A42CCD35F0FCEB8EF0A47E
:100D3000FEA9F0EB8FF0A4CFC5F02ECD39FEE43C38
:100D4000FCEAA42DCE35F0FDE43CFC2275F00875DC
:100D50008200EF2FFFEE33FECD33CDCC33CCC582F6
:100D600033C5829BED9AEC99E58298400CF582EEB2
:100D70009BFEED9AFDEC99FC0FD5F0D6E4CEFBE49A
:100D8000CDFAE4CCF9A88222B800C1B90059BA0062
:100D90002DEC8BF084CFCECDFCE5F0CBF97818EFBD
:100DA0002FFFEE33FEED33FDEC33FCEB33FB10D7BE
:100DB00003994004EB99FB0FD8E5E4F9FA2278187F
:100DC000EF2FFFEE33FEED33FDEC33FCC933C910DA
:100DD000D7059BE99A4007EC9BFCE99AF90FD8E00C
:100DE000E4C9FAE4CCFB2275F010EF2FFFEE33FEDE
:100DF000ED33FDCC33CCC833C810D7079BEC9AE851
:100E000099400AED9BFDEC9AFCE899F80FD5F0DAD1
:100E1000E4CDFBE4CCFAE4C8F922EB9FF5F0EA9EBE
:100E200042F0E99D42F0E89C45F022E8600FECC3F7
:100E300013FCED13FDEE13FEEF13FFD8F122E86073
:100E40000FEFC333FFEE33FEED33FDEC33FCD8F18F
:100E500022E6FC08E6FD08E6FE08E6FF22E6FB08BF
:100E6000E6F908E6FA08E6CBF822ECF608EDF60813
:100E7000EEF608EFF622ECF0A3EDF0A3EEF0A3EF10
:100E8000F022D083D082E493F608740193F60874BC
:100E90000293F608740393F6740473A8828583F0B2
:100EA000D083D082120EB2120EB2120EB2120EB255
:100EB000E473E493A3C583C5F0C583C8C582C8F0B5
:100EC000A3C583C5F0C583C8C582C822D083D0829C
:100ED000F8E4937012740193700DA3A393F8740156
:100EE00093F5828883E4737402936860EFA3A3A3ED
:100EF00080DFEF4E6012EF60010EEDBB010B8982C7
:100F00008A83F0A3DFFCDEFA2289F05007F709DFBD
:100F1000FCA9F022BBFEFCF309DFFCA9F022E709E3
:100F2000F608DFFA8046E709F208DFFA803E888299
:100F30008C83E709F0A3DFFA8032E309F608DFFAD1
:100F4000806EE309F208DFFA806688828C83E30909
:100F5000F0A3DFFA805A89828A83E0A3F608DFFAD9
:100F6000804E89828A83E0A3F208DFFA804280D231
:100F700080FA80C680D4805580F28029801080A6B7
:100F800080EA809A80A880DA80E280CA80298884FA
:100F90008C8589828A83E493A30586F0A30586DF86
:100FA000F5DEF3800B89828A83E493A3F608DFF9E8
:100FB000ECFAA9F0EDFB2288848C8589828A83E093
:100FC000A30586F0A30586DFF6DEF480E389828A36
:100FD00083E493A3F208DFF980D688F0EF60010E76
:100FE0004E60CD88F0ED2402B4040050C3F582EBCE
:100FF0002402B4040050B92323458223900F6E735A
:10100000E4909001F0E07003021280E490900FF001
:1010100078B3764890900704F0909001E024FE7039
:10102000030210BB24F77003021123240224FC40A6
:10103000030210DE700302111B1470030211AE14C0
:1010400070030211A1240E600302126512132A908C
:101050004102E030E7F9904102E030E0F9E4F512B6
:10106000E512905AF093FF74002512F582E4340ED5
:10107000F583E06F60030212670512E512B408E021
:10108000900E407411F0A37422F0A37433F0A37493
:1010900044F0A37455F0A37466F0A37477F0A374BE
:1010A00088F0E4904102F0A37408F0904102E0203F
:1010B000E1F99090017401F002126512132A904137
:1010C00007E030E4F990801CE0540FFFBF0FF6E416
:1010D000908007F0904107E04420F0021265AF0BCA
:1010E000AE0AAD09AC08C006C007AE0CAF0DAB0729
:1010F000AA06E4F9F8D007D006120D888F0B8E0AE5
:101100008D098C08AF0BAE0AAD09AC08780A120E37
:101110002B8F0B8E0A8D098C0880FE90800B740833
:10112000F08005E490800BF090800A7410F0126259
:10113000E1E4F51412644AE4F519F513E49080062D
:10114000F0908005E030E0F990800BE054036005FA
:10115000E4FF1243810513E513C3940240DE90803F
:101160000A7411F090800774FFF07514021265C5BF
:1011700075120212635B12644A90800774C0F0E437
:10118000908006F0908005E030E0F990800BE0540C
:101190000360047F0080027F01909001EFF0021253
:1011A0006590801AE04401F090800A7411F0E49098
:1011B0009002F09090057430F09090027401F0006D
:1011C000000000909001E0B40E05E490800AF01257
:1011D00062E190800B7404F0908005E030E7F990B4
:1011E000800074FFF0908005E030E7F9E490800023
:1011F000F0A3F0F0F0F0909001E0B40F05E49080DF
:1012000001F09080007430F0908005E030E7F990B4
:1012100080147410F0E4908006F0908005E030E0D7
:10122000F9E4908006F0908005E030E0F9908015B8
:101230007455F074AAF09080147410F0E490802239
:10124000F0A37405F090801714F090801674C0F02D
:10125000908016E020E0F99080157477F0E490809B
:1012600023F002E80080FEE4909001F0E0B4780EF4
:10127000E4FDFF125004124AE4E4FF12444D80FEE4
:10128000759852758921758DFFD28EE4F58CF58A9B
:10129000D28C4387807898F6759955909016E02007
:1012A000E00312637F909016E030E00890901C7489
:1012B00080F0E4F09090107408F090900174FFF0CA
:1012C0001259BA90900AE020E707909000E030E4CD
:1012D00049909016E030E017903F88E0B45110A399
:1012E000E0B4460BA3E0B45706A3E06454602612B2
:1012F000471F12651D909016E04401F0903F8874DE
:1013000051F0A37446F0A37457F0A37454F0E49022
:101310009010F0800912651D800812471FE490901C
:101320000FF0E4909010F0023F0512637F904201AD
:101330007431F090410274FFF022900012E0789531
:10134000F6A3E0F508A3E0F509900015E0F50AA37F
:10135000E0F50B7889120E8200000000900019E081
:10136000B45106A3E0900010F0900010E0120ECCF3
:1013700013D400147F0114870214950314980415E4
:101380000305149B06149E0714A70814A10914AAA8
:101390000A14AD0B14B00C14C10E15741014C41142
:1013A00014C71214DE1315B01B15C21C15D81D1559
:1013B000F51E160E1F16142013D72113D722143E24
:1013C00023143E2414FD2815002A14F48014FA81F5
:1013D0000000161C0256F090800BE054FC788CF64E
:1013E00090800AE018F6900011E018F690800B74D7
:1013F00080F0E4900011F0125F86788AE690001188
:10140000F0900010E0B42108A3E0FF123BFC800E36
:10141000121EDE126583900011E0FF125B42788994
:10142000A607788CE690800BF018E630E0047F0188
:1014300080027F00900011EFF0125F86803C908068
:101440001AE05480788CF6E0547FF0900010E0B4FD
:101450002408A3E0FF123BFC800E121EDE126583FF
:10146000900011E0FF125B427889A60790801AE095
:10147000FF788CE65480FEEF4EF07889E6FF2290EC
:101480000011E0FF023BFC121EDE1265839000118A
:10149000E0FF025B4202648902574D025263024D33
:1014A00041125F867F032202640A0234D30257AAE4
:1014B0007895E6FF5470FEEF54074E90900E02169A
:1014C00018024507025F4C1265537895E67800FCD8
:1014D0007A0079007E027F00121E8E7F03227895AB
:1014E000E6FA79007B01C002C001121F08D001D0CA
:1014F000020215B9121D9C025DE10265EC025F114A
:10150000025BD27D00121E819000007478F0A374FB
:1015100004F09000037407F0E4F520AF20124CAF04
:10152000E52075F004A4AEF02410F50DE43EF50CB2
:10153000FE7400250DF58274003EF583E520F074FD
:1015400001250DF58274003EF583E509F07402254E
:101550000DF58274003EF583E50AF07403250DF560
:101560008274003EF583E50BF00520E520C39478F6
:1015700040A9805E900011E0F520AF201520EF60BB
:101580002CAE08AF09E42FFFE43EFAA9077BFFC0A9
:1015900002C001121F08D001D0027E027F00120F8C
:1015A000DA121DF81262E80508050880CD7F0322D3
:1015B000121F087B017A3079007E027F00120FDA59
:1015C0008010121F087B007A0079007E017F0012D4
:1015D0000FDA1262E87F0322900011E0600BD2590B
:1015E000908040E04401F08009C259908040E0546E
:1015F000FEF07F0322900011E090800A6006E04434
:1016000002F08004E054FDF01238927F0322124968
:10161000AC7F0322E4909012F07F03227F8322901C
:101620003E06E064077003A3E0F47042121E9512B8
:101630005A0EE51354037F00FEEF2400F974103EA8
:10164000FA7B01C002C00178007C147D01D001D07A
:10165000027E01120FDAE4FF1222F58E228F23C3DD
:10166000E523789E96E5221896400D02184F903E8D
:1016700006E0F522A3E0F5237B14E4FDFCAF23AEE6
:101680002212C00FEF4E700302184F90100A121E64
:101690000B121F2B901011121E0B903E6C120E7627
:1016A000901016121E0B903E70120E7690101B12A8
:1016B0001E0B903E78120E76901021121E0B903E5B
:1016C0007C120E76901026121E0B121F0290103004
:1016D000E024FF925F901034E024FF926490103673
:1016E000E024FF9255901038E024FF9266A3E02496
:1016F000FF9263A3E024FF9265A3E024FF9267902A
:10170000103FE024FF925AA3E024FF9260A3E0245C
:10171000FF925CA3E0903E03F0901043E024FF9220
:101720005EA3E024FF9261A3E024FF925DA3E02486
:10173000FF9258A3E024FF9250A3E024FF92703060
:101740005A047F0180027F00909001EFF090102EEC
:10175000E0789A46F6909016E030E104E654EFF611
:1017600030670320642A121D71FF903E6C121DD950
:10177000FBD3120E1A400A903E6C120E9B00000022
:1017800000903E6C121D74FFEC4D4E4F6002D26211
:10179000305F09909000E030E302C267E4F521E594
:1017A00021C378AC96502175F002E521A42400F500
:1017B00082E5F03411F583E0FEA3E0FF121E26EE71
:1017C000F0A3EFF0052180D77D011218A470030269
:1017D000189F1245BC7D021218A4700302189F9036
:1017E0001080E0B4FF09A3E0B4FF047FC080027F53
:1017F000B0903E18EFF07D031218B2700302189FEC
:10180000901080E0B4FF09A3E0B4FF047FC0800221
:101810007FB0903E1AEFF07D071218B270030218E5
:101820009F901080E064AA7017A3E0B45512121FB5
:101830004CE0B4A50D903E11E0B45A06D25B800294
:10184000D25B903E06E522F0A3E523F07F012290D3
:101850003E067407F0A374FFF0E4F52178ACE6FFD0
:10186000E521C39F5013789FE6FC08E6FD121E2673
:10187000ECF0A3EDF0052180E37E00789FE6FC0804
:10188000E6FD120C968E228F23AB07AA06E4F9F828
:10189000AE0EAF0FFCFD120CFD121F2B121F02D259
:1018A0005B7F00227B147C00AF23AE2212C00FEFBF
:1018B0004E227B147C00AF23AE2212C00FEF4E22CB
:1018C000C26DC26912623BE47892F6122D26C259AB
:1018D000E4908040F090800B7410F07892E6122D26
:1018E0009890801AE0547FF090800AE04410F090C5
:1018F000801AE04401F0908005E030E7F9122CF501
:101900007430F0E4F514908005E030E7F99080142D
:101910007410F0E4908006F0908005E030E0F990DB
:101920008067E030E018E5147011051490800074B1
:1019300005F0E4122CFA74E0F080CB122D1FE4FDC8
:101940007F2E124C1AE4F514902E00E06498600487
:10195000E0B4451A751401902E02E030E32F902E6A
:1019600005E05407D394044024431402801F902EB2
:1019700000E0B4EC18751404902E02E030E30E90F1
:101980002E05E05407C394044003431408E47894FC
:10199000F690800B7480F0908005E030E7F9122D0E
:1019A000AF7894E6FF124CAF908005E030E7F9E5A0
:1019B0001430E10690800074A2F0E51430E3069044
:1019C000800074DAF0E4908000F0122D597430F049
:1019D0007894E67014908005E030E70D7892E63058
:1019E000E10778947678021A8A908005E030E7F96A
:1019F000E5145403600D9080007405F0E4122D5935
:101A000074E0F0E47891F69080147410F090800502
:101A1000E030E7F9E4908006F0908005E030E0F9EE
:101A200090800BE054036009E020E147E4FF12439B
:101A300081901000E0640D703AA3E064067034A356
:101A4000E06405702EA3E064067028A3E0642160C2
:101A500009E064196004E0B4251978007C30122D87
:101A60006B7E027F00120FDA122133EF7055122DB8
:101A700026800B7891E6C3940850030680897894F9
:101A800006E6C394785003021991789206E6C3944F
:101A90000450030218CB122D1F905AC8E493908073
:101AA00007F0908005E030E7F9122DAF908005E057
:101AB00030E7F9122CF57430F0908005E030E7F94A
:101AC0007F0022D26D90319FE0B45108D2599080AE
:101AD000407401F0123892E4909002F0903192E05C
:101AE0007004A3E0601D90300CE05470909005F0FD
:101AF000903192E0FEA3E0FF12486F909005749041
:101B0000F0800A90300CE04401909005F090900233
:101B10007401F0903121E0B45102D26912C000E4A6
:101B20007883F67F01227F147E007D007B017A009E
:101B30007900020EF2E50D250BFFE50C350AFEE4F7
:101B40003509FDE43508FC788D120E5DC3020E1ACE
:101B5000E0FCA3E0FDA3E0FEA3E0250BF50BEE35D2
:101B60000AF50AED3509F509EC3508F50822788DF6
:101B7000120E51EF24FFFFEE34FFFEED34FFFDECBB
:101B800034FFFC900000020E76FFE02FFFE433FEEE
:101B900074002FF58274023EF583E064AA229080DF
:101BA00017E0250DF50DE4350CF50CFE7809AF0DA9
:101BB000E4FCFD120E3E788922AF0BAE0AAD09ACF3
:101BC000087802120E3E8F0B8E0A8D098C0822F0C7
:101BD0007403A3F0E4A3F0A322C2547A0079007E38
:101BE000007F009044007400F0A37400F0E4904182
:101BF00004F022904101E04410F07881E64410F6B0
:101C000022F0A37441F0A3744CF0A37443F0A374C6
:101C10004FF0A37452F0A32274002520F582E4341F
:101C200002F583E022A25CE433FF74047E00A8077F
:101C30000822E0FCA3E0FDA3E0FEA3E022AE0CAF8F
:101C40000DE4FCFDFB7A02F9F8120CFD788922FF05
:101C50007E00E07C002400F9EC3402FA7B0122785B
:101C6000007C007D0122FF7E00E07C002400F9EC76
:101C70003403FA7B0122A3F0E4A3F0A32290310500
:101C8000E0F513903E06E0FEA3E0FF22FEED940097
:101C9000FDEC9400FC7889020E6AFFE02FFFE4332C
:101CA000FE74002FF582740322903E03E0FEC3EF22
:101CB0009E903E02F0541F2274012520F582E434E8
:101CC00002F583E0240222903E15F0903E16740146
:101CD000F0903FF0229000027480F0227895760513
:101CE00078962278957602789622903E01E06401FB
:101CF000F0909001F022AB0BAA0AA909A808020EE5
:101D00001A903E0B74FFF0A322903E0BE0FBA3E081
:101D1000FAA3E0F9227405F0A37408F0A3740FF09D
:101D2000227D017B017A0079117E0022788D120ECE
:101D3000517802020E2B7889120E5DD3020E1ACE54
:101D4000A2E713CE13227880E6FF640222F0A37488
:101D500049F0A37445F022789576067896227A04A5
:101D600079007E047F009044007404F0A37400F0B6
:101D700022903E74E0FCA3E0FDA3E0FEA3E02290ED
:101D80008017E0250DF50DE4350CF50CFEAF0DE4E4
:101D9000FCFD7809120E3E7889020E6A900010E070
:101DA000900074F0900011E0900075F0900012E047
:101DB000900076F0227DFF7E027F007B017A04791D
:101DC00000020EF2E50D250BFFE50C350AFEE435A9
:101DD00009FDE4903E783508FCE0F8A3E0F9A3E0C3
:101DE000FAA3E022250BF50BEE350AF50AED3509CD
:101DF000F509EC3508F508227A0079007E007F00AD
:101E00009044007400F0A37400F022E0FCA3E0FD15
:101E1000A3E0FEA3E0FF22903105E0F513903E061B
:101E2000E0FEA3E0FF22E52125E024C2F582E434B0
:101E30003EF58322E50D250BFFE50C350AFEE43562
:101E400009FDE43508FC22F0A261E433A3F0A25DB1
:101E5000E433A3F0A258E433A3F0A250E433A3F098
:101E6000A270E433A3F022F0A266E433A3F0A263ED
:101E7000E433A3F0A265E433A3F0A267E433A3F054
:101E8000227E027F007B017A007900020EF27D0142
:101E90007B01020FDA903105E0F513222FF50BEAF2
:101EA0003EF50AE93DF509E83CF5082275F002EF38
:101EB000A42400F582E5F03405F583227400252082
:101EC000F582E43404F58322FFAB0BAA0AA909A822
:101ED00008C3020E1A788D120E5DC3020E1A90000E
:101EE00017E0FEA3E0FF22789BE644F6F622250BDE
:101EF000FFEE350AFEED3509FDEC22C394FFEE94AA
:101F00000722903E74020E7678007C007D0122F557
:101F100082E43402F583229000747451F0A3222DE0
:101F2000FDE4338D82F583E493FE22903E68020E39
:101F30007604F0A264E433A3F0A322903E18E06498
:101F4000B022ED5407FA7401A8020822789AE644F8
:101F500001F6903E1022C3E50B94FFE50A94072298
:101F60007D00121DB7903E68121D74FF9004001290
:101F70000E7690040474E8F0A37402F0A374A1F048
:101F80007B017A3E796C125CA1900407120E769068
:101F9000040B74A2F07B017A3E7978125CA1900464
:101FA0000C120E7690041074A3F0E4A3F0A26C332C
:101FB000A3F0A374A4F07B017A3E797C125CA1901B
:101FC0000414120E7690041974A5F07B017A3E7900
:101FD00070125CA190041A120E7690041F7401F026
:101FE000A374A6F0A25FE433A3F090042374A7F0D7
:101FF000900426121F3174A9F090042B04F0A26DF6
:10200000E433A3F090900AE090042DF090042F7434
:10201000AB121E67A25CE433900436F0A25AE4339C
:10202000A3F0903E03E0900438121E477B017A3EF5
:102030007974125CA1900500120E7690050474B0BC
:10204000F0903E19E0900505F0903E1BE0900506EB
:10205000F0903E18E0900507F0903E1AE0900508D9
:10206000F0A374C0F0789AE6A3F0A374B1F09005E1
:102070001004F0789FE6A3F008E6A3F0A374B3F091
:10208000A26CE433A3F0903E08E0900515F0A37431
:10209000B4F0789BE6FFA3F0789CE6FEA3F0A3746F
:1020A000B5F090052404F0A3EFF0A3EEF090053016
:1020B00074B7F0909000E0900531F090053574B859
:1020C000F090054004F0903102E0900541F078A5D1
:1020D000E6A3F008E6A3F0903105E0900544F09007
:1020E0003E06E0900545F0903E07E0900546F090F2
:1020F00090287401F0E4F000909029E0900550F0F1
:1021000090902AE0900551F090902BE0900552F0CD
:1021100090902CE0900553F078F07C057A3179F0BE
:102120007E007F10121E8E205306121D5E1262E882
:102130007F0322903012E078A2F690800AE0FF90B0
:102140003013E0FEEF4E90800AF09031F0E0F50E93
:10215000A3E0F50F9031F2E078ACF69031F4E0F5C1
:1021600010A3E0F5119031F6E078ADF69031F8E08B
:10217000F5129031FA122CE19031FC789F122CE389
:102180009031FE122D74903191E0909009F09031D1
:10219000A7E078A3F6E6700276049031A8E0FF127B
:1021A0005DA3903194E06003122DD0122D7F78B1A1
:1021B0007614E4F52378B1E6FF2400F582E43430A8
:1021C000F583E0640C60030222EF74012FF582E4D2
:1021D0003430F583E0FEC4540F122D9874022FF5AD
:1021E00082E43430F583E078AFF678B1E62403F585
:1021F00082E43430F583E078B0F6908005E030E793
:10220000F9E4F521E521C378AF96502FAF21740191
:10221000A807088002C333D8FCF52278B0566010B6
:10222000908005E030E7F9122D2E908000F08007B5
:10223000122D2E908001F0052180C978B1E624018D
:10224000F582E43430F583E0540F78AFF6E630E001
:10225000037F0022E4F521E521C378AF9640030215
:1022600022E6E521540725E02410908014F09080A8
:1022700005E030E7F9E4908006F0908005E030E07A
:10228000F990800BE05403600CE030E1037F002202
:10229000E4FF124381908005E030E10A90800AE07B
:1022A00020E1037F002205210521E5215407F522C5
:1022B0006007E52178AF66709EE5227003752208FD
:1022C000E5227F0025E0FEC006C007E523122D4E63
:1022D000A807FC122D6BD007D006120FDAE52225D5
:1022E00023F52302225778B1740C26F60221B51289
:1022F0002DF07F01228F25E4F50AF50BC3E50B785D
:102300009E96E50A18964003022486E52570191268
:102310002F2DCEC313CE13D8F92400F582741412D6
:102320002E255E601902247B122F2DCEC313CE13EF
:10233000D8F9122EE8122E255E600302247B7B4022
:10234000E4FDFCAF0BAE0A12C00F905D02EEF0A3ED
:10235000EFF0905D02E0A330E720122F2DCEC313E3
:10236000CE13D8F9122EE83EF583C083C082122E18
:10237000284ED082D083F002247BC3905D03E0948A
:10238000FF905D02E09407400302247BE525700C7A
:10239000E0B40708A3E0B4FC030224A8E525640226
:1023A000600302247B122EC61261A8905D00EEF03D
:1023B000A3EFF0C3905D01E094FF905D00E094070F
:1023C000400D122EC6AD0BAC0A1258BA02247BE5A2
:1023D00014C3942540030224727B407D027C00AF2D
:1023E0000BAE0A12C00F903EE2EEF0A3EFF0122EF9
:1023F000C6903EE2E06E7003A3E06F600E903EE296
:10240000E064077004A3E064F7702CE514C394192A
:10241000905D00E0FEA3E0FFE5145005122F5E8002
:1024200003122F68F583EEF0A3EFF0122EC6AD0B6A
:10243000AC0A1258BA8037E514C39419E514500554
:10244000122F5E8003122F68F583E50AF0A3E50BD7
:10245000F0122F2DCEC313CE13D8F9122EE83EF56D
:1024600083C083C082122E284ED082D083F0051400
:1024700080097D01AF0BAE0A12C012050BE50B708F
:1024800002050A0222FCE5256015903102E0B51331
:102490000E78A5E6FC08E6FD7FFD7E071258BA7FA0
:1024A000107A5D7900122F55AE0AAF0B2212659A91
:1024B0007899E66401702E903E1CE030E027AE0C67
:1024C000AF0DE4FCFD780B120E3E7889121B4970AB
:1024D00014121BB9E50DAE0C7802C333CE33CED83F
:1024E000F9F50D8E0C121C3D121B4960037F8422EE
:1024F0001253418F1FEF30E70122788D120E51D316
:10250000121CF640093056030225E87F8A22121B6E
:102510003550037F8A22903E02E0FF601190410710
:10252000E030E611121CA97005121CEA80009041EF
:1025300007E054BFF0903E02E04440F02064047F86
:102540000180027F00903E18E0B4B0047E0180025A
:102550007E00EE5F7003022607121C258003121D09
:102560003FD8FBFF7899E66F7001EE600302260703
:102570007889120E8200000000E4FFFEFDFCC31209
:102580001CF670647899E6B40412903E6CE0FCA3EB
:10259000E0FDA3E0FEA3E0F50B121BC8903E1EE594
:1025A0000CF0A3E50DF0750C00750D0112C0038F42
:1025B0001FE51F30E718903E1EE07004A3E06401A1
:1025C000700FE51F30E0047F0180027F03227F89C6
:1025D00022908016E020E0F9903E1FE024FFF50DE8
:1025E000903E1EE034FFF50C7E0C7F007DFF121B39
:1025F0002CE50D450C600D1262E8E50D150D70F12E
:10260000150C80ED7F032212609E12C0038F1FE520
:102610001F30E72D30E01C904102E030E003120053
:102620007E904104E020E1EF305403121BD9751F66
:10263000018003751F037889120E8200000000805C
:1026400009121B9E120E6A751F89AF1F223065305A
:10265000789AE630E02A90000FE0248F24FC501D89
:1026600024F2601924ED601524FC60140424FB504E
:102670000C24A9600824FB6004247970037F822263
:10268000D25290000FE0120ECC27CD1027D4112784
:102690002A12278571278972278D732791742795B0
:1026A0007527A07627A97727B27827BB7B27C47C1C
:1026B000276581277082277B83275B96270A9727C8
:1026C0003B9927439A274B9B27229C27539D2733CF
:1026D000F526EAF626F2F72712F826FAF927DBFAAA
:1026E0002702FB271DFF000027E212568E8F1F02D4
:1026F00027E51252D28F1F0227E51261098F1F02B0
:1027000027E51262958F1F0227E51266258F1F02AB
:1027100027E5121D9C1263C68F1F0227E51265B0C4
:10272000800B1253AF8F1F0227E51263E8751F035A
:102730000227E5123D0D8F1F0227E51230D48F1FAF
:102740000227E5121F608F1F0227E51260678F1FA7
:102750000227E5124DD18F1F0227E57F011237575F
:102760008F1F0227E5121D9C12630F8F1F0227E5A2
:10277000121D9C125ED68F1F0227E5121D9C12614E
:102780003E8F1F80607F0280197F02801E7F028043
:10279000237F028028903E1CE04402F07F028026C6
:1027A0007F03125E1F8F1F803C7F031264A78F1F61
:1027B00080337F03125E5C8F1F802A7F03124E617D
:1027C0008F1F80217F031246718F1F8018124910BE
:1027D0008F1F80111247CC8F1F800A12133A8F1F50
:1027E0008003751F82C252AF1F2290000FE0F51DBB
:1027F0007889120E51EC4D4E4F601290000CE0643F
:102800008060047F0380027F028F1E8003751E019B
:102810007884A61E306D1D30691A903E15E51DF0B6
:10282000E4903E16F0903FF074E2F012C01E121DCC
:1028300046600122E51D120ECC292600290C032931
:10284000690428A71229691528C91A29191B2933CF
:102850001E28EB2328FC2528852828962A28B82F0F
:10286000294043294D45295446295B512962522864
:10287000DA5A28FC9E2975A22969A32969BB296E09
:10288000BE0000297CE51E64026003022984122434
:10289000AD8F1C022981E51E6403600302298412A6
:1028A00039BF8F1C022981E51E640260030229845E
:1028B00012084D8F1C022981E51E64016003022964
:1028C000841265FE8F1C022981E51E6402600302EA
:1028D0002984123AE98F1C022981E51E64026003F3
:1028E00002298412361A8F1C022981E51E640260B7
:1028F000030229841256288F1C022981E51E6402D6
:1029000060030229841242A98F1C8075E51E6402AF
:10291000707212602F8F1C8068E51E640170651252
:102920005E998F1C805BE51E6401705812555B8FA9
:102930001C804EE51E6401704B12660C8F1C80419A
:10294000E51E6402703E124A488F1C8034126634C1
:102950008F1C802D1258058F1C8026125C178F1C2F
:10296000801F125C5C8F1C8018751C038013125C26
:10297000E68F1C800C1262688F1C800512264D8F1A
:102980001CAF1C227F82228F232052062053037FFC
:102990000122121E9512C01520510312C01B7FFC8C
:1029A0007E071261A88E0A8F0B121F5640117E10EF
:1029B0007F007DFF7B017A107900120EF28021E406
:1029C0007891F67891E6C394085015E6FD7C00E610
:1029D0002404FBAF0BAE0A12C00F7891060680E309
:1029E000E523B4FF097508077509FF022AEC905D1D
:1029F000FDE07891F6E4F01259668E088F09BEFF6B
:102A000006BFFF037F00227891E6905DFDF0E5238D
:102A10007F0025E0FEEF2400F974103EA801FC7D44
:102A2000017B017A0479007E02120FDAE47891F6D4
:102A30007891E6C394084003022AEC205206205302
:102A4000037F01227891E68512F084E5F070057B22
:102A5000A0122B127FFC7E071265839031EEE030CE
:102A6000E30778917BA2122B127891E625E02410DF
:102A7000908014F090800674E0F0908005E030E0E3
:102A8000F97891E624028512F084E5F06007E624E7
:102A900002540770509080007410F0908005E03070
:102AA000E7F978A2E6FF20E53C9080007470F09092
:102AB00080047401F0908002E07892F6EF54C060D8
:102AC00006908003E046F67892E630E0187D01AF8C
:102AD00009AE0812C0127BC1E4FDFCAF09AE0812BA
:102AE000C00F0229EE78910606022A30121F5650B6
:102AF000097D01AF0BAE0A12C012AD09AC087FFC14
:102B00007E071258BA903E06E508F0A3E509F07F6B
:102B10000122E6FD7C00AF09AE0812C00F229041F1
:102B200006E0547FFFBF211C7F437E427D537C55CE
:102B3000900000E0F8A3E0F9A3E0FAA3E0FBC312E1
:102B40000E1A6007788476027F82227B017A0079F0
:102B500004125CA17885120E6A7B017A0079081252
:102B60005CA17889120E6A7A0079007E00123E3CE0
:102B700090000DE07883F690000FE0306E3F641215
:102B8000602A7888E6B4051718E6B48F1218E6B400
:102B9000930D18E6B48408903E1C7402F0800690F1
:102BA0003E1C7407F0306504E4789BF6C26EE4784E
:102BB00099F678A1E6F5139090077401F0206C0364
:102BC000022C72A264E433FF903E18E0FEB4B0041D
:102BD0007D0180027D00ED5F6023A25CE433FF781D
:102BE00083E6FDB5071220670F7402A8050880026E
:102BF000C333D8FCF51C8037751C1080322061155A
:102C0000A262E4332401FDE433FC7883E6FFB505DA
:102C100011E4B5040D306305751C088012751C01A4
:102C2000800D7402A807088002C333D8FCF51C305D
:102C30006756205853205703305603305D273064C1
:102C4000117883E670028025EE64B0603B751C024B
:102C500080367883E6FF7401A807088002C333D862
:102C6000FCF51C80233064207883E6601B751C0112
:102C700080167883E67008903E08E0F51C800975A0
:102C80001C04789CE64404F6E51C7899666005AF60
:102C90001C1251057F0222AF177E0078A4E6FAFDD0
:102CA0007C00120C967891E625E02427F582E43426
:102CB0003EF583EEF0A3EFF0E5188AF0A4FFE625D9
:102CC000E02427F582E4343EF58322120FDA7A00FD
:102CD00079007E007F009044007400F0A37400F03F
:102CE00022789DE0FEA3E0A60608F6227D017B0186
:102CF0007E00020FDAE4908000F0908001F0F0F0A6
:102D0000F0F090800022F0E512FD7C00AE0AAF0BDF
:102D1000120CA8ECC313ED13FDE5178DF0A422905F
:102D2000801AE054FEF090800AE05480F02278B1DE
:102D3000E62521FFE433FE74042FF58274303EF55E
:102D400083E0227B20AD0BAC0AAF09AE082225E060
:102D5000FEE42400FFEE34A022908001F0F0E50BA9
:102D6000F0E50AF0E509F0908000227D017B017A10
:102D70001079002278A5E0FEA3E0A60608F62290CE
:102D800080157455F074AAF0227E027F007D007BCE
:102D9000017A007900020EF2905AC893908007F0F1
:102DA00022908040E0FFA259E433FEEF4EF02290E3
:102DB000800074FFF022EA25E0242AF582E43464DE
:102DC000F58322E517C313F517E518C313F5182289
:102DD000E05470FFE054074F90900EF02290800076
:102DE000F090800122EBC31378B2F678A406E622B5
:102DF0009080157477F022908017F090801674C040
:102E0000227D017B017E00020FDAF58374FFF0A3BF
:102E1000F0EF25E025E02439F582E4343FF583E046
:102E200075F00AA4223EF583E0FF7C00E50B540711
:102E300024C0F582EC345AF583E493FEEF227E0041
:102E40007DFF7B01020EF2E52725E02480F582E478
:102E5000343EF58322E52325E025E02438F582E49D
:102E6000343FF58322FDEEC313FEEF132400F582F9
:102E700074583EF583E022E52225E025E02460F544
:102E800082E4345DF583E0FEA3E0227E007DFF7BDB
:102E900001020EF27D017B017E00020FDA25E025A2
:102EA000E02436F582E4343FF58322EC25E024006B
:102EB000F582E4345DF5832224EEF582E4343EF5B8
:102EC00083E4F0A3F022905D02E0FEA3E0FF22E5A0
:102ED0002225E025E02462F582E4345DF583E022DA
:102EE00024E6F582E4343E222400F582745C227CE0
:102EF00000540724C0F582EC345AF583E493227F12
:102F0000007B01020EF2E52178A026FFE41836FED0
:102F10002225E025E02439F582E4343FF58322E5DB
:102F20002225E025E02463F582E4345D22E50BAE42
:102F30000A780322E52125E024A2F582E4343E222A
:102F4000789AE64420F67EFF7FFF2225E024C2F532
:102F500082E4343E227E007DFF7B01020EF225E0FA
:102F60002456F582E4343F2225E02415F582E4342A
:102F70003E228F2178ACE6F515F513C251E4F52316
:102F8000E513D378A19650030230D3151312C01560
:102F900030510612C02402309DE4F522122ECF6576
:102FA000136003023091122E55E0F4600405238073
:102FB000F5E4F524E524C39523502A122ECFFFE52E
:102FC00024122E57E0B50719122E77FFE524122E92
:102FD0009DE0FCA3E0B50709ECB506050522022F2C
:102FE0009C052480CF122E77FFE523122E9DEEF054
:102FF000A3EFF0122E55E513F0122F1F122E1D24F1
:1030000010F9745D35F0FA7B01C001E523122E1230
:1030100024E6F9743E35F0A801FC7D01D0017E0064
:103020007F0A120FDA122F1FF583E075F008A4242F
:1030300080F9745D35F0FA7B01C001E523122F1190
:10304000E075F008A4248CF9743F35F0A801FC7DEC
:1030500001D0017E007F08120FDAE523122E121232
:103060002EE0122E84C3950FEE950E5024E5231208
:103070002E1224E8F582E4343E122E84FF7D0112E4
:10308000C018E523122E12122EE0F583EEF0A3EF06
:10309000F00522E522C394085003022F9CE521602D
:1030A0000FE4F51412C0210514E514C3940840F48C
:1030B00078107C5D7A3E79E67F70122E9478807C61
:1030C0005D7D017B017A3F798C7E007F38120FDABB
:1030D000022F8022903E18E064C060037F89222086
:1030E0005306121D5E1265537B017A047900125C4F
:1030F000A1903E6C120E767B017A047906125CA1D7
:10310000903E78120E767B017A04790B125CA190C6
:103110003E7C120E767B017A04790F125CA1903E00
:1031200070120E767B017A047940125CA18F0B8EAF
:103130000A8D098C08900445E0903E0EF0900446FC
:10314000E0903E0FF0900444E0645170499004FE1A
:10315000E0644A7028A3E0644E7022FF78ACE6FE7B
:10316000EFC39E5014121EACE0FCA3E0FDEF121E54
:1031700028ECF0A3EDF00F80E3E4789CF6AF0BAE03
:103180000AAD09AC08EC4D4E4F600BAF0BAE0AAD6B
:1031900009AC08121F2BC262A2648267400F903EE6
:1031A0006C121D74FFEC4D4E4F6002D2629004040D
:1031B000E0B45103D38001C3925C306703206406FE
:1031C000A25CA062925C903E78121D74FF903E70EB
:1031D000121DD92FF50BEA3EF50AE93DF509E83C49
:1031E000F508206009903E70121D74121DE4903E97
:1031F00068121D74C3950BFFEE950AFEED9509FD4F
:10320000EC9508FC121F0230671E30641B121D7102
:10321000FF903E6C121DD9FBC3EF9BFFEE9AFEEDB3
:1032200099FDEC98FC121F027899E6FF1251057F78
:1032300003228F1CE478A4F6908016E020E0F99039
:103240004104E020E1F9121DF8900000120E9B5598
:103250005342537B007A007985125CA190000412DE
:103260000E76E490000CF090000BF090000AF090C5
:103270000009F0900008F0904106740DF0E49041D0
:1032800005F0D254904104E030E10A904102E03070
:10329000E0F27F0022C2547A0079007E00121E0004
:1032A000E4904104F0E51C7002FF22C28CC28DE460
:1032B000F58CF58AD28C903E02E0FF6024904107A5
:1032C000E030E624903E03E0FEC3EF9E903E02F025
:1032D000541F700D903E01E06401F0909001F08069
:1032E00000904107E054BFF0903E02E04440F0906F
:1032F0004104E020E010904102E030E0037F002232
:10330000308DEC7F002290000FE0701A78A4E6C3A5
:103310009401501290000DE0788366700978A4063D
:10332000123378023246900011121E0B7891121E51
:10333000D7704290000FE0651C703A90000DE07865
:1033400083667031908016F0123378121DF8E49085
:103350008014F0900016E0F50CA3E0F50D789112C2
:103360000E518F0B8E0A8D098C08121E3478911223
:103370000E6A7F01227F00227B017A007904125CB1
:10338000A17885120E6A228F21903E0AE0FF700319
:103390000234CFD3944040047E408002AE07E4FF65
:1033A000EFC39E5031903E0BE0FBA3E0FAA3E0F99F
:1033B000903E09E0FD7C00E92DF9EC3AFAEF29F99D
:1033C000EC3AFA120C50FD74402FF582E4340EF5FD
:1033D00083EDF00F80CA7898E6FF20E606E52164C9
:1033E000026009EF30E615E521B40710900E56741F
:1033F00040F0E4A3F0900E5D74408014E521B40623
:1034000013900E40740AF0A37406F0900E487401F5
:10341000F0E4A3F0E521B40706900E417407F0E54F
:103420002164016006E52164067030306C1C903028
:1034300000E0B40D15A3E0B40610A3E0B4050BA39F
:10344000E0B4060690300AE08001E4900E42F0906D
:103450000E437402F0900E477440F0E52164017051
:103460002B900E4AE0B48006A3E06493600AD26C0D
:10347000900E507403F08007C26CE4900E50F02060
:103480006D0A900E4A7434F0A37412F0E5216402C0
:103490006005E521B40708903E05E0900E48F090E5
:1034A0004103EEF0904102E020E1F9904102E05446
:1034B000216005E054FEF022904102E020E01390EC
:1034C0003E0AE0C39EF0903E09E02EF002338912DE
:1034D0003E9222C26DC269122D7FE4F521E521C31F
:1034E000789596501D122CCE126553E521122D4E63
:1034F000A807FC7D017B017E027F00120FDA052107
:1035000080DB122DF0122CCE1265539001FEE0B438
:103510004A06A3E0644E60037F8922900000E09099
:10352000800AF030E00678A276408004E478A2F6C3
:103530007898E6B4800790800AE04480F09000021A
:10354000E078ACF6900004E0F510A3E0F5119000EF
:1035500006E078ADF6900008E0F51290000A122C13
:10356000E190000C789F122D7690000EE0F50EA3EE
:10357000E0F50F900191E0909009F090019FE0B488
:10358000510AD2599080407401F08007C259E490EA
:103590008040F0E4909002F0900192E07004A3E08B
:1035A000601D900010E05470909005F0900192E042
:1035B000FEA3E0FF12486F9090057490F0800A908F
:1035C0000010E04401909005F09090027401F0909A
:1035D0000194E06003122DD0900011E0FF125DA372
:1035E0009001A7E078A3F6E670027604D26D780029
:1035F0007C317A0179007FF0122E01903103122D77
:103600007490310FE078A2F6123892903121E0B434
:103610005102D26912C0007F0322900011E0543F92
:10362000F51F7520FF7521807899E664016003021B
:1036300036F1903E1CE020E0030236F11265D9EF2E
:10364000604E900202E06048A3E0FF900202121B6D
:103650008A703D900202E02408F520E51FB43F087F
:10366000A3E024F8F5218028121C1864AA60101227
:103670001C18651F6009121CB82520F52080E9126E
:103680001C1864AA6007121CB8F52180037520FF7E
:10369000E520B4FF097E007F80121B2A804F900234
:1036A00002E07E002400F9EE3402FA7B01C002C081
:1036B00001121C5FD001D0027F08120FDAAF217E09
:1036C000007C0074002520F9EC3402FA7B01C00272
:1036D000C00178087C007D01D001D002120FDAE52C
:1036E000212406900001F074082521F521AF2180E6
:1036F00062E4900000F0A37406F0E4A3F0789AE688
:10370000FB54F960047F8080027F00900003EFF09B
:10371000A3120E9B00000000EB789956540660033C
:10372000121CD520560330570C7899E6B401069048
:1037300000037480F0306C197899E6FF541860111A
:10374000EF30E407903E1CE020E306900003748015
:10375000F07F0812541C228F217E027F007D001210
:103760001DBB90040974F1F0903E68121D74FF9027
:10377000040A120E7690040E7498F0A374E8F0A375
:1037800074F2F0903E6C121D74FF900411120E76CC
:1037900090041574F3F0903E70121D74FF9004169F
:1037A000120E7690041A74F4F0903E78121D74FF95
:1037B00090041B120E7690042074F5F0903E7C125B
:1037C0001D74FF900421120E7690042574F6F012F9
:1037D0001D71FF900426120E7690042A74F7F0E40F
:1037E000A3F0A304F0789AE6541690042EF0A37484
:1037F000F8F0A25FE433A3F0A374F9F0900433125D
:103800001F3174FBF0A255E433A3F0A374FC121E25
:1038100067A25AE43390043FF0A260E433A3F0A21D
:103820005CE433A3F0903E03E0900442F0A25EE437
:1038300033A3121E4790048074E1F090048504F0D5
:10384000E478A4F679A4E7C378AC96501778A4E698
:10385000FF121E28E0FCA3E0FD121EACECF0A3ED6D
:10386000F00680E0789AE69005FFF0E52160061208
:103870001D5E1262E8E4FF122987EF601278891258
:103880000E8200000000306C03121EE77F03227FCF
:10389000892290800AE030E105751702803F908010
:1038A0000BE030E405751772803390800BE030E553
:1038B00005751750802790800BE030E30575174899
:1038C000801B90800BE030E60575177A800F9080A2
:1038D0000BE030E705751780800375172E75180407
:1038E00078A2E654C06003122DC39031EEE030E3BD
:1038F00048E47891F6A3E078B2F6E66018E478A49C
:10390000F678B2E6FB30E007122C97E02FF00612B3
:103910002DE5B408EC9031EDE078B2F6E66053782E
:10392000A4760878B2E6FB30E007122C97E02FF07F
:1039300006122DE5B410EC8039E478A4F6E512C344
:1039400013FF78A4E6C39F5029AF177E00E6FBFD66
:103950007C00120C96EB122CBFEEF0A3EFF078A4D3
:10396000E6FFE5188FF0A4FEEF122CBFE02EF00664
:1039700080CB903195E0703F90800BE030E305788C
:10398000B276262290800BE030E40578B2763E22B3
:1039900090800BE030E50578B2762A2290800BE02B
:1039A00030E60578B276422290800BE078B230E7BC
:1039B00003764622761622903195E078B2F62212EE
:1039C000659A7899E664017027903E1CE030E0200B
:1039D000AE0C780B121BAE121B497014121BB9E50A
:1039E0000DAE0C7802C333CE33CED8F9F50D8E0C64
:1039F000121C3D121B4960037F84221253418F1F0A
:103A0000EF30E70122121B3550037F8A22306C19F8
:103A10007899E6FF64016046EF20E30A30E40A90FB
:103A20003E1CE020E3037F8722789AE6600F54066D
:103A30006008799AE778995660037F8722903E184C
:103A4000E064B0702EA25C121C288003121D3FD8C7
:103A5000FBFF7899E67C00B50719ECB50615E50D76
:103A6000150DAE0C7002150C4E600512655380EEFC
:103A70007F0322903E02E0FF6011904107E030E6B4
:103A800011121CA97005121CEA8000904107E05435
:103A9000BFF0903E02E04440F012609E12C0068FDC
:103AA0001FE51F30E72D30E01C904102E030E003BD
:103AB00012007E904104E020E1EF305403121BD944
:103AC000751F018003751F037889120E82000000A4
:103AD000008013121B9E120E6A751F89E50D450C9E
:103AE000700478847601AF1F22E4F51F7899E6B45C
:103AF000010A903E1CE030E0037F8322900010E03A
:103B00005408131313541F900400F0900011E05454
:103B10003F900402F0900012E0900403F090001334
:103B2000E0900404F0900014E0900405F07E027F21
:103B300000121B2AE4900001F0789AE6FF54F96025
:103B4000047E8080027E00900002EEF0E4A3F07814
:103B500099E6FE5F54066003121CD52056033057C9
:103B600007EEB40103121CD5306C167899E6FF54A9
:103B700018600EEF30E407903E1CE020E303121CB7
:103B8000D5751F04306D11741A121CC774E0F01241
:103B9000C01E121D46600122900402E0900004F055
:103BA000900402E0604924F8601224C960182423BC
:103BB0007030900005740AF0740C80209000057439
:103BC00012F0741480169000047408F0A37412F0BC
:103BD000900018741CF0A3740AF07420251FF51FC0
:103BE000800D9000057401F0E4A3F0051F051FE5AA
:103BF0001F14900000F0AF1F12541C228F21851358
:103C0000227895E6F513E52130E0037F8922122D15
:103C10004312C00FE4908014F0852123FE7F40FD05
:103C2000122D6D120EF2908005E030E7F9E49080DD
:103C300006F0908017E523F09080167480F0908055
:103C400016E0540A60F8908016E030E12D90800B69
:103C5000E030E1057521EE8007E4FF1243818F21FA
:103C6000908017E0FFC3E5239FFFC3132400F58274
:103C7000E43410F583E521F080BE908016E020E06A
:103C8000F9904104E020E1F990800BE0900000F011
:103C9000908005E020E12D12656C900001EEF0A30C
:103CA000EFF0908030E0900007F0908031E09000DD
:103CB00008F0908032E0900009F0908033E09000AE
:103CC0000AF080189000017407F0A374FFF07E00E2
:103CD0007F04FD7B017A007907120EF2900003E564
:103CE00008F0A3E509F0900005E50AF0A3E50BF064
:103CF00090000B74AAF0780C7C00122D6B7E007F74
:103D000040122CCB1262E88522137F032220530637
:103D1000121D5E126553900408E06451701A903EC3
:103D20001CE054F7F090040CE06007903E1CE04467
:103D300008F0121EE77F0322C266C263C264C26536
:103D4000C267C25AC25FC260C25EC261C25DC2586F
:103D5000C250C270900403E064516008900407E010
:103D600064517045900403E0B45102D2649004079A
:103D7000E064517053D267900400E0B45102D25F06
:103D800090040EE0B45102D25E90040FE0B45102F0
:103D9000D260900413E0B45104D25D802B900414DF
:103DA000E064517023D258801F900404E0B45104A1
:103DB000D2668014900405E0B45104D26380099067
:103DC0000406E0B45102D26590040BE0B45102D273
:103DD0005A900409E0B4510DE4903E02F090040AB8
:103DE000E0903E03F0305A047F0180027F00909003
:103DF00001EFF0900412E0B45106A2677263926181
:103E0000900415E0B45102D250900416E0B451026F
:103E1000D2707F0322900E45E0900074F0900E4621
:103E2000E0900075F0900E47E0900076F022903E12
:103E30006CE0FCA3E0FDA3E0FEA3E022904400744C
:103E400000F0A37400F02278407C0E7D017B017AA3
:103E50000E79007E007F08120FDA904102E054FED6
:103E6000F022F0904102E04441F022903E0B74FFBA
:103E7000F0A37440F0A37414F02285132090310550
:103E8000E0F513903E06E0FEA3E0FFC394FFEE943E
:103E90000722904102E04451F0227A047900903EDA
:103EA0000B7401F0A3227881E654EAF6904101E018
:103EB000442AF0E054EA22900E45E0900075F0901C
:103EC0000E46E0900076F022A3F0E4903E09F02246
:103ED000E493903E09F022FF2FFFEE33FEED33FD19
:103EE000EC3322E4904104F0788076012290410680
:103EF000F0E4904105F022D253900E44E022903E2F
:103F0000207403F022125085903E017401F090411C
:103F100002E030E00312007E7880E6B401189041A0
:103F200004E030E011122B1E7880EFF6BF0207127A
:103F300027EA7880A6077880E6FF64036004EFB480
:103F400004051251F280C77880E6B4050B90410158
:103F5000E020E4047603801D7880E6FFB406079035
:103F60004101E030E20BEFB4070B904101E020E4A7
:103F700004788076047880E6FF30E7071240E37823
:103F800080A607306F09C26F904107E04401F078C6
:103F900080E664017047904107E030E640903E02C1
:103FA000E0FF6039903E03E0FEC3EF9E903E02F0DA
:103FB0006015E0541F7007903E01E06401F09041ED
:103FC00007E054BFF0800E305A047F0180027F006A
:103FD000903E01EFF0903E01E0909001F09041079B
:103FE000E020E40A909017E020E603023F0E125111
:103FF00081023F0E09022000010100803209040005
:1040000000020806500007050102000200070582B1
:10401000020002000C121E0422183A286210721CC0
:1040200012010110000000408F0580930100010281
:10403000000104030904180341006C0063006F00D1
:10404000720020004D006900630072006F002803B9
:104050004D006100730073002000530074006F0076
:104060007200610067006500200044006500760072
:104070006900630065001003360039003900300024
:1040800046003000310047656E6572696320555304
:104090004220466C617368204469736B2020372E80
:1040A0003736000000000000000000AAAAAAAAAA51
:1040B000AAAAAAEEEEEEEEEEEEEEEEFEFFFFFFFF98
:1040C000FFFFFFFFFFFFFF7FBFDFEFF7FBFDFC7E82
:1040D000BFDFEFF7FBFD7E050F0C000107100202AA
:1040E000000000AD07904104E020E1F9ED247FB429
:1040F0000F0040030241A890410575F003A4C58359
:1041000025F0C58373024132024138024140024129
:104110007902414802414F02415602416002416723
:104120000241720241800241A802418B0241950284
:10413000419C121BF37F0522121CDC76260241A44F
:10414000121CDC76200241A4121CE3763A80551240
:104150001D577628804E7895760778967627804486
:10416000121CE376048005121CE376FF789776FF35
:104170008036121CDC7621802B121CDC76248024F5
:10418000121CE3760478977601801D121BF3121D32
:10419000577629800F121D57762980087895760367
:1041A00078967611E47897F67884E6FCB4020712E4
:1041B0001BF37D078017ECB40311904101E0440428
:1041C000F07881E64404F67D0680027D04AF052286
:1041D000909000E030E2037F0022909012E030E007
:1041E000037F00221218C0EF7002FF2212161FE494
:1041F000F513E513C378AC96501DE513122F4B123F
:104200002E84789FA60608F6E61846600678A1A6D2
:10421000138004051380DB90900AE020E70790905C
:1042200000E030E411909016E020E50AE030E2036F
:1042300012C0247F0122909016E020E03378ACE693
:104240002401FFE433FEEF25E0FFEE33FE7DFF7B2C
:10425000017A3E7980120EF278ACE675F002A4FF86
:10426000AEF07DFF7B017A3E79A2120EF2125D263E
:10427000903120E06451602E125AF87F021222F52C
:10428000124B7F909016E054F7F07E087D007A3450
:104290007900122EFF7F01122F72909016E054CFFA
:1042A000F0E4903E5FF07F01221253418F1FEF3008
:1042B000E70302437E7E007F207D007B017A047944
:1042C00000120EF290000FE0F520B42513900017B5
:1042D000E05401F52178047C04121D217F04801133
:1042E00090001DE05401F52178007C04121D217F0F
:1042F0000C120FDAE521701D900400121C32FFEC45
:104300004D4E4F700D900404121C32FFEC4D4E4F79
:1043100060037F84227899E664017033903E1CE04C
:10432000FF5405FEBE010CEF4404F0903E1DE0700A
:104330000204F0305E19903E1CE030E012121D2C99
:10434000121B73900004120E9B000008008012E5FF
:1043500020B42511121B6E900004120E9B00000267
:10436000007F0880167E007F20121B2A121B6E9091
:104370000008120E9B000002007F2002541CAF1F99
:1043800022E519601F90800BE030E1037FEE229060
:104390008010E0FD90800F7401F090800FE030E01D
:1043A000F9AF0522E490800CF090800BE030E1033F
:1043B0007FEE2290800DE0F528908010E0D378B356
:1043C0009640037FEE22908006E0543025E0FDE425
:1043D000FCECC39528507090800CE0F9908020E0B0
:1043E000FE908021E0FBEEF526EBF52794FFE52615
:1043F00094034015E5279404E5269404500B74308B
:104400002527F582E434808036C3E5279404E52629
:1044100094045033ED6016C3E52694024004ED2069
:10442000E622C3E52694025004ED20E517908013A0
:10443000E0FEE42527F527EE3526F526852782F5CB
:1044400083E069F00C808A908010E0FF2278AEE66D
:104450006F700302450678AEA60712C027EF4E70B4
:10446000089090107404F080FE90800AE054EEF002
:10447000E4909002F09090057431F09090027401F5
:10448000F09080147410F0908022F09080237405D6
:10449000F090801714F090801674C0F0908016E0B1
:1044A00020E0F9E4908023F090800AE0FF90301340
:1044B000E05410FEEF4E90800AF078A2E654C060FF
:1044C00004E04401F0E4909002F0903192E0700436
:1044D000A3E0601D90300CE05470909005F0903196
:1044E00092E0FEA3E0FF12486F9090057490F08078
:1044F0000A90300CE04401909005F0909002740115
:10450000F0E4908023F022122D899000027498F03C
:10451000A37401F078A7E6A3F008E6A3F008E6A3E9
:10452000F008E6A3F0A3744AF0A374E8F0A37402C1
:10453000F090900AE090000BF0A26CE433A3F078C6
:1045400098E6A3F0900010744AF0A3E513F0A2518E
:10455000E433A3F0908007E0900013F090900EE019
:10456000900014F0900020744FF09000307448F0E8
:10457000900040744EF090800BE0900100F090901D
:1045800013E0900101F0A3E519F0908009E090019B
:1045900003F0908011E0900104F0909012E09001FF
:1045A00005F0908040E0900106F0A37401F0903E89
:1045B0001CE0900108F01262E87F0322901000E0F6
:1045C00064996003024670A3E064076003024670CA
:1045D000901003E0FF901002E02F2432FFE4FEFD74
:1045E000EDC39F501074002DF582E43410F583E084
:1045F0002EFE0D80EB74002FF582E43410F583E07D
:104600006E706DD26B306B2390107DE0F4FF9010D4
:104610007CE0B50716E0D394FA4008903E0574FAA2
:10462000F0800890107CE0903E05F090107EE064F1
:104630003C703DA3E064C37037901081E064037068
:104640002FFEFD901080E0FFEDC39F501074802D71
:10465000F582E43410F583E02EFE0D80E6901080A4
:10466000E02480F582E43410F583E0B50602D26AD6
:10467000228F21121E1D121EFB5014851322121EA2
:1046800095AD217C007B1212C00F8522138003128E
:104690001DB5903E19E0900400F0903E1BE09004A0
:1046A00001F0903E18E0900402F0903E1AE0FB907A
:1046B0000403F0A374C0F0A25BE43325E0FE789A13
:1046C000E6FD54012E900408F090047EEDF0E654CF
:1046D00006FFBF0604E04440F0E521B4020A903E24
:1046E00018E0900480F0800AE521B403059004806E
:1046F000EBF0205F0E909000E030E307E49004813F
:10470000F080069004817401F090048274E8F0A3B4
:104710007402F0205306121D5E1262E87F0322909D
:104720003E057432F0E4789AF60876FF08F6903E7B
:10473000087480F0C251C26CC26BC26AC264C267A4
:10474000C262C255C266C263C265C26178B37648AE
:10475000C25AC25FC260C250C270C258C25EC25D5D
:10476000C25C903E68120E9B00000000903E6C12EE
:104770000E9B00000000903E70120E9B0000000097
:10478000903E74120E9B00000000903E78120E9B2B
:1047900000000000903E7C120E9B00000000903E46
:1047A000037410F0E4789AF6903E1874C0F0903ECE
:1047B0001AF0E4903E19F0903E1BF012591112626B
:1047C000D6903E5FF09090167438F0222065037FFB
:1047D0008222900013E0641060037F84227A0479BF
:1047E00000121D66E4904104F0904104E030E0F9CD
:1047F00078847601789AE630E0037F8722E4F5201A
:10480000121EBCE070270520E520B410F3121E1D17
:104810007B147D077C0012C00F901080E0B4AA0AC0
:10482000A3E0B45505121DB580357F0322900480A6
:1048300074AAF0A37455F0900400E0F521E4F5208B
:10484000121EBCC083C082E0FFE520FDE521121FDF
:104850001FEF6ED082D083F00520E520B410E17FF9
:1048600007122987EF6005C25B7F03227F89228EB2
:10487000228F23E4FD79FFFCEC6402700302490FF0
:10488000909003EDF0909004E9F090900B7401F09B
:1048900090900BE030E0F990900CE0FE90900DE0ED
:1048A000FBEEF524EBF52590900CE0B52306E4B57E
:1048B00022027C02EC1460250470BDC3E52595231B
:1048C000E5249522500DE970047C0180ABE925E0D8
:1048D000F980A5ED25E04401FD7C01809BD3E52511
:1048E0009523E5249522400FBDFF047C028089EDCD
:1048F00025E04401FD80817C02E52565237004E507
:104900002465227003024878EDC313FD0248782223
:104910002065037F8222900013E0641060037F848F
:10492000227A0279007E027F009044007402F0A394
:104930007400F012655378847601305B037F872220
:10494000121E1D121EFB5061851320121E957B1036
:104950007D077C0012C00F852013900200E0FFE469
:10496000F520E520FDEF121F1F74002520121F0FF8
:10497000E06EFE74002520F582E43400F583E06EDD
:104980006011D25B121F4C74A5F0903E11745AF066
:104990007F87220520E520B410C8E4903E10F090F7
:1049A0003E11F0789AE654FEF67F0322909016E0CE
:1049B0004438F078ACE62401FFE433FEEF25E0FF55
:1049C000EE33FE7DFF7B017A3E7980120EF278ACE9
:1049D000E675F002A4FFAEF07DFF7B017A3E79A27E
:1049E000120EF2903E5F74FFF0E4F513E513C37806
:1049F000AC96501EE513121E28E0FEA3E0789FA699
:104A00000608F6E61846600678A1A613800405138A
:104A100080DA125D26125AF87F021222F590901663
:104A2000E054F7F0124B7F7E087F007D007B017A17
:104A3000347900120EF27F01122F72909016E0541A
:104A4000CFF0E4903E5FF022900010E05402F51F9A
:104A5000E47F01FEFDFC7889121B4970037F8422EC
:104A6000900011E020E107900018E030E73E126569
:104A7000D9EF602F900200E06029A3E090020012BD
:104A80001B89701F900201E0900200121C4FC002AF
:104A9000C001121C5FD001D002120FDA900201E0B7
:104AA000FF80327F30121B287F308029121B269016
:104AB00000027401F0A3F09000057414F0A37401D7
:104AC000F0E51F25E025E0240A900001F090000A9F
:104AD000E51FF07F1412541C7889120E820000002A
:104AE000007F032278A1E6F527E527D378AC96501E
:104AF0003E122E47E0F525A3E0F526C394FFE525F9
:104B000094075027E526AE257803CEC313CE13D8DD
:104B1000F9122EE83EF583C083C082E0FFE526123D
:104B20002EEFF4FEEF5ED082D083F0052780BA78B6
:104B3000A1E6F52778ACE6FFE527D39F5040E527AF
:104B4000B50727905DFDE07895F6909006E0FFC3ED
:104B500013905DFDF012596678ACE6122E49EEF026
:104B6000A3EFF07895E6905DFDF0122E47E0FCA3F0
:104B7000E0FDE527122F081258BA052780B62278E3
:104B8000A1E6F52178ACE6FFE521D39F4003024C76
:104B900019E521122E49E0FCA3E0F47002ECF47058
:104BA00073E521C39F500BE521122F4B122E844E2B
:104BB0006062122F061261A88E228F23C3E5239410
:104BC000FFE522940740211259668E228F23122F6F
:104BD00006AD23AC221258BAE521C378AC96502812
:104BE000122F34122EBF8020E52178A1667019FDA6
:104BF000AF23AE2212C018AD127C00120CA8122FE7
:104C000034F583EEF0A3EFF0E521122E49E522F012
:104C1000A3E523F00521024B84228F2490801AE023
:104C2000F930E4155301EF908007E0FCE4F0908048
:104C30001AF0908007ECF08005E490801AF09080E4
:104C400005E030E7F9122DAF908005E030E7F990EC
:104C500080007490F0908001EDF0000000000000F2
:104C6000000000000000E4FC9080047401F09080DB
:104C700002E0FDE524FEEC7A002400FFEA3E8F828C
:104C8000F583EDF090800AE030E01A908003E0FDBB
:104C9000E524FEEC2400FFEA3EFE74082FF582E4D2
:104CA0003EF583EDF00CBC06BF90801AE9F022AB14
:104CB00007EB75F00C84FAEB75F00C84ABF0EA703E
:104CC0000E90642C93C313FE74019313FF800A1299
:104CD0002DB6E493FE740193FF7C007D03120C96C5
:104CE0007D18120CA8EF4401FF903F56EEF0A3EFA1
:104CF000F0EBFF7E00903F56E0FCA3E0FD120C9627
:104D0000122DB67401932FFFE4933EFEEA7C002F30
:104D1000FFEC3E903F58F0A3EFF0EB90643E932AF7
:104D2000F50B903F58E0C394204009E50B75F0C0A7
:104D30008485F00B903F59E0F50A903F58E0F50963
:104D4000227898E630E6047F0080027F809041045C
:104D5000EFF08513217895E6F5137BA0122D45120F
:104D6000C00FE4908014F07402122DF7122D068506
:104D7000F022F523E5188DF0A425182522F52290C0
:104D80008016E020E0F97898E630E6047F008002A3
:104D90007F80904104EFF0904104E030E0F9908092
:104DA00040E054FEF07485122DDDE523F0E522F09D
:104DB0009080067484F0908005E030E0F9908000E7
:104DC0007410F0122DA1E4908014F08521137F035C
:104DD00022206A037F0322205306121D5E126553B0
:104DE000851321121E177B117D017C0012C00F85D7
:104DF0002113E4F521E52125E0FFE433FE74822F41
:104E0000F58274023EF583E0FF74002521121F0F26
:104E1000EFF00521E521B408DCE4FFF521E521549C
:104E2000072400121F0FE0FE74002521121EC0E0AF
:104E30006E2FFF0521E521B440E3EF70219004407F
:104E4000E0789A30E40DE64410F6909016E054FDB8
:104E5000F0800BE654EFF6909016E04402F07F03EA
:104E6000228F21E521B40209903E19E0D39402502B
:104E70000EE521B4030C903E1BE0D3940240037F67
:104E80008922205306121D5E126553851322121EBD
:104E900017AD217C007B1112C00F8522131254899B
:104EA000E52164027024BFB00F903E18E0B4B00852
:104EB000903E19E004F08005E4903E19F0903E1811
:104EC000EFF0306C26121EE78021E521B4031CBFF1
:104ED000B00F903E1AE0B4B008903E1BE004F080A2
:104EE00005E4903E1BF0903E1AEFF07F0322C2993A
:104EF000ED30E61275990D3099FDC29975990A3019
:104F000099FDC29980087599203099FDC299ED30BC
:104F1000E01BEF75F00A842430F5993099FDC299B1
:104F2000EF75F00A84E5F02430F5998032EF54F003
:104F3000C4540FFED39409400674372EFE800474C7
:104F4000302EFE8E99EF540FFED39409400674372D
:104F50002EFE800474302EFE3099FDC2998E993059
:104F600099FDC299ED30E71075990D3099FDC29900
:104F700075990A3099FDC29922E4903E21F0A3F080
:104F8000903E21E0FCA3E0FDC3EC9402505D904113
:104F900002E05421600BE054FEF0903E2074048047
:104FA0005C904102E030E007903E207402804E7435
:104FB000002DF974043CFA7B01C002C00178407CEA
:104FC0000E7D01D001D0027E007F40120FDA9041A9
:104FD000037440F0904102E020E1F9903E22E02489
:104FE00040F0903E21E03400F08095123E92E49033
:104FF0003E20F012620CEF7008903E2004F07F001B
:10500000227F01228D20E4FEF521908014E0F5221C
:10501000E4F523EF30E003432310EF5401FDC3EF29
:105020009DFF908005E030E7F9AA07EAC39520507C
:105030004BEAC39410EA500625E02410800425E0D2
:105040002440908014F0C3E5209AFFBF010343235E
:1050500020908006E523F0908005E030E0F9908014
:105060000BE05403600FE4FF124381AE07EED395CB
:105070002140028E21E4F5230A0A80AF908014E5D6
:1050800022F0AF2122E4904104F0904200E054036A
:105090007013904107E020E407909017E030E6EAB3
:1050A00012518180E5904200E0789830E00476402B
:1050B0008009768090800AE04480F0E47881F69060
:1050C0003E04F090900AE020E736909000E020E463
:1050D0002F904104E0FF904102E04F20E013904107
:1050E00007E020E407909017E030E6E51251818058
:1050F000E012651DE4909010F0909016E04401F0ED
:1051000078807601227899A607EF1460461460151E
:1051100024FE601E24FC604424F8604C24907060DF
:10512000903E688031306205903E6C8003903E7402
:105130008024903E6CE0F8A3E0F9A3E0FAA3E0FB42
:10514000903E74123E31C39BFFEE9AFEED99FDEC4A
:10515000988012903E70123E31FF801F903E701278
:105160003E31123ED7FC8013306706123E2EFF8080
:105170000A903E70123E31123ED7FC788D120E6AB4
:10518000229090017401F090801CE0540FFFBF0F3B
:10519000F6306D0312C01EE4908007F090901C74EE
:1051A00080F0E4F0904107E04420F00000000000AF
:1051B0000000000000306D0312C01E904107E05453
:1051C000DFF0904200E0540360F8904200E030E0ED
:1051D000117898E6B48005E4904100F07898764024
:1051E000800478987680E4909001F0908007744075
:1051F000F022908016E020E0F9904104E020E1F9EF
:105200007A0079007E007F00123E3C900000120E72
:105210009B555342537B007A007985125CA1900024
:1052200004120E767B007A007989125CA190000846
:10523000120E767880E6B403047F0080027F01902E
:10524000000CEFF0740D123EED904104E030E10CE3
:10525000904102E030E0F212007E80ED123E3C12FE
:105260003EE3228513217895E6F513122D4312C0F3
:105270000FE4908014F0908005E030E7F9E490802E
:1052800006122D0685F022F523E5188DF0A42518C9
:105290002522F522908005E030E0F91262E81262E2
:1052A000E8908040E054FEF07405122DDDE523F017
:1052B000E522F090800074E0F09080067404F09095
:1052C0008005E030E0F9122DA11262E88521137FFC
:1052D000032212659A121DC4FBC3120E1A50037FDB
:1052E0008A22903E7C121D74121EC8400A903E1AFB
:1052F000E0B4B0037F8922121D71121EEE3508FC46
:10530000903E70121DD9121E9C206009903E7012B2
:105310001D74121DE412C006AB07EB30E713788949
:10532000120E8200000000EB30E0037F01227F03B9
:1053300022121D7FE50D450C7004788476017F896B
:1053400022307021903E18E0B4B01A121C25800360
:10535000121D3FD8FBFF7899E67C00B50707ECB536
:1053600006037F85227899E6FF789BE6FE5F60055D
:10537000EFF45E8033799CE778995660037F85224D
:10538000205F29909000E030E310789AE620E71C37
:105390004480F6789BE644F6800E789AE630E70C77
:1053A000547FF6789BE644F6F67F86227F002290B3
:1053B0000010E0F520A3E0FF1313543FF521E05463
:1053C00003F508A3E0F509A3E0F50BA3E0F50AE572
:1053D000206409702BE50B6407450A6039121E1D15
:1053E000121EFB5014851321121E957B10AD0BACC1
:1053F0000A12C00F852113801D7DFF121E818016A9
:105400008513208521137B10AD0BAC0AAF09AE08C4
:1054100012C00F8520131262E87F03228F22E47FDF
:1054200001FEFDFC7889121B4970037F8422AF22A4
:10543000E4FCFDFE121D364031904106E522F0E409
:10544000904105F0904104E020E1F978893056025E
:10545000802D120E51C007AF22AB07D007C3EF9BC0
:10546000FFEE9400121C8C7F0322788CE69041069C
:10547000F0E4904105F0904104E020E1F9788912D0
:105480000E82000000007F0322900280E0B4FF083B
:10549000A3E0B4FF037FC022900480E0F9A3E0FF03
:1054A000900280E0FEA3E0FDEF6D7040FDEDC39F34
:1054B000503D74822DF582E43404F583E0FC74825F
:1054C0002DF582E43402F583E0FB121F428002C313
:1054D00033D8FC596204121F428002C333D8FC5EE9
:1054E0006203EC6B60037FB0220D80C17FB0227F2E
:1054F000A022AD0712620CEF7006903E200480518E
:10550000904102E030E506E054FEF080E790410370
:10551000E0540FFFBF0807904102E020E711123E60
:105520005A904101E04401F0903E207402802290A4
:105530000E03E0B40316900E02E0B5050F900E01C5
:10554000E0B40608900E00E064806009903E20748C
:1055500002F07F0022123E477F0122125341EF707A
:10556000607899E664017056903E1CE0FE54036436
:1055700001704BEE30E223903E1DE0FEB401067454
:1055800002F07F8522EE64027034903E1D7403F0B9
:10559000903E1CE04402F07F862230600A903E1C60
:1055A000E04402F07F0322903E1DE004F0E0D3943B
:1055B00006400BE4F0789BE64401F67F85227F03EA
:1055C00022228F1AEF75F004A42436F9743F35F0C7
:1055D000FA7B01C002C00178E27C3E7D01D001D09F
:1055E000027E007F04120FDA851A1BE51B602B7503
:1055F000F004A4FFAEF02432F9743F3EFA7B01C000
:105600000174362FF9743F3EA801FC7D01D0017E64
:10561000007F04120FDA151B80D178367C3F7A3E6A
:1056200079E27F04122E94221253418F1FEF20E75C
:105630005A121B269000037410F09000087402F0B8
:1056400090000AF0900012F07899E6640170213021
:105650005E1E903E1CE030E0179000037408F0904E
:10566000000AF0121D2C900004120E767F0C801898
:10567000788D120E51900004120E76788D120E5114
:1056800090000C120E767F1402541CAF1F2212657C
:105690009A121DC4FBC3120E1A50037F8A22903E39
:1056A0007C121D74121EC8400A903E1AE0B4B0036A
:1056B0007F8922121D71121EEE903E70121DD612AD
:1056C0001E9C206009903E70121D74121DE412C0D1
:1056D00003AB07EB30E7137889120E82000000005D
:1056E000EB30E0037F01227F0322121D7F7F89229E
:1056F000908007E0F52190800AE0F52212623B12CB
:105700002D8990800A7401F0E4F523E523122D9889
:105710007895E6FD7F2E124C1AE52375F010A4242F
:1057200000F9740035F0A801FC7A2E79007F101280
:105730002CEC0523E523C3940840D0908007E52195
:10574000F090800AE522F01262E87F03227895E665
:10575000F51312C01578107C5D7A3E79E67F7012E1
:105760002CEC78807C5D7A3F798C7F38122E01E4B6
:105770007895F67895E6FFC39407502BEF7F0025C8
:10578000E0FEEF2400F974503EFA7B01C002C00134
:1057900078007C007D01D001D0027E02122CCB1259
:1057A00062E878950680CC7F03227895E6FEC37880
:1057B000AC9640037F0322903E02E0FF60249041BC
:1057C00007E030E624903E03E0FDC3EF9D903E02EB
:1057D000F0541F700D903E01E06401F0909001F0D4
:1057E0008000904107E054BFF0903E02E04440F05A
:1057F0008513218E1312C00C852113BF81047F01F4
:1058000080027F0322900010E07004A3E064027025
:1058100042900011E0FEA3E0FF7038EE7035126593
:10582000D9EF602F900204E06029A3E090020412F7
:105830001B89701F900205E0900204121C4FC002E9
:10584000C001121C5FD001D002120FDA900205E0F5
:10585000FF80097E007F40121B2A7F4012541C22C9
:105860008F1EE4F51FE51E30E71E1262C012662D82
:1058700074031262C212662D74031262CD12662D79
:1058800090901D7402F08018E41262C212662D120C
:1058900062CB12662D1262CB12662DE490901DF041
:1058A0007895E6FF12662DE51E25E0F51E051FE53D
:1058B0001FC3940840AF126173228C288D29740095
:1058C0002FF58274503EF583E529F0EF30E010E5C6
:1058D00028540FC454F0122E65540F4DF0800BE580
:1058E00028540F122E6554F04DF0E529AE287803A8
:1058F000CEC313CE13D8F9122EE83EF583C083C071
:1059000082E0FFE529122EEFFEEF4ED082D083F029
:1059100022E490800AF07C021262E1908005E0307F
:10592000E7F990800074FFF0908005E030E7F9908F
:1059300080007490F0E4A3F0FE9080047401F09075
:105940008002E0900000F0E0B4FF1A0EBE06EAEC20
:105950005407FEC454F04E90900EF00CECC3940922
:1059600040B67411F022E4F9905DFDE0FC905DFE1C
:10597000E0FDAF0474002CF582E4345CF583E0F5BF
:1059800028F46028EDC394085022ED905AC0935536
:10599000287016ED04905DFEF0905DFDECF075F062
:1059A00008A4FFAEF0EF4DFF220D80D8E4FD0CEC13
:1059B00070C009B902BC122F4022E4903E00F09062
:1059C0003E04F07895F608F608F6D26EC26FC2541F
:1059D000C253C252903E20F0A3F0A3F0C256C25769
:1059E000903E10E0B4A50FA3E0B45A0A789AE644BA
:1059F00001F6D25B8002C25BE4903E02F0903E1C56
:105A0000F0A3F078807601903FF074FFF022E51368
:105A1000C31354FEF524851325903102E0F513904D
:105A20003100E064A0601378A5E6FE08E6FFE51209
:105A30002524FDE433FC7B04801E75F002E524A4DC
:105A40002410F582E5F03431F583E0FCA3E0FD7825
:105A5000A5E6FE08E6FF7B0412C00F85251322EFA2
:105A60000475F004A4142436F582F58475833F751B
:105A7000853FE0F5F01582E0FC1582E0FD1582E03F
:105A8000FF1582E00586F0158615821584E582B43F
:105A900036F1E00586F01584E5F0F01584ECF0159C
:105AA00084EDF01584EFF0158622E4FF2200020455
:105AB0000610121416181A1C1E3050525434363860
:105AC00001020408102040804080102004080102D8
:105AD000003FC0FF007FBFC000403F2F0000FFFF1E
