:020000020000FC
:10000000025E910207C80207E102080E0208200200
:1000100008750209000209920209A30209B6020941
:10002000C90209D50209E20209EE0209FA020A131D
:10003000020A44020A6A020B520200000200000295
:10004000594F02565202522D025A56023D47025350
:100050002E02000002469602560D022D9C0258A860
:10006000024EDB025BB40253D0021421025DCC02CB
:100070005DE3025BD9024F41024830023FB3904139
:1000800002E030E505E054FEF022904103E0540F19
:10009000FFBF0807904102E020E706123C9D0207DF
:1000A000B6123C8A900E41E0240260521460311472
:1000B000B40B0040030207B69000BFF82828730273
:1000C00001270201AA0207B602022F0207B60203A5
:1000D000410203610207B60207580207620207A144
:1000E000900E40E064217013900E44E0700D123CBD
:1000F000F4123CA5123C7F123D25220207B6900E59
:1001000040E064A1701E306104F00207AFA263E416
:1001100033FFA262E4332FFFA267E4332F900E4037
:10012000F00207AF0207B6900E40E0247F60101483
:10013000601E2402706A903E00E0900E408058904D
:100140000E44E07008900E40F0A3F080560207B60F
:10015000900E44E014601E2481600824FE60282470
:1001600082703A7881E630E0047F0180027F00905F
:100170000E40EF80227881E630E2047F0180027F2A
:1001800000900E40EF80107881E630E4047F01801B
:10019000027F00900E40EFF0E4A3F080060207B665
:1001A0000207B69041037402F022900E40E07019ED
:1001B000900E42E0B4010F903E00E054FDF09041FB
:1001C00007E054FBF0220207B6900E40E064027094
:1001D0005B900E42E07052900E44E0146020248147
:1001E000600824FE602C2482703C7881E654FEF680
:1001F000904101E04402F0E054FEF002033D7881BA
:10020000E654FBF6904101E04408F0E054FBF002B4
:10021000033D7881E654EFF6904101E04420F0E0A0
:1002200054EFF002033D0207B60207B60207B6908C
:100230000E40E060030202ED900E42E064026003B3
:100240000202EA900E44E060030202EAA3E07003B7
:100250000202EAE0C3940540030202E7E06404708E
:100260002090901BE054DFF0E478A4F6904107E082
:1002700054BFF0904107E030E6F978A406E6B43ABE
:10028000EB123CA6904102E0544170F8900E45E01C
:1002900024FE6012146017146021240370479042FA
:1002A000017483F0803F9042017485F08037E490C0
:1002B000901CF09042017407F0802A78007C007D49
:1002C000017BFF7A3C79317E007F35120B529041E1
:1002D00004E020E1F9123C7F7435123D2F90420179
:1002E0007409F080E980FE0207B60207B6900E405E
:1002F000E064027045900E42E0703C900E44E014C1
:1003000060142481600824FE601B2482702678819A
:10031000E64401F680277881E64404F6904101E046
:100320004404F080187881E64410F6904101E044DE
:1003300010F080090207B60207B60207B6123CA603
:1003400022123CA6904102E0544170F8900E42E027
:10035000904100F0904107E054FDF0E4903E04F03D
:1003600022900E43E024FE606314607824FD600A4E
:1003700014605924066003020728306B15123CC82C
:10038000500B7B101207BE7006C26B8002C26B85D9
:100390001F13306B117A007900123CEC123C8290F2
:1003A0003E097404800B123CAE903BA3E493903E54
:1003B00009F0903E0A7412F0900E43E06406600368
:1003C00002072B903E0A740AF002072B903E0B7432
:1003D000FFF0A3743BF07483123D1D903E0A74201D
:1003E000F002072B306B15123CC8500B7B12120722
:1003F000BE7006C26B8002C26B851F13306B0C127D
:100400003CE87404F0A37400F08003123CAE900E3C
:1004100042E0120A44043400044201045B020478FE
:100420000304A70404D58005278205B48307128638
:1004300000000725123CAE903BA5123D16903BA64E
:10044000805C306B0B903E097416F0900402803D86
:10045000903BA7123D16903BA88043306B0F900451
:1004600002E02416903E09F09004038020903BA9FE
:10047000123D16903BAA8026306A1A7A04798012BF
:100480003CEC7404F07480123D1D900480E0903EBA
:100490000AF002072B903BAB123D16903BACE49365
:1004A000903E0AF002072B9004007404F0A314F0AD
:1004B000903E0FE0900402F0903E0EE0900403F0B6
:1004C000123CE87404F0A37400123D1E903E0A74BE
:1004D00004F002072B123D39248E601424FD6017AE
:1004E00024DB601A24187020123C66125785801194
:1004F0007F02125D08800A7F021240678003122487
:100500007A903E20EFF08009124721C253123D40FD
:1005100022C253903E20E0B4030302472112472138
:10052000903E207405F022123D39248D605024F055
:10053000604324ED605E24FB604C24A3606724FECE
:10054000605A24D060030206E7900E47E030E112C3
:100550007E027F007D007B017A047900120A6A0224
:100560000664900E45E0903E24F0900E46E0903EEA
:1005700023F00206B8123C661259EE0206E07F0232
:1005800012570B0206E0900E45E0900401F012595C
:10059000180206E0E4FF12304E0206E0123D05129A
:1005A00056900206E09000747451F0123D05125C02
:1005B000680206E0123CE0E4903E21F0A3F0C39014
:1005C0003E21E0940250447F84124E0BEF603C9039
:1005D0000E45E0FF903E21E0FCA3E0FD2400F58203
:1005E00074043CF583EFF0900E44E0FF74012DF5A8
:1005F0008274043CF583EFF0125D26903E22E024E5
:1006000002F0903E21E03400F080B3C3903E21E040
:10061000940250030207BD7F85124E0BEF70030258
:1006200007BD124721EF70030207BD7F81124E0BF9
:10063000EF70030207BD123D39248F70030206C517
:1006400024FD70030206CC24F3607224E8700302D8
:1006500006D324FC70030206DD24A8607B24CB6053
:10066000030206E7900E45E05407F508A3E0F509FC
:10067000903E24E0F50A903E23E0F50BE4F50C9063
:100680000E45E054F0F50DE030E319903E6C123C5D
:10069000BD250BF50BEE350AF50AED3509F509EC2C
:1006A0003508F508E50D7003750D01903E20748046
:1006B000F012C006EF30E734123D40802F123C6646
:1006C000125B68801B7F021256CE80147F02124696
:1006D00009800D1232C38008123E2780031245792B
:1006E000903E20EFF08005123D408012903E20E0C9
:1006F000B403047F0080027F05903E20EFF0C253D8
:10070000123CE0125ABAEF60030207BD903E20048B
:10071000F022903E20E0900E40F0E4903E20F090D9
:10072000410304F0220207B60207B6900E47E070BC
:1007300015900E46E0FF903E0AE0D39F4008900ED1
:1007400046E0903E0AF0903E0AE07004123CE0223F
:10075000900E43E0FF02364F903E04E0900E40F0D2
:10076000804D123CF4F0900E42E0B4011A903E0429
:100770007401F0904107E04402123CA5E49090011E
:10078000F090900704F022900E42E07012903E0428
:10079000F0904107E054FD123CA590900180138039
:1007A00015900E44E07006900E40F0800280079095
:1007B00041037401F022904101E04401F0227D01E7
:1007C0007C0012C00FEF4E22BB010689828A83E0B3
:1007D000225002E722BBFE02E32289828A83E4934D
:1007E00022BB010CE58229F582E5833AF583E022FC
:1007F0005006E92582F8E622BBFE06E92582F8E2EA
:1008000022E58229F582E5833AF583E49322EF8D90
:10081000F0A4A8F0CF8CF0A428CE8DF0A42EFE2258
:10082000BC000BBE0029EF8DF084FFADF022E4CCBC
:10083000F875F008EF2FFFEE33FEEC33FCEE9DEC85
:10084000984005FCEE9DFE0FD5F0E9E4CEFD22EDCB
:10085000F8F5F0EE8420D21CFEADF075F008EF2F15
:10086000FFED33FD4007985006D5F0F222C398FD06
:100870000FD5F0EA22E88FF0A4CC8BF0A42CFCE991
:100880008EF0A42CFC8AF0EDA42CFCEA8EF0A4CD12
:10089000A8F08BF0A42DCC3825F0FDE98FF0A42C26
:1008A000CD35F0FCEB8EF0A4FEA9F0EB8FF0A4CFD9
:1008B000C5F02ECD39FEE43CFCEAA42DCE35F0FD8A
:1008C000E43CFC2275F008758200EF2FFFEE33FE4A
:1008D000CD33CDCC33CCC58233C5829BED9AEC9918
:1008E000E58298400CF582EE9BFEED9AFDEC99FCBA
:1008F0000FD5F0D6E4CEFBE4CDFAE4CCF9A8822201
:10090000B800C1B90059BA002DEC8BF084CFCECD20
:10091000FCE5F0CBF97818EF2FFFEE33FEED33FD59
:10092000EC33FCEB33FB10D703994004EB99FB0F3E
:10093000D8E5E4F9FA227818EF2FFFEE33FEED3315
:10094000FDEC33FCC933C910D7059BE99A4007EC8D
:100950009BFCE99AF90FD8E0E4C9FAE4CCFB2275D4
:10096000F010EF2FFFEE33FEED33FDCC33CCC83368
:10097000C810D7079BEC9AE899400AED9BFDEC9ACA
:10098000FCE899F80FD5F0DAE4CDFBE4CCFAE4C842
:10099000F922EB9FF5F0EA9E42F0E99D42F0E89CD7
:1009A00045F022E8600FECC313FCED13FDEE13FEDF
:1009B000EF13FFD8F122E8600FEFC333FFEE33FEF1
:1009C000ED33FDEC33FCD8F122E6FC08E6FD08E649
:1009D000FE08E6FF22E6FB08E6F908E6FA08E6CBA1
:1009E000F822ECF608EDF608EEF608EFF622ECF049
:1009F000A3EDF0A3EEF0A3EFF022D083D082E49336
:100A0000F608740193F608740293F608740393F6DB
:100A1000740473A8828583F0D083D082120A2A12CC
:100A20000A2A120A2A120A2AE473E493A3C583C588
:100A3000F0C583C8C582C8F0A3C583C5F0C583C807
:100A4000C582C822D083D082F8E4937012740193D7
:100A5000700DA3A393F8740193F5828883E47374F3
:100A600002936860EFA3A3A380DFEF4E6012EF60F4
:100A7000010EEDBB010B89828A83F0A3DFFCDEFA55
:100A80002289F05007F709DFFCA9F022BBFEFCF336
:100A900009DFFCA9F022E709F608DFFA8046E7093A
:100AA000F208DFFA803E88828C83E709F0A3DFFA40
:100AB0008032E309F608DFFA806EE309F208DFFA14
:100AC000806688828C83E309F0A3DFFA805A8982EA
:100AD0008A83E0A3F608DFFA804E89828A83E0A346
:100AE000F208DFFA804280D280FA80C680D4805536
:100AF00080F28029801080A680EA809A80A880DA1F
:100B000080E280CA802988848C8589828A83E493E4
:100B1000A30586F0A30586DFF5DEF3800B89828AC4
:100B200083E493A3F608DFF9ECFAA9F0EDFB228841
:100B3000848C8589828A83E0A30586F0A30586DFFD
:100B4000F6DEF480E389828A83E493A3F208DFF976
:100B500080D688F0EF60010E4E60CD88F0ED240263
:100B6000B4040050C3F582EB2402B4040050B9234E
:100B700023458223900AE673E4909001F0E070032D
:100B8000020DE778B376489090077401F0909001D9
:100B9000E024FE7003020C2F24F77003020C97244C
:100BA0000224FC4003020C527003020C8F147003E9
:100BB000020D22147003020D15240E6003020DCCE9
:100BC000120E91904102E030E7F9904102E030E0EE
:100BD000F9E4F512E51290546193FF74002512F5C3
:100BE00082E4340EF583E06F6003020DCE0512E55A
:100BF00012B408E0900E407411F0A37422F0A374B4
:100C000033F0A37444F0A37455F0A37466F0A37496
:100C100077F0A37488F0E4904102F0A37408F09098
:100C20004102E020E1F99090017401F0020DCC1234
:100C30000E91904107E030E4F990801CE0540FFFE2
:100C4000BF0FF6E4908007F0904107E04420F002E7
:100C50000DCCAF0BAE0AAD09AC08C006C007AE0C98
:100C6000AF0DAB07AA06E4F9F8D007D006120900C9
:100C70008F0B8E0A8D098C08AF0BAE0AAD09AC083C
:100C8000780A1209A38F0B8E0A8D098C0880FE90BA
:100C9000800B7408F08005E490800BF090800A745B
:100CA00010F0125E54E4F514125CACE4F519F5137F
:100CB000E4908006F0908005E030E0F990800BE051
:100CC00054036005E4FF123D470513E513C3940286
:100CD00040DE90800A7411F090800774FFF0751464
:100CE00002125E10751202125C21125CAC90800739
:100CF00074C0F0E4908006F0908005E030E0F99058
:100D0000800BE0540360047F0080027F019090011B
:100D1000EFF0020DCC90801AE04401F090800A744C
:100D200011F0E4909002F09090057430F0909002F1
:100D30007401F000000000909001E0B40E05E49012
:100D4000800AF0125E5490800B7404F0908005E0ED
:100D500030E7F9E4908000F0A3F0F0F0F09090011B
:100D6000E0B40F05E4908001F09080007430F090C2
:100D70008005E030E7F99080147410F0E49080066C
:100D8000F0908005E030E0F9E4908006F090800576
:100D9000E030E0F99080157455F074AAF09080145A
:100DA0007410F0E4908022F0A37405F09080171482
:100DB000F090801674C0F0908016E020E0F99080EA
:100DC000157477F0E4908023F002E80080FEE49050
:100DD0009001F0E0B4780EE4FDFF124F411248306C
:100DE000E4FF123FB380FE759852758921758DFF1F
:100DF000D28EE4F58CF58AD28C4387807898F6758C
:100E00009955909016E020E003125BFD909016E05B
:100E100030E00890901C7480F0E4F090901074081A
:100E2000F090900174FFF012538290900AE020E756
:100E300007909000E030E44E909016E030E017907C
:100E40003F88E0B45110A3E0B4460BA3E0B45706CA
:100E5000A3E064546026124309125D98909016E056
:100E60004401F0903F887451F0A37446F0A3745786
:100E7000F0A37454F0E490900FF08003125D98E4B6
:100E8000909010F08008124309E490900FF0023A1D
:100E900098125BFDE490900FF09042017431F09055
:100EA000410274FFF022900012E07895F6A3E0F57D
:100EB00008A3E0F509900015E0F50AA3E0F50B782A
:100EC000891209FA00000000900010E0120A440F95
:100ED00033000FDE010FE6020FF4030FF704106278
:100EE000050FFA060FFD0710060810000910090A81
:100EF000100C0B100F0C10200E10D210102311101C
:100F00002612103D13110E1B11201C11361D1153FA
:100F10001E116C1F1172200F36210F36220F9D23D8
:100F20000F9D24105C28105F2A10538010598100F7
:100F300000117A02506390800BE054FC788CF6909C
:100F4000800AE018F6900011E018F690800B7410FB
:100F5000F0E4900011F012586F788AE6900011F0DA
:100F6000900010E0B42108A3E0FF12389A800E121E
:100F70001C8A125DE3900011E0FF1254697889A683
:100F800007788CE690800BF018E630E0047F018053
:100F9000027F00900011EFF012586F803C90801A91
:100FA000E05480788CF6E0547FF0900010E0B42498
:100FB00008A3E0FF12389A800E121C8A125DE3909B
:100FC0000011E0FF1254697889A60790801AE0FFAB
:100FD000788CE65480FEEF4EF07889E6FF22900090
:100FE00011E0FF02389A121C8A125DE3900011E0B2
:100FF000FF025469025CCC0250C0024B7A0244E901
:1010000012586F7F0322025DFA02318902511D7866
:1010100095E6FF5470FEEF54074E90900E02117645
:10102000024115025835125DB37895E67800FC7AD6
:101030000079007E027F00121C337F03227895E640
:10104000FA79007B01C002C001121CA0D001D002BD
:10105000021117121B37025690025E370257C00268
:10106000553E7D00121BC59000007460F0A374040F
:10107000F090000304F0E4F51FAF1F1254F9E51FD0
:1010800075F004A4AEF02410F50DE43EF50CFE74EA
:1010900000250DF58274003EF583E51FF0740125EF
:1010A0000DF58274003EF583E509F07402250DF517
:1010B0008274003EF583E50AF07403250DF5827411
:1010C000003EF583E50BF0051FE51FC3946040A9C2
:1010D000805E900011E0F51FAF1F151FEF602CAE72
:1010E00008AF09E42FFFE43EFAA9077BFFC002C066
:1010F00001121CA0D001D0027E027F00120B5212FE
:101100001B93125B410508050880CD7F0322121C4A
:10111000A07B017A3079007E027F00120B52801092
:10112000121CA07B007A0079007E017F00120B5216
:10113000125B417F0322900011E0600BD259908036
:1011400040E04401F08009C259908040E054FEF034
:101150007F0322900011E090800A6006E04402F0D4
:101160008004E054FDF01235237F03221250057FE6
:101170000322E4909012F07F03227F8322E4F52083
:10118000F520121B50121C4A50068E218F2280140B
:10119000E4F521F522C3E522789E96E521189640D4
:1011A000030213B87B40E4FDFCAF22AE2112C00F56
:1011B000EF64FC7003EE640760030213AD903E061B
:1011C000E521F0A3E522F0121B567B14E4FDFC128E
:1011D000C00FEF4E70030213B890100EE0649860D9
:1011E000030213B8A3E064E160030213B890100A8D
:1011F000121BA6121CCA901011121BA6903E6C1254
:1012000009EE901016121BA6903E701209EE901077
:101210001B121BA6903E781209EE901021121BA6FD
:10122000903E7C1209EE901026121BA6121CD09044
:101230001030E024FF925F901034E024FF9264901D
:101240001036E024FF9255901038E024FF9266A3F8
:10125000E024FF9263A3E024FF9265A3E024FF92C1
:101260006790103FE024FF925AA3E024FF9260A30E
:10127000E024FF925CA3E0903E03F0901043E02452
:10128000FF925EA3E024FF9261A3E024FF925DA39E
:10129000E024FF9258A3E024FF9250A3E024FF92A1
:1012A00070305A047F0180027F00909001EFF0902F
:1012B000102EE0789A46F6909016E030E104E6545D
:1012C000EFF6121AFDFF903E6C121B88FBD3120939
:1012D00092400A903E6C120A1300000000903E6C8F
:1012E000121B00FFEC4D4E4F6002D262305F09903E
:1012F0009000E030E302C267E4F520E520C378AC5B
:1013000096502175F002E520A42400F582E5F03422
:1013100011F583E0FEA3E0FF121BF2EEF0A3EFF065
:10132000052080D7121B567D0112140D7003021484
:1013300008123EFE121B567D0212140D7003021499
:1013400008901080E0B4FF09A3E0B4FF047FC080E0
:10135000027FB0903E18EFF0121B567D0312141757
:101360007003021408901080E0B4FF09A3E0B4FFFA
:10137000047FC080027FB0903E1AEFF0121B567DB2
:10138000071214177003021408901080E064AA700A
:1013900017A3E0B45512121CF1E0B4A50D903E1154
:1013A000E0B45A06D25B8002D25B7F01220522E5BF
:1013B0002270020521021195903E067407F0A37475
:1013C000FFF0E4F52078ACE6FFE520C39F501378EA
:1013D0009FE6FC08E6FD121BF2ECF0A3EDF0052001
:1013E00080E37E00789FE6FC08E6FD12080E8E2161
:1013F0008F22AB07AA06E4F9F8AE0EAF0FFCFD1280
:101400000875121CCA121CD0D25B7F00227B147C90
:101410000012C00FEF4E227B147C0012C00FEF4E63
:10142000227E0C7F007A507900122B4F7E017A5D6C
:101430007900122C0D7F327A3F7956122BC67F1815
:101440007A3E7947122BC6E5135403F509E513C319
:101450001354FEF5087895A613903102E0F5139029
:101460003100E064A0601278A5E6FE08E6FFAD0852
:10147000E5122DFDE433FC801DAF0875F002EFA4EA
:101480002410F582E5F03431F583E0FCA3E0FD782B
:10149000A5E6FE08E6FF7B0412C00F7895E6F5137B
:1014A000AF09EF7F00FEEF2400F974103EFA7B01D4
:1014B000C002C00178007C5C7D01D001D0027E01B9
:1014C000120B52E4F514F50AF50BC3E50B789E9662
:1014D000E50A1896400302161A122C16CEC313CE34
:1014E00013D8F9122BAF3EF583122AEC5E6003028B
:1014F000160F7B40E4FDFCAF0BAE0A12C00F905DEF
:1015000002EEF0A3EFF0905D02E0A330E720122C92
:1015100016CEC313CE13D8F9122BAF3EF583C0837A
:10152000C082122AEC4ED082D083F002160FC390F4
:101530005D03E094FF905D02E09407400302160F04
:10154000E0FEA3E0FF125A56905D00EEF0A3EFF02C
:10155000C3905D01E094FF905D00E09407400612A7
:10156000166502160FE514C3942540030216067B88
:10157000407D027C00AF0BAE0A12C00F903EE2EE3F
:10158000F0A3EFF0905D02E0FEA3E0FF903EE2E00A
:101590006E7003A3E06F600E903EE2E0640770049B
:1015A000A3E064F77025E514C39419905D00E0FE94
:1015B000A3E0FFE5145005122C1D8003122C27F523
:1015C00083EEF0A3EFF01216658037E514C394198B
:1015D000E5145005122C1D8003122C27F583E50A13
:1015E000F0A3E50BF0122C16CEC313CE13D8F912CC
:1015F0002BAF3EF583C083C082122AEC4ED082D03E
:1016000083F0051480097D01AF0BAE0A12C01205EC
:101610000BE50B7002050A0214CA903102E0B51303
:101620000E78A5E6FC08E6FD7FFD7E0712522D7EB2
:10163000007F107DFF7B017A5D7900120A6A789D38
:10164000E6FE08E67803CEC313CE13D8F9905DFF0B
:10165000F0905CFFE0FF905438E493FEEF4E905C16
:10166000FFF07F0122905D02E0FEA3E0FFAD0BAC36
:101670000A12522D222056432057407888E6600AED
:101680007987E77886461846601E7F457E407D351F
:101690007C747885121F36600F7F427E497D4F7CB7
:1016A000537885121F367002D2567885E6600C7921
:1016B00088E778874618467002D25730674220582C
:1016C0003F205703305639205D36206115A262E471
:1016D000332401FFE433FE7883E6FDB5070AE4B561
:1016E0000606789976018011ED14FF7402A80708A8
:1016F0008002C333D8FC7899F67899E6FF124C58EB
:10170000306B1885131E1220317B107D017C001276
:10171000C00FEF4E7002C26B851E137899E6FFB4BE
:101720000125903E0B74FFF0A3745DF0A37461F08B
:10173000206B030217C1900120E064AA6003021726
:10174000C1903E0B048051306B59900002E07C0048
:101750002416F9EC3400FAA3E029F9EC3AFA903EA9
:101760000B7401F0A3EAF0A3E9F0EF5414601790B2
:101770000140E0B4AA10903E0B7401F0A37401F094
:10178000A37442F0803B7899E6B40835900120E0DC
:10179000B4AA2E903E0B7401F0A37401F0A374223E
:1017A000F0801E903BADE493903E09F07E0024A3B0
:1017B000F9EE343BFA903E0B74FFF0A3EAF0A3E994
:1017C000F01220DE7480F0A37402F0A3F0A3741F63
:1017D000F0E4A3F0A3F0A3F0F51E903E0BE0FBA312
:1017E000E0FAA3E0F9851E827583001207E1FF7419
:1017F00008251EF582E43400F583EFF0051EE51E92
:10180000B420D7206B030218AB30550320560330A9
:101810006605E4900001F0751E017899E6FD64010B
:10182000703F9000237430F02060237888E66405D0
:10183000701C18E6B48F1718E6B4931218E6B48437
:101840000D1220DEF0903E1CE054FEF0804B900024
:10185000007405F0A37480F0903E1CE04401F08019
:10186000383066089000237435F0802D306508907C
:1018700000237436F080223064089000237437F01F
:101880008017306311ED900023B408057439F0809F
:10189000087438F08003E4F51EE51E600E90002009
:1018A0007438F0A3742EF0A37430F07F241252D950
:1018B00022E4F51378ACE6FFE513C39F4003021959
:1018C00085E513122C31F583E0FCA3E0789FA60494
:1018D00008F6E618467003021980EF2401FFE4338E
:1018E000FEEF25E0FFEE33FE7DFF7B017A3E79803F
:1018F000120A6A78A1A61312142178A1E6F52078BD
:10190000ACE6FFE520D39F507C122B6D74FFF0A353
:10191000F0E520C39F500BE520122C31122B484ECE
:101920006059122BCF125A568E238F24C3E524946C
:10193000FFE5239407401A12532E8E238F24122B77
:10194000CFAD24AC2312522D122B6DE4F0A3F08006
:101950001EE52078A1667017FDAF24AE2312C018D3
:10196000AD127C00120820122B6DEEF0A3EFF0E513
:1019700020122B2FE523F0A3E524F005200218FF09
:1019800005130218B47E087A347900122C0D78AC55
:10199000E6F515F513C251E4F521E513D378A196C8
:1019A0005003021AE9151312C01530510612C02453
:1019B000021AB7E4F520122B9665136003021AABE6
:1019C000122B0BE0F46004052180F5E4F522E522FA
:1019D000C39521502A122B96FFE522122B0DE0B55C
:1019E0000719122B3BFFE522122B5FE0FCA3E0B5A9
:1019F0000709ECB5060505200219B6052280CF12AD
:101A00002B3BFFE521122B5FEEF0A3EFF0122B0B27
:101A1000E513F0122BE8122AD72410F9745D35F083
:101A2000FA7B01C001E521122ACC24E6F9743E3587
:101A3000F0A801FC7D01D0017E007F0A120B52123A
:101A40002BE8F583E075F007A42480F9745D35F088
:101A5000FA7B01C001E521122BDAE075F007A4241E
:101A60008CF9743F35F0A801FC7D01D0017E007F28
:101A700007120B52E521122ACC122BA7122B48C3B6
:101A8000950FEE950E5024E521122ACC24E8F5821C
:101A9000E4343E122B48FF7D0112C018E521122AC2
:101AA000CC122BA7F583EEF0A3EFF00520E520C3C1
:101AB000940850030219B6E4F51412C0210514E588
:101AC00014C3940840F478107C5D7A3E79E67F7008
:101AD000122B5678807C5D7D017B017A3F798C7E6C
:101AE000007F38120B5202199A227A0479007E0480
:101AF0007F009044007404F0A37400F022903E74C0
:101B0000E0FCA3E0FDA3E0FEA3E022908017E02527
:101B10000DF50DE4350CF50CFEAF0DE4FCFD780978
:101B20001209B678890209E27DFF7E027F007B01FF
:101B30007A047900020A6A900010E0900074F09034
:101B40000011E0900075F0900012E0900076F02215
:101B5000903105E0F513903E06E0FEA3E0FF22255C
:101B60000BF50BEE350AF50AED3509F509EC3508EC
:101B7000F50822E50D250BFFE50C350AFEE43509D5
:101B8000FDE4903E783508FCE0F8A3E0F9A3E0FA24
:101B9000A3E0227A0079007E007F00904400740068
:101BA000F0A37400F022E0FCA3E0FDA3E0FEA3E0BC
:101BB000FF22E50D250BFFE50C350AFEE43509FD96
:101BC000E43508FC227E027F007B017A0079000266
:101BD0000A6AF0A261E433A3F0A25DE433A3F0A2A9
:101BE00058E433A3F0A250E433A3F0A270E433A38B
:101BF000F022E52025E024C2F582E4343EF583227C
:101C0000F0A266E433A3F0A263E433A3F0A265E498
:101C100033A3F0A267E433A3F022E51425E025E026
:101C20002439F582E4343FF583227E007DFF7B0179
:101C3000020A6A7D017B01020B522FF50BEA3EF589
:101C40000AE93DF509E83CF50822C394FFEE940744
:101C500022903105E0F5132275F002EFA42400F57F
:101C600082E5F03405F583227400251FF582E43403
:101C700004F58322FFAB0BAA0AA909A808C302092D
:101C800092788D1209D5C3020992900017E0FEA345
:101C9000E0FF22250BFFEE350AFEED3509FDEC22B3
:101CA00078007C007D0122F582E43402F5832290E5
:101CB00000747451F0A3222DFDE4338D82F583E48A
:101CC00093FE22789BE644F6F622903E680209EEE7
:101CD000903E740209EE04F0A264E433A3F0A32260
:101CE000903E18E064B022ED5407FA7401A802088F
:101CF00022789AE64401F6903E1022C3E50B94FF49
:101D0000E50A940722C26D125AE9E47892F69080AF
:101D100005E030E0F91229EDC259E4908040F090DE
:101D2000800B7410F07892E6122A66E490801AF024
:101D300090800AE04410F090801AE04401F0E478CA
:101D4000A2F6908005E030E7F91229BC7430F090DB
:101D500080147410F0908005E030E7F978A2E66016
:101D60000D9080007405F0E41229C174E0F0E49055
:101D70008006F0908005E030E0F9908067E030E088
:101D80000E78A2E67006122A3B0680B61229E6E417
:101D9000FD7F2E124A22E478A2F6902E00E064988D
:101DA0006004E0B4450478A27601E47894F690806B
:101DB00005E030E7F9122A3B7894E6FF1254F990D7
:101DC0008005E030E7F9E4908000F0122A207430BA
:101DD000F07894E67014908005E030E70D7892E694
:101DE00030E10778947660021E80908005E030E74D
:101DF000F978A2E6600D9080007405F0E4122A20C4
:101E000074E0F0E47891F69080147410F0908005FE
:101E1000E030E7F9E4908006F0908005E030E0F9EA
:101E200090800BE054036009E020E13DE4FF123DA7
:101E300047901000E0640D7030A3E06406702AA3A0
:101E4000E064057024A3E06406701EA3E0B41819D2
:101E500078007C30122A327E027F00120B5212224E
:101E6000B8EF70551229ED800B7891E6C3940650B7
:101E700003068093789406E6C394605003021DAE77
:101E8000789206E6C394045003021D0E1229E690D0
:101E90005439E493908007F0908005E030E7F91220
:101EA0002A3B908005E030E7F91229BC7430F090AD
:101EB0008005E030E7F97F0022D26D90319FE0B4D9
:101EC0005108D2599080407401F0123523E490906B
:101ED00002F0903192E07004A3E0601D90300CE0BD
:101EE0005470909005F0903192E0FEA3E0FF124311
:101EF000AC9090057490F0800A90300CE044019012
:101F00009005F09090027401F012C000E47883F61E
:101F10007F01227F147E007D007B017A0079000220
:101F20000A6AE50D250BFFE50C350AFEE43509FDCF
:101F3000E43508FC788D1209D5C3020992903E6CF5
:101F4000E0F8A3E0F9A3E0FAA3E0FB903E74E0FC24
:101F5000A3E0FDA3E0FEA3E022908017E0250DF5AD
:101F60000DE4350CF50CFE7809AF0DE4FCFD12090B
:101F7000B6788922AF0BAE0AAD09AC087802120917
:101F8000B68F0B8E0A8D098C0822FFE02FFFE433F9
:101F9000FE74002FF58274023EF583E064AA22C22B
:101FA000547A0079007E007F009044007400F0A312
:101FB0007400F0E4904104F022EF24FFFFEE34FFC0
:101FC000FEED34FFFDEC34FFFC9000001209EE90B2
:101FD000000422904101E04410F07881E64410F6BC
:101FE000227400251FF582E43402F583E022250BDC
:101FF000F50BEE350AF50AED3509F509EC3508F56E
:102000000822A25CE433FF74047E00A8070822AE15
:102010000CAF0DE4FCFDFB7A02F9F8120875788923
:1020200022FF7E00E07C002400F9EC3403FA7B01FF
:1020300022903105E0F513903E06E0FEA3E0FF227A
:10204000FEED9400FDEC9400FC78890209E2FFE0CB
:102050002FFFE433FE74002FF582740322903E03B9
:10206000E0FEC3EF9E903E02F0541F227401251F34
:10207000F582E43402F583E024022278007C007DBE
:102080000122C39BFFEE9AFEED99FDEC98FC229095
:1020900000027480F02278957605789622789576FD
:1020A00002789622F0E4904105F0788922903E0172
:1020B000E06401F0909001F022AB0BAA0AA909A8F4
:1020C00008020992788D1209C978020209A3788959
:1020D0001209D5D3020992CEA2E713CE1322E490BF
:1020E0000000F0A32278957606789622125D447857
:1020F00099E66401702E903E1CE030E027AE0CAFF4
:102100000DE4FCFD780B1209B67889121F367014A5
:10211000121F74E50DAE0C7802C333CE33CED8F95E
:10212000F50D8E0C12200F121F3660037F842212D1
:102130004CC78F1EEF30E70122788D1209C9D312E8
:1021400020B940093056030222537F8A22121F22EF
:1021500050037F8A22903E02E0FF6011904107E029
:1021600030E61112205D70051220AD80009041070D
:10217000E054BFF0903E02E04440F0306930C26964
:10218000D268903E15E0FEB40115903E16E0B40111
:102190000E903E17E0B40107789C76FF7F86229070
:1021A0003E17EEF0903E157401F0903E16F020645C
:1021B000047F0180027F00903E18E0B4B0047E01ED
:1021C00080027E00EE5F7003022272122002800302
:1021D0001220D7D8FBFF7899E66F7001EE600302FA
:1021E000227278891209FA00000000E4FFFEFDFC6B
:1021F000C31220B9705D7899E6B4040B903E6C125E
:102200001F4EF50B121F83903E1EE50CF0A3E50D4B
:10221000F0750C00750D0112C0038F1EE51E30E72E
:1022200018903E1EE07004A3E06401700FE51E30BC
:10223000E0047F0180027F03227F8922908016E0E4
:1022400020E0F9903E1FE024FFF50D903E1EE034A3
:10225000FFF50C7E0C7F007DFF121F19E50D450C6C
:10226000600D125B41E50D150D70F1150C80ED7FD1
:102270000322125A2312C0038F1EE51E30E72D30B1
:10228000E01C904102E030E00312007E904104E047
:1022900020E1EF305403121F9F751E018003751E4D
:1022A0000378891209FA000000008009121F5912F0
:1022B00009E2751E89AF1E22903012E078A2F690D6
:1022C000800AE0FF903013E0FEEF4E90800AF0901D
:1022D00031F0E0F50EA3E0F50F9031F2E078ACF6C6
:1022E0009031F4E0F510A3E0F5119031F6E078AD0F
:1022F000F69031F8E0F5129031FA1229A89031FCED
:10230000789F1229AA9031FE122A42903191E090D2
:102310009009F09031A7E078A3F6E6700276049079
:1023200031A8E0FF1257FB903194E06003122A8A33
:10233000122A4D78827614E4F5227882E6FF240092
:10234000F582E43430F583E0640C60030224747495
:10235000012FF582E43430F583E0FEC4540F122AD5
:102360006674022FF582E43430F583E07880F678E5
:1023700082E62403F582E43430F583E07881F69038
:102380008005E030E7F9E4F520E520C37880965039
:102390002FAF207401A807088002C333D8FCF521B1
:1023A0007881566010908005E030E7F91229F590A9
:1023B0008000F080071229F5908001F0052080C987
:1023C0007882E62401F582E43430F583E0540F7816
:1023D00080F6E630E0037F0022E4F520E520C378B4
:1023E0008096400302246BE520540725E0241090DA
:1023F0008014F0908005E030E7F9E4908006F090DA
:102400008005E030E0F990800BE05403600CE03090
:10241000E1037F0022E4FF123D47908005E030E1B8
:102420000A90800AE020E1037F002205200520E5D4
:10243000205407F5216007E520788066709EE5212D
:102440007003752108E5217F0025E0FEC006C00766
:10245000E522122A15A807FC122A32D007D006124C
:102460000B52E5212522F5220223DC7882740C260A
:10247000F602233A122AAA7F01227D00121B2A901B
:102480003E68121B00FF9004001209EE90040474D1
:10249000E1F0A37402F0A374A1F07B017A3E796CA1
:1024A00012560D9004071209EE90040B74A2F07BF3
:1024B000017A3E797812560D90040C1209EE9004C0
:1024C0001074A3F0E4A3F0A26C33A3F0A374A4F0FF
:1024D0007B017A3E797C12560D9004141209EE901D
:1024E000041974A5F07B017A3E797012560D9004A0
:1024F0001A1209EE90041F7401F0A374A6F0A25FF3
:10250000E433A3F090042374A7F0900426121CD6A1
:1025100074A9F090042B04F0A26DE433A3F0909022
:102520000AE090042DF090042F74AB121C00A25C02
:10253000E433900436F0A25AE433A3F0903E03E073
:10254000900438121BD27B017A3E797412560D909A
:1025500005001209EE90050474B0F0903E19E09069
:102560000505F0903E1BE0900506F0903E18E090C7
:102570000507F0903E1AE0900508F0A374C0F078CB
:102580009AE6A3F0A374B1F090051004F0789FE6EA
:10259000A3F008E6A3F0A374B3F0A26CE433A3F0B5
:1025A000903E08E0900515F0A374B4F0789BE6FF28
:1025B000A3F0789CE6FEA3F0A374B5F09005240484
:1025C000F0A3EFF0A3EEF090053074B7F090900018
:1025D000E0900531F090053574B8F090054004F0B6
:1025E000903102E0900541F078A5E6A3F008E6A35B
:1025F000F0903105E0900544F0903E06E0900545EE
:10260000F0903E07E0900546F078F07C057A31794D
:10261000F07E007F10121C33205306121AEA125B60
:10262000417F0322306530789AE630E02A90000F2F
:10263000E0248F24FC501D24F2601924ED60152441
:10264000FC60140424FB500C24A9600824FB6004E3
:10265000247970037F8222D25290000FE0120A4444
:1026600027A41027AB11270112275C71276072275E
:102670006473276874276C75277776278077278996
:102680007827927B279B7C273C8127478227528390
:1026900027329626E197271299271A9A27229B26F6
:1026A000F99C272A9D270AF526C1F626C9F726E9AF
:1026B000F826D1F927B2FA26D9FB26F4FF00002725
:1026C000B9124FA38F1E0227BC124BE98F1E02279F
:1026D000BC1259B98F1E0227BC125B168F1E02272F
:1026E000BC125E9D8F1E0227BC121B37125C688FC6
:1026F0001E0227BC125E5B800B124D358F1E022717
:10270000BC125C8A751E030227BC123E278F1E0274
:1027100027BC1232C38F1E0227BC12247A8F1E02DE
:1027200027BC1259188F1E0227BC1245798F1E0232
:1027300027BC7F0112304E8F1E0227BC121B37129E
:102740005B688F1E0227BC121B371257858F1E0233
:1027500027BC121B371259EE8F1E80607F02801932
:102760007F02801E7F0280237F028028903E1CE033
:102770004402F07F0280267F031256CE8F1E803CDB
:102780007F03125D088F1E80337F0312570B8F1E4D
:10279000802A7F031246098F1E80217F0312406723
:1027A0008F1E801812444D8F1E80111242668F1E9C
:1027B000800A120EA68F1E8003751E82C252AF1EA3
:1027C000228F222052062053037F0122121C511215
:1027D000C01520510312C01B7FFC7E07125A568E73
:1027E0000A8F0B121CFB40117E107F007DFF7B01C6
:1027F0007A107900120A6A8021E47891F67891E6DD
:10280000C394085015E6FD7C00E62404FBAF0BAE34
:102810000A12C00F7891060680E3E522B4FF09751D
:1028200008077509FF02291612532E8E088F09BE5C
:10283000FF06BFFF037F0022E5227F0025E0FEEFB9
:102840002400F974103EA801FC7D017B017A047913
:10285000007E02120B52E47891F67891E6C3940858
:1028600040030229162052062053037F012278914B
:10287000E68512F084E5F070057BA012293C7FFC10
:102880007E07125DE39031EEE030E30778917BA2A2
:1028900012293C7891E625E02410908014F0908075
:1028A0000674E0F0908005E030E0F97891E62402CB
:1028B0008512F084E5F06007E6240254077050901A
:1028C00080007410F0908005E030E7F978A2E6FF10
:1028D00020E53C9080007470F09080047401F090CA
:1028E0008002E07892F6EF54C06006908003E046E4
:1028F000F67892E630E0187D01AF09AE0812C012FA
:102900007BC1E4FDFCAF09AE0812C00F0228287895
:1029100091060602285A121CFB50097D01AF0BAE2E
:102920000A12C012AD09AC087FFC7E0712522D902E
:102930003E06E508F0A3E509F07F0122E6FD7C00F4
:10294000AF09AE0812C00F22AF177E0078A4E6FAD6
:10295000FD7C0012080E7891E625E02427F582E43C
:10296000343EF583EEF0A3EFF0E5188AF0A4FFE61D
:1029700025E02427F582E4343EF58322120B527AB7
:102980000079007E007F009044007400F0A3740082
:10299000F022740290901DF07895E6FF2274019069
:1029A000901DF07895E6FF22789DE0FEA3E0A60654
:1029B00008F6227D017B017E00020B52E49080002C
:1029C000F0908001F0F0F0F0F090800022F0E5123D
:1029D000FD7C00AE0AAF0B120820ECC313ED13FD13
:1029E000E5178DF0A42290801AE054FEF090800A42
:1029F000E05480F0227882E62520FFE433FE740460
:102A00002FF58274303EF583E0227B20AD0BAC0ABB
:102A1000AF09AE082225E0FEE42400FFEE34A02238
:102A2000908001F0F0E50BF0E50AF0E509F0908008
:102A300000227D017B017A1079002290800074FFD2
:102A4000F02278A5E0FEA3E0A60608F62290801505
:102A50007455F074AAF0227E027F007D007B017A1B
:102A6000007900020A6A90543993908007F022900E
:102A70008040E0FFA259E433FEEF4EF022E517C399
:102A800013F517E518C313F51822E05470FFE0544E
:102A9000074F90900EF022908000F090800122EB82
:102AA000C31378B2F678A406E6229080157477F006
:102AB00022908017F090801674C0227D017B017EE9
:102AC00000020B52F58374FFF0A3F0EF25E025E040
:102AD0002439F582E4343FF583E075F00AA422E05E
:102AE000FFED540790543193FEEF6E22E0FF7C001F
:102AF000E50B54072431F582EC3454F583E493FE5E
:102B0000EF227E007DFF7B01020A6AE52125E02598
:102B1000E02438F582E4343FF58322FDEEC313FE52
:102B2000EF132400F58274583EF583E022E5272553
:102B3000E02480F582E4343EF58322E52025E0257B
:102B4000E02460F582E4345DF583E0FEA3E0227DBD
:102B5000FF7B01020A6A7D017B017E00020B522588
:102B6000E025E02436F582E4343FF58322E5202594
:102B7000E024A2F582E4343EF58322EC25E0240033
:102B8000F582E4345DF5832224EEF582E4343EF5EB
:102B900083E4F0A3F022E52025E025E02462F5821D
:102BA000E4345DF583E02224E6F582E4343E222419
:102BB00000F582745C227C0054072431F582EC34E9
:102BC00054F583E493227E007DFF7B01020A6AE5CF
:102BD0002078A026FFE41836FE2225E025E02439DF
:102BE000F582E4343FF58322E52025E025E02463E7
:102BF000F582E4345D2225E02410908014F090806A
:102C00000622789AE64420F67EFF7FFF227F007D31
:102C1000007B01020A6AE50BAE0A78032225E02454
:102C200056F582E4343F2225E02415F582E4343E53
:102C30002225E024C2F582E4343E2290000FE0FF1A
:102C400078891209D5E8494A4B601290000CE0647B
:102C50008060047E0380027E028E1D8003751D014C
:102C60007884A61DEF120A442D42002D28032CC79C
:102C7000122CE91A2D351B2D4F1E2D0B232D1B2534
:102C80002CA5282CB62A2CD82F2D5C432D69452D38
:102C900070462D77512D7E522CFA5A2D85BB2D8AE8
:102CA000BD00002D91E51D64026003022D991220E4
:102CB000EC8F1C022D96E51D64036003022D991212
:102CC00037798F1C022D96E51D64026003022D9951
:102CD0001216758F1C022D96E51D64016003022DEE
:102CE00099125E698F1C022D96E51D640260030235
:102CF0002D991251788F1C022D96E51D64026003F8
:102D0000022D991233F68F1C022D96E51D64026088
:102D100003022D991248B28F1C807BE51D6402705E
:102D200078124B098F1C806EE51D6402706B12587F
:102D3000E08F1C8061E51D6401705E125B8F8F1C4B
:102D40008054E51D64017051124E748F1C8047E55C
:102D50001D64017044125E848F1C803AE51D64027C
:102D600070371241BE8F1C802D125EAC8F1C8026E6
:102D7000125E778F1C801F1255838F1C801812558E
:102D8000C88F1C8011751C03800C1257488F1C8043
:102D9000051226248F1CAF1C227F82228F1CE47810
:102DA000A4F6908016E020E0F9904104E020E1F9DB
:102DB000121B93900000120A13555342537B007A62
:102DC00000798512560D9000041209EEE490000C73
:102DD000F090000BF090000AF0900009F0900008CD
:102DE000F0904106740DF0E4904105F0306806C2A1
:102DF00068903E15F0D254904104E030E10A9041D1
:102E000002E030E0F27F0022C2547A0079007E00B6
:102E1000121B9BE4904104F0E51C7002FF22C28C5F
:102E2000C28DE4F58CF58AD28C903E02E0FF6024DE
:102E3000904107E030E624903E03E0FEC3EF9E9011
:102E40003E02F0541F700D903E01E06401F090903E
:102E500001F08000904107E054BFF0903E02E04452
:102E600040F0904104E020E010904102E030E003A7
:102E70007F0022308DEC7F002290000FE0701A78E6
:102E8000A4E6C39401501290000DE07883667009A7
:102E900078A406122EEB022DB0900011121BA6781A
:102EA00091121C83704290000FE0651C703A9000F4
:102EB0000DE07883667031908016F0122EEB121BB5
:102EC00093E4908014F0900016E0F50CA3E0F50D6B
:102ED00078911209C98F0B8E0A8D098C08121BB2CA
:102EE00078911209E27F01227F00227B017A00792A
:102EF0000412560D78851209E222904106E0547FB3
:102F0000FFBF211C7F437E427D537C55900000E033
:102F1000F8A3E0F9A3E0FAA3E0FBC312099260076B
:102F2000788476027F82227B017A00790412560D22
:102F300078851209E27B017A00790812560D7889AA
:102F40001209E27A0079007E00123C7F90000DE0C9
:102F50007883F690000FE0306E3F6412602A788824
:102F6000E6B4051718E6B48F1218E6B4930D18E608
:102F7000B48408903E1C7402F08006903E1C7407D6
:102F8000F0306504E4789BF6C26EE47899F678A197
:102F9000E6F5139090077401F0206C03023029A22B
:102FA00064E433FF903E18E0B4B0047E0180027EFA
:102FB00000EE5F6020A25CE433FF7883E6FEB50795
:102FC0000F7402A806088002C333D8FCF51C8037B2
:102FD000751C108032206115A262E4332401FFE4E5
:102FE00033FE7883E6FDB50711E4B5060D306305C1
:102FF000751C088012751C01800D7402A8050880DC
:1030000002C333D8FCF51C306735205832205703F3
:10301000305603305D297883E6FF7401A8070880E5
:1030200002C333D8FCF51C80167883E67008903E06
:1030300008E0F51C8009751C04789CE64404F6E55C
:103040001C7899666005AF1C124C587F02228F20B5
:103050007E027F007D00121B2E90040974F1F09017
:103060003E68121B00FF90040A1209EE90040E74D1
:1030700098F0A374E1F0A374F2F0903E6C121B0080
:10308000FF9004111209EE90041574F3F0903E7055
:10309000121B00FF9004161209EE90041A74F4F04B
:1030A000903E78121B00FF90041B1209EE90042042
:1030B00074F5F0903E7C121B00FF9004211209EE83
:1030C00090042574F6F0121AFDFF9004261209EE02
:1030D00090042A74F7F0E4A3F0A304F0789AE6547D
:1030E0001690042EF0A374F8F0A25FE433A3F0A3CB
:1030F00074F9F0900433121CD674FBF0A255E4333B
:10310000A3F0A374FC121C00A25AE43390043FF015
:10311000A260E433A3F0A25CE433A3F0903E03E0AA
:10312000900442F0A25EE433A3121BD29004807498
:10313000E1F090048504F0E478A4F679A4E7C3787C
:10314000AC96501778A4E6FF121BF4E0FCA3E0FD58
:10315000121C58ECF0A3EDF00680E0789AE690059A
:10316000FFF0E5206006121AEA125B41E4FF122725
:10317000C1EF601278891209FA00000000306C0378
:10318000121CC37F03227F8922122A4DE4F520E519
:1031900020C3789596501D12297F125DB3E5201249
:1031A0002A15A807FC7D017B017E027F00120B52CD
:1031B000052080DB122AAA12297F125DB39001FE3E
:1031C000E0B44A06A3E0644E60037F8922900000C9
:1031D000E090800AF030E00678A276408004E4783F
:1031E000A2F67898E6B4800790800AE04480F090D8
:1031F0000002E078ACF6900004E0F510A3E0F511D1
:10320000900006E078ADF6900008E0F51290000A14
:103210001229A890000C789F122A4490000EE0F525
:103220000EA3E0F50F900191E0909009F090019FBE
:10323000E0B4510AD2599080407401F08007C2591D
:10324000E4908040F0E4909002F0900192E07004ED
:10325000A3E0601D900010E05470909005F0900184
:1032600092E0FEA3E0FF1243AC9090057490F080D2
:103270000A900010E04401909005F09090027401D3
:10328000F0900194E06003122A8A900011E0FF128E
:1032900057FB9001A7E078A3F6E670027604D26DA2
:1032A00078007C317A0179007FF0122ABB903103DB
:1032B000122A4290310FE078A2F612352312C00094
:1032C0007F0322903E18E064C060037F8922205370
:1032D00006121AEA125DB37B017A04790012560DC8
:1032E000903E6C1209EE7B017A04790612560D901D
:1032F0003E781209EE7B017A04790B12560D903E4E
:103300007C1209EE7B017A04790F12560D903E7003
:103310001209EE7B017A04794012560D8F0B8E0A4A
:103320008D098C08900445E0903E0EF0900446E034
:10333000903E0FF0900444E0645170499004FEE028
:10334000644A7028A3E0644E7022FF78ACE6FEEF7A
:10335000C39E5014121C58E0FCA3E0FDEF121BF4B6
:10336000ECF0A3EDF00F80E3E4789CF6AF0BAE0A2F
:10337000AD09AC08EC4D4E4F600BAF0BAE0AAD097A
:10338000AC08121CCA903E6C121B00FFEC4D4E4F55
:103390006003D38001C39262900404E0B45103D36C
:1033A0008001C3925CA25CA062925C903E78121B8A
:1033B00000FF903E70121B882FF50BEA3EF50AE9DC
:1033C0003DF509E83CF508206009903E70121B00AD
:1033D000121B5F903E68121B00C3950BFFEE950A0F
:1033E000FEED9509FDEC9508FC121CD07899E6FFDE
:1033F000124C587F0322900011E0543FF51E751FB8
:10340000FF7520807899E6640160030234CC903E19
:103410001CE020E0030234CC125E24EF604D9002E9
:1034200002E06047A3E0900202121F8A703D900202
:1034300002E02408F51FE51EB43F08A3E024F8F5D8
:10344000208028121FE164AA6010121FE1651E602F
:103450000912206C251FF51F80E9121FE164AA6084
:103460000712206CF5208003751FFFE51FB4FF09CC
:103470007E007F80121F17804F900202E07E0024A2
:1034800000F9EE3402FA7B01C002C00112207BD0A9
:1034900001D0027F08120B52AF207E007C00740026
:1034A000251FF9EC3402FA7B01C002C00178087CC8
:1034B000007D01D001D002120B52E52024069000BD
:1034C00001F074082520F520AF2080531220DE740F
:1034D00006F0E4A3F0789AE6FB54F960047F80805C
:1034E000027F00900003EFF0A3120A130000000017
:1034F000EB7899565406600312208F2056033057FC
:103500000C7899E6B401069000037480F0306C0DDD
:103510007899E6541860069000037480F07F0812D2
:1035200052D92290800AE030E105751702803F9061
:10353000800BE030E405751720803390800BE0307D
:10354000E505751750802790800BE030E30575176F
:1035500048801B90800BE030E60575177A800F904D
:10356000800BE030E705751780800375172E7518FE
:103570000478A2E654C06003122A7D9031EEE03058
:10358000E347E47891F6A3E078B2F6E66018E478D1
:10359000A4F678B2E6FB30E007122948E02FF006E7
:1035A000122A9FB408EC9031EDE078B2F6E6605252
:1035B00078A4760878B2E6FB30E006122948EFF0EE
:1035C00006122A9FB410ED8039E478A4F6E512C300
:1035D00013FF78A4E6C39F5029AF177E00E6FBFDDA
:1035E0007C0012080EEB122970EEF0A3EFF078A425
:1035F000E6FFE5188FF0A4FEEF122970E02EF0062A
:1036000080CB903195E0703F90800BE030E30578FF
:10361000B276262290800BE030E40578B2760E2256
:1036200090800BE030E50578B2762A2290800BE09E
:1036300030E60578B276422290800BE078B230E72F
:1036400003764622761622903195E078B2F6228FE4
:1036500020903E0AE0FF7003023775D39440400487
:103660007E408002AE07E4FFEFC39E5031903E0BD8
:10367000E0FBA3E0FAA3E0F9903E09E0FD7C00E95D
:103680002DF9EC3AFAEF29F9EC3AFA1207C8FD7471
:10369000402FF582E4340EF583EDF00F80CA789860
:1036A000E6FF20E606E52064026009EF30E615E556
:1036B00020B40710900E567440F0E4A3F0900E5D15
:1036C00074408014E520B40613900E40740AF0A3F1
:1036D0007406F0900E487401F0E4A3F0E520B407FE
:1036E00006900E417407F0E52064016005E520B402
:1036F000060FE4900E42F0A37402F0900E4774405F
:10370000F0E5206401702B900E4AE0B48006A3E03F
:103710006493600AD26C900E507403F08007C26C00
:10372000E4900E50F0206D0A900E4A7434F0A374A9
:1037300012F0E52064026005E520B40708903E051C
:10374000E0900E48F0904103EEF0904102E020E15D
:10375000F9904102E054216005E054FEF0229041CE
:1037600002E020E013903E0AE0C39EF0903E09E0A4
:103770002EF0023651123CE022125D447899E66444
:10378000017027903E1CE030E020AE0C780B121F39
:1037900069121F367014121F74E50DAE0C7802C347
:1037A00033CE33CED8F9F50D8E0C12200F121F3602
:1037B00060037F8422124CC78F1EEF30E701221274
:1037C0001F2250037F8A22306C107899E6FF640133
:1037D000603DEF541860037F8722789AE6600F54AB
:1037E000066008799AE778995660037F8722903EB1
:1037F00018E064B0702EA25C12200580031220D75E
:10380000D8FBFF7899E67C00B50719ECB50615E5FD
:103810000D150DAE0C7002150C4E6005125DB380D7
:10382000EE7F0322903E02E0FF6011904107E030FE
:10383000E61112205D70051220AD8000904107E076
:1038400054BFF0903E02E04440F0125A2312C006EA
:103850008F1EE51E30E72D30E01C904102E030E085
:103860000312007E904104E020E1EF305403121F68
:103870009F751E018003751E0378891209FA0000E6
:1038800000008013121F591209E2751E89E50D45CB
:103890000C700478847601AF1E228F208513217866
:1038A00095E6F513E52030E0037F8922122A0A12FB
:1038B000C00FE4908014F0852022FE7F40FD122A84
:1038C00034120A6A908005E030E7F9E4908006F04F
:1038D000908017E522F09080167480F0908016E0BA
:1038E000540A60F8908016E030E12D90800BE030B3
:1038F000E1057520EE8007E4FF123D478F209080A0
:1039000017E0FFC3E5229FFFC3132400F582E434D0
:1039100010F583E520F080BE908016E020E0F9905D
:103920004104E020E1F990800BE0900000F09080ED
:1039300005E020E12D125DCC900001EEF0A3EFF048
:10394000908030E0900007F0908031E0900008F027
:10395000908032E0900009F0908033E090000AF00F
:1039600080189000017407F0A374FFF07E007F04BC
:10397000FD7B017A007907120A6A900003E508F0DE
:10398000A3E509F0900005E50AF0A3E50BF090002F
:103990000B74AAF0780C7C00122A327E007F401251
:1039A000297C125B418521137F0322AD07904104DE
:1039B000E020E1F9ED247FB40F004003023A70905B
:1039C00039CD75F003A4C58325F0C583730239FA98
:1039D000023A00023A08023A41023A10023A170249
:1039E0003A1E023A28023A2F023A3A023A48023A7A
:1039F00070023A53023A5D023A64121FD37F0522E5
:103A00001220967626023A6C1220967620023A6CA4
:103A100012209D763A80551220E57628804E7895C2
:103A2000760778967627804412209D7604800512CA
:103A3000209D76FF789776FF80361220967621803B
:103A40002B1220967624802412209D760478977677
:103A500001801D121FD31220E57629800F1220E568
:103A6000762980087895760378967611E47897F62B
:103A70007884E6FCB40207121FD37D078017ECB4EC
:103A80000311904101E04404F07881E64404F67D9E
:103A90000680027D04AF0522124A97903E01740110
:103AA000F0904102E030E00312007E7880E6B4013D
:103AB00018904104E030E011122EFA7880EFF6BF42
:103AC0000207122C3B7880A6077880E6FF6403602B
:103AD00004EFB4040512493280C77880E6B4050BC0
:103AE000904101E020E4047603801D7880E6FFB475
:103AF0000607904101E030E20BEFB4070B90410163
:103B0000E020E404788076047880E6FF30E707124E
:103B100039AB7880A607306F09C26F904107E04447
:103B200001F07880E66401704A904107E030E64396
:103B3000903E02E0FF603C903E03E0FEC3EF9E90AB
:103B40003E02F06015E0541F7007903E01E06401F2
:103B5000F0904107E054BFF08011305A047F01809B
:103B6000027F00903E01EFF012C01E903E01E090F7
:103B70009001F0904107E020E403023AA11249AC21
:103B8000023AA1090220000101008032090400006C
:103B90000208065000070501020002000705820224
:103BA0000002000C121E0422183A286210721C1225
:103BB000010110000000408F058093010001020008
:103BC0000104030904180341006C0063006F0072D4
:103BD0000020004D006900630072006F0028034D53
:103BE000006100730073002000530074006F0072C6
:103BF00000610067006500200044006500760069F0
:103C000000630065001003360039003900300046BB
:103C1000003000310047656E65726963205553427C
:103C200020466C617368204469736B2020372E37FF
:103C300036000000000000000000AAAAAAAAAAAA52
:103C4000AAAAEEEEEEEEEEEEEEEEFEFFFFFFFFFFB7
:103C5000FFFFFFFFFFFF7FBFDFEFF7FBFDFC7EBF36
:103C6000DFEFF7FBFD7E900E45E0900074F0900EC4
:103C700046E0900075F0900E47E0900076F02290BC
:103C800044007400F0A37400F02278407C0E7D01A3
:103C90007B017A0E79007E007F08120B5290410260
:103CA000E054FEF022F0904102E04441F022903EC8
:103CB0000B74FFF0A3743BF0A374A3F022E0FCA309
:103CC000E0FDA3E0FEA3E02285131F903105E0F59F
:103CD00013903E06E0FEA3E0FFC394FFEE9407229C
:103CE000904102E04451F0227A047900903E0B7436
:103CF00001F0A3227881E654EAF6904101E0442ADB
:103D0000F0E054EA22900E45E0900075F0900E46E7
:103D1000E0900076F022E493903E09F022A3F0E4D4
:103D2000903E09F022E4904104F0788076012290E0
:103D30004106F0E4904105F022D253900E44E02277
:103D4000903E207403F022E519601F90800BE03054
:103D5000E1037FEE22908010E0FC90800F7401F070
:103D600090800FE030E0F9AF0422E490800CF090F6
:103D7000800BE030E1037FEE22908013E075250098
:103D8000F524908010E0F523D378B39640037FEEBE
:103D900022908006E0543025E0FCE5237003023ECB
:103DA000211523908020E0FD908021E0F9ED30E79F
:103DB00036E9700A908030122ADF908030F0B90125
:103DC0000A908031122ADF908031F0B9020A908087
:103DD00032122ADF908032F0B903BF908033122A6A
:103DE000DF908033F080B3EC600EED30E606EC300F
:103DF000E60680A6EC20E5A2ED546075F008A42547
:103E000025FFE52435F0FEE97A002FFFEA3E8F8298
:103E1000F583C083C082122ADFD082D083F0023DB6
:103E20009A908010E0FF22205306121AEA125DB326
:103E3000C266C263C264C265C267C25AC25FC26060
:103E4000C25EC261C25DC258C250C270900403E03B
:103E5000B45104D264805A900404E0B45104D26690
:103E6000804F900405E0B45104D26380449004066E
:103E7000E0B45104D2658039900407E06451703198
:103E8000D267900400E0B45102D25F90040EE0B417
:103E90005102D25E90040FE0B45102D2609004133C
:103EA000E0B45104D25D8009900414E0B45102D210
:103EB0005890040BE0B45102D25A900409E0B45176
:103EC0000DE4903E02F090040AE0903E03F0305A78
:103ED000047F0180027F00909001EFF0900412E0D7
:103EE000B45106A26772639261900415E0B4510266
:103EF000D250900416E0B45102D2707F0322901089
:103F000000E064996003023FB2A3E064076003022B
:103F10003FB2901003E0FF901002E02F2432FFE444
:103F2000FEFDEDC39F501074002DF582E43410F5B2
:103F300083E02EFE0D80EB74002FF582E43410F543
:103F400083E06E706DD26B306B2390107DE0F4FFD8
:103F500090107CE0B50716E0D394FA4008903E0537
:103F600074FAF0800890107CE0903E05F090107E8E
:103F7000E0643C703DA3E064C37037901081E0645E
:103F800003702FFEFD901080E0FFEDC39F50107472
:103F9000802DF582E43410F583E02EFE0D80E6904E
:103FA0001080E02480F582E43410F583E0B5060249
:103FB000D26A2278AEE66F700302406678AEA6073A
:103FC00012C027EF4E700280FE90800AE054EEF09F
:103FD000E4909002F09090057431F090900274019A
:103FE000F09080147410F0908022F090802374057B
:103FF000F090801714F090801674C0F0908016E056
:1040000020E0F9E4908023F090800AE0FF903013E4
:10401000E05410FEEF4E90800AF078A2E654C060A3
:1040200004E04401F0E4909002F0903192E07004DA
:10403000A3E0601D90300CE05470909005F090313A
:1040400092E0FEA3E0FF1243AC9090057490F080E4
:104050000A90300CE04401909005F09090027401B9
:10406000F0E4908023F0228F20121B56121C4A503D
:1040700014851321121C51AD207C007B1212C00F3D
:104080008521138003121B28903E19E0900400F054
:10409000903E1BE0900401F0903E18E0900402F086
:1040A000903E1AE0FB900403F0A374C0F0A25BE41E
:1040B0003325E0FE789AE6FD54012E900408F09036
:1040C000047EEDF0E65406FFBF0604E04440F0E550
:1040D00020B4020A903E18E0900480F0800AE520A7
:1040E000B40305900480EBF0205F0E909000E03068
:1040F000E307E4900481F080069004817401F0905D
:10410000048274E1F0A37402F0205306121AEA123A
:104110005B417F0322122A579000027498F0A37427
:1041200001F078A7E6A3F008E6A3F008E6A3F008FC
:10413000E6A3F0A3744AF0A374E1F0A37402F09034
:10414000900AE090000BF0A26CE433A3F07898E6BC
:10415000A3F0900010744AF0A3E513F0A251E433E9
:10416000A3F0908007E0900013F090900EE0900094
:1041700014F0900020744FF09000307448F09000DC
:1041800040744EF090800BE0900100F0909013E0AE
:10419000900101F0A3E519F0908009E0900103F08F
:1041A000908011E0900104F0909012E0900105F0F1
:1041B000908040E0900106F0125B417F0322900066
:1041C00010E05402F51EE47F01FEFDFC7889121F09
:1041D0003670037F8422900011E020E107900018E0
:1041E000E030E74A125E24EF603B900200E0603569
:1041F000A3E0900200121F8A702B900201E0FF7E64
:1042000000900200E07C002400F9EC3402FA7B010B
:10421000C002C00112207BD001D002120B529002CA
:1042200001E0FF80327F30121F157F308029121F7E
:10423000139000027401F0A3F09000057414F0A331
:104240007401F0E51E25E025E0240A900001F090BD
:10425000000AE51EF07F141252D978891209FA007B
:104260000000007F03222065037F8222900013E07C
:10427000641060037F84227A047900121AF2E490B9
:104280004104F0904104E030E0F978847601789AB6
:10429000E630E0037F8722E4F51F121C68E07027F8
:1042A000051FE51FB410F3121B567B147D077C001D
:1042B00012C00F901080E0B4AA0AA3E0B455051212
:1042C0001B2880357F032290048074AAF0A37455C4
:1042D000F0900400E0F520E4F51F121C68C083C0D4
:1042E00082E0FFE51FFDE520121CB7EF6ED082D003
:1042F00083F0051FE51FB410E17F071227C1EF60AF
:1043000005C25B7F03227F8922903E057432F0E470
:10431000789AF60876FF08F6903E087480F0C2514D
:10432000C26CC26BC26AC264C267C262C255C26654
:10433000C263C265C26178B37648C25AC25FC260C6
:10434000C250C270C258C25EC25DC25C903E68126A
:104350000A1300000000903E6C120A1300000000D7
:10436000903E70120A1300000000903E74120A136F
:1043700000000000903E78120A1300000000903EFA
:104380007C120A1300000000903E037410F0E478E1
:104390009AF6903E1874C0F0903E1AF0E4903E19E0
:1043A000F0903E1BF0125284125E49228E218F2221
:1043B000E4FD79FFFCEC6402700302444C9090032E
:1043C000EDF0909004E9F090900B7401F090900B58
:1043D000E030E0F990900CE0FE90900DE0FBEEF5FF
:1043E00023EBF52490900CE0B52206E4B521027C85
:1043F00002EC1460250470BDC3E5249522E52395E5
:1044000021500DE970047C0180ABE9C313F980A54C
:10441000ED25E04401FD7C01809BD3E5249522E558
:10442000239521400FBDFF047C028089ED25E044E7
:1044300001FD80817C02E52465227004E52365216D
:1044400070030243B5EDC313FD0243B5222065039B
:104450007F8222900013E0641060037F84227A023E
:1044600079007E027F009044007402F0A37400F093
:10447000125DB378847601305B037F8722121B566E
:10448000121C4A506185131F121C517B107D077C42
:104490000012C00F851F13900200E0FFE4F51FE536
:1044A0001FFDEF121CB77400251F121CA7E06EFE43
:1044B0007400251FF582E43400F583E06E6011D2AC
:1044C0005B121CF174A5F0903E11745AF07F8722A4
:1044D000051FE51FB410C8E4903E10F0903E11F0A7
:1044E000789AE654FEF67F03227898E630E6047F59
:1044F0000080027F80904104EFF08513207895E6DC
:10450000F5137BA0122A0C12C00FE4908014F074F3
:1045100002122AB11229CD85F021F522E5188DF07D
:10452000A425182521F521908016E020E0F978983F
:10453000E630E6047F0080027F80904104EFF09037
:104540004104E030E0F9908040E054FEF0748512C0
:104550002A97E522F0E521F09080067484F090809F
:1045600005E030E0F99080007410F0122A6FE490BA
:104570008014F08520137F0322206A037F0322200A
:104580005306121AEA125DB3851320121B507B11D9
:104590007D017C0012C00F852013E4F520E5202565
:1045A000E0FFE433FE74822FF58274023EF583E06F
:1045B000FF74002520121CA7EFF00520E520B408A9
:1045C000DCE4FFF520E52054072400121CA7E0FEE0
:1045D00074002520121C6CE06E2FFF0520E520B42E
:1045E00040E3EF7021900440E0789A30E40DE64417
:1045F00010F6909016E054FDF0800BE654EFF69024
:104600009016E04402F07F03228F20E520B40209D7
:10461000903E19E0D39402500EE520B4030C903E76
:104620001BE0D3940240037F8922205306121AEA2A
:10463000125DB3851321121B50AD207C007B11123B
:10464000C00F852113124DA2E52064027024BFB073
:104650000F903E18E0B4B008903E19E004F08005D9
:10466000E4903E19F0903E18EFF0306C26121CC317
:104670008021E520B4031CBFB00F903E1AE0B4B017
:1046800008903E1BE004F08005E4903E1BF0903E55
:104690001AEFF07F0322C299ED30E61275990D30C2
:1046A00099FDC29975990A3099FDC299800875994A
:1046B000203099FDC299ED30E01BEF75F00A84249B
:1046C00030F5993099FDC299EF75F00A84E5F02430
:1046D00030F5998032EF54F0C4540FFED394094062
:1046E0000674372EFE800474302EFE8E99EF540F20
:1046F000FED39409400674372EFE800474302EFEDB
:104700003099FDC2998E993099FDC299ED30E7102C
:1047100075990D3099FDC29975990A3099FDC29924
:1047200022E4903E21F0A3F0903E21E0FCA3E0FDC6
:10473000C3EC9402505D904102E05421600BE054C0
:10474000FEF0903E207404805C904102E030E0076F
:10475000903E207402804E74002DF974043CFA7B64
:1047600001C002C00178407C0E7D01D001D0027EE4
:10477000007F40120B529041037440F0904102E0E0
:1047800020E1F9903E22E02440F0903E21E0340008
:10479000F08095123CE0E4903E20F0125ABAEF709F
:1047A00008903E2004F07F00227F0122909000E0DC
:1047B00030E2037F0022909012E030E0037F00227D
:1047C000121D05EF7002FF2212117D90900AE02069
:1047D000E707909000E030E411909016E030E00A96
:1047E000E030E20312C0247F01227F207A3F793635
:1047F000122B027F507A3E79E6122B027E007F3820
:104800007A3F798C122B4FE4F514E514122BDAE57C
:1048100014F0122ACC122B88E514122ACC122BA7E2
:10482000122B8F0514E514B408E01218B17F012291
:1048300078A1E6F527E527D378AC96503E122B2DCC
:10484000E0F525A3E0F526C394FFE525940750275E
:10485000E526AE257803CEC313CE13D8F9122BAFBD
:104860003EF583C083C082E0FFE526122BB6F4FE3E
:10487000EF5ED082D083F0052780BA78A1E6F527D5
:1048800078ACE6FFE527D39F5027E527B5070E1242
:10489000532E78ACE6122B2FEEF0A3EFF0122B2D57
:1048A000E0FCA3E0FDE527122BD112522D05278055
:1048B000CF22124CC78F1EEF20E7747899E6B41010
:1048C00014306208121F3D1220828004121F4BFF19
:1048D000788D1209E2121F139000037410F09000FB
:1048E000087402F090000AF0900012F07899E664E3
:1048F000017021305E1E903E1CE030E017900003F6
:104900007408F090000AF01220C49000041209EE1E
:104910007F0C8018788D1209C99000041209EE7876
:104920008D1209C990000C1209EE7F140252D9AF02
:104930001E22908016E020E0F9904104E020E1F989
:104940007A0079007E007F00123C7F900000120AFE
:1049500013555342537B007A00798512560D90000F
:10496000041209EE7B007A00798912560D90000836
:104970001209EE7880E6B403047F0080027F019084
:10498000000CEFF0740D123D2F306806C268903EA7
:1049900015F0904104E030E10C904102E030E0F28B
:1049A00012007E80ED123C7F123D25229090017412
:1049B00001F090801CE0540FFFBF0FF6909016E0BE
:1049C00030E00312C01EE4908007F090901C7480C9
:1049D000F0E4F0904107E04420F000000000000007
:1049E00000909016E030E00312C01E904107E054A2
:1049F000DFF0904200E0540360F8904200E030E0C5
:104A0000117898E6B48005E4904100F078987640FB
:104A1000800478987680E4909001F090800774404C
:104A2000F022A90790801AE0F523E4F0908005E0D9
:104A300030E7F9122A3B908005E030E7F9908000DA
:104A40007490F0908001EDF0E4FD000DBD05FBE4F5
:104A5000FD9080047401F0908002E0FCE9FEED7AA4
:104A6000002400FFEA3E8F82F583ECF090800AE09C
:104A700030E019908003E0FCE9FEED2400FFEA3EFF
:104A8000FE74082FF582E43EF583ECF00DBD06C1FF
:104A900090801AE523F022E4904104F0904200E077
:104AA0005403700C904107E030E4F11249AC80EC03
:104AB000904200E0789830E004764080097680905B
:104AC000800AE04480F0E47881F6903E04F0909013
:104AD0000AE020E72F909000E020E428904104E0D5
:104AE000FF904102E04F20E00C904107E030E4EC01
:104AF0001249AC80E7125D98E4909010F090901607
:104B0000E04401F07880760122124CC78F1EEF201E
:104B1000E7657899E664017030903E1CE0FF54052B
:104B2000FEBE010CEF4404F0903E1DE0700204F064
:104B3000305E16903E1CE030E00F1220C4121FB908
:104B4000120A130000080080297899E6B410143086
:104B50006208121F3D1220828004121F4BFF788DC5
:104B60001209E2788D1209C9121FB9120A13000046
:104B700002007F080252D9AF1E228513207895E6E5
:104B8000F513122A0A12C00FE4908014F0908005E9
:104B9000E030E7F9E49080061229CD85F021F52276
:104BA000E5188DF0A425182521F521908005E03029
:104BB000E0F9125B41125B41908040E054FEF074DA
:104BC00005122A97E522F0E521F090800074E0F0CC
:104BD0009080067404F0908005E030E0F9122A6FAE
:104BE000125B418520137F0322125D44121B73FB6D
:104BF000C312099250037F8A22903E7C121B00123E
:104C00001C74400A903E1AE0B4B0037F8922121A45
:104C1000FD121C933508FC903E70121B88121C3A42
:104C2000206009903E70121B00121B5F12C006AB81
:104C300007EB30E71378891209FA00000000EB3027
:104C4000E0037F01227F0322121B0BE50D450C7050
:104C500004788476017F89227899A607EF1460464C
:104C600014601524FE601E24FC604424F860402477
:104C7000907053903E688031306205903E6C8003A6
:104C8000903E748024903E6CE0F8A3E0F9A3E0FA33
:104C9000A3E0FB903E74123CBDC39BFFEE9AFEED79
:104CA00099FDEC98801A903E70123CBDFF801290E6
:104CB0003E70123CBDFF2FFFEE33FEED33FDEC33B3
:104CC000FC788D1209E222307021903E18E0B4B0D9
:104CD0001A12200280031220D7D8FBFF7899E67CB5
:104CE00000B50707ECB506037F85227899E6FF78C3
:104CF0009BE6FE5F6005EFF45E8033799CE7789970
:104D00005660037F8522205F29909000E030E310F9
:104D1000789AE620E71C4480F6789BE644F6800EFD
:104D2000789AE630E70C547FF6789BE644F6F67FF7
:104D300086227F0022900010E0F51FA3E0FF1313EE
:104D4000543FF520E05403F508A3E0F509A3E0F58E
:104D50000BA3E0F50AE51F6409702BE50B6407451A
:104D60000A6039121B56121C4A5014851320121C5B
:104D7000517B10AD0BAC0A12C00F852013801D7D36
:104D8000FF121BC5801685131F8520137B10AD0BEA
:104D9000AC0AAF09AE0812C00F851F13125B417F2A
:104DA0000322900280E0B4FF08A3E0B4FF037FC0B9
:104DB00022900480E0F9A3E0FF900280E0FEA3E0EF
:104DC000FDEF6D7040FDEDC39F503D74822DF58267
:104DD000E43404F583E0FC74822DF582E43402F5BA
:104DE00083E0FB121CE78002C333D8FC5962041233
:104DF0001CE78002C333D8FC5E6203EC6B60037F68
:104E0000B0220D80C17FB0227FA022AD07125ABA16
:104E1000EF7006903E20048051904102E030E5069C
:104E2000E054FEF080E7904103E0540FFFBF080715
:104E3000904102E020E711123C9D904101E04401C5
:104E4000F0903E2074028022900E03E0B40316908E
:104E50000E02E0B5050F900E01E0B40608900E00BA
:104E6000E064806009903E207402F07F0022123CD2
:104E70008A7F0122124CC7EF70607899E664017056
:104E800056903E1CE0FE54036401704BEE30E2236A
:104E9000903E1DE0FEB401067402F07F8522EE64B0
:104EA000027034903E1D7403F0903E1CE04402F00A
:104EB0007F862230600A903E1CE04402F07F03228D
:104EC000903E1DE004F0E0D39406400BE4F0789BA4
:104ED000E64401F67F85227F0322228F1AEF75F0C8
:104EE00004A42436F9743F35F0FA7B01C002C001F6
:104EF00078E27C3E7D01D001D0027E007F04120B5F
:104F000052851A1BE51B602B75F004A4FFAEF0243C
:104F100032F9743F3EFA7B01C00174362FF9743FB9
:104F20003EA801FC7D01D0017E007F04120B5215CA
:104F30001B80D178367C3F7A3E79E27F04122B5673
:104F4000228D1FE4FEF520908014E0F521E4F52287
:104F5000EF30E003432210EF5401FDC3EF9DFF90BB
:104F60008005E030E7F9AB07EBC3951F502CEB123F
:104F70002BF6E522F0908005E030E0F990800BE020
:104F80005403600FE4FF123D47AE07EED395204077
:104F9000028E20E4F5220B0B80CE908014E521F0E8
:104FA000AF2022125D44121B73FBC31209925003FF
:104FB0007F8A22903E7C121B00121C74400A903E95
:104FC0001AE0B4B0037F8922121AFD121C93903E9E
:104FD00070121B85121C3A206009903E70121B0053
:104FE000121B5F12C003AB07EB30E713788912097D
:104FF000FA00000000EB30E0037F01227F03221261
:105000001B0B7F89227F207A3F7936121C2A7F5022
:105010007A3E79E6121C2A7E007F387DFF7B017A7A
:105020003F798C120A6AE4F514121C1AE514F01286
:105030001C1CE075F00AA424EEF582E4343EF583EE
:10504000E4F0A3F0121C1AE075F00AA424E6F5823D
:10505000E4343EF583E4F0A3F00514E514B408C984
:105060000218B1908007E0F52090800AE0F5211247
:105070005AE9122A5790800A7401F0E4F522E522D9
:10508000122A667895E6FD7F2E124A22E52275F0F7
:1050900010A42400F9740035F0A801FC7A2E7900E0
:1050A0007F101229B30522E522C3940840D09080D6
:1050B00007E520F090800AE521F0125B417F032292
:1050C0007895E6F51312C01578107C5D7A3E79E686
:1050D0007F701229B378807C5D7A3F798C7F38129B
:1050E0002ABBE47895F67895E6FFC39407502BEF3A
:1050F0007F0025E0FEEF2400F974503EFA7B01C0EA
:1051000002C00178007C007D01D001D0027E021235
:10511000297C125B4178950680CC7F03227895E646
:10512000FEC378AC9640037F0322903E02E0FF600E
:1051300024904107E030E624903E03E0FDC3EF9D5C
:10514000903E02F0541F700D903E01E06401F0901B
:105150009001F08000904107E054BFF0903E02E0E3
:105160004440F08513208E1312C00C852013BF819C
:10517000047F0180027F03227899E6FEB4010A9041
:105180003E1CE030E0037F83229000007403F0E4D3
:10519000A3F0789AE6FF54F960047D8080027D00D8
:1051A000900002EDF0E4A3F0EF5E540660031220DD
:1051B0008F2056033057097899E6B4010312208FE7
:1051C000306C0A7899E65418600312208F7F04121D
:1051D00052D9228F1EE4F51FE51E30E71E122992D8
:1051E000125EA57403122994125EA5740312299FFE
:1051F000125EA590901D7402F08018E4122994129A
:105200005EA512299D125EA512299D125EA5E4904D
:10521000901DF07895E6FF125EA5E51E25E0F51ECF
:10522000051FE51FC3940840AF125984228C288DB6
:105230002974002FF58274503EF583E529F0EF3094
:10524000E010E528540FC454F0122B1B540F4DF0FE
:10525000800BE528540F122B1B54F04DF0E529AEBE
:10526000287803CEC313CE13D8F9122BAF3EF583A3
:10527000C083C082E0FFE529122BB6FEEF4ED0823C
:10528000D083F022E490800AF07C02125E54908079
:1052900005E030E7F990800074FFF0908005E03081
:1052A000E7F99080007490F0E4A3F0FE908004741D
:1052B00001F0908002E0900000F0E0B4FF1A0EBE12
:1052C00006EAEC5407FEC454F04E90900EF00CEC3D
:1052D000C3940940B67411F0228F21E47F01FEFDD2
:1052E000FC7889121F3670037F8422AF21E4FCFD15
:1052F000FE1220CE4025904106E5211220A4305612
:105300000280211209C9C007AF21AB07D007C3EF44
:105310009BFFEE94001220407F8122788CE6904122
:10532000061220A41209FA000000007F0322E4F90B
:10533000905DFDE0FC905DFEE0FDAF0474002CF597
:1053400082E4345CF583E0F528F46028EDC394082A
:105350005022ED9054319355287016ED04905DFE67
:10536000F0905DFDECF075F008A4FFAEF0EF4DFF9E
:10537000220D80D8E4FD0CEC70C009B902BC122CDF
:105380000222E4903E00F0903E04F07895F608F694
:1053900008F6D26EC26FC254C253C252903E20F081
:1053A000A3F0A3F0C256C257903E10E0B4A50FA3DD
:1053B000E0B45A0A789AE64401F6D25B8002C25BF6
:1053C000E4903E02F0903E1CF0A3F078807601223B
:1053D000EF0475F004A4142436F582F58475833F38
:1053E00075853FE0F5F01582E0FC1582E0FD158241
:1053F000E0FF1582E00586F0158615821584E582AA
:10540000B436F1E00586F01584E5F0F01584ECF093
:105410001584EDF01584EFF0158622E4FF220002DA
:10542000040610121416181A1C1E3050525434362A
:105430003801020408102040804080102004080138
:1054400002003FC0FF007FBFC000403F2F0000FFB1
:10545000FFC00080807F7F7FFF00010204060810EC
:1054600000800600FFAABBCCEE8F20E52030E003D1
:105470007F89228513217895E6F5137898E630E642
:10548000047F0080027F80904104EFF07BA0122A0D
:105490000C12C00FE4908014F0E520122AB1F090B5
:1054A0008016E020E0F99080007410F08521137FD1
:1054B00003228F1EE51E600678A476038004E4783C
:1054C000A4F6E4F51F78A4E6FF90901DF0E51E60B9
:1054D00006EFC313F68011AF1F7401A807088002FE
:1054E000C333D8FC78A446F67895E6FF125EA5058E
:1054F0001FE51FC3940340CD22EF75F00C84FEEF2F
:1055000075F00C84AFF0EE90545993F509EEC39406
:1055100007500FEF90544193F50BEF90544D93F5D6
:105520000A22EF5401FEF404F50BEFC313FD7404DB
:10553000A805088002C333D8FCC39EF50A22125D79
:1055400044900015E0FF124C58121BB2121C8150FF
:10555000037F8A22125A2312C006AB07EB30E713EF
:1055600078891209FA00000000EB30E0037F012285
:105570007F0322121B0BE50D450C70047884760125
:105580007F8922125E24EF6032900300E0602CA33A
:10559000E090030012204E121F98701F900301E04C
:1055A000900300122021C002C00112207BD001D044
:1055B00002120B52900301E0FF80097E007F22124D
:1055C0001F177F221252D922125E24EF60329003FD
:1055D00002E0602CA3E090030212204E121F98708C
:1055E0001F900303E0900302122021C002C00112A9
:1055F000207BD001D002120B52900303E0FF800900
:105600007E007F24121F177F241252D922EB700CC8
:10561000E7FF09E7FE09E7FD09E7FC22147010899E
:10562000828A83E0FFA3E0FEA3E0FDA3E0FC22BBAF
:10563000FE0CE3FF09E3FE09E3FD09E3FC22898296
:105640008A83E493FF740193FE740293FD740393C1
:10565000FC22EF122B5F74FFF0A3F0EF122B0D74FE
:10566000FFF0122ACB122BA7F583E4122AC824E8F4
:10567000F582E4343E122AC424EAF582E4343E1270
:105680002AC424ECF582E4343E122AC4122B882268
:10569000900075E06003D38001C3926C900076E0C7
:1056A000903E08F0E0B420037402F0903E08E0B4AD
:1056B00040037404F0205313A26CE433900000F014
:1056C000903E08E0900001F0125B417F03228F20A2
:1056D000E520B40205121CE0600CE520B4030A903A
:1056E0003E1AE0B4B0037F8922121CAFE520F0120D
:1056F0005B68BF0315E520B40205903E188008E5FD
:1057000020B40306903E1A74A0F0228F20E520B446
:105710000205121CE0600CE520B4030A903E1AE07A
:10572000B4B0037F8922121CAFE520F01259EEBFFE
:105730000315E520B40205903E188008E520B40367
:1057400006903E1A74C0F0227E027F00121F17E4FA
:10575000FF7E02FDFC1220CE401578891209C9C3D4
:10576000EF9400FFEE9402122040125B4180E0783B
:105770008CE6904106F018E61220A61209FA000005
:1057800000007F0322900074E0B45106A3E0F520EE
:105790008003752001121B56121C4A5014851321D8
:1057A000121C51AD207C007B1212C00F852113808A
:1057B00003121B28205306121AEA125B417F0322B0
:1057C000125D44900015E0FF124C58121BB2121CDF
:1057D0008150037F8A22125A2312C003AB07EB3099
:1057E000E71378891209FA00000000EB30E0037F2C
:1057F00001227F0322121B0B7F8922EF30E10790E9
:10580000800B7408F022EF30E006E490800BF02269
:10581000EF30E20790800B7420F022EF30E3079026
:10582000800B7440F022EF90800B30E4047480F021
:10583000227410F022122A4DE4F520E520C3789559
:10584000965026E520122A15FAA9077B01C002C04E
:105850000178007C007D01D001D0027E027F001221
:10586000297C125B41052080D2122AAA7F03229054
:105870000011E0601590800AE020E02BE04401F088
:1058800078A2E64440F6122A7D2290800AE030E0B9
:1058900016E054FEF078A2E654BFF6E51725E0F5D1
:1058A00017E51825E0F518227D08E4FC122B7BE0B3
:1058B000FAA3E06F7002EA6E6025122B7BE0FAA378
:1058C000E0FBBAFF08BBFF05BD0802AD040CBC0835
:1058D000DBBD08027D07ED122B7CEEF0A3EFF0227A
:1058E0007E007F12121F1790000074F0F07895E68A
:1058F000540F900002F0900007740AF07896E6903A
:10590000000CF07897E6A3F0E47895F67896F678B0
:1059100097F67F121252D922205306121AEA125D0C
:10592000B3789AE654F9F6900401E030E604E644D0
:1059300006F6900401E030E106789AE64402F6901B
:105940000401E030E206789AE64404F67F0322E49C
:10595000FF74002FF582E4345CF583E0F9F4601CF9
:10596000E4FDED9054319359700EEF75F008A47C6E
:10597000002DFFEC35F0FE220DBD08E60FEF70D1D3
:10598000122C0222122992125EA51259AB1259ABA7
:1059900090901DE0F5207402F07895E6FF125EA568
:1059A000E52030E4037F01227F002290901D7403E4
:1059B000F07895E6FF125EA522125D44121AFD12E0
:1059C0001B5F12C006AB07EB30E71378891209FAA8
:1059D00000000000EB30E0037F01227F0322121B56
:1059E0000BE50D450C7004788476017F89229000C8
:1059F00074E0B45106A3E0F5218003752101121B68
:105A00002820530A121AEA125B4178847601E521B4
:105A100070037521FFAF211227C1EF60037F0322BE
:105A20007F89227899E6FF6402602AEF648060250E
:105A3000EFB40405903E6C8016121F4B121FEE78D7
:105A400099E6B40110903E1CE020E009903E7012EF
:105A50001F4E121FEE22AD07AC06ED30E00BECC37B
:105A600013FEED122B21C48008ECC313FEED122BA4
:105A700021540FFE74002DF58274503CF583E07CB8
:105A8000002400FFEC3EFE228F1C7F011254B27FE7
:105A9000581251D3AF1C1251D37895E6FF125EA570
:105AA0007F011254B27F591251D3125C458F1D12DF
:105AB0005D7DE4FF1254B2AF1D227898E630E60413
:105AC0007E0580027E0A9041078012904102E0200C
:105AD000E014904107E030E7F21EEE6006E0547FEC
