:020000020000FC
:1000000002627F020BF2020C0B020C38020C4A0255
:100010000C9F020D2A020DBC020DCD020DE0020D57
:10002000F3020DFF020E0C020E18020E24020E3D0A
:10003000020E6E020E94020F7C020000020000020B
:100040005DE6025AE9025640025EB802432A0256B1
:10005000EC020000024D54025A25022EFF025D3FC1
:1000600002539B025FEC0257E50260DD0261C502AC
:1000700061DC0260110254670249E40243F69041D8
:1000800002E030E505E054FEF022904103E0540F19
:10009000FFBF0807904102E020E706123FFE02077B
:1000A000F1123FEB900E41E02402605214603114D3
:1000B000B40B0040030207F19000BFF82828730238
:1000C00001270201AA0207F102022F0207F102032F
:1000D000350203550207F102079302079D0207DC70
:1000E000900E40E064217013900E44E0700D1240B9
:1000F00055124006123FE0124086220207F1900E90
:1001000040E064A1701E306104F00207EAA263E4DB
:1001100033FFA262E4332FFFA267E4332F900E4037
:10012000F00207EA0207F1900E40E0247F6010140D
:10013000601E2402706A903E00E0900E408058904D
:100140000E44E07008900E40F0A3F080560207F1D4
:10015000900E44E014601E2481600824FE60282470
:1001600082703A7881E630E0047F0180027F00905F
:100170000E40EF80227881E630E2047F0180027F2A
:1001800000900E40EF80107881E630E4047F01801B
:10019000027F00900E40EFF0E4A3F080060207F12A
:1001A0000207F19041037402F022900E40E07019B2
:1001B000900E42E0B4010F903E00E054FDF09041FB
:1001C00007E054FBF0220207F1900E40E064027059
:1001D0005B900E42E07052900E44E0146020248147
:1001E000600824FE602C2482703C7881E654FEF680
:1001F000904101E04402F0E054FEF00203317881C6
:10020000E654FBF6904101E04408F0E054FBF002B4
:1002100003317881E654EFF6904101E04420F0E0AC
:1002200054EFF00203310207F10207F10207F190E7
:100230000E40E060030202E1900E42E064026003BF
:100240000202DE900E44E060030202DEA3E07003CF
:100250000202DEE0C3940540030202DB903FF0742B
:10026000F3F0900E45E0B4040312C01E903FF0740A
:10027000FF124006904102E0544170F8900E45E0B4
:1002800024FE601214601714601C2403704B90420B
:10029000017483F080439042017485F0803B90426A
:1002A000017407F0803378007C007D017BFF7A3F8A
:1002B00079927E007F35120F7C903FF074F2F0123D
:1002C000C01E904104E020E1F9123FE07435124075
:1002D000909042017409F080E980FE0207F1020764
:1002E000F1900E40E064027045900E42E0703C9048
:1002F0000E44E01460142481600824FE601B2482F4
:1003000070267881E64401F680277881E64404F679
:10031000904101E04404F080187881E64410F690A2
:100320004101E04410F080090207F10207F10207E1
:10033000F112400722124007904102E0544170F848
:10034000900E42E0904100F0904107E054FDF0E44F
:10035000903E04F022306D449090107401F0909023
:1003600016E030E31678A1E6F51312587E7F0212EC
:1003700022A1909016E054F7F0801C78A1E625E0C9
:1003800024A2F582E4343EF583E0FEA3E0FFBEFF45
:1003900006BFFF03124B14E4909010F0900E43E060
:1003A00024FE606314607824FD600A1460592406FA
:1003B0006003020763306B15124029500B7B10124B
:1003C00007F97006C26B8002C26B852013306B1177
:1003D0007A00790012404D123FE3903E0974048088
:1003E0000B12400F903F04E493903E09F0903E0AB8
:1003F0007412F0900E43E064066003020766903EBC
:100400000A740AF0020766903E0B74FFF0A3743E74
:10041000F074E412407E903E0A7420F002076630C9
:100420006B15124029500B7B121207F97006C26B34
:100430008002C26B852013306B0C1240497404F0AB
:10044000A37400F0800312400F900E42E0120E6E73
:10045000046F00047D0104960204B30304E2040562
:10046000108005628205EF83074D86000007601249
:10047000400F903F06124077903F07805C306B0B37
:10048000903E097416F0900402803D903F0812409F
:1004900077903F098043306B0F900402E024169060
:1004A0003E09F09004038020903F0A124077903F6D
:1004B0000B8026306A1A7A04798012404D7404F059
:1004C000748012407E900480E0903E0AF00207663D
:1004D000903F0C124077903F0DE493903E0AF0025B
:1004E00007669004007404F0A314F0903E0FE090AF
:1004F0000402F0903E0EE0900403F01240497404B0
:10050000F0A3740012407F903E0A7404F002076664
:1005100012409A248E601424FD601724DB601A2494
:10052000187020123FC7125C1C80117F02126139C3
:10053000800A7F021245658003121F0C903E20EF57
:10054000F08009124DDFC2531240A122C253903EE7
:1005500020E0B40303024DDF124DDF903E2074050E
:10056000F02212409A248D605024F0604324ED6004
:100570005E24FB604C24A3606724FE605A24D06094
:1005800003020722900E47E030E1127E027F007DD9
:10059000007B017A047900120E9402069F900E45AA
:1005A000E0903E24F0900E46E0903E23F00206F3E9
:1005B000123FC7125E5002071B7F02125BA20207A6
:1005C0001B900E45E0900401F0125DAF02071BE4A2
:1005D000FF1232EF02071B124066125B2702071B55
:1005E0009000747451F012406612605902071B1299
:1005F0004041E4903E21F0A3F0C3903E21E09402FC
:1006000050447F841252CBEF603C900E45E0FF9047
:100610003E21E0FCA3E0FD2400F58274043CF58358
:10062000EFF0900E44E0FF74012DF58274043CF568
:1006300083EFF0126157903E22E02402F0903E21B9
:10064000E03400F080B3C3903E21E09402500302F6
:1006500007F87F851252CBEF70030207F8124DDFC7
:10066000EF70030207F87F811252CBEF700302078D
:10067000F812409A248F700302070024FD700302D1
:10068000070724F3607224E8700302070E24FC704D
:100690000302071824A8607B24CB60030207229082
:1006A0000E45E05407F508A3E0F509903E24E0F577
:1006B0000A903E23E0F50BE4F50C900E45E054F073
:1006C000F50DE030E319903E6C12401E250BF50B42
:1006D000EE350AF50AED3509F509EC3508F508E5BA
:1006E0000D7003750D01903E207480F012C006EF6E
:1006F00030E7341240A1802F123FC7125FC5801B24
:100700007F02125B6580147F02124CC7800D123489
:100710002A80081241818003124C37903E20EFF06E
:1007200080051240A18012903E20E0B403047F00B7
:1007300080027F05903E20EFF0C253124041125ECE
:10074000EAEF60030207F8903E2004F022903E207A
:10075000E0900E40F0E4903E20F090410304F0223F
:100760000207F10207F1900E47E07015900E46E087
:10077000FF903E0AE0D39F4008900E46E0903E0A6C
:10078000F0903E0AE0700412404122900E43E0FFD8
:100790000237BA903E04E0900E40F0804D12405572
:1007A000F0900E42E0B4011A903E047401F09041C2
:1007B00007E04402124006E4909001F09090070494
:1007C000F022900E42E07012903E04F0904107E05B
:1007D00054FD12400690900180138015900E44E065
:1007E0007006900E40F0800280079041037401F083
:1007F00022904101E04401F0227D017C0012C00FF3
:10080000EF4E22E4F520900011E0600A900010E025
:1008100020E0037F8322900010E05401900401F057
:10082000900011E0900400F0909016E05418FFBF83
:100830001010306D0DE4FFFE122D9D909016E054C7
:10084000EFF02056432057407888E6600A7987E722
:100850007886461846601E7F457E407D357C7478DC
:1008600085121AE6600F7F427E497D4F7C53788562
:10087000121AE67002D2567885E6600C7988E7781D
:10088000874618467002D25730674220583F20579B
:1008900003305639205D36206115A262E43324010D
:1008A000FFE433FE7883E6FDB5070AE4B506067873
:1008B0009976018011ED14FF7402A807088002C325
:1008C00033D8FC7899F67899E6FF1250AB306B1864
:1008D00085131F121C157B107D017C0012C00FEFC9
:1008E0004E7002C26B851F137899E6FFB401271280
:1008F0001CAD7461F0A37475F0206B030209949031
:100900000120E064AA60030209947B017A01792244
:10091000903E0B048059306B61900002E07C002413
:1009200016F9EC3400FAA3E029F9EC3AFA903E0B00
:100930007401F0A3EAF0A3E9F0EF5414601B9001F6
:1009400040E0B4AA147A017942903E0B7401F0A3FE
:100950007401F0A37442F0803B7899E6B4083590B6
:100960000120E0B4AA2E7A017922903E0B7401F0A6
:10097000A37401F0A37422F0801A903F0EE49390C8
:100980003E09F07E002404F9EE343FFA121CADEA71
:10099000F0A3E9F0E4900000F07899E66401703784
:1009A0002060237888E66405701C18E6B48F171859
:1009B000E6B4931218E6B4840DE4F0A3F0903E1C64
:1009C000E054FEF080119000007405F0A37480F0F4
:1009D000903E1CE04401F0306D117412121C5F74E3
:1009E000E1F012C01E121CF2600122900401E070BE
:1009F00003020B40900400E0900001F0900400E03E
:100A00002480602224FD7003020ACB248360030249
:100A10000B3DE4900002121B557480F0A37483F028
:100A2000752007020BECE4900002F0306A227B0193
:100A30007A007980903E0B04F0A37400F0A37480D8
:100A4000F0E4903E09F0900080E0903E0AF0801CB7
:100A5000121CAD743FF0A37404F0903F0CE493902B
:100A60003E09F0903F0DE493903E0AF0903E0AE07C
:100A7000900003F0E4FF903E0AE0FEEFC39E502991
:100A8000121CB5903E09E0FD7C00E92DF9EC3AFA24
:100A9000EF29F9EC3AFA120BF2FD74032FF582E418
:100AA0003400F583EDF00F80CD900003E030E010CE
:100AB000E004F074032EF582E43400F5837420F032
:100AC000900003E02404F520020BECE4900002F017
:100AD000A37432F074F2121B58F0A37405F0A374DF
:100AE00030F0A37435F0A37438F0A37446F0A37407
:100AF00020F0A374F2F07401121C0E740D121B9CF2
:100B00007420F0A3F0A3121B9C74F1F07402121C69
:100B10000E7408121CF9121B58121CC1E4A3F0A396
:100B200074F1121B557408F0A37420F0E4A3121C96
:100B3000F9A3F0A3121CC1752036020BEC7F8322AF
:100B40009000017480F0A37404F0A37402F0A37405
:100B50001FF0E4A3F0A3F0A3F0F51F121CB5851F4E
:100B600082758300120C0BFF7408251FF582E43494
:100B700000F583EFF0051FE51FB420DF306B6A300E
:100B80005503205603306605E4900001F0751F01FF
:100B90007899E6FFB401089000237430F080383073
:100BA00066089000237435F0802D3065089000238E
:100BB0007436F080223064089000237437F0801778
:100BC000306311EF900023B408057439F080087485
:100BD00038F08003E4F51FE51F600E9000207438A4
:100BE000F0A3742EF0A37430F0752024AF201251BE
:100BF000F522BB010689828A83E0225002E722BBEC
:100C0000FE02E32289828A83E49322BB010CE582FF
:100C100029F582E5833AF583E0225006E92582F83A
:100C2000E622BBFE06E92582F8E222E58229F5826A
:100C3000E5833AF583E49322EF8DF0A4A8F0CF8CFE
:100C4000F0A428CE8DF0A42EFE22BC000BBE0029FD
:100C5000EF8DF084FFADF022E4CCF875F008EF2FB3
:100C6000FFEE33FEEC33FCEE9DEC984005FCEE9D70
:100C7000FE0FD5F0E9E4CEFD22EDF8F5F0EE84208C
:100C8000D21CFEADF075F008EF2FFFED33FD4007ED
:100C9000985006D5F0F222C398FD0FD5F0EA22E86D
:100CA0008FF0A4CC8BF0A42CFCE98EF0A42CFC8A51
:100CB000F0EDA42CFCEA8EF0A4CDA8F08BF0A42DCE
:100CC000CC3825F0FDE98FF0A42CCD35F0FCEB8E6F
:100CD000F0A4FEA9F0EB8FF0A4CFC5F02ECD39FE25
:100CE000E43CFCEAA42DCE35F0FDE43CFC2275F09A
:100CF00008758200EF2FFFEE33FECD33CDCC33CC21
:100D0000C58233C5829BED9AEC99E58298400CF53B
:100D100082EE9BFEED9AFDEC99FC0FD5F0D6E4CE69
:100D2000FBE4CDFAE4CCF9A88222B800C1B900599D
:100D3000BA002DEC8BF084CFCECDFCE5F0CBF9786A
:100D400018EF2FFFEE33FEED33FDEC33FCEB33FBFE
:100D500010D703994004EB99FB0FD8E5E4F9FA2288
:100D60007818EF2FFFEE33FEED33FDEC33FCC93383
:100D7000C910D7059BE99A4007EC9BFCE99AF90F4B
:100D8000D8E0E4C9FAE4CCFB2275F010EF2FFFEEB7
:100D900033FEED33FDCC33CCC833C810D7079BEC02
:100DA0009AE899400AED9BFDEC9AFCE899F80FD57A
:100DB000F0DAE4CDFBE4CCFAE4C8F922EB9FF5F0DD
:100DC000EA9E42F0E99D42F0E89C45F022E8600F7F
:100DD000ECC313FCED13FDEE13FEEF13FFD8F1226D
:100DE000E8600FEFC333FFEE33FEED33FDEC33FC71
:100DF000D8F122E6FC08E6FD08E6FE08E6FF22E65A
:100E0000FB08E6F908E6FA08E6CBF822ECF608ED6E
:100E1000F608EEF608EFF622ECF0A3EDF0A3EEF004
:100E2000A3EFF022D083D082E493F608740193F606
:100E300008740293F608740393F6740473A8828509
:100E400083F0D083D082120E54120E54120E54121C
:100E50000E54E473E493A3C583C5F0C583C8C5826B
:100E6000C8F0A3C583C5F0C583C8C582C822D08396
:100E7000D082F8E4937012740193700DA3A393F8D9
:100E8000740193F5828883E4737402936860EFA31E
:100E9000A3A380DFEF4E6012EF60010EEDBB010BEC
:100EA00089828A83F0A3DFFCDEFA2289F05007F7FB
:100EB00009DFFCA9F022BBFEFCF309DFFCA9F0224C
:100EC000E709F608DFFA8046E709F208DFFA803E14
:100ED00088828C83E709F0A3DFFA8032E309F60801
:100EE000DFFA806EE309F208DFFA806688828C837D
:100EF000E309F0A3DFFA805A89828A83E0A3F60827
:100F0000DFFA804E89828A83E0A3F208DFFA80420A
:100F100080D280FA80C680D4805580F280298010EB
:100F200080A680EA809A80A880DA80E280CA802940
:100F300088848C8589828A83E493A30586F0A3053F
:100F400086DFF5DEF3800B89828A83E493A3F608BB
:100F5000DFF9ECFAA9F0EDFB2288848C8589828A7E
:100F600083E0A30586F0A30586DFF6DEF480E3893F
:100F7000828A83E493A3F208DFF980D688F0EF60D9
:100F8000010E4E60CD88F0ED2402B4040050C3F58C
:100F900082EB2402B4040050B92323458223900F2E
:100FA0001073E4909001F0E07003021222E490903C
:100FB0000FF078B3764890900704F0909001E02409
:100FC000FE700302105D24F770030210C524022492
:100FD000FC400302108070030210BD147003021164
:100FE00050147003021143240E60030212071260B2
:100FF000FC904102E030E7F9904102E030E0F9E492
:10100000F512E51290587693FF74002512F582E4EC
:10101000340EF583E06F60030212090512E512B485
:1010200008E0900E407411F0A37422F0A37433F022
:10103000A37444F0A37455F0A37466F0A37477F01E
:10104000A37488F0E4904102F0A37408F090410288
:10105000E020E1F99090017401F00212071260FCA7
:10106000904107E030E4F990801CE0540FFFBF0F7F
:10107000F6E4908007F0904107E04420F002120768
:10108000AF0BAE0AAD09AC08C006C007AE0CAF0D81
:10109000AB07AA06E4F9F8D007D006120D2A8F0B89
:1010A0008E0A8D098C08AF0BAE0AAD09AC08780A20
:1010B000120DCD8F0B8E0A8D098C0880FE90800B4F
:1010C0007408F08005E490800BF090800A7410F0B2
:1010D000126114E4F5141260BDE4F519F513E490FF
:1010E0008006F0908005E030E0F990800BE054033A
:1010F0006005E4FF12432A0513E513C3940240DEA2
:1011000090800A7411F090800774FFF07514021239
:10111000621E7512021260351260BD90800774C0A5
:10112000F0E4908006F0908005E030E0F990800BCC
:10113000E0540360047F0080027F01909001EFF093
:1011400002120790801AE04401F090800A7411F0B6
:10115000E4909002F09090057430F0909002740149
:10116000F000000000909001E0B40E05E490800AC9
:10117000F012611490800B7404F0908005E030E769
:10118000F990800074FFF0908005E030E7F9E4907A
:101190008000F0A3F0F0F0F0909001E0B40F05E4CF
:1011A000908001F09080007430F0908005E030E78E
:1011B000F99080147410F0E4908006F0908005E0BF
:1011C00030E0F9E4908006F0908005E030E0F9909E
:1011D00080157455F074AAF09080147410F0E490A7
:1011E0008022F0A37405F090801714F0908016749C
:1011F000C0F0908016E020E0F99080157477F0E45C
:10120000908023F002E80080FEE4909001F0E0B4CA
:10121000780EE4FDFF1254671249E4E4FF1243F62E
:1012200080FE759852758921758DFFD28EE4F58CFC
:10123000F58AD28C4387807898F6759955909010EE
:101240007408F090900174FFF012574090900AE0FB
:1012500020E707909000E030E449909016E030E0FD
:1012600017903F88E0B45110A3E0B4460BA3E0B45C
:101270005706A3E0645460261246131261919090C1
:1012800016E04401F0903F887451F0A37446F0A337
:101290007457F0A37454F0E4909010F08009126138
:1012A000918008124613E490900FF0E4909010F0B3
:1012B000023DFC900012E07895F6A3E0F508A3E06B
:1012C000F509900015E0F50AA3E0F50B7889120EF8
:1012D0002400000000900019E0B45106A3E0900043
:1012E00010F0900010E0120E6E134D0013F8011470
:1012F0000002140E03141104147C051414061417B0
:1013000007142008141A0914230A14260B14290C94
:10131000143A0E14EC10143D111440121457131506
:10132000281B153A1C15501D156D1E15861F158C92
:101330002013502113502213B72313B724147628F7
:1013400014792A146D801473810000159402552BB2
:1013500090800BE054FC788CF690800AE018F690B0
:101360000011E018F690800B7480F0E4900011F00A
:10137000125D06788AE6900011F0900010E0B4212A
:1013800008A3E0FF123A05800E121E8A1261DC905B
:101390000011E0FF1258C87889A607788CE6908083
:1013A0000BF018E630E0047F0180027F009000110E
:1013B000EFF0125D06803C90801AE05480788CF645
:1013C000E0547FF0900010E0B42408A3E0FF123A4C
:1013D00005800E121E8A1261DC900011E0FF125887
:1013E000C87889A60790801AE0FF788CE65480FEC2
:1013F000EF4EF07889E6FF22900011E0FF023A05F7
:10140000121E8A1261DC900011E0FF0258C80261CE
:101410001B025588024FCD024BA7125D067F0322A7
:1014200002609D0231A80255E57895E6FF5470FEF2
:10143000EF54074E90900E021590024258025CCC79
:101440001261AC7895E67800FC7A0079007E027F24
:1014500000121E3A7F03227895E6FA79007B01C0DC
:1014600002C001121EA7D001D002021531121D4880
:10147000025B27026245025C570259567D00121E2C
:101480002D9000007460F0A37404F090000304F049
:10149000E4F520AF20125911E52075F004A4AEF058
:1014A0002410F50DE43EF50CFE7400250DF5827454
:1014B000003EF583E520F07401250DF58274003EB1
:1014C000F583E509F07402250DF58274003EF5837D
:1014D000E50AF07403250DF58274003EF583E50BF3
:1014E000F00520E520C3946040A9805E900011E0E3
:1014F000F520AF201520EF602CAE08AF09E42FFFD8
:10150000E43EFAA9077BFFC002C001121EA7D0016A
:10151000D0027E027F00120F7C121DA4125F9E0576
:1015200008050880CD7F0322121EA77B017A30793F
:10153000007E027F00120F7C8010121EA77B007AB3
:101540000079007E017F00120F7C125F9E7F0322D4
:10155000900011E0600BD259908040E04401F0808F
:1015600009C259908040E054FEF07F0322900011A0
:10157000E090800A6006E04402F08004E054FDF050
:1015800012368D7F03221249487F0322E490901285
:10159000F07F03227F8322903E06E064077003A35E
:1015A000E0F47042121E41125794E51354037F0079
:1015B000FEEF2400F974103EFA7B01C002C00178EE
:1015C000007C147D01D001D0027E01120F7CE4FF6B
:1015D0001222A18E228F23C3E523789E96E522183E
:1015E00096400D0217D5903E06E0F522A3E0F523C4
:1015F0007B14E4FDFCAF23AE2212C00FEF4E70034C
:101600000217D590100EE0649860030217D5A3E08E
:1016100064E660030217D590100A121DB7121ED19E
:10162000901011121DB7903E6C120E1890101612E9
:101630001DB7903E70120E1890101B121DB7903EF1
:1016400078120E18901021121DB7903E7C120E18C1
:10165000901026121DB7121ED7901030E024FF9272
:101660005F901034E024FF9264901036E024FF92E3
:1016700055901038E024FF9266A3E024FF9263A304
:10168000E024FF9265A3E024FF926790103FE024DE
:10169000FF925AA3E024FF9260A3E024FF925CA390
:1016A000E0903E03F0901043E024FF925EA3E0241C
:1016B000FF9261A3E024FF925DA3E024FF9258A370
:1016C000E024FF9250A3E024FF9270305A047F017F
:1016D00080027F00909001EFF090102EE0789A4603
:1016E000F6909016E030E104E654EFF6121D1DFF6F
:1016F000903E6C121D99FBD3120DBC400A903E6CBB
:10170000120E3D00000000903E6C121D20FFEC4DBB
:101710004E4F6002D262305F09909000E030E302E9
:10172000C267E4F521E521C378AC96502175F0023B
:10173000E521A42400F582E5F03411F583E0FEA351
:10174000E0FF121DD2EEF0A3EFF0052180D77D015E
:1017500012182A70030218251244B07D0212182AAA
:101760007003021825901080E0B4FF09A3E0B4FFD5
:10177000047FC080027FB0903E18EFF07D03121806
:10178000387003021825901080E0B4FF09A3E0B47C
:10179000FF047FC080027FB0903E1AEFF07D0712F9
:1017A00018387003021825901080E064AA7017A3FF
:1017B000E0B45512121EF8E0B4A50D903E11E0B44D
:1017C0005A06D25B8002D25B903E06E522F0A3E58A
:1017D00023F07F0122903E067407F0A374FFF0E42B
:1017E000F52178ACE6FFE521C39F5013789FE6FC16
:1017F00008E6FD121DD2ECF0A3EDF0052180E37E9A
:1018000000789FE6FC08E6FD120C388E228F23AB91
:1018100007AA06E4F9F8AE0EAF0FFCFD120C9F12FA
:101820001ED1121ED7D25B7F00227B147C00AF2317
:10183000AE2212C00FEF4E227B147C00AF23AE22EB
:1018400012C00FEF4E22C26DC269125F19E4789286
:10185000F6122CC6C259E4908040F090800B7410B0
:10186000F07892E6122D3890801AE0547FF0908044
:101870000AE04410F090801AE04401F0908005E006
:1018800030E7F9122C957430F0E4F514908005E0FF
:1018900030E7F99080147410F0E4908006F09080A6
:1018A00005E030E0F9908067E030E018E514701151
:1018B00005149080007405F0E4122C9A74E0F08016
:1018C000CB122CBFE4FD7F2E124A7FE4F514902E3C
:1018D00000E064986004E0B4451A751401902E028B
:1018E000E030E32F902E05E05407D39404402443C6
:1018F0001402801F902E00E0B4EC18751404902E92
:1019000002E030E30E902E05E05407C39404400338
:10191000431408E47894F6E47893F67893E690809C
:101920000B70057480F080037410F0908005E03037
:10193000E7F9122D4F7894E6FF125911908005E0D7
:1019400030E7F9E51430E10690800074A2F0E51468
:1019500030E30690800074DAF0E4908000F0122CFE
:10196000F97430F07894E67014908005E030E70D5B
:101970007892E630E10778947660021A1490800538
:10198000E030E7F9E5145403600D9080007405F031
:10199000E4122CF974E0F0E47891F690801474105D
:1019A000F0908005E030E7F9E4908006F090800543
:1019B000E030E0F990800BE054036009E020E13D65
:1019C000E4FF12432A901000E0640D7030A3E0643D
:1019D00006702AA3E064057024A3E06406701EA3C9
:1019E000E0B4191978007C30122D0B7E027F0012B2
:1019F0000F7C1220DFEF7061122CC6800B7891E60D
:101A0000C394065003068093789306E6C39402506D
:101A10000302191B789406E6C39460500302191759
:101A2000789206E6C394045003021851122CBF901A
:101A3000584EE493908007F0908005E030E7F9126B
:101A40002D4F908005E030E7F9122C957430F0901E
:101A50008005E030E7F97F0022D26D90319FE0B43D
:101A60005108D2599080407401F012368DE4909064
:101A700002F0903192E07004A3E0601D90300CE021
:101A80005470909005F0903192E0FEA3E0FF124870
:101A90000B9090057490F0800A90300CE044019017
:101AA0009005F09090027401F0903121E0B4510261
:101AB000D26990901EE04440F012C000E47883F6B2
:101AC0007F01227F147E007D007B017A0079000275
:101AD0000E94E50D250BFFE50C350AFEE43509FDF6
:101AE000E43508FC788D120DFFC3020DBC903E6CEE
:101AF000E0F8A3E0F9A3E0FAA3E0FB903E74E0FC79
:101B0000A3E0FDA3E0FEA3E022788D120DF3EF2405
:101B1000FFFFEE34FFFEED34FFFDEC34FFFC9000E0
:101B200000020E18908017E0250DF50DE4350CF538
:101B30000CFE7809AF0DE4FCFD120DE0788922AFB0
:101B40000BAE0AAD09AC087802120DE08F0B8E0ABD
:101B50008D098C0822F07403A3F0E4A3F0A322FF04
:101B6000E02FFFE433FE74002FF58274023EF5830C
:101B7000E064AA22C2547A0079007E007F0090447B
:101B8000007400F0A37400F0E4904104F02290414E
:101B900001E04410F07881E64410F622F0A374418D
:101BA000F0A3744CF0A37443F0A3744FF0A37452E9
:101BB000F0A32274002520F582E43402F583E022AC
:101BC000250BF50BEE350AF50AED3509F509EC356F
:101BD00008F50822A25CE433FF74047E00A807081D
:101BE00022E0FCA3E0FDA3E0FEA3E022AE0CAF0DDB
:101BF000E4FCFDFB7A02F9F8120C9F788922FF7E43
:101C000000E07C002400F9EC3403FA7B0122A3F00D
:101C1000E4A3F0A322903105E0F513903E06E0FE28
:101C2000A3E0FF22FEED9400FDEC9400FC78890215
:101C30000E0CFFE02FFFE433FE74002FF5827403D7
:101C400022903E03E0FEC3EF9E903E02F0541F221E
:101C500074012520F582E43402F583E02402229009
:101C60003E15F0903E167401F0903FF02278007C13
:101C7000007D0122C39BFFEE9AFEED99FDEC98FCDE
:101C8000229000027480F02278957605789622786A
:101C9000957602789622903E01E06401F0909001E2
:101CA000F022AB0BAA0AA909A808020DBC903E0BB2
:101CB00074FFF0A322903E0BE0FBA3E0FAA3E0F94F
:101CC000227405F0A37408F0A3740FF0227D017B49
:101CD000017A0079117E0022788D120DF3780202CC
:101CE0000DCD7889120DFFD3020DBCCEA2E713CE25
:101CF00013227880E6FF640222F0A37449F0A374F3
:101D000045F022789576067896227A0479007E044A
:101D10007F009044007404F0A37400F022903E749D
:101D2000E0FCA3E0FDA3E0FEA3E022908017E02505
:101D30000DF50DE4350CF50CFEAF0DE4FCFD780956
:101D4000120DE07889020E0C900010E0900074F003
:101D5000900011E0900075F0900012E0900076F095
:101D6000227DFF7E027F007B017A047900020E94BF
:101D7000250BF50BEE350AF50AED3509F509EC35BD
:101D800008F50822E50D250BFFE50C350AFEE435C4
:101D900009FDE4903E783508FCE0F8A3E0F9A3E003
:101DA000FAA3E0227A0079007E007F00904400745C
:101DB00000F0A37400F022E0FCA3E0FDA3E0FEA38A
:101DC000E0FF22903105E0F513903E06E0FEA3E02F
:101DD000FF22E52125E024C2F582E4343EF583228A
:101DE000E50D250BFFE50C350AFEE43509FDE4356C
:101DF00008FC22F0A261E433A3F0A25DE433A3F077
:101E0000A258E433A3F0A250E433A3F0A270E43369
:101E1000A3F022F0A266E433A3F0A263E433A3F0BC
:101E2000A265E433A3F0A267E433A3F0227E027F2D
:101E3000007B017A007900020E947D017B01020F84
:101E40007C903105E0F513222FF50BEA3EF50AE907
:101E50003DF509E83CF5082275F002EFA42400F5F1
:101E600082E5F03405F5832274002520F582E43400
:101E700004F58322FFAB0BAA0AA909A808C3020D27
:101E8000BC788D120DFFC3020DBC900017E0FEA3BD
:101E9000E0FF22250BFFEE350AFEED3509FDEC22B1
:101EA000C394FFEE94072278007C007D0122F58226
:101EB000E43402F583229000747451F0A3222DFDC6
:101EC000E4338D82F583E493FE22789BE644F6F6B4
:101ED00022903E68020E18903E74020E1804F0A282
:101EE00064E433A3F0A322903E18E064B022ED54E2
:101EF00007FA7401A8020822789AE64401F6903E97
:101F00001022C3E50B94FFE50A9407227D00121D01
:101F100063903E68121D20FF900400120E1890047A
:101F20000474E6F0A37402F0A374A1F07B017A3E7E
:101F3000796C125A25900407120E1890040B74A2A3
:101F4000F07B017A3E7978125A2590040C120E1813
:101F500090041074A3F0E4A3F0A26C33A3F0A37474
:101F6000A4F07B017A3E797C125A25900414120E5B
:101F70001890041974A5F07B017A3E7970125A25E5
:101F800090041A120E1890041F7401F0A374A6F0A6
:101F9000A25FE433A3F090042374A7F09004261208
:101FA0001EDD74A9F090042B04F0A26DE433A3F0BD
:101FB00090900AE090042DF090042F74AB121E1341
:101FC000A25CE433900436F0A25AE433A3F0903ECE
:101FD00003E0900438121DF37B017A3E7974125AA3
:101FE00025900500120E1890050474B0F0903E196B
:101FF000E0900505F0903E1BE0900506F0903E183D
:10200000E0900507F0903E1AE0900508F0A374C038
:10201000F0789AE6A3F0A374B1F090051004F0787C
:102020009FE6A3F008E6A3F0A374B3F0A26CE43338
:10203000A3F0903E08E0900515F0A374B4F0789BEF
:10204000E6FFA3F0789CE6FEA3F0A374B5F090053C
:102050002404F0A3EFF0A3EEF090053074B7F090F5
:102060009000E0900531F090053574B8F09005408F
:1020700004F0903102E0900541F078A5E6A3F00865
:10208000E6A3F0903105E0900544F0903E06E09024
:102090000545F0903E07E0900546F09090287401C9
:1020A000F0E4F000909029E0900550F090902AE044
:1020B000900551F090902BE0900552F090902CE01C
:1020C000900553F078F07C057A3179F07E007F102E
:1020D000121E3A205306121D0A125F9E7F032290A1
:1020E0003012E078A2F690800AE0FF903013E0FE14
:1020F000EF4E90800AF09031F0E0F50EA3E0F50F7E
:102100009031F2E078ACF69031F4E0F510A3E0F510
:10211000119031F6E078ADF69031F8E0F51290319B
:10212000FA122C819031FC789F122C839031FE1290
:102130002D14903191E0909009F09031A7E078A3B0
:10214000F6E6700276049031A8E0FF125C929031BE
:1021500094E06003122D63122D1F78B17614E4F51C
:102160002378B1E6FF2400F582E43430F583E0649F
:102170000C600302229B74012FF582E43430F58356
:10218000E0FEC4540F122D3874022FF582E434306F
:10219000F583E078AFF678B1E62403F582E43430D5
:1021A000F583E078B0F6908005E030E7F9E4F521BA
:1021B000E521C378AF96502FAF217401A80708809E
:1021C00002C333D8FCF52278B0566010908005E049
:1021D00030E7F9122CCE908000F08007122CCE90C0
:1021E0008001F0052180C978B1E62401F582E4344C
:1021F00030F583E0540F78AFF6E630E0037F00223D
:10220000E4F521E521C378AF964003022292E5214F
:10221000540725E02410908014F0908005E030E70A
:10222000F9E4908006F0908005E030E0F990800BB2
:10223000E05403600CE030E1037F0022E4FF12432E
:102240002A908005E030E10A90800AE020E1037FD7
:10225000002205210521E5215407F5226007E5212B
:1022600078AF66709EE5227003752208E5227F0034
:1022700025E0FEC006C007E523122CEEA807FC12DD
:102280002D0BD007D006120F7CE5222523F5230263
:10229000220378B1740C26F6022161122D837F018E
:1022A000228F25E4F50AF50BC3E50B789E96E50A27
:1022B00018964003022432E5257019122BE6CEC38E
:1022C00013CE13D8F92400F5827414122ADE5E604E
:1022D00019022427122BE6CEC313CE13D8F9122BE2
:1022E000A1122ADE5E60030224277B40E4FDFCAFDE
:1022F0000BAE0A12C00F905D02EEF0A3EFF0905DFE
:1023000002E0A330E720122BE6CEC313CE13D8F998
:10231000122BA13EF583C083C082122AE14ED082E7
:10232000D083F0022427C3905D03E094FF905D0208
:10233000E094074003022427E525700CE0B4070869
:10234000A3E0B4FC03022454E525640260030224E4
:1023500027122B7F125EB8905D00EEF0A3EFF0C362
:10236000905D01E094FF905D00E09407400D122B1A
:102370007FAD0BAC0A125640022427E514C3942506
:10238000400302241E7B407D027C00AF0BAE0A128C
:10239000C00F903EE2EEF0A3EFF0122B7F903EE2F2
:1023A000E06E7003A3E06F600E903EE2E0640770A1
:1023B00004A3E064F7702CE514C39419905D00E069
:1023C000FEA3E0FFE5145005122C238003122C2DF0
:1023D000F583EEF0A3EFF0122B7FAD0BAC0A125693
:1023E000408037E514C39419E5145005122C23805E
:1023F00003122C2DF583E50AF0A3E50BF0122BE672
:10240000CEC313CE13D8F9122BA13EF583C083C0DF
:1024100082122AE14ED082D083F0051480097D011A
:10242000AF0BAE0A12C012050BE50B7002050A02D3
:1024300022A8E5256015903102E0B5130E78A5E6D7
:10244000FC08E6FD7FFD7E071256407F107A5D791D
:1024500000122C1AAE0AAF0B22306530789AE630A3
:10246000E02A90000FE0248F24FC501D24F2601914
:1024700024ED601524FC60140424FB500C24A96096
:102480000824FB6004247970037F8222D2529000DA
:102490000FE0120E6E25D91025E011253612259178
:1024A00071259572259973259D7425A17525AC76A6
:1024B00025B57725BE7825C77B25D07C257181255C
:1024C0007C82258783256796251697254799254F72
:1024D0009A25579B252E9C255F9D253FF524F6F6D2
:1024E00024FEF7251EF82506F925E7FA250EFB251B
:1024F00029FF000025EE1254C98F1F0225F112504A
:102500003C8F1F0225F1125E1B8F1F0225F1125F07
:10251000738F1F0225F112628B8F1F0225F1121D8E
:10252000481260598F1F0225F1126209800B125167
:10253000888F1F0225F112607B751F030225F1129F
:1025400041818F1F0225F112342A8F1F0225F112BB
:102550001F0C8F1F0225F1125DAF8F1F0225F11294
:102560004C378F1F0225F17F011232EF8F1F02259A
:10257000F1121D48125FC58F1F0225F1121D48126E
:102580005C1C8F1F0225F1121D48125E508F1F80A8
:10259000607F0280197F02801E7F0280237F02807D
:1025A00028903E1CE04402F07F0280267F03125BED
:1025B000658F1F803C7F031261398F1F80337F033B
:1025C000125BA28F1F802A7F03124CC78F1F8021AE
:1025D0007F031245658F1F80181248AC8F1F801132
:1025E0001247688F1F800A1212B38F1F8003751F56
:1025F00082C252AF1F2290000FE0F51D7889120DA4
:10260000F3EC4D4E4F601290000CE0648060047F4C
:102610000380027F028F1E8003751E017884A61E30
:10262000306D1D30691A903E15E51DF0E4903E16A0
:10263000F0903FF074E2F012C01E121CF260012212
:10264000E51D120E6E27320027180327750426B3E6
:102650001227751526D51A27251B273F1E26F72377
:1026600027082526912826A22A26C42F274C43274F
:102670005945276046276751276E5226E65A270894
:102680009E2781A22775A32775BB277ABD00002747
:1026900088E51E640260030227901227938F1C02B4
:1026A000278DE51E640360030227901238E48F1C17
:1026B00002278DE51E640260030227901208038F33
:1026C0001C02278DE51E64016003022790126257E9
:1026D0008F1C02278DE51E64026003022790123BC7
:1026E000168F1C02278DE51E6402600302279012DC
:1026F000355D8F1C02278DE51E6402600302279062
:10270000124E6A8F1C02278DE51E640260030227A9
:1027100090123C1D8F1C8075E51E64027072125D64
:10272000778F1C8068E51E64017065125BDF8F1C6B
:10273000805BE51E640170581253348F1C804EE597
:102740001E6401704B1262728F1C8041E51E640290
:10275000703E1246C08F1C80341262938F1C802DF5
:102760001262658F1C802612599B8F1C801F125984
:10277000E08F1C8018751C038013125A6A8F1C800E
:102780000C125F468F1C80051224598F1CAF1C222F
:102790007F82221261F37899E66401702E903E1CCC
:1027A000E030E027AE0CAF0DE4FCFD780B120DE03D
:1027B0007889121AE67014121B3FE50DAE0C7802F0
:1027C000C333CE33CED8F9F50D8E0C121BEC121A92
:1027D000E660037F842212511A8F1FEF30E7012237
:1027E000788D120DF3D3121CA24009305603022833
:1027F000C77F8A22121AD250037F8A22903E02E0BB
:10280000FF6011904107E030E611121C4170051283
:102810001C968000904107E054BFF0903E02E044D7
:1028200040F02064047F0180027F00903E18E0B4F5
:10283000B0047E0180027E00EE5F70030228E61283
:102840001BD48003121CEBD8FBFF7899E66F700154
:10285000EE60030228E67889120E2400000000E4EE
:10286000FFFEFDFCC3121CA2705D7899E6B4040B58
:10287000903E6C121AFEF50B121B4E903E1EE50C9C
:10288000F0A3E50DF0750C00750D0112C0038F1F4C
:10289000E51F30E718903E1EE07004A3E06401706D
:1028A0000FE51F30E0047F0180027F03227F892231
:1028B000908016E020E0F9903E1FE024FFF50D9097
:1028C0003E1EE034FFF50C7E0C7F007DFF121AC91E
:1028D000E50D450C600D125F9EE50D150D70F115AF
:1028E0000C80ED7F0322125E8512C0038F1FE51F4F
:1028F00030E72D30E01C904102E030E00312007E12
:10290000904104E020E1EF305403121B74751F0165
:102910008003751F037889120E24000000008009CF
:10292000121B24120E0C751F89AF1F228F232052F9
:10293000062053037F0122121E4112C015205103AD
:1029400012C01B7FFC7E07125EB88E0A8F0B121F0F
:102950000240117E107F007DFF7B017A107900120A
:102960000E948021E47891F67891E6C3940850158E
:10297000E6FD7C00E62404FBAF0BAE0A12C00F7824
:1029800091060680E3E523B4FF097508077509FF82
:10299000022A91905DFDE07891F6E4F01256EC8EFB
:1029A000088F09BEFF06BFFF037F00227891E690E3
:1029B0005DFDF0E5237F0025E0FEEF2400F97410B3
:1029C0003EA801FC7D017B017A0479007E02120F92
:1029D0007CE47891F67891E6C394084003022A914A
:1029E0002052062053037F01227891E68512F0845D
:1029F000E5F070057BA0122AB77FFC7E071261DC30
:102A00009031EEE030E30778917BA2122AB77891FB
:102A1000E625E02410908014F090800674E0F09099
:102A20008005E030E0F97891E624028512F084E533
:102A3000F06007E62402540770509080007410F094
:102A4000908005E030E7F978A2E6FF20E53C908031
:102A5000007470F09080047401F0908002E078922D
:102A6000F6EF54C06006908003E046F67892E630B8
:102A7000E0187D01AF09AE0812C0127BC1E4FDFC75
:102A8000AF09AE0812C00F022993789106060229F9
:102A9000D5121F0250097D01AF0BAE0A12C012AD54
:102AA00009AC087FFC7E07125640903E06E508F010
:102AB000A3E509F07F0122E6FD7C00AF09AE081214
:102AC000C00F22F58374FFF0A3F0EF25E025E0248A
:102AD00039F582E4343FF583E075F00AA4223EF52F
:102AE00083E0FF7C00E50B54072446F582EC345864
:102AF000F583E493FEEF227E007DFF7B01020E94BE
:102B0000E52725E02480F582E4343EF58322E523A1
:102B100025E025E02438F582E4343FF58322FDEEFC
:102B2000C313FEEF132400F58274583EF583E022B0
:102B3000E52225E025E02460F582E4345DF583E0BC
:102B4000FEA3E0227E007DFF7B01020E947D017BCF
:102B5000017E00020F7C25E025E02436F582E43476
:102B60003FF58322EC25E02400F582E4345DF58313
:102B70002224EEF582E4343EF583E4F0A3F02290C3
:102B80005D02E0FEA3E0FF22E52225E025E02462CD
:102B9000F582E4345DF583E02224E6F582E4343EF8
:102BA000222400F582745C227C0054072446F582BE
:102BB000EC3458F583E493227F007B01020E94E508
:102BC0002178A026FFE41836FE2225E025E02439EE
:102BD000F582E4343FF58322E52225E025E02463F5
:102BE000F582E4345D22E50BAE0A78032225E02469
:102BF00010908014F090800622E52125E024A2F5B3
:102C000082E4343E22789AE64420F67EFF7FFF225B
:102C100025E024C2F582E4343E227E007DFF7B0164
:102C2000020E9425E02456F582E4343F2225E02468
:102C300015F582E4343E22AF177E0078A4E6FAFD53
:102C40007C00120C387891E625E02427F582E434E4
:102C50003EF583EEF0A3EFF0E5188AF0A4FFE62539
:102C6000E02427F582E4343EF58322120F7C7A00BB
:102C700079007E007F009044007400F0A37400F09F
:102C800022789DE0FEA3E0A60608F6227D017B01E6
:102C90007E00020F7CE4908000F0908001F0F0F064
:102CA000F0F090800022F0E512FD7C00AE0AAF0B40
:102CB000120C4AECC313ED13FDE5178DF0A422901E
:102CC000801AE054FEF090800AE05480F02278B13F
:102CD000E62521FFE433FE74042FF58274303EF5BF
:102CE00083E0227B20AD0BAC0AAF09AE082225E0C1
:102CF000FEE42400FFEE34A022908001F0F0E50B0A
:102D0000F0E50AF0E509F0908000227D017B017A70
:102D10001079002278A5E0FEA3E0A60608F622902E
:102D200080157455F074AAF0227E027F007D007B2E
:102D3000017A007900020E9490584E93908007F02B
:102D400022908040E0FFA259E433FEEF4EF0229043
:102D5000800074FFF022E517C313F517E518C313BD
:102D6000F51822E05470FFE054074F90900EF022C7
:102D7000908000F090800122EBC31378B2F678A423
:102D800006E6229080157477F022908017F09080EC
:102D90001674C0227D017B017E00020F7C8F21789A
:102DA000ACE6F515F513C251E4F523E513D378A18C
:102DB000965003022EFE151312C01530510612C094
:102DC00024022EC8E4F522122B8865136003022E1C
:102DD000BC122B0EE0F46004052380F5E4F524E535
:102DE00024C39523502A122B88FFE524122B10E0D0
:102DF000B50719122B30FFE524122B56E0FCA3E097
:102E0000B50709ECB506050522022DC7052480CFBC
:102E1000122B30FFE523122B56EEF0A3EFF0122B0E
:102E20000EE513F0122BD8122AD62410F9745D3552
:102E3000F0FA7B01C001E523122ACB24E6F9743EA7
:102E400035F0A801FC7D01D0017E007F0A120F7CC5
:102E5000122BD8F583E075F008A42480F9745D3551
:102E6000F0FA7B01C001E523122BCAE075F008A43B
:102E7000248CF9743F35F0A801FC7D01D0017E005F
:102E80007F08120F7CE523122ACB122B99122B3DBF
:102E9000C3950FEE950E5024E523122ACB24E8F5B6
:102EA00082E4343E122B3DFF7D0112C018E523124F
:102EB0002ACB122B99F583EEF0A3EFF00522E52241
:102EC000C394085003022DC7E521600FE4F51412E6
:102ED000C0210514E514C3940840F478107C5D7A91
:102EE0003E79E67F70122B4D78807C5D7D017B0101
:102EF0007A3F798C7E007F38120F7C022DAB228FB7
:102F00001CE478A4F6908016E020E0F9904104E0FB
:102F100020E1F9121DA4900000120E3D55534253BA
:102F20007B007A007985125A25900004120E18E46D
:102F300090000CF090000BF090000AF0900009F067
:102F4000900008F0904106740DF0E4904105F0D235
:102F500054904104E030E10A904102E030E0F27F19
:102F60000022C2547A0079007E00121DACE4904128
:102F700004F0E51C7002FF22C28CC28DE4F58CF5D2
:102F80008AD28C903E02E0FF6024904107E030E658
:102F900024903E03E0FEC3EF9E903E02F0541F706B
:102FA0000D903E01E06401F0909001F080009041AE
:102FB00007E054BFF0903E02E04440F0904104E04E
:102FC00020E010904102E030E0037F0022308DECE1
:102FD0007F002290000FE0701A78A4E6C39401509D
:102FE0001290000DE0788366700978A406123045CF
:102FF000022F13900011121DB77891121E83704298
:1030000090000FE0651C703A90000DE078836670C8
:1030100031908016F0123045121DA4E4908014F017
:10302000900016E0F50CA3E0F50D7891120DF38FEA
:103030000B8E0A8D098C08121DE07891120E0C7F00
:1030400001227F00227B017A007904125A257885BB
:10305000120E0C22904106E0547FFFBF211C7F43DB
:103060007E427D537C55900000E0F8A3E0F9A3E098
:10307000FAA3E0FBC3120DBC6007788476027F825E
:10308000227B017A007904125A257885120E0C7B76
:10309000017A007908125A257889120E0C7A007983
:1030A000007E00123FE090000DE07883F690000F64
:1030B000E0306E3F6412602A7888E6B4051718E69F
:1030C000B48F1218E6B4930D18E6B48408903E1C31
:1030D0007402F08006903E1C7407F0306504E478BA
:1030E0009BF6C26EE47899F678A1E6F51390900706
:1030F0007401F0206C03023183A264E433FF903E3C
:1031000018E0B4B0047E0180027E00EE5F6020A271
:103110005CE433FF7883E6FEB5070F7402A8060867
:103120008002C333D8FCF51C8037751C1080322018
:103130006115A262E4332401FFE433FE7883E6FDE7
:10314000B50711E4B5060D306305751C08801275CE
:103150001C01800D7402A805088002C333D8FCF559
:103160001C306735205832205703305603305D2914
:103170007883E6FF7401A807088002C333D8FCF502
:103180001C80167883E67008903E08E0F51C8009E4
:10319000751C04789CE64404F6E51C789966600585
:1031A000AF1C1250AB7F0222C26DC269122D1FE408
:1031B000F521E521C3789596501D122C6E1261AC55
:1031C000E521122CEEA807FC7D017B017E027F0029
:1031D000120F7C052180DB122D83122C6E1261AC44
:1031E0009001FEE0B44A06A3E0644E60037F8922AA
:1031F000900000E090800AF030E00678A2764080EF
:1032000004E478A2F67898E6B4800790800AE04457
:1032100080F0900002E078ACF6900004E0F510A396
:10322000E0F511900006E078ADF6900008E0F512A8
:1032300090000A122C8190000C789F122D1690009D
:103240000EE0F50EA3E0F50F900191E0909009F0EB
:1032500090019FE0B4510AD2599080407401F080EF
:1032600007C259E4908040F0E4909002F0900192FF
:10327000E07004A3E0601D900010E0547090900591
:10328000F0900192E0FEA3E0FF12480B90900574CD
:1032900090F0800A900010E04401909005F090902A
:1032A000027401F0900194E06003122D639000110C
:1032B000E0FF125C929001A7E078A3F6E670027638
:1032C00004D26D78007C317A0179007FF0122D9460
:1032D000903103122D1490310FE078A2F612368D42
:1032E000903121E0B45102D26912C0007F03228FD5
:1032F000217E027F007D00121D6790040974F1F0A9
:10330000903E68121D20FF90040A120E1890040EC1
:103310007498F0A374E6F0A374F2F0903E6C121D62
:1033200020FF900411120E1890041574F3F0903ED3
:1033300070121D20FF900416120E1890041A74F4D7
:10334000F0903E78121D20FF90041B120E1890047E
:103350002074F5F0903E7C121D20FF900421120E87
:103360001890042574F6F0121D1DFF900426120E0D
:103370001890042A74F7F0E4A3F0A304F0789AE616
:10338000541690042EF0A374F8F0A25FE433A3F077
:10339000A374F9F0900433121EDD74FBF0A255E41F
:1033A00033A3F0A374FC121E13A25AE43390043F1B
:1033B000F0A260E433A3F0A25CE433A3F0903E03F8
:1033C000E0900442F0A25EE433A3121DF390048067
:1033D00074E1F090048504F0E478A4F679A4E7C3DE
:1033E00078AC96501778A4E6FF121DD4E0FCA3E059
:1033F000FD121E58ECF0A3EDF00680E0789AE690FE
:1034000005FFF0E5216006121D0A125F9EE4FF121F
:10341000292CEF60127889120E2400000000306C15
:1034200003121ECA7F03227F8922903E18E064C0E7
:1034300060037F8922205306121D0A1261AC7B01B2
:103440007A047900125A25903E6C120E187B017A8C
:10345000047906125A25903E78120E187B017A04E0
:10346000790B125A25903E7C120E187B017A047952
:103470000F125A25903E70120E187B017A04794083
:10348000125A258F0B8E0A8D098C08900445E09006
:103490003E0EF0900446E0903E0FF0900444E0644D
:1034A0005170499004FEE0644A7028A3E0644E70B5
:1034B00022FF78ACE6FEEFC39E5014121E58E0FCCB
:1034C000A3E0FDEF121DD4ECF0A3EDF00F80E3E4D8
:1034D000789CF6AF0BAE0AAD09AC08EC4D4E4F60D0
:1034E0000BAF0BAE0AAD09AC08121ED1903E6C12A8
:1034F0001D20FFEC4D4E4F6003D38001C3926290BC
:103500000404E0B45103D38001C3925CA25CA062C6
:10351000925C903E78121D20FF903E70121D992FF4
:10352000F50BEA3EF50AE93DF509E83CF5082060AF
:1035300009903E70121D20121D70903E68121D20D1
:10354000C3950BFFEE950AFEED9509FDEC9508FC81
:10355000121ED77899E6FF1250AB7F03229000111C
:10356000E0543FF51F7520FF7521807899E66401CE
:103570006003023633903E1CE020E0030236331233
:103580006232EF604D900202E06047A3E0900202D9
:10359000121B5F703D900202E02408F520E51FB485
:1035A0003F08A3E024F8F5218028121BB364AA6029
:1035B00010121BB3651F6009121C502520F52080D6
:1035C000E9121BB364AA6007121C50F52180037531
:1035D00020FFE520B4FF097E007F80121AC7804FCC
:1035E000900202E07E002400F9EE3402FA7B01C072
:1035F00002C001121C6DD001D0027F08120F7CAFF7
:10360000217E007C0074002520F9EC3402FA7B0155
:10361000C002C00178087C007D01D001D002120FE9
:103620007CE5212406900001F074082521F521AFE6
:10363000218056E4900000F0A37406F0E4A3F07833
:103640009AE6FB54F960047F8080027F00900003BB
:10365000EFF0A3120E3D00000000EB7899565406DF
:103660006003121C8120560330570C7899E6B40190
:10367000069000037480F0306C0D7899E654186061
:10368000069000037480F07F081251F52290800AA2
:10369000E030E105751702803F90800BE030E405D3
:1036A000751720803390800BE030E505751750804A
:1036B0002790800BE030E305751748801B90800B46
:1036C000E030E60575177A800F90800BE030E70553
:1036D000751780800375172E75180478A2E654C0FC
:1036E0006003122D569031EEE030E348E47891F615
:1036F000A3E078B2F6E66018E478A4F678B2E6FBC8
:1037000030E007122C37E02FF006122D78B408ECC9
:103710009031EDE078B2F6E6605378A4760878B29E
:10372000E6FB30E007122C37E02FF006122D78B4BC
:1037300010EC8039E478A4F6E512C313FF78A4E610
:10374000C39F5029AF177E00E6FBFD7C00120C38AA
:10375000EB122C5FEEF0A3EFF078A4E6FFE5188FF4
:10376000F0A4FEEF122C5FE02EF00680CB90319596
:10377000E0703F90800BE030E30578B2762622902F
:10378000800BE030E40578B2760E2290800BE030BA
:10379000E50578B2762A2290800BE030E60578B213
:1037A00076422290800BE078B230E70376462276AC
:1037B0001622903195E078B2F6228F21903E0AE0F1
:1037C000FF70030238E0D3944040047E408002AE94
:1037D00007E4FFEFC39E5031903E0BE0FBA3E0FAFD
:1037E000A3E0F9903E09E0FD7C00E92DF9EC3AFAFE
:1037F000EF29F9EC3AFA120BF2FD74402FF582E44E
:10380000340EF583EDF00F80CA7898E6FF20E606C7
:10381000E52164026009EF30E615E521B407109058
:103820000E567440F0E4A3F0900E5D74408014E5F1
:1038300021B40613900E40740AF0A37406F0900EA3
:10384000487401F0E4A3F0E521B40706900E41743A
:1038500007F0E52164016005E521B4060FE4900E50
:1038600042F0A37402F0900E477440F0E521640129
:10387000702B900E4AE0B48006A3E06493600AD2F5
:103880006C900E507403F08007C26CE4900E50F000
:10389000206D0A900E4A7434F0A37412F0E521648E
:1038A000026005E521B40708903E05E0900E48F05F
:1038B000904103EEF0904102E020E1F9904102E0F6
:1038C00054216005E054FEF022904102E020E01314
:1038D000903E0AE0C39EF0903E09E02EF00237BC15
:1038E000124041221261F37899E664017027903EFC
:1038F0001CE030E020AE0C780B121B34121AE6707C
:1039000014121B3FE50DAE0C7802C333CE33CED874
:10391000F9F50D8E0C121BEC121AE660037F84225F
:1039200012511A8F1FEF30E70122121AD250037F73
:103930008A22306C107899E6FF6401603DEF5418DC
:1039400060037F8722789AE6600F54066008799AB0
:10395000E778995660037F8722903E18E064B07044
:103960002EA25C121BD78003121CEBD8FBFF7899A8
:10397000E67C00B50719ECB50615E50D150DAE0C86
:103980007002150C4E60051261AC80EE7F03229030
:103990003E02E0FF6011904107E030E611121C4149
:1039A0007005121C968000904107E054BFF0903ED5
:1039B00002E04440F0125E8512C0068F1FE51F3002
:1039C000E72D30E01C904102E030E00312007E90D1
:1039D0004104E020E1EF305403121B74751F018095
:1039E00003751F037889120E240000000080131253
:1039F0001B24120E0C751F89E50D450C700478848C
:103A00007601AF1F228F218513227895E6F513E505
:103A10002130E0037F8922122CE312C00FE4908052
:103A200014F0852123FE7F40FD122D0D120E94907F
:103A30008005E030E7F9E4908006F0908017E523F8
:103A4000F09080167480F0908016E0540A60F89030
:103A50008016E030E12D90800BE030E1057521EE1D
:103A60008007E4FF12432A8F21908017E0FFC3E50F
:103A7000239FFFC3132400F582E43410F583E5216E
:103A8000F080BE908016E020E0F9904104E020E153
:103A9000F990800BE0900000F0908005E020E12D8F
:103AA0001261C5900001EEF0A3EFF0908030E0903D
:103AB0000007F0908031E0900008F0908032E090B4
:103AC0000009F0908033E090000AF0801890000127
:103AD0007407F0A374FFF07E007F04FD7B017A0081
:103AE0007907120E94900003E508F0A3E509F09021
:103AF0000005E50AF0A3E50BF090000B74AAF0783E
:103B00000C7C00122D0B7E007F40122C6B125F9EEE
:103B10008522137F0322E4F51F7899E6B4010A9009
:103B20003E1CE030E0037F8322900010E054081335
:103B30001313541F900400F0900011E0543F9004C0
:103B400002F0900012E0900403F0900013E0900463
:103B500004F0900014E0900405F07E027F00121A39
:103B6000C7E4900001F0789AE6FF54F960047E8083
:103B700080027E00900002EEF0E4A3F07899E6FE69
:103B80005F54066003121C81205603305707EEB4C1
:103B90000103121C81306C0A7899E65418600312F4
:103BA0001C81751F04306D11741A121C5F74E0F0D3
:103BB00012C01E121CF2600122900402E090000468
:103BC000F0900402E0604924F8601224C9601824CF
:103BD000237030900005740AF0740C80209000056A
:103BE0007412F0741480169000047408F0A3741218
:103BF000F0900018741CF0A3740AF07420251FF5CF
:103C00001F800D9000057401F0E4A3F0051F051F4F
:103C1000E51F14900000F0AF1F1251F52212511A47
:103C20008F1FEF30E703023D0C7E007F207D007B7D
:103C3000017A047900120E9490000FE0F520B4256B
:103C400013900017E05401F52178047C04121CCD78
:103C50007F04801190001DE05401F52178007C0460
:103C6000121CCD7F0C120F7CE521701D90040012F8
:103C70001BE1FFEC4D4E4F700D900404121BE1FF51
:103C8000EC4D4E4F60037F84227899E664017033D7
:103C9000903E1CE0FF5405FEBE010CEF4404F09082
:103CA0003E1DE0700204F0305E19903E1CE030E0F2
:103CB00012121CD8121B0E900004120E3D000008B8
:103CC00000802C7899E6B41014306208121AED12B4
:103CD0001C748004121AFBFF788D120E0CE520B4C0
:103CE0002511121B09900004120E3D000002007FF6
:103CF0000880167E007F20121AC7121B0990000848
:103D0000120E3D000002007F200251F5AF1F22ADD0
:103D100007904104E020E1F9ED247FB40F00400357
:103D2000023DD4903D3175F003A4C58325F0C583D1
:103D300073023D5E023D64023D6C023DA5023D748E
:103D4000023D7B023D82023D8C023D93023D9E027C
:103D50003DAC023DD4023DB7023DC1023DC8121B3D
:103D60008E7F0522121C887626023DD0121C887692
:103D700020023DD0121C8F763A8055121D03762802
:103D8000804E78957607789676278044121C8F7639
:103D9000048005121C8F76FF789776FF8036121C00
:103DA000887621802B121C8876248024121C8F7622
:103DB0000478977601801D121B8E121D03762980D0
:103DC0000F121D0376298008789576037896761170
:103DD000E47897F67884E6FCB40207121B8E7D0720
:103DE0008017ECB40311904101E04404F07881E6BF
:103DF0004404F67D0680027D04AF0522124EEA904F
:103E00003E017401F0904102E030E00312007E7840
:103E100080E6B40118904104E030E011123054788B
:103E200080EFF6BF02071225F67880A6077880E6B5
:103E3000FF64036004EFB40405124F5C80C7788010
:103E4000E6B4050B904101E020E4047603801D7880
:103E500080E6FFB40607904101E030E20BEFB407C3
:103E60000B904101E020E404788076047880E6FF3E
:103E700030E707123D0F7880A607306F09C26F90B8
:103E80004107E04401F07880E66401704790410703
:103E9000E030E640903E02E0FF6039903E03E0FEF5
:103EA000C3EF9E903E02F06015E0541F7007903EF5
:103EB00001E06401F0904107E054BFF0800E305AF9
:103EC000047F0180027F00903E01EFF0903E01E010
:103ED000909001F0904107E020E403023E05125467
:103EE00001023E05090220000101008032090400A0
:103EF00000020806500007050102000200070582C3
:103F0000020002000C121E0422183A286210721CD1
:103F100012010110000000408F0580930100010292
:103F2000000104030904180341006C0063006F00E2
:103F3000720020004D006900630072006F002803CA
:103F40004D006100730073002000530074006F0087
:103F50007200610067006500200044006500760083
:103F60006900630065001003360039003900300035
:103F700046003000310047656E6572696320555315
:103F80004220466C617368204469736B2020372E91
:103F90003736000000000000000000AAAAAAAAAA62
:103FA000AAAAAAEEEEEEEEEEEEEEEEFEFFFFFFFFA9
:103FB000FFFFFFFFFFFFFF7FBFDFEFF7FBFDFC7E93
:103FC000BFDFEFF7FBFD7E900E45E0900074F090B0
:103FD0000E46E0900075F0900E47E0900076F022DB
:103FE0009044007400F0A37400F02278407C0E7DB1
:103FF000017B017A0E79007E007F08120F7C9041D0
:1040000002E054FEF022F0904102E04441F02290A0
:104010003E0B74FFF0A3743FF0A37404F022E0FCA5
:10402000A3E0FDA3E0FEA3E022851320903105E08C
:10403000F513903E06E0FEA3E0FFC394FFEE940765
:1040400022904102E04451F0227A047900903E0B24
:104050007401F0A3227881E654EAF6904101E0442D
:104060002AF0E054EA22900E45E0900075F0900EA0
:1040700046E0900076F022E493903E09F022A3F00F
:10408000E4903E09F022E4904104F0788076012229
:10409000904106F0E4904105F022D253900E44E0A6
:1040A00022903E207403F022909000E030E2037FE3
:1040B0000022909012E030E0037F0022121846EFB9
:1040C0007002FF22121597E4F513E513C378AC963E
:1040D000501DE513122C10122B3D789FA60608F6F2
:1040E000E61846600678A1A6138004051380DB90CD
:1040F000900AE020E707909000E030E411909016DD
:10410000E020E50AE030E20312C0247F0122909013
:1041100016E020E03378ACE62401FFE433FEEF251F
:10412000E0FFEE33FE7DFF7B017A3E7980120E9434
:1041300078ACE675F002A4FFAEF07DFF7B017A3E1D
:1041400079A2120E94125AAA903120E06451602E86
:1041500012587E7F021222A1124B14909016E05446
:10416000F7F07E087D007A347900122BB87F0112B7
:104170002D9D909016E054CFF0E4903E5FF07F01CB
:1041800022205306121D0A1261ACC266C263C264C9
:10419000C265C267C25AC25FC260C25EC261C25D0E
:1041A000C258C250C270900403E0B45104D264807B
:1041B0005A900404E0B45104D266804F900405E0A4
:1041C000B45104D2638044900406E0B45104D26533
:1041D0008039900407E064517031D267900400E0A8
:1041E000B45102D25F90040EE0B45102D25E90044A
:1041F0000FE0B45102D260900413E0B45104D25DD8
:104200008009900414E0B45102D25890040BE0B439
:104210005102D25A900409E0B4510DE4903E02F0EC
:1042200090040AE0903E03F0305A047F0180027F40
:1042300000909001EFF0900412E0B45106A2677272
:10424000639261900415E0B45102D250900416E0DC
:10425000B45102D2707F0322122D2990000274986B
:10426000F0A37401F078A7E6A3F008E6A3F008E64F
:10427000A3F008E6A3F0A3744AF0A374E6F0A374D5
:1042800002F090900AE090000BF0A26CE433A3F0EF
:104290007898E6A3F0900010744AF0A3E513F0A21A
:1042A00051E433A3F0908007E0900013F090900E5B
:1042B000E0900014F0900020744FF09000307448AB
:1042C000F0900040744EF090800BE0900100F09070
:1042D0009013E0900101F0A3E519F0908009E090BF
:1042E0000103F0908011E0900104F0909012E090B2
:1042F0000105F0908040E0900106F0909028740154
:10430000F0E4F000909029E0900110F090902AE005
:10431000900111F090902BE0900112F090902CE021
:10432000900113F0125F9E7F0322E519601F9080B9
:104330000BE030E1037FEE22908010E0FD90800FD3
:104340007401F090800FE030E0F9AF0522E4908036
:104350000CF090800BE030E1037FEE2290800DE0C6
:10436000F528908010E0D378B39640037FEE22903A
:104370008006E0543025E0FDE4FCECC39528507045
:1043800090800CE0F9908020E0FE908021E0FBEE30
:10439000F526EBF52794FFE52694034015E52794D1
:1043A00004E5269404500B74302527F582E434800C
:1043B0008036C3E5279404E52694045033ED601657
:1043C000C3E52694024004ED20E622C3E5269402CC
:1043D0005004ED20E517908013E0FEE42527F52733
:1043E000EE3526F526852782F583E069F00C808A74
:1043F000908010E0FF2278AEE66F70030244AF7841
:10440000AEA60712C027EF4E70089090107404F00B
:1044100080FE90800AE054EEF0E4909002F09090DC
:10442000057431F09090027401F09080147410F0D3
:10443000908022F09080237405F090801714F09003
:10444000801674C0F0908016E020E0F9E49080239C
:10445000F090800AE0FF903013E05410FEEF4E9091
:10446000800AF078A2E654C06004E04401F0E490D1
:104470009002F0903192E07004A3E0601D90300C47
:10448000E05470909005F0903192E0FEA3E0FF12AE
:10449000480B9090057490F0800A90300CE0440135
:1044A000909005F09090027401F0E4908023F02247
:1044B000901000E064996003024564A3E064076023
:1044C00003024564901003E0FF901002E02F2432B5
:1044D000FFE4FEFDEDC39F501074002DF582E4341F
:1044E00010F583E02EFE0D80EB74002FF582E4348E
:1044F00010F583E06E706DD26B306B2390107DE011
:10450000F4FF90107CE0B50716E0D394FA400890D1
:104510003E0574FAF0800890107CE0903E05F09023
:10452000107EE0643C703DA3E064C370379010815E
:10453000E06403702FFEFD901080E0FFEDC39F50FC
:104540001074802DF582E43410F583E02EFE0D808A
:10455000E6901080E02480F582E43410F583E0B525
:104560000602D26A228F21121DC9121EA050148584
:104570001322121E41AD217C007B1212C00F852236
:10458000138003121D61903E19E0900400F0903EEC
:104590001BE0900401F0903E18E0900402F0903E81
:1045A0001AE0FB900403F0A374C0F0A25BE433258F
:1045B000E0FE789AE6FD54012E900408F090047E07
:1045C000EDF0E65406FFBF0604E04440F0E521B4F8
:1045D000020A903E18E0900480F0800AE521B403BE
:1045E00005900480EBF0205F0E909000E030E30730
:1045F000E4900481F080069004817401F0900482BC
:1046000074E6F0A37402F0205306121D0A125F9E96
:104610007F0322903E057432F0E4789AF60876FF24
:1046200008F6903E087480F0C251C26CC26BC26A38
:10463000C264C267C262C255C266C263C265C26159
:1046400078B37648C25AC25FC260C250C270C258C4
:10465000C25EC25DC25C903E68120E3D000000006A
:10466000903E6C120E3D00000000903E70120E3D18
:1046700000000000903E74120E3D00000000903ECD
:1046800078120E3D00000000903E7C120E3D0000AE
:104690000000903E037410F0E4789AF6903E18748F
:1046A000C0F0903E1AF0E4903E19F0903E1BF012DC
:1046B0005697126109903E5FF09090167438F02280
:1046C000900010E05402F51FE47F01FEFDFC7889A4
:1046D000121AE670037F8422900011E020E1079017
:1046E0000018E030E74A126232EF603B900200E0CF
:1046F0006035A3E0900200121B5F702B900201E076
:10470000FF7E00900200E07C002400F9EC3402FA05
:104710007B01C002C001121C6DD001D002120F7CBF
:10472000900201E0FF80327F30121AC57F3080296D
:10473000121AC39000027401F0A3F09000057414E3
:10474000F0A37401F0E51F25E025E0240A900001A4
:10475000F090000AE51FF07F141251F57889120ECF
:1047600024000000007F03222065037F8222900046
:1047700013E0641060037F84227A047900121D1212
:10478000E4904104F0904104E030E0F9788476014F
:10479000789AE630E0037F8722E4F520121E68E075
:1047A00070270520E520B410F3121DC97B147D0786
:1047B0007C0012C00F901080E0B4AA0AA3E0B455A8
:1047C00005121D6180357F032290048074AAF0A336
:1047D0007455F0900400E0F521E4F520121E68C045
:1047E00083C082E0FFE520FDE521121EBEEF6ED002
:1047F00082D083F00520E520B410E17F0712292C38
:10480000EF6005C25B7F03227F89228E228F23E423
:10481000FD79FFFCEC640270030248AB909003ED5D
:10482000F0909004E9F090900B7401F090900BE000
:1048300030E0F990900CE0FE90900DE0FBEEF52456
:10484000EBF52590900CE0B52306E4B522027C023E
:10485000EC1460250470BDC3E5259523E52495225D
:10486000500DE970047C0180ABE9C313F980A5ED1C
:1048700025E04401FD7C01809BD3E5259523E524BB
:104880009522400FBDFF047C028089ED25E04401A4
:10489000FD80817C02E52565237004E52465227096
:1048A00003024814EDC313FD024814222065037F60
:1048B0008222900013E0641060037F84227A0279E0
:1048C000007E027F009044007402F0A37400F01296
:1048D00061AC78847601305B037F8722121DC91298
:1048E0001EA05061851320121E417B107D077C00A5
:1048F00012C00F852013900200E0FFE4F520E520B0
:10490000FDEF121EBE74002520121EAEE06EFE7476
:10491000002520F582E43400F583E06E6011D25B5F
:10492000121EF874A5F0903E11745AF07F8722058C
:1049300020E520B410C8E4903E10F0903E11F078CD
:104940009AE654FEF67F0322909016E04438F07801
:10495000ACE62401FFE433FEEF25E0FFEE33FE7DFD
:10496000FF7B017A3E7980120E9478ACE675F002F6
:10497000A4FFAEF07DFF7B017A3E79A2120E9490E7
:104980003E5F74FFF0E4F513E513C378AC96501E58
:10499000E513121DD4E0FEA3E0789FA60608F6E614
:1049A0001846600678A1A6138004051380DA125A0F
:1049B000AA12587E7F021222A1909016E054F7F0BE
:1049C000124B147E087F007D007B017A347900123F
:1049D0000E947F01122D9D909016E054CFF0E4903C
:1049E0003E5FF02278A1E6F527E527D378AC965014
:1049F0003E122B00E0F525A3E0F526C394FFE52544
:104A000094075027E526AE257803CEC313CE13D8DE
:104A1000F9122BA13EF583C083C082E0FFE5261288
:104A20002BA8F4FEEF5ED082D083F0052780BA7801
:104A3000A1E6F52778ACE6FFE527D39F5040E527B0
:104A4000B50727905DFDE07895F6909006E0FFC3EE
:104A500013905DFDF01256EC78ACE6122B02EEF0EE
:104A6000A3EFF07895E6905DFDF0122B00E0FCA33B
:104A7000E0FDE527122BC1125640052780B6228F94
:104A80002490801AE0F930E4155301EF908007E09C
:104A9000FCE4F090801AF0908007ECF08005E49040
:104AA000801AF0908005E030E7F9122D4F908005D4
:104AB000E030E7F99080007490F0908001EDF00014
:104AC0000000000000000000000000E4FC908004F2
:104AD0007401F0908002E0FDE524FEEC7A002400F1
:104AE000FFEA3E8F82F583EDF090800AE030E01A15
:104AF000908003E0FDE524FEEC2400FFEA3EFE7416
:104B0000082FF582E43EF583EDF00CBC06BF9080E3
:104B10001AE9F02278A1E6F52178ACE6FFE521D389
:104B20009F4003024BA6E521122B02E0FCA3E0F418
:104B30007002ECF4706BE521C39F500BE521122C41
:104B400010122B3D4E605A122BBF125EB88E228F70
:104B500023C3E52394FFE522940740191256EC8EF7
:104B6000228F23122BBFAD23AC22125640122BF9F9
:104B7000122B788020E52178A1667019FDAF23AE55
:104B80002212C018AD127C00120C4A122BF9F583C8
:104B9000EEF0A3EFF0E521122B02E522F0A3E523CE
:104BA000F00521024B19227898E630E6047F008058
:104BB000027F80904104EFF08513217895E6F5138C
:104BC0007BA0122CE512C00FE4908014F074021246
:104BD0002D8A122CA685F022F523E5188DF0A42548
:104BE000182522F522908016E020E0F97898E6302A
:104BF000E6047F0080027F80904104EFF090410442
:104C0000E030E0F9908040E054FEF07485122D70A1
:104C1000E523F0E522F09080067484F0908005E0B2
:104C200030E0F99080007410F0122D41E49080146F
:104C3000F08521137F0322206A037F03222053067D
:104C4000121D0A1261AC851321121DC37B117D0157
:104C50007C0012C00F852113E4F521E52125E0FF3A
:104C6000E433FE74822FF58274023EF583E0FF7414
:104C7000002521121EAEEFF00521E521B408DCE489
:104C8000FFF521E52154072400121EAEE0FE74005A
:104C90002521121E6CE06E2FFF0521E521B440E3B3
:104CA000EF7021900440E0789A30E40DE64410F66D
:104CB000909016E054FDF0800BE654EFF6909016BD
:104CC000E04402F07F03228F21E521B40209903EE7
:104CD00019E0D39402500EE521B4030C903E1BE082
:104CE000D3940240037F8922205306121D0A1261C9
:104CF000AC851322121DC3AD217C007B1112C00FA5
:104D0000852213125262E52164027024BFB00F9015
:104D10003E18E0B4B008903E19E004F08005E4903D
:104D20003E19F0903E18EFF0306C26121ECA80211A
:104D3000E521B4031CBFB00F903E1AE0B4B0089058
:104D40003E1BE004F08005E4903E1BF0903E1AEF1D
:104D5000F07F0322C299ED30E61275990D3099FD6E
:104D6000C29975990A3099FDC299800875992030C9
:104D700099FDC299ED30E01BEF75F00A842430F5FF
:104D8000993099FDC299EF75F00A84E5F02430F569
:104D9000998032EF54F0C4540FFED3940940067446
:104DA000372EFE800474302EFE8E99EF540FFED302
:104DB0009409400674372EFE800474302EFE30991C
:104DC000FDC2998E993099FDC299ED30E710759921
:104DD0000D3099FDC29975990A3099FDC29922E466
:104DE000903E21F0A3F0903E21E0FCA3E0FDC3EC57
:104DF0009402505D904102E05421600BE054FEF0BB
:104E0000903E207404805C904102E030E007903EC8
:104E1000207402804E74002DF974043CFA7B01C0AA
:104E200002C00178407C0E7D01D001D0027E007F5F
:104E300040120F7C9041037440F0904102E020E169
:104E4000F9903E22E02440F0903E21E03400F080D2
:104E500095124041E4903E20F0125EEAEF70089017
:104E60003E2004F07F00227F012212511A8F1FEF93
:104E700020E7747899E6B41014306208121AED1223
:104E80001C748004121AFBFF788D120E0C121AC3C8
:104E90009000037410F09000087402F090000AF083
:104EA000900012F07899E664017021305E1E903E09
:104EB0001CE030E0179000037408F090000AF01234
:104EC0001CD8900004120E187F0C8018788D120DDB
:104ED000F3900004120E18788D120DF390000C124E
:104EE0000E187F140251F5AF1F22E4904104F09098
:104EF0004200E05403700C904107E030E4F112549A
:104F00000180EC904200E0789830E004764080091F
:104F1000768090800AE04480F0E47881F6903E0448
:104F2000F090900AE020E72F909000E020E4289095
:104F30004104E0FF904102E04F20E00C904107E087
:104F400030E4EC12540180E7126191E4909010F08B
:104F5000909016E04401F07880760122908016E06F
:104F600020E0F9904104E020E1F97A0079007E0028
:104F70007F00123FE0900000120E3D555342537BDC
:104F8000007A007985125A25900004120E187B00D1
:104F90007A007989125A25900008120E187880E656
:104FA000B403047F0080027F0190000CEFF0740DC9
:104FB000124090904104E030E10C904102E030E07A
:104FC000F212007E80ED123FE0124086228513210E
:104FD0007895E6F513122CE312C00FE4908014F0DC
:104FE000908005E030E7F9E4908006122CA685F069
:104FF00022F523E5188DF0A425182522F5229080AE
:1050000005E030E0F9125F9E125F9E908040E05410
:10501000FEF07405122D70E523F0E522F09080007B
:1050200074E0F09080067404F0908005E030E0F9C0
:10503000122D41125F9E8521137F03221261F3120C
:105040001D84FBC3120DBC50037F8A22903E7C124C
:105050001D20121E74400A903E1AE0B4B0037F89EE
:1050600022121D1D121E933508FC903E70121D99D0
:10507000121E48206009903E70121D20121D7012F1
:10508000C006AB07EB30E7137889120E240000004E
:1050900000EB30E0037F01227F0322121D2BE50D80
:1050A000450C7004788476017F89227899A607EFF1
:1050B00014604614601524FE601E24FC604424F82D
:1050C000604024907053903E688031306205903E7D
:1050D0006C8003903E748024903E6CE0F8A3E0F96D
:1050E000A3E0FAA3E0FB903E7412401EC39BFFEEC8
:1050F0009AFEED99FDEC98801A903E7012401EFFCA
:105100008012903E7012401EFF2FFFEE33FEED33F3
:10511000FDEC33FC788D120E0C22307021903E187D
:10512000E0B4B01A121BD48003121CEBD8FBFF783A
:1051300099E67C00B50707ECB506037F85227899D0
:10514000E6FF789BE6FE5F6005EFF45E8033799CB6
:10515000E778995660037F8522205F29909000E0D0
:1051600030E310789AE620E71C4480F6789BE6440A
:10517000F6800E789AE630E70C547FF6789BE6448A
:10518000F6F67F86227F0022900010E0F520A3E053
:10519000FF1313543FF521E05403F508A3E0F5098C
:1051A000A3E0F50BA3E0F50AE5206409702BE50BFD
:1051B0006407450A6039121DC9121EA050148513D8
:1051C00021121E417B10AD0BAC0A12C00F852113BA
:1051D000801D7DFF121E2D80168513208521137BD7
:1051E00010AD0BAC0AAF09AE0812C00F8520131228
:1051F0005F9E7F03228F22E47F01FEFDFC788912EF
:105200001AE670037F8422AF22E4FCFDFE121CE24A
:105210004031904106E522F0E4904105F0904104D0
:10522000E020E1F97889305602802D120DF3C00795
:10523000AF22AB07D007C3EF9BFFEE9400121C24F4
:105240007F0322788CE6904106F0E4904105F090CF
:105250004104E020E1F97889120E24000000007F6B
:105260000322900280E0B4FF08A3E0B4FF037FC0F4
:1052700022900480E0F9A3E0FF900280E0FEA3E02A
:10528000FDEF6D7040FDEDC39F503D74822DF582A2
:10529000E43404F583E0FC74822DF582E43402F5F5
:1052A00083E0FB121EEE8002C333D8FC5962041265
:1052B0001EEE8002C333D8FC5E6203EC6B60037F9A
:1052C000B0220D80C17FB0227FA022AD07125EEA1E
:1052D000EF7006903E20048051904102E030E506D8
:1052E000E054FEF080E7904103E0540FFFBF080751
:1052F000904102E020E711123FFE904101E044019D
:10530000F0903E2074028022900E03E0B4031690C9
:105310000E02E0B5050F900E01E0B40608900E00F5
:10532000E064806009903E207402F07F0022123F0A
:10533000EB7F012212511AEF70607899E6640170D8
:1053400056903E1CE0FE54036401704BEE30E223A5
:10535000903E1DE0FEB401067402F07F8522EE64EB
:10536000027034903E1D7403F0903E1CE04402F045
:105370007F862230600A903E1CE04402F07F0322C8
:10538000903E1DE004F0E0D39406400BE4F0789BDF
:10539000E64401F67F85227F0322228F1AEF75F003
:1053A00004A42436F9743F35F0FA7B01C002C00131
:1053B00078E27C3E7D01D001D0027E007F04120F96
:1053C0007C851A1BE51B602B75F004A4FFAEF0244E
:1053D00032F9743F3EFA7B01C00174362FF9743FF5
:1053E0003EA801FC7D01D0017E007F04120F7C15D8
:1053F0001B80D178367C3F7A3E79E27F04122B4DB8
:10540000229090017401F090801CE0540FFFBF0FB8
:10541000F6306D0312C01EE4908007F0904107E063
:105420004420F000000000000000306D0312C01E98
:10543000904107E054DFF0904200E0540360F890A0
:105440004200E030E0117898E6B48005E490410035
:10545000F078987640800478987680E4909001F017
:105460009080077440F0228D20E4FEF52190801496
:10547000E0F522E4F523EF30E003432310EF54017D
:10548000FDC3EF9DFF908005E030E7F9AA07EAC36E
:105490009520502CEA122BEDE523F0908005E030AA
:1054A000E0F990800BE05403600FE4FF12432AAE52
:1054B00007EED3952140028E21E4F5230A0A80CE1F
:1054C000908014E522F0AF21221261F3121D84FBBB
:1054D000C3120DBC50037F8A22903E7C121D201205
:1054E0001E74400A903E1AE0B4B0037F8922121D58
:1054F0001D121E93903E70121D96121E48206009C8
:10550000903E70121D20121D7012C003AB07EB30CD
:10551000E7137889120E2400000000EB30E0037FCF
:1055200001227F0322121D2B7F8922908007E0F544
:105530002190800AE0F522125F19122D2990800A2D
:105540007401F0E4F523E523122D387895E6FD7F0C
:105550002E124A7FE52375F010A42400F97400355B
:10556000F0A801FC7A2E79007F10122C8C0523E51F
:1055700023C3940840D0908007E521F090800AE58D
:1055800022F0125F9E7F03227895E6F51312C01574
:1055900078107C5D7A3E79E67F70122C8C78807C66
:1055A0005D7A3F798C7F38122D94E47895F6789562
:1055B000E6FFC39407502BEF7F0025E0FEEF2400A9
:1055C000F974503EFA7B01C002C00178007C007D76
:1055D00001D001D0027E02122C6B125F9E789506DC
:1055E00080CC7F03227895E6FEC378AC9640037F9B
:1055F0000322903E02E0FF6024904107E030E62461
:10560000903E03E0FDC3EF9D903E02F0541F700DED
:10561000903E01E06401F0909001F080009041071D
:10562000E054BFF0903E02E04440F08513218E1319
:1056300012C00C852113BF81047F0180027F0322E9
:105640008C288D2974002FF58274503EF583E5294E
:10565000F0EF30E010E528540FC454F0122B1E5424
:105660000F4DF0800BE528540F122B1E54F04DF017
:10567000E529AE287803CEC313CE13D8F9122BA197
:105680003EF583C083C082E0FFE529122BA8FEEF20
:105690004ED082D083F022E490800AF07C02126126
:1056A00014908005E030E7F990800074FFF090805E
:1056B00005E030E7F99080007490F0E4A3F0FE90EC
:1056C00080047401F0908002E0900000F0E0B4FFEC
:1056D0001A0EBE06EAEC5407FEC454F04E90900E2B
:1056E000F00CECC3940940B67411F022E4F9905D1B
:1056F000FDE0FC905DFEE0FDAF0474002CF582E45B
:10570000345CF583E0F528F46028EDC3940850225A
:10571000ED9058469355287016ED04905DFEF0907C
:105720005DFDECF075F008A4FFAEF0EF4DFF220D2B
:1057300080D8E4FD0CEC70C009B902BC122C052223
:10574000E4903E00F0903E04F07895F608F608F6F6
:10575000D26EC26FC254C253C252903E20F0A3F028
:10576000A3F0C256C257903E10E0B4A50FA3E0B418
:105770005A0A789AE64401F6D25B8002C25BE49052
:105780003E02F0903E1CF0A3F078807601903FF04E
:1057900074FFF022E513C31354FEF52485132590FE
:1057A0003102E0F513903100E064A0601378A5E6C3
:1057B000FE08E6FFE5122524FDE433FC7B04801E91
:1057C00075F002E524A42410F582E5F03431F58368
:1057D000E0FCA3E0FD78A5E6FE08E6FF7B0412C02E
:1057E0000F85251322EF0475F004A4142436F582E6
:1057F000F58475833F75853FE0F5F01582E0FC1573
:1058000082E0FD1582E0FF1582E00586F015861521
:10581000821584E582B436F1E00586F01584E5F062
:10582000F01584ECF01584EDF01584EFF015862268
:10583000E4FF220002040610121416181A1C1E306F
:105840005052543436380102040810204080408001
:10585000102004080102003FC0FF007FBFC00040CD
:105860003F2F0000FFFFC00080807F7F7FFF00018F
:10587000020406081000800600FFAABBCCEE7E0CD6
:105880007DFF7A507900122BB87F327A3F79561219
:105890002B447F187A3E7947122C1A125794E5133D
:1058A0005403F509AF09EF7F00FEEF2400F97410EF
:1058B0003EFA7B01C002C00178007C5C7D01D00112
:1058C000D0027E01120F7C228F21E52130E0037F80
:1058D00089228513227895E6F5137898E630E60458
:1058E0007F0080027F80904104EFF07BA0122CE5C6
:1058F00012C00FE4908014F0E521122D8AF0908000
:1059000016E020E0F99080007410F08522137F03E8
:1059100022EF75F00C84FEEF75F00C84AFF0EE9082
:10592000586E93F509EEC39407500FEF90585693B5
:10593000F50BEF90586293F50A22EF5401FEF40440
:10594000F50BEFC313FD7404A805088002C333D818
:10595000FCC39EF50A221261F3900015E0FF12507D
:10596000AB121DE0121E8150037F8A22125E851247
:10597000C006AB07EB30E7137889120E2400000055
:1059800000EB30E0037F01227F0322121D2BE50D87
:10599000450C7004788476017F8922126232EF60B0
:1059A00032900300E0602CA3E0900300121C32123E
:1059B0001B6D701F900301E0900300121BFEC002DC
:1059C000C001121C6DD001D002120F7C900301E0C7
:1059D000FF80097E007F22121AC77F221251F52212
:1059E000126232EF6032900302E0602CA3E0900379
:1059F00002121C32121B6D701F900303E090030211
:105A0000121BFEC002C001121C6DD001D002120F89
:105A10007C900303E0FF80097E007F24121AC77F79
:105A2000241251F522EB700CE7FF09E7FE09E7FDB0
:105A300009E7FC2214701089828A83E0FFA3E0FE4C
:105A4000A3E0FDA3E0FC22BBFE0CE3FF09E3FE099B
:105A5000E3FD09E3FC2289828A83E493FF740193C6
:105A6000FE740293FD740393FC227E027F00121ADF
:105A7000C7E4FF7E02FDFC121CE240157889120D7E
:105A8000F3C3EF9400FFEE9402121C24125F9E8079
:105A9000E0788CE6904106F018E6904105F07889B0
:105AA000120E24000000007F03227F207A3F793607
:105AB000122AF77F507A3E79E6122AF77F387A3F2A
:105AC000798C122B44E4F514E514122BCAE514F07A
:105AD000122ACB122B71E514122ACB122B99122BFE
