:020000020000FC
:100000000263740216EE0217070217340217460243
:1000100017B102183C0218CE0218DF0218F20219BA
:100020000502191102191E02192A02193602194F66
:100030000219800219AC021A9402000002000002A8
:1000400056C30240A70200000200000243B00200B3
:1000500000020000024C720259CB023DF4025A1019
:100060000256080260580258600200000262C7028D
:1000700062DE025D20024F1E0200000258110200E3
:1000800000026276025F77025DC70261160260F3CA
:100090000262AE026081025C3A0242F20257C10281
:1000A00024900258AE02501B025E79904102E0306B
:1000B000E505E054FEF022904103E0540FFFBF0835
:1000C00007904102E020E706123D49020863123D15
:1000D00036900E41E02402605214603114B40B00DB
:1000E00040030208639000ECF828287302015402D0
:1000F00001D702086302025C02086302036502037F
:100100008502086302080502080F02084E900E409F
:10011000E064217013900E44E0700D123D95123D85
:1001200051123D2B123DD222020863900E40E06432
:10013000A1701E306104F002085CA263E433FFA2E8
:1001400062E4332FFFA267E4332F900E40F00208E1
:100150005C020863900E40E0247F601014601E244F
:1001600002706A907200E0900E408058900E44E059
:100170007008900E40F0A3F08056020863900E4481
:10018000E014601E2481600824FE60282482703AF6
:100190007881E630E0047F0180027F00900E40EF1E
:1001A00080227881E630E2047F0180027F00900E99
:1001B00040EF80107881E630E4047F0180027F0008
:1001C000900E40EFF0E4A3F080060208630208639B
:1001D0009041037402F022900E40E07019900E429C
:1001E000E0B4010F907200E054FDF0904107E0543C
:1001F000FBF022020863900E40E06402705B900EF8
:1002000042E07052900E44E0146020248160082483
:10021000FE602C2482703C7881E654FEF690410109
:10022000E04402F0E054FEF00203617881E654FB02
:10023000F6904101E04408F0E054FBF002036178DD
:1002400081E654EFF6904101E04420F0E054EFF0F5
:10025000020361020863020863020863900E40E033
:100260006003020311900E42E06402600302030E79
:10027000900E44E0600302030EA3E0700302030E3D
:10028000E0C39405400302030B903C5074F3F090DC
:100290000E45E0B4040312C01E903C5074FF123DA2
:1002A00051904102E0544170F8900E45E024FE6008
:1002B0001214601714601C2403704E904201748362
:1002C000F080469042017485F0803E9042017407B0
:1002D000F0803678007C007D017BFF7A38797F7E64
:1002E000007F35121A94306D09903C5074F2F01270
:1002F000C01E904104E020E1F9123D2B7435123DFF
:10030000DC9042017409F080E980FE020863020873
:1003100063900E40E064027045900E42E0703C90A5
:100320000E44E01460142481600824FE601B2482C3
:1003300070267881E64401F680277881E64404F649
:10034000904101E04404F080187881E64410F69072
:100350004101E04410F080090208630208630208CA
:1003600063123D5222123D52904102E0544170F816
:10037000900E42E0904100F0904107E054FDF0E41F
:10038000907204F022306D449090107401F09090BF
:1003900016E030E31678A1E6F51512C0457F02128B
:1003A000C048909016E054F7F0801C78A1E625E054
:1003B00024A2F582E43472F583E0FEA3E0FFBEFFE1
:1003C00006BFFF0312C03CE4909010F0900E43E093
:1003D00024FE606D14700302045924FD6011146042
:1003E0006024F87003020797240E60030207D530DB
:1003F0006B15123D69500B7B1012086B7006C26BB7
:100400008002C26B852115306B117A007900123D94
:100410008D123D2E9072097404800B123D5A903754
:10042000D5E493907209F090720A7412F0900E4322
:10043000E0640660030207D890720A740AF00207AB
:10044000D890720B74FFF0A37437F074B5123DB7F7
:1004500090720A7420F00207D8306B15123D695073
:100460000B7B1212086B7006C26B8002C26B852177
:1004700015306B0C123D897404F0A37400F08003F6
:10048000123D5A900E42E012198004A90004B701EF
:1004900004D10204EF03051904054780059982067B
:1004A000268307818600000794123D5A9037D712A1
:1004B0003DBF9037D88059306B0C9072097416F09C
:1004C0009004020207CB9037D9123DBF9037DA80F3
:1004D0003F306B10900402E02416907209F09004F3
:1004E000030207CB9037DB123DBF9037DC80213011
:1004F0006A157A047980123D8D7404F07480123D7F
:10050000B79004800207CB9037DD123DBF9037DEF5
:10051000E49390720AF00207D89004007404F0A3E8
:1005200014F090720FE0900402F090720EE09004CC
:1005300003F0123D897404F0A37400123DB8907268
:100540000A7404F00207D8123DE6248E601424FDDC
:10055000601724DB601A24187020123D04125BFF20
:1005600080117F0212621E800A7F021245138003EF
:10057000122675907220EFF08009124CFDC25312C2
:100580003DED22C253907220E0B40303024CFD12F1
:100590004CFD9072207405F022123DE6248D6050CF
:1005A00024F0604324ED605E24FB604C24A360676C
:1005B00024FE605A24D06003020756900E47E030B4
:1005C000E1127E027F007D007B017A04790012191E
:1005D000AC0206D6900E45E0907224F0900E46E0F4
:1005E000907223F0020727123D04125EE302074FC8
:1005F0007F02125B0C02074F900E45E0900401F061
:10060000125D9002074FE4FF12367A02074F123D47
:10061000A6125A9102074F9000747451F0123DA631
:1006200012615C02074F123D81E4907221F0A3F049
:10063000C3907221E0940250447F8412540DEF6005
:100640003C900E45E0FF907221E0FCA3E0FD240009
:10065000F58274043CF583EFF0900E44E0FF7401E2
:100660002DF58274043CF583EFF012623C90722207
:10067000E02402F0907221E03400F080B3C3907265
:1006800021E09402500302086A7F8512540DEF7036
:100690000302086A124CFDEF700302086A7F8112A0
:1006A000540DEF700302086A123DE6248F700302B6
:1006B000073424FD700302073B24F3606F24E870C5
:1006C0000302074224FC700302074C24A86078242C
:1006D000CB6003020756900E45E05407F508A3E0EF
:1006E000F509907224E0F50A907223E0F50BE4F529
:1006F0000C900E45E054F0F50DE030E316123D1D70
:10070000250BF50BEE350AF50AED3509F509EC3543
:1007100008F508E50D7003750D019072207480F0E6
:1007200012C006EF30E734123DED802F123D041267
:1007300060A8801B7F02125ACF80147F02124B598F
:10074000800D122FFE8008123AF78003124AC990DA
:100750007220EFF08005123DED8012907220E0B41F
:1007600003047F0080027F05907220EFF0C25312D5
:100770003D81125F48EF600302086A90722004F026
:1007800022907220E0900E40F0E4907220F09041B0
:100790000304F022020863306C38907000E0640DAE
:1007A0007030A3E06406702AA3E0B40525A3E0B48A
:1007B000062090700AE0601A90720B74FFF0A37428
:1007C00038F0A374B4123DB8900E46E090720AF06F
:1007D0008006020863020863900E47E07015900ED1
:1007E00046E0FF90720AE0D39F4008900E46E090EA
:1007F000720AF090720AE07004123D8122900E435A
:10080000E0FF0232B2907204E0900E40F0804D1290
:100810003D95F0900E42E0B4011A9072047401F01C
:10082000904107E04402123D51E4909001F0909015
:100830000704F022900E42E07012907204F0904192
:1008400007E054FD123D5190900180138015900EE9
:1008500044E07006900E40F08002800790410374DF
:1008600001F022904101E04401F0227D017C001260
:10087000C00FEF4E22C26DC269125FD19080097421
:10088000ACF0E47892F6122135C259E4908040F041
:1008900012222A12625A1221C290800AE04410F0F9
:1008A00090801AE04401F0908005E030E7F91220D2
:1008B000D57430F0E4F516908005E030E7F99080CB
:1008C000147450F0E4908006F0908005E030E0F978
:1008D000908067E030E018E51670110516908000F2
:1008E0007405F0E41220DA74E0F080CB12212EE4DB
:1008F000FD7F6E124232E4F516906E00E06498605F
:1009000005E06445701C751601906E02E030E358F6
:10091000122231D394045005E05407704B43160261
:100920008046906E00E064EC703E751604906E0296
:10093000E030E31C122231C39404401443160890A3
:10094000801AE030E00A122231FFBF05034316107F
:1009500090801AE030E011906E01E0700BA3E0701F
:1009600007A3E07003431610E47894F612222A904D
:10097000800AE05490F090800974AC1221C19080FC
:1009800005E030E7F912218CE51630E42690800569
:10099000E030E7F912211B7410F07E007F087D0023
:1009A0007B017A8079801219AC1221CA908005E00F
:1009B00030E0F97894E6FF124A37908005E030E79E
:1009C000F9E51630E10690800074A2F0E51630E3F8
:1009D0000690800074DAF0E412211D12216F743049
:1009E000F07894E67014908005E030E70D7892E698
:1009F00030E10778947678020EBA752210752300DC
:100A00007F1012213D908005E030E7F9E516540390
:100A100060109080007405F0E490800112216F74E2
:100A2000E0F07891761C12223812223F908005E087
:100A300030E7F9020E277891E6167003020EAE90A9
:100A40008005E030E0F9908067E030E003020EAE10
:100A500090800BE020E107908005E030E10D12224C
:100A60003F908005E030E7F9020E27122246E0B4FD
:100A70000DC4A3E0B406BF122246A3A3E0B405B69A
:100A8000122246A3A3A3E0640670ABE5232404125C
:100A90002035643070A0E5232407122035645160AE
:100AA0000A90900AE030E403020EABE523240D1215
:100AB00020356006547790900EF0E523240E122026
:100AC000356006C313FF125BC3E523240C122035E7
:100AD000FF600CE4909002F0EF12220D12224DE51F
:100AE0002324101220359073F5F0122031B401291F
:100AF000AA22A9237B01C002C00178007C707D017D
:100B0000D001D0027E027F00121A941242F2EF70DE
:100B100003020EAED26D020D96122031FF70030259
:100B20000D96E52324111220357005EF640470330F
:100B3000AE08AF09AA22A9237B01C002C001780038
:100B40007C147D01D001D002121A949073F67414B3
:100B5000F0A37400F0E523241E122035FEA3E0FF6D
:100B60001221041220316404603EE5232414122073
:100B700035FF125C3AE523241512203590801A6067
:100B800006E04480F08004E0547FF0E52324201246
:100B90002035122201E5232416122035FB7D501248
:100BA0002490EF7003020EAE122031640260030243
:100BB0000CA090800BE020E604E030E514750B01FA
:100BC00090800BE030E605750802800B1222388019
:100BD00009750B02750804750900E5232419122014
:100BE00035B40103122111E47891F6E5232416129D
:100BF00020351222544003020C8CE52324171220C6
:100C000035FEA3E0FFC39509EE950850048E088FCA
:100C100009AE08AF09C006C0077891E67F0025E05D
:100C2000FEEF2400F974503EFA7B01C002E5232454
:100C30001A122035FEA3E0AA06F8AC027D01D0020C
:100C4000D007D006121A94E523241AF582E435223F
:100C5000F583E5088509F012179BE5232417F58233
:100C6000E43522F583C083C082C3A3E09509FF0564
:100C700082D5820215831582E09508D082D083F058
:100C8000A3EFF07891E50B26F6020BEBE523241990
:100C900012203564016003020D811221BA020D8118
:100CA00090801AE04480F09080607401F0E5232485
:100CB00017122035908064F0E4908092F0E52324B0
:100CC00018122035908065F0E47891F6E52324220F
:100CD00012203512225450371221D71220959080BD
:100CE00066F01221D7122095FFE6FEE523241112AB
:100CF000203575F005A42EF582E435F0F583E58204
:100D00002400F582E5833414F583EFF00680BDE41A
:100D1000F508F5091220319073FCB403097450F002
:100D2000A37400F08027E522F0A3E523F09073FC84
:100D3000E0FEA3E02414F582E43EF583E0FEA3E0A8
:100D4000FF9073FDE02FF09073FCE03EF0E47891AB
:100D5000F6E5232419122035122254501B1220E6E6
:100D600070069073FCE004F01220E670069073FCAD
:100D7000E004F078910680D990806174FFF0122130
:100D8000C1E523241C122035FEA3E0FF4E6007AA14
:100D900006A9071219A6E523240A122035FEA3E0AE
:100DA000D39413EE94005003020E40E523240F1257
:100DB000203578916003F68002761CE52324081222
:100DC0002035FF125C3A90800BE020E604E030E52D
:100DD00014750B0190800BE030E605750802800B5E
:100DE0001222388009750B02750804750900E52385
:100DF000240912203590801A6006E04480F08004B7
:100E0000E0547FF07F0512213DE523240A122035AE
:100E1000122201AB0B7D50122490EF701212223F70
:100E2000908005E030E7F9E4908006F0020A36AEE3
:100E300008AF09A823AC22122125121A94020A36FF
:100E4000306D6B1220316401705E90719FE0B4517F
:100E500008D2599080407401F01233FEE490900261
:100E6000F0907192E07004A3E0601D90700CE0546B
:100E700070909005F0907192E0FEA3E0FF1248FAA6
:100E80009090057490F0800690700C12220C122243
:100E90004D907121E0B45102D26990901EE044401F
:100EA000F012C000E47883F67F01227F002278945C
:100EB00006E6C39478500302096C789206E6C39460
:100EC00004500302088612212EE47892F612625A28
:100ED000908005E030E7F912218C908005E030E742
:100EE000F91220D57430F0908005E030E7F978925F
:100EF00006E6C3940440D67F0022E4F52190001159
:100F0000E0600A900010E020E0037F832290001050
:100F1000E05401900401F0900011E0900400F09082
:100F20009016E05418FFBF100F306D0CE4FF12C094
:100F30003F909016E054EFF02056432057407888B9
:100F4000E6600A7987E77886461846601E7F457E08
:100F5000407D357C747885121E13600F7F427E4978
:100F60007D4F7C537885121E137002D2567885E629
:100F7000600C7988E778874618467002D257306748
:100F80005620585320570330564D205D4A20611596
:100F9000A262E4332401FFE433FE7883E6FDB50763
:100FA0000AE4B506067899760180253064119072BE
:100FB00018E07899B4B0047610801576028011EDAF
:100FC00014FF7402A807088002C333D8FC7899F68E
:100FD0007899E6FF124F9F306B18851520121F5C21
:100FE0007B107D017C0012C00FEF4E7002C26B853A
:100FF00020157899E6FFB40127121FD47462F0A37C
:101000007492F0206B0302109E900120E064AA60AD
:101010000302109E7B017A01792290720B048059A1
:10102000306B61900002E07C002416F9EC3400FA89
:10103000A3E029F9EC3AFA90720B7401F0A3EAF0FC
:10104000A3E9F0EF5414601B900140E0B4AA147AB5
:1010500001794290720B7401F0A37401F0A3744201
:10106000F0803B7899E6B40835900120E0B4AA2ED0
:101070007A01792290720B7401F0A37401F0A374C9
:1010800022F0801A9037DFE493907209F07E0024FA
:10109000D5F9EE3437FA121FD4EAF0A3E9F0E49060
:1010A0000000F07899E6640170372060237888E6C4
:1010B0006405701C18E6B48F1718E6B4931218E68E
:1010C000B4840DE4F0A3F090721CE054FEF08011A3
:1010D0009000007405F0A37480F090721CE044014D
:1010E000F0306D117412121FA674E1F012C01E12BE
:1010F0002019600122900401E0700302124A90045A
:1011000000E0900001F0900400E02480602224FDC3
:1011100070030211D524836003021247E490000299
:10112000121E997480F0A37483F07521070212F6E1
:10113000E4900002F0306A227B017A00798090729C
:101140000B04F0A37400F0A37480F0E4907209F033
:10115000900080E090720AF0801C121FD47437F067
:10116000A374D5F09037DDE493907209F09037DEE8
:10117000E49390720AF090720AE0900003F0E4FFAA
:1011800090720AE0FEEFC39E5029121FDC90720994
:10119000E0FD7C00E92DF9EC3AFAEF29F9EC3AFA96
:1011A0001216EEFD74032FF582E43400F583EDF0A2
:1011B0000F80CD900003E030E010E004F074032EC7
:1011C000F582E43400F5837420F0900003E02404F9
:1011D000F5210212F6E4900002F0A37432F074F2EA
:1011E000121E9CF0A37405F0A37430F0A37435F0C4
:1011F000A37438F0A37446F0A37420F0A374F2F043
:101200007401121F55740D121ECB7420F0A3F0A3AD
:10121000121ECB74F1F07402121F557408122020B4
:10122000121E9C121FE8E4A3F0A374F1121E99741D
:1012300008F0A37420F0E4A3122020A3F0A3121F4F
:10124000E87521360212F67F83229000017480F047
:10125000A37404F0A37402F0A3741FF0E4A3F0A33A
:10126000F0A3F0F520121FDC852082758300121791
:1012700007FF74082520F582E43400F583EFF005BC
:1012800020E520B420DF306B6A3055032056033050
:101290006605E4900001F07520017899E6FFB4013D
:1012A000089000237430F080383066089000237472
:1012B00035F0802D3065089000237436F0802230A0
:1012C00064089000237437F08017306311EF9000AA
:1012D00023B408057439F080087438F08003E4F50D
:1012E00020E520600E9000207438F0A3742EF0A347
:1012F0007430F0752124AF211252CB22900012E0FD
:101300007895F6A3E0F508A3E0F509900015E0F55F
:101310000AA3E0F50B78891219360000000090004E
:1013200019E0B45106A3E0900010F0900010E01214
:101330001980139600145301145B02146903146C92
:1013400004158A05146F06147207147B08147509B6
:10135000147E0A14810B14840C14950E15FB1014C2
:101360009811149B1215311316301B163D1C165381
:101370001D16C41E16DD1F16E32013992113992292
:1013800014122314122415842815872A157B80151E
:101390008181000016EB02554390800BE054FC78ED
:1013A0008CF690800AE018F6900011E018F6900094
:1013B0001AE090800BB451057440F080037420F063
:1013C000E4900011F0125CAE788AE6900011F09083
:1013D0000010E0B42108A3E0FF122B85800E122438
:1013E000121262DE900011E0FF1250967889A60773
:1013F000788CE690800BF018E630E0047F018002E4
:101400007F00900011EFF0125CAE908009E054FD77
:10141000803B90801AE05480788CF6E0547FF09006
:101420000010E0B42408A3E0FF122B85800E1224E4
:10143000121262DE900011E0FF1250967889A60722
:1014400090801AE0FF788CE65480FEEF4EF07889A9
:10145000E6FF22900011E0FF022B85122412126297
:10146000DE900011E0FF025096026200024E12026E
:101470004D88024710125CAE7F03220261A0023148
:1014800062025F187895E6FF5470FEEF54074E90A5
:10149000900E0216E7023BFF025C74E5086025E44B
:1014A000F521E521C3950B400302152E1222AA1245
:1014B00062AEE5211223E87B01A807FC0D12237818
:1014C000052180DE1262AEE5096056E4F5211224A2
:1014D0005A505B74022FF9EE3400FA7B01C001749C
:1014E000002FF582E43400F583E07D00FC7895E67A
:1014F000FEED2400FFEE3CFE74012521F582E4346C
:1015000000F583E07C002FFFEC3EA907A807FC0D47
:10151000D0017E007F01121A9474032521F52180E9
:10152000AD7895E67800FC7A0079001223747F0389
:1015300022E50945086028E4F52112245A5039EFC4
:101540001223E8FAA9077B01C002C00178007C00E1
:101550000DD001D0021222A3126081052180DB7818
:1015600095E6FA79007B01C002C001122489D001FE
:10157000D0021223781260817F03221222EC025AD9
:1015800091026347025B490258FA7D0012240590DC
:1015900000007478F0A37404F09000037407F0E482
:1015A000F521AF21124A37E52175F004A4AEF024ED
:1015B00010F50DE43EF50CFE7400250DF582740067
:1015C0003EF583E521F07401250DF58274003EF5AA
:1015D00083E509F07402250DF58274003EF583E57C
:1015E0000AF07403250DF58274003EF583E50BF0D7
:1015F0000521E521C3947840A98052900011E0F5BF
:1016000021AF211521EF6025AE08AF09E42FFFE4DB
:101610003EFAA9077BFFC002C001122489D001D085
:10162000021222A31260810508050880D47F0322DC
:1016300078007C007A70790012237480101224895B
:101640007B007A0079007E017F00121A941260817B
:101650007F0322900011E0600BD259908040E0445B
:1016600001F08009C259908040E054FEF0E508B4D2
:101670005105AF09125C3AE50A64517044E50B303C
:10168000E00790801AE04480F0E50B30E10790809D
:101690001AE0547FF0E50B30E20790801AE0440135
:1016A000F0E50B30E30790801AE054FEF0E50B30D4
:1016B000E4057F0112C057E50B30E505E4FF12C0D9
:1016C000577F0322900011E090800A6006E04402F8
:1016D000F08004E054FDF01233FE7F0322125CE739
:1016E0007F0322E4909012F07F03227F8322BB01CC
:1016F0000689828A83E0225002E722BBFE02E322AF
:1017000089828A83E49322BB010CE58229F582E574
:10171000833AF583E0225006E92582F8E622BBFEF3
:1017200006E92582F8E222E58229F582E5833AF589
:1017300083E49322EF8DF0A4A8F0CF8CF0A428CE00
:101740008DF0A42EFE22BC000BBE0029EF8DF0848C
:10175000FFADF022E4CCF875F008EF2FFFEE33FE7A
:10176000EC33FCEE9DEC984005FCEE9DFE0FD5F0B1
:10177000E9E4CEFD22EDF8F5F0EE8420D21CFEADBA
:10178000F075F008EF2FFFED33FD4007985006D5B8
:10179000F0F222C398FD0FD5F0EA22C5F0F8A3E0DD
:1017A00028F0C5F0F8E582158270021583E038F064
:1017B00022E88FF0A4CC8BF0A42CFCE98EF0A42CB2
:1017C000FC8AF0EDA42CFCEA8EF0A4CDA8F08BF0FE
:1017D000A42DCC3825F0FDE98FF0A42CCD35F0FCFC
:1017E000EB8EF0A4FEA9F0EB8FF0A4CFC5F02ECDC8
:1017F00039FEE43CFCEAA42DCE35F0FDE43CFC22AD
:1018000075F008758200EF2FFFEE33FECD33CDCC9F
:1018100033CCC58233C5829BED9AEC99E582984022
:101820000CF582EE9BFEED9AFDEC99FC0FD5F0D6FF
:10183000E4CEFBE4CDFAE4CCF9A88222B800C1B929
:101840000059BA002DEC8BF084CFCECDFCE5F0CB67
:10185000F97818EF2FFFEE33FEED33FDEC33FCEBA0
:1018600033FB10D703994004EB99FB0FD8E5E4F95B
:10187000FA227818EF2FFFEE33FEED33FDEC33FC48
:10188000C933C910D7059BE99A4007EC9BFCE99A3C
:10189000F90FD8E0E4C9FAE4CCFB2275F010EF2F81
:1018A000FFEE33FEED33FDCC33CCC833C810D70781
:1018B0009BEC9AE899400AED9BFDEC9AFCE899F8BC
:1018C0000FD5F0DAE4CDFBE4CCFAE4C8F922EB9FC3
:1018D000F5F0EA9E42F0E99D42F0E89C45F022E8EE
:1018E000600FECC313FCED13FDEE13FEEF13FFD8F6
:1018F000F122E8600FEFC333FFEE33FEED33FDEC72
:1019000033FCD8F122E6FC08E6FD08E6FE08E6FF17
:1019100022E6FB08E6F908E6FA08E6CBF822ECF640
:1019200008EDF608EEF608EFF622ECF0A3EDF0A3D2
:10193000EEF0A3EFF022D083D082E493F608740196
:1019400093F608740293F608740393F6740473A86C
:10195000828583F0D083D08212196612196612191B
:1019600066121966E473E493A3C583C5F0C583C802
:10197000C582C8F0A3C583C5F0C583C8C582C82287
:10198000D083D082F8E4937012740193700DA3A3F6
:1019900093F8740193F5828883E47374029368600A
:1019A000EFA3A3A380DF8A838982E473EF4E6012E2
:1019B000EF60010EEDBB010B89828A83F0A3DFFC8F
:1019C000DEFA2289F05007F709DFFCA9F022BBFEFE
:1019D000FCF309DFFCA9F022E709F608DFFA8046EC
:1019E000E709F208DFFA803E88828C83E709F0A3DA
:1019F000DFFA8032E309F608DFFA806EE309F208C5
:101A0000DFFA806688828C83E309F0A3DFFA805ACC
:101A100089828A83E0A3F608DFFA804E89828A836E
:101A2000E0A3F208DFFA804280D280FA80C680D438
:101A3000805580F28029801080A680EA809A80A854
:101A400080DA80E280CA802988848C8589828A83B2
:101A5000E493A30586F0A30586DFF5DEF3800B890A
:101A6000828A83E493A3F608DFF9ECFAA9F0EDFB90
:101A70002288848C8589828A83E0A30586F0A30569
:101A800086DFF6DEF480E389828A83E493A3F2089A
:101A9000DFF980D688F0EF60010E4E60CD88F0ED62
:101AA0002402B4040050C3F582EB2402B4040050B5
:101AB000B92323458223901A2873E4909001F0E023
:101AC0007003021D58E490900FF078B37648909020
:101AD0000704F0909030E04401F0909001E024FE83
:101AE0007003021B7C24F77003021BE4240224FC15
:101AF0004003021B9F7003021BDC147003021C6D69
:101B0000147003021C60240E6003021D3D12603934
:101B1000904102E030E7F9904102E030E0F9E4F56D
:101B200014E51490638893FF74002514F582E4345F
:101B30000EF583E06F6003021D3F0514E514B40841
:101B4000E0900E407411F0A37422F0A37433F0A35C
:101B50007444F0A37455F0A37466F0A37477F0A3F3
:101B60007488F0E4904102F0A37408F0904102E020
:101B700020E1F99090017401F0021D3D126039904E
:101B80004107E030E4F990801CE0540FFFBF0FF6EE
:101B9000E4908007F0904107E04420F0021D3DAF43
:101BA0000BAE0AAD09AC08C006C007AE0CAF0DAB5A
:101BB00007AA06E4F9F8D007D00612183C8F0B8E5E
:101BC0000A8D098C08AF0BAE0AAD09AC08780A1271
:101BD00018DF8F0B8E0A8D098C0880FE90800B74A5
:101BE00008F08005E490800BF090800A7410F012E9
:101BF0006051E4F5161261E0E478B4F6F515E4906E
:101C00008006F0908005E030E0F990800BE054030E
:101C10006005E4FF1240A70515E515C3940240DEF8
:101C200090800A7411F090800774FFF0751602120C
:101C300063207514021260CF1261E090800774C0B7
:101C4000126032908005E030E0F990800BE05403A0
:101C500060047F0080027F01909001EFF0021D3D43
:101C600090801AE04401F090800A7411F0E49090A2
:101C700002F09090057430F09090027401F0000032
:101C80000000909001E0B40E05E490800AF012602C
:101C90005190800B7404F0908005E030E7F990805B
:101CA0000074FFF0908005E030E7F9E4908000F0E8
:101CB000A3F0F0F0F0909001E0B40F05E490800103
:101CC000F09080007430F0908005E030E7F97410F7
:101CD00012602F908005E030E0F9741412602F90AC
:101CE0008005E030E0F99080147418126032908022
:101CF00005E030E0F9908014741C12603290800589
:101D0000E030E0F99080157455F074AAF0908014DA
:101D10007410F0E4908022F0A37405F090801774A2
:101D200008F090801674C0F0908016E020E0F990E2
:101D300080157477F0E4908023F002D00080FEE4F8
:101D4000909001F0E0B4780EE4FDFF124F1E12C037
:101D50004BE4FF12581180FE759852758921758DDC
:101D6000FFD28EE4F58CF58AD28C4387807898F682
:101D70007599559090107408F0909030E054FEF0F2
:101D800090900174FFF012510B90900AE020E70749
:101D9000909000E030E449909016E030E0179073A6
:101DA00088E0B45110A3E0B4460BA3E0B45706A3F7
:101DB000E064546026124465126139909016E04444
:101DC00001F09073887451F0A37446F0A37457F037
:101DD000A37454F0E4909010F080091261398008E7
:101DE000124465E490900FF0E4909010F002466980
:101DF0007F147E007D007B017A0079000219ACE53A
:101E00000D250BFFE50C350AFEE43509FDE4350828
:101E1000FC788D121911C30218CEE0FCA3E0FDA3DB
:101E2000E0FEA3E0250BF50BEE350AF50AED3509CA
:101E3000F509EC3508F50822788D121905EF24FF15
:101E4000FFEE34FFFEED34FFFDEC34FFFC900000AC
:101E500002192AFFE02FFFE433FE74002FF582748D
:101E6000023EF583E064AA22908017E0250DF50D6F
:101E7000E4350CF50CFE7809AF0DE4FCFD1218F208
:101E8000788922AF0BAE0AAD09AC0878021218F2BD
:101E90008F0B8E0A8D098C0822F07403A3F0E4A343
:101EA000F0A322C2547A0079007E007F00904400A3
:101EB0007400F0A37400F0E4904104F0229041011A
:101EC000E04410F07881E64410F622F0A37441F06B
:101ED000A3744CF0A37443F0A3744FF0A37452F0B6
:101EE000A32274002521F582E43402F583E02290D8
:101EF0009002E0FF907203E054604480FEEF4E9049
:101F00009002F022A25CE433FF74047E00A807086C
:101F100022E0FCA3E0FDA3E0FEA3E022AE0CAF0DA7
:101F2000E4FCFDFB7A02F9F81217B1788922FF7EF2
:101F300000E07C002400F9EC3402FA7B01227800F6
:101F40007C007D0122FF7E00E07C002400F9EC345F
:101F500003FA7B0122A3F0E4A3F0A322907105E031
:101F6000F515907206E0FEA3E0FF22FEED9400FD61
:101F7000EC9400FC788902191EFFE02FFFE433FE89
:101F800074002FF582740322904107E054BFF09053
:101F90007202E04440F02274012521F582E434020B
:101FA000F583E0240222907215F09072167401F00D
:101FB000903C50229000027480F02278957605784B
:101FC000962278957602789622AB0BAA0AA909A8E0
:101FD000080218CE90720B74FFF0A32290720BE0EF
:101FE000FBA3E0FAA3E0F9227405F0A37408F0A3C0
:101FF000740FF0227D017B017A0079117E00227836
:102000008D12190578020218DF7889121911D3028E
:1020100018CECEA2E713CE13227880E6FF64022208
:10202000F0A37449F0A37445F0227895760678966B
:1020300022E5232405F582E43522F583E022121AF5
:10204000947A0079007E007F009044007400F0A331
:102050007400F022AF187E0078A4E6FAFD7C00122E
:1020600017347891E625E02427F582E43472F5836D
:10207000EEF0A3EFF0E5198AF0A4FFE625E02427AF
:10208000F582E43472F583227885E6FFE5252404A1
:10209000F582E43524F583E5822FF582E43583F576
:1020A00083E0227895E6F5157BA0AD0BAC0AAF096D
:1020B000AE0822789DE0FEA3E0A60608F622E5140D
:1020C000FD7C00AE0AAF0B0217467E027B017A0050
:1020D00079000219ACE4908000F0908001F0F0F0FB
:1020E000F0F0908000229073FCE0FEA3E0F5828E79
:1020F00083E0908061F09073FDE004F022852582FA
:10210000852483229073F7E02FF09073F6E03EF081
:10211000229080157455F074AAF02274EF9080001C
:10212000F0908001227D017B017A5079002290801D
:102130001AE054FEF090800AE05480F0227E007D88
:1021400000AA22A9237B010219AC7A0079009080B1
:10215000147400F090800674E0F02278A5E0FEA3ED
:10216000E0A60608F6227D017B017E00021A94F0AB
:10217000F0E50BF0E50AF0E509F090800022908090
:1021800040E0FFA259E433FEEF4EF022908000744D
:10219000FFF022EA25E024C0F582E43461F58322D1
:1021A000E518C313F518E519C313F51922E05470A7
:1021B000FFE054074F90900EF0229080157477F056
:1021C00022F090801AE0547FF0229080907408F002
:1021D0009080067489F022E6FFE5232423F582E44B
:1021E000352222908040E054FEF022E0FCA3E0FD86
:1021F000F5828C83A322EBC31378B2F678A406E6AB
:1022000022FEA3E02523FFEE3522FE22E0440190CA
:102210009005F022908017F090801674C0F022256F
:10222000E0FEE42400FFEE34A02290800B7420F046
:1022300022906E05E05407227508007509802290EF
:1022400080147410F02285238285228322909002CC
:102250007401F022FF7891E6C39F227898E65480BB
:10226000904104F0227A0479007E047F00904400BB
:102270007404F0A37400F022907274E0FCA3E0FDFB
:10228000A3E0FEA3E022908017E0250DF50DE435D4
:102290000CF50CFEAF0DE4FCFD78091218F27889FC
:1022A00002191E7E027F00121A947A0079007E00C5
:1022B0007F009044007400F0A37400F022E490804A
:1022C00014F0900016E0F50CA3E0F50D78911219CA
:1022D000058F0B8E0A8D098C08E50D250BFFE50C8B
:1022E000350AFEE43509FDE43508FC22900010E0D3
:1022F000900074F0900011E0900075F0900012E0F2
:10230000900076F0227DFF7E027F007B017A0479C7
:10231000000219AC250BF50BEE350AF50AED35096F
:10232000F509EC3508F50822250BFFEE350AFEED20
:102330003509FDEC3508FC907270E0F8A3E0F9A3D4
:10234000E0FAA3E022907105E0F515907206E0FE38
:10235000A3E0FF22F0A261E433A3F0A25DE433A383
:10236000F0A258E433A3F0A250E433A3F0A270E447
:1023700033A3F0227D017B017E027F00021A94903C
:102380000011E0FCA3E0FDA3E0FEA3E0FF789112C2
:102390001911C30218CEF0A266E433A3F0A263E4DD
:1023A00033A3F0A265E433A3F0A267E433A3F022E1
:1023B00025E024C2F582E43472F583222FF50BEA7E
:1023C0003EF50AE93DF509E83CF5082275F002EF13
:1023D000A42400F582E5F03405F58322740025215C
:1023E000F582E43404F583227D0025E0FC7895E64F
:1023F000FEED2400FFEE3C22FFAB0BAA0AA909A8C0
:1024000008C30218CE7E027F007B017A00790002A9
:1024100019AC900017E0FEA3E0FF22904106740D76
:10242000F0E4904105F0D25422789BE644F6F6227F
:10243000C394FFEE940722907105E0F51522F58212
:10244000E43402F583229000747451F0A3222DFD30
:10245000E4338D82F583E493FE22AF217E00C3EF47
:102460009509EE95082290000DE07883662204F02D
:10247000A264E433A3F0A322907218E064B022EDCA
:102480005407FA7401A802082278007C007D01221A
:102490008E248F258D268B277529FF8F828E83E0D2
:1024A000540F640C60037F0022E47887F61220FD4D
:1024B000E0540F640C6003022672E529B4FF069015
:1024C00073F5E0F529E527600B7887E6C39527408B
:1024D000037F00221220FDA3E0C4540F12625D129C
:1024E00020FDA3A3E0540F7888F61220FDA3A3A338
:1024F000E0F528908005E030E7F9E47885F6798505
:10250000E7C378889650337885E6FF7401A80708FA
:102510008002C333D8FC7886F6E528566010908098
:1025200005E030E7F9122088908000F08007122043
:1025300088908001F078850680C41220FDA3E054C5
:102540000F7888F6E5277001F690801AE030E75B97
:102550001220FDE0C4540FF52875F005A4FFAEF07D
:102560001221041221EBE0908064F08D828C83E0D4
:10257000908092F09073F61221EBA3E0908065F0CA
:10258000ED2404F582E43CF583E0908063F09073E1
:10259000F6E0FCA3E0F5828C83A3A3A3E090806225
:1025A000F0C3E49FFFE49EFE122104E47885F679EF
:1025B00085E7C37888964003022664908014E52658
:1025C000F0908005E030E7F9E4908006F0908067B5
:1025D000E030E0037F0022908005E030E0F9908059
:1025E00067E030E0037F002290800BE05403600D31
:1025F000E030E109E529600280157F002290800526
:10260000E030E13590800AE020E12EE529602715D1
:10261000291220FDA3A3E0C4540FF52875F00CA4E3
:10262000FFC3E49FFFE495F0FEEF2525F525EE3589
:1026300024F5240224C57F002290800BE020E604CC
:10264000E030E50C78850678870605260526800E9D
:10265000788506067887060674042526F5267529EA
:10266000FF0225AF740C2525F525E43524F5240259
:1026700024AD7F01227D0012230790726812227B15
:10268000FF90040012192A90040474EFF0E4A3F000
:10269000A374A1F07B017A72796C1259CB90040774
:1026A00012192A90040B74A2F07B017A72797812C5
:1026B00059CB90040C12192A90041074A3F0E4A3CF
:1026C000F0A26C33A3F0A374A4F07B017A72797C3E
:1026D0001259CB90041412192A90041974A5F07B96
:1026E000017A7279701259CB90041A12192A900447
:1026F0001F7401F0A374A6F0A25FE433A3F090046A
:102700002374A7F090042612246E74A9F090042B71
:1027100004F0A26DE433A3F090900AE090042DF051
:1027200090042F74AB122396A25CE433900436F02D
:10273000A25AE433A3F0907203E0900438122354B9
:102740007B017A7279741259CB90050012192A9084
:10275000050474B0F0907219E0900505F090721BBA
:10276000E0900506F0907218E0900507F090721A5C
:10277000E0900508F0A374C0F0789AE6A3F0A37483
:10278000B1F090051004F0789FE6A3F008E6A3F0FE
:10279000A374B3F0A26CE433A3F0907208E0900548
:1027A00015F0A374B4F0789BE6FFA3F0789CE6FEE6
:1027B000A3F0A374B5F090052404F0A3EFF0A3EE0A
:1027C000F090053074B7F0909000E0900531F090F3
:1027D000053574B8F090054004F0907102E0900562
:1027E00041F078A5E6A3F008E6A3F0907105E0902B
:1027F0000544F0907206E0900545F0907207E09075
:102800000546F09090287401F0E4F000909029E0E3
:10281000900550F090902AE0900551F090902BE0B8
:10282000900552F090902CE0900553F078F07C05E4
:102830007D017B017A7179F07E007F10121A94205D
:1028400053061222651260817F0322306530789A28
:10285000E630E02A90000FE0248F24FC501D24F283
:10286000601924ED601524FC60140424FB500C2432
:10287000A9600824FB6004247970037F8222D2526D
:1028800090000FE012198029CB1029D211292812AB
:10289000298371298772298B73298F74299375294C
:1028A0009E7629A77729B07829B97B29C27C29632C
:1028B00081296E822979832959962908972939997E
:1028C00029419A29499B29209C29519D2931F52884
:1028D000E8F628F0F72910F828F8F929D9FA29009C
:1028E000FB291BFF000029E01255A68F200229E3D7
:1028F0001253388F200229E3125EAE8F200229E3A3
:102900001260048F200229E31263808F200229E3E2
:102910001222EC12615C8F200229E312630B800B00
:1029200012525E8F200229E312617E752003022974
:10293000E3123AF78F200229E3122FFE8F2002299B
:10294000E31226758F200229E3125D908F20022961
:10295000E3124AC98F200229E37F0112367A8F20C1
:102960000229E31222EC1260A88F200229E312222E
:10297000EC125BFF8F200229E31222EC125EE38F40
:102980002080607F0280197F02801E7F0280237F6B
:1029900002802890721CE04402F07F0280267F03B0
:1029A000125ACF8F20803C7F0312621E8F2080330B
:1029B0007F03125B0C8F20802A7F03124B598F20DC
:1029C00080217F031245138F2080181248588F20D2
:1029D00080111247B58F20800A1212FC8F208003CD
:1029E000752082C252AF202290000FE0F51E788938
:1029F000121905EC4D4E4F601290000CE06480609F
:102A0000047F0380027F028F1F8003751F0178847B
:102A1000A61F306D1D30691A907215E51EF0E49006
:102A20007216F0903C5074E2F012C01E1220196031
:102A30000122E51E1219802B24002B0A032B6704A8
:102A40002AA5122B67152AC71A2B171B2B311E2AF2
:102A5000E9232AFA252A83282A942A2AB62F2B3EEC
:102A6000432B4B452B52462B59512B60522AD85A97
:102A70002AFA9E2B73A22B67A32B67BB2B6CBE007D
:102A8000002B7AE51F64026003022B82122D058F52
:102A90001D022B7FE51F64036003022B821239EDB8
:102AA0008F1D022B7FE51F64026003022B82120E32
:102AB000FA8F1D022B7FE51F64016003022B821237
:102AC00063598F1D022B7FE51F64026003022B8276
:102AD0001238DA8F1D022B7FE51F64026003022B80
:102AE0008212353D8F1D022B7FE51F6402600302B9
:102AF0002B821254DD8F1D022B7FE51F64026003C1
:102B0000022B82123FCF8F1D8075E51F6402707209
:102B1000125D588F1D8068E51F64017065125B8629
:102B20008F1D805BE51F640170581254768F1D80E5
:102B30004EE51F6401704B1263678F1D8041E51FD6
:102B40006402703E12499B8F1D8034125FFD8F1D01
:102B5000802D1256688F1D80261259418F1D801FAF
:102B60001259868F1D8018751D038013125A518FBC
:102B70001D800C125FA48F1D800512284B8F1DAF86
:102B80001D227F82228F228515237895E6F51590E8
:102B9000800BE030E5667B201220AA12C00FE522F0
:102BA000602FE4908014F0FE7F40FD12212712195F
:102BB000AC908005E030E7F9E4908006F090800565
:102BC000E030E0F97D017F017E001260F315228084
:102BD000CD1220A812C00FE5227003022C80122013
:102BE0004912225B904104E030E0F91221E3122106
:102BF0004A908005E030E0F9152280DBE52230E0E4
:102C0000037F89227B201220AA12C00FE490801437
:102C1000F0852224FE7F40FD1221271219AC9080FE
:102C200005E030E7F9E4908006F0908017E524F0A5
:102C30009080167480F0908016E0540A60F89080BE
:102C400016E030E12D90800BE030E1057522EE803A
:102C500007E4FF1240A78F22908017E0FFC3E5240E
:102C60009FFFC3132400F582E43450F583E522F07E
:102C700080BE908016E020E0F9904104E020E1F968
:102C800090800BE0900000F0908005E020E12D1294
:102C900062C7900001EEF0A3EFF0908030E090006A
:102CA00007F0908031E0900008F0908032E09000D2
:102CB00009F0908033E090000AF0801890000174D1
:102CC00007F0A374FFF07E007F04FD7B017A00799A
:102CD000071219AC900003E508F0A3E509F0900095
:102CE00005E50AF0A3E50BF090000B74AAF0780C50
:102CF0007C001221257E007F4012203E12608185DB
:102D000023157F03221262F57899E66401702E90F4
:102D1000721CE030E027AE0CAF0DE4FCFD780B1226
:102D200018F27889121E137014121E83E50DAE0C72
:102D30007802C333CE33CED8F9F50D8E0C121F1C9A
:102D4000121E1360037F84221251F08F20EF30E7B0
:102D50000122788D121905D3121FC940093056037C
:102D6000022E207F8A22121DFF50037F8A22121E0C
:102D7000EF121F882064047F0180027F0090721888
:102D8000E0B4B0047E0180027E00EE5F7003022E8C
:102D90003F121F048003122012D8FBFF7899E66FC0
:102DA0007001EE6003022E3F788912193600000090
:102DB00000E4FFFEFDFCC3121FC970647899E6B4FD
:102DC000041290726CE0FCA3E0FDA3E0FEA3E0F52A
:102DD0000B121E9290721EE50CF0A3E50DF0750C1F
:102DE00000750D0112C0038F20E52030E7189072A6
:102DF0001EE07004A3E06401700FE52030E0047F62
:102E00000180027F03227F8922908016E020E0F972
:102E100090721FE024FFF50D90721EE034FFF50C58
:102E20007E0C7F007DFF121DF6E50D450C600D1236
:102E30006081E50D150D70F1150C80ED7F032212F8
:102E40005E4312C0038F20E52030E72D30E01C9058
:102E50004102E030E0031200AB904104E020E1EFDA
:102E6000305403121EA37520018003752003788956
:102E7000121936000000008009121E6812191E7512
:102E80002089AF2022904106E0547FFFBF211C7FA4
:102E9000437E427D537C55900000E0F8A3E0F9A307
:102EA000E0FAA3E0FBC31218CE6007788476027FB5
:102EB00082227B017A0079041259CB788512191E7F
:102EC0007B017A0079081259CB788912191E7A0091
:102ED00079007E00123D2B90000DE07883F6900083
:102EE0000FE0306E3F6412602A7888E6B405171848
:102EF000E6B48F1218E6B4930D18E6B48408907205
:102F00001C7402F0800690721C7407F0306504E4B3
:102F1000789BF6C26EE47899F678A1E6F515909064
:102F2000077401F0206C03022FD9A264E433FF90F0
:102F30007218E0FEB4B0047D0180027D00ED5F6098
:102F400023A25CE433FF7883E6FDB5071220670F08
:102F50007402A805088002C333D8FCF51D803775BC
:102F60001D108032206115A262E4332401FDE43398
:102F7000FC7883E6FFB50511E4B5040D30630575F3
:102F80001D088012751D01800D7402A807088002BB
:102F9000C333D8FCF51D30675620585320570330F3
:102FA0005603305D273064117883E670028025EE89
:102FB00064B0603B751D0280367883E6FF7401A81B
:102FC00007088002C333D8FCF51D802330642078C5
:102FD00083E6601B751D0180167883E67008907289
:102FE00008E0F51D8009751D04789CE64404F6E5AB
:102FF0001D7899666005AF1D124F9F7F0222907267
:1030000018E064C060037F892220530612226512F3
:1030100062AE7B017A0479001259CB90726C12195E
:103020002A7B017A0479061259CB90727812192AF8
:103030007B017A04790B1259CB90727C12192A7B8E
:10304000017A04790F1259CB90727012192A7B0100
:103050007A0479401259CB8F0B8E0A8D098C089017
:103060000445E090720EF0900446E090720FF090EC
:103070000444E06451704C9004FEE0644A7028A35C
:10308000E0644E7022FF78ADE6FEEFC39E5014124E
:1030900023CCE0FCA3E0FDEF1223B0ECF0A3EDF0B5
:1030A0000F80E3E4789CF6AF0BAE0AAD09AC08ECF8
:1030B0004D4E4F600EAF0BAE0AAD09AC0890726872
:1030C00012192AC262A2648267400F90726C1222A7
:1030D0007BFFEC4D4E4F6002D262900404E0B4518D
:1030E00003D38001C3925C306703206406A25CA016
:1030F00062925C90727812227BFF1223372FF50BBD
:10310000EA3EF50AE93DF509E83CF508206009903A
:10311000727012227B12231490726812227BC39564
:103120000BFFEE950AFEED9509FDEC9508FC9072FB
:103130007412192A30672130641E122278FF9072AF
:103140006C12233AFBC3EF9BFFEE9AFEED99FDEC68
:1031500098FC90727412192A7899E6FF124F9F7F9B
:103160000322C26DC269122111E4F522E522C3785F
:103170009596501D1220411262AEE52212221FA820
:1031800007FC7D017B017E027F00121A94052280DC
:10319000DB1221BA1220411262AE9001FEE0B44A65
:1031A00006A3E0644E60037F8922900000E09080D7
:1031B0000AF030E00678A276408004E478A2F6783F
:1031C00098E6B4800790800AE04480F0900002E026
:1031D00078ADF6900004E0F512A3E0F51390000638
:1031E000E078AEF6900008E0F51490000A1220B3E3
:1031F00090000C789F12215D90000EE0F510A3E086
:10320000F5119001EAE0F50EA3E0F50F900191E0D1
:10321000909009F090019FE0B4510AD259908040FB
:103220007401F08007C259E4908040F0E49090026D
:10323000F0900192E07004A3E0601D900010E05453
:1032400070909005F0900192E0FEA3E0FF1248FA22
:103250009090057490F0800690001012220C1222BB
:103260004D900194E060031221AD900011E0FF1237
:103270005C3A9001A7E078A3F6E670027604D26D7E
:1032800078007C717D017B017A0179007E007FF0FE
:10329000121A9490710312215B90710FE078A2F6DC
:1032A0001233FE907121E0B45102D26912C0007F46
:1032B00003228F2290720AE0FF70030233FAD39444
:1032C0004040047E408002AE07E4FFEFC39E5031D1
:1032D00090720BE0FBA3E0FAA3E0F9907209E0FD25
:1032E0007C00E92DF9EC3AFAEF29F9EC3AFA1216DA
:1032F000EEFD74402FF582E4340EF583EDF00F807F
:10330000CA7898E6FF20E606E52264026009EF30FD
:10331000E615E522B40710900E567440F0E4A3F0D1
:10332000900E5D74408014E522B40613900E407434
:103330000AF0A37406F0900E487401F0E4A3F0E5DF
:1033400022B40706900E417407F0E522640160067E
:10335000E52264067030306C1C907000E0B40D15EE
:10336000A3E0B40610A3E0B4050BA3E0B4060690F6
:10337000700AE08001E4900E42F0900E437402F077
:10338000900E477440F0E5226401702B900E4AE0E5
:10339000B48006A3E06493600AD26C900E5074036C
:1033A000F08007C26CE4900E50F0206D0A900E4A37
:1033B0007434F0A37412F0E52264026005E522B4CF
:1033C0000708907205E0900E48F0904103EEF090EF
:1033D0004102E020E1F9904102E054216005E0540F
:1033E000FEF022904102E020E01390720AE0C39EBA
:1033F000F0907209E02EF00232B4123D81229080EA
:103400000AE030E105751802803C90800BE030E462
:1034100005751872803090800BE030E30575184810
:10342000802490800BE030E702800790800BE03032
:10343000E605751880800F90800BE030E505E4F517
:1034400018800375182E90800BE030E60575190280
:10345000800F90800BE030E5057519018003751928
:103460000478A2E654C060031221A09071EEE0300F
:10347000E348E47891F6A3E078B2F6E66018E478E1
:10348000A4F678B2E6FB30E007122054E02FF006F5
:103490001221F6B408EC9071EDE078B2F6E66053D4
:1034A00078A4760878B2E6FB30E007122054E02FCB
:1034B000F0061221F6B410EC8039E478A4F6E51495
:1034C000C313FF78A4E6C39F5029AF187E00E6FB24
:1034D000FD7C00121734EB12207CEEF0A3EFF078A5
:1034E000A4E6FFE5198FF0A4FEEF12207CE02EF099
:1034F0000680CB907195E0703C90800BE030E30546
:1035000078B276262290800BE030E40578B2763EE1
:103510002290800BE030E702800790800BE030E6DD
:103520000578B276462290800BE078B230E50376DB
:103530004622761622907195E078B2F6229000111C
:10354000E0543FF5207521FF7522807899E66401EB
:10355000600302361490721CE020E003023614125D
:103560006334EF604E900202E06048A3E0FF9002F7
:1035700002121E54703D900202E02408F521E5205D
:10358000B43F08A3E024F8F5228028121EE264AAC2
:103590006010121EE265206009121F972521F52197
:1035A00080E9121EE264AA6007121F97F5228003C9
:1035B0007521FFE521B4FF097E007F80121DF48094
:1035C0004F900202E07E002400F9EE3402FA7B0103
:1035D000C002C001121F3ED001D0027F08121A940F
:1035E000AF227E007C0074002521F9EC3402FA7BC6
:1035F00001C002C00178087C007D01D001D0021218
:103600001A94E5222406900001F074082522F52280
:10361000AF228062E4900000F0A37406F0E4A3F00F
:10362000789AE6FB54F960047F8080027F00900066
:1036300003EFF0A312194F00000000EB78995654E5
:10364000066003121FB420560330570C7899E6B475
:1036500001069000037480F0306C197899E6FF54ED
:10366000186011EF30E40790721CE020E306900030
:10367000037480F07F081252CB228F227E027F00DB
:103680007D0012230B90040974F1F09072681222ED
:103690007BFF90040A12192A90040E7498F0A37408
:1036A000EFF0A374F2F090726C12227BFF90041181
:1036B00012192A90041574F3F090727012227BFF95
:1036C00090041612192A90041A74F4F09072781269
:1036D000227BFF90041B12192A90042074F5F090AD
:1036E000727C12227BFF90042112192A9004257407
:1036F000F6F0122278FF90042612192A90042A74F8
:10370000F7F0E4A3F0A304F0789AE6541690042EA0
:10371000F0A374F8F0A25FE433A3F0A374F9F0907F
:10372000043312246E74FBF0A255E433A3F0A374A7
:10373000FC122396A25AE43390043FF0A260E433D3
:10374000A3F0A25CE433A3F0907203E0900442F093
:10375000A25EE433A312235490048074E1F0900439
:103760008504F0E478A4F679A4E7C378AD96501701
:1037700078A4E6FF1223B0E0FCA3E0FD1223CCEC1A
:10378000F0A3EDF00680E0789AE69005FFF0E522E0
:103790006006122265126081E4FF12C036EF6012EB
:1037A000788912193600000000306C031224297F3A
:1037B00003227F89220902200001010080320904CE
:1037C000000002080650000705010200020007057C
:1037D00082020002000C121E0422183A28621072A3
:1037E0001C12010110000000408F058093010001B0
:1037F00002000104030904180341006C0063006F18
:1038000000720020004D006900630072006F002804
:10381000034D006100730073002000530074006FBB
:1038200000720061006700650020004400650076BA
:10383000006900630065001003360039003900306C
:103840000046003000310047656E6572696320559F
:10385000534220466C617368204469736B202037A3
:103860002E373647656E6572696320555342205383
:103870004420526561646572202020312E30300072
:103880000000000000000000AAAAAAAAAAAAAAAAE8
:10389000EEEEEEEEEEEEEEEEFEFFFFFFFFFFFFFFC1
:1038A000FFFFFFFF7FBFDFEFF7FBFDFC7EBFDFEF1A
:1038B000F7FBFD7E050F0C0001071002020000005F
:1038C0001A0330003500380046003600330033005C
:1038D00038003600330037003800E4F5207899E6E8
:1038E000B4010A90721CE030E0037F832290001044
:1038F000E05408131313541F900400F0900011E0DB
:10390000543F900402F0900012E0900403F0900005
:1039100013E0900404F0900014E0900405F07E029F
:103920007F00121DF4E4900001F0789AE6FF54F94C
:1039300060047E8080027E00900002EEF0E4A3F03E
:103940007520047899E6FE5F54066003121FB420C8
:103950005603305707EEB40103121FB4306C1678CB
:1039600099E6FF5418600EEF30E40790721CE020D7
:10397000E303121FB4306D11741A121FA674E0F025
:1039800012C01E122019600122900402E09000046F
:10399000F0900402E0604924F8601224C960182401
:1039A000237030900005740AF0740C80209000059C
:1039B0007412F0741480169000047408F0A374124A
:1039C000F0900018741CF0A3740AF074202520F500
:1039D00020800D9000057401F0E4A3F0052005207F
:1039E000E52014900000F0AF201252CB221262F5B5
:1039F0007899E66401702790721CE030E020AE0CEC
:103A0000780B121E78121E137014121E83E50DAE71
:103A10000C7802C333CE33CED8F9F50D8E0C121FBD
:103A20001C121E1360037F84221251F08F20EF308E
:103A3000E70122121DFF50037F8A22306C1978990A
:103A4000E6FF64016046EF20E30A30E40A90721C4E
:103A5000E020E3037F8722789AE6600F540660082F
:103A6000799AE778995660037F8722907218E0640C
:103A7000B0702EA25C121F078003122012D8FBFF29
:103A80007899E67C00B50719ECB50615E50D150D1E
:103A9000AE0C7002150C4E60051262AE80EE7F0314
:103AA00022121F88121EEF125E4312C0068F20E5FD
:103AB0002030E72D30E01C904102E030E00312009E
:103AC000AB904104E020E1EF305403121EA37520B7
:103AD00001800375200378891219360000000080E8
:103AE00013121E6812191E752089E50D450C70040D
:103AF00078847601AF20222053061222651262AE2E
:103B0000900408E06451701A90721CE054F7F09031
:103B1000040CE0600790721CE04408F01224297F36
:103B20000322C266C263C264C265C267C25AC25F70
:103B3000C260C25EC261C25DC258C250C27090040F
:103B400003E064516008900407E0645170459004FC
:103B500003E0B45102D264900407E064517053D280
:103B600067900400E0B45102D25F90040EE0B451BB
:103B700002D25E90040FE0B45102D260900413E0D0
:103B8000B45104D25D802B900414E064517023D2B0
:103B900058801F900404E0B45104D266801490044D
:103BA00005E0B45104D2638009900406E0B45102E8
:103BB000D26590040BE0B45102D25A900409E0B4EB
:103BC000510DE4907202F090040AE0907203F0301C
:103BD0005A047F0180027F00909001EFF090041260
:103BE000E0B45106A26772639261900415E0B4518B
:103BF00002D250900416E0B45102D2707F03227FAB
:103C0000007D001220CA9000027498F0A37401F0A5
:103C100078A8E6A3F008E6A3F008E6A3F008E6A378
:103C2000F0A3744AF0906000E493900009F0906073
:103C300001E49390000AF090900AE090000BF0A24B
:103C40006CE433A3F07898E6A3F0900010744AF087
:103C5000A3E515F0A251E433A3F0908007E09000B3
:103C600013F090900EE0900014F0906002E49390B6
:103C70000015F0906003E493900016F0900020741B
:103C80004FF09000307448F0900040744EF09080F7
:103C90000BE0900100F0909013E0900101F078B4F7
:103CA000E6A3F0908009E0900103F0908011E0908D
:103CB0000104F0909012E0900105F0908040E090B7
:103CC0000106F0A37401F090721CE0900108F090DE
:103CD00090287401F0E4F000909029E0900110F039
:103CE00090902AE0900111F090902BE0900112F05A
:103CF00090902CE0900113F07D017F017E00126016
:103D0000F37F0322900E45E0900074F0900E46E0A1
:103D1000900075F0900E47E0900076F02290726C63
:103D2000E0FCA3E0FDA3E0FEA3E0229044007400C9
:103D3000F0A37400F02278407C0E7D017B017A0EA6
:103D400079007E007F08121A94904102E054FEF040
:103D500022F0904102E04441F02290720B74FFF097
:103D6000A37437F0A374D5F022851521907105E076
:103D7000F515907206E0FEA3E0FFC394FFEE9407F2
:103D800022904102E04451F0227A04790090720BB3
:103D90007401F0A3227881E654EAF6904101E044F0
:103DA0002AF0E054EA22900E45E0900075F0900E63
:103DB00046E0900076F022A3F0E4907209F022E44D
:103DC00093907209F022FF2FFFEE33FEED33FDECEE
:103DD0003322E4904104F07880760122904106F08D
:103DE000E4904105F022D253900E44E022907220DC
:103DF0007403F0228F1DE478A4F6908016E020E092
:103E0000F9904104E020E1F91222AA900000121971
:103E10004F555342537B007A0079851259CB90005D
:103E20000412192AE490000CF090000BF090000AA4
:103E3000F0900009F0900008F012241B904104E07B
:103E400030E10A904102E030E0F27F0022C25412D9
:103E500022AAE4904104F0E51D7002FF22C28CC248
:103E60008DE4F58CF58AD28C904107E054BFF09038
:103E70007202E04440F0904104E020E010904102E2
:103E8000E030E0037F0022308DEC7F002290000FB5
:103E9000E0701678A4E6C39401500E1224667009EF
:103EA00078A406123ED3023E0812237F70229000AF
:103EB0000FE0651D701A1224667015908016F012BE
:103EC0003ED31222AA1222BD789112191E7F01221E
:103ED0007F00227B017A0079041259CB7885121970
:103EE0001E22AD07904104E020E1F9ED247FB40FDC
:103EF000004003023FA7903F0475F003A4C583254B
:103F0000F0C58373023F31023F37023F3F023F78E3
:103F1000023F47023F4E023F55023F5F023F6602AB
:103F20003F71023F7F023FA7023F8A023F94023F58
:103F30009B121EBD7F0522121FBB7626023FA312D5
:103F40001FBB7620023FA3121FC2763A8055122073
:103F50002A7628804E7895760778967627804412C0
:103F60001FC276048005121FC276FF789776FF8005
:103F700036121FBB7621802B121FBB7624802412A1
:103F80001FC2760478977601801D121EBD12202A6A
:103F90007629800F12202A76298008789576037872
:103FA000967611E47897F67884E6FCB40207121E40
:103FB000BD7D078017ECB40311904101E04404F08B
:103FC0007881E64404F67D0680027D04AF05221266
:103FD00051F08F20EF30E7030240A47E007F207D68
:103FE000007B017A0479001219AC90000FE0F521F2
:103FF000B42513900017E05401F52278047C0412D4
:104000001FF47F04801190001DE05401F522780018
:104010007C04121FF47F0C121A94E522701D900488
:1040200000121F11FFEC4D4E4F700D900404121F33
:1040300011FFEC4D4E4F60037F84227899E66401B6
:10404000703390721CE0FF5405FEBE010CEF440477
:10405000F090721DE0700204F0305E1990721CE066
:1040600030E012121FFF121E3D90000412194F0083
:104070000008008012E521B42511121E38900004BA
:1040800012194F000002007F0880167E007F201268
:104090001DF4121E3890000812194F000002007F14
:1040A000200252CBAF202278B4E6601F90800BE054
:1040B00030E1037FEE22908010E0FC90800F7401CD
:1040C000F090800FE030E0F9AF0422E490800CF033
:1040D00090800BE030E1037FEE2290800DE0F990BC
:1040E0008010E0D378B39640037FEE22908006E004
:1040F000543025E0FCAF0119EF607090800CE0FDBA
:10410000908020E0FE908021E0FBEEF525EBF52687
:10411000D394FFE52594034015E5269404E5259402
:1041200004500B74302526F582E434808036C3E5D4
:10413000269404E52594045032EC6016C3E52594DA
:10414000024004EC20E6AEC3E52594025004EC20C6
:10415000E5A3908013E0FEE42526F526EE3525F54F
:1041600025852682F583E06DF0808A908010E0FF3F
:1041700022909000E030E2037F0022909012E03025
:10418000E0037F0022909030E020E0037F002212C5
:104190000875EF7002FF2212C039E4F515E515C36A
:1041A00078AD965026E51525E024C2F582E43472F8
:1041B000F583E0FEA3E0789FA60608F6E6184660C1
:1041C0000678A1A6158004051580D290900AE020FB
:1041D000E707909000E030E411909016E020E50AA7
:1041E000E030E20312C0247F0122909016E020E02C
:1041F0003378ADE62401FFE433FEEF25E0FFEE3334
:10420000FE7DFF7B017A7279801219AC78ADE6757C
:10421000F002A4FFAEF07DFF7B017A7279A2121941
:10422000AC12576E907120E06451600312C0547F4D
:1042300001228F258D2690801AE0F50BE50B30E4E6
:1042400026306D07E4FF12C0578021530BEF90809A
:1042500007E0F527E4F090801AF0908007E527F05A
:104260007F961262678005E490801AF0908005E0E6
:1042700030E7F912218C908005E030E7F99080005A
:104280007490F0908001E526F0000000000000002E
:104290000000000000E4F5279080047401F0908095
:1042A00002E0FDE525FEE5277A002400FFEA3E8FC7
:1042B00082F583EDF090800AE030E01B908003E00F
:1042C000FDE525FEE5272400FFEA3EFE74082FF5F4
:1042D00082E43EF583EDF00527E527B406BA306D9C
:1042E0000AE50B30E4057F0102C05790801AE50B08
:1042F000F02290714CE0B45106A3E0FF125BC39032
:104300007012E078A2F690800AE0FF907013E0FE51
:10431000EF4E90800AF09071F0E0F510A3E0F511F7
:104320009071EAE0F50EA3E0F50F9071F2E078AD40
:10433000F69071F4E0F512A3E0F5139071F6E078D1
:10434000AEF69071F8E0F5149071FA1220B3907106
:10435000FC789F1220B59071FE12215B907191E064
:10436000909009F09071A7E078A3F6E670027604C9
:104370009071A9E0FF125C3A907194E06003122101
:10438000AD1221117E707F147B107D50122490EFAE
:104390007002FF2278007CA01221257E207F00126F
:1043A0001A941221BA9071A8E0FF125C3A7F0122A0
:1043B000905000E064996003024464A3E0640760E5
:1043C00003024464905003E0FF905002E02F243237
:1043D000FFE4FEFDEDC39F501074002DF582E43420
:1043E00050F583E02EFE0D80EB74002FF582E4344F
:1043F00050F583E06E706DD26B306B2390507DE092
:10440000F4FF90507CE0B50716E0D394FA40089092
:10441000720574FAF0800890507CE0907205F0907C
:10442000507EE0643C703DA3E064C37037905081DF
:10443000E06403702FFEFD905080E0FFEDC39F50BD
:104440001074802DF582E43450F583E02EFE0D804B
:10445000E6905080E02480F582E43450F583E0B5A6
:104460000602D26A229072057432F0E4789AF60855
:1044700076FF08F69072087480F0C251C26CC26B6D
:10448000C26AC264C267C262C255C266C263C26502
:10449000C26178B37648C25AC25FC260C250C2706D
:1044A000C258C25EC25DC25C90726812194F0000B1
:1044B000000090726C12194F000000009072701290
:1044C000194F0000000090727412194F0000000094
:1044D00090727812194F0000000090727C12194FF0
:1044E000000000009072037450F0E4789AF6907225
:1044F0001874C0F090721AF0E4907219F090721B68
:10450000F012571912604690725FF0909016E044D6
:1045100038F0228F2212234B122430501485152399
:10452000122437AD227C007B1212C00F8523158028
:1045300003122305907219E0900400F090721BE0C2
:10454000900401F0907218E0900402F090721AE06A
:10455000FB900403F0A374C0F0A25BE43325E0FEFB
:10456000789AE6FD54012E900408F090047EEDF058
:10457000E65406FFBF0604E04440F0E522B4020A18
:10458000907218E0900480F0800AE522B403059050
:104590000480EBF0205F0E909000E030E307E490A1
:1045A0000481F080069004817401F090048274EF1D
:1045B000F0E4A3F02053061222651260817F0322EB
:1045C000F58374FFF0A3F0EF25E025E02439F582B0
:1045D000E43473F583E075F00AA42290800AE05475
:1045E000EEF0909002E054FEF09090057431F0905F
:1045F0009002E04401F09080147450F0908022F01A
:104600009080237405F090801722E4908023F0902E
:10461000800AE0FF907013E05410FEEF4E90800A85
:10462000F078A2E654C02224EEF582E43472F583D9
:10463000E4F0A3F0227E007DFF7B010219AC909094
:1046400002E04401F0E4908023F0227E007F040227
:104650001A94909002E054FEF0907192E0229070D3
:104660000CE04401909005F022124BE6904102E0EC
:1046700030E0031200AB7880E6B40118904104E00A
:1046800030E011122E857880EFF6BF02071229E87C
:104690007880A6077880E6FF64036004EFB4040521
:1046A00012517F80C77880E6B4050B904101E0206D
:1046B000E4047603801D7880E6FFB406079041018C
:1046C000E030E20BEFB4070B904101E020E4047806
:1046D0008076047880E6FF30E707123EE27880A615
:1046E00007306F09C26F904107E04401F0306D0957
:1046F000903C5074EDF012C01E904107E020E40A97
:10470000909017E020E60302466C124E9902466C28
:104710007898E630E6047F0080027F80904104EFC5
:10472000F08515221220A312C00FE4908014F074BB
:104730000212221490800BE030E6071220BE8D2377
:10474000800A1220BEECC313ED13F523E518852370
:10475000F0A485F024F525E5198523F0A425192575
:1047600024F524908016E020E0F97898E630E604FD
:104770007F0080027F80904104EFF0904104E030A0
:10478000E0F91221E39080007485F0908001E52526
:10479000F0E524F09080067484F0908005E030E02D
:1047A000F99080007410F012217EE4908014F0855E
:1047B00022157F03222065037F8222900013E0648C
:1047C0001060037F84227A04790012226DE4904104
:1047D00004F0904104E030E0F978847601789AE6BC
:1047E00030E0037F8722E4F5211223DCE070270507
:1047F00021E521B410F312234B7B607D077C00126E
:10480000C00F905080E0B4AA0AA3E0B4550512236B
:104810000580357F032290048074AAF0A37455F0BC
:10482000900400E0F522E4F5211223DCC083C0826D
:10483000E0FFE521FDE52212244EEF6ED082D08309
:10484000F00521E521B410E17F0712C036EF6005C5
:10485000C25B7F03227F89222065037F8222900032
:1048600013E0641060037F84227A0279007E027F65
:10487000009044007402F0A37400F01262AE7884D9
:104880007601305B037F872212234B12243050675E
:104890008515211224377B107D077C0012C00F85FF
:1048A0002115900200E0FFE4F521E521FDEF12243F
:1048B0004E7400252112243EE06EFE74002521F581
:1048C00082E43400F583E06E6017D25B789AE644A8
:1048D00001F690721074A5F0907211745AF07F87EF
:1048E000220521E521B410C2E4907210F0907211FB
:1048F000F0789AE654FEF67F03228E248F25E4FD9D
:1049000079FFFCEC6402700302499A909003EDF089
:10491000909004E9F090900B7401F090900BE030CF
:10492000E0F990900CE0FE90900DE0FBEEF526EBA8
:10493000F52790900CE0B52506E4B524027C02EC46
:104940001460250470BDC3E5279525E52695245000
:104950000DE970047C0180ABE925E0F980A5ED2527
:10496000E04401FD7C01809BD3E5279525E5269554
:1049700024400FBDFF047C028089ED25E04401FD49
:1049800080817C02E52765257004E5266524700397
:10499000024903EDC313FD02490322900010E054C5
:1049A00002F520E47F01FEFDFC7889121E137003DE
:1049B0007F8422900011E020E107900018E030E7AA
:1049C0003E126334EF602F900200E06029A3E09074
:1049D0000200121E53701F900201E0900200121F8D
:1049E0002EC002C001121F3ED001D002121A9490B4
:1049F0000201E0FF80327F30121DF27F30802912E9
:104A00001DF09000027401F0A3F09000057414F002
:104A1000A37401F0E52025E025E0240A900001F0D0
:104A200090000AE520F07F141252CB7889121936D3
:104A3000000000007F0322AB07EB75F00C84FAEB5B
:104A400075F00C84ABF0EA700E9061C293C313FE54
:104A500074019313FF800A122193E493FE7401936F
:104A6000FF7C007D031217347D18121746EF4401B6
:104A7000FF907356EEF0A3EFF0EBFF7E00907356BD
:104A8000E0FCA3E0FD1217341221937401932FFF71
:104A9000E4933EFEEA7C002FFFEC3E907358F0A3B7
:104AA000EFF0EB9061D4932AF50B907358E0C39428
:104AB000204009E50B75F0C08485F00B907359E038
:104AC000F50A907358E0F50922206A037F0322203B
:104AD00053061222651262AE8515221223457B1100
:104AE0007D017C0012C00F852215E4F522E5222508
:104AF000E0FFE433FE74822FF58274023EF583E01A
:104B0000FF7400252212243EEFF00522E522B408AE
:104B1000DCE4FFF522E5225407240012243EE0FEE7
:104B2000740025221223E0E06E2FFF0522E522B457
:104B300040E3EF7021900440E0789A30E40DE644C1
:104B400010F6909016E054FDF0800BE654EFF690CE
:104B50009016E04402F07F03228F22E522B402097E
:104B6000907219E0D39402500EE522B4030C9072B7
:104B70001BE0D3940240037F892220530612226552
:104B80001262AE851523122345AD227C007B1112E3
:104B9000C00F8523151253A4E52264027024BFB010
:104BA0000F907218E0B4B008907219E004F080051C
:104BB000E4907219F0907218EFF0306C26122429EC
:104BC0008021E522B4031CBFB00F90721AE0B4B08C
:104BD0000890721BE004F08005E490721BF0907264
:104BE0001AEFF07F0322E4904104F0904200E05479
:104BF000037013904107E020E407909017E030E63F
:104C0000EA124E9980E5904200E0789830E0047610
:104C1000408009768090800AE04480F0306C0990F2
:104C20003C5074D0F012C01EE47881F6907204F00B
:104C300090900AE020E736909000E020E42F904129
:104C400004E0FF904102E04F20E013904107E02094
:104C5000E407909017E030E6E5124E9980E012618B
:104C600039E4909010F0909016E04401F07880764E
:104C70000122C299ED30E61275990D3099FDC29965
:104C800075990A3099FDC29980087599203099FD6F
:104C9000C299ED30E01BEF75F00A842430F59930AD
:104CA00099FDC299EF75F00A84E5F02430F59980FA
:104CB00032EF54F0C4540FFED39409400674372EDB
:104CC000FE800474302EFE8E99EF540FFED39409AB
:104CD000400674372EFE800474302EFE3099FDC2DB
:104CE000998E993099FDC299ED30E71075990D3084
:104CF00099FDC29975990A3099FDC29922E4907282
:104D000021F0A3F0907221E0FCA3E0FDC3EC94023B
:104D1000505D904102E05421600BE054FEF090722F
:104D2000207404805C904102E030E00790722074AF
:104D300002804E74002DF974043CFA7B01C002C05D
:104D40000178407C0E7D01D001D0027E007F4012B0
:104D50001A949041037440F0904102E020E1F990F0
:104D60007222E02440F0907221E03400F08095122D
:104D70003D81E4907220F0125F48EF70089072203D
:104D800004F07F00227F01228515227895E6F51533
:104D90007B201220AA12C00FE4908014F0908005AE
:104DA000E030E7F9E4908006F090800BE030E60711
:104DB0001220BE8D23800A1220BEECC313ED13F522
:104DC00023E5188523F0A485F024F525E51985232E
:104DD000F0A425192524F524908005E030E0F9128F
:104DE00060811260811221E3740512211DE525F016
:104DF000E524F090800074E0F09080067404F09058
:104E00008005E030E0F912217E1260818522157F55
:104E100003227895E6F51512C015E5094508601ED0
:104E2000E50B7F0025E0FEE509FA79007B01C00271
:104E3000C00178007C287D01D001D002801D78104F
:104E40007C357A7279E67F7012216678807C357DB8
:104E5000017B017A73798C7E007F38121A94E47892
:104E600095F67895E6FFC39407502BEF7F0025E079
:104E7000FEEF2400F974283EFA7B01C002C00178DD
:104E8000007C007D01D001D0027E0212203E126023
:104E90008178950680CC7F0322909002E0FF90728B
:104EA00003E054604480F4FEEF5E909002F0909036
:104EB000017401F090801CE0540FFFBF0FF6306DBD
:104EC0000312C01EE4908007F0904107E04420F0F8
:104ED00000000000000000000000306D0312C01E42
:104EE000904107E054DFF0904200E0540360F890F6
:104EF0004200E030E0117898E6B48005E49041008B
:104F0000F078987640800478987680E4909001F06C
:104F10009080077440F07F967E00126267228D2198
:104F2000E4FEF522908014E0F523E4F524EF30E070
:104F300003432410EF5401FDC3EF9DFF908005E073
:104F400030E7F9AA07EAC39521504BEAC39410EA67
:104F5000500625E02450800425E02440908014F081
:104F6000C3E5219AFFBF0103432420908006E52476
:104F7000F0908005E030E0F990800BE05403600F82
:104F8000E4FF1240A7AE07EED3952240028E22E442
:104F9000F5240A0A80AF908014E523F0AF2222782E
:104FA00099A607EF14604614601524FE601E24FCC9
:104FB000604424F8604C24907060907268803130B6
:104FC000620590726C8003907274802490726CE021
:104FD000F8A3E0F9A3E0FAA3E0FB907274123D207D
:104FE000C39BFFEE9AFEED99FDEC988012907270D3
:104FF000123D20FF801F907270123D20123DC6FCB2
:105000008013306706123D1DFF800A907270123DBA
:1050100020123DC6FC788D12191E229073FFE060AD
:1050200074E014F0E024F8F582E43473F583E0FFD3
:105030006054AE811581A806E6FE74E12FF8A6063D
:10504000AE81A806E6FE74E02FF8A6067581E0AEF4
:10505000071FEE602F9073FEE0FE9073FCE0FCA350
:10506000E02EF582E43CF583E58224FFF582E583BA
:1050700034FFF583E0AD810581A805F69073FEE06D
:1050800014F080CB05819073FFE024F8F582E434BE
:1050900073F583E4F0228F2290800BE030E52885C1
:1050A00015231220A312C00FE522605312204912CB
:1050B000225B904104E030E0F912214A908005E043
:1050C00030E0F9152280E1E52230E0037F89228576
:1050D00015237895E6F5157898E630E6047F00808C
:1050E000027F80904104EFF01220A812C00FE490DC
:1050F0008014F0E522122214908016E020E0F9904E
:1051000080007410F08523157F0322E4907200F074
:10511000907204F07895F608F608F6D26EC26FC267
:1051200054C253C252907220F0A3F0A3F0C256C2F0
:1051300057907210E0B4A50FA3E0B45A0A789AE62B
:105140004401F6D25B8002C25BE4907202F090727E
:105150001CF0A3F078807601903C5074FFF0E4904E
:105160008036F0A374FFF0E49073FEF0FE7F04FD40
:105170007B017A7379F81219ACE49073FFF02290F6
:105180008016E020E0F9904104E020E1F97A00790E
:10519000007E007F00123D2B90000012194F5553E6
:1051A00042537B007A0079851259CB900004121982
:1051B0002A7B007A0079891259CB90000812192AAB
:1051C0007880E6B403047F0080027F0190000CEF3A
:1051D000F0740D123DDC904104E030E10C9041028E
:1051E000E030E0F21200AB80ED123D2B123DD222F6
:1051F000307021907218E0B4B01A121F04800312AC
:105200002012D8FBFF7899E67C00B50707ECB506BD
:10521000037F85227899E6FF789BE6FE5F6005EFC5
:10522000F45E8033799CE778995660037F8522206D
:105230005F29909000E030E310789AE620E71C4464
:1052400080F6789BE644F6800E789AE630E70C54B8
:105250007FF6789BE644F6F67F86227F0022900058
:1052600010E0F521A3E0FF1313543FF522E05403AF
:10527000F508A3E0F509A3E0F50BA3E0F50AE521A5
:105280006409702BE50B6407450A603912234B1241
:10529000243050148515221224377B10AD0BAC0A34
:1052A00012C00F852215801D7DFF122405801685F2
:1052B00015218522157B10AD0BAC0AAF09AE081283
:1052C000C00F8521151260817F03228F23E47F01A7
:1052D000FEFDFC7889121E1370037F8422AF23E445
:1052E000FCFDFE1220094031904106E523F0E490D8
:1052F0004105F0904104E020E1F9788930560280C0
:105300002D121905C007AF23AB07D007C3EF9BFFD2
:10531000EE9400121F6B7F0322788CE6904106F01A
:10532000E4904105F0904104E020E1F978891219F8
:1053300036000000007F03221262F51222D990721B
:105340007812233AFBC31218CE50037F8A22907240
:105350007C12227B1223F8400A90721AE0B4B00348
:105360007F89221222781223281223BC2060099000
:10537000727012227B12231412C006AB07EB30E7C7
:1053800013788912193600000000EB30E0037F012A
:10539000227F0322122286E50D450C700478847664
:1053A000017F8922900280E0B4FF08A3E0B4FF03EC
:1053B0007FC022900480E0F9A3E0FF900280E0FE2D
:1053C000A3E0FDEF6D7040FDEDC39F503D74822D55
:1053D000F582E43404F583E0FC74822DF582E43434
:1053E00002F583E0FB12247F8002C333D8FC5962AC
:1053F0000412247F8002C333D8FC5E6203EC6B602E
:10540000037FB0220D80C17FB0227FA022AD0712A2
:105410005F48EF7006907220048051904102E030A6
:10542000E506E054FEF080E7904103E0540FFFBF33
:105430000807904102E020E711123D49904101E048
:105440004401F090722074028022900E03E0B403B5
:1054500016900E02E0B5050F900E01E0B40608901C
:105460000E00E0648060099072207402F07F0022D8
:10547000123D367F01221251F0EF70607899E66498
:1054800001705690721CE0FE54036401704BEE30C4
:10549000E22390721DE0FEB401067402F07F8522C3
:1054A000EE6402703490721D7403F090721CE0443C
:1054B00002F07F862230600A90721CE04402F07F86
:1054C000032290721DE004F0E0D39406400BE4F058
:1054D000789BE64401F67F85227F0322221251F059
:1054E0008F20EF20E75A121DF09000037410F09007
:1054F00000087402F090000AF0900012F07899E62B
:1055000064017021305E1E90721CE030E017900044
:10551000037408F090000AF0121FFF9000041219A3
:105520002A7F0C8018788D12190590000412192A10
:10553000788D12190590000C12192A7F140252CB93
:10554000AF2022908007E0F52290800AE0F5231238
:105550005FD17E027F007D001220CC90800A740112
:10556000F0E4F524E52412625D7895E6FD7F6E1285
:105570004232E52475F010A42400F9740035F0A837
:1055800001FC7A6E79007F101221660524E524C3A0
:10559000940840D0908007E522F090800AE523F03F
:1055A0001260817F03221262F51222D99072781262
:1055B000233AFBC31218CE50037F8A2290727C12CA
:1055C000227B1223F8400A90721AE0B4B0037F895C
:1055D000221222781223281223BC206009907270B4
:1055E00012227B12231412C003AB07EB30E71378AF
:1055F0008912193600000000EB30E0037F01227FA2
:1056000003221222867F89228F1DEF75F004A424C5
:1056100036F9747335F0FA7B01C002C00178E27C80
:10562000727D01D001D00212464B851D1EE51E6021
:105630002775F004A4FFAEF02432F974733EFA7BB0
:1056400001C00174362FF974733EA801FC7D01D0AE
:105650000112464B151E80D578367C737D017B0187
:105660007A7279E212464B22900010E07004A3E0B7
:1056700064027042900011E0FEA3E0FF7038EE700B
:1056800035126334EF602F900204E06029A3E090AC
:105690000204121E53701F900205E0900204121FB4
:1056A0002EC002C001121F3ED001D002121A9490E7
:1056B0000205E0FF80097E007F40121DF47F40124A
:1056C00052CB22EF25E025E02436F582E43473F551
:1056D0008374FFF0A3F0EF25E025E02438F582E4A1
:1056E0003473F58374FFF01245C724E6F582E43481
:1056F00072F583E41245C424E8F582E4347212455D
:10570000C024EAF582E434721245C024ECF582E448
:1057100034721245C012462722E490800AF07C02BF
:10572000126051908005E030E7F990800074FFF03E
:10573000908005E030E7F99080007490F0E4A3F0E9
:10574000FE9080047401F0908002E0900000F0E090
:10575000B4FF1A0EBE06EAEC5407FEC454F04E9095
:10576000900EF00CECC3940940B67411F0227F2027
:105770007A7379361246357F507A7279E612463559
:105780007E007F387DFF7B017A73798C1219ACE43F
:10579000F516E51625E025E02439F582E43473F5A5
:1057A00083E516F01245C8124627E5161245C824AF
:1057B000E6F582E4347212462E0516E516B408D2D8
:1057C000227880E664017048904107E030E641901D
:1057D0007202E0FF603A907203E0FE541FFDC3EFD7
:1057E0009D907202F06008904107E054BFF0229053
:1057F0009002E0FFEE54604480F4FEEF5EF0305A19
:10580000047F0180027F00907201EFF0909001F020
:1058100022EF20E70890DFFCE4936F604212C0277C
:10582000EF4E70089090107404F080FE1245DB7407
:1058300008F090801674C0F0908016E020E0F91215
:10584000460A6004E04401F01246527004A3E0608E
:10585000089090057490F0800312465E12463E2236
:10586000EF0475F004A414251BF582F584851A83D2
:10587000851A85E0F5F01582E0FC1582E0FD1582C1
:10588000E0FF1582E00586F0158615821584E58215
:10589000B51BF1E00586F01584E5F0F01584ECF019
:1058A0001584EDF01584EFF0158622E4FF22E581E2
:1058B00024FED394E04042E5812421FF1F1F907312
:1058C000FFE024F8F582E43473F583EFF09073FF82
:1058D0008022EF60241F74E02FF8E6FE9073FEE054
:1058E000FD9073FCE0FAA3E02DF582E43AF583EE37
:1058F000F09073FEE004F080D9221262F59000155A
:10590000E0FF124F9F1222D9788D12238F50037F10
:105910008A22125E4312C006AB07EB30E713788988
:1059200012193600000000EB30E0037F01227F03F4
:1059300022122286E50D450C7004788476017F8959
:1059400022126334EF6032900300E0602CA3E090F9
:105950000300121F79121E61701F900301E0900373
:1059600000121F45C002C001121F3ED001D002121A
:105970001A94900301E0FF80097E007F22121DF43B
:105980007F221252CB22126334EF6032900302E086
:10599000602CA3E0900302121F79121E61701F9009
:1059A0000303E0900302121F45C002C001121F3E14
:1059B000D001D002121A94900303E0FF80097E0008
:1059C0007F24121DF47F241252CB22EB700CE7FFD0
:1059D00009E7FE09E7FD09E7FC2214701089828AB5
:1059E00083E0FFA3E0FEA3E0FDA3E0FC22BBFE0CEE
:1059F000E3FF09E3FE09E3FD09E3FC2289828A83D0
:105A0000E493FF740193FE740293FD740393FC22EC
:105A10008E1D8F1E8C1F8D209080157455F074AADA
:105A2000F0EB4A6025852082851F83E0851E8285F4
:105A30001D83F0051EE51E7002051D0520E5207082
:105A400002051FEB1B70DA1A80D79080157477F06F
:105A5000227E027F00121DF4E4FF7E02FDFC122074
:105A60000940157889121905C3EF9400FFEE9402DE
:105A7000121F6B12608180E0788CE6904106F0186E
:105A8000E6904105F07889121936000000007F0386
:105A900022900075E06003D38001C3926C90007681
:105AA000E0907208F0E0B420037402F0907208E015
:105AB000B440037404F0205313A26CE4339000004C
:105AC000F0907208E0900001F01260817F03228F55
:105AD00022E522B40205122478600CE522B4030A00
