:020000020000FC
:100000000265D7020C4B020C64020C91020CA30295
:100010000CF8020D83020E15020E26020E39020E96
:100020004C020E58020E65020E71020E7D020E96F3
:10003000020EC7020EED020FD50200000200000200
:100040006167025DF8025994026206024560025A35
:10005000400200000250A9025C6502332A02608A55
:100060000256F6026339025B3902642602652A02EF
:1000700065410260520251BF024C0E02462C904173
:1000800002E030E505E054FEF022904103E0540F19
:10009000FFBF0807904102E020E706123F52020826
:1000A00036123F3F900E41E024026052146031143A
:1000B000B40B0040030208369000BFF828287302F2
:1000C00001270201AA02083602022F0208360203A3
:1000D000380203580208360207D80207E202082154
:1000E000900E40E064217013900E44E0700D123FBA
:1000F0009E123F5A123F34123FDB22020836900E06
:1001000040E064A1701E306104F002082FA263E495
:1001100033FFA262E4332FFFA267E4332F900E4037
:10012000F002082F020836900E40E0247F60101481
:10013000601E2402706A903E00E0900E408058904D
:100140000E44E07008900E40F0A3F080560208368E
:10015000900E44E014601E2481600824FE60282470
:1001600082703A7881E630E0047F0180027F00905F
:100170000E40EF80227881E630E2047F0180027F2A
:1001800000900E40EF80107881E630E4047F01801B
:10019000027F00900E40EFF0E4A3F08006020836E4
:1001A0000208369041037402F022900E40E070196C
:1001B000900E42E0B4010F903E00E054FDF09041FB
:1001C00007E054FBF022020836900E40E064027013
:1001D0005B900E42E07052900E44E0146020248147
:1001E000600824FE602C2482703C7881E654FEF680
:1001F000904101E04402F0E054FEF00203347881C3
:10020000E654FBF6904101E04408F0E054FBF002B4
:1002100003347881E654EFF6904101E04420F0E0A9
:1002200054EFF00203340208360208360208369012
:100230000E40E060030202E4900E42E064026003BC
:100240000202E1900E44E060030202E1A3E07003C9
:100250000202E1E0C3940540030202DE903FF07425
:10026000F3F0900E45E0B4040312C01E903FF0740A
:10027000FF123F5A904102E0544170F8900E45E061
:1002800024FE601214601714601C2403704E904208
:10029000017483F080469042017485F0803E904264
:1002A000017407F0803678007C007D017BFF7A4185
:1002B000799A7E007F35120FD5306D09903FF0742A
:1002C000F2F012C01E904104E020E1F9123F3474B4
:1002D00035123FE59042017409F080E980FE020882
:1002E00036020836900E40E064027045900E42E0FF
:1002F000703C900E44E01460142481600824FE6079
:100300001B248270267881E64401F680277881E6F6
:100310004404F6904101E04404F080187881E644FA
:1003200010F6904101E04410F080090208360208FE
:1003300036020836123F5B22123F5B904102E054C6
:100340004170F8900E42E0904100F0904107E05477
:10035000FDF0E4903E04F022306D44909010740162
:10036000F0909016E030E31678A1E6F513125BD218
:100370007F0212256E909016E054F7F0801C78A151
:10038000E625E024A2F582E4343EF583E0FEA3E016
:10039000FFBEFF06BFFF03124CA9E4909010F0903F
:1003A0000E43E024FE606D14700302042C24FD60F3
:1003B0001114606024F8700302076A240E600302BF
:1003C00007A8306B15123F72500B7B1012083E705D
:1003D00006C26B8002C26B852013306B117A0079E4
:1003E00000123F96123F37903E097404800B123F73
:1003F0006390410CE493903E09F0903E0A7412F031
:10040000900E43E0640660030207AB903E0A740A54
:10041000F00207AB903E0B74FFF0A37440F074EC55
:10042000123FC0903E0A7420F00207AB306B1512E9
:100430003F72500B7B1212083E7006C26B8002C2E4
:100440006B852013306B0C123F927404F0A3740080
:10045000F08003123F63900E42E0120EC7047C004E
:10046000048A0104A40204C20304EC04051A8005F2
:100470006C8205F98307548600000767123F63907A
:10048000410E123FC890410F8059306B0C903E09CD
:100490007416F090040202079E904110123FC8901B
:1004A0004111803F306B10900402E02416903E0909
:1004B000F090040302079E904112123FC89041132E
:1004C0008021306A157A047980123F967404F074A2
:1004D00080123FC090048002079E904114123FC8D2
:1004E000904115E493903E0AF00207AB900400742B
:1004F00004F0A314F0903E0FE0900402F0903E0E42
:10050000E0900403F0123F927404F0A37400123FD1
:10051000C1903E0A7404F00207AB123FEF248E60D4
:100520001424FD601724DB601A24187020123F0D7C
:10053000125F6980117F02126482800A7F02124773
:100540009B800312239B903E20EFF08009125134D0
:10055000C253123FF622C253903E20E0B40303027E
:100560005134125134903E207405F022123FEF2492
:100570008D605024F0604324ED605E24FB604C24C9
:10058000A3606724FE605A24D06003020729900EFE
:1005900047E030E1127E027F007D007B017A047922
:1005A00000120EED0206A9900E45E0903E24F09058
:1005B0000E46E0903E23F00206FA123F0D1261D182
:1005C0000207227F02125EEF020722900E45E090A2
:1005D0000401F01260FA020722E4FF12384F02070A
:1005E00022123FAF125E740207229000747451F021
:1005F000123FAF126382020722123F8AE4903E212B
:10060000F0A3F0C3903E21E0940250447F84125640
:1006100026EF603C900E45E0FF903E21E0FCA3E019
:10062000FD2400F58274043CF583EFF0900E44E065
:10063000FF74012DF58274043CF583EFF01264A081
:10064000903E22E02402F0903E21E03400F080B39E
:10065000C3903E21E09402500302083D7F8512566C
:1006600026EF700302083D125134EF700302083D7B
:100670007F81125626EF700302083D123FEF248F50
:10068000700302070724FD700302070E24F3606F56
:1006900024E8700302071524FC700302071F24A836
:1006A000607824CB6003020729900E45E05407F5DB
:1006B00008A3E0F509903E24E0F50A903E23E0F51A
:1006C0000BE4F50C900E45E054F0F50DE030E31628
:1006D000123F26250BF50BEE350AF50AED3509F527
:1006E00009EC3508F508E50D7003750D01903E2005
:1006F0007480F012C006EF30E734123FF6802F12FC
:100700003F0D126312801B7F02125EB280147F02C3
:10071000124F90800D1231CC8008123E05800312DA
:100720004F00903E20EFF08005123FF68012903E81
:1007300020E0B403047F0080027F05903E20EFF0AC
:10074000C253123F8A126238EF600302083D903EA6
:100750002004F022903E20E0900E40F0E4903E20F5
:10076000F090410304F022020836306C38903000DB
:10077000E0640D7030A3E06406702AA3E0B40525A0
:10078000A3E0B4062090300AE0601A903E0B74FF9C
:10079000F0A37441F0A374CF123FC1900E46E090D5
:1007A0003E0AF08006020836020836900E47E070D6
:1007B00015900E46E0FF903E0AE0D39F4008900E51
:1007C00046E0903E0AF0903E0AE07004123F8A2212
:1007D000900E43E0FF02347F903E04E0900E40F024
:1007E000804D123F9EF0900E42E0B4011A903E04FC
:1007F0007401F0904107E04402123F5AE4909001E6
:10080000F090900704F022900E42E07012903E04A7
:10081000F0904107E054FD123F5A90900180138000
:1008200015900E44E07006900E40F0800280079014
:1008300041037401F022904101E04401F0227D0166
:100840007C0012C00FEF4E22E4F520900011E06012
:100850000A900010E020E0037F8322900010E05413
:1008600001900401F0900011E0900400F0909016C7
:10087000E05418FFBF1010306D0DE4FFFE12306A17
:10088000909016E054EFF02056432057407888E6C9
:10089000600A7987E77886461846601E7F457E4065
:1008A0007D357C747885121BDA600F7F427E497D2E
:1008B0004F7C537885121BDA7002D2567885E66039
:1008C0000C7988E778874618467002D25730675609
:1008D00020585320570330564D205D4A206115A201
:1008E00062E4332401FFE433FE7883E6FDB5070AB2
:1008F000E4B50606789976018025306411903E189B
:10090000E07899B4B0047610801576028011ED1469
:10091000FF7402A807088002C333D8FC7899F678E0
:1009200099E6FF125240306B1885131F121D0E7B83
:10093000107D017C0012C00FEF4E7002C26B851F4C
:10094000137899E6FFB40127121D927464F0A37422
:10095000DAF0206B030209ED900120E064AA600345
:100960000209ED7B017A017922903E0B0480593017
:100970006B61900002E07C002416F9EC3400FAA3CD
:10098000E029F9EC3AFA903E0B7401F0A3EAF0A3E7
:10099000E9F0EF5414601B900140E0B4AA147A010E
:1009A0007942903E0B7401F0A37401F0A37442F0FD
:1009B000803B7899E6B40835900120E0B4AA2E7AFD
:1009C000017922903E0B7401F0A37401F0A374220C
:1009D000F0801A904116E493903E09F07E00240CBA
:1009E000F9EE3441FA121D92EAF0A3E9F0E4900026
:1009F00000F07899E6640170372060237888E66417
:100A000005701C18E6B48F1718E6B4931218E6B4F4
:100A1000840DE4F0A3F0903E1CE054FEF0801190B1
:100A200000007405F0A37480F0903E1CE04401F0D7
:100A3000306D117412121D5874E1F012C01E121D97
:100A4000D7600122900401E07003020B999004002A
:100A5000E0900001F0900400E02480602224FD700A
:100A600003020B2424836003020B96E4900002121D
:100A70001C607480F0A37483F0752007020C45E4B9
:100A8000900002F0306A227B017A007980903E0B60
:100A900004F0A37400F0A37480F0E4903E09F09099
:100AA0000080E0903E0AF0801C121D927441F0A379
:100AB000740CF0904114E493903E09F0904115E4D9
:100AC00093903E0AF0903E0AE0900003F0E4FF901D
:100AD0003E0AE0FEEFC39E5029121D9A903E09E0A7
:100AE000FD7C00E92DF9EC3AFAEF29F9EC3AFA121B
:100AF0000C4BFD74032FF582E43400F583EDF00F09
:100B000080CD900003E030E010E004F074032EF597
:100B100082E43400F5837420F0900003E02404F5AF
:100B200020020C45E4900002F0A37432F074F2123B
:100B30001C63F0A37405F0A37430F0A37435F0A324
:100B40007438F0A37446F0A37420F0A374F2F07428
:100B500001121D07740D121C927420F0A3F0A31251
:100B60001C9274F1F07402121D077408121DDE123B
:100B70001C63121DA6E4A3F0A374F1121C60740898
:100B8000F0A37420F0E4A3121DDEA3F0A3121DA6AF
:100B9000752036020C457F83229000017480F0A3FB
:100BA0007404F0A37402F0A3741FF0E4A3F0A3F0A4
:100BB000A3F0F51F121D9A851F82758300120C6425
:100BC000FF7408251FF582E43400F583EFF0051F5C
:100BD000E51FB420DF306B6A3055032056033066C2
:100BE00005E4900001F0751F017899E6FFB4010853
:100BF0009000237430F080383066089000237435FC
:100C0000F0802D3065089000237436F08022306427
:100C1000089000237437F08017306311EF900023A1
:100C2000B408057439F080087438F08003E4F51FC7
:100C3000E51F600E9000207438F0A3742EF0A374AA
:100C400030F0752024AF201254E522BB01068982C2
:100C50008A83E0225002E722BBFE02E32289828AD5
:100C600083E49322BB010CE58229F582E5833AF502
:100C700083E0225006E92582F8E622BBFE06E9253C
:100C800082F8E222E58229F582E5833AF583E4934E
:100C900022EF8DF0A4A8F0CF8CF0A428CE8DF0A484
:100CA0002EFE22BC000BBE0029EF8DF084FFADF0BC
:100CB00022E4CCF875F008EF2FFFEE33FEEC33FCA6
:100CC000EE9DEC984005FCEE9DFE0FD5F0E9E4CEDC
:100CD000FD22EDF8F5F0EE8420D21CFEADF075F0AB
:100CE00008EF2FFFED33FD4007985006D5F0F222B4
:100CF000C398FD0FD5F0EA22E88FF0A4CC8BF0A4C6
:100D00002CFCE98EF0A42CFC8AF0EDA42CFCEA8EDD
:100D1000F0A4CDA8F08BF0A42DCC3825F0FDE98F00
:100D2000F0A42CCD35F0FCEB8EF0A4FEA9F0EB8FF7
:100D3000F0A4CFC5F02ECD39FEE43CFCEAA42DCEC4
:100D400035F0FDE43CFC2275F008758200EF2FFFC2
:100D5000EE33FECD33CDCC33CCC58233C5829BED93
:100D60009AEC99E58298400CF582EE9BFEED9AFD97
:100D7000EC99FC0FD5F0D6E4CEFBE4CDFAE4CCF947
:100D8000A88222B800C1B90059BA002DEC8BF084BA
:100D9000CFCECDFCE5F0CBF97818EF2FFFEE33FE88
:100DA000ED33FDEC33FCEB33FB10D703994004EB40
:100DB00099FB0FD8E5E4F9FA227818EF2FFFEE330C
:100DC000FEED33FDEC33FCC933C910D7059BE99A1E
:100DD0004007EC9BFCE99AF90FD8E0E4C9FAE4CCAF
:100DE000FB2275F010EF2FFFEE33FEED33FDCC3319
:100DF000CCC833C810D7079BEC9AE899400AED9B02
:100E0000FDEC9AFCE899F80FD5F0DAE4CDFBE4CCE0
:100E1000FAE4C8F922EB9FF5F0EA9E42F0E99D4220
:100E2000F0E89C45F022E8600FECC313FCED13FDE5
:100E3000EE13FEEF13FFD8F122E8600FEFC333FF8C
:100E4000EE33FEED33FDEC33FCD8F122E6FC08E690
:100E5000FD08E6FE08E6FF22E6FB08E6F908E6FAEA
:100E600008E6CBF822ECF608EDF608EEF608EFF609
:100E700022ECF0A3EDF0A3EEF0A3EFF022D083D0AC
:100E800082E493F608740193F608740293F60874EA
:100E90000393F6740473A8828583F0D083D0821202
:100EA0000EAD120EAD120EAD120EADE473E493A3AF
:100EB000C583C5F0C583C8C582C8F0A3C583C5F086
:100EC000C583C8C582C822D083D082F8E49370124B
:100ED000740193700DA3A393F8740193F582888332
:100EE000E4737402936860EFA3A3A380DFEF4E6006
:100EF00012EF60010EEDBB010B89828A83F0A3DF44
:100F0000FCDEFA2289F05007F709DFFCA9F022BBCA
:100F1000FEFCF309DFFCA9F022E709F608DFFA80FE
:100F200046E709F208DFFA803E88828C83E709F001
:100F3000A3DFFA8032E309F608DFFA806EE309F2F4
:100F400008DFFA806688828C83E309F0A3DFFA80E9
:100F50005A89828A83E0A3F608DFFA804E89828A62
:100F600083E0A3F208DFFA804280D280FA80C68054
:100F7000D4805580F28029801080A680EA809A80F3
:100F8000A880DA80E280CA802988848C8589828A58
:100F900083E493A30586F0A30586DFF5DEF3800BDB
:100FA00089828A83E493A3F608DFF9ECFAA9F0EDCD
:100FB000FB2288848C8589828A83E0A30586F0A33E
:100FC0000586DFF6DEF480E389828A83E493A3F268
:100FD00008DFF980D688F0EF60010E4E60CD88F012
:100FE000ED2402B4040050C3F582EB2402B40400E3
:100FF00050B92323458223900F6973909023E4F026
:10100000A304F090902174E1F074E9F074E1F0E44D
:10101000909001F0E0700302128FE490900FF0784E
:10102000B3764890900704F0909001E024FE70039E
:101030000210CA24F77003021132240224FC400378
:101040000210ED700302112A1470030211BD147016
:10105000030211B0240E6003021274126445904121
:1010600002E030E7F9904102E030E0F9E4F512E502
:1010700012905BCA93FF74002512F582E4340EF5DA
:1010800083E06F60030212760512E512B408E09067
:101090000E407411F0A37422F0A37433F0A37444CF
:1010A000F0A37455F0A37466F0A37477F0A374886A
:1010B000F0E4904102F0A37408F0904102E020E1D6
:1010C000F99090017401F002127412644590410786
:1010D000E030E4F990801CE0540FFFBF0FF6E4907D
:1010E0008007F0904107E04420F0021274AF0BAE8D
:1010F0000AAD09AC08C006C007AE0CAF0DAB07AA1D
:1011000006E4F9F8D007D006120D838F0B8E0A8DF6
:10111000098C08AF0BAE0AAD09AC08780A120E268E
:101120008F0B8E0A8D098C0880FE90800B7408F05E
:101130008005E490800BF090800A7410F012645DDA
:10114000E4F514126406E4F519F513E4908006F052
:10115000908005E030E0F990800BE054036005E4F6
:10116000FF1245600513E513C3940240DE90800A28
:101170007411F090800774FFF07514021265837586
:10118000120212635E12640690800774C0F0E4904D
:101190008006F0908005E030E0F990800BE0540389
:1011A00060047F0080027F01909001EFF0021274D2
:1011B00090801AE04401F090800A7411F0E490905D
:1011C00002F09090057430F09090027401F00000ED
:1011D0000000909001E0B40E05E490800AF01264E3
:1011E0005D90800B7404F0908005E030E7F990800A
:1011F0000074FFF0908005E030E7F9E4908000F0A3
:10120000A3F0F0F0F0909001E0B40F05E4908001BD
:10121000F09080007430F0908005E030E7F9908025
:10122000147410F0E4908006F0908005E030E0F94E
:10123000E4908006F0908005E030E0F9908015742D
:1012400055F074AAF09080147410F0E4908022F0AD
:10125000A37405F090801714F090801674C0F0907D
:101260008016E020E0F99080157477F0E4908023F8
:10127000F002E80080FEE4909001F0E0B4780EE423
:10128000FDFF1251BF124C0EE4FF12462C80FE757A
:101290009852758921758DFFD28EE4F58CF58AD22E
:1012A0008C4387807898F67599559090107408F063
:1012B00090900174FFF0125A9490900AE020E70792
:1012C000909000E030E449909016E030E017903FB5
:1012D00088E0B45110A3E0B4460BA3E0B45706A3D2
:1012E000E0645460261248491264F6909016E04477
:1012F00001F0903F887451F0A37446F0A37457F046
:10130000A37454F0E4909010F080091264F6800801
:10131000124849E490900FF0E4909010F0023FFDE5
:10132000C26DC269126294E47892F6122C86C25998
:10133000E4908040F090800B7410F01264BE9080B6
:101340001AE0547FF090800AE04410F090801AE098
:101350004401F0908005E030E7F9122C557430F02C
:10136000E4F514908005E030E7F99080147410F0F3
:10137000E4908006F0908005E030E0F9908067E02E
:1013800030E018E514701105149080007405F0E445
:10139000122C5A74E0F080CB122C7FE4FD7F2E12C9
:1013A0004D44E4F514902E00E0B4500DA3E0B45089
:1013B00008903EE57403F08006903EE57401F090DD
:1013C0002E00E064986005E06445701C751401907F
:1013D0002E02E030E358122D6FD394045005E054F0
:1013E00007704B4314028046902E00E064EC703E80
:1013F000751404902E02E030E31C122D6FC3940488
:10140000401443140890801AE030E00A122D6FFF58
:10141000BF050343141090801AE030E011902E01B4
:10142000E0700BA3E07007A3E07003431410E478AE
:1014300094F67894E6C39478400302158790800B65
:101440007480F0908005E030E7F9122D27E5143024
:10145000E439122D559080147432F0908005E030FC
:10146000E7F974EF122CF47410F0903200E4F0A35A
:10147000F0FE7F08FD7B017A327902120EED90803A
:10148000067484F0908005E030E0F97894E6FF126D
:101490004DDE908005E030E7F9E51430E1069080FC
:1014A0000074A2F0E51430E30690800074DAF0E4F2
:1014B000908000F0122CB97430F07894E67014909B
:1014C0008005E030E70D7892E630E1077894767891
:1014D000021587908005E030E7F9E5145403600DAC
:1014E0009080007405F0E4122CB974E0F0E4789177
:1014F000F69080147410F0908005E030E7F9E490E5
:101500008006F0908005E030E0F990800BE0540315
:101510006009E020E15AE4FF124560901000E064A9
:101520000D704DA3E064067047A3E064057041A30D
:10153000E06406703BA3E06421600AE06419600582
:10154000E06425702B90900AE030E40BE030E41B5F
:10155000901007E0B4511478007C30122CCB7E023E
:101560007F00120FD5121DEFEF705C122C86800CDD
:101570007891E6C394085004060214F1903EE5E029
:10158000789426F6021432789206E6C39404500347
:1015900002132B122C7FE47892F61264BE90800521
:1015A000E030E7F9122D27908005E030E7F9122CA2
:1015B000557430F0908005E030E7F9789206E6C384
:1015C000940440D67F0022D26D90319FE0B4510840
:1015D000D2599080407401F012398AE4909002F060
:1015E000903192E07004A3E0601D90300CE05470E4
:1015F000909005F0903192E0FEA3E0FF124999909F
:1016000090057490F0800A90300CE04401909005B1
:10161000F09090027401F0903121E0B45102D2694F
:1016200090901EE04440F012C000E47883F67F0101
:1016300022900012E07895F6A3E0F508A3E0F50902
:10164000900015E0F50AA3E0F50B7889120E7D00F5
:10165000000000900019E0B45106A3E0900010F0E3
:10166000900010E0120EC716CB00177601177E020D
:10167000178C03178F0417FA05179206179507178B
:101680009E0817980917A10A17A40B17A70C17B8DB
:101690000E186B1017BB1117BE1217D51318A71B06
:1016A00018B91C18CF1D18EC1E19051F190B201690
:1016B000CE2116CE2217352317352417F42817F715
:1016C0002A17EB8017F1810000191302582490802B
:1016D0000BE054FC788CF690800AE018F69000112C
:1016E000E018F690800B7480F0E4900011F0126026
:1016F00019788AE6900011F0900010E0B42108A358
:10170000E0FF123CF4800E12231912654190001183
:10171000E0FF125C1C7889A607788CE690800BF0BD
:1017200018E630E0047F0180027F00900011EFF0A6
:10173000126019803C90801AE05480788CF6E05456
:101740007FF0900010E0B42408A3E0FF123CF48086
:101750000E122319126541900011E0FF125C1C78F3
:1017600089A60790801AE0FF788CE65480FEEF4E41
:10177000F07889E6FF22900011E0FF023CF412238A
:1017800019126541900011E0FF025C1C02646402C2
:101790005881025552024E701260197F0322026373
:1017A000C60235CB0258DE7895E6FF5470FEEF5442
:1017B000074E90900E02190F0242C8025FDF1265B9
:1017C000117895E67800FC7A0079007E027F00129D
:1017D00022C97F03227895E6FA79007B01C002C016
:1017E00001122343D001D0020218B01221D7025EA9
:1017F000740265AA025FA4025CAA7D001222BC905A
:1018000000007478F0A37404F09000037407F0E40F
:10181000F520AF20124DDEE52075F004A4AEF024D3
:1018200010F50DE43EF50CFE7400250DF5827400F4
:101830003EF583E520F07401250DF58274003EF538
:1018400083E509F07402250DF58274003EF583E509
:101850000AF07403250DF58274003EF583E50BF064
:101860000520E520C3947840A9805E900011E0F542
:1018700020AF201520EF602CAE08AF09E42FFFE465
:101880003EFAA9077BFFC002C001122343D001D05A
:10189000027E027F00120FD51222331262EB05087E
:1018A000050880CD7F03221223437B017A30790023
:1018B0007E027F00120FD580101223437B007A0036
:1018C00079007E017F00120FD51262EB7F03229018
:1018D0000011E0600BD259908040E04401F0800993
:1018E000C259908040E054FEF07F0322900011E046
:1018F00090800A6006E04402F08004E054FDF0129B
:10190000398A7F0322124AD67F0322E4909012F094
:101910007F03227F8322903E06E064077003A3E0EA
:10192000F470421222D0125AE8E51354037F00FEED
:10193000EF2400F974103EFA7B01C002C001780068
:101940007C147D01D001D0027E01120FD5E4FF127C
:10195000256E8E228F23C3E523789E96E522189666
:10196000400D021B46903E06E0F522A3E0F5237BE6
:1019700014E4FDFCAF23AE2212C00FEF4E70030241
:101980001B4690100A122246122366901011122252
:1019900046903E6C120E71901016122246903E70C8
:1019A000120E7190101B122246903E78120E71900A
:1019B0001021122246903E7C120E719010261222A7
:1019C0004612233D901030E024FF925F901034E0E7
:1019D00024FF9264901036E024FF9255901038E076
:1019E00024FF9266A3E024FF9263A3E024FF9265A4
:1019F000A3E024FF926790103FE024FF925AA3E0F7
:101A000024FF9260A3E024FF925CA3E0903E03F0E9
:101A1000901043E024FF925EA3E024FF9261A3E0D4
:101A200024FF925DA3E024FF9258A3E024FF92508C
:101A3000A3E024FF9270305A047F0180027F00905F
:101A40009001EFF090102EE0789A46F6909016E014
:101A500030E104E654EFF630670320642A1221AC2B
:101A6000FF903E6C122214FBD3120E15400A903EDA
:101A70006C120E9600000000903E6C1221AFFFEC3D
:101A80004D4E4F6002D262305F09909000E030E32B
:101A900002C267E4F521E521C378AC96502175F0C8
:101AA00002E521A42400F582E5F03411F583E0FE7F
:101AB000A3E0FF122261EEF0A3EFF0052180D77DB5
:101AC00001121B9B7003021B961246E67D02121B3D
:101AD0009B7003021B96901080E0B4FF09A3E0B452
:101AE000FF047FC080027FB0903E18EFF07D0312AC
:101AF0001BA97003021B96901080E0B4FF09A3E0BD
:101B0000B4FF047FC080027FB0903E1AEFF07D07E3
:101B1000121BA97003021B96901080E064AA701734
:101B2000A3E0B45512122387E0B4A50D903E11E056
:101B3000B45A06D25B8002D25B903E06E522F0A347
:101B4000E523F07F0122903E067407F0A374FFF0B6
:101B5000E4F52178ACE6FFE521C39F5013789FE6BA
:101B6000FC08E6FD122261ECF0A3EDF0052180E314
:101B70007E00789FE6FC08E6FD120C918E228F23F2
:101B8000AB07AA06E4F9F8AE0EAF0FFCFD120CF895
:101B900012236612233DD25B7F00227B147C00AFB0
:101BA00023AE2212C00FEF4E227B147C00AF23AE77
:101BB0002212C00FEF4E227F147E007D007B017A3F
:101BC000007900020EEDE50D250BFFE50C350AFE50
:101BD000E43509FDE43508FC788D120E58C3020E79
:101BE00015E0FCA3E0FDA3E0FEA3E0250BF50BEE62
:101BF000350AF50AED3509F509EC3508F5082278BE
:101C00008D120E4CEF24FFFFEE34FFFEED34FFFD8E
:101C1000EC34FFFC900000020E71FFE02FFFE43374
:101C2000FE74002FF58274023EF583E064AA2290D0
:101C30008017E0250DF50DE4350CF50CFE7809AFA5
:101C40000DE4FCFD120E39788922AF0BAE0AAD0906
:101C5000AC087802120E398F0B8E0A8D098C08227F
:101C6000F07403A3F0E4A3F0A322C2547A00790035
:101C70007E007F009044007400F0A37400F0E490B4
:101C80004104F022904101E04410F07881E64410D4
:101C9000F622F0A37441F0A3744CF0A37443F0A3B4
:101CA000744FF0A37452F0A32274002520F582E44F
:101CB0003402F583E022A25CE433FF74047E00A8C2
:101CC000070822E0FCA3E0FDA3E0FEA3E022AE0CA7
:101CD000AF0DE4FCFDFB7A02F9F8120CF8788922CA
:101CE000FF7E00E07C002400F9EC3402FA7B012244
:101CF00078007C007D0122FF7E00E07C002400F95A
:101D0000EC3403FA7B0122A3F0E4A3F0A322903188
:101D100005E0F513903E06E0FEA3E0FF22FEED9401
:101D200000FDEC9400FC7889020E65FFE02FFFE4D3
:101D300033FE74002FF582740322903E03E0FEC34D
:101D4000EF9E903E02F0541F2274012520F582E49C
:101D50003402F583E0240222903E15F0903E167482
:101D600001F0903FF0229000027480F02278957686
:101D70000578962278957602789622903E01E06466
:101D800001F0909001F022AB0BAA0AA909A8080261
:101D90000E15903E0B74FFF0A322903E0BE0FBA3C8
:101DA000E0FAA3E0F9227405F0A37408F0A3740F1D
:101DB000F0227D017B017A0079117E0022788D125C
:101DC0000E4C7802020E267889120E58D3020E1598
:101DD000CEA2E713CE13227880E6FF640222F0A39E
:101DE0007449F0A37445F02278957606789622908F
:101DF0003F5674FFF0903012E078A2F690800AE02F
:101E0000FF903013E0FEEF4E90800AF09031F0E04A
:101E1000F50EA3E0F50F9031F2E078ACF69031F4D6
:101E2000E0F510A3E0F5119031F6E078ADF69031D1
:101E3000F8E0F5129031FA122C419031FC789F12A3
:101E40002C439031FE122CD4903191E0909009F007
:101E50009031A7E078A3F6E6700276049031A8E00E
:101E6000FF125E36903194E06003122D48122CDF91
:101E700078B17614E4F52378B1E6122CE9540F64B6
:101E80000C6003021FED903F56E0B4FF1A78B1E6F4
:101E9000FF122CE9FEC4540F600D74002F122CEBBE
:101EA000C4540F903F56F0122D0BC4540F1264C14E
:101EB000E6FF2402F582E43430F583E0540F78AF76
:101EC000F674022FF582E43430F583E0C4540F90A9
:101ED0003F57F078B1E62403F582E43430F583E02F
:101EE00078B0F6908005E030E7F9E4F521E521C30C
:101EF00078AF96502FAF217401A807088002C33332
:101F0000D8FCF52278B0566010908005E030E7F9F3
:101F1000122C8E908000F08007122C8E908001F0A1
:101F2000052180C9122D0B540F78AFF6E630E0037F
:101F30007F0022E4F521E521C378AF964003021F1C
:101F4000E4E521540725E02410908014F0908005EA
:101F5000E030E7F9E4908006F0908005E030E0F9A9
:101F600090800BE054036025E030E11C903F56E088
:101F70006013E014F0A3E075F00CA4FFC378B1E6A1
:101F80009FF6021E867F0022E4FF124560908005C6
:101F9000E030E10A90800AE020E1037F0022052181
:101FA0000521E5215407F5226007E52178AF667029
:101FB0002AE5227003752208E5227F0025E0FEC095
:101FC00006C007E523122CAEA807FC122CCBD007C5
:101FD000D006120FD5E5222523F523903F5674FF36
:101FE000F0021F3678B1740C26F6021E77122D68A7
:101FF0007F01221265587899E66401702E903E1C8C
:10200000E030E027AE0CAF0DE4FCFD780B120E398A
:102010007889121BDA7014121C4AE50DAE0C780296
:10202000C333CE33CED8F9F50D8E0C121CCE121B55
:10203000DA60037F842212540A8F1FEF30E70122F7
:10204000788D120E4CD3121D8740093056030221A1
:102050002E7F8A22121BC650037F8A22903E02E006
:10206000FF6011904107E030E611121D3A70051231
:102070001D7B8000904107E054BFF0903E02E04499
:1020800040F02064047F0180027F00903E18E0B49D
:10209000B0047E0180027E00EE5F700302214D12CB
:1020A0001CB68003121DD0D8FBFF7899E66F700133
:1020B000EE600302214D7889120E7D00000000E4DD
:1020C000FFFEFDFCC3121D8770647899E6B404120C
:1020D000903E6CE0FCA3E0FDA3E0FEA3E0F50B1254
:1020E0001C59903E1EE50CF0A3E50DF0750C007533
:1020F0000D0112C0038F1FE51F30E718903E1EE050
:102100007004A3E06401700FE51F30E0047F0180DC
:10211000027F03227F8922908016E020E0F9903E22
:102120001FE024FFF50D903E1EE034FFF50C7E0C01
:102130007F007DFF121BBDE50D450C600D1262EBAB
:10214000E50D150D70F1150C80ED7F032212613144
:1021500012C0038F1FE51F30E72D30E01C904102B5
:10216000E030E00312007E904104E020E1EF3054C3
:1021700003121C6A751F018003751F037889120EF4
:102180007D000000008009121C2F120E65751F894A
:10219000AF1F227F0322021DEF7A0479007E047FA5
:1021A000009044007404F0A37400F022903E74E0A8
:1021B000FCA3E0FDA3E0FEA3E022908017E0250D44
:1021C000F50DE4350CF50CFEAF0DE4FCFD780912BD
:1021D0000E397889020E65900010E0900074F0903E
:1021E0000011E0900075F0900012E0900076F0226F
:1021F0007DFF7E027F007B017A047900020EEDE50F
:102200000D250BFFE50C350AFEE43509FDE4903E93
:10221000783508FCE0F8A3E0F9A3E0FAA3E0222572
:102220000BF50BEE350AF50AED3509F509EC350825
:10223000F508227A0079007E007F00904400740047
:10224000F0A37400F022E0FCA3E0FDA3E0FEA3E015
:10225000FF22903105E0F513903E06E0FEA3E0FF7B
:1022600022E52125E024C2F582E4343EF58322E50F
:102270000D250BFFE50C350AFEE43509FDE43508B4
:10228000FC22F0A261E433A3F0A25DE433A3F0A248
:1022900058E433A3F0A250E433A3F0A270E433A3D4
:1022A000F022F0A266E433A3F0A263E433A3F0A229
:1022B00065E433A3F0A267E433A3F0227E027F003B
:1022C0007B017A007900020EED7D017B01020FD5C2
:1022D000903105E0F513222FF50BEA3EF50AE93DB2
:1022E000F509E83CF5082275F002EFA42400F58218
:1022F000E5F03405F5832274002520F582E43404EA
:10230000F58322FFAB0BAA0AA909A808C3020E1580
:10231000788D120E58C3020E15900017E0FEA3E050
:10232000FF22789BE644F6F622250BFFEE350AFEE7
:10233000ED3509FDEC22C394FFEE940722903E7424
:10234000020E7178007C007D0122F582E43402F5F2
:1023500083229000747451F0A3222DFDE4338D820A
:10236000F583E493FE22903E68020E7104F0A264AD
:10237000E433A3F0A322903E18E064B022ED5407AA
:10238000FA7401A8020822789AE64401F6903E10F9
:1023900022C3E50B94FFE50A9407227D001221F287
:1023A000903E681221AFFF900400120E7190040459
:1023B00074E5F0A37412F0A374A1F07B017A3E7966
:1023C0006C125C65900407120E7190040B74A2F0FD
:1023D0007B017A3E7978125C6590040C120E719044
:1023E000041074A3F0E4A3F0A26C33A3F0A374A4CC
:1023F000F07B017A3E797C125C65900414120E71B8
:1024000090041974A5F07B017A3E7970125C659096
:10241000041A120E7190041F7401F0A374A6F0A2A6
:102420005FE433A3F090042374A7F09004261223F2
:102430006C74A9F090042B04F0A26DE433A3F09027
:10244000900AE090042DF090042F74AB1222A2A207
:102450005CE433900436F0A25AE433A3F0903E03D8
:10246000E09004381222827B017A3E7974125C6516
:10247000900500120E7190050474B0F0903E19E0C2
:10248000900505F0903E1BE0900506F0903E18E0A8
:10249000900507F0903E1AE0900508F0A374C0F094
:1024A000789AE6A3F0A374B1F090051004F0789F39
:1024B000E6A3F008E6A3F0A374B3F0A26CE433A3A0
:1024C000F0903E08E0900515F0A374B4F0789BE618
:1024D000FFA3F0789CE6FEA3F0A374B5F09005246A
:1024E00004F0A3EFF0A3EEF090053074B7F09090F5
:1024F00000E0900531F090053574B8F09005400487
:10250000F0903102E0900541F078A5E6A3F008E6EE
:10251000A3F0903105E0900544F0903E06E0900570
:1025200045F0903E07E0900546F09090287401F049
:10253000E4F000909029E0900550F090902AE0900F
:102540000551F090902BE0900552F090902CE09087
:102550000553F078F07C057A3179F07E007F101217
:1025600022C92053061221991262EB7F03228F2584
:10257000E4F50AF50BC3E50B789E96E50A1896403C
:10258000030226FFE5257019123025CEC313CE13A2
:10259000D8F92400F5827414122F1D5E60190226EA
:1025A000F4123025CEC313CE13D8F9122FE0122F18
:1025B0001D5E60030226F47B40E4FDFCAF0BAE0A17
:1025C00012C00F905D02EEF0A3EFF0905D02E0A369
:1025D00030E720123025CEC313CE13D8F9122FE0E6
:1025E0003EF583C083C082122F204ED082D083F06C
:1025F0000226F4C3905D03E094FF905D02E094072F
:1026000040030226F4E525700CE0B40708A3E0B40B
:10261000FC03022721E525640260030226F4122F41
:10262000BE126206905D00EEF0A3EFF0C3905D0174
:10263000E094FF905D00E09407400D122FBEAD0BBB
:10264000AC0A1259940226F4E514C39425400302FF
:1026500026EB7B407D027C00AF0BAE0A12C00F90D0
:102660003EE2EEF0A3EFF0122FBE903EE2E06E707D
:1026700003A3E06F600E903EE2E064077004A3E005
:1026800064F7702CE514C39419905D00E0FEA3E09C
:10269000FFE51450051230568003123060F583EECA
:1026A000F0A3EFF0122FBEAD0BAC0A125994803795
:1026B000E514C39419E51450051230568003123006
:1026C00060F583E50AF0A3E50BF0123025CEC313C5
:1026D000CE13D8F9122FE03EF583C083C082122FAB
:1026E000204ED082D083F0051480097D01AF0BAE5F
:1026F0000A12C012050BE50B7002050A022575E5EA
:10270000256015903102E0B5130E78A5E6FC08E6C9
:10271000FD7FFD7E071259947F107A5D790012309B
:102720004DAE0AAF0B22306530789AE630E02A9041
:10273000000FE0248F24FC501D24F2601924ED606A
:102740001524FC60140424FB500C24A9600824FB0D
:102750006004247970037F8222D25290000FE0122D
:102760000EC728A61028AD11280312285E71286212
:1027700072286673286A74286E752879762882779D
:10278000288B7828947B289D7C283E8128498228A4
:10279000548328349627E397281499281C9A2824D0
:1027A0009B27FB9C282C9D280CF527C3F627CBF7ED
:1027B00027EBF827D3F928B4FA27DBFB27F6FF002D
:1027C0000028BB1257C28F1F0228BE12532D8F1F25
:1027D0000228BE12619C8F1F0228BE1262C08F1F8A
:1027E0000228BE1265E38F1F0228BE1221D7126392
:1027F000828F1F0228BE12656E800B1254788F1FC5
:102800000228BE1263A4751F030228BE123E058F64
:102810001F0228BE1231CC8F1F0228BE12239B8FAD
:102820001F0228BE1260FA8F1F0228BE124F008FAF
:102830001F0228BE7F0112384F8F1F0228BE1221AF
:10284000D71263128F1F0228BE1221D7125F698F21
:102850001F0228BE1221D71261D18F1F80607F0214
:1028600080197F02801E7F0280237F028028903E95
:102870001CE04402F07F0280267F03125EB28F1FAD
:10288000803C7F031264828F1F80337F03125EEFD0
:102890008F1F802A7F03124F908F1F80217F03128A
:1028A000479B8F1F8018124A3A8F1F80111248F6DB
:1028B0008F1F800A1216318F1F8003751F82C2522C
:1028C000AF1F2290000FE0F51D7889120E4CEC4DE1
:1028D0004E4F601290000CE0648060047F03800221
:1028E0007F028F1E8003751E017884A61E306D1D29
:1028F00030691A903E15E51DF0E4903E16F0903FC9
:10290000F074E2F012C01E121DD7600122E51D1204
:102910000EC729FF0029E5032A42042980122A4212
:102920001529A21A29F21B2A0C1E29C42329D525F0
:10293000295E28296F2A29912F2A19432A26452AF8
:102940002D462A34512A3B5229B35A29D59E2A4E64
:10295000A22A42A32A42BB2A47BE00002A55E51EEE
:1029600064026003022A5D121FF38F1C022A5AE5DB
:102970001E64036003022A5D123AB78F1C022A5AB2
:10298000E51E64026003022A5D1208488F1C022AB9
:102990005AE51E64016003022A5D1265BC8F1C02A9
:1029A0002A5AE51E64026003022A5D123BE18F1C75
:1029B000022A5AE51E64026003022A5D1237128F52
:1029C0001C022A5AE51E64026003022A5D12575C4B
:1029D0008F1C022A5AE51E64026003022A5D12441B
:1029E000888F1C8075E51E640270721260C28F1C95
:1029F0008068E51E64017065125F2C8F1C805BE5AA
:102A00001E6401705812568F8F1C804EE51E6401A3
:102A1000704B1265CA8F1C8041E51E6402703E1225
:102A20004B728F1C80341221938F1C802D125939C8
:102A30008F1C8026125CEF8F1C801F125D348F1C50
:102A40008018751C038013125D798F1C800C126234
:102A5000678F1C80051227268F1CAF1C227F8222C5
:102A60008F232052062053037F01221222D012C04E
:102A70001520510312C01B7FFC7E071262068E0ACE
:102A80008F0B12239140117E107F007DFF7B017A16
:102A9000107900120EED8021E47891F67891E6C36A
:102AA00094085015E6FD7C00E62404FBAF0BAE0A4B
:102AB00012C00F7891060680E3E523B4FF0975087C
:102AC000077509FF022BC5905DFDE07891F6E4F0F3
:102AD000125A408E088F09BEFF06BFFF037F0022F7
:102AE0007891E6905DFDF0E5237F0025E0FEEF2480
:102AF00000F974103EA801FC7D017B017A04790085
:102B00007E02120FD5E47891F67891E6C3940840DE
:102B100003022BC52052062053037F01227891E641
:102B20008512F084E5F070057BA0122BEB7FFC7E14
:102B3000071265419031EEE030E30778917BA212F5
:102B40002BEB7891E625E02410908014F09080061D
:102B500074E0F0908005E030E0F97891E624028599
:102B600012F084E5F06007E624025407705090806C
:102B7000007410F0908005E030E7F978A2E6FF20BD
:102B8000E53C9080007470F09080047401F09080B7
:102B900002E07892F6EF54C06006908003E046F6BB
:102BA0007892E630E0187D01AF09AE0812C0127BC2
:102BB000C1E4FDFCAF09AE0812C00F022AC778912C
:102BC0000606022B0912239150097D01AF0BAE0AB4
:102BD00012C012AD09AC087FFC7E07125994903EDA
:102BE00006E508F0A3E509F07F0122E6FD7C00AFD1
:102BF00009AE0812C00F22AF177E0078A4E6FAFDD6
:102C00007C00120C917891E625E02427F582E434CB
:102C10003EF583EEF0A3EFF0E5188AF0A4FFE62579
:102C2000E02427F582E4343EF58322120FD57A00A2
:102C300079007E007F009044007400F0A37400F0DF
:102C400022789DE0FEA3E0A60608F6227D017B0126
:102C50007E00020FD5E4908000F0908001F0F0F04B
:102C6000F0F090800022F0E512FD7C00AE0AAF0B80
:102C7000120CA3ECC313ED13FDE5178DF0A4229005
:102C8000801AE054FEF090800AE05480F02278B17F
:102C9000E62521FFE433FE74042FF58274303EF5FF
:102CA00083E0227B20AD0BAC0AAF09AE082225E001
:102CB000FEE42400FFEE34A022908001F0F0E50B4A
:102CC000F0E50AF0E509F0908000227D017B017AB1
:102CD0001079002278A5E0FEA3E0A60608F622906F
:102CE00080157455F074AAF0222400F582E4343083
:102CF000F583E022908000F0908001227E027F0028
:102D00007D007B017A007900020EED78B1E62401A6
:102D1000F582E43430F583E022908040E0FFA25950
:102D2000E433FEEF4EF02290800074FFF022EA259B
:102D3000E024E6F582E43463F58322E517C313F556
:102D400017E518C313F51822E05470FFE054074F3D
:102D500090900EF022908040E054FEF022EBC313DE
:102D600078B2F678A406E6229080157477F0229067
:102D70002E05E0540722908017F090801674C02230
:102D80007D017B017E00020FD5904106E0547FFF5C
:102D9000BF211C7F437E427D537C55900000E0F8AC
:102DA000A3E0F9A3E0FAA3E0FBC3120E15600778D5
:102DB0008476027F82227B017A007904125C657836
:102DC00085120E657B017A007908125C657889129C
:102DD0000E657A0079007E00123F3490000DE07895
:102DE00083F690000FE0306E3F6412602A7888E628
:102DF000B4051718E6B48F1218E6B4930D18E6B4AC
:102E00008408903E1C7402F08006903E1C7407F00B
:102E1000306504E4789BF6C26EE47899F678A1E612
:102E2000F5139090077401F0206C03022EDDA2646C
:102E3000E433FF903E18E0FEB4B0047D0180027DD3
:102E400000ED5F6023A25CE433FF7883E6FDB50705
:102E50001220670F7402A805088002C333D8FCF55E
:102E60001C8037751C108032206115A262E4332467
:102E700001FDE433FC7883E6FFB50511E4B5040DEC
:102E8000306305751C088012751C01800D7402A842
:102E900007088002C333D8FCF51C3067562058530E
:102EA000205703305603305D273064117883E67075
:102EB000028025EE64B0603B751C0280367883E6A4
:102EC000FF7401A807088002C333D8FCF51C8023D7
:102ED0003064207883E6601B751C0180167883E6D9
:102EE0007008903E08E0F51C8009751C04789CE68B
:102EF0004404F6E51C7899666005AF1C1252407FC9
:102F00000222F58374FFF0A3F0EF25E025E02439D9
:102F1000F582E4343FF583E075F00AA4223EF583A0
:102F2000E0FF7C00E50B5407249AF582EC345BF556
:102F300083E493FEEF227E007DFF7B01020EEDE530
:102F40002725E02480F582E4343EF58322E523251D
:102F5000E025E02438F582E4343FF58322FDEEC31A
:102F600013FEEF132400F58274583EF583E022E54A
:102F70002225E025E02460F582E4345DF583E0FE5F
:102F8000A3E0227E007DFF7B01020EED7D017B012F
:102F90007E00020FD525E025E02436F582E4343F9B
:102FA000F58322EC25E02400F582E4345DF58322EC
:102FB00024EEF582E4343EF583E4F0A3F022905D44
:102FC00002E0FEA3E0FF22E52225E025E02462F5F1
:102FD00082E4345DF583E02224E6F582E4343E2287
:102FE0002400F582745C227C005407249AF582EC5C
:102FF000345BF583E493227F007B01020EEDE52133
:1030000078A026FFE41836FE2225E025E02439F5D5
:1030100082E4343FF58322E52225E025E02463F5B0
:1030200082E4345D22E50BAE0A780322E52125E037
:1030300024A2F582E4343E22789AE64420F67EFF0C
:103040007FFF2225E024C2F582E4343E227E007D0B
:10305000FF7B01020EED25E02456F582E4343F2289
:1030600025E02415F582E4343E228F2178ACE6F584
:1030700015F513C251E4F523E513D378A196500357
:103080000231CB151312C01530510612C024023183
:1030900095E4F522122FC765136003023189122FC0
:1030A0004DE0F46004052380F5E4F524E524C395A0
:1030B00023502A122FC7FFE524122F4FE0B507191E
:1030C000122F6FFFE524122F95E0FCA3E0B507094E
:1030D000ECB506050522023094052480CF122F6F2F
:1030E000FFE523122F95EEF0A3EFF0122F4DE5131D
:1030F000F0123017122F152410F9745D35F0FA7B99
:1031000001C001E523122F0A24E6F9743E35F0A828
:1031100001FC7D01D0017E007F0A120FD51230170D
:10312000F583E075F008A42480F9745D35F0FA7B2E
:1031300001C001E523123009E075F008A4248CF9E0
:10314000743F35F0A801FC7D01D0017E007F08129C
:103150000FD5E523122F0A122FD8122F7CC3950FFB
:10316000EE950E5024E523122F0A24E8F582E4346C
:103170003E122F7CFF7D0112C018E523122F0A1288
:103180002FD8F583EEF0A3EFF00522E522C39408D3
:103190005003023094E521600FE4F51412C02105BC
:1031A00014E514C3940840F478107C5D7A3E79E607
:1031B0007F70122F8C78807C5D7D017B017A3F7956
:1031C0008C7E007F38120FD502307822903E18E0B6
:1031D00064C060037F892220530612219912651171
:1031E0007B017A047900125C65903E6C120E717B53
:1031F000017A047906125C65903E78120E717B01AB
:103200007A04790B125C65903E7C120E717B017A18
:1032100004790F125C65903E70120E717B017A0486
:103220007940125C658F0B8E0A8D098C08900445DD
:10323000E0903E0EF0900446E0903E0FF090044483
:10324000E0645170499004FEE0644A7028A3E06491
:103250004E7022FF78ACE6FEEFC39E50141222E7B8
:10326000E0FCA3E0FDEF122263ECF0A3EDF00F8091
:10327000E3E4789CF6AF0BAE0AAD09AC08EC4D4E1A
:103280004F600BAF0BAE0AAD09AC08122366C262E9
:10329000A2648267400F903E6C1221AFFFEC4D4E4E
:1032A0004F6002D262900404E0B45103D38001C3A2
:1032B000925C306703206406A25CA062925C903E40
:1032C000781221AFFF903E701222142FF50BEA3EC8
:1032D000F50AE93DF509E83CF508206009903E70E3
:1032E0001221AF12221F903E681221AFC3950BFF2F
:1032F000EE950AFEED9509FDEC9508FC12233D3094
:10330000671E30641B1221ACFF903E6C122214FB2E
:10331000C3EF9BFFEE9AFEED99FDEC98FC12233D66
:103320007899E6FF1252407F03228F1CE478A4F6BE
:10333000908016E020E0F9904104E020E1F91222AB
:1033400033900000120E96555342537B007A007959
:1033500085125C65900004120E71E490000CF090F0
:10336000000BF090000AF0900009F0900008F09037
:103370004106740DF0E4904105F0D254904104E010
:1033800030E10A904102E030E0F27F0022C2547A3C
:103390000079007E0012223BE4904104F0E51C70AD
:1033A00002FF22C28CC28DE4F58CF58AD28C903E4D
:1033B00002E0FF6024904107E030E624903E03E005
:1033C000FEC3EF9E903E02F0541F700D903E01E050
:1033D0006401F0909001F08000904107E054BFF04C
:1033E000903E02E04440F0904104E020E010904123
:1033F00002E030E0037F0022308DEC7F002290005D
:103400000FE0701A78A4E6C39401501290000DE00A
:10341000788366700978A40612347002333E9000F7
:10342000111222467891122312704290000FE0652B
:103430001C703A90000DE07883667031908016F031
:10344000123470122233E4908014F0900016E0F5EC
:103450000CA3E0F50D7891120E4C8F0B8E0A8D099E
:103460008C0812226F7891120E657F01227F002254
:103470007B017A007904125C657885120E65228FD3
:1034800021903E0AE0FF70030235C7D39440400408
:103490007E408002AE07E4FFEFC39E5031903E0BAA
:1034A000E0FBA3E0FAA3E0F9903E09E0FD7C00E92F
:1034B0002DF9EC3AFAEF29F9EC3AFA120C4BFD74BB
:1034C000402FF582E4340EF583EDF00F80CA789832
:1034D000E6FF20E606E52164026009EF30E615E527
:1034E00021B40710900E567440F0E4A3F0900E5DE6
:1034F00074408014E521B40613900E40740AF0A3C2
:103500007406F0900E487401F0E4A3F0E521B407CE
:1035100006900E417407F0E52164016006E5216420
:10352000067030306C1C903000E0B40D15A3E0B490
:103530000610A3E0B4050BA3E0B4060690300AE041
:103540008001E4900E42F0900E437402F0900E471A
:103550007440F0E5216401702B900E4AE0B48006BF
:10356000A3E06493600AD26C900E507403F080075D
:10357000C26CE4900E50F0206D0A900E4A7434F044
:10358000A37412F0E52164026005E521B4070890F8
:103590003E05E0900E48F0904103EEF0904102E0CD
:1035A00020E1F9904102E054216005E054FEF02250
:1035B000904102E020E013903E0AE0C39EF0903E6E
:1035C00009E02EF0023481123F8A22C26DC26912D4
:1035D0002CDFE4F521E521C3789596501D122C2EA1
:1035E000126511E521122CAEA807FC7D017B017E3E
:1035F000027F00120FD5052180DB122D68122C2EC0
:103600001265119001FEE0B44A06A3E0644E600327
:103610007F8922900000E090800AF030E00678A2D6
:1036200076408004E478A2F67898E6B4800790802B
:103630000AE04480F0900002E078ACF6900004E0EC
:10364000F510A3E0F511900006E078ADF6900008C3
:10365000E0F51290000A122C4190000C789F122C79
:10366000D690000EE0F50EA3E0F50F900191E090EA
:103670009009F090019FE0B4510AD25990804074B3
:1036800001F08007C259E4908040F0E4909002F08D
:10369000900192E07004A3E0601D900010E054706F
:1036A000909005F0900192E0FEA3E0FF12499990FE
:1036B00090057490F0800A900010E044019090050D
:1036C000F09090027401F0900194E06003122D4894
:1036D000900011E0FF125E369001A7E078A3F6E6B5
:1036E00070027604D26D78007C317A0179007FF027
:1036F000122D80903103122CD490310FE078A2F675
:1037000012398A903121E0B45102D26912C0007F8F
:103710000322900011E0543FF51F7520FF752180B2
:103720007899E6640160030237E9903E1CE020E0EE
:10373000030237E9126597EF604E900202E060489D
:10374000A3E0FF900202121C1B703D900202E024D5
:1037500008F520E51FB43F08A3E024F8F5218028F0
:10376000121CA964AA6010121CA9651F6009121D11
:10377000492520F52080E9121CA964AA6007121DC2
:1037800049F52180037520FFE520B4FF097E007F05
:1037900080121BBB804F900202E07E002400F9EEF5
:1037A0003402FA7B01C002C001121CF0D001D00229
:1037B0007F08120FD5AF217E007C0074002520F910
:1037C000EC3402FA7B01C002C00178087C007D0164
:1037D000D001D002120FD5E5212406900001F0742B
:1037E000082521F521AF218062E4900000F0A37448
:1037F00006F0E4A3F0789AE6FB54F960047F808039
:10380000027F00900003EFF0A3120E96000000006C
:10381000EB78995654066003121D66205603305704
:103820000C7899E6B401069000037480F0306C19AE
:103830007899E6FF54186011EF30E407903E1CE0E1
:1038400020E3069000037480F07F081254E5228F75
:10385000217E027F007D001221F690040974F1F0B0
:10386000903E681221AFFF90040A120E7190040E70
:103870007498F0A374E5F0A374F2F0903E6C1221FA
:10388000AFFF900411120E7190041574F3F0903E86
:10389000701221AFFF900416120E7190041A74F486
:1038A000F0903E781221AFFF90041B120E7190042D
:1038B0002074F5F0903E7C1221AFFF900421120E8F
:1038C0007190042574F6F01221ACFF900426120EBC
:1038D0007190042A74F7F0E4A3F0A304F0789AE658
:1038E000541690042EF0A374F8F0A25FE433A3F012
:1038F000A374F9F090043312236C74FBF0A255E426
:1039000033A3F0A374FC1222A2A25AE43390043F22
:10391000F0A260E433A3F0A25CE433A3F0903E0392
:10392000E0900442F0A25EE433A31222829004806D
:1039300074E1F090048504F0E478A4F679A4E7C378
:1039400078AC96501778A4E6FF122263E0FCA3E05F
:10395000FD1222E7ECF0A3EDF00680E0789AE69005
:1039600005FFF0E52160061221991262EBE4FF12D7
:103970002A60EF60127889120E7D00000000306C22
:10398000031223227F03227F892290800AE030E104
:1039900005751702803F90800BE030E405751772C3
:1039A000803390800BE030E50575175080279080BC
:1039B0000BE030E305751748801B90800BE030E684
:1039C0000575177A800F90800BE030E7057517803A
:1039D000800375172E75180478A2E654C060031290
:1039E0002D3B9031EEE030E348E47891F6A3E078A7
:1039F000B2F6E66018E478A4F678B2E6FB30E007A9
:103A0000122BF7E02FF006122D5DB408EC9031ED8B
:103A1000E078B2F6E6605378A4760878B2E6FB3038
:103A2000E007122BF7E02FF006122D5DB410EC80AA
:103A300039E478A4F6E512C313FF78A4E6C39F50D7
:103A400029AF177E00E6FBFD7C00120C91EB122CD7
:103A50001FEEF0A3EFF078A4E6FFE5188FF0A4FEC8
:103A6000EF122C1FE02EF00680CB903195E0703FD6
:103A700090800BE030E30578B276262290800BE050
:103A800030E40578B2763E2290800BE030E5057890
:103A9000B2762A2290800BE030E60578B276422298
:103AA00090800BE078B230E70376462276162290BB
:103AB0003195E078B2F6221265587899E664017083
:103AC00027903E1CE030E020AE0C780B121C3F1219
:103AD0001BDA7014121C4AE50DAE0C7802C333CE0B
:103AE00033CED8F9F50D8E0C121CCE121BDA600302
:103AF0007F842212540A8F1FEF30E70122121BC667
:103B000050037F8A22306C197899E6FF6401604681
:103B1000EF20E30A30E40A903E1CE020E3037F87B5
:103B200022789AE6600F54066008799AE7789956E9
:103B300060037F8722903E18E064B0702EA25C1272
:103B40001CB98003121DD0D8FBFF7899E67C00B524
:103B50000719ECB50615E50D150DAE0C7002150C28
:103B60004E600512651180EE7F0322903E02E0FF59
:103B70006011904107E030E611121D3A7005121DE8
:103B80007B8000904107E054BFF0903E02E044404B
:103B9000F012613112C0068F1FE51F30E72D30E0B3
:103BA0001C904102E030E00312007E904104E020CE
:103BB000E1EF305403121C6A751F018003751F0367
:103BC0007889120E7D000000008013121C2F120E47
:103BD00065751F89E50D450C700478847601AF1F6B
:103BE00022E4F51F7899E6B4010A903E1CE030E02B
:103BF000037F8322900010E05408131313541F9086
:103C00000400F0900011E0543F900402F090001284
:103C1000E0900403F0900013E0900404F09000148E
:103C2000E0900405F07E027F00121BBBE4900001CF
:103C3000F0789AE6FF54F960047E8080027E00905E
:103C40000002EEF0E4A3F07899E6FE5F540660030C
:103C5000121D66205603305707EEB40103121D668D
:103C6000306C167899E6FF5418600EEF30E4079038
:103C70003E1CE020E303121D66751F04306D1174B5
:103C80001A121D5874E0F012C01E121DD7600122D6
:103C9000900402E0900004F0900402E0604924F8EF
:103CA000601224C9601824237030900005740AF053
:103CB000740C80209000057412F07414801690002B
:103CC000047408F0A37412F0900018741CF0A3742C
:103CD0000AF07420251FF51F800D9000057401F077
:103CE000E4A3F0051F051FE51F14900000F0AF1FAF
:103CF0001254E5228F218513227895E6F513E521EC
:103D000030E0037F8922122CA312C00FE4908014AC
:103D1000F0852123FE7F40FD122CCD120EED908008
:103D200005E030E7F9E4908006F0908017E523F095
:103D30009080167480F0908016E0540A60F89080AD
:103D400016E030E12D90800BE030E1057521EE802A
:103D500007E4FF1245608F21908017E0FFC3E52341
:103D60009FFFC3132400F582E43410F583E521F0AE
:103D700080BE908016E020E0F9904104E020E1F957
:103D800090800BE0900000F0908005E020E12D1283
:103D9000652A900001EEF0A3EFF0908030E09000F3
:103DA00007F0908031E0900008F0908032E09000C1
:103DB00009F0908033E090000AF0801890000174C0
:103DC00007F0A374FFF07E007F04FD7B017A007989
:103DD00007120EED900003E508F0A3E509F090004E
:103DE00005E50AF0A3E50BF090000B74AAF0780C3F
:103DF0007C00122CCB7E007F40122C2B1262EB85B4
:103E000022137F0322205306122199126511900478
:103E100008E06451701A903E1CE054F7F090040CD6
:103E2000E06007903E1CE04408F01223227F03224A
:103E3000C266C263C264C265C267C25AC25FC26060
:103E4000C25EC261C25DC258C250C270900403E03B
:103E500064516008900407E064517045900403E0E9
:103E6000B45102D264900407E064517053D2679059
:103E70000400E0B45102D25F90040EE0B45102D2CB
:103E80005E90040FE0B45102D260900413E0B4518C
:103E900004D25D802B900414E064517023D25880CA
:103EA0001F900404E0B45104D2668014900405E02D
:103EB000B45104D2638009900406E0B45102D26583
:103EC00090040BE0B45102D25A900409E0B4510DB1
:103ED000E4903E02F090040AE0903E03F0305A0471
:103EE0007F0180027F00909001EFF0900412E0B417
:103EF0005106A26772639261900415E0B45102D238
:103F000050900416E0B45102D2707F0322900E4507
:103F1000E0900074F0900E46E0900075F0900E472F
:103F2000E0900076F022903E6CE0FCA3E0FDA3E080
:103F3000FEA3E0229044007400F0A37400F0227805
:103F4000407C0E7D017B017A0E79007E007F081295
:103F50000FD5904102E054FEF022F0904102E0447F
:103F600041F022903E0B74FFF0A37441F0A3740C57
:103F7000F022851320903105E0F513903E06E0FE17
:103F8000A3E0FFC394FFEE940722904102E0445166
:103F9000F0227A047900903E0B7401F0A32278811C
:103FA000E654EAF6904101E0442AF0E054EA229017
:103FB0000E45E0900075F0900E46E0900076F022FD
:103FC000A3F0E4903E09F022E493903E09F022FF32
:103FD0002FFFEE33FEED33FDEC3322E4904104F08D
:103FE0007880760122904106F0E4904105F022D2DB
:103FF00053900E44E022903E207403F02212501D94
:10400000903E017401F0904102E030E00312007E26
:104010007880E6B40118904104E030E011122D8957
:104020007880EFF6BF02071228C37880A607788051
:10403000E6FF64036004EFB404051252BC80C77845
:1040400080E6B4050B904101E020E4047603801D76
:104050007880E6FFB40607904101E030E20BEFB450
:10406000070B904101E020E404788076047880E634
:10407000FF30E7071241DB7880A607306F09C26F77
:10408000904107E04401F07880E664017047904178
:1040900007E030E640903E02E0FF6039903E03E0EA
:1040A000FEC3EF9E903E02F06015E0541F70079033
:1040B0003E01E06401F0904107E054BFF0800E3013
:1040C0005A047F0180027F00903E01EFF0903E0194
:1040D000E0909001F0904107E020E40A909017E012
:1040E00020E60302400612539C024006090220000B
:1040F0000101008032090400000208065000070593
:104100000102000200070582020002000C121E04D8
:1041100022183A286210721C12010110000000409F
:104120008F058093010001020001040309041803B4
:1041300041006C0063006F00720020004D006900B8
:10414000630072006F0028034D006100730073006C
:104150002000530074006F0072006100670065006A
:1041600020004400650076006900630065001003CC
:104170003600390039003000460030003100476514
:104180006E657269632055534220466C61736820E6
:104190004469736B2020372E373600000000000082
:1041A000000000AAAAAAAAAAAAAAAAEEEEEEEEEE19
:1041B000EEEEEEFEFFFFFFFFFFFFFFFFFFFFFF7FC3
:1041C000BFDFEFF7FBFDFC7EBFDFEFF7FBFD7E05FA
:1041D0000F0C000107100202000000AD079041041F
:1041E000E020E1F9ED247FB40F0040030242A090EB
:1041F00041FD75F003A4C58325F0C5837302422AEF
:1042000002423002423802427102424002424702F8
:10421000424E02425802425F02426A024278024221
:10422000A002428302428D024294121C847F052226
:10423000121D6D762602429C121D6D762002429C54
:10424000121D74763A8055121DE87628804E7895B6
:104250007607789676278044121D747604800512BE
:104260001D7476FF789776FF8036121D6D7621805B
:104270002B121D6D76248024121D74760478977697
:1042800001801D121C84121DE87629800F121DE882
:10429000762980087895760378967611E47897F6F3
:1042A0007884E6FCB40207121C847D078017ECB406
:1042B0000311904101E04404F07881E64404F67D66
:1042C0000680027D04AF0522122CFC900002749837
:1042D000F0A37401F078A7E6A3F008E6A3F008E6DF
:1042E000A3F008E6A3F0A3744AF0A374E5F0A37466
:1042F00012F090900AE090000BF0A26CE433A3F06F
:104300007898E6A3F0900010744AF0A3E513F0A2A9
:1043100051E433A3F0908007E0900013F090900EEA
:10432000E0900014F0900020744FF090003074483A
:10433000F0900040744EF09067FFE493900050F0CE
:1043400090800BE0900100F0909013E0900101F05C
:10435000A3E519F0908009E0900103F0908011E04E
:10436000900104F0909012E0900105F0908040E000
:10437000900106F0A37401F0903E1CE0900108F05B
:104380009090287401F0E4F000909029E0900110E2
:10439000F090902AE0900111F090902BE0900112A3
:1043A000F090902CE0900113F01262EB7F032290CA
:1043B0009000E030E2037F0022909012E030E003B2
:1043C0007F0022121320EF7002FF22121916E4F56B
:1043D00013E513C378AC96501DE513123043122F2A
:1043E0007C789FA60608F6E61846600678A1A61314
:1043F0008004051380DB90900AE020E7079090008E
:10440000E030E411909016E020E50AE030E203127B
:10441000C0247F0122909016E020E03378ACE6249F
:1044200001FFE433FEEF25E0FFEE33FE7DFF7B016D
:104430007A3E7980120EED78ACE675F002A4FFAEFC
:10444000F07DFF7B017A3E79A2120EED125DB990EC
:104450003120E06451602E125BD27F0212256E1271
:104460004CA9909016E054F7F07E087D007A3479DC
:1044700000122FF77F0112306A909016E054CFF0AF
:10448000E4903E5FF07F012212540A8F1FEF30E765
:104490000302455D7E007F207D007B017A04790068
:1044A000120EED90000FE0F520B42513900017E0F8
:1044B0005401F52178047C04121DB27F0480119010
:1044C000001DE05401F52178007C04121DB27F0C20
:1044D000120FD5E521701D900400121CC3FFEC4D96
:1044E0004E4F700D900404121CC3FFEC4D4E4F60F4
:1044F000037F84227899E664017033903E1CE0FFCC
:104500005405FEBE010CEF4404F0903E1DE0700225
:1045100004F0305E19903E1CE030E012121DBD1216
:104520001C04900004120E96000008008012E52082
:10453000B42511121BFF900004120E960000020019
:104540007F0880167E007F20121BBB121BFF90008D
:1045500008120E96000002007F200254E5AF1F22D1
:10456000E519601F90800BE030E1037FEE22908020
:1045700010E0FD90800F7401F090800FE030E0F9C2
:10458000AF0522E490800CF090800BE030E1037FD7
:10459000EE2290800DE0F528908010E0D378B3965D
:1045A00040037FEE22908006E0543025E0FDE4FCDD
:1045B000ECC39528507090800CE0F9908020E0FECC
:1045C000908021E0FBEEF526EBF52794FFE526949D
:1045D000034015E5279404E5269404500B74302518
:1045E00027F582E434808036C3E5279404E52694D9
:1045F000045033ED6016C3E52694024004ED20E636
:1046000022C3E52694025004ED20E517908013E0C4
:10461000FEE42527F527EE3526F526852782F58346
:10462000E069F00C808A908010E0FF2278AEE66F9F
:1046300070030246E578AEA60712C027EF4E700859
:104640009090107404F080FE90800AE054EEF0E444
:10465000909002F09090057431F09090027401F007
:104660009080147410F0908022F09080237405F0F4
:1046700090801714F090801674C0F0908016E0209F
:10468000E0F9E4908023F090800AE0FF903013E09E
:104690005410FEEF4E90800AF078A2E654C06004F9
:1046A000E04401F0E4909002F0903192E07004A3B5
:1046B000E0601D90300CE05470909005F0903192C5
:1046C000E0FEA3E0FF1249999090057490F0800AF3
:1046D00090300CE04401909005F09090027401F04D
:1046E000E4908023F022901000E064996003024778
:1046F0009AA3E06407600302479A901003E0FF90DA
:104700001002E02F2432FFE4FEFDEDC39F50107431
:10471000002DF582E43410F583E02EFE0D80EB745D
:10472000002FF582E43410F583E06E706DD26B30AB
:104730006B2390107DE0F4FF90107CE0B50716E04D
:10474000D394FA4008903E0574FAF0800890107CEB
:10475000E0903E05F090107EE0643C703DA3E06484
:10476000C37037901081E06403702FFEFD901080BD
:10477000E0FFEDC39F501074802DF582E43410F5F6
:1047800083E02EFE0D80E6901080E02480F582E428
:104790003410F583E0B50602D26A228F2112225826
:1047A00012233650148513221222D0AD217C007BB7
:1047B0001212C00F85221380031221F0903E19E0DF
:1047C000900400F0903E1BE0900401F0903E18E051
:1047D000900402F0903E1AE0FB900403F0A374C032
:1047E000F0A25BE43325E0FE789AE6FD54012E90BA
:1047F0000408F090047EEDF0E65406FFBF0604E0E6
:104800004440F0E521B4020A903E18E0900480F0A4
:10481000800AE521B40305900480EBF0205F0E9040
:104820009000E030E307E4900481F080069004817A
:104830007401F090048274E5F0A37412F020530622
:104840001221991262EB7F0322903E057432F0E44C
:10485000789AF60876FF08F6903E087480F0C25108
:10486000C26CC26BC26AC264C267C262C255C2660F
:10487000C263C265C26178B37648C25AC25FC26081
:10488000C250C270C258C25EC25DC25C903E681225
:104890000E9600000000903E6C120E960000000084
:1048A000903E70120E9600000000903E74120E961C
:1048B00000000000903E78120E9600000000903E2E
:1048C0007C120E9600000000903E037410F0E47815
:1048D0009AF6903E1874C0F0903E1AF0E4903E199B
:1048E000F0903E1BF01259EB126452903E5FF09034
:1048F00090167438F0222065037F8222900013E026
:10490000641060037F84227A0479001221A1E4906C
:104910004104F0904104E030E0F978847601789A1F
:10492000E630E0037F8722E4F5201222F7E07027CB
:104930000520E520B410F31222587B147D077C007B
:1049400012C00F901080E0B4AA0AA3E0B45505127B
:1049500021F080357F032290048074AAF0A374555F
:10496000F0900400E0F521E4F5201222F7C083C0A6
:1049700082E0FFE520FDE52112235AEF6ED082D0C0
:1049800083F00520E520B410E17F07122A60EF6074
:1049900005C25B7F03227F89228E228F23E4FD796B
:1049A000FFFCEC64027003024A39909003EDF09032
:1049B0009004E9F090900B7401F090900BE030E0DF
:1049C000F990900CE0FE90900DE0FBEEF524EBF5F5
:1049D0002590900CE0B52306E4B522027C02EC148D
:1049E00060250470BDC3E5259523E5249522500D6F
:1049F000E970047C0180ABE925E0F980A5ED25E0B4
:104A00004401FD7C01809BD3E5259523E524952277
:104A1000400FBDFF047C028089ED25E04401FD804C
:104A2000817C02E52565237004E52465227003027C
:104A300049A2EDC313FD0249A2222065037F822211
:104A4000900013E0641060037F84227A0279007E74
:104A5000027F009044007402F0A37400F01265110C
:104A600078847601305B037F872212225812233626
:104A700050618513201222D07B107D077C0012C06C
:104A80000F852013900200E0FFE4F520E520FDEF04
:104A900012235A7400252012234AE06EFE7400256A
:104AA00020F582E43400F583E06E6011D25B1223BE
:104AB0008774A5F0903E11745AF07F87220520E597
:104AC00020B410C8E4903E10F0903E11F0789AE6C1
:104AD00054FEF67F0322909016E04438F078ACE65E
:104AE0002401FFE433FEEF25E0FFEE33FE7DFF7B84
:104AF000017A3E7980120EED78ACE675F002A4FFE3
:104B0000AEF07DFF7B017A3E79A2120EED903E5F02
:104B100074FFF0E4F513E513C378AC96501EE5136B
:104B2000122263E0FEA3E0789FA60608F6E6184688
:104B3000600678A1A6138004051380DA125DB9120D
:104B40005BD27F0212256E909016E054F7F0124C63
:104B5000A97E087F007D007B017A347900120EED7A
:104B60007F0112306A909016E054CFF0E4903E5FDF
:104B7000F022900010E05402F51FE47F01FEFDFCDE
:104B80007889121BDA70037F8422900011E020E103
:104B900007900018E030E73E126597EF602F900213
:104BA00000E06029A3E0900200121C1A701F90021E
:104BB00001E0900200121CE0C002C001121CF0D003
:104BC00001D002120FD5900201E0FF80327F301237
:104BD0001BB97F308029121BB79000027401F0A32B
:104BE000F09000057414F0A37401F0E51F25E02592
:104BF000E0240A900001F090000AE51FF07F1412F3
:104C000054E57889120E7D000000007F032278A110
:104C1000E6F527E527D378AC96503E122F3FE0F516
:104C200025A3E0F526C394FFE52594075027E52644
:104C3000AE257803CEC313CE13D8F9122FE03EF57C
:104C400083C083C082E0FFE526122FE7F4FEEF5E0B
:104C5000D082D083F0052780BA78A1E6F52778AC1A
:104C6000E6FFE527D39F5040E527B50727905DFD78
:104C7000E07895F6909006E0FFC313905DFDF0128A
:104C80005A4078ACE6122F41EEF0A3EFF07895E6AB
:104C9000905DFDF0122F3FE0FCA3E0FDE527123010
:104CA00000125994052780B62278A1E6F52178AC48
:104CB000E6FFE521D39F4003024D43E521122F413A
:104CC000E0FCA3E0F47002ECF47073E521C39F50A4
:104CD0000BE521123043122F7C4E6062122FFE1220
:104CE00062068E228F23C3E52394FFE522940740BA
:104CF00021125A408E228F23122FFEAD23AC221296
:104D00005994E521C378AC96502812302C122FB755
:104D10008020E52178A1667019FDAF23AE2212C074
:104D200018AD127C00120CA312302CF583EEF0A308
:104D3000EFF0E521122F41E522F0A3E523F0052154
:104D4000024CAE228F2490801AE0F930E41A53010D
:104D5000EF908007E0FCE4F090801AF0908007EC80
:104D6000F07F961264CB8005E490801AF090800565
:104D7000E030E7F9122D27908005E030E7F99080C8
:104D8000007490F0908001EDF00000000000000041
:104D90000000000000E4FC9080047401F0908002A8
:104DA000E0FDE524FEEC7A002400FFEA3E8F82F568
:104DB00083EDF090800AE030E01A908003E0FDE59A
:104DC00024FEEC2400FFEA3EFE74082FF582E43E48
:104DD000F583EDF00CBC06BF90801AE9F022AB071A
:104DE000EB75F00C84FAEB75F00C84ABF0EA700E06
:104DF0009063E893C313FE74019313FF800A122D8E
:104E00002EE493FE740193FF7C007D03120C917DD0
:104E100018120CA3EF4401FF903F56EEF0A3EFF001
:104E2000EBFF7E00903F56E0FCA3E0FD120C9112D8
:104E30002D2E7401932FFFE4933EFEEA7C002FFF9A
:104E4000EC3E903F58F0A3EFF0EB9063FA932AF515
:104E50000B903F58E0C394204009E50B75F0C084E7
:104E600085F00B903F59E0F50A903F58E0F5092294
:104E70007898E630E6047F0080027F80904104EF5E
:104E8000F08513217895E6F5137BA0122CA512C0AE
:104E90000FE4908014F07402122D76122C6685F0C7
:104EA00022F523E5188DF0A425182522F5229080FF
:104EB00016E020E0F97898E630E6047F0080027F73
:104EC00080904104EFF0904104E030E0F9122D555C
:104ED0009080007485F0908001E523F0E522F09049
:104EE00080067484F0908005E030E0F990800074D2
:104EF00010F0122D19E4908014F08521137F032205
:104F0000206A037F0322205306122199126511851E
:104F100013211222527B117D017C0012C00F8521CA
:104F200013E4F521E52125E0FFE433FE74822FF53B
:104F30008274023EF583E0FF7400252112234AEFBC
:104F4000F00521E521B408DCE4FFF521E521540753
:104F5000240012234AE0FE740025211222FBE06E99
:104F60002FFF0521E521B440E3EF7021900440E0DC
:104F7000789A30E40DE64410F6909016E054FDF077
:104F8000800BE654EFF6909016E04402F07F032287
:104F90008F21E521B40209903E19E0D39402500E0E
:104FA000E521B4030C903E1BE0D3940240037F89BB
:104FB00022205306122199126511851322122252C2
:104FC000AD217C007B1112C00F8522131255BDE567
:104FD0002164027024BFB00F903E18E0B4B0089076
:104FE0003E19E004F08005E4903E19F0903E18EF81
:104FF000F0306C261223228021E521B4031CBFB0BF
:105000000F903E1AE0B4B008903E1BE004F080051B
:10501000E4903E1BF0903E1AEFF07F0322E49041B3
:1050200004F0904200E054037013904107E020E444
:1050300007909017E030E6EA12539C80E59042001A
:10504000E0789830E00476408009768090800AE02D
:105050004480F0306C09903FF074D0F012C01EE430
:105060007881F6903E04F090900AE020E736909028
:1050700000E020E42F904104E0FF904102E04F2047
:10508000E013904107E020E407909017E030E6E558
:1050900012539C80E01264F6E4909010F090901609
:1050A000E04401F07880760122C299ED30E6127575
:1050B000990D3099FDC29975990A3099FDC2998070
:1050C000087599203099FDC299ED30E01BEF75F01D
:1050D0000A842430F5993099FDC299EF75F00A845D
:1050E000E5F02430F5998032EF54F0C4540FFED32C
:1050F0009409400674372EFE800474302EFE8E997B
:10510000EF540FFED39409400674372EFE800474CA
:10511000302EFE3099FDC2998E993099FDC299EDDD
:1051200030E71075990D3099FDC29975990A30993B
:10513000FDC29922E4903E21F0A3F0903E21E0FCD4
:10514000A3E0FDC3EC9402505D904102E054216065
:105150000BE054FEF0903E207404805C904102E02D
:1051600030E007903E207402804E74002DF97404E4
:105170003CFA7B01C002C00178407C0E7D01D00169
:10518000D0027E007F40120FD59041037440F09012
:105190004102E020E1F9903E22E02440F0903E21DF
:1051A000E03400F08095123F8AE4903E20F01262D5
:1051B00038EF7008903E2004F07F00227F01228D9E
:1051C00020E4FEF521908014E0F522E4F523EF3091
:1051D000E003432310EF5401FDC3EF9DFF908005D2
:1051E000E030E7F9AA07EAC39520504BEAC39410D0
:1051F000EA500625E02410800425E0244090801425
:10520000F0C3E5209AFFBF0103432320908006E509
:1052100023F0908005E030E0F990800BE0540360CB
:105220000FE4FF124560AE07EED3952140028E21B8
:10523000E4F5230A0A80AF908014E522F0AF212222
:105240007899A607EF14604614601524FE601E24AA
:10525000FC604424F8604C24907060903E6880317B
:10526000306205903E6C8003903E748024903E6CCA
:10527000E0F8A3E0F9A3E0FAA3E0FB903E74123F4C
:1052800029C39BFFEE9AFEED99FDEC988012903EAB
:1052900070123F29FF801F903E70123F29123FCFAE
:1052A000FC8013306706123F26FF800A903E701282
:1052B0003F29123FCFFC788D120E6522908016E0B8
:1052C00020E0F9904104E020E1F97A0079007E00C5
:1052D0007F00123F34900000120E96555342537BCC
:1052E000007A007985125C65900004120E717B00D3
:1052F0007A007989125C65900008120E717880E658
:10530000B403047F0080027F0190000CEFF0740D65
:10531000123FE5904104E030E10C904102E030E0C2
:10532000F212007E80ED123F34123FDB22126558EC
:105330001221FFFBC3120E1550037F8A22903E7C80
:105340001221AF122303400A903E1AE0B4B0037F4B
:1053500089221221AC1223293508FC903E701222BA
:10536000141222D7206009903E701221AF12221F22
:1053700012C006AB07EB30E7137889120E7D0000F0
:105380000000EB30E0037F01227F03221221BAE507
:105390000D450C7004788476017F89229090017409
:1053A00001F090801CE0540FFFBF0FF6306D031228
:1053B000C01EE4908007F0904107E04420F0000018
:1053C0000000000000000000306D0312C01E90417C
:1053D00007E054DFF0904200E0540360F890420090
:1053E000E030E0117898E6B48005E4904100F07870
:1053F000987640800478987680E4909001F09080D0
:10540000077440F07F961264CB22307021903E18D2
:10541000E0B4B01A121CB68003121DD0D8FBFF787E
:1054200099E67C00B50707ECB506037F85227899DD
:10543000E6FF789BE6FE5F6005EFF45E8033799CC3
:10544000E778995660037F8522205F29909000E0DD
:1054500030E310789AE620E71C4480F6789BE64417
:10546000F6800E789AE630E70C547FF6789BE64497
:10547000F6F67F86227F0022900010E0F520A3E060
:10548000FF1313543FF521E05403F508A3E0F50999
:10549000A3E0F50BA3E0F50AE5206409702BE50B0A
:1054A0006407450A603912225812233650148513B6
:1054B000211222D07B10AD0BAC0A12C00F85211334
:1054C000801D7DFF1222BC80168513208521137B51
:1054D00010AD0BAC0AAF09AE0812C00F8520131235
:1054E00062EB7F03228F22E47F01FEFDFC788912AC
:1054F0001BDA70037F8422AF22E4FCFDFE121DC77D
:105500004031904106E522F0E4904105F0904104DD
:10551000E020E1F97889305602802D120E4CC00748
:10552000AF22AB07D007C3EF9BFFEE9400121D1D07
:105530007F0322788CE6904106F0E4904105F090DC
:105540004104E020E1F97889120E7D000000007F1F
:1055500003228513217895E6F513122CA312C00FB0
:10556000E4908014F0908005E030E7F9E490800644
:10557000122C6685F022F523E5188DF0A425182558
:1055800022F522908005E030E0F91262EB1262EB26
:10559000122D557405122CF4E523F0E522F09080CD
:1055A0000074E0F09080067404F0908005E030E034
:1055B000F9122D191262EB8521137F0322900280CC
:1055C000E0B4FF08A3E0B4FF037FC022900480E0B2
:1055D000F9A3E0FF900280E0FEA3E0FDEF6D7040D4
:1055E000FDEDC39F503D74822DF582E43404F583B4
:1055F000E0FC74822DF582E43402F583E0FB122393
:105600007D8002C333D8FC59620412237D8002C31B
:1056100033D8FC5E6203EC6B60037FB0220D80C167
:105620007FB0227FA022AD07126238EF7006903E55
:1056300020048051904102E030E506E054FEF08005
:10564000E7904103E0540FFFBF0807904102E020BC
:10565000E711123F52904101E04401F0903E207466
:10566000028022900E03E0B40316900E02E0B5050E
:105670000F900E01E0B40608900E00E0648060090F
:10568000903E207402F07F0022123F3F7F012212E1
:10569000540AEF70607899E664017056903E1CE001
:1056A000FE54036401704BEE30E223903E1DE0FE99
:1056B000B401067402F07F8522EE64027034903EDD
:1056C0001D7403F0903E1CE04402F07F862230609F
:1056D0000A903E1CE04402F07F0322903E1DE0044D
:1056E000F0E0D39406400BE4F0789BE64401F67FAB
:1056F00085227F0322228F1AEF75F004A42436F945
:10570000743F35F0FA7B01C002C00178E27C3E7D37
:1057100001D001D0027E007F04120FD5851A1BE54F
:105720001B602B75F004A4FFAEF02432F9743F3EE9
:10573000FA7B01C00174362FF9743F3EA801FC7D4D
:1057400001D0017E007F04120FD5151B80D1783661
:105750007C3F7A3E79E27F04122F8C2212540A8F0A
:105760001FEF20E75A121BB79000037410F090004F
:10577000087402F090000AF0900012F07899E66444
:10578000017021305E1E903E1CE030E01790000357
:105790007408F090000AF0121DBD900004120E7102
:1057A0007F0C8018788D120E4C900004120E7178C8
:1057B0008D120E4C90000C120E717F140254E5AF46
:1057C0001F221265581221FFFBC3120E1550037FD2
:1057D0008A22903E7C1221AF122303400A903E1A87
:1057E000E0B4B0037F89221221AC122329903E70CD
:1057F0001222111222D7206009903E701221AF129E
:10580000221F12C003AB07EB30E7137889120E7D1D
:1058100000000000EB30E0037F01227F0322122111
:10582000BA7F8922908007E0F52190800AE0F52276
:10583000126294122CFC90800A7401F0E4F523E5C6
:10584000231264C17895E6FD7F2E124D44E5237541
:10585000F010A42400F9740035F0A801FC7A2E7928
:10586000007F10122C4C0523E523C3940840D090F0
:105870008007E521F090800AE522F01262EB7F03B9
:10588000227895E6F51312C01578107C5D7A3E7982
:10589000E67F70122C4C78807C5D7A3F798C7F3863
:1058A000122D80E47895F67895E6FFC39407502B87
:1058B000EF7F0025E0FEEF2400F974503EFA7B01F3
:1058C000C002C00178007C007D01D001D0027E02C0
:1058D000122C2B1262EB78950680CC7F03227895F0
:1058E000E6FEC378AC9640037F0322903E02E0FFC1
:1058F0006024904107E030E624903E03E0FDC3EFD2
:105900009D903E02F0541F700D903E01E06401F046
:10591000909001F08000904107E054BFF0903E026B
:10592000E04440F08513218E1312C00C852113BF73
:1059300081047F0180027F0322900010E07004A3A5
:10594000E064027042900011E0FEA3E0FF7038EEC8
:105950007035126597EF602F900204E06029A3E094
:10596000900204121C1A701F900205E090020412AB
:105970001CE0C002C001121CF0D001D002120FD5F1
:10598000900205E0FF80097E007F40121BBB7F4034
:105990001254E5228C288D2974002FF58274503E14
:1059A000F583E529F0EF30E010E528540FC454F0FA
:1059B000122F5D540F4DF0800BE528540F122F5D10
:1059C00054F04DF0E529AE287803CEC313CE13D89A
:1059D000F9122FE03EF583C083C082E0FFE5291273
:1059E0002FE7FEEF4ED082D083F022E490800AF0C1
:1059F0007C0212645D908005E030E7F990800074CD
:105A0000FFF0908005E030E7F99080007490F0E4BA
:105A1000A3F0FE9080047401F0908002E0900000FA
:105A2000F0E0B4FF1A0EBE06EAEC5407FEC454F0D0
:105A30004E90900EF00CECC3940940B67411F02215
:105A4000E4F9905DFDE0FC905DFEE0FDAF047400C4
:105A50002CF582E4345CF583E0F528F46028EDC38E
:105A600094085022ED905B9A9355287016ED04909F
:105A70005DFEF0905DFDECF075F008A4FFAEF0EF78
:105A80004DFF220D80D8E4FD0CEC70C009B902BCBA
:105A900012303822E4903E00F0903E04F07895F603
:105AA00008F608F6D26EC26FC254C253C252903E7C
:105AB00020F0A3F0A3F0C256C257903E10E0B4A568
:105AC0000FA3E0B45A0A789AE64401F6D25B80024A
:105AD000C25BE4903E02F0903E1CF0A3F07880762A
