:020000020000FC
:10000000025E550207C80207E102080E020820023C
:1000100008750209000209920209A30209B6020941
:10002000C90209D50209E20209EE0209FA020A131D
:10003000020A44020A6A020B520200000200000295
:1000400059130256160251F1025A1A023CFC02528E
:10005000F202000002465F0255D1022D5B02586C8D
:10006000024E9F025B78025394021421025D9002BB
:100070005DA7025B9D024F050247F9023F68904170
:1000800002E030E505E054FEF022904103E0540F19
:10009000FFBF0807904102E020E706123C5202072A
:1000A000B6123C3F900E41E02402605214603114BD
:1000B000B40B0040030207B69000BFF82828730273
:1000C00001270201AA0207B602022F0207B60203A5
:1000D000410203610207B60207580207620207A144
:1000E000900E40E064217013900E44E0700D123CBD
:1000F000A9123C5A123C34123CDA220207B6900E86
:1001000040E064A1701E306104F00207AFA263E416
:1001100033FFA262E4332FFFA267E4332F900E4037
:10012000F00207AF0207B6900E40E0247F60101483
:10013000601E2402706A903E00E0900E408058904D
:100140000E44E07008900E40F0A3F080560207B60F
:10015000900E44E014601E2481600824FE60282470
:1001600082703A7881E630E0047F0180027F00905F
:100170000E40EF80227881E630E2047F0180027F2A
:1001800000900E40EF80107881E630E4047F01801B
:10019000027F00900E40EFF0E4A3F080060207B665
:1001A0000207B69041037402F022900E40E07019ED
:1001B000900E42E0B4010F903E00E054FDF09041FB
:1001C00007E054FBF0220207B6900E40E064027094
:1001D0005B900E42E07052900E44E0146020248147
:1001E000600824FE602C2482703C7881E654FEF680
:1001F000904101E04402F0E054FEF002033D7881BA
:10020000E654FBF6904101E04408F0E054FBF002B4
:10021000033D7881E654EFF6904101E04420F0E0A0
:1002200054EFF002033D0207B60207B60207B6908C
:100230000E40E060030202ED900E42E064026003B3
:100240000202EA900E44E060030202EAA3E07003B7
:100250000202EAE0C3940540030202E7E06404708E
:100260002090901BE054DFF0E478A4F6904107E082
:1002700054BFF0904107E030E6F978A406E6B432C6
:10028000EB123C5B904102E0544170F8900E45E067
:1002900024FE6012146017146021240370479042FA
:1002A000017483F0803F9042017485F08037E490C0
:1002B000901CF09042017407F0802A78007C007D49
:1002C000017BFF7A3B79E67E007F35120B5290412D
:1002D00004E020E1F9123C347435123CE490420110
:1002E0007409F080E980FE0207B60207B6900E405E
:1002F000E064027045900E42E0703C900E44E014C1
:1003000060142481600824FE601B2482702678819A
:10031000E64401F680277881E64404F6904101E046
:100320004404F080187881E64410F6904101E044DE
:1003300010F080090207B60207B60207B6123C5B4E
:1003400022123C5B904102E0544170F8900E42E072
:10035000904100F0904107E054FDF0E4903E04F03D
:1003600022900E43E024FE606314607824FD600A4E
:1003700014605924066003020728306B15123C7D77
:10038000500B7B101207BE7006C26B8002C26B85D9
:100390001F13306B117A007900123CA1123C379088
:1003A0003E097404800B123C63903B58E493903EEA
:1003B00009F0903E0A7412F0900E43E06406600368
:1003C00002072B903E0A740AF002072B903E0B7432
:1003D000FFF0A3743BF07438123CD2903E0A7420B4
:1003E000F002072B306B15123C7D500B7B1212076D
:1003F000BE7006C26B8002C26B851F13306B0C127D
:100400003C9D7404F0A37400F08003123C63900ED2
:1004100042E0120A44043400044201045B020478FE
:100420000304A70404D58005278205B48307128638
:1004300000000725123C63903B5A123CCB903B5B7B
:10044000805C306B0B903E097416F0900402803D86
:10045000903B5C123CCB903B5D8043306B0F900433
:1004600002E02416903E09F09004038020903B5E49
:10047000123CCB903B5F8026306A1A7A0479801256
:100480003CA17404F07480123CD2900480E0903E51
:100490000AF002072B903B60123CCB903B61E49347
:1004A000903E0AF002072B9004007404F0A314F0AD
:1004B000903E0FE0900402F0903E0EE0900403F0B6
:1004C000123C9D7404F0A37400123CD3903E0A7455
:1004D00004F002072B123CEE248E601424FD6017FA
:1004E00024DB601A24187020123C1B12574980111B
:1004F0007F02125CCC800A7F021240CF800312245C
:1005000062903E20EFF080091246EAC253123CF599
:1005100022C253903E20E0B403030246EA1246EAA8
:10052000903E207405F022123CEE248D605024F0A1
:10053000604324ED605E24FB604C24A3606724FECE
:10054000605A24D060030206E7900E47E030E112C3
:100550007E027F007D007B017A047900120A6A0224
:100560000664900E45E0903E24F0900E46E0903EEA
:1005700023F00206B8123C1B1259B20206E07F02B9
:100580001256CF0206E0900E45E0900401F012589A
:10059000DC0206E0E4FF12300D0206E0123CBA1263
:1005A00056540206E09000747451F0123CBA125C8A
:1005B0002C0206E0123C95E4903E21F0A3F0C3909B
:1005C0003E21E0940250447F84124DCFEF603C9076
:1005D0000E45E0FF903E21E0FCA3E0FD2400F58203
:1005E00074043CF583EFF0900E44E0FF74012DF5A8
:1005F0008274043CF583EFF0125CEA903E22E02422
:1006000002F0903E21E03400F080B3C3903E21E040
:10061000940250030207BD7F85124DCFEF70030295
:1006200007BD1246EAEF70030207BD7F81124DCF6E
:10063000EF70030207BD123CEE248F70030206C563
:1006400024FD70030206CC24F3607224E8700302D8
:1006500006D324FC70030206DD24A8607B24CB6053
:10066000030206E7900E45E05407F508A3E0F509FC
:10067000903E24E0F50A903E23E0F50BE4F50C9063
:100680000E45E054F0F50DE030E319903E6C123C5D
:1006900072250BF50BEE350AF50AED3509F509EC77
:1006A0003508F508E50D7003750D01903E20748046
:1006B000F012C006EF30E734123CF5802F123C1BDD
:1006C000125B2C801B7F0212569280147F0212450F
:1006D000D2800D1231488008123DDC80031244AEF6
:1006E000903E20EFF08005123CF58012903E20E015
:1006F000B403047F0080027F05903E20EFF0C253D8
:10070000123C95125A7EEF60030207BD903E200412
:10071000F022903E20E0900E40F0E4903E20F090D9
:10072000410304F0220207B60207B6900E47E070BC
:1007300015900E46E0FF903E0AE0D39F4008900ED1
:1007400046E0903E0AF0903E0AE07004123C95228A
:10075000900E43E0FF023604903E04E0900E40F01D
:10076000804D123CA9F0900E42E0B4011A903E0474
:100770007401F0904107E04402123C5AE490900169
:10078000F090900704F022900E42E07012903E0428
:10079000F0904107E054FD123C5A90900180138084
:1007A00015900E44E07006900E40F0800280079095
:1007B00041037401F022904101E04401F0227D01E7
:1007C0007C0012C00FEF4E22BB010689828A83E0B3
:1007D000225002E722BBFE02E32289828A83E4934D
:1007E00022BB010CE58229F582E5833AF583E022FC
:1007F0005006E92582F8E622BBFE06E92582F8E2EA
:1008000022E58229F582E5833AF583E49322EF8D90
:10081000F0A4A8F0CF8CF0A428CE8DF0A42EFE2258
:10082000BC000BBE0029EF8DF084FFADF022E4CCBC
:10083000F875F008EF2FFFEE33FEEC33FCEE9DEC85
:10084000984005FCEE9DFE0FD5F0E9E4CEFD22EDCB
:10085000F8F5F0EE8420D21CFEADF075F008EF2F15
:10086000FFED33FD4007985006D5F0F222C398FD06
:100870000FD5F0EA22E88FF0A4CC8BF0A42CFCE991
:100880008EF0A42CFC8AF0EDA42CFCEA8EF0A4CD12
:10089000A8F08BF0A42DCC3825F0FDE98FF0A42C26
:1008A000CD35F0FCEB8EF0A4FEA9F0EB8FF0A4CFD9
:1008B000C5F02ECD39FEE43CFCEAA42DCE35F0FD8A
:1008C000E43CFC2275F008758200EF2FFFEE33FE4A
:1008D000CD33CDCC33CCC58233C5829BED9AEC9918
:1008E000E58298400CF582EE9BFEED9AFDEC99FCBA
:1008F0000FD5F0D6E4CEFBE4CDFAE4CCF9A8822201
:10090000B800C1B90059BA002DEC8BF084CFCECD20
:10091000FCE5F0CBF97818EF2FFFEE33FEED33FD59
:10092000EC33FCEB33FB10D703994004EB99FB0F3E
:10093000D8E5E4F9FA227818EF2FFFEE33FEED3315
:10094000FDEC33FCC933C910D7059BE99A4007EC8D
:100950009BFCE99AF90FD8E0E4C9FAE4CCFB2275D4
:10096000F010EF2FFFEE33FEED33FDCC33CCC83368
:10097000C810D7079BEC9AE899400AED9BFDEC9ACA
:10098000FCE899F80FD5F0DAE4CDFBE4CCFAE4C842
:10099000F922EB9FF5F0EA9E42F0E99D42F0E89CD7
:1009A00045F022E8600FECC313FCED13FDEE13FEDF
:1009B000EF13FFD8F122E8600FEFC333FFEE33FEF1
:1009C000ED33FDEC33FCD8F122E6FC08E6FD08E649
:1009D000FE08E6FF22E6FB08E6F908E6FA08E6CBA1
:1009E000F822ECF608EDF608EEF608EFF622ECF049
:1009F000A3EDF0A3EEF0A3EFF022D083D082E49336
:100A0000F608740193F608740293F608740393F6DB
:100A1000740473A8828583F0D083D082120A2A12CC
:100A20000A2A120A2A120A2AE473E493A3C583C588
:100A3000F0C583C8C582C8F0A3C583C5F0C583C807
:100A4000C582C822D083D082F8E4937012740193D7
:100A5000700DA3A393F8740193F5828883E47374F3
:100A600002936860EFA3A3A380DFEF4E6012EF60F4
:100A7000010EEDBB010B89828A83F0A3DFFCDEFA55
:100A80002289F05007F709DFFCA9F022BBFEFCF336
:100A900009DFFCA9F022E709F608DFFA8046E7093A
:100AA000F208DFFA803E88828C83E709F0A3DFFA40
:100AB0008032E309F608DFFA806EE309F208DFFA14
:100AC000806688828C83E309F0A3DFFA805A8982EA
:100AD0008A83E0A3F608DFFA804E89828A83E0A346
:100AE000F208DFFA804280D280FA80C680D4805536
:100AF00080F28029801080A680EA809A80A880DA1F
:100B000080E280CA802988848C8589828A83E493E4
:100B1000A30586F0A30586DFF5DEF3800B89828AC4
:100B200083E493A3F608DFF9ECFAA9F0EDFB228841
:100B3000848C8589828A83E0A30586F0A30586DFFD
:100B4000F6DEF480E389828A83E493A3F208DFF976
:100B500080D688F0EF60010E4E60CD88F0ED240263
:100B6000B4040050C3F582EB2402B4040050B9234E
:100B700023458223900AE673E4909001F0E070032D
:100B8000020DE778B376489090077401F0909001D9
:100B9000E024FE7003020C2F24F77003020C97244C
:100BA0000224FC4003020C527003020C8F147003E9
:100BB000020D22147003020D15240E6003020DCCE9
:100BC000120E91904102E030E7F9904102E030E0EE
:100BD000F9E4F512E51290542593FF74002512F5FF
:100BE00082E4340EF583E06F6003020DCE0512E55A
:100BF00012B408E0900E407411F0A37422F0A374B4
:100C000033F0A37444F0A37455F0A37466F0A37496
:100C100077F0A37488F0E4904102F0A37408F09098
:100C20004102E020E1F99090017401F0020DCC1234
:100C30000E91904107E030E4F990801CE0540FFFE2
:100C4000BF0FF6E4908007F0904107E04420F002E7
:100C50000DCCAF0BAE0AAD09AC08C006C007AE0C98
:100C6000AF0DAB07AA06E4F9F8D007D006120900C9
:100C70008F0B8E0A8D098C08AF0BAE0AAD09AC083C
:100C8000780A1209A38F0B8E0A8D098C0880FE90BA
:100C9000800B7408F08005E490800BF090800A745B
:100CA00010F0125E18E4F514125C70E4F519F513F7
:100CB000E4908006F0908005E030E0F990800BE051
:100CC00054036005E4FF123CFC0513E513C39402D2
:100CD00040DE90800A7411F090800774FFF0751464
:100CE00002125DD4751202125BE5125C70908007EF
:100CF00074C0F0E4908006F0908005E030E0F99058
:100D0000800BE0540360047F0080027F019090011B
:100D1000EFF0020DCC90801AE04401F090800A744C
:100D200011F0E4909002F09090057430F0909002F1
:100D30007401F000000000909001E0B40E05E49012
:100D4000800AF0125E1890800B7404F0908005E029
:100D500030E7F9E4908000F0A3F0F0F0F09090011B
:100D6000E0B40F05E4908001F09080007430F090C2
:100D70008005E030E7F99080147410F0E49080066C
:100D8000F0908005E030E0F9E4908006F090800576
:100D9000E030E0F99080157455F074AAF09080145A
:100DA0007410F0E4908022F0A37405F09080171482
:100DB000F090801674C0F0908016E020E0F99080EA
:100DC000157477F0E4908023F002E80080FEE49050
:100DD0009001F0E0B4780EE4FDFF124F051247F9E0
:100DE000E4FF123F6880FE759852758921758DFF6A
:100DF000D28EE4F58CF58AD28C4387807898F6758C
:100E00009955909016E020E003125BC1909016E097
:100E100030E00890901C7480F0E4F090901074081A
:100E2000F090900174FFF012534690900AE020E792
:100E300007909000E030E44E909016E030E017907C
:100E40003F88E0B45110A3E0B4460BA3E0B45706CA
:100E5000A3E0645460261242CE125D5C909016E0CE
:100E60004401F0903F887451F0A37446F0A3745786
:100E7000F0A37454F0E490900FF08003125D5CE4F2
:100E8000909010F080081242CEE490900FF0023A59
:100E90004D125BC1E490900FF09042017431F090DC
:100EA000410274FFF022900012E07895F6A3E0F57D
:100EB00008A3E0F509900015E0F50AA3E0F50B782A
:100EC000891209FA00000000900010E0120A440F95
:100ED00033000FDE010FE6020FF4030FF704106278
:100EE000050FFA060FFD0710060810000910090A81
:100EF000100C0B100F0C10200E10D210102311101C
:100F00002612103D13110E1B11201C11361D1153FA
:100F10001E116C1F1172200F36210F36220F9D23D8
:100F20000F9D24105C28105F2A10538010598100F7
:100F300000117A02502790800BE054FC788CF690D8
:100F4000800AE018F6900011E018F690800B7410FB
:100F5000F0E4900011F0125833788AE6900011F016
:100F6000900010E0B42108A3E0FF12384F800E1269
:100F70001C7E125DA7900011E0FF12542D7889A607
:100F800007788CE690800BF018E630E0047F018053
:100F9000027F00900011EFF0125833803C90801ACD
:100FA000E05480788CF6E0547FF0900010E0B42498
:100FB00008A3E0FF12384F800E121C7E125DA7902E
:100FC0000011E0FF12542D7889A60790801AE0FFE7
:100FD000788CE65480FEEF4EF07889E6FF22900090
:100FE00011E0FF02384F121C7E125DA7900011E045
:100FF000FF02542D025C90025084024B3E02454297
:101000001258337F0322025DBE02327B0250E17828
:1010100095E6FF5470FEEF54074E90900E02117645
:1010200002417D0257F9125D777895E67800FC7AE7
:101030000079007E027F00121C337F03227895E640
:10104000FA79007B01C002C001121C94D001D002C9
:10105000021117121B37025654025DFB025784021D
:1010600055027D00121BC59000007460F0A374044B
:10107000F090000304F0E4F51FAF1F1254BDE51F0C
:1010800075F004A4AEF02410F50DE43EF50CFE74EA
:1010900000250DF58274003EF583E51FF0740125EF
:1010A0000DF58274003EF583E509F07402250DF517
:1010B0008274003EF583E50AF07403250DF5827411
:1010C000003EF583E50BF0051FE51FC3946040A9C2
:1010D000805E900011E0F51FAF1F151FEF602CAE72
:1010E00008AF09E42FFFE43EFAA9077BFFC002C066
:1010F00001121C94D001D0027E027F00120B52120A
:101100001B93125B050508050880CD7F0322121C86
:10111000947B017A3079007E027F00120B5280109E
:10112000121C947B007A0079007E017F00120B5222
:10113000125B057F0322900011E0600BD259908072
:1011400040E04401F08009C259908040E054FEF034
:101150007F0322900011E090800A6006E04402F0D4
:101160008004E054FDF01234D97F0322124FC97F6E
:101170000322E4909012F07F03227F8322E4F52083
:10118000F520121B50121C4A50068E218F2280140B
:10119000E4F521F522C3E522789E96E521189640D4
:1011A000030213B87B40E4FDFCAF22AE2112C00F56
:1011B000EF64FC7003EE640760030213AD903E061B
:1011C000E521F0A3E522F0121B567B14E4FDFC128E
:1011D000C00FEF4E70030213B890100EE0649860D9
:1011E000030213B8A3E064CF60030213B890100A9F
:1011F000121BA6121CBE901011121BA6903E6C1260
:1012000009EE901016121BA6903E701209EE901077
:101210001B121BA6903E781209EE901021121BA6FD
:10122000903E7C1209EE901026121BA6121CC49050
:101230001030E024FF925F901034E024FF9264901D
:101240001036E024FF9255901038E024FF9266A3F8
:10125000E024FF9263A3E024FF9265A3E024FF92C1
:101260006790103FE024FF925AA3E024FF9260A30E
:10127000E024FF925CA3E0903E03F0901043E02452
:10128000FF925EA3E024FF9261A3E024FF925DA39E
:10129000E024FF9258A3E024FF9250A3E024FF92A1
:1012A00070305A047F0180027F00909001EFF0902F
:1012B000102EE0789A46F6909016E030E104E6545D
:1012C000EFF6121AFDFF903E6C121B88FBD3120939
:1012D00092400A903E6C120A1300000000903E6C8F
:1012E000121B00FFEC4D4E4F6002D262305F09903E
:1012F0009000E030E302C267E4F520E520C378AC5B
:1013000096502175F002E520A42400F582E5F03422
:1013100011F583E0FEA3E0FF121BF2EEF0A3EFF065
:10132000052080D7121B567D0112140D7003021484
:1013300008123EB3121B567D0212140D70030214E4
:1013400008901080E0B4FF09A3E0B4FF047FC080E0
:10135000027FB0903E18EFF0121B567D0312141757
:101360007003021408901080E0B4FF09A3E0B4FFFA
:10137000047FC080027FB0903E1AEFF0121B567DB2
:10138000071214177003021408901080E064AA700A
:1013900017A3E0B45512121CE5E0B4A50D903E1160
:1013A000E0B45A06D25B8002D25B7F01220522E5BF
:1013B0002270020521021195903E067407F0A37475
:1013C000FFF0E4F52078ACE6FFE520C39F501378EA
:1013D0009FE6FC08E6FD121BF2ECF0A3EDF0052001
:1013E00080E37E00789FE6FC08E6FD12080E8E2161
:1013F0008F22AB07AA06E4F9F8AE0EAF0FFCFD1280
:101400000875121CBE121CC4D25B7F00227B147CA8
:101410000012C00FEF4E227B147C0012C00FEF4E63
:10142000227E0C7F007A5079001228347E017A5D8A
:1014300079001228F27F327A3F79561228AB7F1852
:101440007A3E79471228ABE5135403F509E513C337
:101450001354FEF5087895A613903102E0F5139029
:101460003100E064A0601278A5E6FE08E6FFAD0852
:10147000E5122DFDE433FC801DAF0875F002EFA4EA
:101480002410F582E5F03431F583E0FCA3E0FD782B
:10149000A5E6FE08E6FF7B0412C00F7895E6F5137B
:1014A000AF09EF7F00FEEF2400F974103EFA7B01D4
:1014B000C002C00178007C5C7D01D001D0027E01B9
:1014C000120B52E4F514F50AF50BC3E50B789E9662
:1014D000E50A1896400302161A1228FBCEC313CE53
:1014E00013D8F91228943EF5831227D15E600302C7
:1014F000160F7B40E4FDFCAF0BAE0A12C00F905DEF
:1015000002EEF0A3EFF0905D02E0A330E720122896
:10151000FBCEC313CE13D8F91228943EF583C083B3
:10152000C0821227D14ED082D083F002160FC39012
:101530005D03E094FF905D02E09407400302160F04
:10154000E0FEA3E0FF125A1A905D00EEF0A3EFF068
:10155000C3905D01E094FF905D00E09407400612A7
:10156000166502160FE514C3942540030216067B88
:10157000407D027C00AF0BAE0A12C00F903EE2EE3F
:10158000F0A3EFF0905D02E0FEA3E0FF903EE2E00A
:101590006E7003A3E06F600E903EE2E0640770049B
:1015A000A3E064F77025E514C39419905D00E0FE94
:1015B000A3E0FFE5145005122902800312290CF55F
:1015C00083EEF0A3EFF01216658037E514C394198B
:1015D000E5145005122902800312290CF583E50A4F
:1015E000F0A3E50BF01228FBCEC313CE13D8F912EB
:1015F00028943EF583C083C0821227D14ED082D07A
:1016000083F0051480097D01AF0BAE0A12C01205EC
:101610000BE50B7002050A0214CA903102E0B51303
:101620000E78A5E6FC08E6FD7FFD7E071251F17EEF
:10163000007F107DFF7B017A5D7900120A6A789D38
:10164000E6FE08E67803CEC313CE13D8F9905DFF0B
:10165000F0905CFFE0FF9053FCE493FEEF4E905C53
:10166000FFF07F0122905D02E0FEA3E0FFAD0BAC36
:101670000A1251F1222056432057407888E6600A2A
:101680007987E77886461846601E7F457E407D351F
:101690007C747885121F1E600F7F427E497D4F7CCF
:1016A000537885121F1E7002D2567885E6600C7939
:1016B00088E778874618467002D25730674220582C
:1016C0003F205703305639205D36206115A262E471
:1016D000332401FFE433FE7883E6FDB5070AE4B561
:1016E0000606789976018011ED14FF7402A80708A8
:1016F0008002C333D8FC7899F67899E6FF124C1C27
:10170000306B1885131E1220197B107D017C00128E
:10171000C00FEF4E7002C26B851E137899E6FFB4BE
:101720000125903E0B74FFF0A3745DF0A37425F0C7
:10173000206B030217C1900120E064AA6003021726
:10174000C1903E0B048051306B59900002E07C0048
:101750002416F9EC3400FAA3E029F9EC3AFA903EA9
:101760000B7401F0A3EAF0A3E9F0EF5414601790B2
:101770000140E0B4AA10903E0B7401F0A37401F094
:10178000A37442F0803B7899E6B40835900120E0DC
:10179000B4AA2E903E0B7401F0A37401F0A374223E
:1017A000F0801E903B62E493903E09F07E00245846
:1017B000F9EE343BFA903E0B74FFF0A3EAF0A3E994
:1017C000F01220C67480F0A37402F0A3F0A3741F7B
:1017D000F0E4A3F0A3F0A3F0F51E903E0BE0FBA312
:1017E000E0FAA3E0F9851E827583001207E1FF7419
:1017F00008251EF582E43400F583EFF0051EE51E92
:10180000B420D7206B030218AB30550320560330A9
:101810006605E4900001F0751E017899E6FD64010B
:10182000703F9000237430F02060237888E66405D0
:10183000701C18E6B48F1718E6B4931218E6B48437
:101840000D1220C6F0903E1CE054FEF0804B90003C
:10185000007405F0A37480F0903E1CE04401F08019
:10186000383066089000237435F0802D306508907C
:1018700000237436F080223064089000237437F01F
:101880008017306311ED900023B408057439F0809F
:10189000087438F08003E4F51EE51E600E90002009
:1018A0007438F0A3742EF0A37430F07F2412529D8C
:1018B00022E4F51378ACE6FFE513C39F4003021959
:1018C00085E513122916F583E0FCA3E0789FA604B2
:1018D00008F6E618467003021980EF2401FFE4338E
:1018E000FEEF25E0FFEE33FE7DFF7B017A3E79803F
:1018F000120A6A78A1A61312142178A1E6F52078BD
:10190000ACE6FFE520D39F507C12285274FFF0A371
:10191000F0E520C39F500BE52012291612282D4E0A
:1019200060591228B4125A1A8E238F24C3E52494C6
:10193000FFE5239407401A1252F28E238F241228B7
:10194000B4AD24AC231251F1122852E4F0A3F0807C
:101950001EE52078A1667017FDAF24AE2312C018D3
:10196000AD127C00120820122852EEF0A3EFF0E531
:1019700020122814E523F0A3E524F005200218FF27
:1019800005130218B47E087A3479001228F278AC74
:10199000E6F515F513C251E4F521E513D378A196C8
:1019A0005003021AE9151312C01530510612C02453
:1019B000021AB7E4F52012287B65136003021AAB04
:1019C0001227F0E0F46004052180F5E4F522E52219
:1019D000C39521502A12287BFFE5221227F2E0B599
:1019E0000719122820FFE522122844E0FCA3E0B5E5
:1019F0000709ECB5060505200219B6052280CF12AD
:101A00002820FFE521122844EEF0A3EFF01227F082
:101A1000E513F01228CD1227BC2410F9745D35F0BF
:101A2000FA7B01C001E5211227B124E6F9743E35A5
:101A3000F0A801FC7D01D0017E007F0A120B52123A
:101A400028CDF583E075F007A42480F9745D35F0A6
:101A5000FA7B01C001E5211228BFE075F007A4243C
:101A60008CF9743F35F0A801FC7D01D0017E007F28
:101A700007120B52E5211227B112288C12282DC310
:101A8000950FEE950E5024E5211227B124E8F5823A
:101A9000E4343E12282DFF7D0112C018E5211227E3
:101AA000B112288CF583EEF0A3EFF00520E520C3FA
:101AB000940850030219B6E4F51412C0210514E588
:101AC00014C3940840F478107C5D7A3E79E67F7008
:101AD00012283B78807C5D7D017B017A3F798C7E8A
:101AE000007F38120B5202199A227A0479007E0480
:101AF0007F009044007404F0A37400F022903E74C0
:101B0000E0FCA3E0FDA3E0FEA3E022908017E02527
:101B10000DF50DE4350CF50CFEAF0DE4FCFD780978
:101B20001209B678890209E27DFF7E027F007B01FF
:101B30007A047900020A6A900010E0900074F09034
:101B40000011E0900075F0900012E0900076F02215
:101B5000903105E0F513903E06E0FEA3E0FF22255C
:101B60000BF50BEE350AF50AED3509F509EC3508EC
:101B7000F50822E50D250BFFE50C350AFEE43509D5
:101B8000FDE4903E783508FCE0F8A3E0F9A3E0FA24
:101B9000A3E0227A0079007E007F00904400740068
:101BA000F0A37400F022E0FCA3E0FDA3E0FEA3E0BC
:101BB000FF22E50D250BFFE50C350AFEE43509FD96
:101BC000E43508FC227E027F007B017A0079000266
:101BD0000A6AF0A261E433A3F0A25DE433A3F0A2A9
:101BE00058E433A3F0A250E433A3F0A270E433A38B
:101BF000F022E52025E024C2F582E4343EF583227C
:101C0000F0A266E433A3F0A263E433A3F0A265E498
:101C100033A3F0A267E433A3F022E51425E025E026
:101C20002439F582E4343FF583227E007DFF7B0179
:101C3000020A6A7D017B01020B522FF50BEA3EF589
:101C40000AE93DF509E83CF50822C394FFEE940744
:101C500022903105E0F5132275F002EFA42400F57F
:101C600082E5F03405F58322FFAB0BAA0AA909A887
:101C700008C3020992788D1209D5C3020992900017
:101C800017E0FEA3E0FF22250BFFEE350AFEED353F
:101C900009FDEC2278007C007D0122F582E434020B
:101CA000F583229000747451F0A3222DFDE4338D4E
:101CB00082F583E493FE22789BE644F6F622903E7A
:101CC000680209EE903E740209EE04F0A264E43367
:101CD000A3F0A322903E18E064B022ED5407FA74FA
:101CE00001A8020822789AE64401F6903E1022C329
:101CF000E50B94FFE50A940722C26D125AADE47811
:101D000092F6122BC5C259E4908040F090800B747B
:101D100010F0E490801AF07892E6122B8D7D407FCF
:101D20002E124ACE902E00E0644A703BA3E0644538
:101D30007035A3E06444702FA3E064457029A3E0EC
:101D400064437023A3E020E01EE4FD7F2E124ACE00
:101D5000902E05E030E71790800AE04410F0908064
:101D60001AE04401F08007E4FD7F2E124ACEE478A9
:101D7000A2F6902E00E064986004E0B4450478A2D6
:101D80007601E47894F6908005E030E7F9122BA410
:101D90007894E6FF1254BD908005E030E7F9E490B6
:101DA0008000F0122B4E7430F07894E6701490801E
:101DB00005E030E70D7892E630E10778947660022E
:101DC0001E58908005E030E7F978A2E6600D90801B
:101DD000007405F0E4122B4E74E0F0E47891F69074
:101DE00080147410F0908005E030E7F9E4908006EC
:101DF000F0908005E030E0F990800BE0540360093A
:101E0000E020E13DE4FF123CFC901000E0640D7026
:101E100030A3E06406702AA3E064057024A3E064A4
:101E200006701EA3E0B4131978007C30122B607E7C
:101E3000027F00120B521222A0EF7065122BC58098
:101E40000B7891E6C394065003068093789406E6D7
:101E5000C394605003021D86789206E6C394045032
:101E600003021D0290801AE054FEF0122BC590531D
:101E7000FDE493908007F0908005E030E7F9122BA5
:101E8000A4908005E030E7F9E4122BCDF0F0F0F0FB
:101E9000F09080007430F0908005E030E7F97F002A
:101EA00022D26D90319FE0B45108D2599080407495
:101EB00001F01234D9E4909002F0903192E0700475
:101EC000A3E0601D90300CE05470909005F09031CC
:101ED00092E0FEA3E0FF1243719090057490F080B1
:101EE0000A90300CE04401909005F090900274014B
:101EF000F012C000E47883F67F01227F147E007D1B
:101F0000007B017A007900020A6AE50D250BFFE5E6
:101F10000C350AFEE43509FDE43508FC788D12091C
:101F2000D5C3020992903E6CE0F8A3E0F9A3E0FA71
:101F3000A3E0FB903E74E0FCA3E0FDA3E0FEA3E081
:101F400022908017E0250DF50DE4350CF50CFE7898
:101F500009AF0DE4FCFD1209B6788922AF0BAE0A79
:101F6000AD09AC0878021209B68F0B8E0A8D098C68
:101F70000822FFE02FFFE433FE74002FF582740285
:101F80003EF583E064AA22C2547A0079007E007F85
:101F9000009044007400F0A37400F0E4904104F059
:101FA00022EF24FFFFEE34FFFEED34FFFDEC34FFA3
:101FB000FC9000001209EE90000422904101E044E0
:101FC00010F07881E64410F6227400251FF582E4B3
:101FD0003402F583E022250BF50BEE350AF50AED08
:101FE0003509F509EC3508F50822A25CE433FF74E5
:101FF000047E00A8070822AE0CAF0DE4FCFDFB7ABE
:1020000002F9F8120875788922FF7E00E07C00242E
:1020100000F9EC3403FA7B0122903105E0F51390CE
:102020003E06E0FEA3E0FF22FEED9400FDEC9400EE
:10203000FC78890209E2FFE02FFFE433FE74002FF1
:10204000F582740322903E03E0FEC3EF9E903E02B1
:10205000F0541F227401251FF582E43402F583E059
:1020600024022278007C007D0122C39BFFEE9AFEB1
:10207000ED99FDEC98FC229000027480F022789596
:10208000760578962278957602789622F0E490414B
:1020900005F0788922903E01E06401F0909001F013
:1020A00022AB0BAA0AA909A808020992788D120985
:1020B000C978020209A378891209D5D3020992CE00
:1020C000A2E713CE1322E4900000F0A322789576C5
:1020D00006789622125D087899E66401702E903E8B
:1020E0001CE030E027AE0CAF0DE4FCFD780B1209CC
:1020F000B67889121F1E7014121F5CE50DAE0C78A5
:1021000002C333CE33CED8F9F50D8E0C121FF71261
:102110001F1E60037F8422124C8B8F1EEF30E7015D
:1021200022788D1209C9D31220A14009305603022A
:10213000223B7F8A22121F0A50037F8A22903E028E
:10214000E0FF6011904107E030E611122045700574
:102150001220958000904107E054BFF0903E02E0CD
:102160004440F0306930C269D268903E15E0FEB458
:102170000115903E16E0B4010E903E17E0B4010741
:10218000789C76FF7F8622903E17EEF0903E157485
:1021900001F0903E16F02064047F0180027F0090E1
:1021A0003E18E0B4B0047E0180027E00EE5F700352
:1021B00002225A121FEA80031220BFD8FBFF78992F
:1021C000E66F7001EE600302225A78891209FA0064
:1021D000000000E4FFFEFDFCC31220A1705D7899B1
:1021E000E6B4040B903E6C121F36F50B121F6B9079
:1021F0003E1EE50CF0A3E50DF0750C00750D011207
:10220000C0038F1EE51E30E718903E1EE07004A349
:10221000E06401700FE51E30E0047F0180027F035F
:10222000227F8922908016E020E0F9903E1FE02472
:10223000FFF50D903E1EE034FFF50C7E0C7F007D17
:10224000FF121F01E50D450C600D125B05E50D1534
:102250000D70F1150C80ED7F03221259E712C003B7
:102260008F1EE51E30E72D30E01C904102E030E08B
:102270000312007E904104E020E1EF305403121F6E
:1022800087751E018003751E0378891209FA000004
:1022900000008009121F411209E2751E89AF1E223B
:1022A000903012E078A2F690800AE0FF903013E0C0
:1022B000FEEF4E90800AF09031F0E0F50EA3E0F5CD
:1022C0000F9031F2E078ACF69031F4E0F510A3E035
:1022D000F5119031F6E078ADF69031F8E0F5129016
:1022E00031FA122AF69031FC789F122AF89031FECA
:1022F000122B69903191E0909009F09031A7E0782D
:10230000A3F6E6700276049031A8E0FF1257BF9062
:102310003194E06003122BB8122B7478827614E4A7
:10232000F5227882E6FF2400F582E43430F583E07C
:10233000640C600302245C74012FF582E43430F5F0
:1023400083E0FEC4540F122B8D74022FF582E43407
:1023500030F583E07880F67882E62403F582E43471
:1023600030F583E07881F6908005E030E7F9E4F518
:1023700020E520C3788096502FAF207401A807086D
:102380008002C333D8FCF521788156601090800517
:10239000E030E7F9122B23908000F08007122B2306
:1023A000908001F0052080C97882E62401F582E45E
:1023B0003430F583E0540F7880F6E630E0037F0098
:1023C00022E4F520E520C37880964003022453E5FB
:1023D00020540725E02410908014F0908005E03010
:1023E000E7F9E4908006F0908005E030E0F9908015
:1023F0000BE05403600CE030E1037F0022E4FF12A5
:102400003CFC908005E030E10A90800AE020E10386
:102410007F002205200520E5205407F5216007E50F
:1024200020788066709EE5217003752108E5217F84
:102430000025E0FEC006C007E522122B43A807FCDA
:10244000122B60D007D006120B52E5212522F5226F
:102450000223C47882740C26F6022322122BE07F1A
:1024600001227D00121B2A903E68121B00FF90047F
:10247000001209EE90040474CFF0A37402F0A37468
:10248000A1F07B017A3E796C1255D19004071209B4
:10249000EE90040B74A2F07B017A3E79781255D14C
:1024A00090040C1209EE90041074A3F0E4A3F0A2BF
:1024B0006C33A3F0A374A4F07B017A3E797C1255AF
:1024C000D19004141209EE90041974A5F07B017ADE
:1024D0003E79701255D190041A1209EE90041F74BF
:1024E00001F0A374A6F0A25FE433A3F09004237478
:1024F000A7F0900426121CCA74A9F090042B04F0D3
:10250000A26DE433A3F090900AE090042DF09004C3
:102510002F74AB121C00A25CE433900436F0A25A74
:10252000E433A3F0903E03E0900438121BD27B0109
:102530007A3E79741255D19005001209EE90050487
:1025400074B0F0903E19E0900505F0903E1BE090CD
:102550000506F0903E18E0900507F0903E1AE090D6
:102560000508F0A374C0F0789AE6A3F0A374B1F064
:1025700090051004F0789FE6A3F008E6A3F0A3749A
:10258000B3F0A26CE433A3F0903E08E0900515F0A0
:10259000A374B4F0789BE6FFA3F0789CE6FEA3F06A
:1025A000A374B5F090052404F0A3EFF0A3EEF0902F
:1025B000053074B7F0909000E0900531F09005354B
:1025C00074B8F090054004F0903102E0900541F0BD
:1025D00078A5E6A3F008E6A3F0903105E090054465
:1025E000F0903E06E0900545F0903E07E0900546ED
:1025F000F078F07C057A3179F07E007F10121C3380
:10260000205306121AEA125B057F032230653078E8
:102610009AE630E02A90000FE0248F24FC501D241D
:10262000F2601924ED601524FC60140424FB500CA6
:1026300024A9600824FB6004247970037F8222D2DD
:102640005290000FE0120A44278C1027931126E9BC
:1026500012274471274872274C73275074275475EA
:10266000275F76276877277178277A7B27837C27EF
:102670002481272F82273A83271A9626C99726FA7C
:102680009927029A270A9B26E19C27129D26F2F59C
:1026900026A9F626B1F726D1F826B9F9279AFA26FF
:1026A000C1FB26DCFF000027A1124F678F1E022707
:1026B000A4124BAD8F1E0227A412597D8F1E022734
:1026C000A4125ADA8F1E0227A4125E618F1E0227FF
:1026D000A4121B37125C2C8F1E0227A4125E1F80CF
:1026E0000B124CF98F1E0227A4125C4E751E0302BA
:1026F00027A4123DDC8F1E0227A41231488F1E0230
:1027000027A41224628F1E0227A41258DC8F1E02F7
:1027100027A41244AE8F1E0227A47F0112300D8F12
:102720001E0227A4121B37125B2C8F1E0227A41235
:102730001B371257498F1E0227A4121B371259B29A
:102740008F1E80607F0280197F02801E7F0280239F
:102750007F028028903E1CE04402F07F0280267FAA
:10276000031256928F1E803C7F03125CCC8F1E801A
:10277000337F031256CF8F1E802A7F031245D28FDC
:102780001E80217F031240CF8F1E80181244128FAB
:102790001E801112401C8F1E800A120EA68F1E80F2
:1027A00003751E82C252AF1E22F58374FFF0A3F0A0
:1027B000EF25E025E02439F582E4343FF583E07528
:1027C000F00AA422E0FFED54079053F593FEEF6E5C
:1027D00022E0FF7C00E50B540724F5F582EC34532E
:1027E000F583E493FEEF227E007DFF7B01020A6AFF
:1027F000E52125E025E02438F582E4343FF5832205
:10280000FDEEC313FEEF132400F58274583EF583EA
:10281000E022E52725E02480F582E4343EF583229A
:10282000E52025E025E02460F582E4345DF583E0D1
:10283000FEA3E0227DFF7B01020A6A7D017B017E0F
:1028400000020B5225E025E02436F582E4343FF502
:102850008322E52025E024A2F582E4343EF583229C
:10286000EC25E02400F582E4345DF5832224EEF5C6
:1028700082E4343EF583E4F0A3F022E52025E02550
:10288000E02462F582E4345DF583E02224E6F582FB
:10289000E4343E222400F582745C227C0054072438
:1028A000F5F582EC3453F583E493227E007DFF7BC3
:1028B00001020A6AE52078A026FFE41836FE2225E8
:1028C000E025E02439F582E4343FF58322E5202534
:1028D000E025E02463F582E4345D2225E0241090B5
:1028E0008014F090800622789AE64420F67EFF7FDE
:1028F000FF227F007D007B01020A6AE50BAE0A78A9
:10290000032225E02456F582E4343F2225E02415F5
:10291000F582E4343E2225E024C2F582E4343E22EE
:102920008F222052062053037F0122121C5112C015
:102930001520510312C01B7FFC7E07125A1A8E0A03
:102940008F0B121CEF40117E107F007DFF7B017A00
:10295000107900120A6A8021E47891F67891E6C332
:1029600094085015E6FD7C00E62404FBAF0BAE0A8C
:1029700012C00F7891060680E3E522B4FF097508BE
:10298000077509FF022A641252F28E088F09BEFFF2
:1029900006BFFF037F0022E5227F0025E0FEEF2433
:1029A00000F974103EA801FC7D017B017A047900D6
:1029B0007E02120B52E47891F67891E6C3940840B7
:1029C00003022A642052062053037F01227891E6F5
:1029D0008512F084E5F070097BA0122A8AE47892CF
:1029E000F67FFC7E07125DA79031EEE030E30778BA
:1029F000917BA2122A8A7891E625E0241090801417
:102A0000F090800674E0F0908005E030E0F9789175
:102A1000E624028512F084E5F06007E624025407FC
:102A2000703B9080007410F0908005E030E7F978FA
:102A3000A2E620E5289080007470F0908004740174
:102A4000F0908003E0FF908002E04F30E00F7BC108
:102A5000E4FDFCAF09AE0812C00F02298778910689
:102A6000060229B9121CEF50097D01AF0BAE0A1204
:102A7000C012AD09AC087FFC7E071251F1903E06F2
:102A8000E508F0A3E509F07F0122E6FD7C00AF092F
:102A9000AE0812C00F22AF177E0078A4E6FAFD7CC4
:102AA0000012080E7891E625E02427F582E4343EF2
:102AB000F583EEF0A3EFF0E5188AF0A4FFE625E039
:102AC0002427F582E4343EF58322120B527A0079F2
:102AD000007E007F009044007400F0A37400F02298
:102AE000740290901DF07895E6FF22740190901D7D
:102AF000F07895E6FF22789DE0FEA3E0A60608F6B2
:102B0000227D017B017E00020B52F0E512FD7C006C
:102B1000AE0AAF0B120820ECC313ED13FDE5178DC1
:102B2000F0A4227882E62520FFE433FE74042FF51A
:102B30008274303EF583E0227B20AD0BAC0AAF09F6
:102B4000AE082225E0FEE42400FFEE34A0229080AF
:102B500001F0F0E50BF0E50AF0E509F090800022C5
:102B60007D017B017A1079002278A5E0FEA3E0A622
:102B70000608F6229080157455F074AAF0227E02A1
:102B80007F007D007B017A007900020A6A9053FD84
:102B900093908007F022908040E0FFA259E433FE3A
:102BA000EF4EF02290800074FFF022E517C313F57A
:102BB00017E518C313F51822E05470FFE054074FCF
:102BC00090900EF02290800AE05480F022908000D5
:102BD000F090800122EBC31378B2F678A406E622C7
:102BE0009080157477F022908017F090801674C052
:102BF000227D017B017E00020B5290000FE0FF78E6
:102C0000891209D5E8494A4B601290000CE06480B3
:102C100060047E0380027E028E1D8003751D017894
:102C200084A61DEF120A442D01002CE7032C861206
:102C30002CA81A2CF41B2D0E1E2CCA232CDA252CA2
:102C400064282C752A2C972F2D1B432D28452D2FBA
:102C5000462D36512D3D522CB95A2D44BB2D49BD20
:102C600000002D50E51D64026003022D581220D48F
:102C70008F1C022D55E51D64036003022D58123789
:102C80002E8F1C022D55E51D64026003022D581283
:102C900016758F1C022D55E51D64016003022D5829
:102CA000125E2D8F1C022D55E51D64026003022D5E
:102CB0005812513C8F1C022D55E51D640260030221
:102CC0002D581233AC8F1C022D55E51D6402600394
:102CD000022D5812487B8F1C807BE51D64027078A2
:102CE000124A5D8F1C806EE51D6402706B1258A441
:102CF0008F1C8061E51D6401705E125B538F1C8028
:102D000054E51D64017051124E388F1C8047E51D3B
:102D100064017044125E488F1C803AE51D640270A5
:102D2000371242268F1C802D125E708F1C80261257
:102D30005E3B8F1C801F1255478F1C801812558CCC
:102D40008F1C8011751C03800C12570C8F1C800582
:102D500012260C8F1CAF1C227F82228F1CE478A4C9
:102D6000F6908016E020E0F9904104E020E1F912AD
:102D70001B93900000120A13555342537B007A00B4
:102D800079851255D19000041209EEE490000CF000
:102D900090000BF090000AF0900009F0900008F00D
:102DA000904106740DF0E4904105F0306806C26869
:102DB000903E15F0D254904104E030E10A90410277
:102DC000E030E0F27F0022C2547A0079007E0012E7
:102DD0001B9BE4904104F0E51C7002FF22C28CC2F0
:102DE0008DE4F58CF58AD28C903E02E0FF60249051
:102DF0004107E030E624903E03E0FEC3EF9E903EA4
:102E000002F0541F700D903E01E06401F0909001BB
:102E1000F08000904107E054BFF0903E02E0444053
:102E2000F0904104E020E010904102E030E0037FA8
:102E30000022308DEC7F002290000FE0701A78A401
:102E4000E6C39401501290000DE078836670097813
:102E5000A406122EAA022D6F900011121BA67891C3
:102E6000121C77704290000FE0651C703A90000DC4
:102E7000E07883667031908016F0122EAA121B93B0
:102E8000E4908014F0900016E0F50CA3E0F50D78C6
:102E9000911209C98F0B8E0A8D098C08121BB2780A
:102EA000911209E27F01227F00227B017A007904DE
:102EB0001255D178851209E222904106E0547FFF35
:102EC000BF211C7F437E427D537C55900000E0F87B
:102ED000A3E0F9A3E0FAA3E0FBC31209926007782C
:102EE0008476027F82227B017A0079041255D178A0
:102EF000851209E27B017A0079081255D17889128E
:102F000009E27A0079007E00123C3490000DE078EE
:102F100083F690000FE0306E3F6412602A7888E6F6
:102F2000B4051718E6B48F1218E6B4930D18E6B47A
:102F30008408903E1C7402F08006903E1C7407F0DA
:102F4000306504E4789BF6C26EE47899F678A1E6E1
:102F5000F5139090077401F0206C03022FE8A2642F
:102F6000E433FF903E18E0B4B0047E0180027E009E
:102F7000EE5F6020A25CE433FF7883E6FEB5070FC6
:102F80007402A806088002C333D8FCF51C8037758C
:102F90001C108032206115A262E4332401FFE43367
:102FA000FE7883E6FDB50711E4B5060D30630575BF
:102FB0001C088012751C01800D7402A8050880028F
:102FC000C333D8FCF51C3067352058322057033006
:102FD0005603305D297883E6FF7401A80708800254
:102FE000C333D8FCF51C80167883E67008903E0841
:102FF000E0F51C8009751C04789CE64404F6E51C89
:103000007899666005AF1C124C1C7F02228F207ECF
:10301000027F007D00121B2E90040974F1F0903E97
:1030200068121B00FF90040A1209EE90040E7498B7
:10303000F0A374CFF0A374F2F0903E6C121B00FF6B
:103040009004111209EE90041574F3F0903E701282
:103050001B00FF9004161209EE90041A74F4F0900D
:103060003E78121B00FF90041B1209EE900420749E
:10307000F5F0903E7C121B00FF9004211209EE90A7
:10308000042574F6F0121AFDFF9004261209EE9042
:10309000042A74F7F0E4A3F0A304F0789AE6541637
:1030A00090042EF0A374F8F0A25FE433A3F0A374AD
:1030B000F9F0900433121CCA74FBF0A255E433A358
:1030C000F0A374FC121C00A25AE43390043FF0A257
:1030D00060E433A3F0A25CE433A3F0903E03E090FD
:1030E0000442F0A25EE433A3121BD290048074E188
:1030F000F090048504F0E478A4F679A4E7C378ACF2
:1031000096501778A4E6FF121BF4E0FCA3E0FD1232
:103110001C58ECF0A3EDF00680E0789AE69005FFED
:10312000F0E5206006121AEA125B05E4FF1229207E
:10313000EF601278891209FA00000000306C031267
:103140001CB77F03227F8922903E18E064C0600391
:103150007F8922205306121AEA125D777B017A04D6
:1031600079001255D1903E6C1209EE7B017A0479F8
:10317000061255D1903E781209EE7B017A04790B44
:103180001255D1903E7C1209EE7B017A04790F1220
:1031900055D1903E701209EE7B017A0479401255A8
:1031A000D18F0B8E0A8D098C08900445E0903E0E5D
:1031B000F0900446E0903E0FF0900444E0645170BB
:1031C000499004FEE0644A7028A3E0644E7022FF38
:1031D00078ACE6FEEFC39E5014121C58E0FCA3E04E
:1031E000FDEF121BF4ECF0A3EDF00F80E3E4789C0C
:1031F000F6AF0BAE0AAD09AC08EC4D4E4F600BAF0D
:103200000BAE0AAD09AC08121CBE903E6C121B003E
:10321000FFEC4D4E4F6003D38001C39262900404D3
:10322000E0B45103D38001C3925CA25CA062925CC3
:10323000903E78121B00FF903E70121B882FF50BFA
:10324000EA3EF50AE93DF509E83CF50820600990F9
:103250003E70121B00121B5F903E68121B00C3954C
:103260000BFFEE950AFEED9509FDEC9508FC121C8E
:10327000C47899E6FF124C1C7F0322122B74E4F5EC
:1032800020E520C3789596501D122ACD125D77E572
:1032900020122B43A807FC7D017B017E027F0012D8
:1032A0000B52052080DB122BE0122ACD125D7790A5
:1032B00001FEE0B44A06A3E0644E60037F892290D9
:1032C0000000E090800AF030E00678A276408004AA
:1032D000E478A2F67898E6B4800790800AE044800B
:1032E000F0900002E078ACF6900004E0F510A3E066
:1032F000F511900006E078ADF6900008E0F5129028
:10330000000A122AF690000C789F122B6B90000E88
:10331000E0F50EA3E0F50F900191E0909009F09098
:10332000019FE0B45108D2599080407401F0E490BC
:103330009002F0900192E07004A3E0601D900010F4
:10334000E05470909005F0900192E0FEA3E0FF122F
:1033500043719090057490F0800A900010E0440151
:10336000909005F09090027401F0900194E0600359
:10337000122BB8900011E0FF1257BF9001A7E07820
:10338000A3F6E670027604D26D78007C317A01797A
:10339000007FF0122BF1903103122B6990310FE076
:1033A00078A2F61234D912C0007F0322900011E0F7
:1033B000543FF51E751FFF7520807899E664016003
:1033C00003023482903E1CE020E003023482125D4E
:1033D000E8EF604D900202E06047A3E09002021225
:1033E0001F72703D900202E02408F51FE51EB43FF5
:1033F00008A3E024F8F5208028121FC964AA6010F1
:10340000121FC9651E6009122054251FF51F80E98F
:10341000121FC964AA6007122054F5208003751F8B
:10342000FFE51FB4FF097E007F80121EFF804F90D2
:103430000202E07E002400F9EE3402FA7B01C002B1
:10344000C001122063D001D0027F08120B52AF20BE
:103450007E007C007400251FF9EC3402FA7B01C069
:1034600002C00178087C007D01D001D002120B520D
:10347000E5202406900001F074082520F520AF20F7
:1034800080531220C67406F0E4A3F0789AE6FB5449
:10349000F960047F8080027F00900003EFF0A312A8
:1034A0000A1300000000EB789956540660031220BE
:1034B0007720560330570C7899E6B4010690000344
:1034C0007480F0306C0D7899E65418600690000313
:1034D0007480F07F0812529D2290800AE030E1054E
:1034E000751702803F90800BE030E405751720804F
:1034F0003390800BE030E505751750802790800BE6
:10350000E030E305751748801B90800BE030E6053E
:1035100075177A800F90800BE030E7057517808073
:103520000375172E75180478A2E654C06003122B99
:10353000AB9031EEE030E346E47891F6A3E078B268
:10354000F6E66017E478A4F678B2E6FB30E00612FF
:103550002A96EFF006122BD5B408ED9031EDE07805
:10356000B2F6E6605278A4760878B2E6FB30E00660
:10357000122A96EFF006122BD5B410ED8039E478BC
:10358000A4F6E512C313FF78A4E6C39F5029AF1732
:103590007E00E6FBFD7C0012080EEB122ABEEEF068
:1035A000A3EFF078A4E6FFE5188FF0A4FEEF122A4F
:1035B000BEE02EF00680CB903195E0703F90800BFE
:1035C000E030E30578B276262290800BE030E40507
:1035D00078B2760E2290800BE030E50578B2762A3C
:1035E0002290800BE030E60578B276422290800B84
:1035F000E078B230E703764622761622903195E0E5
:1036000078B2F6228F20903E0AE0FF700302372A3C
:10361000D3944040047E408002AE07E4FFEFC39E97
:103620005031903E0BE0FBA3E0FAA3E0F9903E0995
:10363000E0FD7C00E92DF9EC3AFAEF29F9EC3AFAD1
:103640001207C8FD74402FF582E4340EF583EDF0C7
:103650000F80CA7898E6FF20E606E520640260093C
:10366000EF30E615E520B40710900E567440F0E4F4
:10367000A3F0900E5D74408014E520B40613900E04
:1036800040740AF0A37406F0900E487401F0E4A3AD
:10369000F0E520B40706900E417407F0E5206401C0
:1036A0006005E520B4060FE4900E42F0A37402F02A
:1036B000900E477440F0E5206401702B900E4AE0B4
:1036C000B48006A3E06493600AD26C900E50740339
:1036D000F08007C26CE4900E50F0206D0A900E4A04
:1036E0007434F0A37412F0E52064026005E520B4A0
:1036F0000708903E05E0900E48F0904103EEF090F0
:103700004102E020E1F9904102E054216005E054DB
:10371000FEF022904102E020E013903E0AE0C39EBA
:10372000F0903E09E02EF0023606123C9522125D22
:10373000087899E664017027903E1CE030E020AEE6
:103740000C780B121F51121F1E7014121F5CE50D16
:10375000AE0C7802C333CE33CED8F9F50D8E0C12F1
:103760001FF7121F1E60037F8422124C8B8F1EEFE7
:1037700030E70122121F0A50037F8A22306C107832
:1037800099E6FF6401603DEF541860037F8722785B
:103790009AE6600F54066008799AE77899566003B4
:1037A0007F8722903E18E064B0702EA25C121FED5D
:1037B00080031220BFD8FBFF7899E67C00B507197B
:1037C000ECB50615E50D150DAE0C7002150C4E602E
:1037D00005125D7780EE7F0322903E02E0FF6011CC
:1037E000904107E030E611122045700512209580C7
:1037F00000904107E054BFF0903E02E04440F012D8
:1038000059E712C0068F1EE51E30E72D30E01C90F0
:103810004102E030E00312007E904104E020E1EF3D
:10382000305403121F87751E018003751E037889AB
:103830001209FA000000008013121F411209E275FC
:103840001E89E50D450C700478847601AF1E228F29
:10385000208513217895E6F513E52030E0037F8974
:1038600022122B3812C00FE4908014F0852022FE23
:103870007F40FD122B62120A6A908005E030E7F962
:10388000E4908006F0908017E522F0908016748016
:10389000F0908016E0540A60F8908016E030E12D38
:1038A00090800BE030E1057520EE8007E4FF123CCC
:1038B000FC8F20908017E0FFC3E5229FFFC31324F5
:1038C00000F582E43410F583E520F080BE90801688
:1038D000E020E0F9904104E020E1F990800BE090D5
:1038E0000000F0908005E020E12D125D9090000135
:1038F000EEF0A3EFF0908030E0900007F090803180
:10390000E0900008F0908032E0900009F090803361
:10391000E090000AF080189000017407F0A374FF93
:10392000F07E007F04FD7B017A007907120A6A901D
:103930000003E508F0A3E509F0900005E50AF0A30F
:10394000E50BF090000B74AAF0780C7C00122B6051
:103950007E007F40122ACA125B058521137F032255
:10396000AD07904104E020E1F9ED247FB40F004061
:1039700003023A2590398275F003A4C58325F0C56A
:1039800083730239AF0239B50239BD0239F6023903
:10399000C50239CC0239D30239DD0239E40239EFEC
:1039A0000239FD023A25023A08023A12023A191285
:1039B0001FBB7F052212207E7626023A2112207E2E
:1039C0007620023A21122085763A80551220CD7653
:1039D00028804E7895760778967627804412208541
:1039E0007604800512208576FF789776FF80361260
:1039F000207E7621802B12207E7624802412208542
:103A0000760478977601801D121FBB1220CD76298F
:103A1000800F1220CD7629800878957603789676E7
:103A200011E47897F67884E6FCB40207121FBB7D98
:103A3000078017ECB40311904101E04404F0788151
:103A4000E64404F67D0680027D04AF05221249EBB0
:103A5000903E017401F0904102E030E00312007EDC
:103A60007880E6B40118904104E030E011122EB9DC
:103A70007880EFF6BF0207122BFA7880A6077880CD
:103A8000E6FF64036004EFB404051248FB80C778C6
:103A900080E6B4050B904101E020E4047603801D2C
:103AA0007880E6FFB40607904101E030E20BEFB406
:103AB000070B904101E020E404788076047880E6EA
:103AC000FF30E7071239607880A607306F09C26FB0
:103AD000904107E04401F07880E66401704A90412B
:103AE00007E030E643903E02E0FF603C903E03E09A
:103AF000FEC3EF9E903E02F06015E0541F700790E9
:103B00003E01E06401F0904107E054BFF0801130C5
:103B10005A047F0180027F00903E01EFF012C01E28
:103B2000903E01E0909001F0904107E020E4030214
:103B30003A56124975023A560902200001010080E6
:103B400032090400000208065000070501020002C5
:103B500000070582020002000C121E0422183A28F7
:103B60006210721C12010110000000408F0580934A
:103B700001000102000104030904180341006C0064
:103B800063006F00720020004D0069006300720046
:103B90006F0028034D006100730073002000530084
:103BA00074006F007200610067006500200044002F
:103BB0006500760069006300650010033600390077
:103BC0003900300046003000310047656E6572698B
:103BD000632055534220466C617368204469736BBF
:103BE0002020372E3736000000000000000000AA19
:103BF000AAAAAAAAAAAAAAEEEEEEEEEEEEEEEEFEB1
:103C0000FFFFFFFFFFFFFFFFFFFFFF7FBFDFEFF7BC
:103C1000FBFDFC7EBFDFEFF7FBFD7E900E45E090E5
:103C20000074F0900E46E0900075F0900E47E09022
:103C30000076F0229044007400F0A37400F0227823
:103C4000407C0E7D017B017A0E79007E007F081298
:103C50000B52904102E054FEF022F0904102E04409
:103C600041F022903E0B74FFF0A3743BF0A3745814
:103C7000F022E0FCA3E0FDA3E0FEA3E02285131FF9
:103C8000903105E0F513903E06E0FEA3E0FFC394FB
:103C9000FFEE940722904102E04451F0227A047929
:103CA00000903E0B7401F0A3227881E654EAF6906E
:103CB0004101E0442AF0E054EA22900E45E09000F1
:103CC00075F0900E46E0900076F022E493903E0965
:103CD000F022A3F0E4903E09F022E4904104F07851
:103CE00080760122904106F0E4904105F022D25303
:103CF000900E44E022903E207403F022E519601FEC
:103D000090800BE030E1037FEE22908010E0FC9089
:103D1000800F7401F090800FE030E0F9AF0422E4EE
:103D200090800CF090800BE030E1037FEE229080D9
:103D300013E0752500F524908010E0F523D378B3C7
:103D40009640037FEE22908006E0543025E0FCE5AB
:103D5000237003023DD61523908020E0FD90802142
:103D6000E0F9ED30E736E9700A9080301227C49010
:103D70008030F0B9010A9080311227C4908031F070
:103D8000B9020A9080321227C4908032F0B903BF82
:103D90009080331227C4908033F080B3EC600EED36
:103DA00030E606EC30E60680A6EC20E5A2ED546095
:103DB00075F008A42525FFE52435F0FEE97A002FEB
:103DC000FFEA3E8F82F583C083C0821227C4D0826F
:103DD000D083F0023D4F908010E0FF222053061266
:103DE0001AEA125D77C266C263C264C265C267C264
:103DF0005AC25FC260C25EC261C25DC258C250C2D6
:103E000070900403E0B45104D264805A900404E03A
:103E1000B45104D266804F900405E0B45104D263DB
:103E20008044900406E0B45104D2658039900407C0
:103E3000E064517031D267900400E0B45102D25F67
:103E400090040EE0B45102D25E90040FE0B451022F
:103E5000D260900413E0B45104D25D800990041440
:103E6000E0B45102D25890040BE0B45102D25A90FF
:103E70000409E0B4510DE4903E02F090040AE09091
:103E80003E03F0305A047F0180027F00909001EFE2
:103E9000F0900412E0B45106A2677263926190043C
:103EA00015E0B45102D250900416E0B45102D27021
:103EB0007F0322901000E064996003023F67A3E053
:103EC00064076003023F67901003E0FF901002E078
:103ED0002F2432FFE4FEFDEDC39F501074002DF53A
:103EE00082E43410F583E02EFE0D80EB74002FF594
:103EF00082E43410F583E06E706DD26B306B2390EA
:103F0000107DE0F4FF90107CE0B50716E0D394FA42
:103F10004008903E0574FAF0800890107CE0903ED6
:103F200005F090107EE0643C703DA3E064C3703700
:103F3000901081E06403702FFEFD901080E0FFED93
:103F4000C39F501074802DF582E43410F583E02E69
:103F5000FE0D80E6901080E02480F582E43410F5B8
:103F600083E0B50602D26A2278AEE66F70030240A3
:103F70001B78AEA60712C027EF4E700280FE90801D
:103F80000AE054EEF0E4909002F09090057431F065
:103F90009090027401F09080147410F0908022F0E0
:103FA0009080237405F090801714F090801674C0F0
:103FB000F0908016E020E0F9E4908023F090800AF1
:103FC000E0FF903013E05410FEEF4E90800AF0783E
:103FD000A2E654C06004E04401F0E4909002F09046
:103FE0003192E07004A3E0601D90300CE0547090BA
:103FF0009005F0903192E0FEA3E0FF1243719090A3
:10400000057490F0800A90300CE04401909005F027
:104010009090027401F0E4908023F0222065037FE9
:104020008222900013E0641060037F84227A047976
:1040300000121AF2E4904104F0904104E030E0F9FB
:1040400078847601789AE630E0037F8722E4F51FD2
:104050007400251FF582E43400F583E07027051F06
:10406000E51FB410EB121B567B147D077C0012C0B9
:104070000F901080E0B4AA0AA3E0B45505121B28E3
:10408000803D7F032290048074AAF0A37455F090C1
:104090000400E0F520E4F51F7400251FF582E434E8
:1040A00004F583C083C082E0FFE51FFDE520121CFC
:1040B000ABEF6ED082D083F0051FE51FB410D97F1F
:1040C00007122920EF6005C25B7F03227F89228FC0
:1040D00020121B56121C4A5014851321121C51AD7C
:1040E000207C007B1212C00F8521138003121B2835
:1040F000903E19E0900400F0903E1BE0900401F027
:10410000903E18E0900402F0903E1AE0FB90040309
:10411000F0A374C0F0A25BE43325E0FE789AE6FDDC
:1041200054012E900408F090047EEDF0E65406FF52
:10413000BF0604E04440F0E520B4020A903E18E0D7
:10414000900480F0800AE520B40305900480EBF031
:10415000205F0E909000E030E307E4900481F0804F
:10416000069004817401F090048274CFF0A374026D
:10417000F0205306121AEA125B057F0322122B7EEF
:104180009000027498F0A37401F078A7E6A3F008F9
:10419000E6A3F008E6A3F008E6A3F0A3744AF0A3B0
:1041A00074CFF0A37402F090900AE090000BF0A29C
:1041B0006CE433A3F07898E6A3F0900010744AF012
:1041C000A3E513F0A251E433A3F0908007E0900040
:1041D00013F090900EE0900014F0900020744FF0D7
:1041E0009000307448F0900040744EF090800BE0E6
:1041F000900100F0909013E0900101F0A3E519F018
:10420000908009E0900103F0908011E0900104F0AB
:10421000909012E0900105F0908040E0900106F04F
:10422000125B057F0322900010E05402F51EE47F2C
:1042300001FEFDFC7889121F1E70037F842290000E
:1042400011E020E107900018E030E74A125DE8EF46
:10425000603B900200E06035A3E0900200121F7204
:10426000702B900201E0FF7E00900200E07C0024B1
:1042700000F9EC3402FA7B01C002C001122063D0C5
:1042800001D002120B52900201E0FF80327F301207
:104290001EFD7F308029121EFB9000027401F0A3E6
:1042A000F09000057414F0A37401F0E51E25E025DC
:1042B000E0240A900001F090000AE51EF07F14123D
:1042C000529D78891209FA000000007F0322903E77
:1042D000057432F0E4789AF60876FF08F6903E0806
:1042E0007480F0C251C26CC26BC26AC264C267C23F
:1042F00062C255C266C263C265C26178B37648C203
:104300005AC25FC260C250C270C258C25EC25DC2B1
:104310005C903E68120A1300000000903E6C120A86
:104320001300000000903E70120A1300000000907D
:104330003E74120A1300000000903E78120A130027
:10434000000000903E7C120A1300000000903E0323
:104350007410F0E4789AF6903E1874C0F0903E1A0B
:10436000F0E4903E19F0903E1BF0125248125E0DA0
:10437000228E218F22E4FD79FFFCEC64027003029F
:104380004411909003EDF0909004E9F090900B743C
:1043900001F090900BE030E0F990900CE0FE9090EE
:1043A0000DE0FBEEF523EBF52490900CE0B5220632
:1043B000E4B521027C02EC1460250470BDC3E52441
:1043C0009522E5239521500DE970047C0180ABE92D
:1043D000C313F980A5ED25E04401FD7C01809BD34A
:1043E000E5249522E5239521400FBDFF047C028042
:1043F00089ED25E04401FD80817C02E52465227081
:1044000004E5236521700302437AEDC313FD0243E3
:104410007A222065037F8222900013E064106003FB
:104420007F84227A0279007E027F00904400740229
:10443000F0A37400F0125D7778847601305B037F1F
:104440008722121B56121C4A506185131F121C51E1
:104450007B107D077C0012C00F851F13900200E0C7
:10446000FFE4F51FE51FFDEF121CAB7400251F12C2
:104470001C9BE06EFE7400251FF582E43400F5837A
:10448000E06E6011D25B121CE574A5F0903E1174D1
:104490005AF07F8722051FE51FB410C8E4903E1034
:1044A000F0903E11F0789AE654FEF67F0322206ADF
:1044B000037F0322205306121AEA125D7785132028
:1044C000121B507B117D017C0012C00F852013E46C
:1044D000F520E52025E0FFE433FE74822FF5827499
:1044E000023EF583E0FF74002520121C9BEFF005CF
:1044F00020E520B408DCE4FFF520E5205407240083
:10450000121C9BE0FE74002520F582E43404F58340
:10451000E06E2FFF0520E520B440DFEF702190040E
:1045200040E0789A30E40DE64410F6909016E0549E
:10453000FDF0800BE654EFF6909016E04402F07F19
:1045400003227898E630E6047F0080027F80904165
:1045500004EFF08513207895E6F5137BA0122B3A33
:1045600012C00FE4908014F07402122BE7122B0A91
:1045700085F021F522E5188DF0A425182521F521D7
:10458000908016E020E0F97898E630E6047F00801D
:10459000027F80904104EFF0904104E030E0F99018
:1045A0008040E054FEF07485122BCDE522F0E52129
:1045B000F09080067484F0908005E030E0F99080FF
:1045C000007410F0122B96E4908014F08520137F75
:1045D00003228F20E520B40209903E19E0D3940213
:1045E000500EE520B4030C903E1BE0D39402400330
:1045F0007F8922205306121AEA125D778513211251
:104600001B50AD207C007B1112C00F852113124D71
:1046100066E52064027024BFB00F903E18E0B4B08D
:1046200008903E19E004F08005E4903E19F0903EB9
:1046300018EFF0306C26121CB78021E520B4031C63
:10464000BFB00F903E1AE0B4B008903E1BE004F0FB
:104650008005E4903E1BF0903E1AEFF07F0322C2EB
:1046600099ED30E61275990D3099FDC29975990A48
:104670003099FDC29980087599203099FDC299ED55
:1046800030E01BEF75F00A842430F5993099FDC2B3
:1046900099EF75F00A84E5F02430F5998032EF54F3
:1046A000F0C4540FFED39409400674372EFE8004E4
:1046B00074302EFE8E99EF540FFED3940940067489
:1046C000372EFE800474302EFE3099FDC2998E99EB
:1046D0003099FDC299ED30E71075990D3099FDC202
:1046E0009975990A3099FDC29922E4903E21F0A370
:1046F000F0903E21E0FCA3E0FDC3EC9402505D90FD
:104700004102E05421600BE054FEF0903E2074041E
:10471000805C904102E030E007903E207402804EC1
:1047200074002DF974043CFA7B01C002C00178408A
:104730007C0E7D01D001D0027E007F40120B529092
:1047400041037440F0904102E020E1F9903E22E004
:104750002440F0903E21E03400F08095123C95E436
:10476000903E20F0125A7EEF7008903E2004F07FB9
:1047700000227F0122909000E030E2037F0022902F
:104780009012E030E0037F0022121CF9EF7002FF6C
:104790002212117D90900AE020E707909000E0300F
:1047A000E411909016E030E00AE030E20312C024F9
:1047B0007F01227F207A3F79361227E77F507A3EA9
:1047C00079E61227E77E007F387A3F798C12283409
:1047D000E4F514E5141228BFE514F01227B11228ED
:1047E0006DE5141227B112288C1228740514E514F3
:1047F000B408E01218B17F012278A1E6F527E52779
:10480000D378AC96503E122812E0F525A3E0F526A9
:10481000C394FFE52594075027E526AE257803CEFF
:10482000C313CE13D8F91228943EF583C083C082F7
:10483000E0FFE52612289BF4FEEF5ED082D083F0E5
:10484000052780BA78A1E6F52778ACE6FFE527D3FF
:104850009F5027E527B5070E1252F278ACE61228D2
:1048600014EEF0A3EFF0122812E0FCA3E0FDE52720
:104870001228B61251F1052780CF22124C8B8F1EC1
:10488000EF20E7747899E6B41014306208121F25FF
:1048900012206A8004121F33FF788D1209E2121E63
:1048A000FB9000037410F09000087402F090000A6E
:1048B000F0900012F07899E664017021305E1E904D
:1048C0003E1CE030E0179000037408F090000AF0FE
:1048D0001220AC9000041209EE7F0C8018788D1223
:1048E00009C99000041209EE788D1209C990000CD4
:1048F0001209EE7F1402529DAF1E22908016E02016
:10490000E0F9904104E020E1F97A0079007E007F2F
:1049100000123C34900000120A13555342537B009E
:104920007A0079851255D19000041209EE7B007A45
:104930000079891255D19000081209EE7880E6B40A
:1049400003047F0080027F0190000CEFF0740D12D1
:104950003CE4306806C268903E15F0904104E030B7
:10496000E10C904102E030E0F212007E80ED123C5A
:1049700034123CDA229090017401F090801CE054D3
:104980000FFFBF0FF6909016E030E00312C01EE458
:10499000908007F090901C7480F0E4F0904107E064
:1049A0004420F000000000000000909016E030E08D
:1049B0000312C01E904107E054DFF0904200E05423
:1049C0000360F8904200E030E0117898E6B480058A
:1049D000E4904100F078987640800478987680E4FE
:1049E000909001F09080077440F022E4904104F030
:1049F000904200E05403700C904107E030E4F11263
:104A0000497580EC904200E0789830E00476408070
:104A100009768090800AE04480F0E47881F6903E48
:104A200004F090900AE020E72F909000E020E42826
:104A3000904104E0FF904102E04F20E00C904107DC
:104A4000E030E4EC12497580E7125D5CE490901070
:104A5000F0909016E04401F07880760122124C8BA1
:104A60008F1EEF20E7657899E664017030903E1C58
:104A7000E0FF5405FEBE010CEF4404F0903E1DE043
:104A8000700204F0305E16903E1CE030E00F122001
:104A9000AC121FA1120A130000080080297899E6C1
:104AA000B41014306208121F2512206A8004121FED
:104AB00033FF788D1209E2788D1209C9121FA112F5
:104AC0000A13000002007F0802529DAF1E22A907B0
:104AD00090801AE0F523E054FEF0908005E030E786
:104AE000F9122BA4908005E030E7F99080007490D3
:104AF000F0908001EDF0E4FD9080047401F090806E
:104B000002E0FCE9FEED7A002400FFEA3E8F82F528
:104B100083ECF090800AE030E019908003E0FCE93B
:104B2000FEED2400FFEA3EFE74082FF582E43EF518
:104B300083ECF00DBD06C190801AE523F0228513A9
:104B4000207895E6F513122B3812C00FE4908014EC
:104B5000F0908005E030E7F9E4908006122B0A859A
:104B6000F021F522E5188DF0A425182521F52190D6
:104B70008005E030E0F9125B05125B05908040E0B3
:104B800054FEF07405122BCDE522F0E521F0908063
:104B90000074E0F09080067404F0908005E030E04E
:104BA000F9122B96125B058520137F0322125D08F4
:104BB000121B73FBC312099250037F8A22903E7C22
:104BC000121B00121C68400A903E1AE0B4B0037F2A
:104BD0008922121AFD121C873508FC903E70121BA8
:104BE00088121C3A206009903E70121B00121B5F55
:104BF00012C006AB07EB30E71378891209FA000000
:104C00000000EB30E0037F01227F0322121B0BE543
:104C10000D450C7004788476017F89227899A60767
:104C2000EF14604614601524FE601E24FC604424CA
:104C3000F8604024907053903E6880313062059057
:104C40003E6C8003903E748024903E6CE0F8A3E0BC
:104C5000F9A3E0FAA3E0FB903E74123C72C39BFF01
:104C6000EE9AFEED99FDEC98801A903E70123C721F
:104C7000FF8012903E70123C72FF2FFFEE33FEED6C
:104C800033FDEC33FC788D1209E222307021903E26
:104C900018E0B4B01A121FEA80031220BFD8FBFF3D
:104CA0007899E67C00B50707ECB506037F85227886
:104CB00099E6FF789BE6FE5F6005EFF45E8033794E
:104CC0009CE778995660037F8522205F29909000A9
:104CD000E030E310789AE620E71C4480F6789BE603
:104CE00044F6800E789AE630E70C547FF6789BE61F
:104CF00044F6F67F86227F0022900010E0F51FA385
:104D0000E0FF1313543FF520E05403F508A3E0F54A
:104D100009A3E0F50BA3E0F50AE51F6409702BE594
:104D20000B6407450A6039121B56121C4A50148541
:104D30001320121C517B10AD0BAC0A12C00F852042
:104D400013801D7DFF121BC5801685131F85201340
:104D50007B10AD0BAC0AAF09AE0812C00F851F1354
:104D6000125B057F0322900280E0B4FF08A3E0B449
:104D7000FF037FC022900480E0F9A3E0FF9002804F
:104D8000E0FEA3E0FDEF6D7040FDEDC39F503D746C
:104D9000822DF582E43404F583E0FC74822DF582E3
:104DA000E43402F583E0FB121CDB8002C333D8FC41
:104DB000596204121CDB8002C333D8FC5E6203EC30
:104DC0006B60037FB0220D80C17FB0227FA022AD37
:104DD00007125A7EEF7006903E20048051904102E7
:104DE000E030E506E054FEF080E7904103E0540F28
:104DF000FFBF0807904102E020E711123C529041AA
:104E000001E04401F0903E2074028022900E03E005
:104E1000B40316900E02E0B5050F900E01E0B40643
:104E200008900E00E064806009903E207402F07FDC
:104E30000022123C3F7F0122124C8BEF7060789968
:104E4000E664017056903E1CE0FE54036401704B12
:104E5000EE30E223903E1DE0FEB401067402F07FC6
:104E60008522EE64027034903E1D7403F0903E1C67
:104E7000E04402F07F862230600A903E1CE044024B
:104E8000F07F0322903E1DE004F0E0D39406400B37
:104E9000E4F0789BE64401F67F85227F0322228F8F
:104EA0001AEF75F004A42436F9743F35F0FA7B014B
:104EB000C002C00178E27C3E7D01D001D0027E00BC
:104EC0007F04120B52851A1BE51B602B75F004A49E
:104ED000FFAEF02432F9743F3EFA7B01C001743614
:104EE0002FF9743F3EA801FC7D01D0017E007F04B4
:104EF000120B52151B80D178367C3F7A3E79E27FC7
:104F00000412283B228D1FE4FEF520908014E0F56A
:104F100021E4F522EF30E003432210EF5401FDC3FA
:104F2000EF9DFF908005E030E7F9AB07EBC3951FDD
:104F3000502CEB1228DBE522F0908005E030E0F900
:104F400090800BE05403600FE4FF123CFCAE07EED0
:104F5000D3952040028E20E4F5220B0B80CE90806A
:104F600014E521F0AF2022125D08121B73FBC3125F
:104F7000099250037F8A22903E7C121B00121C680B
:104F8000400A903E1AE0B4B0037F8922121AFD1243
:104F90001C87903E70121B85121C3A206009903EBF
:104FA00070121B00121B5F12C003AB07EB30E7133C
:104FB00078891209FA00000000EB30E0037F01223B
:104FC0007F0322121B0B7F89227F207A3F793612C2
:104FD0001C2A7F507A3E79E6121C2A7E007F387D9B
:104FE000FF7B017A3F798C120A6AE4F514121C1ACD
:104FF000E514F0121C1CE075F00AA424EEF582E41E
:10500000343EF583E4F0A3F0121C1AE075F00AA414
:1050100024E6F582E4343EF583E4F0A3F00514E5DC
:1050200014B408C90218B1908007E0F52090800AF6
:10503000E0F521125AAD122B7E90800A7401F0E443
:10504000F522E522122B8D7895E6FD7F2E124ACEB1
:10505000E52275F010A42400F9740035F0A801FCD5
:105060007A2E79007F10122B010522E522C39408C5
:1050700040D0908007E520F090800AE521F0125B97
:10508000057F03227895E6F51312C01578107C5D34
:105090007A3E79E67F70122B0178807C5D7A3F79C9
:1050A0008C7F38122BF1E47895F67895E6FFC3945F
:1050B00007502BEF7F0025E0FEEF2400F974503EEF
:1050C000FA7B01C002C00178007C007D01D001D0D4
:1050D000027E02122ACA125B0578950680CC7F03F5
:1050E000227895E6FEC378AC9640037F0322903E7B
:1050F00002E0FF6024904107E030E624903E03E0A8
:10510000FDC3EF9D903E02F0541F700D903E01E0F4
:105110006401F0909001F08000904107E054BFF0EE
:10512000903E02E04440F08513208E1312C00C859F
:105130002013BF81047F0180027F03227899E6FE5D
:10514000B4010A903E1CE030E0037F83229000000F
:105150007403F0E4A3F0789AE6FF54F960047D80CC
:1051600080027D00900002EDF0E4A3F0EF5E5406B3
:1051700060031220772056033057097899E6B4016E
:1051800003122077306C0A7899E6541860031220D5
:10519000777F0412529D228F1EE4F51FE51E30E733
:1051A0001E122AE0125E697403122AE2125E69740A
:1051B00003122AED125E6990901D7402F08018E4CB
:1051C000122AE2125E69122AEB125E69122AEB12AF
:1051D0005E69E490901DF07895E6FF125E69E51E29
:1051E00025E0F51E051FE51FC3940840AF1259487E
:1051F000228C288D2974002FF58274503EF583E5AA
:1052000029F0EF30E010E528540FC454F0122800C4
:10521000540F4DF0800BE528540F12280054F04D28
:10522000F0E529AE287803CEC313CE13D8F912289F
:10523000943EF583C083C082E0FFE52912289BFEDF
:10524000EF4ED082D083F022E490800AF07C0212EC
:105250005E18908005E030E7F990800074FFF090D0
:105260008005E030E7F99080007490F0E4A3F0FE50
:105270009080047401F0908002E0900000F0E0B4AF
:10528000FF1A0EBE06EAEC5407FEC454F04E90908E
:105290000EF00CECC3940940B67411F0228F21E497
:1052A0007F01FEFDFC7889121F1E70037F8422AFF0
:1052B00021E4FCFDFE1220B64025904106E52112B6
:1052C000208C30560280211209C9C007AF21AB07DC
:1052D000D007C3EF9BFFEE94001220287F81227835
:1052E0008CE690410612208C1209FA000000007F23
:1052F0000322E4F9905DFDE0FC905DFEE0FDAF046B
:1053000074002CF582E4345CF583E0F528F4602821
:10531000EDC394085022ED9053F59355287016ED87
:1053200004905DFEF0905DFDECF075F008A4FFAE1A
:10533000F0EF4DFF220D80D8E4FD0CEC70C009B9F0
:1053400002BC1228E722E4903E00F0903E04F07880
:1053500095F608F608F6D26EC26FC254C253C25216
:10536000903E20F0A3F0A3F0C256C257903E10E04A
:10537000B4A50FA3E0B45A0A789AE64401F6D25BCA
:105380008002C25BE4903E02F0903E1CF0A3F078F5
:1053900080760122EF0475F004A4142436F582F51A
:1053A0008475833F75853FE0F5F01582E0FC15823A
:1053B000E0FD1582E0FF1582E00586F01586158276
:1053C0001584E582B436F1E00586F01584E5F0F049
:1053D0001584ECF01584EDF01584EFF0158622E4C9
:1053E000FF220002040610121416181A1C1E305058
:1053F0005254343638010204081020408040801096
:105400002004080102003FC0FF007FBFC000403FF2
:105410002F0000FFFFC00080807F7F7FFF00010220
:105420000406081000800600FFAABBCCEE8F20E522
:105430002030E0037F89228513217895E6F51378E3
:1054400098E630E6047F0080027F80904104EFF010
:105450007BA0122B3A12C00FE4908014F0E52012CA
:105460002BE7F0908016E020E0F99080007410F0B7
:105470008521137F03228F1EE51E600678A4760324
:105480008004E478A4F6E4F51F78A4E6FF90901D6C
:10549000F0E51E6006EFC313F68011AF1F7401A87C
:1054A00007088002C333D8FC78A446F67895E6FF57
:1054B000125E69051FE51FC3940340CD22EF75F00E
:1054C0000C84FEEF75F00C84AFF0EE90541D93F554
:1054D00009EEC39407500FEF90540593F50BEF902E
:1054E000541193F50A22EF5401FEF404F50BEFC3B7
:1054F00013FD7404A805088002C333D8FCC39EF5CD
:105500000A22125D08900015E0FF124C1C121BB21B
:10551000121C7550037F8A221259E712C006AB078E
:10552000EB30E71378891209FA00000000EB30E055
:10553000037F01227F0322121B0BE50D450C700433
:10554000788476017F8922125DE8EF603290030053
:10555000E0602CA3E0900300122036121F80701F21
:10556000900301E0900300122009C002C001122044
:1055700063D001D002120B52900301E0FF80097E3C
:10558000007F22121EFF7F2212529D22125DE8EF41
:105590006032900302E0602CA3E0900302122036F8
:1055A000121F80701F900303E0900302122009C0B5
:1055B00002C001122063D001D002120B52900303EB
:1055C000E0FF80097E007F24121EFF7F2412529D7F
:1055D00022EB700CE7FF09E7FE09E7FD09E7FC2273
:1055E00014701089828A83E0FFA3E0FEA3E0FDA38C
:1055F000E0FC22BBFE0CE3FF09E3FE09E3FD09E347
:10560000FC2289828A83E493FF740193FE740293DF
:10561000FD740393FC22EF12284474FFF0A3F0EF13
:105620001227F274FFF01227B012288CF583E412CF
:1056300027AD24E8F582E4343E1227A924EAF58256
:10564000E4343E1227A924ECF582E4343E1227A963
:1056500012286D22900075E06003D38001C3926C24
:10566000900076E0903E08F0E0B420037402F090E1
:105670003E08E0B440037404F0205313A26CE433FA
:10568000900000F0903E08E0900001F0125B057F72
:1056900003228F20E520B40205121CD4600CE52003
:1056A000B4030A903E1AE0B4B0037F8922121CA30F
:1056B000E520F0125B2CBF0315E520B40205903EF7
:1056C000188008E520B40306903E1A74A0F0228FDB
:1056D00020E520B40205121CD4600CE520B4030AB6
:1056E000903E1AE0B4B0037F8922121CA3E520F09B
:1056F0001259B2BF0315E520B40205903E18800888
:10570000E520B40306903E1A74C0F0227E027F00AA
:10571000121EFFE4FF7E02FDFC1220B640157889C0
:105720001209C9C3EF9400FFEE9402122028125B05
:105730000580E0788CE6904106F018E612208E1283
:1057400009FA000000007F0322900074E0B45106C3
:10575000A3E0F5208003752001121B56121C4A504D
:1057600014851321121C51AD207C007B1212C00F36
:105770008521138003121B28205306121AEA125B9C
:10578000057F0322125D08900015E0FF124C1C12E9
:105790001BB2121C7550037F8A221259E712C003F4
:1057A000AB07EB30E71378891209FA00000000EB31
:1057B00030E0037F01227F0322121B0B7F8922EF3F
:1057C00030E10790800B7408F022EF30E006E4909F
:1057D000800BF022EF30E20790800B7420F022EF74
:1057E00030E30790800B7440F022EF90800B30E4A0
:1057F000047480F0227410F022122B74E4F520E57A
:1058000020C37895965026E520122B43FAA9077BF2
:1058100001C002C00178007C007D01D001D0027E71
:10582000027F00122ACA125B05052080D2122BE0EB
:105830007F0322900011E0601590800AE020E02BA9
:10584000E04401F078A2E64440F6122BAB229080AF
:105850000AE030E016E054FEF078A2E654BFF6E528
:105860001725E0F517E51825E0F518227D08E4FC7A
:10587000122860E0FAA3E06F7002EA6E6025122839
:1058800060E0FAA3E0FBBAFF08BBFF05BD0802AD6C
:10589000040CBC08DBBD08027D07ED122861EEF0A8
:1058A000A3EFF0227E007F12121EFF90000074F022
:1058B000F07895E6540F900002F0900007740AF01B
:1058C0007896E690000CF07897E6A3F0E47895F6E9
:1058D0007896F67897F67F1212529D222053061280
:1058E0001AEA125D77789AE654F9F6900401E030EE
:1058F000E604E64406F6900401E030E106789AE614
:105900004402F6900401E030E206789AE64404F698
:105910007F0322E4FF74002FF582E4345CF583E01A
:10592000F9F4601CE4FDED9053F59359700EEF759A
:10593000F008A47C002DFFEC35F0FE220DBD08E63A
:105940000FEF70D11228E722122AE0125E69125975
:105950006F12596F90901DE0F5207402F07895E673
:10596000FF125E69E52030E4037F01227F00229070
:10597000901D7403F07895E6FF125E6922125D08AF
:10598000121AFD121B5F12C006AB07EB30E713784B
:10599000891209FA00000000EB30E0037F01227F4A
:1059A0000322121B0BE50D450C7004788476017FF1
:1059B0008922900074E0B45106A3E0F521800375BC
:1059C0002101121B2820530A121AEA125B0578845F
:1059D0007601E52170037521FFAF21122920EF60C8
:1059E000037F03227F89227899E6FF6402602AEF11
:1059F00064806025EFB40405903E6C8016121F335E
:105A0000121FD67899E6B40110903E1CE020E00900
:105A1000903E70121F36121FD622AD07AC06ED3035
:105A2000E00BECC313FEED122806C48008ECC31390
:105A3000FEED122806540FFE74002DF58274503CC2
:105A4000F583E07C002400FFEC3EFE228F1C7F01EA
:105A50001254767F58125197AF1C1251977895E6E1
:105A6000FF125E697F011254767F59125197125CC2
:105A7000098F1D125D41E4FF125476AF1D22789804
:105A8000E630E6047E0580027E0A9041078012908F
:105A90004102E020E014904107E030E7F21EEE60A2
:105AA00006E0547FF080E87F00227F0122E4FFEFD0
:105AB000C39408502474C0A807088002C313D8FCFC
:105AC000908007F0908005E030E7F9122BA49080D9
:105AD00005E030E7F90F0F80D622125D08121AFD9B
