:020000020000FC
:100000000261DF020BC5020BDE020C0B020C1D02AB
:100010000C72020CFD020D8F020DA0020DB3020D39
:10002000C6020DD2020DDF020DEB020DF7020E101B
:10003000020E41020E67020F4F0200000200000292
:100040005D46025A0C025554025E180242AB02563B
:1000500055020000024CD5025988022E7D025C9F99
:100060000252AF025F4C02574802603D0261250216
:10007000613C025F7102537B024965024377904104
:1000800002E030E505E054FEF022904103E0540F19
:10009000FFBF0807904102E020E706123F7F0207FA
:1000A000C7123F6C900E41E024026052146031147C
:1000B000B40B0040030207C79000BFF82828730262
:1000C00001270201AA0207C702022F0207C7020383
:1000D0000B02032B0207C70207690207730207B26C
:1000E000900E40E064217013900E44E0700D123FBA
:1000F000D6123F87123F61124007220207C7900EB7
:1001000040E064A1701E306104F00207C0A263E405
:1001100033FFA262E4332FFFA267E4332F900E4037
:10012000F00207C00207C7900E40E0247F60101461
:10013000601E2402706A903E00E0900E408058904D
:100140000E44E07008900E40F0A3F080560207C7FE
:10015000900E44E014601E2481600824FE60282470
:1001600082703A7881E630E0047F0180027F00905F
:100170000E40EF80227881E630E2047F0180027F2A
:1001800000900E40EF80107881E630E4047F01801B
:10019000027F00900E40EFF0E4A3F080060207C754
:1001A0000207C79041037402F022900E40E07019DC
:1001B000900E42E0B4010F903E00E054FDF09041FB
:1001C00007E054FBF0220207C7900E40E064027083
:1001D0005B900E42E07052900E44E0146020248147
:1001E000600824FE602C2482703C7881E654FEF680
:1001F000904101E04402F0E054FEF00203077881F0
:10020000E654FBF6904101E04408F0E054FBF002B4
:1002100003077881E654EFF6904101E04420F0E0D6
:1002200054EFF00203070207C70207C70207C7908F
:100230000E40E060030202B7900E42E06402707468
:10024000900E44E0706EA3E0606AE0C394055061D4
:10025000123F88904102E0544170F8900E45E0242E
:10026000FE601214601714601C2403704290420157
:100270007483F0803A9042017485F080329042019C
:100280007407F0802A78007C007D017BFF7A3F793B
:10029000137E007F35120F4F904104E020E1F912E8
:1002A0003F6174351240119042017409F080E98079
:1002B000FE0207C70207C7900E40E0640270459037
:1002C0000E42E0703C900E44E014601424816008FB
:1002D00024FE601B248270267881E64401F6802784
:1002E0007881E64404F6904101E04404F0801878F7
:1002F00081E64410F6904101E04410F080090207C5
:10030000C70207C70207C7123F8822123F889041E1
:1003100002E0544170F8900E42E0904100F09041AC
:1003200007E054FDF0E4903E04F022306D449090DC
:10033000107401F0909016E030E31678A1E6F51302
:100340001257E17F02122225909016E054F7F080B8
:100350001C78A1E625E024A2F582E4343EF583E092
:10036000FEA3E0FFBEFF06BFFF03124A95E4909094
:1003700010F0900E43E024FE606314607824FD606A
:100380000A14605924066003020739306B15123FC6
:10039000AA500B7B101207CF7006C26B8002C26B93
:1003A000852013306B117A007900123FCE123F6422
:1003B000903E097404800B123F90903E85E4939028
:1003C0003E09F0903E0A7412F0900E43E06406601D
:1003D0000302073C903E0A740AF002073C903E0B71
:1003E00074FFF0A3743EF07465123FFF903E0A74F0
:1003F00020F002073C306B15123FAA500B7B121203
:1004000007CF7006C26B8002C26B852013306B0C65
:10041000123FCA7404F0A37400F08003123F90905E
:100420000E42E0120E41044500045301046C020424
:10043000890304B80404E68005388205C5830723D0
:100440008600000736123F90903E87123FF8903E9C
:1004500088805C306B0B903E097416F0900402802B
:100460003D903E89123FF8903E8A8043306B0F905A
:100470000402E02416903E09F09004038020903E90
:100480008B123FF8903E8C8026306A1A7A0479806D
:10049000123FCE7404F07480123FFF900480E0900D
:1004A0003E0AF002073C903E8D123FF8903E8EE4EB
:1004B00093903E0AF002073C9004007404F0A314E9
:1004C000F0903E0FE0900402F0903E0EE0900403A6
:1004D000F0123FCA7404F0A37400124000903E0A68
:1004E0007404F002073C12401B248E601424FD604B
:1004F0001724DB601A24187020123F48125B7C809E
:10050000117F02126099800A7F021244E680031272
:100510001E90903E20EFF08009124D60C2531240B1
:100520002222C253903E20E0B40303024D60124DDC
:1005300060903E207405F02212401B248D605024F0
:10054000F0604324ED605E24FB604C24A3606724CC
:10055000FE605A24D060030206F8900E47E030E1B6
:10056000127E027F007D007B017A047900120E6703
:10057000020675900E45E0903E24F0900E46E09005
:100580003E23F00206C9123F48125DB00206F17F19
:1005900002125AC50206F1900E45E0900401F012D5
:1005A0005D0F0206F1E4FF12326D0206F1123FE721
:1005B000125A4A0206F19000747451F0123FE71289
:1005C0005FB90206F1123FC2E4903E21F0A3F0C3EE
:1005D000903E21E0940250447F841251DFEF603C52
:1005E000900E45E0FF903E21E0FCA3E0FD2400F5E5
:1005F0008274043CF583EFF0900E44E0FF74012D0B
:10060000F58274043CF583EFF01260B7903E22E06F
:100610002402F0903E21E03400F080B3C3903E21EC
:10062000E0940250030207CE7F851251DFEF700382
:100630000207CE124D60EF70030207CE7F81125188
:10064000DFEF70030207CE12401B248F70030206F7
:10065000D624FD70030206DD24F3607224E87003E3
:100660000206E424FC70030206EE24A8607B24CB7F
:1006700060030206F8900E45E05407F508A3E0F584
:1006800009903E24E0F50A903E23E0F50BE4F50CDA
:10069000900E45E054F0F50DE030E319903E6C12F9
:1006A0003F9F250BF50BEE350AF50AED3509F509E7
:1006B000EC3508F508E50D7003750D01903E2074CA
:1006C00080F012C006EF30E734124022802F123F34
:1006D00048125F25801B7F02125A8880147F021205
:1006E0004C48800D1233A880081241028003124B3F
:1006F000B8903E20EFF080051240228012903E20FC
:10070000E0B403047F0080027F05903E20EFF0C23A
:1007100053123FC2125E4AEF60030207CE903E20A2
:1007200004F022903E20E0900E40F0E4903E20F055
:1007300090410304F0220207C70207C7900E47E06A
:100740007015900E46E0FF903E0AE0D39F4008905F
:100750000E46E0903E0AF0903E0AE07004123FC25E
:1007600022900E43E0FF023738903E04E0900E40A6
:10077000F0804D123FD6F0900E42E0B4011A903E48
:10078000047401F0904107E04402123F87E4909026
:1007900001F090900704F022900E42E07012903E1B
:1007A00004F0904107E054FD123F879090018013C0
:1007B0008015900E44E07006900E40F08002800795
:1007C0009041037401F022904101E04401F0227D48
:1007D000017C0012C00FEF4E22E4F520900011E0E2
:1007E000600A900010E020E0037F8322900010E078
:1007F0005401900401F0900011E0900400F09090FA
:1008000016E05418FFBF1010306D0DE4FFFE122DDE
:100810001B909016E054EFF0205643205740788804
:10082000E6600A7987E77886461846601E7F457E2F
:10083000407D357C74788512183C600F7F427E497C
:100840007D4F7C53788512183C7002D2567885E62D
:10085000600C7988E778874618467002D25730676F
:100860004220583F205703305639205D362061150D
:10087000A262E4332401FFE433FE7883E6FDB5078A
:100880000AE4B50606789976018011ED14FF74022A
:10089000A807088002C333D8FC7899F67899E6FF58
:1008A00012502C306B1885131F12196B7B107D01B1
:1008B0007C0012C00FEF4E7002C26B851F13789937
:1008C000E6FFB401271219FE7460F0A374D5F0207E
:1008D0006B0302096A900120E064AA600302096ABE
:1008E0007B017A017922903E0B048059306B619034
:1008F0000002E07C002416F9EC3400FAA3E029F9A8
:10090000EC3AFA903E0B7401F0A3EAF0A3E9F0EFA1
:100910005414601B900140E0B4AA147A017942900B
:100920003E0B7401F0A37401F0A37442F0803B7895
:1009300099E6B40835900120E0B4AA2E7A01792214
:10094000903E0B7401F0A37401F0A37422F0801A9E
:10095000903E8FE493903E09F07E002485F9EE34BA
:100960003EFA1219FEEAF0A3E9F0E4900000F078F4
:1009700099E6640170372060237888E66405701C6E
:1009800018E6B48F1718E6B4931218E6B4840DE491
:10099000F0A3F0903E1CE054FEF080119000007433
:1009A00005F0A37480F0903E1CE04401F0306D0E21
:1009B0007412121A3312C01E121A4E6001229004D1
:1009C00001E07003020B13900400E0900001F0902E
:1009D0000400E02480602224FD7003020A9E248328
:1009E0006003020B10E49000021218AB7480F0A3B5
:1009F0007483F0752007020BBFE4900002F0306AA8
:100A0000227B017A007980903E0B04F0A37400F001
:100A1000A37480F0E4903E09F0900080E0903E0ADC
:100A2000F0801C1219FE743EF0A37485F0903E8D88
:100A3000E493903E09F0903E8EE493903E0AF0904D
:100A40003E0AE0900003F0E4FF903E0AE0FEEFC3B0
:100A50009E5029121A06903E09E0FD7C00E92DF90E
:100A6000EC3AFAEF29F9EC3AFA120BC5FD74032FB0
:100A7000F582E43400F583EDF00F80CD900003E0C3
:100A800030E010E004F074032EF582E43400F583C6
:100A90007420F0900003E02404F520020BBFE490E2
:100AA0000002F0A37432F074F21218AEF0A37405D1
:100AB000F0A37430F0A37435F0A37438F0A3744637
:100AC000F0A37420F0A374F2F07401121964740D91
:100AD0001218F27420F0A3F0A31218F274F1F0745B
:100AE000021219647408121A551218AE121A12E47E
:100AF000A3F0A374F11218AB7408F0A37420F0E40F
:100B0000A3121A55A3F0A3121A12752036020BBFB6
:100B10007F83229000017480F0A37404F0A3740218
:100B2000F0A3741FF0E4A3F0A3F0A3F0F51F121AD2
:100B300006851F82758300120BDEFF7408251FF5E2
:100B400082E43400F583EFF0051FE51FB420DF30A9
:100B50006B6A305503205603306605E4900001F0BF
:100B6000751F017899E6FFB401089000237430F0F6
:100B700080383066089000237435F0802D30650889
:100B80009000237436F0802230640890002374377C
:100B9000F08017306311EF900023B408057439F02A
:100BA00080087438F08003E4F51FE51F600E9000A4
:100BB000207438F0A3742EF0A37430F0752024AFA5
:100BC0002012560022BB010689828A83E02250024D
:100BD000E722BBFE02E32289828A83E49322BB01DF
:100BE0000CE58229F582E5833AF583E0225006E997
:100BF0002582F8E622BBFE06E92582F8E222E5829C
:100C000029F582E5833AF583E49322EF8DF0A4A8D9
:100C1000F0CF8CF0A428CE8DF0A42EFE22BC000BC9
:100C2000BE0029EF8DF084FFADF022E4CCF875F022
:100C300008EF2FFFEE33FEEC33FCEE9DEC98400501
:100C4000FCEE9DFE0FD5F0E9E4CEFD22EDF8F5F0C7
:100C5000EE8420D21CFEADF075F008EF2FFFED33CF
:100C6000FD4007985006D5F0F222C398FD0FD5F04D
:100C7000EA22E88FF0A4CC8BF0A42CFCE98EF0A43F
:100C80002CFC8AF0EDA42CFCEA8EF0A4CDA8F08B0D
:100C9000F0A42DCC3825F0FDE98FF0A42CCD35F053
:100CA000FCEB8EF0A4FEA9F0EB8FF0A4CFC5F02EE4
:100CB000CD39FEE43CFCEAA42DCE35F0FDE43CFC4D
:100CC0002275F008758200EF2FFFEE33FECD33CD95
:100CD000CC33CCC58233C5829BED9AEC99E58298E2
:100CE000400CF582EE9BFEED9AFDEC99FC0FD5F0E1
:100CF000D6E4CEFBE4CDFAE4CCF9A88222B800C158
:100D0000B90059BA002DEC8BF084CFCECDFCE5F0C4
:100D1000CBF97818EF2FFFEE33FEED33FDEC33FC0B
:100D2000EB33FB10D703994004EB99FB0FD8E5E4B4
:100D3000F9FA227818EF2FFFEE33FEED33FDEC3396
:100D4000FCC933C910D7059BE99A4007EC9BFCE925
:100D50009AF90FD8E0E4C9FAE4CCFB2275F010EF61
:100D60002FFFEE33FEED33FDCC33CCC833C810D7A4
:100D7000079BEC9AE899400AED9BFDEC9AFCE899F8
:100D8000F80FD5F0DAE4CDFBE4CCFAE4C8F922EBB5
:100D90009FF5F0EA9E42F0E99D42F0E89C45F02282
:100DA000E8600FECC313FCED13FDEE13FEEF13FF31
:100DB000D8F122E8600FEFC333FFEE33FEED33FDD1
:100DC000EC33FCD8F122E6FC08E6FD08E6FE08E676
:100DD000FF22E6FB08E6F908E6FA08E6CBF822EC83
:100DE000F608EDF608EEF608EFF622ECF0A3EDF0CB
:100DF000A3EEF0A3EFF022D083D082E493F6087440
:100E00000193F608740293F608740393F67404735E
:100E1000A8828583F0D083D082120E27120E27126B
:100E20000E27120E27E473E493A3C583C5F0C58390
:100E3000C8C582C8F0A3C583C5F0C583C8C582C82C
:100E400022D083D082F8E4937012740193700DA3C2
:100E5000A393F8740193F5828883E4737402936812
:100E600060EFA3A3A380DFEF4E6012EF60010EEDF1
:100E7000BB010B89828A83F0A3DFFCDEFA2289F0B2
:100E80005007F709DFFCA9F022BBFEFCF309DFFCE9
:100E9000A9F022E709F608DFFA8046E709F208DF41
:100EA000FA803E88828C83E709F0A3DFFA8032E380
:100EB00009F608DFFA806EE309F208DFFA80668837
:100EC000828C83E309F0A3DFFA805A89828A83E067
:100ED000A3F608DFFA804E89828A83E0A3F208DF56
:100EE000FA804280D280FA80C680D4805580F28019
:100EF00029801080A680EA809A80A880DA80E2802B
:100F0000CA802988848C8589828A83E493A3058694
:100F1000F0A30586DFF5DEF3800B89828A83E493F4
:100F2000A3F608DFF9ECFAA9F0EDFB2288848C85A2
:100F300089828A83E0A30586F0A30586DFF6DEF4C6
:100F400080E389828A83E493A3F208DFF980D6885C
:100F5000F0EF60010E4E60CD88F0ED2402B4040085
:100F600050C3F582EB2402B4040050B92323458218
:100F700023900EE373E4909001F0E070030211F50A
:100F8000E490900FF078B3764890900704F090903A
:100F900001E024FE700302103024F7700302109861
:100FA000240224FC400302105370030210901470BA
:100FB00003021123147003021116240E60030211A0
:100FC000DA12605C904102E030E7F9904102E030D3
:100FD000E0F9E4F512E5129057D993FF7400251259
:100FE000F582E4340EF583E06F60030211DC051234
:100FF000E512B408E0900E407411F0A37422F0A33F
:101000007433F0A37444F0A37455F0A37466F0A392
:101010007477F0A37488F0E4904102F0A37408F0B0
:10102000904102E020E1F99090017401F00211DAA0
:1010300012605C904107E030E4F990801CE0540FAE
:10104000FFBF0FF6E4908007F0904107E04420F0E6
:101050000211DAAF0BAE0AAD09AC08C006C007AE8C
:101060000CAF0DAB07AA06E4F9F8D007D006120CB6
:10107000FD8F0B8E0A8D098C08AF0BAE0AAD09AC43
:1010800008780A120DA08F0B8E0A8D098C0880FE3D
:1010900090800B7408F08005E490800BF090800A3B
:1010A0007410F0126074E4F51412601DE4F519F583
:1010B00013E4908006F0908005E030E0F990800B1A
:1010C000E054036005E4FF1242AB0513E513C3943B
:1010D0000240DE90800A7411F090800774FFF07572
:1010E000140212617E751202125F9512601D9080CB
:1010F0000774C0F0E4908006F0908005E030E0F9DD
:1011000090800BE0540360047F0080027F01909088
:1011100001EFF00211DA90801AE04401F090800AA9
:101120007411F0E4909002F09090057430F090907B
:10113000027401F000000000909001E0B40E05E49C
:1011400090800AF012607490800B7404F090800517
:10115000E030E7F990800074FFF0908005E030E720
:10116000F9E4908000F0A3F0F0F0F0909001E0B48A
:101170000F05E4908001F09080007430F0908005BD
:10118000E030E7F99080147410F0E4908006F0905D
:101190008005E030E0F9E4908006F0908005E030D2
:1011A000E0F99080157455F074AAF09080147410D2
:1011B000F0E4908022F0A37405F090801714F09072
:1011C000801674C0F0908016E020E0F990801574CD
:1011D00077F0E4908023F002E80080FEE490900134
:1011E000F0E0B4780EE4FDFF12537B124965E4FF92
:1011F00012437780FE759852758921758DFFD28EC6
:10120000E4F58CF58AD28C4387807898F6759955E9
:101210009090107408F090900174FFF01256FA90BC
:10122000900AE020E707909000E030E449909016A3
:10123000E030E017903F88E0B45110A3E0B4460BD3
:10124000A3E0B45706A3E0645460261245941260EC
:10125000F1909016E04401F0903F887451F0A3742F
:1012600046F0A37457F0A37454F0E4909010F0800B
:10127000091260F18008124594E490900FF0E49018
:101280009010F0023C8A900012E07895F6A3E0F509
:1012900008A3E0F509900015E0F50AA3E0F50B7846
:1012A00089120DF700000000900019E0B45106A368
:1012B000E0900010F0900010E0120E411320001397
:1012C000CB0113D30213E10313E404144F0513E716
:1012D0000613EA0713F30813ED0913F60A13F90BC3
:1012E00013FC0C140D0E14BF10141011141312144F
:1012F0002A1314FB1B150D1C15231D15401E155913
:101300001F155F20132321132322138A23138A24FA
:10131000144928144C2A1440801446810000156793
:1013200002543F90800BE054FC788CF690800AE0E9
:1013300018F6900011E018F690800B7410F0E4900D
:101340000011F0125C66788AE6900011F0900010AF
:10135000E0B42108A3E0FF123983800E121E0E12A2
:10136000613C900011E0FF12582B7889A607788C19
:10137000E690800BF018E630E0047F0180027F00E9
:10138000900011EFF0125C66803C90801AE054806F
:10139000788CF6E0547FF0900010E0B42408A3E0CD
:1013A000FF123983800E121E0E12613C900011E074
:1013B000FF12582B7889A60790801AE0FF788CE6F8
:1013C0005480FEEF4EF07889E6FF22900011E0FF96
:1013D000023983121E0E12613C900011E0FF025888
:1013E0002B02607B02549C024F4E024B28125C661B
:1013F0007F0322025FFD0231260254F97895E6FF51
:101400005470FEEF54074E90900E0215630241D9BE
:10141000025C2C12610C7895E67800FC7A00790069
:101420007E027F00121DBE7F03227895E6FA7900C6
:101430007B01C002C001121E2BD001D00202150494
:10144000121CCC025A4A0261A5025BB70258B97D50
:1014500000121DB19000007460F0A37404F09000BD
:101460000304F0E4F520AF20125874E52075F00471
:10147000A4AEF02410F50DE43EF50CFE7400250D2D
:10148000F58274003EF583E520F07401250DF582A8
:1014900074003EF583E509F07402250DF5827400B1
:1014A0003EF583E50AF07403250DF58274003EF5E0
:1014B00083E50BF00520E520C3946040A9805E9091
:1014C0000011E0F520AF201520EF602CAE08AF0929
:1014D000E42FFFE43EFAA9077BFFC002C001121E01
:1014E0002BD001D0027E027F00120F4F121D281256
:1014F0005EFE0508050880CD7F0322121E2B7B01AE
:101500007A3079007E027F00120F4F8010121E2B5E
:101510007B007A0079007E017F00120F4F125EFE81
:101520007F0322900011E0600BD259908040E0448C
:1015300001F08009C259908040E054FEF07F032200
:10154000900011E090800A6006E04402F08004E020
:1015500054FDF012360B7F03221248C97F0322E4A8
:10156000909012F07F03227F8322903E06E0640772
:101570007003A3E0F47042121DC51256A9E513547E
:10158000037F00FEEF2400F974103EFA7B01C002D5
:10159000C00178007C147D01D001D0027E01120FC1
:1015A0004FE4FF1222258E228F23C3E523789E96D7
:1015B000E5221896400D0217A8903E06E0F522A3FA
:1015C000E0F5237B14E4FDFCAF23AE2212C00FEF45
:1015D0004E70030217A890100EE064986003021783
:1015E000A8A3E064E360030217A890100A121D3B51
:1015F000121E55901011121D3B903E6C120DEB9077
:101600001016121D3B903E70120DEB90101B121D18
:101610003B903E78120DEB901021121D3B903E7CCA
:10162000120DEB901026121D3B121E5B901030E045
:1016300024FF925F901034E024FF9264901036E013
:1016400024FF9255901038E024FF9266A3E024FF17
:101650009263A3E024FF9265A3E024FF92679010B9
:101660003FE024FF925AA3E024FF9260A3E024FF0E
:10167000925CA3E0903E03F0901043E024FF925E62
:10168000A3E024FF9261A3E024FF925DA3E024FF86
:101690009258A3E024FF9250A3E024FF9270305AA6
:1016A000047F0180027F00909001EFF090102EE007
:1016B000789A46F6909016E030E104E654EFF61280
:1016C0001CA1FF903E6C121D1DFBD3120D8F400A12
:1016D000903E6C120E1000000000903E6C121CA494
:1016E000FFEC4D4E4F6002D262305F09909000E0F7
:1016F00030E302C267E4F521E521C378AC965021BE
:1017000075F002E521A42400F582E5F03411F5839B
:10171000E0FEA3E0FF121D56EEF0A3EFF0052180DE
:10172000D77D011217FD70030217F81244317D02B4
:101730001217FD70030217F8901080E0B4FF09A3A0
:10174000E0B4FF047FC080027FB0903E18EFF07DD0
:101750000312180B70030217F8901080E0B4FF0911
:10176000A3E0B4FF047FC080027FB0903E1AEFF088
:101770007D0712180B70030217F8901080E064AA1E
:101780007017A3E0B45512121E7CE0B4A50D903E74
:1017900011E0B45A06D25B8002D25B903E06E5228D
:1017A000F0A3E523F07F0122903E067407F0A374B6
:1017B000FFF0E4F52178ACE6FFE521C39F501378F4
:1017C0009FE6FC08E6FD121D56ECF0A3EDF00521A6
:1017D00080E37E00789FE6FC08E6FD120C0B8E226B
:1017E0008F23AB07AA06E4F9F8AE0EAF0FFCFD128B
:1017F0000C72121E55121E5BD25B7F00227B147C82
:1018000000AF23AE2212C00FEF4E227B147C00AF3C
:1018100023AE2212C00FEF4E227F147E007D007B8C
:10182000017A007900020E67E50D250BFFE50C3506
:101830000AFEE43509FDE43508FC788D120DD2C3AB
:10184000020D8F903E6CE0F8A3E0F9A3E0FAA3E06C
:10185000FB903E74E0FCA3E0FDA3E0FEA3E0227851
:101860008D120DC6EF24FFFFEE34FFFEED34FFFDB9
:10187000EC34FFFC900000020DEB908017E0250D8A
:10188000F50DE4350CF50CFE7809AF0DE4FCFD1206
:101890000DB3788922AF0BAE0AAD09AC08780212FD
:1018A0000DB38F0B8E0A8D098C0822F07403A3F000
:1018B000E4A3F0A322FFE02FFFE433FE74002FF532
:1018C0008274023EF583E064AA22C2547A00790051
:1018D0007E007F009044007400F0A37400F0E49058
:1018E0004104F022904101E04410F07881E6441078
:1018F000F622F0A37441F0A3744CF0A37443F0A358
:10190000744FF0A37452F0A32274002520F582E4F2
:101910003402F583E022250BF50BEE350AF50AEDCE
:101920003509F509EC3508F50822A25CE433FF74AB
:10193000047E00A8070822E0FCA3E0FDA3E0FEA3CC
:10194000E022AE0CAF0DE4FCFDFB7A02F9F8120CBC
:1019500072788922FF7E00E07C002400F9EC3403D9
:10196000FA7B0122A3F0E4A3F0A322903105E0F575
:1019700013903E06E0FEA3E0FF22FEED9400FDEC96
:101980009400FC7889020DDFFFE02FFFE433FE7442
:10199000002FF582740322903E03E0FEC3EF9E9079
:1019A0003E02F0541F2274012520F582E43402F532
:1019B00083E024022278007C007D0122C39BFFEE9D
:1019C0009AFEED99FDEC98FC229000027480F022C2
:1019D0007895760578962278957602789622F0E4C6
:1019E000904105F0788922903E01E06401F09090EA
:1019F00001F022AB0BAA0AA909A808020D8F903E9C
:101A00000B74FFF0A322903E0BE0FBA3E0FAA3E0EF
:101A1000F9227405F0A37408F0A3740FF0227D017D
:101A20007B017A0079117E0022788D120DC6780232
:101A3000020DA0903E15F0903E167401F0227889B8
:101A4000120DD2D3020D8FCEA2E713CE13227880CF
:101A5000E6FF640222F0A37449F0A37445F02278F3
:101A6000957606789622C26DC269125E79E4789204
:101A7000F6122C44C259E4908040F090800B741010
:101A8000F07892E6122CB690800AE04410F0908034
:101A90001AE04401F0908005E030E7F9122C13744D
:101AA00030F0E478A2F6908005E030E7F9E4908029
:101AB00006F0908005E030E0F9908067E030E018B3
:101AC00078A2E67010069080007405F0E4122C18DD
:101AD00074E0F080D1122C3DE4FD7F2E124A00E428
:101AE00078A2F6902E00E064986004E0B4451A787D
:101AF000A27601902E02E030E30F902E05E054070D
:101B0000D394044004E64402F6E47894F690800509
:101B1000E030E7F9122CCD7894E6FF1258749080EB
:101B200005E030E7F978A2E630E10690800074A283
:101B3000F0E4908000F0122C777430F07894E67026
:101B400014908005E030E70D7892E630E107789454
:101B50007660021BEB908005E030E7F978A2E66042
:101B60000D9080007405F0E4122C7774E0F0E478B6
:101B700091F69080147410F0908005E030E7F9E45D
:101B8000908006F0908005E030E0F990800BE05402
:101B9000036009E020E13DE4FF1242AB901000E059
:101BA000640D7030A3E06406702AA3E0640570241D
:101BB000A3E06406701EA3E0B4191978007C30120B
:101BC0002C897E027F00120F4F122063EF70551296
:101BD0002C44800B7891E6C39406500306809378DA
:101BE0009406E6C394605003021B0D789206E6C388
:101BF00094045003021A71122C3D9057B1E4939053
:101C00008007F0908005E030E7F9122CCD90800538
:101C1000E030E7F9122C137430F0908005E030E7E3
:101C2000F97F0022D26D90319FE0B45108D25990D3
:101C300080407401F012360BE4909002F0903192E3
:101C4000E07004A3E0601D90300CE05470909005AB
:101C5000F0903192E0FEA3E0FF12478C9090057463
:101C600090F0800A90300CE04401909005F0909044
:101C7000027401F0903121E0B45102D26990901EBB
:101C8000E04440F012C000E47883F67F01227A0439
:101C900079007E047F009044007404F0A37400F087
:101CA00022903E74E0FCA3E0FDA3E0FEA3E02290BE
:101CB0008017E0250DF50DE4350CF50CFEAF0DE4B5
:101CC000FCFD7809120DB37889020DDF900010E059
:101CD000900074F0900011E0900075F0900012E018
:101CE000900076F0227DFF7E027F007B017A0479EE
:101CF00000020E67250BF50BEE350AF50AED3509E6
:101D0000F509EC3508F50822E50D250BFFE50C3546
:101D10000AFEE43509FDE4903E783508FCE0F8A3BE
:101D2000E0F9A3E0FAA3E0227A0079007E007F00C8
:101D30009044007400F0A37400F022E0FCA3E0FDE6
:101D4000A3E0FEA3E0FF22903105E0F513903E06EC
:101D5000E0FEA3E0FF22E52125E024C2F582E43481
:101D60003EF58322E50D250BFFE50C350AFEE43533
:101D700009FDE43508FC22F0A261E433A3F0A25D82
:101D8000E433A3F0A258E433A3F0A250E433A3F069
:101D9000A270E433A3F022F0A266E433A3F0A263BE
:101DA000E433A3F0A265E433A3F0A267E433A3F025
:101DB000227E027F007B017A007900020E677D019E
:101DC0007B01020F4F903105E0F513222FF50BEA4E
:101DD0003EF50AE93DF509E83CF5082275F002EF09
:101DE000A42400F582E5F03405F583227400252053
:101DF000F582E43404F58322FFAB0BAA0AA909A8F3
:101E000008C3020D8F788D120DD2C3020D8F900082
:101E100017E0FEA3E0FF22250BFFEE350AFEED35AD
:101E200009FDEC22C394FFEE94072278007C007D2C
:101E30000122F582E43402F583229000747451F09B
:101E4000A3222DFDE4338D82F583E493FE22789B5B
:101E5000E644F6F622903E68020DEB903E74020DC9
:101E6000EB04F0A264E433A3F0A322903E18E064F4
:101E7000B022ED5407FA7401A8020822789AE644C9
:101E800001F6903E1022C3E50B94FFE50A94072269
:101E90007D00121CE7903E68121CA4FF9004001203
:101EA0000DEB90040474E3F0A37402F0A374A1F0AA
:101EB0007B017A3E796C125988900407120DEB90E1
:101EC000040B74A2F07B017A3E7978125988900451
:101ED0000C120DEB90041074A3F0E4A3F0A26C3389
:101EE000A3F0A374A4F07B017A3E797C1259889008
:101EF0000414120DEB90041974A5F07B017A3E795D
:101F00007012598890041A120DEB90041F7401F09E
:101F1000A374A6F0A25FE433A3F090042374A7F0A7
:101F2000900426121E6174A9F090042B04F0A26D97
:101F3000E433A3F090900AE090042DF090042F7405
:101F4000AB121D97A25CE433900436F0A25AE4333E
:101F5000A3F0903E03E0900438121D777B017A3E97
:101F60007974125988900500120DEB90050474B035
:101F7000F0903E19E0900505F0903E1BE0900506BC
:101F8000F0903E18E0900507F0903E1AE0900508AA
:101F9000F0A374C0F0789AE6A3F0A374B1F09005B2
:101FA0001004F0789FE6A3F008E6A3F0A374B3F062
:101FB000A26CE433A3F0903E08E0900515F0A37402
:101FC000B4F0789BE6FFA3F0789CE6FEA3F0A37440
:101FD000B5F090052404F0A3EFF0A3EEF0900530E7
:101FE00074B7F0909000E0900531F090053574B82A
:101FF000F090054004F0903102E0900541F078A5A2
:10200000E6A3F008E6A3F0903105E0900544F090D7
:102010003E06E0900545F0903E07E0900546F090C2
:1020200090287401F0E4F000909029E0900550F0C1
:1020300090902AE0900551F090902BE0900552F09E
:1020400090902CE0900553F078F07C057A3179F08F
:102050007E007F10121DBE205306121C8E125EFEE3
:102060007F0322903012E078A2F690800AE0FF9081
:102070003013E0FEEF4E90800AF09031F0E0F50E64
:10208000A3E0F50F9031F2E078ACF69031F4E0F592
:1020900010A3E0F5119031F6E078ADF69031F8E05C
:1020A000F5129031FA122BFF9031FC789F122C011F
:1020B0009031FE122C92903191E0909009F0903185
:1020C000A7E078A3F6E6700276049031A8E0FF124C
:1020D0005BF2903194E06003122CE1122C9D788227
:1020E0007614E4F5237882E6FF2400F582E43430A8
:1020F000F583E0640C600302221F74012FF582E473
:102100003430F583E0FEC4540F122CB674022FF560
:1021100082E43430F583E07880F67882E62403F5B3
:1021200082E43430F583E07881F6908005E030E792
:10213000F9E4F521E521C3788096502FAF21740191
:10214000A807088002C333D8FCF5227881566010B6
:10215000908005E030E7F9122C4C908000F0800769
:10216000122C4C908001F0052180C97882E6240170
:10217000F582E43430F583E0540F7880F6E630E001
:10218000037F0022E4F521E521C378809640030215
:102190002216E521540725E02410908014F0908049
:1021A00005E030E7F9E4908006F0908005E030E04B
:1021B000F990800BE05403600CE030E1037F0022D3
:1021C000E4FF1242AB908005E030E10A90800AE023
:1021D00020E1037F002205210521E5215407F52296
:1021E0006007E521788066709EE5227003752208FD
:1021F000E5227F0025E0FEC006C007E523122C6C17
:10220000A807FC122C89D007D006120F4FE5222513
:1022100023F5230221877882740C26F60220E5122A
:102220002D017F01228F25E4F50AF50BC3E50B781C
:102230009E96E50A189640030223B6E5257019120A
:102240002B64CEC313CE13D8F92400F58274141274
:102250002A5C5E60190223AB122B64CEC313CE132B
:10226000D8F9122B1F122A5C5E60030223AB7B405D
:10227000E4FDFCAF0BAE0A12C00F905D02EEF0A3BE
:10228000EFF0905D02E0A330E720122B64CEC31381
:10229000CE13D8F9122B1F3EF583C083C082122AB9
:1022A0005F4ED082D083F00223ABC3905D03E094F5
:1022B000FF905D02E0940740030223ABE525700C1C
:1022C000E0B40708A3E0B4FC030223D8E5256402C8
:1022D00060030223AB122AFD125E18905D00EEF03F
:1022E000A3EFF0C3905D01E094FF905D00E09407E0
:1022F000400D122AFDAD0BAC0A1255540223ABE57A
:1023000014C3942540030223A27B407D027C00AFCE
:102310000BAE0A12C00F903EE2EEF0A3EFF0122ACD
:10232000FD903EE2E06E7003A3E06F600E903EE22F
:10233000E064077004A3E064F7702CE514C39419FB
:10234000905D00E0FEA3E0FFE5145005122BA18094
:1023500003122BABF583EEF0A3EFF0122AFDAD0BC9
:10236000AC0A1255548037E514C39419E51450058E
:10237000122BA18003122BABF583E50AF0A3E50B2A
:10238000F0122B64CEC313CE13D8F9122B1F3EF5D7
:1023900083C083C082122A5F4ED082D083F005149E
:1023A00080097D01AF0BAE0A12C012050BE50B7060
:1023B00002050A02222CE5256015903102E0B513D2
:1023C0000E78A5E6FC08E6FD7FFD7E071255547FDA
:1023D000107A5D7900122B98AE0AAF0B223065306F
:1023E000789AE630E02A90000FE0248F24FC501DFC
:1023F00024F2601924ED601524FC60140424FB50C1
:102400000C24A9600824FB6004247970037F8222D5
:10241000D25290000FE0120E41255D102564112468
:10242000BA12251571251972251D732521742525CC
:1024300075253076253977254278254B7B25547CC8
:1024400024F581250082250B8324EB96249A97247A
:10245000CB9924D39A24DB9B24B29C24E39D24C3F0
:10246000F5247AF62482F724A2F8248AF9256BFA57
:102470002492FB24ADFF000025721253DD8F1F0252
:102480002575124FBD8F1F022575125D7B8F1F02B0
:102490002575125ED38F1F0225751261EB8F1F0207
:1024A0002575121CCC125FB98F1F02257512616948
:1024B000800B1251098F1F022575125FDB751F03F8
:1024C0000225751241028F1F0225751233A88F1F36
:1024D000022575121E908F1F022575125D0F8F1F2A
:1024E000022575124BB88F1F0225757F0112326DC0
:1024F0008F1F022575121CCC125F258F1F022575B8
:10250000121CCC125B7C8F1F022575121CCC125D35
:10251000B08F1F80607F0280197F02801E7F028043
:10252000237F028028903E1CE04402F07F02802638
:102530007F03125A888F1F803C7F031260998F1F80
:1025400080337F03125AC58F1F802A7F03124C48A5
:102550008F1F80217F031244E68F1F801812482DA1
:102560008F1F80111246E98F1F800A1212868F1F5B
:102570008003751F82C252AF1F221261537899E601
:102580006401702E903E1CE030E027AE0CAF0DE4ED
:10259000FCFD780B120DB3788912183C70141218D8
:1025A00095E50DAE0C7802C333CE33CED8F9F50DD8
:1025B0008E0C12194212183C60037F842212509B29
:1025C0008F1FEF30E70122788D120DC6D31219F359
:1025D00040093056030226AE7F8A22121828500383
:1025E0007F8A22903E02E0FF6011904107E030E6D2
:1025F0001112199770051219E78000904107E054F5
:10260000BFF0903E02E04440F02064047F0180026D
:102610007F00903E18E0B4B0047E0180027E00EEA0
:102620005F70030226CD12192A8003121A47D8FBC5
:10263000FF7899E66F7001EE60030226CD7889126B
:102640000DF700000000E4FFFEFDFCC31219F3705B
:102650005D7899E6B4040B903E6C121854F50B1299
:1026600018A4903E1EE50CF0A3E50DF0750C007566
:102670000D0112C0038F1FE51F30E718903E1EE0CA
:102680007004A3E06401700FE51F30E0047F018057
:10269000027F03227F8922908016E020E0F9903E9D
:1026A0001FE024FFF50D903E1EE034FFF50C7E0C7C
:1026B0007F007DFF12181FE50D450C600D125EFEB8
:1026C000E50D150D70F1150C80ED7F0322125DE50F
:1026D00012C0038F1FE51F30E72D30E01C90410230
:1026E000E030E00312007E904104E020E1EF30543E
:1026F000031218CA751F018003751F037889120D14
:10270000F700000000800912187A120DDF751F898A
:10271000AF1F228F232052062053037F0122121D58
:10272000C512C01520510312C01B7FFC7E07125E2C
:10273000188E0A8F0B121E8640117E107F007DFFBF
:102740007B017A107900120E678021E47891F67887
:1027500091E6C394085015E6FD7C00E62404FBAF27
:102760000BAE0A12C00F7891060680E3E523B4FF92
:10277000097508077509FF022878905DFDE07891DA
:10278000F6E4F01256558E088F09BEFF06BFFF0310
:102790007F00227891E6905DFDF0E5237F0025E043
:1027A000FEEF2400F974103EA801FC7D017B017A44
:1027B0000479007E02120F4FE47891F67891E6C317
:1027C000940840030228782052062053037F0122F8
:1027D0007891E68512F084E5F070057BA012289EC2
:1027E0007FFC7E0712613C9031EEE030E307789188
:1027F0007BA212289E7891E625E02410908014F0A8
:1028000090800674E0F0908005E030E0F97891E681
:1028100024028512F084E5F06007E6240254077074
:10282000509080007410F0908005E030E7F978A2B5
:10283000E6FF20E53C9080007470F0908004740105
:10284000F0908002E07892F6EF54C060069080032A
:10285000E046F67892E630E0187D01AF09AE081246
:10286000C0127BC1E4FDFCAF09AE0812C00F022705
:102870007A789106060227BC121E8650097D01AFA8
:102880000BAE0A12C012AD09AC087FFC7E071255D0
:1028900054903E06E508F0A3E509F07F0122E6FD2D
:1028A0007C00AF09AE0812C00F2290000FE0F51DAA
:1028B0007889120DC6EC4D4E4F601290000CE0640A
:1028C0008060047F0380027F028F1E8003751E01DB
:1028D0007884A61E306D17306914903E15E51DF002
:1028E000E4903E16F012C01E121A4E600122E51D41
:1028F000120E4129E00029C6032A23042961122A65
:10290000231529831A29D31B29ED1E29A52329B6AE
:1029100025293F2829502A29722F29FA432A0745B9
:102920002A0E462A15512A1C5229945A29B69E2A43
:102930002FA22A23A32A23BB2A28BD00002A36E57A
:102940001E64026003022A3E12257A8F1C022A3B73
:10295000E51E64036003022A3E1238628F1C022ABD
:102960003BE51E64026003022A3E1207D98F1C0257
:102970002A3BE51E64016003022A3E1261B78F1CE8
:10298000022A3BE51E64026003022A3E123A948F3B
:102990001C022A3BE51E64026003022A3E1234DB5D
:1029A0008F1C022A3BE51E64026003022A3E124D80
:1029B000EB8F1C022A3BE51E64026003022A3E12D2
:1029C0003B988F1C8075E51E64027072125CD78F75
:1029D0001C8068E51E64017065125B3F8F1C805B84
:1029E000E51E640170581252488F1C804EE51E642B
:1029F00001704B1261D28F1C8041E51E6402703E53
:102A00001246418F1C80341261F38F1C802D12619D
:102A1000C58F1C80261258FE8F1C801F1259438FB1
:102A20001C8018751C038013125B028F1C800C1213
:102A30005EA68F1C80051223DD8F1CAF1C227F82B7
:102A400022F58374FFF0A3F0EF25E025E02439F5AB
:102A500082E4343FF583E075F00AA4223EF583E07A
:102A6000FF7C00E50B540724A9F582EC3457F5836D
:102A7000E493FEEF227E007DFF7B01020E67E522DC
:102A800025E02480F582E4343EF58322E52325E029
:102A900025E02438F582E4343FF58322FDEEC313AC
:102AA000FEEF132400F58274583EF583E022E52200
:102AB00025E025E02460F582E4345DF583E0FEA3A3
:102AC000E0227E007DFF7B01020E677D017B017E9F
:102AD00000020F4F25E025E02436F582E4343FF56F
:102AE0008322EC25E02400F582E4345DF583222482
:102AF000EEF582E4343EF583E4F0A3F022905D022B
:102B0000E0FEA3E0FF22E52225E025E02462F58235
:102B1000E4345DF583E02224E6F582E4343E2224A9
:102B200000F582745C227C00540724A9F582EC3401
:102B300057F583E493227F007B01020E67E521783D
:102B4000A026FFE41836FE2225E025E02439F58290
:102B5000E4343FF58322E52225E025E02463F58275
:102B6000E4345D22E50BAE0A78032225E0241090C0
:102B70008014F090800622E52125E024A2F582E46D
:102B8000343E22789AE64420F67EFF7FFF2225E03D
:102B900024C2F582E4343E227E007DFF7B01020EDA
:102BA0006725E02456F582E4343F2225E02415F51C
:102BB00082E4343E22AF177E0078A4E6FAFD7C0062
:102BC000120C0B7891E625E02427F582E4343EF5DB
:102BD00083EEF0A3EFF0E5188AF0A4FFE625E024E9
:102BE00027F582E4343EF58322120F4F7A007900F4
:102BF0007E007F009044007400F0A37400F02278FF
:102C00009DE0FEA3E0A60608F6227D017B017E0082
:102C1000020F4FE4908000F0908001F0F0F0F0F0AF
:102C200090800022F0E512FD7C00AE0AAF0B120C82
:102C30001DECC313ED13FDE5178DF0A42290801A4F
:102C4000E054FEF090800AE05480F0227882E6257D
:102C500021FFE433FE74042FF58274303EF583E0E7
:102C6000227B20AD0BAC0AAF09AE082225E0FEE4C2
:102C70002400FFEE34A022908001F0F0E50BF0E597
:102C80000AF0E509F0908000227D017B017A10793D
:102C9000002278A5E0FEA3E0A60608F622908015A3
:102CA0007455F074AAF0227E027F007D007B017AC9
:102CB000007900020E679057B193908007F0229040
:102CC0008040E0FFA259E433FEEF4EF022908000F6
:102CD00074FFF022E517C313F517E518C313F518B1
:102CE00022E05470FFE054074F90900EF022908045
:102CF00000F090800122EBC31378B2F678A406E6C8
:102D0000229080157477F022908017F090801674CE
:102D1000C0227D017B017E00020F4F8F2178ACE63F
:102D2000F515F513C251E4F523E513D378A19650B8
:102D300003022E7C151312C01530510612C0240256
:102D40002E46E4F522122B0665136003022E3A127A
:102D50002A8CE0F46004052380F5E4F524E524C31F
:102D60009523502A122B06FFE524122A8EE0B50780
:102D700019122AAEFFE524122AD4E0FCA3E0B5071D
:102D800009ECB506050522022D45052480CF122A3F
:102D9000AEFFE523122AD4EEF0A3EFF0122A8CE561
:102DA00013F0122B56122A542410F9745D35F0FAE0
:102DB0007B01C001E523122A4924E6F9743E35F06F
:102DC000A801FC7D01D0017E007F0A120F4F122B5B
:102DD00056F583E075F008A42480F9745D35F0FAA7
:102DE0007B01C001E523122B48E075F008A4248C78
:102DF000F9743F35F0A801FC7D01D0017E007F0809
:102E0000120F4FE523122A49122B17122ABBC39522
:102E10000FEE950E5024E523122A4924E8F582E4AA
:102E2000343E122ABBFF7D0112C018E523122A4945
:102E3000122B17F583EEF0A3EFF00522E522C394E1
:102E4000085003022D45E521600FE4F51412C0215E
:102E50000514E514C3940840F478107C5D7A3E793B
:102E6000E67F70122ACB78807C5D7D017B017A3F02
:102E7000798C7E007F38120F4F022D29228F1CE49F
:102E800078A4F6908016E020E0F9904104E020E17B
:102E9000F9121D28900000120E10555342537B006A
:102EA0007A007985125988900004120DEBE49000A5
:102EB0000CF090000BF090000AF0900009F09000E8
:102EC00008F0904106740DF0E4904105F0D2549062
:102ED0004104E030E10A904102E030E0F27F00225C
:102EE000C2547A0079007E00121D30E4904104F053
:102EF000E51C7002FF22C28CC28DE4F58CF58AD2EB
:102F00008C903E02E0FF6024904107E030E6249080
:102F10003E03E0FEC3EF9E903E02F0541F700D9002
:102F20003E01E06401F0909001F08000904107E0E4
:102F300054BFF0903E02E04440F0904104E020E0B5
:102F400010904102E030E0037F0022308DEC7F00E2
:102F50002290000FE0701A78A4E6C39401501290FA
:102F6000000DE0788366700978A406122FC3022E44
:102F700091900011121D3B7891121E077042900033
:102F80000FE0651C703A90000DE078836670319018
:102F90008016F0122FC3121D28E4908014F09000C8
:102FA00016E0F50CA3E0F50D7891120DC68F0B8E8F
:102FB0000A8D098C08121D647891120DDF7F0122A1
:102FC0007F00227B017A0079041259887885120DDE
:102FD000DF22904106E0547FFFBF211C7F437E42E9
:102FE0007D537C55900000E0F8A3E0F9A3E0FAA33C
:102FF000E0FBC3120D8F6007788476027F82227B0C
:10300000017A0079041259887885120DDF7B017AE4
:103010000079081259887889120DDF7A0079007ECC
:1030200000123F6190000DE07883F690000FE030D1
:103030006E3F6412602A7888E6B4051718E6B48FEC
:103040001218E6B4930D18E6B48408903E1C74027E
:10305000F08006903E1C7407F0306504E4789BF61F
:10306000C26EE47899F678A1E6F5139090077401A2
:10307000F0206C03023101A264E433FF903E18E0BB
:10308000B4B0047E0180027E00EE5F6020A25CE4AA
:1030900033FF7883E6FEB5070F7402A806088002A6
:1030A000C333D8FCF51C8037751C108032206115A5
:1030B000A262E4332401FFE433FE7883E6FDB50722
:1030C00011E4B5060D306305751C088012751C01EE
:1030D000800D7402A805088002C333D8FCF51C30AB
:1030E0006735205832205703305603305D297883E6
:1030F000E6FF7401A807088002C333D8FCF51C80E2
:10310000167883E67008903E08E0F51C8009751C6F
:1031100004789CE64404F6E51C7899666005AF1CCB
:1031200012502C7F0222C26DC269122C9DE4F5213F
:10313000E521C3789596501D122BEC12610CE52108
:10314000122C6CA807FC7D017B017E027F00120F10
:103150004F052180DB122D01122BEC12610C900126
:10316000FEE0B44A06A3E0644E60037F892290002B
:1031700000E090800AF030E00678A276408004E417
:1031800078A2F67898E6B4800790800AE04480F050
:10319000900002E078ACF6900004E0F510A3E0F5B2
:1031A00011900006E078ADF6900008E0F51290006E
:1031B0000A122BFF90000C789F122C9490000EE0C6
:1031C000F50EA3E0F50F900191E0909009F09001C9
:1031D0009FE0B4510AD2599080407401F08007C238
:1031E00059E4908040F0E4909002F0900192E070F9
:1031F00004A3E0601D900010E05470909005F090E2
:103200000192E0FEA3E0FF12478C9090057490F0CD
:10321000800A900010E04401909005F090900274B4
:1032200001F0900194E06003122CE1900011E0FFA6
:10323000125BF29001A7E078A3F6E670027604D262
:103240006D78007C317A0179007FF0122D12903177
:1032500003122C9290310FE078A2F612360B9031C7
:1032600021E0B45102D26912C0007F03228F217E77
:10327000027F007D00121CEB90040974F1F0903E77
:1032800068121CA4FF90040A120DEB90040E7498AF
:10329000F0A374E3F0A374F2F0903E6C121CA4FF50
:1032A000900411120DEB90041574F3F0903E70121F
:1032B0001CA4FF900416120DEB90041A74F4F09005
:1032C0003E78121CA4FF90041B120DEB9004207496
:1032D000F5F0903E7C121CA4FF900421120DEB909F
:1032E000042574F6F0121CA1FF900426120DEB9039
:1032F000042A74F7F0E4A3F0A304F0789AE65416D5
:1033000090042EF0A374F8F0A25FE433A3F0A3744A
:10331000F9F0900433121E6174FBF0A255E433A35C
:10332000F0A374FC121D97A25AE43390043FF0A25C
:1033300060E433A3F0A25CE433A3F0903E03E0909A
:103340000442F0A25EE433A3121D7790048074E17E
:10335000F090048504F0E478A4F679A4E7C378AC8F
:1033600096501778A4E6FF121D58E0FCA3E0FD126A
:103370001DDCECF0A3EDF00680E0789AE69005FF06
:10338000F0E5216006121C8E125EFEE4FF12271388
:10339000EF60127889120DF700000000306C031204
:1033A0001E4E7F03227F8922903E18E064C0600396
:1033B0007F8922205306121C8E12610C7B017A0435
:1033C0007900125988903E6C120DEB7B017A0479DA
:1033D00006125988903E78120DEB7B017A04790B26
:1033E000125988903E7C120DEB7B017A04790F1202
:1033F0005988903E70120DEB7B017A047940125986
:10340000888F0B8E0A8D098C08900445E0903E0E43
:10341000F0900446E0903E0FF0900444E064517058
:10342000499004FEE0644A7028A3E0644E7022FFD5
:1034300078ACE6FEEFC39E5014121DDCE0FCA3E066
:10344000FDEF121D58ECF0A3EDF00F80E3E4789C43
:10345000F6AF0BAE0AAD09AC08EC4D4E4F600BAFAA
:103460000BAE0AAD09AC08121E55903E6C121CA49E
:10347000FFEC4D4E4F6003D38001C3926290040471
:10348000E0B45103D38001C3925CA25CA062925C61
:10349000903E78121CA4FF903E70121D1D2FF50B5C
:1034A000EA3EF50AE93DF509E83CF5082060099097
:1034B0003E70121CA4121CF4903E68121CA4C3950A
:1034C0000BFFEE950AFEED9509FDEC9508FC121E2A
:1034D0005B7899E6FF12502C7F0322900011E05494
:1034E0003FF51F7520FF7521807899E66401600320
:1034F0000235B1903E1CE020E0030235B11261922A
:10350000EF604D900202E06047A3E09002021218C3
:10351000B5703D900202E02408F520E51FB43F0895
:10352000A3E024F8F521802812190964AA6010127A
:103530001909651F60091219A62520F52080E912D6
:10354000190964AA60071219A6F52180037520FFE6
:10355000E520B4FF097E007F8012181D804F900285
:1035600002E07E002400F9EE3402FA7B01C002C0C2
:10357000011219B5D001D0027F08120F4FAF217E82
:10358000007C0074002520F9EC3402FA7B01C002B3
:10359000C00178087C007D01D001D002120F4FE5F8
:1035A000212406900001F074082521F521AF218027
:1035B00056E4900000F0A37406F0E4A3F0789AE6D5
:1035C000FB54F960047F8080027F00900003EFF0DD
:1035D000A3120E1000000000EB7899565406600309
:1035E0001219C920560330570C7899E6B401069099
:1035F00000037480F0306C0D7899E65418600690E2
:1036000000037480F07F081256002290800AE03098
:10361000E105751702803F90800BE030E4057517D7
:1036200020803390800BE030E5057517508027909F
:10363000800BE030E305751748801B90800BE0306D
:10364000E60575177A800F90800BE030E705751757
:1036500080800375172E75180478A2E654C06003A5
:10366000122CD49031EEE030E348E47891F6A3E0F8
:1036700078B2F6E66018E478A4F678B2E6FB30E0BB
:1036800007122BB5E02FF006122CF6B408EC90319F
:10369000EDE078B2F6E6605378A4760878B2E6FBFF
:1036A00030E007122BB5E02FF006122CF6B410EC28
:1036B0008039E478A4F6E512C313FF78A4E6C39F2B
:1036C0005029AF177E00E6FBFD7C00120C0BEB12BD
:1036D0002BDDEEF0A3EFF078A4E6FFE5188FF0A461
:1036E000FEEF122BDDE02EF00680CB903195E070DE
:1036F0003F90800BE030E30578B276262290800B75
:10370000E030E40578B2760E2290800BE030E505DB
:1037100078B2762A2290800BE030E60578B27642C5
:103720002290800BE078B230E703764622761622AC
:10373000903195E078B2F6228F21903E0AE0FF703A
:103740000302385ED3944040047E408002AE07E41A
:10375000FFEFC39E5031903E0BE0FBA3E0FAA3E0E5
:10376000F9903E09E0FD7C00E92DF9EC3AFAEF29E9
:10377000F9EC3AFA120BC5FD74402FF582E4340ED1
:10378000F583EDF00F80CA7898E6FF20E606E52184
:1037900064026009EF30E615E521B40710900E567B
:1037A0007440F0E4A3F0900E5D74408014E521B401
:1037B0000613900E40740AF0A37406F0900E48743D
:1037C00001F0E4A3F0E521B40706900E417407F080
:1037D000E52164016005E521B4060FE4900E42F096
:1037E000A37402F0900E477440F0E5216401702B41
:1037F000900E4AE0B48006A3E06493600AD26C9015
:103800000E507403F08007C26CE4900E50F0206DEF
:103810000A900E4A7434F0A37412F0E52164026039
:1038200005E521B40708903E05E0900E48F0904170
:1038300003EEF0904102E020E1F9904102E05421D2
:103840006005E054FEF022904102E020E013903E3B
:103850000AE0C39EF0903E09E02EF002373A123F94
:10386000C2221261537899E664017027903E1CE0F1
:1038700030E020AE0C780B12188A12183C7014122B
:103880001895E50DAE0C7802C333CE33CED8F9F5DA
:103890000D8E0C12194212183C60037F84221250C4
:1038A0009B8F1FEF30E7012212182850037F8A22D6
:1038B000306C107899E6FF6401603DEF54186003A6
:1038C0007F8722789AE6600F54066008799AE77835
:1038D000995660037F8722903E18E064B0702EA254
:1038E0005C12192D8003121A47D8FBFF7899E67CE9
:1038F00000B50719ECB50615E50D150DAE0C7002F7
:10390000150C4E600512610C80EE7F0322903E0282
:10391000E0FF6011904107E030E611121997700541
:103920001219E78000904107E054BFF0903E02E09A
:103930004440F0125DE512C0068F1FE51F30E72DF1
:1039400030E01C904102E030E00312007E90410420
:10395000E020E1EF3054031218CA751F018003758F
:103960001F037889120DF700000000801312187AE7
:10397000120DDF751F89E50D450C70047884760102
:10398000AF1F228F218513227895E6F513E52130AC
:10399000E0037F8922122C6112C00FE4908014F0A2
:1039A000852123FE7F40FD122C8B120E679080052F
:1039B000E030E7F9E4908006F0908017E523F0907E
:1039C00080167480F0908016E0540A60F89080169B
:1039D000E030E12D90800BE030E1057521EE8007AD
:1039E000E4FF1242AB8F21908017E0FFC3E5239FD5
:1039F000FFC3132400F582E43410F583E521F08041
:103A0000BE908016E020E0F9904104E020E1F990BA
:103A1000800BE0900000F0908005E020E12D126125
:103A200025900001EEF0A3EFF0908030E0900007C9
:103A3000F0908031E0900008F0908032E090000932
:103A4000F0908033E090000AF08018900001740735
:103A5000F0A374FFF07E007F04FD7B017A007907FC
:103A6000120E67900003E508F0A3E509F090000549
:103A7000E50AF0A3E50BF090000B74AAF0780C7C3B
:103A800000122C897E007F40122BE9125EFE8522F7
:103A9000137F0322E4F51F7899E6B4010A903E1CD7
:103AA000E030E0037F8322900010E05408131313EA
:103AB000541F900400F0900011E0543F900402F075
:103AC000900012E0900403F0900013E0900404F0E2
:103AD000900014E0900405F07E027F0012181DE4AF
:103AE000900001F0789AE6FF54F960047E8080022D
:103AF0007E00900002EEF0E4A3F07899E6FE5F54B9
:103B00000660031219C9205603305707EEB40103AB
:103B10001219C9306C0A7899E6541860031219C951
:103B2000751F04306D0E741A121A3312C01E121A49
:103B30004E600122900402E0900004F0900402E044
:103B4000604924F8601224C9601824237030900062
:103B500005740AF0740C80209000057412F074143F
:103B600080169000047408F0A37412F0900018748A
:103B70001CF0A3740AF07420251FF51F800D90001F
:103B8000057401F0E4A3F0051F051FE51F14900064
:103B900000F0AF1F1256002212509B8F1FEF30E72C
:103BA00003023C877E007F207D007B017A04790040
:103BB000120E6790000FE0F520B42513900017E077
:103BC0005401F52178047C04121A1E7F04801190A0
:103BD000001DE05401F52178007C04121A1E7F0CB0
:103BE000120F4FE521701D900400121937FFEC4DA4
:103BF0004E4F700D900404121937FFEC4D4E4F607C
:103C0000037F84227899E664017033903E1CE0FFC4
:103C10005405FEBE010CEF4404F0903E1DE070021E
:103C200004F0305E19903E1CE030E012121A2912A6
:103C30001864900004120E1000000800802C78997F
:103C4000E6B410143062081218431219BC80041232
:103C50001851FF788D120DDFE520B4251112185F81
:103C6000900004120E10000002007F0880167E00F3
:103C70007F2012181D12185F900008120E1000000D
:103C800002007F20025600AF1F22124E6B903E01B1
:103C90007401F0904102E030E00312007E7880E68B
:103CA000B40118904104E030E011122FD27880EF77
:103CB000F6BF02071228AA7880A6077880E6FF647C
:103CC000036004EFB40405124EDD80C77880E6B4CB
:103CD000050B904101E020E4047603801D7880E626
:103CE000FFB40607904101E030E20BEFB4070B9000
:103CF0004101E020E404788076047880E6FF30E734
:103D000007123D787880A607306F09C26F9041078F
:103D1000E04401F07880E66401704D904107E030A6
:103D2000E646903E02E0FF603F903E03E0FEC3EFB8
:103D30009E903E02F06015E0541F7007903E01E037
:103D40006401F0904107E054BFF08014305A047FC2
:103D50000180027F00903E01EFF0306D0312C01E23
:103D6000903E01E0909001F0904107E020E40302D2
:103D70003C93125315023C93AD07904104E020E1BF
:103D8000F9ED247FB40F004003023E3D903D9A754B
:103D9000F003A4C58325F0C58373023DC7023DCD62
:103DA000023DD5023E0E023DDD023DE4023DEB0246
:103DB0003DF5023DFC023E07023E15023E3D023E3D
:103DC00020023E2A023E311218E47F05221219D049
:103DD0007626023E391219D07620023E391219D7C2
:103DE000763A8055121A5F7628804E789576077855
:103DF00096762780441219D7760480051219D77653
:103E0000FF789776FF80361219D07621802B121911
:103E1000D0762480241219D7760478977601801DF5
:103E20001218E4121A5F7629800F121A5F76298021
:103E3000087895760378967611E47897F67884E694
:103E4000FCB402071218E47D078017ECB40311904C
:103E50004101E04404F07881E64404F67D068002E6
:103E60007D04AF052209022000010100803209040F
:103E700000000208065000070501020002000705C5
:103E800082020002000C121E0422183A28621072EC
:103E90001C12010110000000408F058093010001F9
:103EA00002000104030904180341006C0063006F61
:103EB00000720020004D006900630072006F00284E
:103EC000034D006100730073002000530074006F05
:103ED0000072006100670065002000440065007604
:103EE00000690063006500100336003900390030B6
:103EF0000046003000310047656E657269632055E9
:103F0000534220466C617368204469736B202037EC
:103F10002E3736000000000000000000AAAAAAAA5E
:103F2000AAAAAAAAEEEEEEEEEEEEEEEEFEFFFFFF7E
:103F3000FFFFFFFFFFFFFFFF7FBFDFEFF7FBFDFC92
:103F40007EBFDFEFF7FBFD7E900E45E0900074F042
:103F5000900E46E0900075F0900E47E0900076F0ED
:103F6000229044007400F0A37400F02278407C0E8C
:103F70007D017B017A0E79007E007F08120F4F9041
:103F80004102E054FEF022F0904102E04441F02270
:103F9000903E0B74FFF0A3743EF0A37485F022E012
:103FA000FCA3E0FDA3E0FEA3E022851320903105F1
:103FB000E0F513903E06E0FEA3E0FFC394FFEE940D
:103FC0000722904102E04451F0227A047900903EA9
:103FD0000B7401F0A3227881E654EAF6904101E0E7
:103FE000442AF0E054EA22900E45E0900075F090EB
:103FF0000E46E0900076F022E493903E09F022A372
:10400000F0E4903E09F022E4904104F078807601DB
:1040100022904106F0E4904105F022D253900E44E4
:10402000E022903E207403F022909000E030E20302
:104030007F0022909012E030E0037F0022121A6687
:10404000EF7002FF2212156AE4F513E513C378AC92
:1040500096501DE513122B8E122ABB789FA60608D8
:10406000F6E61846600678A1A6138004051380DBE7
:1040700090900AE020E707909000E030E4119090E3
:1040800016E020E50AE030E20312C0247F0122900E
:104090009016E020E03378ACE62401FFE433FEEF35
:1040A00025E0FFEE33FE7DFF7B017A3E7980120E24
:1040B0006778ACE675F002A4FFAEF07DFF7B017A75
:1040C0003E79A2120E671259CD903120E064516002
:1040D0002E1257E17F02122225124A95909016E087
:1040E00054F7F07E087D007A347900122B367F0178
:1040F000122D1B909016E054CFF0E4903E5FF07FBD
:104100000122205306121C8E12610CC266C263C2C9
:1041100064C265C267C25AC25FC260C25EC261C287
:104120005DC258C250C270900403E0B45104D2641E
:10413000805A900404E0B45104D266804F90040584
:10414000E0B45104D2638044900406E0B45104D238
:10415000658039900407E064517031D267900400A3
:10416000E0B45102D25F90040EE0B45102D25E90EE
:10417000040FE0B45102D260900413E0B45104D2B1
:104180005D8009900414E0B45102D25890040BE011
:10419000B45102D25A900409E0B4510DE4903E02A9
:1041A000F090040AE0903E03F0305A047F01800250
:1041B0007F00909001EFF0900412E0B45106A267E6
:1041C00072639261900415E0B45102D250900416CB
:1041D000E0B45102D2707F0322122CA79000027427
:1041E00098F0A37401F078A7E6A3F008E6A3F0081E
:1041F000E6A3F008E6A3F0A3744AF0A374E3F0A3E7
:104200007402F090900AE090000BF0A26CE433A3EB
:10421000F07898E6A3F0900010744AF0A3E513F04C
:10422000A251E433A3F0908007E0900013F0909047
:104230000EE0900014F0900020744FF09000307465
:1042400048F0900040744EF090800BE0900100F038
:10425000909013E0900101F0A3E519F0908009E03F
:10426000900103F0908011E0900104F0909012E032
:10427000900105F0908040E0900106F09090287445
:1042800001F0E4F000909029E0900110F090902A65
:10429000E0900111F090902BE0900112F090902CA2
:1042A000E0900113F0125EFE7F0322E519601F907B
:1042B000800BE030E1037FEE22908010E0FD9080E3
:1042C0000F7401F090800FE030E0F9AF0522E49028
:1042D000800CF090800BE030E1037FEE2290800DA7
:1042E000E0F528908010E0D378B39640037FEE226B
:1042F000908006E0543025E0FDE4FCECC3952850A6
:104300007090800CE0F9908020E0FE908021E0FB2E
:10431000EEF526EBF52794FFE52694034015E527F7
:104320009404E5269404500B74302527F582E43478
:10433000808036C3E5279404E52694045033ED606D
:1043400016C3E52694024004ED20E622C3E5269438
:10435000025004ED20E517908013E0FEE42527F5D8
:1043600027EE3526F526852782F583E069F00C8057
:104370008A908010E0FF2278AEE66F70030244302E
:1043800078AEA60712C027EF4E7008909010740404
:10439000F080FE90800AE054EEF0E4909002F090FD
:1043A00090057431F09090027401F09080147410B4
:1043B000F0908022F09080237405F090801714F024
:1043C00090801674C0F0908016E020E0F9E49080B0
:1043D00023F090800AE0FF903013E05410FEEF4E7F
:1043E00090800AF078A2E654C06004E04401F0E452
:1043F000909002F0903192E07004A3E0601D903044
:104400000CE05470909005F0903192E0FEA3E0FF34
:1044100012478C9090057490F0800A90300CE04424
:1044200001909005F09090027401F0E4908023F0E8
:1044300022901000E0649960030244E5A3E0640761
:1044400060030244E5901003E0FF901002E02F2487
:1044500032FFE4FEFDEDC39F501074002DF582E4A1
:104460003410F583E02EFE0D80EB74002FF582E40E
:104470003410F583E06E706DD26B306B2390107D3D
:10448000E0F4FF90107CE0B50716E0D394FA400802
:10449000903E0574FAF0800890107CE0903E05F0A4
:1044A00090107EE0643C703DA3E064C370379010D0
:1044B00081E06403702FFEFD901080E0FFEDC39F4C
:1044C000501074802DF582E43410F583E02EFE0D3B
:1044D00080E6901080E02480F582E43410F583E0DB
:1044E000B50602D26A228F21121D4D121E245014CD
:1044F000851322121DC5AD217C007B1212C00F85D1
:1045000022138003121CE5903E19E0900400F09005
:104510003E1BE0900401F0903E18E0900402F09001
:104520003E1AE0FB900403F0A374C0F0A25BE433F6
:1045300025E0FE789AE6FD54012E900408F09004E0
:104540007EEDF0E65406FFBF0604E04440F0E521AE
:10455000B4020A903E18E0900480F0800AE521B48D
:104560000305900480EBF0205F0E909000E030E3B4
:1045700007E4900481F080069004817401F09004B7
:104580008274E3F0A37402F0205306121C8E125EB4
:10459000FE7F0322903E057432F0E4789AF60876A6
:1045A000FF08F6903E087480F0C251C26CC26BC224
:1045B0006AC264C267C262C255C266C263C265C2D1
:1045C0006178B37648C25AC25FC260C250C270C23C
:1045D00058C25EC25DC25C903E68120E10000000C0
:1045E00000903E6C120E1000000000903E70120E03
:1045F0001000000000903E74120E100000000090A9
:104600003E78120E1000000000903E7C120E10004A
:10461000000000903E037410F0E4789AF6903E1883
:1046200074C0F0903E1AF0E4903E19F0903E1BF0FA
:104630001255AB126069903E5FF09090167438F09E
:1046400022900010E05402F51FE47F01FEFDFC788B
:104650008912183C70037F8422900011E020E1074A
:10466000900018E030E74A126192EF603B90020040
:10467000E06035A3E09002001218B5702B900201A3
:10468000E0FF7E00900200E07C002400F9EC3402A0
:10469000FA7B01C002C0011219B5D001D002120F7D
:1046A0004F900201E0FF80327F3012181B7F308074
:1046B000291218199000027401F0A3F090000574FB
:1046C00014F0A37401F0E51F25E025E0240A900012
:1046D00001F090000AE51FF07F141256007889124D
:1046E0000DF7000000007F03222065037F822290E7
:1046F0000013E0641060037F84227A047900121CA6
:1047000096E4904104F0904104E030E0F97884763A
:1047100001789AE630E0037F8722E4F520121DEC51
:10472000E070270520E520B410F3121D4D7B147DA9
:10473000077C0012C00F901080E0B4AA0AA3E0B476
:104740005505121CE580357F032290048074AAF081
:10475000A37455F0900400E0F521E4F520121DEC5F
:10476000C083C082E0FFE520FDE521121E42EF6E0E
:10477000D082D083F00520E520B410E17F07122716
:1047800013EF6005C25B7F03227F89228E228F2375
:10479000E4FD79FFFCEC6402700302482C90900366
:1047A000EDF0909004E9F090900B7401F090900B74
:1047B000E030E0F990900CE0FE90900DE0FBEEF51B
:1047C00024EBF52590900CE0B52306E4B522027C9D
:1047D00002EC1460250470BDC3E5259523E52495FE
:1047E00022500DE970047C0180ABE9C313F980A568
:1047F000ED25E04401FD7C01809BD3E5259523E573
:10480000249522400FBDFF047C028089ED25E04401
:1048100001FD80817C02E52565237004E524652285
:104820007003024795EDC313FD02479522206503EF
:104830007F8222900013E0641060037F84227A025A
:1048400079007E027F009044007402F0A37400F0AF
:1048500012610C78847601305B037F8722121D4D34
:10486000121E245061851320121DC57B107D077C0C
:104870000012C00F852013900200E0FFE4F520E550
:1048800020FDEF121E4274002520121E32E06EFE43
:1048900074002520F582E43400F583E06E6011D2C7
:1048A0005B121E7C74A5F0903E11745AF07F872233
:1048B0000520E520B410C8E4903E10F0903E11F0C1
:1048C000789AE654FEF67F0322909016E04438F082
:1048D00078ACE62401FFE433FEEF25E0FFEE33FE83
:1048E0007DFF7B017A3E7980120E6778ACE675F029
:1048F00002A4FFAEF07DFF7B017A3E79A2120E6723
:10490000903E5F74FFF0E4F513E513C378AC965066
:104910001EE513121D58E0FEA3E0789FA60608F6D8
:10492000E61846600678A1A6138004051380DA1203
:1049300059CD1257E17F02122225909016E054F7CC
:10494000F0124A957E087F007D007B017A34790061
:10495000120E677F01122D1B909016E054CFF0E4E9
:10496000903E5FF02278A1E6F522E522D378AC965E
:10497000503E122A7EE0F520A3E0F521C394FFE526
:104980002094075027E521AE207803CEC313CE1321
:10499000D8F9122B1F3EF583C083C082E0FFE521CA
:1049A000122B26F4FEEF5ED082D083F0052280BA6F
:1049B00078A1E6F52278ACE6FFE522D39F5040E5EA
:1049C00022B50727905DFDE07895F6909006E0FF10
:1049D000C313905DFDF012565578ACE6122A80EEB6
:1049E000F0A3EFF07895E6905DFDF0122A7EE0FCF2
:1049F000A3E0FDE522122B3F125554052280B6227A
:104A00008F2490801AE0F930E4155301EF9080076D
:104A1000E0FCE4F090801AF0908007ECF08005E470
:104A200090801AF0908005E030E7F9122CCD90804C
:104A300005E030E7F99080007490F0908001EDF08F
:104A4000000000000000000000000000E4FC908076
:104A5000047401F0908002E0FDE524FEEC7A00246D
:104A600000FFEA3E8F82F583EDF090800AE030E0AF
:104A70001A908003E0FDE524FEEC2400FFEA3EFEF0
:104A800074082FF582E43EF583EDF00CBC06BF9070
:104A9000801AE9F02278A1E6F52178ACE6FFE5215D
:104AA000D39F4003024B27E521122A80E0FCA3E0BC
:104AB000F47002ECF4706BE521C39F500BE52112FA
:104AC0002B8E122ABB4E605A122B3D125E188E227C
:104AD0008F23C3E52394FFE522940740191256550E
:104AE0008E228F23122B3DAD23AC22125554122B54
:104AF00077122AF68020E52178A1667019FDAF2390
:104B0000AE2212C018AD127C00120C1D122B77F5CC
:104B100083EEF0A3EFF0E521122A80E522F0A3E571
:104B200023F00521024A9A227898E630E6047F00B5
:104B300080027F80904104EFF08513217895E6F59F
:104B4000137BA0122C6312C00FE4908014F0740247
:104B5000122D08122C2485F022F523E5188DF0A4DF
:104B600025182522F522908016E020E0F97898E6B5
:104B700030E6047F0080027F80904104EFF0904196
:104B800004E030E0F9908040E054FEF07485122C8F
:104B9000EEE523F0E522F09080067484F090800525
:104BA000E030E0F99080007410F0122CBFE49080A7
:104BB00014F08521137F0322206A037F03222053F0
:104BC00006121C8E12610C851321121D477B117D6C
:104BD000017C0012C00F852113E4F521E52125E0B9
:104BE000FFE433FE74822FF58274023EF583E0FF0A
:104BF00074002521121E32EFF00521E521B408DCF6
:104C0000E4FFF521E52154072400121E32E0FE7472
:104C1000002521121DF0E06E2FFF0521E521B44093
:104C2000E3EF7021900440E0789A30E40DE6441000
:104C3000F6909016E054FDF0800BE654EFF690905D
:104C400016E04402F07F03228F21E521B40209908F
:104C50003E19E0D39402500EE521B4030C903E1BA4
:104C6000E0D3940240037F8922205306121C8E1247
:104C7000610C851322121D47AD217C007B1112C0EF
:104C80000F852213125176E52164027024BFB00F04
:104C9000903E18E0B4B008903E19E004F08005E4BE
:104CA000903E19F0903E18EFF0306C26121E4E80A8
:104CB00021E521B4031CBFB00F903E1AE0B4B00848
:104CC000903E1BE004F08005E4903E1BF0903E1AFD
:104CD000EFF07F0322C299ED30E61275990D3099FD
:104CE000FDC29975990A3099FDC29980087599207D
:104CF0003099FDC299ED30E01BEF75F00A84243045
:104D0000F5993099FDC299EF75F00A84E5F02430E9
:104D1000F5998032EF54F0C4540FFED39409400645
:104D200074372EFE800474302EFE8E99EF540FFEE1
:104D3000D39409400674372EFE800474302EFE3062
:104D400099FDC2998E993099FDC299ED30E71075A1
:104D5000990D3099FDC29975990A3099FDC2992231
:104D6000E4903E21F0A3F0903E21E0FCA3E0FDC3DF
:104D7000EC9402505D904102E05421600BE054FE3F
:104D8000F0903E207404805C904102E030E0079097
:104D90003E207402804E74002DF974043CFA7B01AD
:104DA000C002C00178407C0E7D01D001D0027E009F
:104DB0007F40120F4F9041037440F0904102E02079
:104DC000E1F9903E22E02440F0903E21E03400F0F2
:104DD0008095123FC2E4903E20F0125E4AEF7008C8
:104DE000903E2004F07F00227F012212509B8F1FF3
:104DF000EF20E7747899E6B4101430620812184373
:104E00001219BC8004121851FF788D120DDF121890
:104E1000199000037410F09000087402F090000ADA
:104E2000F0900012F07899E664017021305E1E90D7
:104E30003E1CE030E0179000037408F090000AF088
:104E4000121A29900004120DEB7F0C8018788D1235
:104E50000DC6900004120DEB788D120DC690000C5B
:104E6000120DEB7F14025600AF1F22E4904104F0B4
:104E7000904200E05403700C904107E030E4F112DE
:104E8000531580EC904200E0789830E00476408042
:104E900009768090800AE04480F0E47881F6903EC4
:104EA00004F090900AE020E72F909000E020E428A2
:104EB000904104E0FF904102E04F20E00C90410758
:104EC000E030E4EC12531580E71260F1E4909010AA
:104ED000F0909016E04401F07880760122908016E0
:104EE000E020E0F9904104E020E1F97A0079007EC9
:104EF000007F00123F61900000120E105553425384
:104F00007B007A007985125988900004120DEB7BA2
:104F1000007A007989125988900008120DEB788088
:104F2000E6B403047F0080027F0190000CEFF07470
:104F30000D124011904104E030E10C904102E0304C
:104F4000E0F212007E80ED123F61124007228513CD
:104F5000217895E6F513122C6112C00FE4908014AD
:104F6000F0908005E030E7F9E4908006122C24856B
:104F7000F022F523E5188DF0A425182522F52290BE
:104F80008005E030E0F9125EFE125EFE908040E0A7
:104F900054FEF07405122CEEE523F0E522F090802B
:104FA0000074E0F09080067404F0908005E030E03A
:104FB000F9122CBF125EFE8521137F03221261536A
:104FC000121D08FBC3120D8F50037F8A22903E7C76
:104FD000121CA4121DF8400A903E1AE0B4B0037FE0
:104FE0008922121CA1121E173508FC903E70121D5A
:104FF0001D121DCC206009903E70121CA4121CF4DE
:1050000012C006AB07EB30E7137889120DF70000EA
:105010000000EB30E0037F01227F0322121CAFE58A
:105020000D450C7004788476017F89227899A60753
:10503000EF14604614601524FE601E24FC604424B6
:10504000F8604024907053903E6880313062059043
:105050003E6C8003903E748024903E6CE0F8A3E0A8
:10506000F9A3E0FAA3E0FB903E74123F9FC39BFFBD
:10507000EE9AFEED99FDEC98801A903E70123F9FDB
:10508000FF8012903E70123F9FFF2FFFEE33FEED28
:1050900033FDEC33FC788D120DDF22307021903E11
:1050A00018E0B4B01A12192A8003121A47D8FBFF6D
:1050B0007899E67C00B50707ECB506037F85227872
:1050C00099E6FF789BE6FE5F6005EFF45E8033793A
:1050D0009CE778995660037F8522205F2990900095
:1050E000E030E310789AE620E71C4480F6789BE6EF
:1050F00044F6800E789AE630E70C547FF6789BE60B
:1051000044F6F67F86227F0022900010E0F520A36F
:10511000E0FF1313543FF521E05403F508A3E0F535
:1051200009A3E0F50BA3E0F50AE5206409702BE57F
:105130000B6407450A6039121D4D121E2450148558
:105140001321121DC57B10AD0BAC0A12C00F8521B7
:1051500013801D7DFF121DB180168513208521133C
:105160007B10AD0BAC0AAF09AE0812C00F8520133F
:10517000125EFE7F0322900280E0B4FF08A3E0B439
:10518000FF037FC022900480E0F9A3E0FF9002803B
:10519000E0FEA3E0FDEF6D7040FDEDC39F503D7458
:1051A000822DF582E43404F583E0FC74822DF582CF
:1051B000E43402F583E0FB121E728002C333D8FC94
:1051C000596204121E728002C333D8FC5E6203EC83
:1051D0006B60037FB0220D80C17FB0227FA022AD23
:1051E00007125E4AEF7006903E2004805190410203
:1051F000E030E506E054FEF080E7904103E0540F14
:10520000FFBF0807904102E020E711123F7F904165
:1052100001E04401F0903E2074028022900E03E0F1
:10522000B40316900E02E0B5050F900E01E0B4062F
:1052300008900E00E064806009903E207402F07FC8
:105240000022123F6C7F012212509BEF7060789910
:10525000E664017056903E1CE0FE54036401704BFE
:10526000EE30E223903E1DE0FEB401067402F07FB2
:105270008522EE64027034903E1D7403F0903E1C53
:10528000E04402F07F862230600A903E1CE0440237
:10529000F07F0322903E1DE004F0E0D39406400B23
:1052A000E4F0789BE64401F67F85227F0322228F7B
:1052B0001AEF75F004A42436F9743F35F0FA7B0137
:1052C000C002C00178E27C3E7D01D001D0027E00A8
:1052D0007F04120F4F851A1BE51B602B75F004A489
:1052E000FFAEF02432F9743F3EFA7B01C001743600
:1052F0002FF9743F3EA801FC7D01D0017E007F04A0
:10530000120F4F151B80D178367C3F7A3E79E27FB1
:1053100004122ACB229090017401F090801CE0547A
:105320000FFFBF0FF6306D0312C01EE4908007F030
:10533000904107E04420F000000000000000306DC4
:105340000312C01E904107E054DFF0904200E05489
:105350000360F8904200E030E0117898E6B48005F0
:10536000E4904100F078987640800478987680E464
:10537000909001F09080077440F0228D20E4FEF5BB
:1053800021908014E0F522E4F523EF30E00343237D
:1053900010EF5401FDC3EF9DFF908005E030E7F969
:1053A000AA07EAC39520502CEA122B6BE523F09054
:1053B0008005E030E0F990800BE05403600FE4FFDB
:1053C0001242ABAE07EED3952140028E21E4F523C5
:1053D0000A0A80CE908014E522F0AF212212615398
:1053E000121D08FBC3120D8F50037F8A22903E7C52
:1053F000121CA4121DF8400A903E1AE0B4B0037FBC
:105400008922121CA1121E17903E70121D1A121D25
:10541000CC206009903E70121CA4121CF412C00330
:10542000AB07EB30E7137889120DF700000000EBB3
:1054300030E0037F01227F0322121CAF7F8922907C
:105440008007E0F52190800AE0F522125E79122CA7
:10545000A790800A7401F0E4F523E523122CB678B6
:1054600095E6FD7F2E124A00E52375F010A4240076
:10547000F9740035F0A801FC7A2E79007F10122C07
:105480000A0523E523C3940840D0908007E521F066
:1054900090800AE522F0125EFE7F03227895E6F501
:1054A0001312C01578107C5D7A3E79E67F70122C5D
:1054B0000A78807C5D7A3F798C7F38122D12E478EF
:1054C00095F67895E6FFC39407502BEF7F0025E013
:1054D000FEEF2400F974503EFA7B01C002C001784F
:1054E000007C007D01D001D0027E02122BE9125E09
:1054F000FE78950680CC7F03227895E6FEC378ACD3
:105500009640037F0322903E02E0FF602490410713
:10551000E030E624903E03E0FDC3EF9D903E02F0B4
:10552000541F700D903E01E06401F0909001F080F6
:1055300000904107E054BFF0903E02E04440F08507
:1055400013218E1312C00C852113BF81047F0180AB
:10555000027F03228C268D2774002FF58274503E23
:10556000F583E527F0EF30E010E526540FC454F042
:10557000122A9C540F4DF0800BE526540F122A9CE2
:1055800054F04DF0E527AE267803CEC313CE13D8E2
:10559000F9122B1F3EF583C083C082E0FFE527127E
:1055A0002B26FEEF4ED082D083F022E490800AF0CA
:1055B0007C02126074908005E030E7F990800074FE
:1055C000FFF0908005E030E7F99080007490F0E4FF
:1055D000A3F0FE9080047401F0908002E09000003F
:1055E000F0E0B4FF1A0EBE06EAEC5407FEC454F015
:1055F0004E90900EF00CECC3940940B67411F0225A
:105600008F22E47F01FEFDFC788912183C70037F35
:105610008422AF22E4FCFDFE121A3E402590410692
:10562000E5221219DE3056028021120DC6C007AFE6
:1056300022AB07D007C3EF9BFFEE940012197A7FCD
:105640008122788CE69041061219DE120DF70000D7
:1056500000007F0322E4F9905DFDE0FC905DFEE038
:10566000FDAF0474002CF582E4345CF583E0F5248E
:10567000F46028EDC394085022ED9057A993552467
:105680007016ED04905DFEF0905DFDECF075F00895
:10569000A4FFAEF0EF4DFF220D80D8E4FD0CEC70BE
:1056A000C009B902BC122B8322E513C31354FEF5C3
:1056B00024851325903102E0F513903100E064A0B9
:1056C000601378A5E6FE08E6FFE5122524FDE43325
:1056D000FC7B04801E75F002E524A42410F582E50D
:1056E000F03431F583E0FCA3E0FD78A5E6FE08E6A2
:1056F000FF7B0412C00F85251322E4903E00F0903A
:105700003E04F07895F608F608F6D26EC26FC254E1
:10571000C253C252903E20F0A3F0A3F0C256C2572B
:10572000903E10E0B4A50FA3E0B45A0A789AE6447C
:1057300001F6D25B8002C25BE4903E02F0903E1C18
:10574000F0A3F07880760122EF0475F004A414240D
:1057500036F582F58475833F75853FE0F5F0158257
:10576000E0FC1582E0FD1582E0FF1582E00586F081
:10577000158615821584E582B436F1E00586F015AC
:1057800084E5F0F01584ECF01584EDF01584EFF06D
:10579000158622E4FF220002040610121416181ABD
:1057A0001C1E305052543436380102040810204078
:1057B000804080102004080102003FC0FF007FBF2E
:1057C000C000403F2F0000FFFFC00080807F7F7F30
:1057D000FF0001020406081000800600FFAABBCCEF
:1057E000EE7E0C7DFF7A507900122B367F327A3FA5
:1057F0007956122AC27F187A3E7947122B98125690
:10580000A9E5135403F509AF09EF7F00FEEF24006B
:10581000F974103EFA7B01C002C00178007C5C7D07
:1058200001D001D0027E01120F4F228F21E52130DD
:10583000E0037F89228513227895E6F5137898E6B0
:1058400030E6047F0080027F80904104EFF07BA06F
:10585000122C6312C00FE4908014F0E521122D0881
:10586000F0908016E020E0F99080007410F085221E
:10587000137F0322EF75F00C84FEEF75F00C84AFFC
:10588000F0EE9057D193F509EEC39407500FEF90C7
:1058900057B993F50BEF9057C593F50A22EF5401D2
:1058A000FEF404F50BEFC313FD7404A80508800291
:1058B000C333D8FCC39EF50A22126153900015E051
:1058C000FF12502C121D64121E0550037F8A2212F3
:1058D0005DE512C006AB07EB30E7137889120DF7D0
:1058E00000000000EB30E0037F01227F0322121C46
:1058F000AFE50D450C7004788476017F8922126132
:1059000092EF6032900300E0602CA3E0900300125D
:1059100019881218C3701F900301E0900300121938
:1059200054C002C0011219B5D001D002120F4F901D
:105930000301E0FF80097E007F2212181D7F2212E2
:10594000560022126192EF6032900302E0602CA3B5
:10595000E09003021219881218C3701F900303E02D
:10596000900302121954C002C0011219B5D001D01F
:1059700002120F4F900303E0FF80097E007F241284
:10598000181D7F2412560022EB700CE7FF09E7FE7A
:1059900009E7FD09E7FC2214701089828A83E0FF81
:1059A000A3E0FEA3E0FDA3E0FC22BBFE0CE3FF09A5
:1059B000E3FE09E3FD09E3FC2289828A83E493FF85
:1059C000740193FE740293FD740393FC227F207A8A
:1059D0003F7936122A757F507A3E79E6122A757F12
:1059E000387A3F798C122AC2E4F514E514122B4858
:1059F000E514F0122A49122AEFE514122A49122B53
:105A000017122AF60514E514B408E022EF122AD47E
:105A100074FFF0A3F0EF122A8E74FFF0122A4812DE
:105A20002B17F583E4122A4524E8F582E4343E126C
:105A30002A4124EAF582E4343E122A4124ECF5821C
:105A4000E4343E122A41122AEF22900075E06003EE
:105A5000D38001C3926C900076E0903E08F0E0B4F1
:105A600020037402F0903E08E0B440037404F02078
:105A70005313A26CE433900000F0903E08E09000D5
:105A800001F0125EFE7F03228F21E521B402051290
:105A90001E6B600CE521B4030A903E1AE0B4B0031B
:105AA0007F8922121E3AE521F0125F25BF0315E51A
:105AB00021B40205903E188008E521B40306903E0B
:105AC0001A74A0F0228F21E521B40205121E6B602A
:105AD0000CE521B4030A903E1AE0B4B0037F89229A
