:020000020000FC
:10000000023CAE0206D10206EA02071702072902E5
:10001000077E02080902089B0208AC0208BF02081A
:10002000D20208DE0208EB0208F702090302091CEB
:1000300002094D020973020A5B020000020000027D
:100040004D5F020A81023C15024A160232CA024280
:10005000957F0322023D3A02490D02293B024BBB28
:10006000024300904102E030E505E054FEF02290AA
:100070004103E0540FFFBF0807904102E020E7066C
:100080001234AF0206C912349C900E41E024026083
:100090005214603114B40B0040030206C99000A44E
:1000A000F828287302010C02018F0206C90202140B
:1000B0000206C90202F00203100206C9020670021B
:1000C000067A0206B4900E40E064217013900E444C
:1000D000E0700D1235061234B71234911235262213
:1000E0000206C9900E40E064A1701E306504F00263
:1000F00006C2A261E433FFA25AE4332FFFA25BE4FD
:10010000332F900E40F00206C20206C9900E40E066
:10011000247F601014601E2402706A903000E0900A
:100120000E408058900E44E07008900E40F0A3F00E
:1001300080560206C9900E44E014601E24816008B7
:1001400024FE60282482703A7882E630E0047F0141
:1001500080027F00900E40EF80227882E630E20439
:100160007F0180027F00900E40EF80107882E630A1
:10017000E4047F0180027F00900E40EFF0E4A3F0E2
:1001800080060206C90206C99041037402F022905B
:100190000E40E07019900E42E0B4010F903000E084
:1001A00054FDF0904107E054FBF0220206C9900E86
:1001B00040E06402705B900E42E07052900E44E0AA
:1001C0001460202481600824FE602C2482703C7816
:1001D00082E654FEF6904101E04402F0E054FEF065
:1001E0000202EC7882E654FBF6904101E04408F00C
:1001F000E054FBF00202EC7882E654EFF690410105
:10020000E04420F0E054EFF00202EC0206C90206DE
:10021000C90206C9900E40E0600302029C900E42A3
:10022000E064027074900E44E0706EA3E0606AE0D7
:10023000C3940550611234B8904102E0544170F803
:10024000900E45E024FE601214601714601C240315
:1002500070429042017483F0803A9042017485F0BC
:1002600080329042017407F0802A78007C007D0182
:100270007BFF7A3279957E007F35120A5B904104CC
:10028000E020E1F912349174351235309042017456
:1002900009F080E980FE0206C90206C9900E40E01E
:1002A00064027045900E42E0703C900E44E0146091
:1002B000142481600824FE601B248270267882E664
:1002C0004401F680277882E64404F6904101E04438
:1002D00004F080187882E64410F6904101E0441062
:1002E000F080090206C90206C90206C91234B82202
:1002F0001234B8904102E0544170F8900E42E09000
:100300004100F0904107E054FDF0E4903004F02209
:10031000900E43E024FE606B14700302039B24FDE7
:10032000600A14605E24066003020640305E1A1202
:1003300034CF5010E4FB7D01FC12C00FEF4E70066D
:10034000C25E8002C25E852111305E117A007900A2
:100350001234F31234949030097404800B1234C0B8
:10036000903207E493903009F090300A7412F090C4
:100370000E43E06406600302064390300A740AF0FC
:1003800002064390300B74FFF0A37431F074E7124F
:10039000351E90300A7420F0020643305E1B123482
:1003A000CF50117B027D017C0012C00FEF4E700612
:1003B000C25E8002C25E852111305E0C1234EF7481
:1003C00004F0A37400F080031234C0900E42E012D7
:1003D000094D03F10003FF0104180204350304640E
:1003E0000404928004E782053E83062A8600000604
:1003F0003D1234C090320912351790320A805C30B9
:100400005E0B9030097416F0900402803D90320B20
:1004100012351790320C8043305E0F900402E024B6
:1004200016903009F0900403802090320D12351799
:1004300090320E8026305D1A7A0479801234F3747B
:1004400004F0748012351E900480E090300AF002AF
:10045000064390320F123517903210E49390300A11
:10046000F00206439004007404F0A314F0903143AA
:10047000E0900402F0903142E0900403F01234EF77
:100480007404F0A3740012351F90300A7404F00253
:10049000064312353A248E601424FD601724DB6075
:1004A0001A24187020123478124B0A80117F02121D
:1004B0004EC4800A7F021238CA8003121FE59031B1
:1004C000C6EFF0800C123DC5C2639031C67403F0D4
:1004D00022C2639031C6E0B40303023DC5123DC59C
:1004E0009031C67405F02212353A248D602024DD47
:1004F000603224FB602024A3603B24FE602E24771E
:1005000060030205FC123478124C980205F57F0254
:10051000124A900205F5900E45E0900401F0124752
:10052000610205F5E4FF1228000205F51234781285
:1005300049D80205F5123478124E020205F512343C
:10054000E7E49031C7F0A3F0C39031C7E0940250C4
:10055000447F841243D4EF603C900E45E0FF90311D
:10056000C7E0FCA3E0FD2400F58274043CF583EFB2
:10057000F0900E44E0FF74012DF58274043CF58385
:10058000EFF0124EE29031C8E02402F09031C7E063
:100590003400F080B3C39031C7E0940250030206E8
:1005A000D07F851243D4EF70030206D0123DC5EF11
:1005B00070030206D07F811243D4EF70030206D08D
:1005C00012353A248F601824FD601B24DB601E2442
:1005D000A4601F2474702512347812499680167F07
:1005E00002124A53800F7F02123A2380081226BD5E
:1005F00080031233AC9031C6EFF080089031C6749E
:1006000003F080129031C6E0B403047F0080027FC3
:10061000059031C6EFF0C2631234E7124D30EF603F
:10062000030206D09031C604F0229031C6E0900E4D
:1006300040F0E49031C6F090410304F0220206C974
:100640000206C9900E47E07015900E46E0FF90300C
:100650000AE0D39F4008900E46E090300AF09030B8
:100660000AE070041234E722900E43E0FF022CD31C
:10067000903004E0900E40F08048123506F0900E65
:1006800042E0B401159030047401F0904107E04459
:10069000021234B7E4909001F022900E42E0701202
:1006A000903004F0904107E054FD1234B79090016F
:1006B00080138015900E44E07006900E40F080028A
:1006C00080079041037401F022904101E04401F061
:1006D00022BB010689828A83E0225002E722BBFE08
:1006E00002E32289828A83E49322BB010CE58229FA
:1006F000F582E5833AF583E0225006E92582F8E6A3
:1007000022BBFE06E92582F8E222E58229F582E590
:10071000833AF583E49322EF8DF0A4A8F0CF8CF018
:10072000A428CE8DF0A42EFE22BC000BBE0029EF23
:100730008DF084FFADF022E4CCF875F008EF2FFFC8
:10074000EE33FEEC33FCEE9DEC984005FCEE9DFE96
:100750000FD5F0E9E4CEFD22EDF8F5F0EE8420D2DD
:100760001CFEADF075F008EF2FFFED33FD4007984C
:100770005006D5F0F222C398FD0FD5F0EA22E88F9B
:10078000F0A4CC8BF0A42CFCE98EF0A42CFC8AF015
:10079000EDA42CFCEA8EF0A4CDA8F08BF0A42DCC17
:1007A0003825F0FDE98FF0A42CCD35F0FCEB8EF070
:1007B000A4FEA9F0EB8FF0A4CFC5F02ECD39FEE456
:1007C0003CFCEAA42DCE35F0FDE43CFC2275F0089B
:1007D000758200EF2FFFEE33FECD33CDCC33CCC589
:1007E0008233C5829BED9AEC99E58298400CF582A4
:1007F000EE9BFEED9AFDEC99FC0FD5F0D6E4CEFB16
:10080000E4CDFAE4CCF9A88222B800C1B90059BA03
:10081000002DEC8BF084CFCECDFCE5F0CBF9781831
:10082000EF2FFFEE33FEED33FDEC33FCEB33FB102B
:10083000D703994004EB99FB0FD8E5E4F9FA227845
:1008400018EF2FFFEE33FEED33FDEC33FCC933C957
:1008500010D7059BE99A4007EC9BFCE99AF90FD861
:10086000E0E4C9FAE4CCFB2275F010EF2FFFEE3381
:10087000FEED33FDCC33CCC833C810D7079BEC9AC0
:10088000E899400AED9BFDEC9AFCE899F80FD5F049
:10089000DAE4CDFBE4CCFAE4C8F922EB9FF5F0EA08
:1008A0009E42F0E99D42F0E89C45F022E8600FECA2
:1008B000C313FCED13FDEE13FEEF13FFD8F122E896
:1008C000600FEFC333FFEE33FEED33FDEC33FCD8A6
:1008D000F122E6FC08E6FD08E6FE08E6FF22E6FB5C
:1008E00008E6F908E6FA08E6CBF822ECF608EDF699
:1008F00008EEF608EFF622ECF0A3EDF0A3EEF0A37D
:10090000EFF022D083D082E493F608740193F608C6
:10091000740293F608740393F6740473A8828583B3
:10092000F0D083D08212093312093312093312092D
:1009300033E473E493A3C583C5F0C583C8C582C8F7
:10094000F0A3C583C5F0C583C8C582C822D083D0B3
:1009500082F8E4937012740193700DA3A393F8745A
:100960000193F5828883E4737402936860EFA3A314
:10097000A380DFEF4E6012EF60010EEDBB010B892B
:10098000828A83F0A3DFFCDEFA2289F05007F709A0
:10099000DFFCA9F022BBFEFCF309DFFCA9F022E793
:1009A00009F608DFFA8046E709F208DFFA803E8898
:1009B000828C83E709F0A3DFFA8032E309F608DFCF
:1009C000FA806EE309F208DFFA806688828C83E39E
:1009D00009F0A3DFFA805A89828A83E0A3F608DF50
:1009E000FA804E89828A83E0A3F208DFFA8042808F
:1009F000D280FA80C680D4805580F2802980108011
:100A0000A680EA809A80A880DA80E280CA8029885D
:100A1000848C8589828A83E493A30586F0A3058666
:100A2000DFF5DEF3800B89828A83E493A3F608DF87
:100A3000F9ECFAA9F0EDFB2288848C8589828A83FF
:100A4000E0A30586F0A30586DFF6DEF480E3898265
:100A50008A83E493A3F208DFF980D688F0EF60017F
:100A60000E4E60CD88F0ED2402B4040050C3F58230
:100A7000EB2402B4040050B923234582239009EFEC
:100A8000737E057F007A34790012389A7E007F8069
:100A90007D007B017A397980120973E5115403F5E1
:100AA00015E5111313543FF514788DA611903302F8
:100AB000E0F511903300E064A06023E51078A4B461
:100AC000010CE6FE08E6FFAD14ED2404800AE6FE04
:100AD00008E6FFAD14E5102DFDE433FC801DAF14D6
:100AE00075F002EFA42410F582E5F03433F583E0CD
:100AF000FCA3E0FD78A4E6FE08E6FF7B0412C00F2D
:100B0000788DE6F511AF15EF75F080A42400F97427
:100B10001035F0FA7B01C002C00178007C397D01FC
:100B2000D001D0027E007F80120A5BE4F5121238F9
:100B30003612386A74FFF0A3F01238361238747423
:100B4000FFF0A3F01238361238B674FFF0A3F005A8
:100B500012E512B404D8E4F512F516F517C3E5173B
:100B6000789F96E51618964003020CAF123887CE90
:100B7000C313CE13D8F91238491238185E60030235
:100B80000CA47B40E4FDFCAF17AE1612C00F9039E9
:100B9000A812387EE0A330E71D123887CEC313CEEB
:100BA00013D8F9123849C083C0821238184ED08247
:100BB000D083F0020CA4C39039A9E094FF9039A827
:100BC000E094034003020CA4E0FEA3E0FF124A16E7
:100BD0009039AAEEF0A3EFF09039AAE0B40311A384
:100BE000E0B4FF0C9039A81238C0123C15020CA4D6
:100BF000E512C394044003020C9B9039AAE0FEA3C3
:100C0000E0FF12C0189039ACEEF0A3EFF09039ACD1
:100C1000E0650C7004A3E0650D702D1238361238B3
:100C200074E516F0A3E517F012382E12386AEEF0CC
:100C3000A3EFF0AF17AE1612C0189039AC12387E81
:100C40001238C0123C15803212382E123874EEF071
:100C5000A3EFF012383612386AE516F0A3E517F064
:100C6000123887CEC313CE13D8F9123849C083C0C7
:100C7000821238184ED082D083F09039AC123831BD
:100C80002480F582E43439F58312387E123831122B
:100C900038B6EEF0A3EFF0051280097D01AF17AE74
:100CA0001612C0120517E51770020516020B5D78C3
:100CB0009E7FFE120D10C3E5179509E516950850A5
:100CC00024123887CEC313CE13D8F9123849C08303
:100CD000C0821238184ED082D083F00517E5177005
:100CE000D5051680D1903302E0B5110778A47FFDB9
:100CF000120D107E007F087A3979B812389A7E0278
:100D00007F007D007B017A3A79001209737F01220E
:100D1000E6FC08E6FD7E03123C1522E4F521F521F0
:100D2000121C1CE4F522F523C3E5239509E5229561
:100D3000084003020F1D7B40120F7464FC7003EE29
:100D400064036003020F12903006E522F0A3E5234E
:100D5000F07B04120F744E7003020F1D90100EE012
:100D600064886003020F1DA3E064BD6003020F1DD1
:100D700090100A121BB7121CA3901011121BB790EF
:100D800030181208F7901016121BB790301C12087A
:100D9000F790101B121BB79030301208F7901021FB
:100DA000121BB79030341208F7901026121BB7129E
:100DB0001CA9901030E024FF9256901034E024FFDC
:100DC000925C901036E024FF9259901038E024FF96
:100DD000926AA3E024FF9261A3E024FF9260A3E063
:100DE00024FF925B90103FE024FF9257A3E024FF82
:100DF0009255A3E024FF9253A3E0903003F09010AB
:100E000043E024FF9250A3E024FF9265A3E024FF77
:100E100092663057047F0180027F00909001EFF0CE
:100E200090302A7404F090102EE0789146F6121B50
:100E30001DFF903018121BACFBD312089B400A9088
:100E4000301812091C00000000903018121B20FFFF
:100E5000EC4D4E4F6002D25A305609909000E0306F
:100E6000E302C25BE4F521E521C378A19650217528
:100E7000F002E521A42400F582E5F03411F583E0C9
:100E8000FEA3E0FF121BF4EEF0A3EFF0052180D7E4
:100E9000121BC57D01120F6A7003020F651236B076
:100EA000121BC57D02120F6A7003020F659010803D
:100EB000E0B4FF09A3E0B4FF047FC080027FB090DC
:100EC0003024121BC37D03120F807003020F659044
:100ED0001080E0B4FF09A3E0B4FF047FC080027F6C
:100EE000B090302E121BC37D07120F8060779010D8
:100EF00080E064AA7017A3E0B45512121CCAE0B4D3
:100F0000A50D9031C5E0B45A06D2698002D2697F3E
:100F100001220523E52370020522020D28903006E8
:100F20007403F0A374FFF0E4F52178A1E6FFE52156
:100F3000C39F500E121BF4E50AF0A3E50BF0052148
:100F400080E87E00AC0AAD0B1207178E228F23AB10
:100F500007AA06E4F9F8AE0CAF0DFCFD12077E12ED
:100F60001CA3121CA9D2697F00227B047C0012C042
:100F70000FEF4E22E4FDFCAF23AE2212C00FEF2292
:100F80007B047C0012C00FEF4E2290900AE0540FB9
:100F900078B9F6909001E070030211989090077470
:100FA00001F0909001E024FE700302107B24F970A0
:100FB0000302109E14700302109E1470030210E1CD
:100FC00014700302109E1470030210DB24FE7003E1
:100FD000021164240E600302118F124F919041029E
:100FE000E030E7F9904102E030E0F9900E00E06473
:100FF000806003021191900E01E06406600302110B
:1010000091900E02E06003021191900E03E0F460F3
:1010100003021191900E04E064AA60030211919002
:101020000E05E064BB6003021191900E06E064CCF3
:101030006003021191900E07E064EE6003021191CB
:10104000900E407411F0A37422F0A37433F0A374D3
:1010500044F0A37455F0A37466F0A37477F0A374FE
:1010600088F0E4904102F0A37408F0904102E0207F
:10107000E1F99090017401F002118F124F919041AB
:1010800007E030E4F990801CE0540FFFBF0FF6E456
:10109000908007F0904107E04420F002118FAF17D5
:1010A000AE16AD15AC14C006C007AE18AF19AB072D
:1010B000AA06E4F9F8D007D0061208098F178E1691
:1010C0008D158C14AF17AE16AD15AC14780A120836
:1010D000AC8F178E168D158C1480FE90800B7408C3
:1010E000F0124D00E4F511E4908006F0908005E0E8
:1010F00030E0F990800BE054036009E020E10EAF8E
:10110000111232CA0511E511C3940240DA124F1DC3
:10111000E4908014F090800674E0F0908005E03058
:10112000E0F990800674E0F0908005E030E0F990FE
:1011300080007410F0908005E030E7F9124E67E40B
:10114000908014F0908006F0908005E030E0F990F7
:10115000800BE0540360047F0080027F01909001C7
:10116000EFF0802BE4909002F0909005F07FCC7E21
:1011700004123B74000000000000000000000000AA
:101180007F007E06123B749090017401F080FE8017
:10119000FEE4909001F080FE759852758921758D5E
:1011A000FFD28EE4F58CF58AD28C4387807890F656
:1011B000759955122F23124E87EF7019C25F7893DD
:1011C000F69030067403F0A374FFF008F67D40FF3C
:1011D000123D3A8009D25F789376FFE408F690904A
:1011E0000174FFF09090077401F00230FF20584323
:1011F0002068407888E6600A7987E778864618464E
:10120000601E7F457E407D357C74788512141760A2
:101210000F7F427E497D4F7C5378851214177002F0
:10122000D2587885E6600C7988E77887461846704A
:1012300002D268305B3F2068033058392066362080
:101240006515A25AE4332401FFE433FE7880E6FDFD
:10125000B5070AE4B50606789276018011ED14FF11
:101260007402A807088002C333D8FC7892F67892FB
:10127000E6FF1242267892E6B4011090300B74FF1C
:10128000F0A3744DF0A374E6F0805A305E398511F6
:1012900020121516E4FB7D01FC12C00FEF4E700208
:1012A000C25E852011900002E07E002416F9EE3423
:1012B00000FAA3E029F9EE3AFA90300B7401F0A39A
:1012C000EAF0A3E9F0801E903211E493903009F027
:1012D0007E002407F9EE3432FA90300B74FFF0A34D
:1012E000EAF0A3E9F01215C57480F0A37402F0A32C
:1012F000F0A3741FF0E4A3F0A3F0A3F0F520903066
:101300000BE0FBA3E0FAA3E0F985208275830012CD
:1013100006EAFF74082520F582E43400F583EFF037
:101320000520E520B420D7205E030213EE305903D8
:10133000205803306A05E4900001F075200178928E
:10134000E6FD6401703F9000237430F0205523784F
:1013500088E66405701C18E6B48F1718E6B493127B
:1013600018E6B4840D1215C5F0903028E054FEF054
:10137000806A9000007405F0A37480F0903028E03B
:101380004401F08057306A089000237435F0804C97
:101390003060089000237436F08041305C08900083
:1013A000237437F08036306111ED900023B40805C6
:1013B0007439F080277438F0802290302DE0600B73
:1013C0009000227431F0A314F08011205B0330569A
:1013D000089000237431F08003E4F520E520600ECE
:1013E0009000207438F0A3742EF0A37430F07F24A2
:1013F00012466A227F147E007D007B017A0079000C
:10140000020973E5192517FFE5183516FEE43515B1
:10141000FDE43514FC78991208DEC302089B903075
:1014200018E0F8A3E0F9A3E0FAA3E0FB903020E095
:10143000FCA3E0FDA3E0FEA3E022908017E02519C5
:10144000F519E43518F518FE7809AF19E4FCFD121A
:1014500008BF788922AF17AE16AD15AC147802120A
:1014600008BF8F178E168D158C1422FFE02FFFE416
:1014700033FE74002FF58274023EF583E064AA22E5
:1014800078991208D2D3AB17AA16A915A814020886
:101490009BC2647A0079007E007F00904400740053
:1014A000F0A37400F0E4904104F022EF24FFFFEE7B
:1014B00034FFFEED34FFFDEC34FFFC900000120819
:1014C000F790000422904101E04410F07882E64455
:1014D00010F62274002521F582E43402F583E0221F
:1014E0002517F517EE3516F516ED3515F515EC350E
:1014F00014F51422AE18AF19E4FCFDFB7A02F9F8DA
:1015000012077E788922FF7E00E07C002400F9EC3F
:101510003403FA7B0122903305E0F511903006E0A8
:10152000FEA3E0FF22FEED9400FDEC9400FC788920
:101530000208EBFFE02FFFE433FE74002FF5827406
:101540000322903003E0FEC3EF9E903002F0541F60
:101550002274012521F582E43402F583E02402227D
:1015600078007C007D0122C39BFFEE9AFEED99FD81
:10157000EC98FC229000027480F022788D76057839
:101580008E22788D7602788E22F0E4904105F078F4
:101590008922903001E06401F0909001F022789966
:1015A0001208D278020208AC78891208DED3020849
:1015B0009B904104EFF0E51915192233FF74047E66
:1015C00000A8070822E4900000F0A322788D760698
:1015D000788E22124F007892E66401702E903028A7
:1015E000E030E027AE18AF19E4FCFD780B1208BF1D
:1015F00078891214177014121455E519AE18780270
:10160000C333CE33CED8F9F5198E181214F4121450
:101610001760037F84221247AD8F20EF30E701224D
:10162000121480400930580302173A7F8A2212149C
:101630000350037F8A22903002E0FF60119041073F
:10164000E030E611121542700512159280009041AB
:1016500007E054BFF0903002E04440F0305230C216
:1016600052D251903015E0FEB40115903016E0B41E
:10167000010E903017E0B40107789476FF7F862240
:10168000903017EEF09030157401F0903016F02085
:101690005C047F0180027F00903024E0B4B0047EBF
:1016A0000180027E00EE5F7003021759A253E4121C
:1016B00015BB8006CEA2E713CE13D8F8FF7892E6CA
:1016C0006F7001EE60030217597889120903000058
:1016D0000000E4FFFEFDFCC3121486705D7892E604
:1016E000B4040B90301812142FF5171214649030B4
:1016F00040E518F0A3E519F075180075190112C03E
:10170000038F20E52030E718903040E07004A3E01C
:101710006401700FE52030E0047F0180027F032226
:101720007F8922908016E020E0F9903041E024FF8C
:10173000F519903040E034FFF5187E087F007DFFFA
:101740001213FAE5194518600D124DB7E519151970
:1017500070F1151880ED7F0322124CCD12C0038F5B
:1017600020E52030E72D30E01C904102E030E0031E
:10177000120063904104E020E1EF30640312149101
:101780007520018003752003788912090300000089
:1017900000800912143A1208EB752089AF202290BC
:1017A000320CE044019090051235DA903212E0F5E7
:1017B00013A3E090800AF09033F0E0F50CA3E0F57D
:1017C0000D9033F2E078A1F69033F4E0F50EA3E04B
:1017D000F50F9033F6E078A2F69033F8E0F510902C
:1017E00033FAE0F508A3E0F5099033FCE0F50AA32D
:1017F000E0F50B9033FE1235E2903391E0909009C2
:10180000F0903394E060031235C41235A2788376E9
:1018100014E4F5277883E6FF2400F582E43432F5FA
:1018200083E0640C600302193774012FF582E434FD
:1018300032F583E0FEC4540F1235BB74022FF582DB
:10184000E43432F583E07881F67883E62403F58288
:10185000E43432F583E07882F6E4F525E525C378B3
:101860008196502AAF257401A807088002C333D897
:10187000FCF52678825678836009123560908000E6
:10188000F08007123560908001F0052580CE7883C6
:10189000E62401F582E43432F583E0540F7881F6D2
:1018A000E4F525E525C3788196400302192EE52548
:1018B000540325E02410908014F0908005E030E778
:1018C000F9E4908006F0908005E030E0F990800B1C
:1018D000E054036011E030E1037F0022E52554036A
:1018E0002404FF1232CA908005E030E1037F002219
:1018F0000525E5255403F5266007E5257881667002
:10190000A2E5267003752604E5267F0025E0FEC0CB
:1019100006C007E527123573A807FC1235D1D0079A
:10192000D006120A5BE5262527F5270218A378833F
:10193000740C26F6021814E5277F0025E0FEEF243C
:10194000FEF582749F3EF583E0B4550FEF24FFF55A
:1019500082749F3EF583E064AA60037F0022123503
:10196000F47F01223060377891E630E03190000F4B
:10197000E0248F24FC502424F2602024EE601C1408
:10198000601924FC6018240224FB500F24A9600B6A
:1019900014600824FB6004247970037F8222D267DC
:1019A00090000FE012094D1AD9101AE0111AE7122F
:1019B0001A91711A95721A99731A9D741AA1751A4F
:1019C000AC761AB5771ABE781AC77B1AD07C1A7013
:1019D000811A7B821A86831A66961A0B971A4E9979
:1019E0001A569A1A5E9B1A3E9C1AF8D81B05D91AE9
:1019F00046F51A1EF61A26F71A13F81A2EF91AECDB
:101A0000FA1A36FB1AF3FF00001B15124FB88F208D
:101A1000021B18121B5B124E028F20021B1812446D
:101A2000A48F20021B181241B78F20021B18124CE2
:101A3000638F20021B18124D8C8F20021B1812403E
:101A4000CD8F20021B181233AC8F20021B181226D8
:101A5000BD8F20021B18121FE58F20021B18124792
:101A6000618F20021B187F011228008F20021B1893
:101A7000121B5B1249968F20021B18121B5B124B24
:101A80000A8F20021B18121B5B124C988F20021B1E
:101A9000187F0280197F02801E7F0280237F0280D0
:101AA00028903028E04402F07F0280267F03124A0B
:101AB000538F2080637F03124EC48F20805A7F0390
:101AC000124A908F2080517F03123A238F20804842
:101AD0007F031238CA8F20803F1239788F208038D8
:101AE0001237658F208031124E468024121E698F76
:101AF000208025124F758018122A71900000EFF097
:101B0000124DB7800B120D1B900000EFF0124DB775
:101B10007520038003752082C267AF202290302099
:101B2000E0FCA3E0FDA3E0FEA3E022908017E02507
:101B300019F519E43518F518FEAF19E4FCFD78091C
:101B40001208BF78890208EB7A0479007E047F00CE
:101B50009044007404F0A37400F022900010E09010
:101B60000074F0900011E0900075F0900012E09089
:101B70000076F0227DFF7E027F007B017A047900EF
:101B80000209732517F517EE3516F516ED3515F51F
:101B900015EC3514F51422E5192517FFE51835164F
:101BA000FEE43515FDE49030303514FCE0F8A3E098
:101BB000F9A3E0FAA3E022E0FCA3E0FDA3E0FEA38A
:101BC000E0FF22EFF0903006E0FEA3E0FF227A0073
:101BD00079007E007F009044007400F0A37400F050
:101BE00022E5192517FFE5183516FEE43515FDE445
:101BF0003514FC22E52125E024C2F582E43430F5D9
:101C00008322F0A26AE433A3F0A261E433A3F0A23A
:101C100060E433A3F0A25BE433A3F022903305E049
:101C2000F511227E027F007B017A007900020973A0
:101C30002FF517EA3EF516E93DF515E83CF51422B7
:101C400075F002EFA42400F582E5F03405F5832257
:101C5000FFAB17AA16A915A814C302089BF0A2652A
:101C6000E433A3F0A266E433A3F02278991208DEED
:101C7000C302089B2517FFEE3516FEED3515FDEC6A
:101C800022C394FFEE9403229000747451F0A322B7
:101C90002DFDE4338D82F583E493FE227893E644B0
:101CA000F6F62290300E0208F79030200208F70472
:101CB000F0A25CE433A3F0A322903024E064B022CD
:101CC000ED5407FA7401A80208227891E64401F65F
:101CD0009031C4228F24903305E06511601E30627C
:101CE0001330670A206D077881E6640260037F0184
:101CF0002212C009121C1C7F0112C01520621E3066
:101D0000670A206D077881E6640260037F0122780C
:101D10009EE6FE08E6FF7D0112C012D2627FFC7EC5
:101D200003124A168E168F17E517B4FF16E516B480
:101D300003117E107F007DFF7B017A10790012096C
:101D400073801BE4F525E525FD7C002404FBAF171B
:101D5000AE1612C00F0525E525C3940840E8E5241A
:101D6000B4FF097514037515FF021E3D124D5F8EF9
:101D7000148F15BEFF06BFFF037F0022E5247F00FE
:101D800025E0FEEF2400F974103EA801FC7D017BE4
:101D9000017A0479007E02120A5BE4F525E525C389
:101DA00094084003021E3D30670A206D077881E6E3
:101DB000640260037F0122E5258510F084E5F07060
:101DC0000EE525FD7C007BA0AF15AE1412C00F7F81
:101DD000FC7E0312C021E52525E02410908014F03C
:101DE00090800674E0F0908005E030E0F9E525048D
:101DF000FF8510F084E5F06005EF5407703A90809D
:101E0000007410F0908005E030E7F9E51320E52834
:101E10009080007470F09080047401F0908003E072
:101E2000FF908002E04F30E00F7BC1E4FDFCAF1576
:101E3000AE1412C00F021D6C0525021D9DC3E517CF
:101E400094FFE516940350097D01AF17AE1612C03A
:101E500012AD15AC147FFC7E03123C15903006E5E4
:101E600014F0A3E515F07F0122900012E0788DF6C2
:101E7000A3E0F514A3E0F515900015E0F516A3E036
:101E8000F517788912090300000000900010E01295
:101E9000094D1ECF001ED2011EDA021EED031EF0F8
:101EA000041F76051EF3061EF6071EF90A1EFC0B1C
:101EB0001EFF0C1F110E1F14111F17121F47131F97
:101EC00070281F732A1F67801F6D8100001FE202A8
:101ED0003F55900011E0FF022DFD900017E0FEA39A
:101EE000E0FF12C021900011E0FF0247F7024EA66A
:101EF000024712023E500235FB0222B90245067823
:101F00008DE6FF5470FEEF54074E90900EF07F0365
:101F100022023FD4024BF37890E630E6047F008043
:101F2000027F80904104EFF0904104E030E0F978C6
:101F30008DE67800FC7D017B017A0079007E027FCE
:101F400000120A5B7F0322788DE6FA79007B01C0DC
:101F500002C00178007C007D01D001D0027E027FAA
:101F600000120A5B021FDC121B5B0249D8024F639E
:101F7000024B4502483E7D00121C23900000744035
:101F8000F0A37404F090000304F0E4FCAF041249E1
:101F900052EC75F004A4AEF02410F519E43EF518E7
:101FA000FE74002519F58274003EF583ECF074018F
:101FB0002519F58274003EF583E515F074022519A4
:101FC000F58274003EF583E516F074032519F58259
:101FD00074003EF583E517F00CBC40B0124DB77F9E
:101FE00003227F83227D00121B7690300E121B206D
:101FF000FF9004001208F790040474BDF0A3740667
:10200000F0A374A1F07B017A30791812490D900485
:10201000071208F790040B74A2F07B017A30793034
:1020200012490D90040C1208F790041074A3F0E408
:10203000A3F0A25F33A3F0A374A4F07B017A3079FC
:102040003412490D9004141208F790041974A5F085
:102050007B017A30791C12490D90041A1208F7900E
:10206000041F7401F0A374A6F0A256E433A3F09009
:10207000042374A7F0900426121CAF74A9F0A26B7D
:10208000E43390042AF0A374AAF0A26CE433A3F022
:1020900090900AE090042DF090042F74AB121C0273
:1020A000A253E433900436F0A257E433A3F0903007
:1020B00003E0900438121C5D7B017A3079201249CC
:1020C0000D9005001208F790050474B0F0903025CB
:1020D000E0900505F090302FE0900506F090302458
:1020E000E0900507F090302EE0900508F0A374C052
:1020F000F07891E6A3F0A374B1F090051004F0E538
:102100000AA3F0A3E50BF0A374B3F0A25FE433A33A
:10211000F0903027E0900515F0A374B4F07893E6C2
:10212000FFA3F07894E6FEA3F0A374B5F090052425
:1021300004F0A3EFF0A3EEF090053074B7F09090A8
:1021400000E0900531F090053574B8F02063061278
:102150001B48124DB77F032290000FE0FF788912D1
:1021600008DEE8494A4B601290000CE0648060048D
:102170007E0380027E028E1F8003751F017884A675
:102180001FEF12094D225F0022450321E4122206AF
:102190001A22521B226C1E22282322382521C228F3
:1021A00021D32A21F52F227943228645228D4622EA
:1021B0009451229B5222175A22A2BB22A7BD000093
:1021C00022AEE51F640260030222B61215D38F1EF1
:1021D0000222B3E51F640360030222B61224178FA4
:1021E0001E0222B3E51F640260030222B61211ED43
:1021F0008F1E0222B3E51F640160030222B6124F54
:10220000838F1E0222B3E51F640260030222B6120E
:1022100045618F1E0222B3E51F640260030222B6ED
:10222000122BA68F1E0222B3E51F64026003022256
:10223000B6123ED58F1E807BE51F64027078124176
:10224000468F1E806EE51F6402706B124C2B8F1E32
:102250008061E51F6401705E124E248F1E8054E57C
:102260001F6401705112443D8F1E8047E51F6401B9
:102270007044124FAB8F1E803AE51F640270371214
:102280003ACC8F1E802D1200518F1E8026124F9E39
:102290008F1E801F1248838F1E80181248C88F1E01
:1022A0008011751E03800C124ACD8F1E80051219F5
:1022B000648F1EAF1E227F82221235A2E4F521E533
:1022C00021C3788D9650357890E630E6047F008003
:1022D000027F80904104EFF0904104E030E0F9E5A6
:1022E00021123551FA7B01E521123573A807FC7DD7
:1022F000017E027F00120A5B052180C31235F4E4DF
:10230000904400F0A3F07890E630E6047F0080026D
:102310007F80904104EFF0904104E030E0F99001BB
:10232000FEE0B44A06A3E0644E60037F8922900079
:1023300000E090800AF030E0057513408003E4F57A
:10234000137890E6B4800790800AE04480F0900013
:1023500002E078A1F6900004E0F50EA3E0F50F90FE
:102360000006E078A2F6900008E0F51090000AE080
:10237000F508A3E0F50990000CE0F50AA3E0F50BE1
:1023800090000EE0F50CA3E0F50D900191E0909027
:1023900009F0E4909002F0900192E07004A3E060F4
:1023A0001D900010E05470909005F0900192E0FEB6
:1023B000A3E0FF123B749090057460F0800A9000D7
:1023C00010E04401909005F01235DB900194E0603C
:1023D000031235C4900011E0600890800B7408F07F
:1023E0008005E490800BF0D26C78007C337D017B1B
:1023F000017A0179007E007FF0120A5B90330312AC
:1024000035E290330FE0F51312C000C26278A1E606
:10241000F511C2547F0322124F007892E6640170D6
:1024200027903028E030E020AE18780B12144A12C2
:1024300014177014121455E519AE187802C333CE70
:1024400033CED8F9F5198E181214F412141760034C
:102450007F84221247AD8F20EF30E7012212140350
:10246000400512148040037F8A22305F357892E65F
:10247000FE64017025E5194518601C7890E630E689
:10248000047F0080027F801215B170021518904100
:1024900004E020E0E080F77F0322EE541860037F21
:1024A00087227891E6600F540660087991E7789268
:1024B0005660037F8722903024E064B0703EA253C0
:1024C0001215BB8006CEA2E713CE13D8F8FF789280
:1024D000E66F7001EE7025E5194518601C7890E6EE
:1024E00030E6047F0080027F801215B1700215185B
:1024F000904104E020E0E080F77F0322903002E08A
:10250000FF6011904107E030E6111215427005128C
:1025100015928000904107E054BFF0903002E044F3
:1025200040F0124CCD12C0068F20E52030E72D3050
:10253000E01C904102E030E003120063904104E0AF
:1025400020E1EF306403121491752001800375209F
:1025500003788912090300000000801312143A1254
:1025600008EB752089E5194518700478847601AF69
:102570002022904106E0547FFFBF211C7F437E4212
:102580007D537C55900000E0F8A3E0F9A3E0FAA3A6
:10259000E0FBC312089B6007788476027F82227B6F
:1025A000017A00790412490D78851208EB7B017AD3
:1025B00000790812490D78891208EB7A0079007EBB
:1025C0000012349190000DE07880F690000FE0301A
:1025D0006D396412602A7888E6B4051718E6B48F5E
:1025E0001218E6B4930D18E6B484089030287402EB
:1025F000F080069030287407F0306004E47893F699
:10260000C26DE47892F678A1E6F511205F03022608
:1026100098A25CE433FF903024E0B4B0047E0180E3
:10262000027E00EE5F6020A253E433FF7880E6FE76
:10263000B5070F7402A806088002C333D8FCF51E44
:102640008037751E108032206515A25AE4332401AC
:10265000FFE433FE7880E6FDB50711E4B5060D30E2
:102660006105751E088012751E01800D7402A80593
:10267000088002C333D8FCF51E305B32206803307B
:1026800058033066297880E6FF7401A807088002A5
:10269000C333D8FCF51E80167880E670089030278A
:1026A000E0F51E8009751E047894E64404F6E51EE4
:1026B0007892666005AF1E1242267F022290302477
:1026C000E064C060037F892220631D7E04121B50DA
:1026D0007890E630E6047F0080027F80904104EF2E
:1026E000F0904104E030E0F97B017A04790012496E
:1026F0000D9030181208F77B017A04790612490D03
:102700009030301208F77B017A04790B12490D9052
:1027100030341208F77B017A04790F12490D90309A
:102720001C1208F77B017A04794012490D90303869
:102730001208F7900445E0903142F0900446E09092
:102740003143F0900444E0645170449004FEE0642E
:102750004A702CA3E0644E7026FF78A1E6FEEFC31A
:102760009E5014121C40E0FCA3E0FDEF121BF6EC9F
:10277000F0A3EDF00F80E38E11C262E47894F6903E
:102780003038121B20FFEC4D4E4F6003121CA390FB
:102790003018121B20FFEC4D4E4F6003D38001C355
:1027A000925A900404E0B45103D38001C39253A21F
:1027B00053A05A9253903030121B20FF90301C12BD
:1027C0001BAC2FF517EA3EF516E93DF515E83CF58B
:1027D0001420550990301C121B20121B8390300EC0
:1027E000121B20C39517FFEE9516FEED9515FDEC17
:1027F0009514FC121CA97892E6FF1242267F032250
:102800008F227E027F007D00121B7A90040974F1F2
:10281000F090300E121B20FF90040A1208F790046B
:102820000E7488F0A374BDF0A374F2F09030181207
:102830001B20FF9004111208F790041574F3F09018
:10284000301C121B20FF9004161208F790041A7413
:10285000F4F0903030121B20FF90041B1208F79008
:10286000042074F5F0903034121B20FF90042112E4
:1028700008F790042574F6F0121B1DFF9004261231
:1028800008F790042A74F7F0E4A3F0A304F0789119
:10289000E6540690042EF0A374F8F0A256E433A395
:1028A000F0A374F9F0900433121CAF74FBF0A2593A
:1028B000E433A3F0A374FC121C02A257E433900487
:1028C0003FF0A255E433A3F0A253E433A3F09030D9
:1028D00003E0900442F0A250E433A3121C5D900484
:1028E0008074E1F090048504F0E478A3F679A3E71E
:1028F000C378A196501778A3E6FF121BF6E0FCA35D
:10290000E0FD121C40ECF0A3EDF00680E07891E6CB
:102910009005FFF0E5226006121B48124DB7E4FF58
:10292000121CD4EF601278891209030000000030F5
:102930005F03121C9C7F03227F89228F1E908016CA
:10294000E020E0F9904104E020E1F9C267121BCEDB
:1029500090000012091C555342537B007A00798580
:1029600012490D9000041208F7E490000CF090005A
:102970000BF090000AF0900009F0900008F09041F0
:1029800006740DF0E4904105F0305106C2519030CC
:1029900015F0D264904104E030E10A904102E03049
:1029A000E0F27F0022C2647A007900121BD6E49024
:1029B0004104F0E51E7002FF22C28CC28DE4F58C4A
:1029C000F58AD28C903002E0FF6024904107E0301D
:1029D000E624903003E0FEC3EF9E903002F0541FD7
:1029E000700D903001E06401F0909001F080009053
:1029F0004107E054BFF0903002E04440F0904104C1
:102A0000E020E010904102E030E0037F0022308DB2
:102A1000EC7F0022900011121BB778A6121C6D707B
:102A20004D90000FE0651E704590000DE0788066C7
:102A3000703C908016F07B017A00790412490D7881
:102A4000851208EB121BCEE4908014F0900016E083
:102A5000F518A3E0F51978A61208D28F178E168DF7
:102A6000158C14121BE178A61208EB7F01227F005F
:102A700022124F38E4F523E5231235BBE4F521E5B6
:102A80002130E0047F0180027F0090800AEFF09007
:102A90008005E030E7F91235EDE4F522E522600823
:102AA00090800B7408F08005E490800BF0E521C362
:102AB00013FF124952908005E030E7F9E49080005E
:102AC000F0908001F0F0E517F0E516F0E515F090D4
:102AD0008005E030E7069080007430F0908005E0DB
:102AE00030E7F9E4F5249080147432F0908005E02A
:102AF00030E7F9E4908006F0908005E030E0F9904E
:102B0000800BE054036009E020E12F7F0C1232CAF1
:102B1000903200E0640D7022A3E06406701CA3E014
:102B2000B40517A3E0B40612A3E0B4850DA3E0B486
:102B3000880812179FEF600D8032E524C39405507A
:102B400004052480A10522E522C394025003022A31
:102B50009C0521E521C394805003022A7F0523E5CB
:102B600023C394045003022A777F0022D26C90334F
:102B700092E07004A3E06022E4909002F090320CA6
:102B8000E05470909005F0903392E0FEA3E0FF12C5
:102B90003B7490900574601235DA12C000E47880BE
:102BA000F6C2547F0122900011E0543FF5207521B8
:102BB000FF7522807892E664016003022C7C9030DD
:102BC00028E020E003022C7C124F50EF604D900271
:102BD00002E06047A3E090020212146B703D900285
:102BE00002E02408F521E520B43F08A3E024F8F52D
:102BF0002280281214D364AA60101214D3652060B6
:102C0000091215512521F52180E91214D364AA6017
:102C100007121551F52280037521FFE521B4FF0944
:102C20007E007F801213F8804F900202E07E002425
:102C300000F9EE3402FA7B01C002C001121560D027
:102C400001D0027F08120A5BAF227E007C00740074
:102C50002521F9EC3402FA7B01C002C00178087C1E
:102C6000007D01D001D002120A5BE522240690000B
:102C700001F074082522F522AF2280531215C57485
:102C800006F0E4A3F07891E6FB54F960047F8080BD
:102C9000027F00900003EFF0A312091C0000000067
:102CA000EB7892565406600312157420580330686E
:102CB0000C7892E6B401069000037480F0305F0D4A
:102CC0007892E6541860069000037480F07F081232
:102CD000466A228F2290300AE0FF7003022DF9D35A
:102CE000944040047E408002AE07E4FFEFC39E5054
:102CF0003190300BE0FBA3E0FAA3E0F9903009E05B
:102D0000FD7C00E92DF9EC3AFAEF29F9EC3AFA12D8
:102D100006D1FD74402FF582E4340EF583EDF00FFB
:102D200080CA7890E6FF20E606E52264026009EF9B
:102D300030E615E522B40710900E567440F0E4A377
:102D4000F0900E5D74408014E522B40613900E409E
:102D5000740AF0A37406F0900E487401F0E4A3F036
:102D6000E522B40706900E417407F0E52264016085
:102D700005E522B4060FE4900E42F0A37402F09031
:102D80000E477440F0E5226401702B900E4AE0B4C7
:102D90008006A3E06493600AD25F900E507403F043
:102DA0008007C25FE4900E50F0206C0A900E4A74C7
:102DB00034F0A37412F0E52264026005E522B40742
:102DC00008903005E0900E48F0904103EEF09041FD
:102DD00002E020E1F9904102E054216005E054FE58
:102DE000F022904102E020E01390300AE0C39EF010
:102DF000903009E02EF0022CD51234E7228F218585
:102E0000112212354112C00FE4908014F085212365
:102E10007E01FFFD1235D3120973908005E030E783
:102E2000F9E4908006F0908017E523F09080167406
:102E300080F0908016E0540A60F8908016E030E14F
:102E40005490800BE030E11D908017E0FFC3E52334
:102E50009FFFE49400FE74002FF58274103EF5830A
:102E600074EEF080C7908014E06007E0C31314FF95
:102E700080027F038F211232CA908017E0FDE52384
:102E8000C39DFDE49400FC74002DF58274103CF5A4
:102E900083EFF08097908016E020E0F9904104E005
:102EA00020E1F990800BE0900000F012C01E90002D
:102EB00001EEF0A3EFF0900003E514F0A3E515F0A8
:102EC000900005E516F0A3E517F0908030E0900043
:102ED00007F0908031E0900008F0908032E09000A0
:102EE00009F090800BE030E306908033E08001E44D
:102EF00090000AF090000B74AAF0780C7C00123558
:102F0000D17E007F40120A5B7A0079007E007F004C
:102F10009044007400F0A37400F0124DB7852211A4
:102F20007F0322E4903000F0903004F0A37432F07C
:102F3000E47891F6789376FF08F69030277480F065
:102F4000D252C251D26DC26EC267C266C264C2633F
:102F5000E49031C6F0A3F0A3F0C262C25FC25EC2C9
:102F60005DC25CC25BC25AC259C258C268C26AC260
:102F700061C260C2659031C4E0B4A50FA3E0B45A49
:102F80000A7891E64401F6D2698002C269C257C24A
:102F900056C255C250C25390300E12091C00000098
:102FA0000090301812091C0000000090301C12091B
:102FB0001C0000000090302012091C00000000904E
:102FC000303012091C0000000090303412091C003F
:102FD000000000E490302DF090303812091C000001
:102FE0000000E4903002F0A37410F0E47891F690C1
:102FF000302474C0F090302EF0E4903025F0903002
:103000002FF0903028F0A3F0A3F01245BC78817621
:103010000122AD07904104E020E1F9ED247FB40FD7
:103020000040030230D790303475F003A4C58325E7
:10303000F0C5837302306102306702306F0230A83E
:1030400002307702307E02308502308F02309602E5
:1030500030A10230AF0230D70230BA0230C40230A1
:10306000CB1214C57F052212157B76260230D312AF
:10307000157B76200230D3121582763A80551215D0
:10308000CC7628804E788D7607788E76278044120D
:1030900015827604800512158276FF788F76FF8080
:1030A0003612157B7621802B12157B762480241214
:1030B00015827604788F7601801D1214C51215CC06
:1030C0007629800F1215CC76298008788D760378C2
:1030D0008E7611E4788FF67884E6FCB40207121439
:1030E000C57D078017ECB40311904101E04404F062
:1030F0007882E64404F67D0680027D04AF05221244
:1031000046149030017401F0904102E030E0031267
:1031100000637881E6B40118904104E030E01112B8
:1031200025727881EFF6BF02071221587881A60731
:103130007881E6FF64036004EFB404051240518017
:10314000C77881E6B4050B904101E020E4047603E2
:10315000801D7881E6FFB40607904101E030E20B64
:10316000EFB4070B904101E020E404788176047805
:1031700081E6FF30E7071230127881A607306E092A
:10318000C26E904107E04401F07881E66401704727
:10319000904107E030E640903002E0FF6039903027
:1031A00003E0FEC3EF9E903002F06015E0541F7004
:1031B00007903001E06401F0904107E054BFF080D7
:1031C0000E3057047F0180027F00903001EFF090B5
:1031D0003001E0909001F0904107E020E4030231DB
:1031E000081246BF023108090220000101008032A6
:1031F0000904000002080650000705010200020051
:10320000070582020002000C121E0422183A2862EE
:1032100010721C12010110000000408F0580930104
:10322000000102000104030904180341006C00635B
:10323000006F00720020004D006900630072006F93
:103240000028034D006100730073002000530074D8
:10325000006F007200610067006500200044006597
:103260000076006900630065001003360033003803
:1032700000330046003200300047656E65726963B6
:103280002055534220466C617368204469736B205B
:1032900020372E3736000000000000000000AAAAE8
:1032A000AAAAAAAAAAAAEEEEEEEEEEEEEEEEFEFFB5
:1032B000FFFFFFFFFFFFFFFFFFFF7FBFDFEFF7FB1A
:1032C000FDFC7EBFDFEFF7FBFD7E908014E054062F
:1032D0006006E024FEFC8009908014E054F8240687
:1032E000FCEC752900F528E490800CF090800BE050
:1032F00030E1037FEE221238ACFC909001E0700CBC
:1033000078B9E6FFECD39F40037FEE22EC70030216
:1033100033A71C908020E0FD908021E0F9ED30E69D
:103320005CE9701190803012383D8002C333D8FCC4
:103330006F908030F0B9011190803112383D8002D9
:10334000C333D8FC6F908031F0B9021190803212F3
:10335000383D8002C333D8FC6F908032F090800BF0
:10336000E030E3A8E9640370A390803312383D8015
:1033700002C333D8FC6F908033F002330CED5480DD
:1033800025E0FFE433FEE5292FFFE5283EFEE97A3C
:10339000002FFFEA3E8F82F58312383D8002C3334F
:1033A000D8FC6FF002330C1238ACFF2220631B12E2
:1033B0001B507890E630E6047F0080027F809041C9
:1033C00004EFF0904104E030E0F9C26AC261C25CEF
:1033D000C260C25BE490302DF0C257C256C255C2E3
:1033E00050C265900403E0B45104D25C804F900455
:1033F00004E0B45104D26A8044900405E0B451045E
:10340000D2618039900406E0B45104D260802E90DD
:103410000407E064517026D25B900400E0B45102CE
:10342000D25690040EE0B45102D25090040FE0B492
:103430005102D255900413E0B45102D26690040BAD
:10344000E0B45102D257900409E0B4510DE4903039
:1034500002F090040AE0903003F03057047F0180BE
:10346000027F00909001EFF0900412E0B45106A2A8
:103470005B726192657F0322900E45E0900074F0CC
:10348000900E46E0900075F0900E47E0900076F0C8
:10349000229044007400F0A37400F02278407C0E67
:1034A0007D017B017A0E79007E007F08120A5B9015
:1034B0004102E054FEF022F0904102E04441F0224B
:1034C00090300B74FFF0A37432F0A37407F02285E0
:1034D0001121903305E0F511903006E0FEA3E0FFE6
:1034E000C394FFEE940322904102E04451F0227A0B
:1034F00004790090300B7401F0A322E0FCA3E0FDFE
:10350000A3E0FEA3E0227882E654EAF6904101E0CF
:10351000442AF0E054EA22E493903009F022A3F028
:10352000E4903009F022E4904104F07881760122A1
:10353000904106F0E4904105F022D263900E44E001
:1035400022788DE6F5117B20AD17AC16AF15AE14C1
:103550002254037F0025E0FEEF2400F974003E2290
:10356000E62525FFE433FE74042FF58274323EF520
:1035700083E02225E0FEE42400FFEE34A022E510E3
:10358000FD7C00AE16AF17120729AF059080002210
:10359000E0FD75F010EFA42EF582E435F0F583E53B
:1035A00082229080157455F074AAF0227E027F006A
:1035B0007D007B017A007900020973904B9B939008
:1035C0008007F022E05470FFE054074F90900EF017
:1035D000227D017B017A10790022F0909002740123
:1035E000F022E0FEA3E078A4A60608F62290800070
:1035F00074FFF0229080157477F0227890E630E620
:10360000047F0080027F80904104EFF085112178D3
:103610008DE6F5117BA012354812C00FE49080149E
:10362000F0904104E030E0F97890E630E6047F0065
:1036300080027F80904104EFF090800674E0F0906B
:103640008005E030E0F912357E7485F0E51354C052
:10365000601A90800BE030E306EF75F00C8004EF09
:1036600075F008A4908001F0EF04801B90800BE0BF
:1036700030E307EF75F018A48004EFC454F0908095
:1036800001F0EF25E02402908001F0904104E03049
:10369000E0F99080067484F0908005E030E0F990C5
:1036A00080007410F0E4908014F08521117F0322D3
:1036B000901000E064996003023764A3E06407603F
:1036C00003023764901003E0FF901002E02F2432D1
:1036D000FFE4FEFDEDC39F501074002DF582E4342D
:1036E00010F583E02EFE0D80EB74002FF582E4349C
:1036F00010F583E06E706DD25E305E2390107DE039
:10370000F4FF90107CE0B50716E0D394FA400890DF
:10371000300574FAF0800890107CE0903005F0904D
:10372000107EE0643C703DA3E064C370379010816C
:10373000E06403702FFEFD901080E0FFEDC39F500A
:103740001074802DF582E43410F583E02EFE0D8098
:10375000E6901080E02480F582E43410F583E0B533
:103760000602D25D222060037F8222900013E06473
:103770001060037F84227A047900121B50E4904188
:1037800004F0904104E030E0F9788476017891E625
:1037900030E0037F8722E4F52174002521F582E4DF
:1037A0003400F583E070270521E521B410EB121BEE
:1037B000C57B047D077C0012C00F901080E0B4AA86
:1037C0000AA3E0B45505121B74803D7F03229004C8
:1037D0008074AAF0A37455F0900400E0F522E4F59B
:1037E0002174002521F582E43404F583C083C0826E
:1037F000E0FFE521FDE522121C90EF6ED082D08320
:10380000F00521E521B410D97F07121CD4EF600523
:10381000C2697F03227F8922E0FF7C00E5175407FD
:103820002493F582EC344BF583E493FEEF22903938
:10383000AAE0FEA3E0FFE51275F00AA422E0FFED86
:103840005407FE7401A80608222400F58274393E4C
:10385000F58322EC25E024B8F582E43439F583229F
:103860002400F58274383EF583222486F582E43400
:1038700039F583222484F582E43439F58322EEF08D
:10388000A3EFF09039A822E517AE16780322740052
:103890002FF582E43439F583E0227DFF7B010209B4
:1038A000737891E64420F67EFF7FFF2290800BE044
:1038B00054F0C4540F222482F582E43439F5832273
:1038C000E0FEA3E0FFAD17AC16228F22121BC5123B
:1038D0001C815014851123121C1CAD227C007B021C
:1038E00012C00F8523118003121B74903025E090C5
:1038F0000400F090302FE0900401F0903024E0902C
:103900000402F090302EE0FB900403F0A374C0F0AA
:10391000A269E43325E0FE7891E6FD54012E90047F
:1039200008F090047EEDF0E65406FFBF0604E04484
:1039300040F0E522B4020A903024E0900480F08048
:103940000AE522B40305900480EBF020560E909017
:1039500000E030E307E4900481F080069004817475
:1039600001F090048274BDF0A37406F02063061287
:103970001B48124DB77F03222060037F82229000F4
:1039800013E0641060037F84229044007402F0A36B
:10399000E4F07890E630E6047F0080027F8090417A
:1039A00004EFF0904104E030E0F97884760130696A
:1039B000037F8722121BC5121C81506485112112BE
:1039C0001C1CE4FB7D07FC12C00F85211190020036
:1039D000E0FFE4F521E521FDEF121C9074002521A4
:1039E000F582E43402F583E06EFE74002521F58251
:1039F000E43400F583E06E6011D269121CCA74A52C
:103A0000F09031C5745AF07F87220521E521B4106A
:103A1000C4E49031C4F09031C5F07891E654FEF6DC
:103A20007F03228F22E522B40209903025E0D3944F
:103A300002500EE522B4030C90302FE0D3940240E4
:103A4000037F892220631F7A047900121B5078902B
:103A5000E630E6047F0080027F80904104EFF09022
:103A60004104E030E0F9851123121C1C121BC5AD86
:103A7000227C007B0112C00F85231112436BE522CB
:103A800064027024BFB00F903024E0B4B0089030CE
:103A900025E004F08005E4903025F0903024EFF02C
:103AA000305F26121C9C8021E522B4031CBFB00F9E
:103AB00090302EE0B4B00890302FE004F08005E4A0
:103AC00090302FF090302EEFF07F0322900010E026
:103AD0005402F520E47F01FEFDFC78891214177072
:103AE000037F8422900011E020E107900018E0306D
:103AF000E74A124F50EF603B900200E06035A3E0D0
:103B000090020012146B702B900201E0FF7E009077
:103B10000200E07C002400F9EC3402FA7B01C002D0
:103B2000C001121560D001D002120A5B900201E0C0
:103B3000FF80327F301213F67F3080291213F49009
:103B400000027401F0A3F09000057414F0A3740156
:103B5000F0E52025E025E0240A900001F090000A1D
:103B6000E520F07F1412466A7889120903000000EC
:103B7000007F03228E258F26E4FD79FFFCEC640292
:103B80007003023C14909003EDF0909004E9F090E3
:103B9000900B7401F090900BE030E0F990900CE005
:103BA000FE90900DE0FBEEF527EBF52890900CE0F1
:103BB000B52606E4B525027C02EC1460250470BD30
:103BC000C3E5289526E5279525500DE970047C016D
:103BD00080ABE9C313F980A5ED25E04401FD7C012C
:103BE000809BD3E5289526E5279525400FBDFF044A
:103BF0007C028089ED25E04401FD80817C02E5287E
:103C000065267004E52765257003023B7DEDC3132F
:103C1000FD023B7D228C268D27AB07AA0674002B64
:103C2000F58274343AF583E527F0EF540325E0FD7F
:103C3000EB7802CEC313CE13D8F9123860E0FF74CC
:103C400003A805088002C333D8FCF45FF0EBAE0292
:103C50007802CEC313CE13D8F9123860C083C08265
:103C6000E0FCE5267E00A805088005C333CE33CEF0
:103C7000D8F94CD082D083F0E527AE267803CEC3A6
:103C800013CE13D8F92400F58274393EF583C0832E
:103C9000C082E0FF7C00E52754072493F582EC34D2
:103CA0004BF583E493FEEF4ED082D083F022787FF1
:103CB000E4F6D8FD7581DF023CF5020F8AE493A398
:103CC000F8E493A34003F68001F208DFF48029E4CE
:103CD00093A3F85407240CC8C333C4540F4420C81A
:103CE000834004F456800146F6DFE4800B010204B1
:103CF0000810204080904FC0E47E019360BCA3FF79
:103D0000543F30E509541FFEE493A360010ECF54E5
:103D1000C025E060A840B8E493A3FAE493A3F8E4D4
:103D200093A3C8C582C8CAC583CAF0A3C8C582C840
:103D3000CAC583CADFE9DEE780BEC299ED30E6126C
:103D400075990D3099FDC29975990A3099FDC299FE
:103D500080087599203099FDC299ED30E01BEF7510
:103D6000F00A842430F5993099FDC299EF75F00A74
:103D700084E5F02430F5998032EF54F0C4540FFEFE
:103D8000D39409400674372EFE800474302EFE8EC4
:103D900099EF540FFED39409400674372EFE800429
:103DA00074302EFE3099FDC2998E993099FDC299DA
:103DB000ED30E71075990D3099FDC29975990A306B
:103DC00099FDC29922E49031C7F0A3F09031C7E089
:103DD000FCA3E0FDC3EC9402505D904102E054214D
:103DE000600BE054FEF09031C67404805C90410298
:103DF000E030E0079031C67402804E74002DF974F3
:103E0000043CFA7B01C002C00178407C0E7D01D0E9
:103E100001D0027E007F40120A5B9041037440F0A3
:103E2000904102E020E1F99031C8E02440F0903167
:103E3000C7E03400F080951234E7E49031C6F01208
:103E40004D30EF70089031C604F07F00227F0122D0
:103E500085112112354112C00FE4908014F090803A
:103E600005E030E7F9E4908006F0908005E030E06E
:103E7000F9124DB712357E7405F0E51354C0601A7F
:103E800090800BE030E306EF75F00C8004EF75F0E6
:103E900008A4908001F0EF04801B90800BE030E3D9
:103EA00007EF75F018A48004EFC454F0908001F07F
:103EB000EF25E02402908001F090800074E0F09003
:103EC00080067404F0908005E030E0F9124DB7856B
:103ED00021117F03221247AD8F20EF20E7747892E3
:103EE000E6B41014305A0812141E1215678004121A
:103EF000142CFF78991208EB1213F490000374103D
:103F0000F09000087402F090000AF0900012F0782F
:103F100092E66401702130501E903028E030E017A6
:103F20009000037408F090000AF012159E900004AF
:103F30001208F77F0C801878991208D290000412AA
:103F400008F778991208D290000C1208F77F140233
:103F5000466AAF2022908007E0F52190800AE0F5C4
:103F600022124F381235AC90800A7401F0E4FFEF52
:103F70001235BB908005E030E7F91235ED908005F1
:103F8000E030E7F99080007490F0E4908001F0FE5A
:103F90009080047401F09080021235902400F58224
:103FA000E5833400F583EDF090800312359024080A
:103FB000F582E5833400F583EDF00EBE06D20FBF27
:103FC00008AD908007E521F090800AE522F0124DBF
:103FD000B77F03221235AC9000027488F0A374A15D
:103FE000F07895E6A3F008E6A3F008E6A3F008E66B
:103FF000A3F0A3744AF0A374BDF0A37406F09090EC
:104000000AE090000BF0A25FE433A3F07890E6A3FF
:10401000F0900010744AF0A3E511F0A262E433A31B
:10402000F0908007E0900013F090900EE090001464
:10403000F0900020744FF09000307448F0900040F1
:10404000744EF090800BE0900100F0124DB77F03AA
:1040500022908016E020E0F9904104E020E1F97A16
:104060000079007E007F00123491C2679000001238
:10407000091C555342537B007A00798512490D90F3
:1040800000041208F77B007A00798912490D90002C
:10409000081208F77881E6B403047F0080027F01EC
:1040A00090000CEFF0740D123530305106C2519073
:1040B0003015F0904104E030E10C904102E030E036
:1040C000F212006380ED1234911235262290001016
:1040D000E0F521A3E0FF1313543FF522E05403F56C
:1040E00014A3E0F515A3E0F517A3E0F516E52164A8
:1040F00010604DE5216409702BE5176407451660D3
:104100003F121BC5121C815014851122121C1CE485
:10411000FBAD17AC1612C00F85221180237DFF1254
:104120001C23801CE521640860168511218522115D
:10413000E4FBAD17AC16AF15AE1412C00F852111FC
:10414000124DB77F03221247AD8F20EF20E765782D
:1041500092E664017030903028E0FF5405FEBE0105
:104160000CEF4404F0903029E0700204F030501657
:10417000903028E030E00F12159E1214AB12091C8B
:104180000000080080297892E6B41014305A081212
:10419000141E121567800412142CFF78991208EB74
:1041A00078991208D21214AB12091C000002007F89
:1041B0000802466AAF2022124F00121B97FBC3125F
:1041C000089B50037F8A22903034121B20121C500F
:1041D000400A90302EE0B4B0037F8922121B1D12DA
:1041E0001C743514FC90301C121BAC121C30205572
:1041F0000990301C121B20121B8312C006AB07EB68
:1042000030E713788912090300000000EB30E00367
:104210007F01227F0322121B2BE5194518700478B9
:104220008476017F89227892A607EF146046146095
:104230001524FE601E24FC604424F8604024907025
:104240005390300E8031305A0590301880039030F2
:10425000208024903018E0F8A3E0F9A3E0FAA3E06E
:10426000FB9030201234FBC39BFFEE9AFEED99FDCC
:10427000EC98801A90301C1234FBFF801290301C96
:104280001234FBFF2FFFEE33FEED33FDEC33FC78F1
:10429000991208EB22E4F99039FDE0FC9039FEE038
:1042A000FDE9FB9039FFE02BFBE433FAAF04ECC3EC
:1042B0009BEA6480F8748098503912388EF51BB4EC
:1042C000FF04E4FD802AEDC394085022ED904B9347
:1042D00093551B7016ED049039FEF09039FDECF00B
:1042E00075F008A4FFAEF0EF4DFF220D80D8E4FD7D
:1042F0000C80AEE4FDFC09E9640270A51238A1222D
:104300008F1CEF75F00AA42480F9743935F0FA7B1C
:1043100001C002C00178A87C397D01D001D0027EA5
:10432000007F0A120A5B851C1DE51D602B75F00AD3
:10433000A4FFAEF02476F974393EFA7B01C0017413
:10434000802FF974393EA801FC7D01D0017E007FE9
:104350000A120A5B151D80D178807C397D017B01B2
:104360007A3979A87E007F0A020A5B900280E0B465
:10437000FF08A3E0B4FF037FC022900480E0F9A30C
:10438000E0FF900280E0FEA3E0FDEF6D7040FDEDE8
:10439000C39F503D74822DF582E43404F583E0FC24
:1043A00074822DF582E43402F583E0FB121CC08098
:1043B00002C333D8FC596204121CC08002C333D834
:1043C000FC5E6203EC6B60037FB0220D80C17FB0A6
:1043D000227FA022AD07124D30EF70069031C60447
:1043E0008051904102E030E506E054FEF080E79015
:1043F0004103E0540FFFBF0807904102E020E7119E
:104400001234AF904101E04401F09031C674028053
:1044100022900E03E0B40316900E02E0B5050F9053
:104420000E01E0B40608900E00E06480600990314F
:10443000C67402F07F002212349C7F01221247AD25
:10444000EF70607892E664017056903028E0FE5478
:10445000036401704BEE30E223903029E0FEB4019A
:10446000067402F07F8522EE640270349030297465
:1044700003F0903028E04402F07F862230550A9005
:104480003028E04402F07F0322903029E004F0E07D
:10449000D39406400BE4F07893E64401F67F85223E
:1044A0007F032222124F00121B97FBC312089B505E
:1044B000037F8A22903034121B20121C50400A9035
:1044C000302EE0B4B0037F8922121B1D121C7490A1
:1044D000301C121BA9121C3020550990301C121BD5
:1044E00020121B8312C003AB07EB30E7137889124D
:1044F000090300000000EB30E0037F01227F03226C
:10450000121B2B7F8922788DE6FEC378A19640038B
:104510007F0322903002E0FF6024904107E030E604
:1045200024903003E0FDC3EF9D903002F0541F70E3
:104530000D903001E06401F0909001F08000904116
:1045400007E054BFF0903002E04440F08511218E26
:104550001112C00C852111BF81047F0180027F03ED
:10456000227892E6FEB4010A903028E030E0037F22
:1045700083229000007403F0E4A3F07891E6FF54E6
:10458000F960047D8080027D00900002EDF0E4A3DC
:10459000F0EF5E540660031215742058033068096A
:1045A0007892E6B40103121574305F0A7892E654EB
:1045B0001860031215747F0412466A22E490800A80
:1045C000F07C029080077440F0908005E030E7F9BD
:1045D00090800074FFF0908005E030E7F990800053
:1045E0007490F0E4A3F0FE9080047401F0908002D7
:1045F000E0900000F0E0B4FF1A0EBE06EAEC5407AB
:10460000FEC454F04E90900EF00CECC3940940B3ED
:104610007411F022E4904104F0909000E030E41333
:104620007890E6B440047F0180027F31904201EF30
:10463000F0802A904200E05403700C904107E03073
:10464000E4F11246BF80EC904200E0789030E00444
:1046500076408009768090800AE04480F0E4788299
:10466000F6903004F078817601228F23E47F01FEFA
:10467000FDFC788912141770037F8422AF23E4FCB9
:10468000FDFE1215A84025904106E523121589303C
:10469000580280211208D2C007AF23AB07D007C34E
:1046A000EF9BFFEE94001215257F8122788CE69017
:1046B0004106121589120903000000007F032290B1
:1046C00090017401F090801CE0540FFFBF0FF6E4DE
:1046D000908007F0904107E04420F0904200E054C1
:1046E0000360F8904200E030E0117890E6B4800575
:1046F000E4904100F078907640800478907680E4F1
:10470000909001F09080077440F0904107E054DFF2
:10471000F022788DE66511601030620312C00978CE
:104720008DE6F5117F0112C015E4788DF6788DE6DF
:10473000FD7F0025E0FEEF2400F974343EFA7B0192
:10474000C001ED123551A801FC7D01D0017E02129D
:104750000A5B124DB7788D06E6C3940640CF7F03FF
:104760002220631B121B507890E630E6047F008005
:10477000027F80904104EFF0904104E030E0F9784E
:1047800091E654F9F6900401E030E604E64406F6BA
:10479000900401E030E1067891E64402F6900401CD
:1047A000E030E2067891E64404F67F03227892E650
:1047B000FF7893E6FE5F6005EFF45E80337994E75F
:1047C00078925660037F8522205629909000E03031
:1047D000E3107891E620E71C4480F67893E644F6EF
:1047E000800E7891E630E70C547FF67893E644F635
:1047F000F67F86227F00228F21851122788DE6F5B3
:10480000117890E630E6047F0080027F80904104BA
:10481000EFF07BA012354812C00FE4908014F090A6
:104820008017E521F090801674C0F0908016E0208B
:10483000E0F99080007410F08522117F0322124F5E
:1048400000900015E0FF124226121BE1121C6B5073
:10485000037F8A22124CCD12C006AB07EB30E71360
:10486000788912090300000000EB30E0037F012289
:104870007F0322121B2BE5194518700478847601FA
:104880007F8922124F50EF6032900300E0602CA32A
:10489000E0900300121533121479701F900301E0A9
:1048A000900300121506C002C001121560D001D09D
:1048B00002120A5B900301E0FF80097E007F221252
:1048C00013F87F2212466A22124F50EF6032900393
:1048D00002E0602CA3E090030212153312147970E9
:1048E0001F900303E0900302121506C002C00112DC
:1048F0001560D001D002120A5B900303E0FF80092B
:104900007E007F241213F87F2412466A22EB700C7B
:10491000E7FF09E7FE09E7FD09E7FC2214701089AB
:10492000828A83E0FFA3E0FEA3E0FDA3E0FC22BBBC
:10493000FE0CE3FF09E3FE09E3FD09E3FC228982A3
:104940008A83E493FF740193FE740293FD740393CE
:10495000FC22EF131313541FFE904BB393F515EE87
:10496000C394075012EF5407FE904BA393F517EE34
:10497000904BAB93F51622EF5407FE5401FFF4045D
:10498000F517EEC313FD7410A805088002C333D8D1
:10499000FCC39FF51622900074E0B45106A3E0F525
:1049A0002380037523012063217A0479007E041299
:1049B0001B507890E630E6047F0080027F809041B3
:1049C00004EFF0904104E030E0F9AF23121CD4EF83
:1049D00060037F03227F8922900075E06003D3800B
:1049E00001C3925F900076E0903027F0E0B420039E
:1049F0007402F0903027E0B440037404F020631395
:104A0000A25FE433900000F0903027E0900001F0C6
:104A1000124DB77F0322AD07AC06ED540325E0FF2E
:104A2000AB07EDAE047802CEC313CE13D8F912381B
:104A300060E0FFA803088002C313D8FC5403FE748F
:104A4000002DF58274343CF583E07C002400FFECFB
:104A50003EFE228F22E522B40205121CB9600CE54D
:104A600022B4030A90302EE0B4B0037F8922121CD6
:104A700088E522F0124996BF0315E522B40205909D
:104A800030248008E522B4030690302E74A0F02272
:104A90008F22E522B40205121CB9600CE522B40392
:104AA0000A90302EE0B4B0037F8922121C88E522E0
:104AB000F0124C98BF0315E522B402059030248013
:104AC00008E522B4030690302E74C0F0227E027FE7
:104AD000001213F8E4FF7E02FDFC1215A8401578C1
:104AE000891208D2C3EF9400FFEE9402121525122A
:104AF0004DB780E0788CE6904106F018E612158BF1
:104B0000120903000000007F0322900074E0B451FA
:104B100006A3E0F5228003752201121BC5121C8139
:104B20005014851123121C1CAD227C007B0212C084
:104B30000F8523118003121B74206306121B481279
:104B40004DB77F0322124F00900015E0FF1242265E
:104B5000121BE1121C6B50037F8A22124CCD12C033
:104B600003AB07EB30E7137889120903000000005C
:104B7000EB30E0037F01227F0322121B2B7F89226F
:104B80000002040610121416181A1C1E323436388D
:104B90003A3C3E010204081020408040801020046E
:104BA000080102003FC0FF007FBFC00000FFFFC040
:104BB00000808000010204060810007D04E4FC125D
:104BC0003853E0FAA3E06F7002EA6E6025123853A2
:104BD000E0FAA3E0FBBAFF08BBFF05BD0402AD0489
:104BE0000CBC04DBBD04027D03ED123854EEF0A3CF
:104BF000EFF0221235A2E4F521E521C3788D96501D
:104C000024E521123573FAA9077B01C001E52112C1
:104C10003551A801FC7D01D0017E02120A5B124DC4
:104C2000B7052180D41235F47F03227E007F121253
:104C300013F890000074F0F0788DE6540F900002A5
:104C4000F0900007740AF0788EE690000CF0788FF0
:104C5000E6A3F0E4788DF6788EF6788FF67F121260
:104C6000466A22124F00121B1D121B8312C006AB94
:104C700007EB30E713788912090300000000EB30DE
:104C8000E0037F01227F0322121B2BE519451870D8
:104C900004788476017F8922900074E0B45106A3E1
:104CA000E0F5238003752301121B7420630A121B95
:104CB00048124DB778847601E52370037523FFAF62
:104CC00023121CD4EF60037F03227F89227892E6AF
:104CD000FF6402602AEF64806025EFB40405903021
:104CE00018801612142C1214E07892E6B401109079
:104CF0003028E020E00990301C12142F1214E0221A
:104D000090800A7410F09080077440F0908005E065
:104D100030E7F9E4908000F0A3F0F0F0F09080002C
:104D20007430F0908005E030E7F9E4908014F022D0
:104D30007890E630E6047E0580027E0A9041078086
:104D400012904102E020E014904107E030E7F21EAB
:104D5000EE6006E0547FF080E87F00227F0122E4CD
:104D6000FF12388EF9F4601CE4FDED904B939359DB
:104D7000700EEF75F008A47C002DFFEC35F0FE22DC
:104D80000DBD08E60FBF80D91238A122124F0012C4
:104D90001B1D121B8312C003AB07EB30E71378898E
:104DA00012090300000000EB30E0037F01227F03C3
:104DB00022121B2B7F89227890E6B4400DE49041AB
:104DC00006F09041057402F0800C9041067440F0AA
:104DD0009041057480F0904104E020E1F9220080C8
:104DE00002021F00000047656E657269632041750D
:104DF000746F72756E204469736B20202020382EEA
:104E00003030900074E0B4510CA3E07893F6A3E046
:104E10007894F68003121C9C206306121B48124DE6
:104E2000B77F0322900013E030E118E020E014780F
:104E300094E6FF789256700BE6FE789346F6EF4EB6
:104E40007894F67F0322900012E0FEA3E0FF123B6D
:104E50007490900CE0900000F090900DE0900001B4
:104E6000F0121BCE024DB7E4908000F0A3F0F004E6
:104E7000F0E4F09080007430F0908005E030E7F9C5
:104E800090800774C0F022909000E030E2037F0031
:104E900022122A71EF7002FF22120D1B78A1E6F593
:104EA00011C2627F0122851121788DE6F5117D0105
:104EB000AF15AE1412C012852111EF60047F03807C
:104EC000027F0422BF0205121CB9600ABF030A90C8
:104ED000302EE0B4B0037F8922121C88EFF0124B11
:104EE0000A229031C7E0900E40F09031C8E0900E59
:104EF00041F09041037402F0904102E020E1F92278
:104F0000900011E0FCA3E0FDA3E0FEA3E0F5171282
:104F10001464900016E0F518A3E0F5192290800AB9
:104F20007411F090800774FFF09080007480F0E4BA
:104F3000A3F0F004F0E4F02290800774FFF090807A
:104F400005E030E7F91235ED908005E030E7F92211
:104F50008511231215167B017D067C0012C00F857A
:104F6000231122900011E06003D38001C3925912F3
:104F70004DB77F032230620312C009E47891F675C1
:104F800011FF22124F0012140350037F8A227F0365
:104F9000229042017431F090410274FFF0227E00B1
:104FA0007F401213F87F4012466A22900013E030CF
:104FB000E0037F84227F0322124DB7D26E7F03224B
:104FC000019D0000FFFFFFFFFFFFFFFFFFFFFFFF4F
:104FD000FFFFFFFFFFFFFFFFFFFFFFFFFFFFFFFFE1
:104FE000FFFFFFFFFFFFFFFFFFFFFFFFFFFFFFFFD1
:104FF000FFFFFFFFFFFFFFFFFFFFFFFFFFFFFFFFC1
:00000001FF
Be Careful for Rom Size!!!
